{
  "address": "0xe7f1725E7734CE288F8367e1Bb143E90bb3F0512",
  "abi": [
    {
      "inputs": [
        {
          "internalType": "string",
          "name": "_name",
          "type": "string"
        },
        {
          "internalType": "string",
          "name": "_symbol",
          "type": "string"
        },
        {
          "internalType": "address",
          "name": "_authority",
          "type": "address"
        }
      ],
      "stateMutability": "nonpayable",
      "type": "constructor"
    },
    {
      "inputs": [],
      "name": "UNAUTHORIZED",
      "type": "error"
    },
    {
      "anonymous": false,
      "inputs": [
        {
          "indexed": true,
          "internalType": "address",
          "name": "owner",
          "type": "address"
        },
        {
          "indexed": true,
          "internalType": "address",
          "name": "approved",
          "type": "address"
        },
        {
          "indexed": true,
          "internalType": "uint256",
          "name": "tokenId",
          "type": "uint256"
        }
      ],
      "name": "Approval",
      "type": "event"
    },
    {
      "anonymous": false,
      "inputs": [
        {
          "indexed": true,
          "internalType": "address",
          "name": "owner",
          "type": "address"
        },
        {
          "indexed": true,
          "internalType": "address",
          "name": "operator",
          "type": "address"
        },
        {
          "indexed": false,
          "internalType": "bool",
          "name": "approved",
          "type": "bool"
        }
      ],
      "name": "ApprovalForAll",
      "type": "event"
    },
    {
      "anonymous": false,
      "inputs": [
        {
          "indexed": false,
          "internalType": "contract IAuthority",
          "name": "authority",
          "type": "address"
        }
      ],
      "name": "AuthorityUpdated",
      "type": "event"
    },
    {
      "anonymous": false,
      "inputs": [
        {
          "indexed": false,
          "internalType": "string",
          "name": "baseURI",
          "type": "string"
        }
      ],
      "name": "BaseURIChanged",
      "type": "event"
    },
    {
      "anonymous": false,
      "inputs": [
        {
          "indexed": false,
          "internalType": "uint96",
          "name": "denominator",
          "type": "uint96"
        }
      ],
      "name": "DenominatorChanged",
      "type": "event"
    },
    {
      "anonymous": false,
      "inputs": [
        {
          "indexed": false,
          "internalType": "uint256",
          "name": "tokenID",
          "type": "uint256"
        },
        {
          "indexed": false,
          "internalType": "uint256",
          "name": "dna",
          "type": "uint256"
        }
      ],
      "name": "DnaChanged",
      "type": "event"
    },
    {
      "anonymous": false,
      "inputs": [
        {
          "indexed": false,
          "internalType": "address",
          "name": "account",
          "type": "address"
        }
      ],
      "name": "Paused",
      "type": "event"
    },
    {
      "anonymous": false,
      "inputs": [
        {
          "indexed": false,
          "internalType": "address",
          "name": "sender",
          "type": "address"
        },
        {
          "indexed": false,
          "internalType": "uint256",
          "name": "value",
          "type": "uint256"
        }
      ],
      "name": "Received",
      "type": "event"
    },
    {
      "anonymous": false,
      "inputs": [
        {
          "indexed": true,
          "internalType": "address",
          "name": "from",
          "type": "address"
        },
        {
          "indexed": true,
          "internalType": "address",
          "name": "to",
          "type": "address"
        },
        {
          "indexed": true,
          "internalType": "uint256",
          "name": "tokenId",
          "type": "uint256"
        }
      ],
      "name": "Transfer",
      "type": "event"
    },
    {
      "anonymous": false,
      "inputs": [
        {
          "indexed": false,
          "internalType": "address",
          "name": "account",
          "type": "address"
        }
      ],
      "name": "Unpaused",
      "type": "event"
    },
    {
      "inputs": [
        {
          "internalType": "address",
          "name": "to",
          "type": "address"
        },
        {
          "internalType": "uint256",
          "name": "tokenId",
          "type": "uint256"
        }
      ],
      "name": "approve",
      "outputs": [],
      "stateMutability": "nonpayable",
      "type": "function"
    },
    {
      "inputs": [],
      "name": "authority",
      "outputs": [
        {
          "internalType": "contract IAuthority",
          "name": "",
          "type": "address"
        }
      ],
      "stateMutability": "view",
      "type": "function"
    },
    {
      "inputs": [
        {
          "internalType": "address",
          "name": "to",
          "type": "address"
        }
      ],
      "name": "automaticMint",
      "outputs": [],
      "stateMutability": "nonpayable",
      "type": "function"
    },
    {
      "inputs": [
        {
          "internalType": "address",
          "name": "owner",
          "type": "address"
        }
      ],
      "name": "balanceOf",
      "outputs": [
        {
          "internalType": "uint256",
          "name": "",
          "type": "uint256"
        }
      ],
      "stateMutability": "view",
      "type": "function"
    },
    {
      "inputs": [],
      "name": "baseURI",
      "outputs": [
        {
          "internalType": "string",
          "name": "",
          "type": "string"
        }
      ],
      "stateMutability": "view",
      "type": "function"
    },
    {
      "inputs": [
        {
          "internalType": "uint256",
          "name": "tokenId",
          "type": "uint256"
        }
      ],
      "name": "burn",
      "outputs": [],
      "stateMutability": "nonpayable",
      "type": "function"
    },
    {
      "inputs": [
        {
          "internalType": "uint96",
          "name": "_denominator",
          "type": "uint96"
        }
      ],
      "name": "changeDenominator",
      "outputs": [
        {
          "internalType": "uint96",
          "name": "",
          "type": "uint96"
        }
      ],
      "stateMutability": "nonpayable",
      "type": "function"
    },
    {
      "inputs": [],
      "name": "denominator",
      "outputs": [
        {
          "internalType": "uint96",
          "name": "",
          "type": "uint96"
        }
      ],
      "stateMutability": "view",
      "type": "function"
    },
    {
      "inputs": [
        {
          "internalType": "uint256",
          "name": "tokenId",
          "type": "uint256"
        }
      ],
      "name": "getApproved",
      "outputs": [
        {
          "internalType": "address",
          "name": "",
          "type": "address"
        }
      ],
      "stateMutability": "view",
      "type": "function"
    },
    {
      "inputs": [
        {
          "internalType": "uint256",
          "name": "",
          "type": "uint256"
        }
      ],
      "name": "indexDna",
      "outputs": [
        {
          "internalType": "uint256",
          "name": "",
          "type": "uint256"
        }
      ],
      "stateMutability": "view",
      "type": "function"
    },
    {
      "inputs": [
        {
          "internalType": "address",
          "name": "owner",
          "type": "address"
        },
        {
          "internalType": "address",
          "name": "operator",
          "type": "address"
        }
      ],
      "name": "isApprovedForAll",
      "outputs": [
        {
          "internalType": "bool",
          "name": "",
          "type": "bool"
        }
      ],
      "stateMutability": "view",
      "type": "function"
    },
    {
      "inputs": [],
      "name": "minter",
      "outputs": [
        {
          "internalType": "address",
          "name": "",
          "type": "address"
        }
      ],
      "stateMutability": "view",
      "type": "function"
    },
    {
      "inputs": [],
      "name": "name",
      "outputs": [
        {
          "internalType": "string",
          "name": "",
          "type": "string"
        }
      ],
      "stateMutability": "view",
      "type": "function"
    },
    {
      "inputs": [
        {
          "internalType": "uint256",
          "name": "tokenId",
          "type": "uint256"
        }
      ],
      "name": "ownerOf",
      "outputs": [
        {
          "internalType": "address",
          "name": "",
          "type": "address"
        }
      ],
      "stateMutability": "view",
      "type": "function"
    },
    {
      "inputs": [],
      "name": "pause",
      "outputs": [],
      "stateMutability": "nonpayable",
      "type": "function"
    },
    {
      "inputs": [],
      "name": "paused",
      "outputs": [
        {
          "internalType": "bool",
          "name": "",
          "type": "bool"
        }
      ],
      "stateMutability": "view",
      "type": "function"
    },
    {
      "inputs": [
        {
          "internalType": "uint256",
          "name": "_tokenId",
          "type": "uint256"
        },
        {
          "internalType": "uint256",
          "name": "_salePrice",
          "type": "uint256"
        }
      ],
      "name": "royaltyInfo",
      "outputs": [
        {
          "internalType": "address",
          "name": "",
          "type": "address"
        },
        {
          "internalType": "uint256",
          "name": "",
          "type": "uint256"
        }
      ],
      "stateMutability": "view",
      "type": "function"
    },
    {
      "inputs": [
        {
          "internalType": "address",
          "name": "to",
          "type": "address"
        },
        {
          "internalType": "uint256",
          "name": "dna",
          "type": "uint256"
        }
      ],
      "name": "safeMint",
      "outputs": [],
      "stateMutability": "nonpayable",
      "type": "function"
    },
    {
      "inputs": [
        {
          "internalType": "address",
          "name": "from",
          "type": "address"
        },
        {
          "internalType": "address",
          "name": "to",
          "type": "address"
        },
        {
          "internalType": "uint256",
          "name": "tokenId",
          "type": "uint256"
        }
      ],
      "name": "safeTransferFrom",
      "outputs": [],
      "stateMutability": "nonpayable",
      "type": "function"
    },
    {
      "inputs": [
        {
          "internalType": "address",
          "name": "from",
          "type": "address"
        },
        {
          "internalType": "address",
          "name": "to",
          "type": "address"
        },
        {
          "internalType": "uint256",
          "name": "tokenId",
          "type": "uint256"
        },
        {
          "internalType": "bytes",
          "name": "_data",
          "type": "bytes"
        }
      ],
      "name": "safeTransferFrom",
      "outputs": [],
      "stateMutability": "nonpayable",
      "type": "function"
    },
    {
      "inputs": [
        {
          "internalType": "address",
          "name": "operator",
          "type": "address"
        },
        {
          "internalType": "bool",
          "name": "approved",
          "type": "bool"
        }
      ],
      "name": "setApprovalForAll",
      "outputs": [],
      "stateMutability": "nonpayable",
      "type": "function"
    },
    {
      "inputs": [
        {
          "internalType": "contract IAuthority",
          "name": "_newAuthority",
          "type": "address"
        }
      ],
      "name": "setAuthority",
      "outputs": [],
      "stateMutability": "nonpayable",
      "type": "function"
    },
    {
      "inputs": [
        {
          "internalType": "string",
          "name": "_newURI",
          "type": "string"
        }
      ],
      "name": "setBaseURI",
      "outputs": [
        {
          "internalType": "string",
          "name": "",
          "type": "string"
        }
      ],
      "stateMutability": "nonpayable",
      "type": "function"
    },
    {
      "inputs": [
        {
          "internalType": "address",
          "name": "receiver",
          "type": "address"
        },
        {
          "internalType": "uint96",
          "name": "feeNumerator",
          "type": "uint96"
        }
      ],
      "name": "setDefaultRoyalty",
      "outputs": [],
      "stateMutability": "nonpayable",
      "type": "function"
    },
    {
      "inputs": [
        {
          "internalType": "uint256",
          "name": "_tokenID",
          "type": "uint256"
        },
        {
          "internalType": "uint256",
          "name": "_dna",
          "type": "uint256"
        }
      ],
      "name": "setDna",
      "outputs": [],
      "stateMutability": "nonpayable",
      "type": "function"
    },
    {
      "inputs": [
        {
          "internalType": "address",
          "name": "_minter",
          "type": "address"
        }
      ],
      "name": "setMinter",
      "outputs": [],
      "stateMutability": "nonpayable",
      "type": "function"
    },
    {
      "inputs": [
        {
          "internalType": "uint256",
          "name": "tokenId",
          "type": "uint256"
        },
        {
          "internalType": "address",
          "name": "receiver",
          "type": "address"
        },
        {
          "internalType": "uint96",
          "name": "feeNumerator",
          "type": "uint96"
        }
      ],
      "name": "setTokenRoyalty",
      "outputs": [],
      "stateMutability": "nonpayable",
      "type": "function"
    },
    {
      "inputs": [
        {
          "internalType": "bytes4",
          "name": "interfaceId",
          "type": "bytes4"
        }
      ],
      "name": "supportsInterface",
      "outputs": [
        {
          "internalType": "bool",
          "name": "",
          "type": "bool"
        }
      ],
      "stateMutability": "view",
      "type": "function"
    },
    {
      "inputs": [],
      "name": "symbol",
      "outputs": [
        {
          "internalType": "string",
          "name": "",
          "type": "string"
        }
      ],
      "stateMutability": "view",
      "type": "function"
    },
    {
      "inputs": [
        {
          "internalType": "uint256",
          "name": "index",
          "type": "uint256"
        }
      ],
      "name": "tokenByIndex",
      "outputs": [
        {
          "internalType": "uint256",
          "name": "",
          "type": "uint256"
        }
      ],
      "stateMutability": "view",
      "type": "function"
    },
    {
      "inputs": [
        {
          "internalType": "address",
          "name": "owner",
          "type": "address"
        },
        {
          "internalType": "uint256",
          "name": "index",
          "type": "uint256"
        }
      ],
      "name": "tokenOfOwnerByIndex",
      "outputs": [
        {
          "internalType": "uint256",
          "name": "",
          "type": "uint256"
        }
      ],
      "stateMutability": "view",
      "type": "function"
    },
    {
      "inputs": [
        {
          "internalType": "uint256",
          "name": "tokenId",
          "type": "uint256"
        }
      ],
      "name": "tokenURI",
      "outputs": [
        {
          "internalType": "string",
          "name": "",
          "type": "string"
        }
      ],
      "stateMutability": "view",
      "type": "function"
    },
    {
      "inputs": [],
      "name": "totalSupply",
      "outputs": [
        {
          "internalType": "uint256",
          "name": "",
          "type": "uint256"
        }
      ],
      "stateMutability": "view",
      "type": "function"
    },
    {
      "inputs": [
        {
          "internalType": "address",
          "name": "from",
          "type": "address"
        },
        {
          "internalType": "address",
          "name": "to",
          "type": "address"
        },
        {
          "internalType": "uint256",
          "name": "tokenId",
          "type": "uint256"
        }
      ],
      "name": "transferFrom",
      "outputs": [],
      "stateMutability": "nonpayable",
      "type": "function"
    },
    {
      "inputs": [],
      "name": "unpause",
      "outputs": [],
      "stateMutability": "nonpayable",
      "type": "function"
    }
  ],
  "transactionHash": "0x13bd600eacf558ecaa37ba932ff4db68c24771f997166549f91db6e2b651c098",
  "args": [
    "Kondux NFT",
    "KONDUX",
    "0x5FbDB2315678afecb367f032d93F642f64180aa3"
  ],
  "numDeployments": 1,
  "solcInputHash": "178f782c80b4d7b273b8630159b2074f",
  "bytecode": "0x60806040523480156200001157600080fd5b5060405162002fe838038062002fe883398101604081905262000034916200023d565b80838381600290805190602001906200004f929190620000ca565b50805162000065906003906020840190620000ca565b5050600c80546001600160a81b0319166101006001600160a01b038516908102919091179091556040519081527f2f658b440c35314f52658ea8a740e05b284cdc84dc9ae01e891f21b8933e7cad915060200160405180910390a15050505062000307565b828054620000d890620002ca565b90600052602060002090601f016020900481019282620000fc576000855562000147565b82601f106200011757805160ff191683800117855562000147565b8280016001018555821562000147579182015b82811115620001475782518255916020019190600101906200012a565b506200015592915062000159565b5090565b5b808211156200015557600081556001016200015a565b634e487b7160e01b600052604160045260246000fd5b600082601f8301126200019857600080fd5b81516001600160401b0380821115620001b557620001b562000170565b604051601f8301601f19908116603f01168101908282118183101715620001e057620001e062000170565b81604052838152602092508683858801011115620001fd57600080fd5b600091505b8382101562000221578582018301518183018401529082019062000202565b83821115620002335760008385830101525b9695505050505050565b6000806000606084860312156200025357600080fd5b83516001600160401b03808211156200026b57600080fd5b620002798783880162000186565b945060208601519150808211156200029057600080fd5b506200029f8682870162000186565b604086015190935090506001600160a01b0381168114620002bf57600080fd5b809150509250925092565b600181811c90821680620002df57607f821691505b602082108114156200030157634e487b7160e01b600052602260045260246000fd5b50919050565b612cd180620003176000396000f3fe608060405234801561001057600080fd5b50600436106102415760003560e01c806355f804b31161014557806396ce0795116100bd578063b88d4fde1161008c578063c87b56dd11610071578063c87b56dd146104f2578063e985e9c514610505578063fca3b5aa1461054157600080fd5b8063b88d4fde146104c7578063bf7e214f146104da57600080fd5b806396ce079514610463578063a14481941461048e578063a22cb465146104a1578063ab51e23a146104b457600080fd5b80636c0360eb116101145780637a9e5e4b116100f95780637a9e5e4b146104405780638456cb591461045357806395d89b411461045b57600080fd5b80636c0360eb1461042557806370a082311461042d57600080fd5b806355f804b3146103e15780635944c753146103f45780635c975abb146104075780636352211e1461041257600080fd5b80631c9ad5b1116101d857806337f8649e116101a757806342842e0e1161018c57806342842e0e146103a857806342966c68146103bb5780634f6ccce7146103ce57600080fd5b806337f8649e1461038d5780633f4ba83a146103a057600080fd5b80631c9ad5b11461031557806323b872dd146103355780632a55205a146103485780632f745c591461037a57600080fd5b8063075461721161021457806307546172146102ab578063081812fc146102dd578063095ea7b3146102f057806318160ddd1461030357600080fd5b806301ffc9a71461024657806304634d8d1461026e578063067b61f21461028357806306fdde0314610296575b600080fd5b610259610254366004612606565b610554565b60405190151581526020015b60405180910390f35b61028161027c366004612656565b610565565b005b61028161029136600461268b565b61057b565b61029e61058d565b6040516102659190612705565b600e546102c590600160601b90046001600160a01b031681565b6040516001600160a01b039091168152602001610265565b6102c56102eb366004612718565b61061f565b6102816102fe366004612731565b6106b9565b600a545b604051908152602001610265565b610307610323366004612718565b600f6020526000908152604090205481565b61028161034336600461275d565b6107cf565b61035b61035636600461268b565b610857565b604080516001600160a01b039093168352602083019190915201610265565b610307610388366004612731565b610903565b61028161039b36600461279e565b6109ab565b610281610c0d565b6102816103b636600461275d565b610c1f565b6102816103c9366004612718565b610c3a565b6103076103dc366004612718565b610cc1565b61029e6103ef366004612847565b610d65565b610281610402366004612890565b610e4e565b600c5460ff16610259565b6102c5610420366004612718565b610e61565b61029e610eec565b61030761043b36600461279e565b610f7a565b61028161044e36600461279e565b611014565b61028161108f565b61029e61109f565b600e54610476906001600160601b031681565b6040516001600160601b039091168152602001610265565b61028161049c366004612731565b6110ae565b6102816104af3660046128ce565b6110e5565b6104766104c236600461290c565b6110f0565b6102816104d5366004612927565b611161565b600c546102c59061010090046001600160a01b031681565b61029e610500366004612718565b6111ef565b6102596105133660046129a7565b6001600160a01b03918216600090815260076020908152604080832093909416825291909152205460ff1690565b61028161054f36600461279e565b6112d8565b600061055f82611308565b92915050565b61056d611313565b61057782826113bb565b5050565b610583611313565b61057782826114b8565b60606002805461059c906129d5565b80601f01602080910402602001604051908101604052809291908181526020018280546105c8906129d5565b80156106155780601f106105ea57610100808354040283529160200191610615565b820191906000526020600020905b8154815290600101906020018083116105f857829003601f168201915b5050505050905090565b6000818152600460205260408120546001600160a01b031661069d5760405162461bcd60e51b815260206004820152602c60248201527f4552433732313a20617070726f76656420717565727920666f72206e6f6e657860448201526b34b9ba32b73a103a37b5b2b760a11b60648201526084015b60405180910390fd5b506000908152600660205260409020546001600160a01b031690565b60006106c482610e61565b9050806001600160a01b0316836001600160a01b031614156107325760405162461bcd60e51b815260206004820152602160248201527f4552433732313a20617070726f76616c20746f2063757272656e74206f776e656044820152603960f91b6064820152608401610694565b336001600160a01b038216148061074e575061074e8133610513565b6107c05760405162461bcd60e51b815260206004820152603860248201527f4552433732313a20617070726f76652063616c6c6572206973206e6f74206f7760448201527f6e6572206e6f7220617070726f76656420666f7220616c6c00000000000000006064820152608401610694565b6107ca8383611507565b505050565b6107da335b82611575565b61084c5760405162461bcd60e51b815260206004820152603160248201527f4552433732313a207472616e736665722063616c6c6572206973206e6f74206f60448201527f776e6572206e6f7220617070726f7665640000000000000000000000000000006064820152608401610694565b6107ca83838361166c565b60008281526001602090815260408083208151808301909252546001600160a01b038116808352600160a01b9091046001600160601b03169282019290925282916108cc5750604080518082019091526000546001600160a01b0381168252600160a01b90046001600160601b031660208201525b6020810151600090612710906108eb906001600160601b031687612a26565b6108f59190612a5b565b915196919550909350505050565b600061090e83610f7a565b82106109825760405162461bcd60e51b815260206004820152602b60248201527f455243373231456e756d657261626c653a206f776e657220696e646578206f7560448201527f74206f6620626f756e64730000000000000000000000000000000000000000006064820152608401610694565b506001600160a01b03919091166000908152600860209081526040808320938352929052205490565b600e54600160601b90046001600160a01b03163314610a175760405162461bcd60e51b815260206004820152602260248201527f4f6e6c79206d696e7465722063616e2063616c6c20746869732066756e63746960448201526137b760f11b6064820152608401610694565b6000610a2260105490565b9050610a626040518060400160405280601881526020017f6175746f6d617469634d696e743a20746f6b656e49643a20000000000000000081525061182b565b610a6b8161186e565b610a79601080546001019055565b610ab76040518060400160405280601881526020017f6175746f6d617469634d696e743a20746f6b656e49643a20000000000000000081525061182b565b610ac8610ac360105490565b61186e565b604080514460208083019190915242828401524360608084019190915241901b6bffffffffffffffffffffffff191660808301528251808303607401815260949092019092528051910120610b516040518060400160405280601481526020017f6175746f6d617469634d696e743a20646e613a2000000000000000000000000081525061182b565b610b5a816118b3565b610b6482826114b8565b610b8860405180604001604052806003815260200162444e4160e81b81525061182b565b6000828152600f6020526040902054610ba0906118b3565b610bc460405180604001604052806002815260200161746f60f01b815250846118f8565b610c036040518060400160405280600781526020017f746f6b656e4964000000000000000000000000000000000000000000000000008152508361193d565b6107ca8383611982565b610c15611313565b610c1d61199c565b565b6107ca83838360405180602001604052806000815250611161565b610c43336107d4565b610cb55760405162461bcd60e51b815260206004820152603060248201527f4552433732314275726e61626c653a2063616c6c6572206973206e6f74206f7760448201527f6e6572206e6f7220617070726f766564000000000000000000000000000000006064820152608401610694565b610cbe81611a38565b50565b6000610ccc600a5490565b8210610d405760405162461bcd60e51b815260206004820152602c60248201527f455243373231456e756d657261626c653a20676c6f62616c20696e646578206f60448201527f7574206f6620626f756e647300000000000000000000000000000000000000006064820152608401610694565b600a8281548110610d5357610d53612a6f565b90600052602060002001549050919050565b6060610d6f611313565b8151610d8290600d906020850190612557565b507f5411e8ebf1636d9e83d5fc4900bf80cbac82e8790da2a4c94db4895e889eedf6600d604051610db39190612a85565b60405180910390a1600d8054610dc8906129d5565b80601f0160208091040260200160405190810160405280929190818152602001828054610df4906129d5565b8015610e415780601f10610e1657610100808354040283529160200191610e41565b820191906000526020600020905b815481529060010190602001808311610e2457829003601f168201915b505050505090505b919050565b610e56611313565b6107ca838383611a52565b6000818152600460205260408120546001600160a01b03168061055f5760405162461bcd60e51b815260206004820152602960248201527f4552433732313a206f776e657220717565727920666f72206e6f6e657869737460448201527f656e7420746f6b656e00000000000000000000000000000000000000000000006064820152608401610694565b600d8054610ef9906129d5565b80601f0160208091040260200160405190810160405280929190818152602001828054610f25906129d5565b8015610f725780601f10610f4757610100808354040283529160200191610f72565b820191906000526020600020905b815481529060010190602001808311610f5557829003601f168201915b505050505081565b60006001600160a01b038216610ff85760405162461bcd60e51b815260206004820152602a60248201527f4552433732313a2062616c616e636520717565727920666f7220746865207a6560448201527f726f2061646472657373000000000000000000000000000000000000000000006064820152608401610694565b506001600160a01b031660009081526005602052604090205490565b61101c611313565b600c80547fffffffffffffffffffffff0000000000000000000000000000000000000000ff166101006001600160a01b038416908102919091179091556040519081527f2f658b440c35314f52658ea8a740e05b284cdc84dc9ae01e891f21b8933e7cad9060200160405180910390a150565b611097611313565b610c1d611b60565b60606003805461059c906129d5565b6110b6611313565b60006110c160105490565b90506110d1601080546001019055565b6110db81836114b8565b6107ca8382611982565b610577338383611bdb565b60006110fa611313565b600e80546bffffffffffffffffffffffff19166001600160601b0384169081179091556040519081527f601b85aa9305dbcfbfc81aa2d4b5126c1ce24afdd1bad47d6880e5b6df081f579060200160405180910390a15050600e546001600160601b031690565b61116b3383611575565b6111dd5760405162461bcd60e51b815260206004820152603160248201527f4552433732313a207472616e736665722063616c6c6572206973206e6f74206f60448201527f776e6572206e6f7220617070726f7665640000000000000000000000000000006064820152608401610694565b6111e984848484611caa565b50505050565b6000818152600460205260409020546060906001600160a01b031661127c5760405162461bcd60e51b815260206004820152602f60248201527f4552433732314d657461646174613a2055524920717565727920666f72206e6f60448201527f6e6578697374656e7420746f6b656e00000000000000000000000000000000006064820152608401610694565b6000600d805461128b906129d5565b9050116112a7576040518060200160405280600081525061055f565b600d6112b283611d28565b6040516020016112c3929190612b0a565b60405160208183030381529060405292915050565b6112e0611313565b600e80546001600160a01b03909216600160601b026001600160601b03909216919091179055565b600061055f82611e3e565b600c60019054906101000a90046001600160a01b03166001600160a01b0316630c340a246040518163ffffffff1660e01b8152600401602060405180830381865afa158015611366573d6000803e3d6000fd5b505050506040513d601f19601f8201168201806040525081019061138a9190612b8d565b6001600160a01b0316336001600160a01b031614610c1d5760405163075fd2b160e01b815260040160405180910390fd5b6127106001600160601b03821611156114295760405162461bcd60e51b815260206004820152602a60248201527f455243323938313a20726f79616c7479206665652077696c6c206578636565646044820152692073616c65507269636560b01b6064820152608401610694565b6001600160a01b03821661147f5760405162461bcd60e51b815260206004820152601960248201527f455243323938313a20696e76616c6964207265636569766572000000000000006044820152606401610694565b604080518082019091526001600160a01b039092168083526001600160601b039091166020909201829052600160a01b90910217600055565b6000828152600f602090815260409182902083905581518481529081018390527f4e26044f7fb3724a9375deb74974fdc2f4e07f265efce87f93cfced354258487910160405180910390a15050565b600081815260066020526040902080546001600160a01b0319166001600160a01b038416908117909155819061153c82610e61565b6001600160a01b03167f8c5be1e5ebec7d5bd14f71427d1e84f3dd0314c0f7b2291e5b200ac8c7c3b92560405160405180910390a45050565b6000818152600460205260408120546001600160a01b03166115ee5760405162461bcd60e51b815260206004820152602c60248201527f4552433732313a206f70657261746f7220717565727920666f72206e6f6e657860448201526b34b9ba32b73a103a37b5b2b760a11b6064820152608401610694565b60006115f983610e61565b9050806001600160a01b0316846001600160a01b031614806116345750836001600160a01b03166116298461061f565b6001600160a01b0316145b8061166457506001600160a01b0380821660009081526007602090815260408083209388168352929052205460ff165b949350505050565b826001600160a01b031661167f82610e61565b6001600160a01b0316146116fb5760405162461bcd60e51b815260206004820152602560248201527f4552433732313a207472616e736665722066726f6d20696e636f72726563742060448201527f6f776e65720000000000000000000000000000000000000000000000000000006064820152608401610694565b6001600160a01b03821661175d5760405162461bcd60e51b8152602060048201526024808201527f4552433732313a207472616e7366657220746f20746865207a65726f206164646044820152637265737360e01b6064820152608401610694565b611768838383611e63565b611773600082611507565b6001600160a01b038316600090815260056020526040812080546001929061179c908490612baa565b90915550506001600160a01b03821660009081526005602052604081208054600192906117ca908490612bc1565b909155505060008181526004602052604080822080546001600160a01b0319166001600160a01b0386811691821790925591518493918716917fddf252ad1be2c89b69c2b068fc378daa952ba7f163c4a11628f55a4df523b3ef91a4505050565b610cbe8160405160240161183f9190612705565b60408051601f198184030181529190526020810180516001600160e01b031663104c13eb60e21b179052611eb4565b610cbe8160405160240161188491815260200190565b60408051601f198184030181529190526020810180516001600160e01b031663f5b1bba960e01b179052611eb4565b610cbe816040516024016118c991815260200190565b60408051601f198184030181529190526020810180516001600160e01b03166327b7cf8560e01b179052611eb4565b610577828260405160240161190e929190612bd9565b60408051601f198184030181529190526020810180516001600160e01b031663319af33360e01b179052611eb4565b6105778282604051602401611953929190612c04565b60408051601f198184030181529190526020810180516001600160e01b03166309710a9d60e41b179052611eb4565b610577828260405180602001604052806000815250611ed5565b600c5460ff166119ee5760405162461bcd60e51b815260206004820152601460248201527f5061757361626c653a206e6f74207061757365640000000000000000000000006044820152606401610694565b600c805460ff191690557f5db9ee0a495bf2e6ff9c91a7834c1ba4fdd244a5e8aa4e537bd38aeae4b073aa335b6040516001600160a01b03909116815260200160405180910390a1565b611a4181611f53565b600090815260016020526040812055565b6127106001600160601b0382161115611ac05760405162461bcd60e51b815260206004820152602a60248201527f455243323938313a20726f79616c7479206665652077696c6c206578636565646044820152692073616c65507269636560b01b6064820152608401610694565b6001600160a01b038216611b165760405162461bcd60e51b815260206004820152601b60248201527f455243323938313a20496e76616c696420706172616d657465727300000000006044820152606401610694565b6040805180820182526001600160a01b0393841681526001600160601b0392831660208083019182526000968752600190529190942093519051909116600160a01b029116179055565b600c5460ff1615611ba65760405162461bcd60e51b815260206004820152601060248201526f14185d5cd8589b194e881c185d5cd95960821b6044820152606401610694565b600c805460ff191660011790557f62e78cea01bee320cd4e420270b5ea74000d11b0c9f74754ebdbfc544b05a258611a1b3390565b816001600160a01b0316836001600160a01b03161415611c3d5760405162461bcd60e51b815260206004820152601960248201527f4552433732313a20617070726f766520746f2063616c6c6572000000000000006044820152606401610694565b6001600160a01b03838116600081815260076020908152604080832094871680845294825291829020805460ff191686151590811790915591519182527f17307eab39ab6107e8899845ad3d59bd9653f200f220920489ca2b5937696c31910160405180910390a3505050565b611cb584848461166c565b611cc184848484611f5c565b6111e95760405162461bcd60e51b815260206004820152603260248201527f4552433732313a207472616e7366657220746f206e6f6e20455243373231526560448201527131b2b4bb32b91034b6b83632b6b2b73a32b960711b6064820152608401610694565b606081611d4c5750506040805180820190915260018152600360fc1b602082015290565b8160005b8115611d765780611d6081612c26565b9150611d6f9050600a83612a5b565b9150611d50565b60008167ffffffffffffffff811115611d9157611d916127bb565b6040519080825280601f01601f191660200182016040528015611dbb576020820181803683370190505b5090505b841561166457611dd0600183612baa565b9150611ddd600a86612c41565b611de8906030612bc1565b60f81b818381518110611dfd57611dfd612a6f565b60200101907effffffffffffffffffffffffffffffffffffffffffffffffffffffffffffff1916908160001a905350611e37600a86612a5b565b9450611dbf565b60006001600160e01b0319821663780e9d6360e01b148061055f575061055f826120a5565b600c5460ff1615611ea95760405162461bcd60e51b815260206004820152601060248201526f14185d5cd8589b194e881c185d5cd95960821b6044820152606401610694565b6107ca8383836120e5565b80516a636f6e736f6c652e6c6f67602083016000808483855afa5050505050565b611edf838361219d565b611eec6000848484611f5c565b6107ca5760405162461bcd60e51b815260206004820152603260248201527f4552433732313a207472616e7366657220746f206e6f6e20455243373231526560448201527131b2b4bb32b91034b6b83632b6b2b73a32b960711b6064820152608401610694565b611a41816122eb565b60006001600160a01b0384163b1561209a57604051630a85bd0160e11b81526001600160a01b0385169063150b7a0290611fa0903390899088908890600401612c55565b6020604051808303816000875af1925050508015611fdb575060408051601f3d908101601f19168201909252611fd891810190612c91565b60015b612080573d808015612009576040519150601f19603f3d011682016040523d82523d6000602084013e61200e565b606091505b5080516120785760405162461bcd60e51b815260206004820152603260248201527f4552433732313a207472616e7366657220746f206e6f6e20455243373231526560448201527131b2b4bb32b91034b6b83632b6b2b73a32b960711b6064820152608401610694565b805181602001fd5b6001600160e01b031916630a85bd0160e11b149050611664565b506001949350505050565b60006001600160e01b031982166380ac58cd60e01b14806120d657506001600160e01b03198216635b5e139f60e01b145b8061055f575061055f82612392565b6001600160a01b0383166121405761213b81600a80546000838152600b60205260408120829055600182018355919091527fc65a7bb8d6351c1cf70c95a316cc6a92839c986682d98bc35f958f4883f9d2a80155565b612163565b816001600160a01b0316836001600160a01b0316146121635761216383826123c7565b6001600160a01b03821661217a576107ca81612464565b826001600160a01b0316826001600160a01b0316146107ca576107ca8282612513565b6001600160a01b0382166121f35760405162461bcd60e51b815260206004820181905260248201527f4552433732313a206d696e7420746f20746865207a65726f20616464726573736044820152606401610694565b6000818152600460205260409020546001600160a01b0316156122585760405162461bcd60e51b815260206004820152601c60248201527f4552433732313a20746f6b656e20616c7265616479206d696e746564000000006044820152606401610694565b61226460008383611e63565b6001600160a01b038216600090815260056020526040812080546001929061228d908490612bc1565b909155505060008181526004602052604080822080546001600160a01b0319166001600160a01b03861690811790915590518392907fddf252ad1be2c89b69c2b068fc378daa952ba7f163c4a11628f55a4df523b3ef908290a45050565b60006122f682610e61565b905061230481600084611e63565b61230f600083611507565b6001600160a01b0381166000908152600560205260408120805460019290612338908490612baa565b909155505060008281526004602052604080822080546001600160a01b0319169055518391906001600160a01b038416907fddf252ad1be2c89b69c2b068fc378daa952ba7f163c4a11628f55a4df523b3ef908390a45050565b60006001600160e01b0319821663152a902d60e11b148061055f57506301ffc9a760e01b6001600160e01b031983161461055f565b600060016123d484610f7a565b6123de9190612baa565b600083815260096020526040902054909150808214612431576001600160a01b03841660009081526008602090815260408083208584528252808320548484528184208190558352600990915290208190555b5060009182526009602090815260408084208490556001600160a01b039094168352600881528383209183525290812055565b600a5460009061247690600190612baa565b6000838152600b6020526040812054600a805493945090928490811061249e5761249e612a6f565b9060005260206000200154905080600a83815481106124bf576124bf612a6f565b6000918252602080832090910192909255828152600b9091526040808220849055858252812055600a8054806124f7576124f7612cae565b6001900381819060005260206000200160009055905550505050565b600061251e83610f7a565b6001600160a01b039093166000908152600860209081526040808320868452825280832085905593825260099052919091209190915550565b828054612563906129d5565b90600052602060002090601f01602090048101928261258557600085556125cb565b82601f1061259e57805160ff19168380011785556125cb565b828001600101855582156125cb579182015b828111156125cb5782518255916020019190600101906125b0565b506125d79291506125db565b5090565b5b808211156125d757600081556001016125dc565b6001600160e01b031981168114610cbe57600080fd5b60006020828403121561261857600080fd5b8135612623816125f0565b9392505050565b6001600160a01b0381168114610cbe57600080fd5b80356001600160601b0381168114610e4957600080fd5b6000806040838503121561266957600080fd5b82356126748161262a565b91506126826020840161263f565b90509250929050565b6000806040838503121561269e57600080fd5b50508035926020909101359150565b60005b838110156126c85781810151838201526020016126b0565b838111156111e95750506000910152565b600081518084526126f18160208601602086016126ad565b601f01601f19169290920160200192915050565b60208152600061262360208301846126d9565b60006020828403121561272a57600080fd5b5035919050565b6000806040838503121561274457600080fd5b823561274f8161262a565b946020939093013593505050565b60008060006060848603121561277257600080fd5b833561277d8161262a565b9250602084013561278d8161262a565b929592945050506040919091013590565b6000602082840312156127b057600080fd5b81356126238161262a565b634e487b7160e01b600052604160045260246000fd5b600067ffffffffffffffff808411156127ec576127ec6127bb565b604051601f8501601f19908116603f01168101908282118183101715612814576128146127bb565b8160405280935085815286868601111561282d57600080fd5b858560208301376000602087830101525050509392505050565b60006020828403121561285957600080fd5b813567ffffffffffffffff81111561287057600080fd5b8201601f8101841361288157600080fd5b611664848235602084016127d1565b6000806000606084860312156128a557600080fd5b8335925060208401356128b78161262a565b91506128c56040850161263f565b90509250925092565b600080604083850312156128e157600080fd5b82356128ec8161262a565b91506020830135801515811461290157600080fd5b809150509250929050565b60006020828403121561291e57600080fd5b6126238261263f565b6000806000806080858703121561293d57600080fd5b84356129488161262a565b935060208501356129588161262a565b925060408501359150606085013567ffffffffffffffff81111561297b57600080fd5b8501601f8101871361298c57600080fd5b61299b878235602084016127d1565b91505092959194509250565b600080604083850312156129ba57600080fd5b82356129c58161262a565b915060208301356129018161262a565b600181811c908216806129e957607f821691505b60208210811415612a0a57634e487b7160e01b600052602260045260246000fd5b50919050565b634e487b7160e01b600052601160045260246000fd5b6000816000190483118215151615612a4057612a40612a10565b500290565b634e487b7160e01b600052601260045260246000fd5b600082612a6a57612a6a612a45565b500490565b634e487b7160e01b600052603260045260246000fd5b6000602080835260008454612a99816129d5565b80848701526040600180841660008114612aba5760018114612ace57612afc565b60ff19851689840152606089019550612afc565b896000528660002060005b85811015612af45781548b8201860152908301908801612ad9565b8a0184019650505b509398975050505050505050565b6000808454612b18816129d5565b60018281168015612b305760018114612b4157612b70565b60ff19841687528287019450612b70565b8860005260208060002060005b85811015612b675781548a820152908401908201612b4e565b50505082870194505b505050508351612b848183602088016126ad565b01949350505050565b600060208284031215612b9f57600080fd5b81516126238161262a565b600082821015612bbc57612bbc612a10565b500390565b60008219821115612bd457612bd4612a10565b500190565b604081526000612bec60408301856126d9565b90506001600160a01b03831660208301529392505050565b604081526000612c1760408301856126d9565b90508260208301529392505050565b6000600019821415612c3a57612c3a612a10565b5060010190565b600082612c5057612c50612a45565b500690565b60006001600160a01b03808716835280861660208401525083604083015260806060830152612c8760808301846126d9565b9695505050505050565b600060208284031215612ca357600080fd5b8151612623816125f0565b634e487b7160e01b600052603160045260246000fdfea164736f6c634300080c000a",
  "devdoc": {
    "kind": "dev",
    "methods": {
      "approve(address,uint256)": {
        "details": "See {IERC721-approve}."
      },
      "balanceOf(address)": {
        "details": "See {IERC721-balanceOf}."
      },
      "burn(uint256)": {
        "details": "Burns `tokenId`. See {ERC721-_burn}. Requirements: - The caller must own `tokenId` or be an approved operator."
      },
      "getApproved(uint256)": {
        "details": "See {IERC721-getApproved}."
      },
      "isApprovedForAll(address,address)": {
        "details": "See {IERC721-isApprovedForAll}."
      },
      "name()": {
        "details": "See {IERC721Metadata-name}."
      },
      "ownerOf(uint256)": {
        "details": "See {IERC721-ownerOf}."
      },
      "paused()": {
        "details": "Returns true if the contract is paused, and false otherwise."
      },
      "royaltyInfo(uint256,uint256)": {
        "details": "Returns how much royalty is owed and to whom, based on a sale price that may be denominated in any unit of exchange. The royalty amount is denominated and should be payed in that same unit of exchange."
      },
      "safeTransferFrom(address,address,uint256)": {
        "details": "See {IERC721-safeTransferFrom}."
      },
      "safeTransferFrom(address,address,uint256,bytes)": {
        "details": "See {IERC721-safeTransferFrom}."
      },
      "setApprovalForAll(address,bool)": {
        "details": "See {IERC721-setApprovalForAll}."
      },
      "symbol()": {
        "details": "See {IERC721Metadata-symbol}."
      },
      "tokenByIndex(uint256)": {
        "details": "See {IERC721Enumerable-tokenByIndex}."
      },
      "tokenOfOwnerByIndex(address,uint256)": {
        "details": "See {IERC721Enumerable-tokenOfOwnerByIndex}."
      },
      "tokenURI(uint256)": {
        "details": "See {IERC721Metadata-tokenURI}."
      },
      "totalSupply()": {
        "details": "See {IERC721Enumerable-totalSupply}."
      },
      "transferFrom(address,address,uint256)": {
        "details": "See {IERC721-transferFrom}."
      }
    },
    "version": 1
  },
  "userdoc": {
    "kind": "user",
    "methods": {},
    "version": 1
  },
  "storageLayout": {
    "storage": [
      {
        "astId": 1707,
        "contract": "contracts/Kondux_NFT.sol:Kondux",
        "label": "_defaultRoyaltyInfo",
        "offset": 0,
        "slot": "0",
        "type": "t_struct(RoyaltyInfo)1704_storage"
      },
      {
        "astId": 1712,
        "contract": "contracts/Kondux_NFT.sol:Kondux",
        "label": "_tokenRoyaltyInfo",
        "offset": 0,
        "slot": "1",
        "type": "t_mapping(t_uint256,t_struct(RoyaltyInfo)1704_storage)"
      },
      {
        "astId": 244,
        "contract": "contracts/Kondux_NFT.sol:Kondux",
        "label": "_name",
        "offset": 0,
        "slot": "2",
        "type": "t_string_storage"
      },
      {
        "astId": 246,
        "contract": "contracts/Kondux_NFT.sol:Kondux",
        "label": "_symbol",
        "offset": 0,
        "slot": "3",
        "type": "t_string_storage"
      },
      {
        "astId": 250,
        "contract": "contracts/Kondux_NFT.sol:Kondux",
        "label": "_owners",
        "offset": 0,
        "slot": "4",
        "type": "t_mapping(t_uint256,t_address)"
      },
      {
        "astId": 254,
        "contract": "contracts/Kondux_NFT.sol:Kondux",
        "label": "_balances",
        "offset": 0,
        "slot": "5",
        "type": "t_mapping(t_address,t_uint256)"
      },
      {
        "astId": 258,
        "contract": "contracts/Kondux_NFT.sol:Kondux",
        "label": "_tokenApprovals",
        "offset": 0,
        "slot": "6",
        "type": "t_mapping(t_uint256,t_address)"
      },
      {
        "astId": 264,
        "contract": "contracts/Kondux_NFT.sol:Kondux",
        "label": "_operatorApprovals",
        "offset": 0,
        "slot": "7",
        "type": "t_mapping(t_address,t_mapping(t_address,t_bool))"
      },
      {
        "astId": 1263,
        "contract": "contracts/Kondux_NFT.sol:Kondux",
        "label": "_ownedTokens",
        "offset": 0,
        "slot": "8",
        "type": "t_mapping(t_address,t_mapping(t_uint256,t_uint256))"
      },
      {
        "astId": 1267,
        "contract": "contracts/Kondux_NFT.sol:Kondux",
        "label": "_ownedTokensIndex",
        "offset": 0,
        "slot": "9",
        "type": "t_mapping(t_uint256,t_uint256)"
      },
      {
        "astId": 1270,
        "contract": "contracts/Kondux_NFT.sol:Kondux",
        "label": "_allTokens",
        "offset": 0,
        "slot": "10",
        "type": "t_array(t_uint256)dyn_storage"
      },
      {
        "astId": 1274,
        "contract": "contracts/Kondux_NFT.sol:Kondux",
        "label": "_allTokensIndex",
        "offset": 0,
        "slot": "11",
        "type": "t_mapping(t_uint256,t_uint256)"
      },
      {
        "astId": 144,
        "contract": "contracts/Kondux_NFT.sol:Kondux",
        "label": "_paused",
        "offset": 0,
        "slot": "12",
        "type": "t_bool"
      },
      {
        "astId": 3593,
        "contract": "contracts/Kondux_NFT.sol:Kondux",
        "label": "authority",
        "offset": 1,
        "slot": "12",
        "type": "t_contract(IAuthority)3513"
      },
      {
        "astId": 2857,
        "contract": "contracts/Kondux_NFT.sol:Kondux",
        "label": "baseURI",
        "offset": 0,
        "slot": "13",
        "type": "t_string_storage"
      },
      {
        "astId": 2859,
        "contract": "contracts/Kondux_NFT.sol:Kondux",
        "label": "denominator",
        "offset": 0,
        "slot": "14",
        "type": "t_uint96"
      },
      {
        "astId": 2861,
        "contract": "contracts/Kondux_NFT.sol:Kondux",
        "label": "minter",
        "offset": 12,
        "slot": "14",
        "type": "t_address"
      },
      {
        "astId": 2865,
        "contract": "contracts/Kondux_NFT.sol:Kondux",
        "label": "indexDna",
        "offset": 0,
        "slot": "15",
        "type": "t_mapping(t_uint256,t_uint256)"
      },
      {
        "astId": 2868,
        "contract": "contracts/Kondux_NFT.sol:Kondux",
        "label": "_tokenIdCounter",
        "offset": 0,
        "slot": "16",
        "type": "t_struct(Counter)2211_storage"
      }
    ],
    "types": {
      "t_address": {
        "encoding": "inplace",
        "label": "address",
        "numberOfBytes": "20"
      },
      "t_array(t_uint256)dyn_storage": {
        "base": "t_uint256",
        "encoding": "dynamic_array",
        "label": "uint256[]",
        "numberOfBytes": "32"
      },
      "t_bool": {
        "encoding": "inplace",
        "label": "bool",
        "numberOfBytes": "1"
      },
      "t_contract(IAuthority)3513": {
        "encoding": "inplace",
        "label": "contract IAuthority",
        "numberOfBytes": "20"
      },
      "t_mapping(t_address,t_bool)": {
        "encoding": "mapping",
        "key": "t_address",
        "label": "mapping(address => bool)",
        "numberOfBytes": "32",
        "value": "t_bool"
      },
      "t_mapping(t_address,t_mapping(t_address,t_bool))": {
        "encoding": "mapping",
        "key": "t_address",
        "label": "mapping(address => mapping(address => bool))",
        "numberOfBytes": "32",
        "value": "t_mapping(t_address,t_bool)"
      },
      "t_mapping(t_address,t_mapping(t_uint256,t_uint256))": {
        "encoding": "mapping",
        "key": "t_address",
        "label": "mapping(address => mapping(uint256 => uint256))",
        "numberOfBytes": "32",
        "value": "t_mapping(t_uint256,t_uint256)"
      },
      "t_mapping(t_address,t_uint256)": {
        "encoding": "mapping",
        "key": "t_address",
        "label": "mapping(address => uint256)",
        "numberOfBytes": "32",
        "value": "t_uint256"
      },
      "t_mapping(t_uint256,t_address)": {
        "encoding": "mapping",
        "key": "t_uint256",
        "label": "mapping(uint256 => address)",
        "numberOfBytes": "32",
        "value": "t_address"
      },
      "t_mapping(t_uint256,t_struct(RoyaltyInfo)1704_storage)": {
        "encoding": "mapping",
        "key": "t_uint256",
        "label": "mapping(uint256 => struct ERC2981.RoyaltyInfo)",
        "numberOfBytes": "32",
        "value": "t_struct(RoyaltyInfo)1704_storage"
      },
      "t_mapping(t_uint256,t_uint256)": {
        "encoding": "mapping",
        "key": "t_uint256",
        "label": "mapping(uint256 => uint256)",
        "numberOfBytes": "32",
        "value": "t_uint256"
      },
      "t_string_storage": {
        "encoding": "bytes",
        "label": "string",
        "numberOfBytes": "32"
      },
      "t_struct(Counter)2211_storage": {
        "encoding": "inplace",
        "label": "struct Counters.Counter",
        "members": [
          {
            "astId": 2210,
            "contract": "contracts/Kondux_NFT.sol:Kondux",
            "label": "_value",
            "offset": 0,
            "slot": "0",
            "type": "t_uint256"
          }
        ],
        "numberOfBytes": "32"
      },
      "t_struct(RoyaltyInfo)1704_storage": {
        "encoding": "inplace",
        "label": "struct ERC2981.RoyaltyInfo",
        "members": [
          {
            "astId": 1701,
            "contract": "contracts/Kondux_NFT.sol:Kondux",
            "label": "receiver",
            "offset": 0,
            "slot": "0",
            "type": "t_address"
          },
          {
            "astId": 1703,
            "contract": "contracts/Kondux_NFT.sol:Kondux",
            "label": "royaltyFraction",
            "offset": 20,
            "slot": "0",
            "type": "t_uint96"
          }
        ],
        "numberOfBytes": "32"
      },
      "t_uint256": {
        "encoding": "inplace",
        "label": "uint256",
        "numberOfBytes": "32"
      },
      "t_uint96": {
        "encoding": "inplace",
        "label": "uint96",
        "numberOfBytes": "12"
      }
    }
  }
}