{
  "address": "0x9fE46736679d2D9a65F0992F2272dE9f3c7fa6e0",
  "abi": [
    {
      "inputs": [
        {
          "internalType": "address",
          "name": "_authority",
          "type": "address"
        },
        {
          "internalType": "address",
          "name": "_kondux",
          "type": "address"
        }
      ],
      "stateMutability": "nonpayable",
      "type": "constructor"
    },
    {
      "inputs": [],
      "name": "UNAUTHORIZED",
      "type": "error"
    },
    {
      "anonymous": false,
      "inputs": [
        {
          "indexed": false,
          "internalType": "contract IAuthority",
          "name": "authority",
          "type": "address"
        }
      ],
      "name": "AuthorityUpdated",
      "type": "event"
    },
    {
      "inputs": [],
      "name": "authority",
      "outputs": [
        {
          "internalType": "contract IAuthority",
          "name": "",
          "type": "address"
        }
      ],
      "stateMutability": "view",
      "type": "function"
    },
    {
      "inputs": [],
      "name": "kondux",
      "outputs": [
        {
          "internalType": "contract IKondux",
          "name": "",
          "type": "address"
        }
      ],
      "stateMutability": "view",
      "type": "function"
    },
    {
      "inputs": [],
      "name": "price",
      "outputs": [
        {
          "internalType": "uint256",
          "name": "",
          "type": "uint256"
        }
      ],
      "stateMutability": "view",
      "type": "function"
    },
    {
      "inputs": [
        {
          "internalType": "contract IAuthority",
          "name": "_newAuthority",
          "type": "address"
        }
      ],
      "name": "setAuthority",
      "outputs": [],
      "stateMutability": "nonpayable",
      "type": "function"
    },
    {
      "inputs": [
        {
          "internalType": "uint256",
          "name": "_price",
          "type": "uint256"
        }
      ],
      "name": "setPrice",
      "outputs": [],
      "stateMutability": "nonpayable",
      "type": "function"
    },
    {
      "stateMutability": "payable",
      "type": "receive"
    }
  ],
  "transactionHash": "0x5228076e3b56c2a0937341028500fc530d1181b12334eb099812511a5d74dcae",
  "args": [
    "0x5FbDB2315678afecb367f032d93F642f64180aa3",
    "0xe7f1725E7734CE288F8367e1Bb143E90bb3F0512"
  ],
  "numDeployments": 1,
  "solcInputHash": "178f782c80b4d7b273b8630159b2074f",
  "bytecode": "0x60a060405234801561001057600080fd5b5060405161088538038061088583398101604081905261002f9161010b565b600080546001600160a01b0319166001600160a01b03841690811790915560405190815282907f2f658b440c35314f52658ea8a740e05b284cdc84dc9ae01e891f21b8933e7cad9060200160405180910390a1506001600160a01b0381166100dd5760405162461bcd60e51b815260206004820152601960248201527f4b6f6e6475782061646472657373206973206e6f742073657400000000000000604482015260640160405180910390fd5b6001600160a01b03166080525061013e565b80516001600160a01b038116811461010657600080fd5b919050565b6000806040838503121561011e57600080fd5b610127836100ef565b9150610135602084016100ef565b90509250929050565b60805161072561016060003960008181610147015261038c01526107256000f3fe60806040526004361061005e5760003560e01c806391b7f5ed1161004357806391b7f5ed146101a6578063a035b1fe146101c6578063bf7e214f146101ea57600080fd5b806369434b71146101355780637a9e5e4b1461018657600080fd5b36610130576100936040518060400160405280600f81526020016e135a5b9d195c881c9958d95a5d9959608a1b81525061020a565b6100c46040518060400160405280600f81526020016e135a5b9d195c881c9958d95a5d9959608a1b81525047610250565b6100f56040518060400160405280600f81526020016e135a5b9d195c881c9958d95a5d9959608a1b81525034610250565b6101266040518060400160405280600f81526020016e135a5b9d195c881c9958d95a5d9959608a1b81525033610299565b61012e6102de565b005b600080fd5b34801561014157600080fd5b506101697f000000000000000000000000000000000000000000000000000000000000000081565b6040516001600160a01b0390911681526020015b60405180910390f35b34801561019257600080fd5b5061012e6101a13660046105d9565b6103f2565b3480156101b257600080fd5b5061012e6101c13660046105fd565b610466565b3480156101d257600080fd5b506101dc60015481565b60405190815260200161017d565b3480156101f657600080fd5b50600054610169906001600160a01b031681565b61024d8160405160240161021e9190610663565b60408051601f198184030181529190526020810180516001600160e01b031663104c13eb60e21b1790526104b2565b50565b6102958282604051602401610266929190610676565b60408051601f198184030181529190526020810180516001600160e01b03166309710a9d60e41b1790526104b2565b5050565b61029582826040516024016102af929190610698565b60408051601f198184030181529190526020810180516001600160e01b031663319af33360e01b1790526104b2565b6001543410156103345760405162461bcd60e51b815260206004820152601160248201527f4e6f7420656e6f75676874206574686572000000000000000000000000000000604482015260640160405180910390fd5b6103776040518060400160405280600581526020017f5f6d696e7400000000000000000000000000000000000000000000000000000081525033346001546104d3565b604051631bfc324f60e11b81523360048201527f00000000000000000000000000000000000000000000000000000000000000006001600160a01b0316906337f8649e90602401600060405180830381600087803b1580156103d857600080fd5b505af11580156103ec573d6000803e3d6000fd5b50505050565b6103fa61051c565b600080547fffffffffffffffffffffffff0000000000000000000000000000000000000000166001600160a01b0383169081179091556040519081527f2f658b440c35314f52658ea8a740e05b284cdc84dc9ae01e891f21b8933e7cad9060200160405180910390a150565b61046e61051c565b6104ad6040518060400160405280600881526020017f736574507269636500000000000000000000000000000000000000000000000081525082610250565b600155565b80516a636f6e736f6c652e6c6f67602083016000808483855afa5050505050565b6103ec848484846040516024016104ed94939291906106c3565b60408051601f198184030181529190526020810180516001600160e01b031663daa394bd60e01b1790526104b2565b60008054906101000a90046001600160a01b03166001600160a01b0316630c340a246040518163ffffffff1660e01b8152600401602060405180830381865afa15801561056d573d6000803e3d6000fd5b505050506040513d601f19601f8201168201806040525081019061059191906106fb565b6001600160a01b0316336001600160a01b0316146105c25760405163075fd2b160e01b815260040160405180910390fd5b565b6001600160a01b038116811461024d57600080fd5b6000602082840312156105eb57600080fd5b81356105f6816105c4565b9392505050565b60006020828403121561060f57600080fd5b5035919050565b6000815180845260005b8181101561063c57602081850181015186830182015201610620565b8181111561064e576000602083870101525b50601f01601f19169290920160200192915050565b6020815260006105f66020830184610616565b6040815260006106896040830185610616565b90508260208301529392505050565b6040815260006106ab6040830185610616565b90506001600160a01b03831660208301529392505050565b6080815260006106d66080830187610616565b6001600160a01b03959095166020830152506040810192909252606090910152919050565b60006020828403121561070d57600080fd5b81516105f6816105c456fea164736f6c634300080c000a",
  "devdoc": {
    "kind": "dev",
    "methods": {},
    "version": 1
  },
  "userdoc": {
    "kind": "user",
    "methods": {},
    "version": 1
  },
  "storageLayout": {
    "storage": [
      {
        "astId": 3593,
        "contract": "contracts/Minter.sol:Minter",
        "label": "authority",
        "offset": 0,
        "slot": "0",
        "type": "t_contract(IAuthority)3513"
      },
      {
        "astId": 3312,
        "contract": "contracts/Minter.sol:Minter",
        "label": "price",
        "offset": 0,
        "slot": "1",
        "type": "t_uint256"
      }
    ],
    "types": {
      "t_contract(IAuthority)3513": {
        "encoding": "inplace",
        "label": "contract IAuthority",
        "numberOfBytes": "20"
      },
      "t_uint256": {
        "encoding": "inplace",
        "label": "uint256",
        "numberOfBytes": "32"
      }
    }
  }
}