{
  "address": "0x9fE46736679d2D9a65F0992F2272dE9f3c7fa6e0",
  "abi": [
    {
      "inputs": [
        {
          "internalType": "address",
          "name": "_authority",
          "type": "address"
        },
        {
          "internalType": "address",
          "name": "_kondux",
          "type": "address"
        }
      ],
      "stateMutability": "nonpayable",
      "type": "constructor"
    },
    {
      "inputs": [],
      "name": "UNAUTHORIZED",
      "type": "error"
    },
    {
      "anonymous": false,
      "inputs": [
        {
          "indexed": false,
          "internalType": "contract IAuthority",
          "name": "authority",
          "type": "address"
        }
      ],
      "name": "AuthorityUpdated",
      "type": "event"
    },
    {
      "inputs": [],
      "name": "authority",
      "outputs": [
        {
          "internalType": "contract IAuthority",
          "name": "",
          "type": "address"
        }
      ],
      "stateMutability": "view",
      "type": "function"
    },
    {
      "inputs": [
        {
          "internalType": "bytes32[]",
          "name": "_merkleProof",
          "type": "bytes32[]"
        }
      ],
      "name": "checkValidity",
      "outputs": [
        {
          "internalType": "uint256",
          "name": "",
          "type": "uint256"
        }
      ],
      "stateMutability": "nonpayable",
      "type": "function"
    },
    {
      "inputs": [],
      "name": "kondux",
      "outputs": [
        {
          "internalType": "contract IKondux",
          "name": "",
          "type": "address"
        }
      ],
      "stateMutability": "view",
      "type": "function"
    },
    {
      "inputs": [],
      "name": "price",
      "outputs": [
        {
          "internalType": "uint256",
          "name": "",
          "type": "uint256"
        }
      ],
      "stateMutability": "view",
      "type": "function"
    },
    {
      "inputs": [],
      "name": "root",
      "outputs": [
        {
          "internalType": "bytes32",
          "name": "",
          "type": "bytes32"
        }
      ],
      "stateMutability": "view",
      "type": "function"
    },
    {
      "inputs": [
        {
          "internalType": "contract IAuthority",
          "name": "_newAuthority",
          "type": "address"
        }
      ],
      "name": "setAuthority",
      "outputs": [],
      "stateMutability": "nonpayable",
      "type": "function"
    },
    {
      "inputs": [
        {
          "internalType": "uint256",
          "name": "_price",
          "type": "uint256"
        }
      ],
      "name": "setPrice",
      "outputs": [],
      "stateMutability": "nonpayable",
      "type": "function"
    },
    {
      "inputs": [
        {
          "internalType": "bytes32",
          "name": "_root",
          "type": "bytes32"
        }
      ],
      "name": "setRoot",
      "outputs": [],
      "stateMutability": "nonpayable",
      "type": "function"
    },
    {
      "inputs": [],
      "name": "unsafeMint",
      "outputs": [
        {
          "internalType": "uint256",
          "name": "",
          "type": "uint256"
        }
      ],
      "stateMutability": "nonpayable",
      "type": "function"
    },
    {
      "stateMutability": "payable",
      "type": "receive"
    }
  ],
  "transactionHash": "0x619c2e67087934fd37e284b63727512e8121a416971ba2f821ee1c357a45a352",
  "args": [
    "0x5FbDB2315678afecb367f032d93F642f64180aa3",
    "0xe7f1725E7734CE288F8367e1Bb143E90bb3F0512"
  ],
  "numDeployments": 1,
  "solcInputHash": "c3099f532123ccc9511e52732993e3c9",
  "bytecode": "0x60a060405234801561001057600080fd5b50604051610c25380380610c2583398101604081905261002f9161010b565b600080546001600160a01b0319166001600160a01b03841690811790915560405190815282907f2f658b440c35314f52658ea8a740e05b284cdc84dc9ae01e891f21b8933e7cad9060200160405180910390a1506001600160a01b0381166100dd5760405162461bcd60e51b815260206004820152601960248201527f4b6f6e6475782061646472657373206973206e6f742073657400000000000000604482015260640160405180910390fd5b6001600160a01b03166080525061013e565b80516001600160a01b038116811461010657600080fd5b919050565b6000806040838503121561011e57600080fd5b610127836100ef565b9150610135602084016100ef565b90509250929050565b608051610abe610167600039600081816101830152818161043401526107990152610abe6000f3fe60806040526004361061009a5760003560e01c8063954d90d011610069578063bf7e214f1161004e578063bf7e214f1461025b578063dab5f3401461027b578063ebf0c7171461029b57600080fd5b8063954d90d014610225578063a035b1fe1461024557600080fd5b806369434b71146101715780637a9e5e4b146101c257806388c91f12146101e257806391b7f5ed1461020557600080fd5b3661016c576100cf6040518060400160405280600f81526020016e135a5b9d195c881c9958d95a5d9959608a1b8152506102b1565b6101006040518060400160405280600f81526020016e135a5b9d195c881c9958d95a5d9959608a1b815250476102f7565b6101316040518060400160405280600f81526020016e135a5b9d195c881c9958d95a5d9959608a1b815250346102f7565b6101626040518060400160405280600f81526020016e135a5b9d195c881c9958d95a5d9959608a1b81525033610340565b61016a610385565b005b600080fd5b34801561017d57600080fd5b506101a57f000000000000000000000000000000000000000000000000000000000000000081565b6040516001600160a01b0390911681526020015b60405180910390f35b3480156101ce57600080fd5b5061016a6101dd3660046108a5565b6104a9565b3480156101ee57600080fd5b506101f761051d565b6040519081526020016101b9565b34801561021157600080fd5b5061016a6102203660046108c9565b61052e565b34801561023157600080fd5b506101f76102403660046108e2565b61057a565b34801561025157600080fd5b506101f760015481565b34801561026757600080fd5b506000546101a5906001600160a01b031681565b34801561028757600080fd5b5061016a6102963660046108c9565b610652565b3480156102a757600080fd5b506101f760025481565b6102f4816040516024016102c591906109a4565b60408051601f198184030181529190526020810180516001600160e01b031663104c13eb60e21b17905261065f565b50565b61033c828260405160240161030d9291906109b7565b60408051601f198184030181529190526020810180516001600160e01b03166309710a9d60e41b17905261065f565b5050565b61033c82826040516024016103569291906109d9565b60408051601f198184030181529190526020810180516001600160e01b031663319af33360e01b17905261065f565b6001543410156103dc5760405162461bcd60e51b815260206004820152601160248201527f4e6f7420656e6f7567687420657468657200000000000000000000000000000060448201526064015b60405180910390fd5b61041f6040518060400160405280600581526020017f5f6d696e740000000000000000000000000000000000000000000000000000008152503334600154610680565b604051631bfc324f60e11b81523360048201527f00000000000000000000000000000000000000000000000000000000000000006001600160a01b0316906337f8649e906024016020604051808303816000875af1158015610485573d6000803e3d6000fd5b505050506040513d601f19601f820116820180604052508101906102f49190610a04565b6104b16106cf565b600080547fffffffffffffffffffffffff0000000000000000000000000000000000000000166001600160a01b0383169081179091556040519081527f2f658b440c35314f52658ea8a740e05b284cdc84dc9ae01e891f21b8933e7cad9060200160405180910390a150565b600080610528610777565b92915050565b6105366106cf565b6105756040518060400160405280600881526020017f7365745072696365000000000000000000000000000000000000000000000000815250826102f7565b600155565b6040516bffffffffffffffffffffffff193360601b16602082015260009081906034016040516020818303038152906040528051906020012090506105f6848480806020026020016040519081016040528093929190818152602001838360200280828437600092019190915250506002549150849050610806565b6106425760405162461bcd60e51b815260206004820152600f60248201527f496e636f72726563742070726f6f66000000000000000000000000000000000060448201526064016103d3565b61064a610777565b949350505050565b61065a6106cf565b600255565b80516a636f6e736f6c652e6c6f67602083016000808483855afa5050505050565b6106c98484848460405160240161069a9493929190610a1d565b60408051601f198184030181529190526020810180516001600160e01b031663daa394bd60e01b17905261065f565b50505050565b60008054906101000a90046001600160a01b03166001600160a01b0316630c340a246040518163ffffffff1660e01b8152600401602060405180830381865afa158015610720573d6000803e3d6000fd5b505050506040513d601f19601f820116820180604052508101906107449190610a55565b6001600160a01b0316336001600160a01b0316146107755760405163075fd2b160e01b815260040160405180910390fd5b565b604051631bfc324f60e11b815233600482015260009081906001600160a01b037f000000000000000000000000000000000000000000000000000000000000000016906337f8649e906024016020604051808303816000875af11580156107e2573d6000803e3d6000fd5b505050506040513d601f19601f820116820180604052508101906105289190610a04565b600082610813858461081c565b14949350505050565b600081815b845181101561088857600085828151811061083e5761083e610a72565b602002602001015190508083116108645760008381526020829052604090209250610875565b600081815260208490526040902092505b508061088081610a88565b915050610821565b509392505050565b6001600160a01b03811681146102f457600080fd5b6000602082840312156108b757600080fd5b81356108c281610890565b9392505050565b6000602082840312156108db57600080fd5b5035919050565b600080602083850312156108f557600080fd5b823567ffffffffffffffff8082111561090d57600080fd5b818501915085601f83011261092157600080fd5b81358181111561093057600080fd5b8660208260051b850101111561094557600080fd5b60209290920196919550909350505050565b6000815180845260005b8181101561097d57602081850181015186830182015201610961565b8181111561098f576000602083870101525b50601f01601f19169290920160200192915050565b6020815260006108c26020830184610957565b6040815260006109ca6040830185610957565b90508260208301529392505050565b6040815260006109ec6040830185610957565b90506001600160a01b03831660208301529392505050565b600060208284031215610a1657600080fd5b5051919050565b608081526000610a306080830187610957565b6001600160a01b03959095166020830152506040810192909252606090910152919050565b600060208284031215610a6757600080fd5b81516108c281610890565b634e487b7160e01b600052603260045260246000fd5b6000600019821415610aaa57634e487b7160e01b600052601160045260246000fd5b506001019056fea164736f6c634300080c000a",
  "devdoc": {
    "kind": "dev",
    "methods": {},
    "version": 1
  },
  "userdoc": {
    "kind": "user",
    "methods": {},
    "version": 1
  },
  "storageLayout": {
    "storage": [
      {
        "astId": 3768,
        "contract": "contracts/Minter.sol:Minter",
        "label": "authority",
        "offset": 0,
        "slot": "0",
        "type": "t_contract(IAuthority)3686"
      },
      {
        "astId": 3410,
        "contract": "contracts/Minter.sol:Minter",
        "label": "price",
        "offset": 0,
        "slot": "1",
        "type": "t_uint256"
      },
      {
        "astId": 3412,
        "contract": "contracts/Minter.sol:Minter",
        "label": "root",
        "offset": 0,
        "slot": "2",
        "type": "t_bytes32"
      }
    ],
    "types": {
      "t_bytes32": {
        "encoding": "inplace",
        "label": "bytes32",
        "numberOfBytes": "32"
      },
      "t_contract(IAuthority)3686": {
        "encoding": "inplace",
        "label": "contract IAuthority",
        "numberOfBytes": "20"
      },
      "t_uint256": {
        "encoding": "inplace",
        "label": "uint256",
        "numberOfBytes": "32"
      }
    }
  }
}