{
  "address": "0xCf7Ed3AccA5a467e9e704C703E8D87F634fB0Fc9",
  "abi": [
    {
      "inputs": [
        {
          "internalType": "address",
          "name": "_authority",
          "type": "address"
        },
        {
          "internalType": "address",
          "name": "_kondux",
          "type": "address"
        }
      ],
      "stateMutability": "nonpayable",
      "type": "constructor"
    },
    {
      "inputs": [],
      "name": "UNAUTHORIZED",
      "type": "error"
    },
    {
      "anonymous": false,
      "inputs": [
        {
          "indexed": false,
          "internalType": "contract IAuthority",
          "name": "authority",
          "type": "address"
        }
      ],
      "name": "AuthorityUpdated",
      "type": "event"
    },
    {
      "anonymous": false,
      "inputs": [
        {
          "indexed": true,
          "internalType": "address",
          "name": "token",
          "type": "address"
        },
        {
          "indexed": false,
          "internalType": "uint256",
          "name": "amount",
          "type": "uint256"
        }
      ],
      "name": "Deposit",
      "type": "event"
    },
    {
      "anonymous": false,
      "inputs": [
        {
          "indexed": false,
          "internalType": "uint256",
          "name": "amount",
          "type": "uint256"
        }
      ],
      "name": "DepositEther",
      "type": "event"
    },
    {
      "anonymous": false,
      "inputs": [
        {
          "indexed": false,
          "internalType": "uint256",
          "name": "amount",
          "type": "uint256"
        }
      ],
      "name": "EtherDeposit",
      "type": "event"
    },
    {
      "anonymous": false,
      "inputs": [
        {
          "indexed": false,
          "internalType": "uint256",
          "name": "amount",
          "type": "uint256"
        }
      ],
      "name": "EtherWithdrawal",
      "type": "event"
    },
    {
      "anonymous": false,
      "inputs": [
        {
          "indexed": true,
          "internalType": "address",
          "name": "token",
          "type": "address"
        },
        {
          "indexed": false,
          "internalType": "uint256",
          "name": "amount",
          "type": "uint256"
        }
      ],
      "name": "Withdrawal",
      "type": "event"
    },
    {
      "inputs": [],
      "name": "Kondux",
      "outputs": [
        {
          "internalType": "contract IERC20",
          "name": "",
          "type": "address"
        }
      ],
      "stateMutability": "view",
      "type": "function"
    },
    {
      "inputs": [],
      "name": "authority",
      "outputs": [
        {
          "internalType": "contract IAuthority",
          "name": "",
          "type": "address"
        }
      ],
      "stateMutability": "view",
      "type": "function"
    },
    {
      "inputs": [
        {
          "internalType": "uint256",
          "name": "_amount",
          "type": "uint256"
        },
        {
          "internalType": "address",
          "name": "_token",
          "type": "address"
        }
      ],
      "name": "deposit",
      "outputs": [],
      "stateMutability": "nonpayable",
      "type": "function"
    },
    {
      "inputs": [],
      "name": "depositEther",
      "outputs": [],
      "stateMutability": "payable",
      "type": "function"
    },
    {
      "inputs": [
        {
          "internalType": "enum Treasury.STATUS",
          "name": "",
          "type": "uint8"
        },
        {
          "internalType": "address",
          "name": "",
          "type": "address"
        }
      ],
      "name": "permissions",
      "outputs": [
        {
          "internalType": "bool",
          "name": "",
          "type": "bool"
        }
      ],
      "stateMutability": "view",
      "type": "function"
    },
    {
      "inputs": [
        {
          "internalType": "contract IAuthority",
          "name": "_newAuthority",
          "type": "address"
        }
      ],
      "name": "setAuthority",
      "outputs": [],
      "stateMutability": "nonpayable",
      "type": "function"
    },
    {
      "inputs": [
        {
          "internalType": "enum Treasury.STATUS",
          "name": "_status",
          "type": "uint8"
        },
        {
          "internalType": "address",
          "name": "_address",
          "type": "address"
        },
        {
          "internalType": "bool",
          "name": "_permission",
          "type": "bool"
        }
      ],
      "name": "setPermission",
      "outputs": [],
      "stateMutability": "nonpayable",
      "type": "function"
    },
    {
      "inputs": [
        {
          "internalType": "uint256",
          "name": "_amount",
          "type": "uint256"
        },
        {
          "internalType": "address",
          "name": "_token",
          "type": "address"
        }
      ],
      "name": "withdraw",
      "outputs": [],
      "stateMutability": "nonpayable",
      "type": "function"
    },
    {
      "inputs": [
        {
          "internalType": "uint256",
          "name": "_amount",
          "type": "uint256"
        }
      ],
      "name": "withdrawEther",
      "outputs": [],
      "stateMutability": "nonpayable",
      "type": "function"
    },
    {
      "stateMutability": "payable",
      "type": "receive"
    }
  ],
  "transactionHash": "0xd25667c2c5bd0f0caaa1e304210badcc57c379c32ae36bb79e767e07de47ceac",
  "args": [
    "0xe7f1725E7734CE288F8367e1Bb143E90bb3F0512",
    "0x5FbDB2315678afecb367f032d93F642f64180aa3"
  ],
  "numDeployments": 1,
  "solcInputHash": "e63db2df62a015da67d7f44c11d6d887",
  "bytecode": "0x60e0604052601660a08190527f54726561737572793a206e6f742061636365707465640000000000000000000060c0908152620000409160019190620001c1565b506040805180820190915260168082527f54726561737572793a206e6f7420617070726f7665640000000000000000000060209092019182526200008791600291620001c1565b506040805180820190915260178082527f54726561737572793a20696e76616c696420746f6b656e0000000000000000006020909201918252620000ce91600391620001c1565b50348015620000dc57600080fd5b5060405162000d3938038062000d39833981016040819052620000ff9162000284565b600080546001600160a01b0319166001600160a01b03841690811790915560405190815282907f2f658b440c35314f52658ea8a740e05b284cdc84dc9ae01e891f21b8933e7cad9060200160405180910390a1506001600160a01b038116620001ae5760405162461bcd60e51b815260206004820152601460248201527f5a65726f20616464726573733a204b6f6e647578000000000000000000000000604482015260640160405180910390fd5b6001600160a01b031660805250620002f9565b828054620001cf90620002bc565b90600052602060002090601f016020900481019282620001f357600085556200023e565b82601f106200020e57805160ff19168380011785556200023e565b828001600101855582156200023e579182015b828111156200023e57825182559160200191906001019062000221565b506200024c92915062000250565b5090565b5b808211156200024c576000815560010162000251565b80516001600160a01b03811681146200027f57600080fd5b919050565b600080604083850312156200029857600080fd5b620002a38362000267565b9150620002b36020840162000267565b90509250929050565b600181811c90821680620002d157607f821691505b60208210811415620002f357634e487b7160e01b600052602260045260246000fd5b50919050565b608051610a2462000315600039600061017c0152610a246000f3fe6080604052600436106100995760003560e01c80636e553f65116100695780637a9e5e4b1161004e5780637a9e5e4b146101f657806398ea5fca14610216578063bf7e214f1461021e57600080fd5b80636e553f65146101b657806371a330f2146101d657600080fd5b8062f714ce146100d8578063330dd345146100fa5780633bed33ce1461014a5780634b3bd2e61461016a57600080fd5b366100d3576040513481527f66eca0f197db6a72a678383624c427a8762b06bb551f6c6e9f8e34a81c7e8da09060200160405180910390a1005b600080fd5b3480156100e457600080fd5b506100f86100f336600461081b565b61023e565b005b34801561010657600080fd5b5061013561011536600461085f565b600460209081526000928352604080842090915290825290205460ff1681565b60405190151581526020015b60405180910390f35b34801561015657600080fd5b506100f861016536600461088b565b6103c4565b34801561017657600080fd5b5061019e7f000000000000000000000000000000000000000000000000000000000000000081565b6040516001600160a01b039091168152602001610141565b3480156101c257600080fd5b506100f86101d136600461081b565b610473565b3480156101e257600080fd5b506100f86101f13660046108b2565b6105e8565b34801561020257600080fd5b506100f86102113660046108fb565b610656565b6100f86106c4565b34801561022a57600080fd5b5060005461019e906001600160a01b031681565b6001600160a01b03811660009081527f91da3fd0782e51c6b3986e9e672fd566868e71f3dbc2d6c2cd6fbb3e361af2a7602052604090205460019060ff166102a25760405162461bcd60e51b81526004016102999190610935565b60405180910390fd5b503360009081527fabd6e7cb50984ff9c2f3e18a2660c3353dadf4e3291deeb275dae2cd1e44fe05602052604090205460029060ff166102f55760405162461bcd60e51b81526004016102999190610935565b506040516323b872dd60e01b8152306004820152336024820152604481018390526001600160a01b038216906323b872dd90606401602060405180830381600087803b15801561034457600080fd5b505af1158015610358573d6000803e3d6000fd5b505050506040513d601f19601f8201168201806040525081019061037c91906109dd565b50806001600160a01b03167f7fcf532c15f0a6db0bd6d0e038bea71d30d808c7d98cb3bf7268a95bf5081b65836040516103b891815260200190565b60405180910390a25050565b3360009081527fabd6e7cb50984ff9c2f3e18a2660c3353dadf4e3291deeb275dae2cd1e44fe05602052604090205460029060ff166104165760405162461bcd60e51b81526004016102999190610935565b50604051339082156108fc029083906000818181858888f1935050505061043c57600080fd5b6040518181527f1c372e00c65a07879f6f0931cde0a016339ce6d111c23383caa9922c1c2aab7b906020015b60405180910390a150565b6001600160a01b03811660009081527f91da3fd0782e51c6b3986e9e672fd566868e71f3dbc2d6c2cd6fbb3e361af2a7602052604090205460ff161561050b573360009081527f17ef568e3e12ab5b9c7254a8d58478811de00f9e6eb34345acd53bf8fd09d3ec602052604090205460029060ff166105055760405162461bcd60e51b81526004016102999190610935565b50610526565b600360405162461bcd60e51b81526004016102999190610935565b6040516323b872dd60e01b8152336004820152306024820152604481018390526001600160a01b038216906323b872dd90606401602060405180830381600087803b15801561057457600080fd5b505af1158015610588573d6000803e3d6000fd5b505050506040513d601f19601f820116820180604052508101906105ac91906109dd565b50806001600160a01b03167fe1fffcc4923d04b559f4d29a8bfc6cda04eb5b0d3c460751c2402c5c5cc9109c836040516103b891815260200190565b6105f061074c565b80600460008560028111156106075761060761091f565b60028111156106185761061861091f565b8152602080820192909252604090810160009081206001600160a01b0396909616815294909152909220805460ff1916921515929092179091555050565b61065e61074c565b600080547fffffffffffffffffffffffff0000000000000000000000000000000000000000166001600160a01b0383169081179091556040519081527f2f658b440c35314f52658ea8a740e05b284cdc84dc9ae01e891f21b8933e7cad90602001610468565b3360009081527f17ef568e3e12ab5b9c7254a8d58478811de00f9e6eb34345acd53bf8fd09d3ec602052604090205460029060ff166107165760405162461bcd60e51b81526004016102999190610935565b506040513481527fd5269418e5a2b45e710169d2c4b95243f38cee4ca6044cb91d8636dc4d01dd8a9060200160405180910390a1565b60008054906101000a90046001600160a01b03166001600160a01b0316630c340a246040518163ffffffff1660e01b815260040160206040518083038186803b15801561079857600080fd5b505afa1580156107ac573d6000803e3d6000fd5b505050506040513d601f19601f820116820180604052508101906107d091906109fa565b6001600160a01b0316336001600160a01b0316146108015760405163075fd2b160e01b815260040160405180910390fd5b565b6001600160a01b038116811461081857600080fd5b50565b6000806040838503121561082e57600080fd5b82359150602083013561084081610803565b809150509250929050565b80356003811061085a57600080fd5b919050565b6000806040838503121561087257600080fd5b61087b8361084b565b9150602083013561084081610803565b60006020828403121561089d57600080fd5b5035919050565b801515811461081857600080fd5b6000806000606084860312156108c757600080fd5b6108d08461084b565b925060208401356108e081610803565b915060408401356108f0816108a4565b809150509250925092565b60006020828403121561090d57600080fd5b813561091881610803565b9392505050565b634e487b7160e01b600052602160045260246000fd5b600060208083526000845481600182811c91508083168061095757607f831692505b85831081141561097557634e487b7160e01b85526022600452602485fd5b87860183815260200181801561099257600181146109a3576109ce565b60ff198616825287820196506109ce565b60008b81526020902060005b868110156109c8578154848201529085019089016109af565b83019750505b50949998505050505050505050565b6000602082840312156109ef57600080fd5b8151610918816108a4565b600060208284031215610a0c57600080fd5b81516109188161080356fea164736f6c6343000809000a",
  "devdoc": {
    "kind": "dev",
    "methods": {
      "deposit(uint256,address)": {
        "params": {
          "_amount": "uint256",
          "_token": "address"
        }
      },
      "withdraw(uint256,address)": {
        "params": {
          "_amount": "uint256",
          "_token": "address"
        }
      }
    },
    "version": 1
  },
  "userdoc": {
    "kind": "user",
    "methods": {
      "deposit(uint256,address)": {
        "notice": "allow approved address to deposit an asset for Kondux"
      },
      "withdraw(uint256,address)": {
        "notice": "allow approved address to withdraw Kondux from reserves"
      }
    },
    "version": 1
  },
  "storageLayout": {
    "storage": [
      {
        "astId": 8105,
        "contract": "contracts/Treasury.sol:Treasury",
        "label": "authority",
        "offset": 0,
        "slot": "0",
        "type": "t_contract(IAuthority)7670"
      },
      {
        "astId": 7278,
        "contract": "contracts/Treasury.sol:Treasury",
        "label": "notAccepted",
        "offset": 0,
        "slot": "1",
        "type": "t_string_storage"
      },
      {
        "astId": 7281,
        "contract": "contracts/Treasury.sol:Treasury",
        "label": "notApproved",
        "offset": 0,
        "slot": "2",
        "type": "t_string_storage"
      },
      {
        "astId": 7284,
        "contract": "contracts/Treasury.sol:Treasury",
        "label": "invalidToken",
        "offset": 0,
        "slot": "3",
        "type": "t_string_storage"
      },
      {
        "astId": 7291,
        "contract": "contracts/Treasury.sol:Treasury",
        "label": "permissions",
        "offset": 0,
        "slot": "4",
        "type": "t_mapping(t_enum(STATUS)7272,t_mapping(t_address,t_bool))"
      }
    ],
    "types": {
      "t_address": {
        "encoding": "inplace",
        "label": "address",
        "numberOfBytes": "20"
      },
      "t_bool": {
        "encoding": "inplace",
        "label": "bool",
        "numberOfBytes": "1"
      },
      "t_contract(IAuthority)7670": {
        "encoding": "inplace",
        "label": "contract IAuthority",
        "numberOfBytes": "20"
      },
      "t_enum(STATUS)7272": {
        "encoding": "inplace",
        "label": "enum Treasury.STATUS",
        "numberOfBytes": "1"
      },
      "t_mapping(t_address,t_bool)": {
        "encoding": "mapping",
        "key": "t_address",
        "label": "mapping(address => bool)",
        "numberOfBytes": "32",
        "value": "t_bool"
      },
      "t_mapping(t_enum(STATUS)7272,t_mapping(t_address,t_bool))": {
        "encoding": "mapping",
        "key": "t_enum(STATUS)7272",
        "label": "mapping(enum Treasury.STATUS => mapping(address => bool))",
        "numberOfBytes": "32",
        "value": "t_mapping(t_address,t_bool)"
      },
      "t_string_storage": {
        "encoding": "bytes",
        "label": "string",
        "numberOfBytes": "32"
      }
    }
  }
}