{
  "address": "0xbe065Ab921a46187b4e438B9eD06fA427e2D9Ca3",
  "abi": [
    {
      "inputs": [
        {
          "internalType": "string",
          "name": "_name",
          "type": "string"
        },
        {
          "internalType": "string",
          "name": "_ticker",
          "type": "string"
        }
      ],
      "stateMutability": "nonpayable",
      "type": "constructor"
    },
    {
      "anonymous": false,
      "inputs": [
        {
          "indexed": true,
          "internalType": "address",
          "name": "owner",
          "type": "address"
        },
        {
          "indexed": true,
          "internalType": "address",
          "name": "spender",
          "type": "address"
        },
        {
          "indexed": false,
          "internalType": "uint256",
          "name": "value",
          "type": "uint256"
        }
      ],
      "name": "Approval",
      "type": "event"
    },
    {
      "anonymous": false,
      "inputs": [
        {
          "indexed": true,
          "internalType": "bytes32",
          "name": "role",
          "type": "bytes32"
        },
        {
          "indexed": true,
          "internalType": "bytes32",
          "name": "previousAdminRole",
          "type": "bytes32"
        },
        {
          "indexed": true,
          "internalType": "bytes32",
          "name": "newAdminRole",
          "type": "bytes32"
        }
      ],
      "name": "RoleAdminChanged",
      "type": "event"
    },
    {
      "anonymous": false,
      "inputs": [
        {
          "indexed": true,
          "internalType": "bytes32",
          "name": "role",
          "type": "bytes32"
        },
        {
          "indexed": true,
          "internalType": "address",
          "name": "account",
          "type": "address"
        },
        {
          "indexed": true,
          "internalType": "address",
          "name": "sender",
          "type": "address"
        }
      ],
      "name": "RoleGranted",
      "type": "event"
    },
    {
      "anonymous": false,
      "inputs": [
        {
          "indexed": true,
          "internalType": "bytes32",
          "name": "role",
          "type": "bytes32"
        },
        {
          "indexed": true,
          "internalType": "address",
          "name": "account",
          "type": "address"
        },
        {
          "indexed": true,
          "internalType": "address",
          "name": "sender",
          "type": "address"
        }
      ],
      "name": "RoleRevoked",
      "type": "event"
    },
    {
      "anonymous": false,
      "inputs": [
        {
          "indexed": true,
          "internalType": "address",
          "name": "from",
          "type": "address"
        },
        {
          "indexed": true,
          "internalType": "address",
          "name": "to",
          "type": "address"
        },
        {
          "indexed": false,
          "internalType": "uint256",
          "name": "value",
          "type": "uint256"
        }
      ],
      "name": "Transfer",
      "type": "event"
    },
    {
      "inputs": [],
      "name": "ADMIN_ROLE",
      "outputs": [
        {
          "internalType": "bytes32",
          "name": "",
          "type": "bytes32"
        }
      ],
      "stateMutability": "view",
      "type": "function"
    },
    {
      "inputs": [],
      "name": "BURNER_ROLE",
      "outputs": [
        {
          "internalType": "bytes32",
          "name": "",
          "type": "bytes32"
        }
      ],
      "stateMutability": "view",
      "type": "function"
    },
    {
      "inputs": [],
      "name": "DEFAULT_ADMIN_ROLE",
      "outputs": [
        {
          "internalType": "bytes32",
          "name": "",
          "type": "bytes32"
        }
      ],
      "stateMutability": "view",
      "type": "function"
    },
    {
      "inputs": [],
      "name": "MINTER_ROLE",
      "outputs": [
        {
          "internalType": "bytes32",
          "name": "",
          "type": "bytes32"
        }
      ],
      "stateMutability": "view",
      "type": "function"
    },
    {
      "inputs": [
        {
          "internalType": "address",
          "name": "owner",
          "type": "address"
        },
        {
          "internalType": "address",
          "name": "spender",
          "type": "address"
        }
      ],
      "name": "allowance",
      "outputs": [
        {
          "internalType": "uint256",
          "name": "",
          "type": "uint256"
        }
      ],
      "stateMutability": "view",
      "type": "function"
    },
    {
      "inputs": [
        {
          "internalType": "address",
          "name": "",
          "type": "address"
        }
      ],
      "name": "allowedContracts",
      "outputs": [
        {
          "internalType": "bool",
          "name": "",
          "type": "bool"
        }
      ],
      "stateMutability": "view",
      "type": "function"
    },
    {
      "inputs": [
        {
          "internalType": "address",
          "name": "spender",
          "type": "address"
        },
        {
          "internalType": "uint256",
          "name": "amount",
          "type": "uint256"
        }
      ],
      "name": "approve",
      "outputs": [
        {
          "internalType": "bool",
          "name": "",
          "type": "bool"
        }
      ],
      "stateMutability": "nonpayable",
      "type": "function"
    },
    {
      "inputs": [
        {
          "internalType": "address",
          "name": "account",
          "type": "address"
        }
      ],
      "name": "balanceOf",
      "outputs": [
        {
          "internalType": "uint256",
          "name": "",
          "type": "uint256"
        }
      ],
      "stateMutability": "view",
      "type": "function"
    },
    {
      "inputs": [
        {
          "internalType": "address",
          "name": "from",
          "type": "address"
        },
        {
          "internalType": "uint256",
          "name": "amount",
          "type": "uint256"
        }
      ],
      "name": "burn",
      "outputs": [],
      "stateMutability": "nonpayable",
      "type": "function"
    },
    {
      "inputs": [],
      "name": "decimals",
      "outputs": [
        {
          "internalType": "uint8",
          "name": "",
          "type": "uint8"
        }
      ],
      "stateMutability": "view",
      "type": "function"
    },
    {
      "inputs": [
        {
          "internalType": "address",
          "name": "spender",
          "type": "address"
        },
        {
          "internalType": "uint256",
          "name": "subtractedValue",
          "type": "uint256"
        }
      ],
      "name": "decreaseAllowance",
      "outputs": [
        {
          "internalType": "bool",
          "name": "",
          "type": "bool"
        }
      ],
      "stateMutability": "nonpayable",
      "type": "function"
    },
    {
      "inputs": [],
      "name": "enableUnrestrictedTransfers",
      "outputs": [
        {
          "internalType": "bool",
          "name": "",
          "type": "bool"
        }
      ],
      "stateMutability": "view",
      "type": "function"
    },
    {
      "inputs": [
        {
          "internalType": "bytes32",
          "name": "role",
          "type": "bytes32"
        }
      ],
      "name": "getRoleAdmin",
      "outputs": [
        {
          "internalType": "bytes32",
          "name": "",
          "type": "bytes32"
        }
      ],
      "stateMutability": "view",
      "type": "function"
    },
    {
      "inputs": [
        {
          "internalType": "bytes32",
          "name": "role",
          "type": "bytes32"
        },
        {
          "internalType": "address",
          "name": "account",
          "type": "address"
        }
      ],
      "name": "grantRole",
      "outputs": [],
      "stateMutability": "nonpayable",
      "type": "function"
    },
    {
      "inputs": [
        {
          "internalType": "bytes32",
          "name": "role",
          "type": "bytes32"
        },
        {
          "internalType": "address",
          "name": "account",
          "type": "address"
        }
      ],
      "name": "hasRole",
      "outputs": [
        {
          "internalType": "bool",
          "name": "",
          "type": "bool"
        }
      ],
      "stateMutability": "view",
      "type": "function"
    },
    {
      "inputs": [
        {
          "internalType": "address",
          "name": "spender",
          "type": "address"
        },
        {
          "internalType": "uint256",
          "name": "addedValue",
          "type": "uint256"
        }
      ],
      "name": "increaseAllowance",
      "outputs": [
        {
          "internalType": "bool",
          "name": "",
          "type": "bool"
        }
      ],
      "stateMutability": "nonpayable",
      "type": "function"
    },
    {
      "inputs": [
        {
          "internalType": "address",
          "name": "to",
          "type": "address"
        },
        {
          "internalType": "uint256",
          "name": "amount",
          "type": "uint256"
        }
      ],
      "name": "mint",
      "outputs": [],
      "stateMutability": "nonpayable",
      "type": "function"
    },
    {
      "inputs": [],
      "name": "name",
      "outputs": [
        {
          "internalType": "string",
          "name": "",
          "type": "string"
        }
      ],
      "stateMutability": "view",
      "type": "function"
    },
    {
      "inputs": [
        {
          "internalType": "bytes32",
          "name": "role",
          "type": "bytes32"
        },
        {
          "internalType": "address",
          "name": "account",
          "type": "address"
        }
      ],
      "name": "renounceRole",
      "outputs": [],
      "stateMutability": "nonpayable",
      "type": "function"
    },
    {
      "inputs": [
        {
          "internalType": "bytes32",
          "name": "role",
          "type": "bytes32"
        },
        {
          "internalType": "address",
          "name": "account",
          "type": "address"
        }
      ],
      "name": "revokeRole",
      "outputs": [],
      "stateMutability": "nonpayable",
      "type": "function"
    },
    {
      "inputs": [
        {
          "internalType": "address",
          "name": "contractAddress",
          "type": "address"
        },
        {
          "internalType": "bool",
          "name": "allowed",
          "type": "bool"
        }
      ],
      "name": "setAllowedContract",
      "outputs": [],
      "stateMutability": "nonpayable",
      "type": "function"
    },
    {
      "inputs": [
        {
          "internalType": "bool",
          "name": "enabled",
          "type": "bool"
        }
      ],
      "name": "setEnableUnrestrictedTransfers",
      "outputs": [],
      "stateMutability": "nonpayable",
      "type": "function"
    },
    {
      "inputs": [
        {
          "internalType": "bytes32",
          "name": "role",
          "type": "bytes32"
        },
        {
          "internalType": "address",
          "name": "addr",
          "type": "address"
        },
        {
          "internalType": "bool",
          "name": "enabled",
          "type": "bool"
        }
      ],
      "name": "setRole",
      "outputs": [],
      "stateMutability": "nonpayable",
      "type": "function"
    },
    {
      "inputs": [
        {
          "internalType": "bytes4",
          "name": "interfaceId",
          "type": "bytes4"
        }
      ],
      "name": "supportsInterface",
      "outputs": [
        {
          "internalType": "bool",
          "name": "",
          "type": "bool"
        }
      ],
      "stateMutability": "view",
      "type": "function"
    },
    {
      "inputs": [],
      "name": "symbol",
      "outputs": [
        {
          "internalType": "string",
          "name": "",
          "type": "string"
        }
      ],
      "stateMutability": "view",
      "type": "function"
    },
    {
      "inputs": [],
      "name": "totalSupply",
      "outputs": [
        {
          "internalType": "uint256",
          "name": "",
          "type": "uint256"
        }
      ],
      "stateMutability": "view",
      "type": "function"
    },
    {
      "inputs": [
        {
          "internalType": "address",
          "name": "to",
          "type": "address"
        },
        {
          "internalType": "uint256",
          "name": "amount",
          "type": "uint256"
        }
      ],
      "name": "transfer",
      "outputs": [
        {
          "internalType": "bool",
          "name": "",
          "type": "bool"
        }
      ],
      "stateMutability": "nonpayable",
      "type": "function"
    },
    {
      "inputs": [
        {
          "internalType": "address",
          "name": "from",
          "type": "address"
        },
        {
          "internalType": "address",
          "name": "to",
          "type": "address"
        },
        {
          "internalType": "uint256",
          "name": "amount",
          "type": "uint256"
        }
      ],
      "name": "transferFrom",
      "outputs": [
        {
          "internalType": "bool",
          "name": "",
          "type": "bool"
        }
      ],
      "stateMutability": "nonpayable",
      "type": "function"
    }
  ],
  "transactionHash": "0x7fd21f7e3bdb7803b53c1cfa763cf71747bf5bbfafaa7d1ebfa2b542fa910778",
  "args": [
    "Helix",
    "HLX"
  ],
  "numDeployments": 1,
  "solcInputHash": "b778540ca1643b552575ae6bf2f1b700",
  "bytecode": "0x60806040523480156200001157600080fd5b5060405162001ca838038062001ca8833981016040819052620000349162000265565b818160036200004483826200035e565b5060046200005382826200035e565b50506006805460ff19169055506200008c7f1effbbff9c66c5e59634f24fe842750c60d18891155c32dd155fc2d661a4c86d33620000ec565b620000b87f9f2df0fed2c77648de5860a4cc508cd0818c85b8b8a1ab4ceeef8d981c8956a633620000ec565b620000e47f3c11d16cbaffd01df69ce1c404f6340ee057498f5f00246190ea54220576a84833620000ec565b50506200042a565b620000f88282620000fc565b5050565b60008281526005602090815260408083206001600160a01b038516845290915290205460ff16620000f85760008281526005602090815260408083206001600160a01b03851684529091529020805460ff191660011790556200015c3390565b6001600160a01b0316816001600160a01b0316837f2f8788117e7eff1d82e926ec794901d17c78024a50270940304540a733656f0d60405160405180910390a45050565b634e487b7160e01b600052604160045260246000fd5b600082601f830112620001c857600080fd5b81516001600160401b0380821115620001e557620001e5620001a0565b604051601f8301601f19908116603f01168101908282118183101715620002105762000210620001a0565b816040528381526020925086838588010111156200022d57600080fd5b600091505b8382101562000251578582018301518183018401529082019062000232565b600093810190920192909252949350505050565b600080604083850312156200027957600080fd5b82516001600160401b03808211156200029157600080fd5b6200029f86838701620001b6565b93506020850151915080821115620002b657600080fd5b50620002c585828601620001b6565b9150509250929050565b600181811c90821680620002e457607f821691505b6020821081036200030557634e487b7160e01b600052602260045260246000fd5b50919050565b601f8211156200035957600081815260208120601f850160051c81016020861015620003345750805b601f850160051c820191505b81811015620003555782815560010162000340565b5050505b505050565b81516001600160401b038111156200037a576200037a620001a0565b62000392816200038b8454620002cf565b846200030b565b602080601f831160018114620003ca5760008415620003b15750858301515b600019600386901b1c1916600185901b17855562000355565b600085815260208120601f198616915b82811015620003fb57888601518255948401946001909101908401620003da565b50858210156200041a5787850151600019600388901b60f8161c191681555b5050505050600190811b01905550565b61186e806200043a6000396000f3fe608060405234801561001057600080fd5b50600436106101c45760003560e01c806363bb9ec5116100f9578063a217fddf11610097578063d539139311610071578063d539139314610413578063d547741f1461043a578063dd62ed3e1461044d578063e4d27caf1461048657600080fd5b8063a217fddf146103e5578063a457c2d7146103ed578063a9059cbb1461040057600080fd5b806375b238fc116100d357806375b238fc1461036a57806391d148541461039157806395d89b41146103ca5780639dc29fac146103d257600080fd5b806363bb9ec51461031b5780636a9513161461032e57806370a082311461034157600080fd5b80632f2ff15d11610166578063395093511161014057806339509351146102bf57806340c10f19146102d257806351e0e26b146102e557806355de1faf1461030857600080fd5b80632f2ff15d14610288578063313ce5671461029d57806336568abe146102ac57600080fd5b806318160ddd116101a257806318160ddd1461021957806323b872dd1461022b578063248a9ca31461023e578063282c51f31461026157600080fd5b806301ffc9a7146101c957806306fdde03146101f1578063095ea7b314610206575b600080fd5b6101dc6101d73660046114cf565b610493565b60405190151581526020015b60405180910390f35b6101f96104ca565b6040516101e8919061151d565b6101dc61021436600461156c565b61055c565b6002545b6040519081526020016101e8565b6101dc610239366004611596565b610574565b61021d61024c3660046115d2565b60009081526005602052604090206001015490565b61021d7f3c11d16cbaffd01df69ce1c404f6340ee057498f5f00246190ea54220576a84881565b61029b6102963660046115eb565b610598565b005b604051601281526020016101e8565b61029b6102ba3660046115eb565b6105c2565b6101dc6102cd36600461156c565b610653565b61029b6102e036600461156c565b610692565b6101dc6102f3366004611617565b60076020526000908152604090205460ff1681565b61029b610316366004611642565b61071a565b61029b61032936600461166c565b6107c3565b61029b61033c366004611687565b610854565b61021d61034f366004611617565b6001600160a01b031660009081526020819052604090205490565b61021d7f1effbbff9c66c5e59634f24fe842750c60d18891155c32dd155fc2d661a4c86d81565b6101dc61039f3660046115eb565b60009182526005602090815260408084206001600160a01b0393909316845291905290205460ff1690565b6101f96108ec565b61029b6103e036600461156c565b6108fb565b61021d600081565b6101dc6103fb36600461156c565b610983565b6101dc61040e36600461156c565b610a2d565b61021d7f9f2df0fed2c77648de5860a4cc508cd0818c85b8b8a1ab4ceeef8d981c8956a681565b61029b6104483660046115eb565b610a3b565b61021d61045b3660046116c3565b6001600160a01b03918216600090815260016020908152604080832093909416825291909152205490565b6006546101dc9060ff1681565b60006001600160e01b03198216637965db0b60e01b14806104c457506301ffc9a760e01b6001600160e01b03198316145b92915050565b6060600380546104d9906116ed565b80601f0160208091040260200160405190810160405280929190818152602001828054610505906116ed565b80156105525780601f1061052757610100808354040283529160200191610552565b820191906000526020600020905b81548152906001019060200180831161053557829003601f168201915b5050505050905090565b60003361056a818585610a56565b5060019392505050565b600033610582858285610b7a565b61058d858585610c0c565b506001949350505050565b6000828152600560205260409020600101546105b381610dea565b6105bd8383610df7565b505050565b6001600160a01b03811633146106455760405162461bcd60e51b815260206004820152602f60248201527f416363657373436f6e74726f6c3a2063616e206f6e6c792072656e6f756e636560448201527f20726f6c657320666f722073656c66000000000000000000000000000000000060648201526084015b60405180910390fd5b61064f8282610e99565b5050565b3360008181526001602090815260408083206001600160a01b038716845290915281205490919061056a908290869061068d90879061173d565b610a56565b3360009081527f15a28d26fa1bf736cf7edc9922607171ccb09c3c73b808e7772a3013e068a522602052604090205460ff166107105760405162461bcd60e51b815260206004820152601760248201527f48656c6978546f6b656e3a206f6e6c79206d696e746572000000000000000000604482015260640161063c565b61064f8282610f1c565b3360009081527f8016bb0c39555f199f60ebe9389fe9d4d70fdd74590e383c792790579f77759c602052604090205460ff166107985760405162461bcd60e51b815260206004820152601660248201527f48656c6978546f6b656e3a206f6e6c792061646d696e00000000000000000000604482015260640161063c565b6001600160a01b03919091166000908152600760205260409020805460ff1916911515919091179055565b3360009081527f8016bb0c39555f199f60ebe9389fe9d4d70fdd74590e383c792790579f77759c602052604090205460ff166108415760405162461bcd60e51b815260206004820152601660248201527f48656c6978546f6b656e3a206f6e6c792061646d696e00000000000000000000604482015260640161063c565b6006805460ff1916911515919091179055565b3360009081527f8016bb0c39555f199f60ebe9389fe9d4d70fdd74590e383c792790579f77759c602052604090205460ff166108d25760405162461bcd60e51b815260206004820152601660248201527f48656c6978546f6b656e3a206f6e6c792061646d696e00000000000000000000604482015260640161063c565b80156108e2576105bd8383610df7565b6105bd8383610e99565b6060600480546104d9906116ed565b3360009081527f847f481f687befb06ed3511f1a8dcef57e83007c0147ae5047583d7056170937602052604090205460ff166109795760405162461bcd60e51b815260206004820152601760248201527f48656c6978546f6b656e3a206f6e6c79206275726e6572000000000000000000604482015260640161063c565b61064f8282610fe7565b3360008181526001602090815260408083206001600160a01b038716845290915281205490919083811015610a205760405162461bcd60e51b815260206004820152602560248201527f45524332303a2064656372656173656420616c6c6f77616e63652062656c6f7760448201527f207a65726f000000000000000000000000000000000000000000000000000000606482015260840161063c565b61058d8286868403610a56565b60003361056a818585610c0c565b6000828152600560205260409020600101546108e281610dea565b6001600160a01b038316610ab85760405162461bcd60e51b8152602060048201526024808201527f45524332303a20617070726f76652066726f6d20746865207a65726f206164646044820152637265737360e01b606482015260840161063c565b6001600160a01b038216610b195760405162461bcd60e51b815260206004820152602260248201527f45524332303a20617070726f766520746f20746865207a65726f206164647265604482015261737360f01b606482015260840161063c565b6001600160a01b0383811660008181526001602090815260408083209487168084529482529182902085905590518481527f8c5be1e5ebec7d5bd14f71427d1e84f3dd0314c0f7b2291e5b200ac8c7c3b925910160405180910390a3505050565b6001600160a01b038381166000908152600160209081526040808320938616835292905220546000198114610c065781811015610bf95760405162461bcd60e51b815260206004820152601d60248201527f45524332303a20696e73756666696369656e7420616c6c6f77616e6365000000604482015260640161063c565b610c068484848403610a56565b50505050565b6001600160a01b038316610c885760405162461bcd60e51b815260206004820152602560248201527f45524332303a207472616e736665722066726f6d20746865207a65726f20616460448201527f6472657373000000000000000000000000000000000000000000000000000000606482015260840161063c565b6001600160a01b038216610cea5760405162461bcd60e51b815260206004820152602360248201527f45524332303a207472616e7366657220746f20746865207a65726f206164647260448201526265737360e81b606482015260840161063c565b610cf5838383611125565b6001600160a01b03831660009081526020819052604090205481811015610d845760405162461bcd60e51b815260206004820152602660248201527f45524332303a207472616e7366657220616d6f756e742065786365656473206260448201527f616c616e63650000000000000000000000000000000000000000000000000000606482015260840161063c565b6001600160a01b03848116600081815260208181526040808320878703905593871680835291849020805487019055925185815290927fddf252ad1be2c89b69c2b068fc378daa952ba7f163c4a11628f55a4df523b3ef910160405180910390a3610c06565b610df481336111f0565b50565b60008281526005602090815260408083206001600160a01b038516845290915290205460ff1661064f5760008281526005602090815260408083206001600160a01b03851684529091529020805460ff19166001179055610e553390565b6001600160a01b0316816001600160a01b0316837f2f8788117e7eff1d82e926ec794901d17c78024a50270940304540a733656f0d60405160405180910390a45050565b60008281526005602090815260408083206001600160a01b038516845290915290205460ff161561064f5760008281526005602090815260408083206001600160a01b0385168085529252808320805460ff1916905551339285917ff6391f5c32d9c69d2a47ea670b442974b53935d1edc7fd64eb21e047a839171b9190a45050565b6001600160a01b038216610f725760405162461bcd60e51b815260206004820152601f60248201527f45524332303a206d696e7420746f20746865207a65726f206164647265737300604482015260640161063c565b610f7e60008383611125565b8060026000828254610f90919061173d565b90915550506001600160a01b038216600081815260208181526040808320805486019055518481527fddf252ad1be2c89b69c2b068fc378daa952ba7f163c4a11628f55a4df523b3ef910160405180910390a35050565b6001600160a01b0382166110475760405162461bcd60e51b815260206004820152602160248201527f45524332303a206275726e2066726f6d20746865207a65726f206164647265736044820152607360f81b606482015260840161063c565b61105382600083611125565b6001600160a01b038216600090815260208190526040902054818110156110c75760405162461bcd60e51b815260206004820152602260248201527f45524332303a206275726e20616d6f756e7420657863656564732062616c616e604482015261636560f01b606482015260840161063c565b6001600160a01b0383166000818152602081815260408083208686039055600280548790039055518581529192917fddf252ad1be2c89b69c2b068fc378daa952ba7f163c4a11628f55a4df523b3ef910160405180910390a3505050565b6001600160a01b038316158061114257506001600160a01b038216155b6105bd5761114f33611265565b8061115c575060065460ff165b15611182576105bd60405180606001604052806036815260200161182c60369139611294565b60405162461bcd60e51b815260206004820152602860248201527f48656c6978546f6b656e3a20646972656374207472616e7366657273206e6f7460448201527f20616c6c6f776564000000000000000000000000000000000000000000000000606482015260840161063c565b60008281526005602090815260408083206001600160a01b038516845290915290205460ff1661064f57611223816112ec565b61122e8360206112fe565b60405160200161123f929190611750565b60408051601f198184030181529082905262461bcd60e51b825261063c9160040161151d565b6000813b61127557506000919050565b506001600160a01b031660009081526007602052604090205460ff1690565b610df4816040516024016112a8919061151d565b60408051601f198184030181529190526020810180517bffffffffffffffffffffffffffffffffffffffffffffffffffffffff1663104c13eb60e21b1790526114ae565b60606104c46001600160a01b03831660145b6060600061130d8360026117d1565b61131890600261173d565b67ffffffffffffffff811115611330576113306117e8565b6040519080825280601f01601f19166020018201604052801561135a576020820181803683370190505b509050600360fc1b81600081518110611375576113756117fe565b60200101906001600160f81b031916908160001a905350600f60fb1b816001815181106113a4576113a46117fe565b60200101906001600160f81b031916908160001a90535060006113c88460026117d1565b6113d390600161173d565b90505b6001811115611458577f303132333435363738396162636465660000000000000000000000000000000085600f1660108110611414576114146117fe565b1a60f81b82828151811061142a5761142a6117fe565b60200101906001600160f81b031916908160001a90535060049490941c9361145181611814565b90506113d6565b5083156114a75760405162461bcd60e51b815260206004820181905260248201527f537472696e67733a20686578206c656e67746820696e73756666696369656e74604482015260640161063c565b9392505050565b80516a636f6e736f6c652e6c6f67602083016000808483855afa5050505050565b6000602082840312156114e157600080fd5b81356001600160e01b0319811681146114a757600080fd5b60005b838110156115145781810151838201526020016114fc565b50506000910152565b602081526000825180602084015261153c8160408501602087016114f9565b601f01601f19169190910160400192915050565b80356001600160a01b038116811461156757600080fd5b919050565b6000806040838503121561157f57600080fd5b61158883611550565b946020939093013593505050565b6000806000606084860312156115ab57600080fd5b6115b484611550565b92506115c260208501611550565b9150604084013590509250925092565b6000602082840312156115e457600080fd5b5035919050565b600080604083850312156115fe57600080fd5b8235915061160e60208401611550565b90509250929050565b60006020828403121561162957600080fd5b6114a782611550565b8035801515811461156757600080fd5b6000806040838503121561165557600080fd5b61165e83611550565b915061160e60208401611632565b60006020828403121561167e57600080fd5b6114a782611632565b60008060006060848603121561169c57600080fd5b833592506116ac60208501611550565b91506116ba60408501611632565b90509250925092565b600080604083850312156116d657600080fd5b6116df83611550565b915061160e60208401611550565b600181811c9082168061170157607f821691505b60208210810361172157634e487b7160e01b600052602260045260246000fd5b50919050565b634e487b7160e01b600052601160045260246000fd5b808201808211156104c4576104c4611727565b7f416363657373436f6e74726f6c3a206163636f756e74200000000000000000008152600083516117888160178501602088016114f9565b7f206973206d697373696e6720726f6c652000000000000000000000000000000060179184019182015283516117c58160288401602088016114f9565b01602801949350505050565b80820281158282048414176104c4576104c4611727565b634e487b7160e01b600052604160045260246000fd5b634e487b7160e01b600052603260045260246000fd5b60008161182357611823611727565b50600019019056fe57686974656c697374656420636f6e7472616374206f7220756e72657374726963746564207472616e736665727320656e61626c6564a164736f6c6343000811000a",
  "devdoc": {
    "kind": "dev",
    "methods": {
      "allowance(address,address)": {
        "details": "See {IERC20-allowance}."
      },
      "approve(address,uint256)": {
        "details": "See {IERC20-approve}. NOTE: If `amount` is the maximum `uint256`, the allowance is not updated on `transferFrom`. This is semantically equivalent to an infinite approval. Requirements: - `spender` cannot be the zero address."
      },
      "balanceOf(address)": {
        "details": "See {IERC20-balanceOf}."
      },
      "decimals()": {
        "details": "Returns the number of decimals used to get its user representation. For example, if `decimals` equals `2`, a balance of `505` tokens should be displayed to a user as `5.05` (`505 / 10 ** 2`). Tokens usually opt for a value of 18, imitating the relationship between Ether and Wei. This is the value {ERC20} uses, unless this function is overridden; NOTE: This information is only used for _display_ purposes: it in no way affects any of the arithmetic of the contract, including {IERC20-balanceOf} and {IERC20-transfer}."
      },
      "decreaseAllowance(address,uint256)": {
        "details": "Atomically decreases the allowance granted to `spender` by the caller. This is an alternative to {approve} that can be used as a mitigation for problems described in {IERC20-approve}. Emits an {Approval} event indicating the updated allowance. Requirements: - `spender` cannot be the zero address. - `spender` must have allowance for the caller of at least `subtractedValue`."
      },
      "getRoleAdmin(bytes32)": {
        "details": "Returns the admin role that controls `role`. See {grantRole} and {revokeRole}. To change a role's admin, use {_setRoleAdmin}."
      },
      "grantRole(bytes32,address)": {
        "details": "Grants `role` to `account`. If `account` had not been already granted `role`, emits a {RoleGranted} event. Requirements: - the caller must have ``role``'s admin role. May emit a {RoleGranted} event."
      },
      "hasRole(bytes32,address)": {
        "details": "Returns `true` if `account` has been granted `role`."
      },
      "increaseAllowance(address,uint256)": {
        "details": "Atomically increases the allowance granted to `spender` by the caller. This is an alternative to {approve} that can be used as a mitigation for problems described in {IERC20-approve}. Emits an {Approval} event indicating the updated allowance. Requirements: - `spender` cannot be the zero address."
      },
      "name()": {
        "details": "Returns the name of the token."
      },
      "renounceRole(bytes32,address)": {
        "details": "Revokes `role` from the calling account. Roles are often managed via {grantRole} and {revokeRole}: this function's purpose is to provide a mechanism for accounts to lose their privileges if they are compromised (such as when a trusted device is misplaced). If the calling account had been revoked `role`, emits a {RoleRevoked} event. Requirements: - the caller must be `account`. May emit a {RoleRevoked} event."
      },
      "revokeRole(bytes32,address)": {
        "details": "Revokes `role` from `account`. If `account` had been granted `role`, emits a {RoleRevoked} event. Requirements: - the caller must have ``role``'s admin role. May emit a {RoleRevoked} event."
      },
      "supportsInterface(bytes4)": {
        "details": "See {IERC165-supportsInterface}."
      },
      "symbol()": {
        "details": "Returns the symbol of the token, usually a shorter version of the name."
      },
      "totalSupply()": {
        "details": "See {IERC20-totalSupply}."
      },
      "transfer(address,uint256)": {
        "details": "See {IERC20-transfer}. Requirements: - `to` cannot be the zero address. - the caller must have a balance of at least `amount`."
      },
      "transferFrom(address,address,uint256)": {
        "details": "See {IERC20-transferFrom}. Emits an {Approval} event indicating the updated allowance. This is not required by the EIP. See the note at the beginning of {ERC20}. NOTE: Does not update the allowance if the current allowance is the maximum `uint256`. Requirements: - `from` and `to` cannot be the zero address. - `from` must have a balance of at least `amount`. - the caller must have allowance for ``from``'s tokens of at least `amount`."
      }
    },
    "version": 1
  },
  "userdoc": {
    "kind": "user",
    "methods": {},
    "version": 1
  },
  "storageLayout": {
    "storage": [
      {
        "astId": 404,
        "contract": "contracts/Helix.sol:Helix",
        "label": "_balances",
        "offset": 0,
        "slot": "0",
        "type": "t_mapping(t_address,t_uint256)"
      },
      {
        "astId": 410,
        "contract": "contracts/Helix.sol:Helix",
        "label": "_allowances",
        "offset": 0,
        "slot": "1",
        "type": "t_mapping(t_address,t_mapping(t_address,t_uint256))"
      },
      {
        "astId": 412,
        "contract": "contracts/Helix.sol:Helix",
        "label": "_totalSupply",
        "offset": 0,
        "slot": "2",
        "type": "t_uint256"
      },
      {
        "astId": 414,
        "contract": "contracts/Helix.sol:Helix",
        "label": "_name",
        "offset": 0,
        "slot": "3",
        "type": "t_string_storage"
      },
      {
        "astId": 416,
        "contract": "contracts/Helix.sol:Helix",
        "label": "_symbol",
        "offset": 0,
        "slot": "4",
        "type": "t_string_storage"
      },
      {
        "astId": 24,
        "contract": "contracts/Helix.sol:Helix",
        "label": "_roles",
        "offset": 0,
        "slot": "5",
        "type": "t_mapping(t_bytes32,t_struct(RoleData)19_storage)"
      },
      {
        "astId": 2247,
        "contract": "contracts/Helix.sol:Helix",
        "label": "enableUnrestrictedTransfers",
        "offset": 0,
        "slot": "6",
        "type": "t_bool"
      },
      {
        "astId": 2251,
        "contract": "contracts/Helix.sol:Helix",
        "label": "allowedContracts",
        "offset": 0,
        "slot": "7",
        "type": "t_mapping(t_address,t_bool)"
      }
    ],
    "types": {
      "t_address": {
        "encoding": "inplace",
        "label": "address",
        "numberOfBytes": "20"
      },
      "t_bool": {
        "encoding": "inplace",
        "label": "bool",
        "numberOfBytes": "1"
      },
      "t_bytes32": {
        "encoding": "inplace",
        "label": "bytes32",
        "numberOfBytes": "32"
      },
      "t_mapping(t_address,t_bool)": {
        "encoding": "mapping",
        "key": "t_address",
        "label": "mapping(address => bool)",
        "numberOfBytes": "32",
        "value": "t_bool"
      },
      "t_mapping(t_address,t_mapping(t_address,t_uint256))": {
        "encoding": "mapping",
        "key": "t_address",
        "label": "mapping(address => mapping(address => uint256))",
        "numberOfBytes": "32",
        "value": "t_mapping(t_address,t_uint256)"
      },
      "t_mapping(t_address,t_uint256)": {
        "encoding": "mapping",
        "key": "t_address",
        "label": "mapping(address => uint256)",
        "numberOfBytes": "32",
        "value": "t_uint256"
      },
      "t_mapping(t_bytes32,t_struct(RoleData)19_storage)": {
        "encoding": "mapping",
        "key": "t_bytes32",
        "label": "mapping(bytes32 => struct AccessControl.RoleData)",
        "numberOfBytes": "32",
        "value": "t_struct(RoleData)19_storage"
      },
      "t_string_storage": {
        "encoding": "bytes",
        "label": "string",
        "numberOfBytes": "32"
      },
      "t_struct(RoleData)19_storage": {
        "encoding": "inplace",
        "label": "struct AccessControl.RoleData",
        "members": [
          {
            "astId": 16,
            "contract": "contracts/Helix.sol:Helix",
            "label": "members",
            "offset": 0,
            "slot": "0",
            "type": "t_mapping(t_address,t_bool)"
          },
          {
            "astId": 18,
            "contract": "contracts/Helix.sol:Helix",
            "label": "adminRole",
            "offset": 0,
            "slot": "1",
            "type": "t_bytes32"
          }
        ],
        "numberOfBytes": "64"
      },
      "t_uint256": {
        "encoding": "inplace",
        "label": "uint256",
        "numberOfBytes": "32"
      }
    }
  }
}