{
  "address": "0xC9bF3cA4Cc7C25E77dFF56a818fC0dC86eBEd397",
  "abi": [
    {
      "inputs": [],
      "stateMutability": "nonpayable",
      "type": "constructor"
    },
    {
      "anonymous": false,
      "inputs": [
        {
          "indexed": true,
          "internalType": "address",
          "name": "owner",
          "type": "address"
        },
        {
          "indexed": true,
          "internalType": "address",
          "name": "spender",
          "type": "address"
        },
        {
          "indexed": false,
          "internalType": "uint256",
          "name": "value",
          "type": "uint256"
        }
      ],
      "name": "Approval",
      "type": "event"
    },
    {
      "anonymous": false,
      "inputs": [
        {
          "indexed": false,
          "internalType": "address",
          "name": "owner",
          "type": "address"
        }
      ],
      "name": "OwnershipTransferred",
      "type": "event"
    },
    {
      "anonymous": false,
      "inputs": [
        {
          "indexed": false,
          "internalType": "uint8",
          "name": "newBuyTax",
          "type": "uint8"
        },
        {
          "indexed": false,
          "internalType": "uint8",
          "name": "newSellTax",
          "type": "uint8"
        }
      ],
      "name": "TaxRateChanged",
      "type": "event"
    },
    {
      "anonymous": false,
      "inputs": [
        {
          "indexed": false,
          "internalType": "address",
          "name": "newTaxWallet",
          "type": "address"
        }
      ],
      "name": "TaxWalletChanged",
      "type": "event"
    },
    {
      "anonymous": false,
      "inputs": [
        {
          "indexed": false,
          "internalType": "uint256",
          "name": "totalWallets",
          "type": "uint256"
        },
        {
          "indexed": false,
          "internalType": "uint256",
          "name": "totalTokens",
          "type": "uint256"
        }
      ],
      "name": "TokensAirdropped",
      "type": "event"
    },
    {
      "anonymous": false,
      "inputs": [
        {
          "indexed": true,
          "internalType": "address",
          "name": "burnedByWallet",
          "type": "address"
        },
        {
          "indexed": false,
          "internalType": "uint256",
          "name": "tokenAmount",
          "type": "uint256"
        }
      ],
      "name": "TokensBurned",
      "type": "event"
    },
    {
      "anonymous": false,
      "inputs": [
        {
          "indexed": true,
          "internalType": "address",
          "name": "from",
          "type": "address"
        },
        {
          "indexed": true,
          "internalType": "address",
          "name": "to",
          "type": "address"
        },
        {
          "indexed": false,
          "internalType": "uint256",
          "name": "value",
          "type": "uint256"
        }
      ],
      "name": "Transfer",
      "type": "event"
    },
    {
      "inputs": [
        {
          "internalType": "uint8",
          "name": "newBuyTax",
          "type": "uint8"
        },
        {
          "internalType": "uint8",
          "name": "newSellTax",
          "type": "uint8"
        }
      ],
      "name": "adjustTaxRate",
      "outputs": [],
      "stateMutability": "nonpayable",
      "type": "function"
    },
    {
      "inputs": [
        {
          "internalType": "address[]",
          "name": "addresses",
          "type": "address[]"
        },
        {
          "internalType": "uint256[]",
          "name": "tokenAmounts",
          "type": "uint256[]"
        }
      ],
      "name": "airdrop",
      "outputs": [],
      "stateMutability": "nonpayable",
      "type": "function"
    },
    {
      "inputs": [
        {
          "internalType": "address",
          "name": "holder",
          "type": "address"
        },
        {
          "internalType": "address",
          "name": "spender",
          "type": "address"
        }
      ],
      "name": "allowance",
      "outputs": [
        {
          "internalType": "uint256",
          "name": "",
          "type": "uint256"
        }
      ],
      "stateMutability": "view",
      "type": "function"
    },
    {
      "inputs": [],
      "name": "antiBotEnabled",
      "outputs": [
        {
          "internalType": "bool",
          "name": "",
          "type": "bool"
        }
      ],
      "stateMutability": "view",
      "type": "function"
    },
    {
      "inputs": [
        {
          "internalType": "address",
          "name": "spender",
          "type": "address"
        },
        {
          "internalType": "uint256",
          "name": "amount",
          "type": "uint256"
        }
      ],
      "name": "approve",
      "outputs": [
        {
          "internalType": "bool",
          "name": "",
          "type": "bool"
        }
      ],
      "stateMutability": "nonpayable",
      "type": "function"
    },
    {
      "inputs": [
        {
          "internalType": "address",
          "name": "account",
          "type": "address"
        }
      ],
      "name": "balanceOf",
      "outputs": [
        {
          "internalType": "uint256",
          "name": "",
          "type": "uint256"
        }
      ],
      "stateMutability": "view",
      "type": "function"
    },
    {
      "inputs": [
        {
          "internalType": "uint256",
          "name": "amount",
          "type": "uint256"
        }
      ],
      "name": "burnTokens",
      "outputs": [],
      "stateMutability": "nonpayable",
      "type": "function"
    },
    {
      "inputs": [],
      "name": "decimals",
      "outputs": [
        {
          "internalType": "uint8",
          "name": "",
          "type": "uint8"
        }
      ],
      "stateMutability": "pure",
      "type": "function"
    },
    {
      "inputs": [
        {
          "internalType": "bool",
          "name": "isEnabled",
          "type": "bool"
        }
      ],
      "name": "enableAntiBot",
      "outputs": [],
      "stateMutability": "nonpayable",
      "type": "function"
    },
    {
      "inputs": [],
      "name": "enableTrading",
      "outputs": [],
      "stateMutability": "nonpayable",
      "type": "function"
    },
    {
      "inputs": [
        {
          "internalType": "address",
          "name": "wallet",
          "type": "address"
        },
        {
          "internalType": "bool",
          "name": "isExcluded",
          "type": "bool"
        }
      ],
      "name": "excludeFromAntiBot",
      "outputs": [],
      "stateMutability": "nonpayable",
      "type": "function"
    },
    {
      "inputs": [
        {
          "internalType": "address",
          "name": "wallet",
          "type": "address"
        },
        {
          "internalType": "bool",
          "name": "isExcluded",
          "type": "bool"
        }
      ],
      "name": "excludeFromFees",
      "outputs": [],
      "stateMutability": "nonpayable",
      "type": "function"
    },
    {
      "inputs": [
        {
          "internalType": "address",
          "name": "",
          "type": "address"
        }
      ],
      "name": "excludedFromAntiBot",
      "outputs": [
        {
          "internalType": "bool",
          "name": "",
          "type": "bool"
        }
      ],
      "stateMutability": "view",
      "type": "function"
    },
    {
      "inputs": [
        {
          "internalType": "address",
          "name": "",
          "type": "address"
        }
      ],
      "name": "excludedFromFees",
      "outputs": [
        {
          "internalType": "bool",
          "name": "",
          "type": "bool"
        }
      ],
      "stateMutability": "view",
      "type": "function"
    },
    {
      "inputs": [
        {
          "internalType": "uint256",
          "name": "_amount",
          "type": "uint256"
        }
      ],
      "name": "faucet",
      "outputs": [],
      "stateMutability": "nonpayable",
      "type": "function"
    },
    {
      "inputs": [],
      "name": "getOwner",
      "outputs": [
        {
          "internalType": "address",
          "name": "",
          "type": "address"
        }
      ],
      "stateMutability": "view",
      "type": "function"
    },
    {
      "inputs": [],
      "name": "initLP",
      "outputs": [],
      "stateMutability": "nonpayable",
      "type": "function"
    },
    {
      "inputs": [],
      "name": "name",
      "outputs": [
        {
          "internalType": "string",
          "name": "",
          "type": "string"
        }
      ],
      "stateMutability": "pure",
      "type": "function"
    },
    {
      "inputs": [
        {
          "internalType": "address",
          "name": "newTaxWallet",
          "type": "address"
        }
      ],
      "name": "setTaxWallet",
      "outputs": [],
      "stateMutability": "nonpayable",
      "type": "function"
    },
    {
      "inputs": [],
      "name": "symbol",
      "outputs": [
        {
          "internalType": "string",
          "name": "",
          "type": "string"
        }
      ],
      "stateMutability": "pure",
      "type": "function"
    },
    {
      "inputs": [],
      "name": "taxEthSend",
      "outputs": [],
      "stateMutability": "nonpayable",
      "type": "function"
    },
    {
      "inputs": [],
      "name": "taxRateBuy",
      "outputs": [
        {
          "internalType": "uint8",
          "name": "",
          "type": "uint8"
        }
      ],
      "stateMutability": "view",
      "type": "function"
    },
    {
      "inputs": [],
      "name": "taxRateSell",
      "outputs": [
        {
          "internalType": "uint8",
          "name": "",
          "type": "uint8"
        }
      ],
      "stateMutability": "view",
      "type": "function"
    },
    {
      "inputs": [],
      "name": "taxSwapMax",
      "outputs": [
        {
          "internalType": "uint256",
          "name": "",
          "type": "uint256"
        }
      ],
      "stateMutability": "view",
      "type": "function"
    },
    {
      "inputs": [],
      "name": "taxSwapMin",
      "outputs": [
        {
          "internalType": "uint256",
          "name": "",
          "type": "uint256"
        }
      ],
      "stateMutability": "view",
      "type": "function"
    },
    {
      "inputs": [
        {
          "internalType": "uint32",
          "name": "minValue",
          "type": "uint32"
        },
        {
          "internalType": "uint32",
          "name": "minDivider",
          "type": "uint32"
        },
        {
          "internalType": "uint32",
          "name": "maxValue",
          "type": "uint32"
        },
        {
          "internalType": "uint32",
          "name": "maxDivider",
          "type": "uint32"
        }
      ],
      "name": "taxSwapSettings",
      "outputs": [],
      "stateMutability": "nonpayable",
      "type": "function"
    },
    {
      "inputs": [],
      "name": "taxTokensSwap",
      "outputs": [],
      "stateMutability": "nonpayable",
      "type": "function"
    },
    {
      "inputs": [],
      "name": "totalSupply",
      "outputs": [
        {
          "internalType": "uint256",
          "name": "",
          "type": "uint256"
        }
      ],
      "stateMutability": "pure",
      "type": "function"
    },
    {
      "inputs": [],
      "name": "tradingOpen",
      "outputs": [
        {
          "internalType": "bool",
          "name": "",
          "type": "bool"
        }
      ],
      "stateMutability": "view",
      "type": "function"
    },
    {
      "inputs": [
        {
          "internalType": "address",
          "name": "recipient",
          "type": "address"
        },
        {
          "internalType": "uint256",
          "name": "amount",
          "type": "uint256"
        }
      ],
      "name": "transfer",
      "outputs": [
        {
          "internalType": "bool",
          "name": "",
          "type": "bool"
        }
      ],
      "stateMutability": "nonpayable",
      "type": "function"
    },
    {
      "inputs": [
        {
          "internalType": "address",
          "name": "sender",
          "type": "address"
        },
        {
          "internalType": "address",
          "name": "recipient",
          "type": "address"
        },
        {
          "internalType": "uint256",
          "name": "amount",
          "type": "uint256"
        }
      ],
      "name": "transferFrom",
      "outputs": [
        {
          "internalType": "bool",
          "name": "",
          "type": "bool"
        }
      ],
      "stateMutability": "nonpayable",
      "type": "function"
    },
    {
      "inputs": [
        {
          "internalType": "address payable",
          "name": "newOwner",
          "type": "address"
        }
      ],
      "name": "transferOwnership",
      "outputs": [],
      "stateMutability": "nonpayable",
      "type": "function"
    },
    {
      "stateMutability": "payable",
      "type": "receive"
    }
  ],
  "transactionHash": "0xa5665a9e29a5c898620976ce73e949fd53e144992482636a2f9bce975486de97",
  "args": [],
  "numDeployments": 1,
  "solcInputHash": "a046d969727d1e7f141e6462683f7d4a",
  "bytecode": "0x6080604052600b80546001600160a81b0319167379bd02b5936ffdc5915cb7cd58156e3169f4f5691790553480156200003757600080fd5b50600080546001600160a01b031916331790556127106200005b6009600a620002a2565b6200006b90633b9aca00620002ba565b6200007890600a620002ba565b620000849190620002d4565b600555612710620000986009600a620002a2565b620000a890633b9aca00620002ba565b620000b5906032620002ba565b620000c19190620002d4565b600655600c80546001600160a01b031916737a250d5630b4cf539739df2c5dacb4c659f2488d1790557ffb19a963956c9cb662dd3ae48988c4b90766df71ea130109840abe0a1b23dba8805460ff199081166001908117909255600080546001600160a01b0390811682526009602090815260408084208054861687179055308085528185208054871688179055845484168552600390925280842080548616871790559083528083208054851686179055600b549091168252902080549091169091179055620002f7565b634e487b7160e01b600052601160045260246000fd5b600181815b80851115620001e4578160001904821115620001c857620001c86200018d565b80851615620001d657918102915b93841c9390800290620001a8565b509250929050565b600082620001fd575060016200029c565b816200020c575060006200029c565b8160018114620002255760028114620002305762000250565b60019150506200029c565b60ff8411156200024457620002446200018d565b50506001821b6200029c565b5060208310610133831016604e8410600b841016171562000275575081810a6200029c565b620002818383620001a3565b80600019048211156200029857620002986200018d565b0290505b92915050565b6000620002b360ff841683620001ec565b9392505050565b80820281158282048414176200029c576200029c6200018d565b600082620002f257634e487b7160e01b600052601260045260246000fd5b500490565b612b9880620003076000396000f3fe6080604052600436106101e65760003560e01c80638a8c523c11610102578063db86159911610095578063ea414b2811610064578063ea414b28146105f5578063eb81994814610615578063f2fde38b1461062b578063ffb54a991461064b57600080fd5b8063db86159914610554578063dbe66ca01461056a578063dca2a8b61461059a578063dd62ed3e146105af57600080fd5b8063c0246668116100d1578063c0246668146104d5578063cc18e05a146104f5578063cfc06e0b14610514578063d8c6404b1461053457600080fd5b80638a8c523c1461045357806395d89b4114610468578063a419117814610495578063a9059cbb146104b557600080fd5b8063579158971161017a5780636e34e91d116101495780636e34e91d146103c657806370a08231146103db57806380781cf914610411578063893d20e81461042b57600080fd5b8063579158971461034657806367243482146103665780636b7f8b90146103865780636d1b229d146103a657600080fd5b80631c939ee9116101b65780631c939ee9146102bf57806323b872dd146102d4578063313ce567146102f4578063388b4f171461031657600080fd5b8062fffc9d146101f257806306fdde0314610214578063095ea7b31461026c57806318160ddd1461029c57600080fd5b366101ed57005b600080fd5b3480156101fe57600080fd5b5061021261020d366004612612565b610665565b005b34801561022057600080fd5b5060408051808201909152600681527f4b6f6e647578000000000000000000000000000000000000000000000000000060208201525b6040516102639190612666565b60405180910390f35b34801561027857600080fd5b5061028c6102873660046126c9565b61088e565b6040519015158152602001610263565b3480156102a857600080fd5b506102b16108fb565b604051908152602001610263565b3480156102cb57600080fd5b5061021261091c565b3480156102e057600080fd5b5061028c6102ef3660046126f5565b6109d1565b34801561030057600080fd5b5060095b60405160ff9091168152602001610263565b34801561032257600080fd5b5061028c610331366004612736565b60096020526000908152604090205460ff1681565b34801561035257600080fd5b50610212610361366004612753565b610aad565b34801561037257600080fd5b506102126103813660046127b8565b610b11565b34801561039257600080fd5b506102126103a1366004612834565b610ed2565b3480156103b257600080fd5b506102126103c1366004612753565b610f49565b3480156103d257600080fd5b5061021261106c565b3480156103e757600080fd5b506102b16103f6366004612736565b6001600160a01b031660009081526001602052604090205490565b34801561041d57600080fd5b506008546103049060ff1681565b34801561043757600080fd5b506000546040516001600160a01b039091168152602001610263565b34801561045f57600080fd5b50610212611389565b34801561047457600080fd5b506040805180820190915260048152630969c88b60e31b6020820152610256565b3480156104a157600080fd5b506102126104b0366004612860565b6113ee565b3480156104c157600080fd5b5061028c6104d03660046126c9565b61150a565b3480156104e157600080fd5b506102126104f0366004612893565b611565565b34801561050157600080fd5b5060085461030490610100900460ff1681565b34801561052057600080fd5b5061021261052f366004612893565b611670565b34801561054057600080fd5b5060085461028c9062010000900460ff1681565b34801561056057600080fd5b506102b160065481565b34801561057657600080fd5b5061028c610585366004612736565b60036020526000908152604090205460ff1681565b3480156105a657600080fd5b5061021261176e565b3480156105bb57600080fd5b506102b16105ca3660046128bf565b6001600160a01b03918216600090815260026020908152604080832093909416825291909152205490565b34801561060157600080fd5b50610212610610366004612736565b61182f565b34801561062157600080fd5b506102b160055481565b34801561063757600080fd5b50610212610646366004612736565b611905565b34801561065757600080fd5b5060045461028c9060ff1681565b6000546001600160a01b031633146106c55760405162461bcd60e51b815260206004820152602a6024820152600080516020612b4c8339815191526044820152693990333ab731ba34b7b760b11b60648201526084015b60405180910390fd5b63ffffffff8084169085166106dc6009600a6129f2565b6106ea90633b9aca00612a01565b6106f49190612a01565b6106fe9190612a18565b60055563ffffffff8082169083166107186009600a6129f2565b61072690633b9aca00612a01565b6107309190612a01565b61073a9190612a18565b600681905560055411156107905760405162461bcd60e51b815260206004820152600c60248201527f4d696e4d6178206572726f72000000000000000000000000000000000000000060448201526064016106bc565b61271061079f6009600a6129f2565b6107ad90633b9aca00612a01565b6107b79190612a18565b600654116108075760405162461bcd60e51b815260206004820152601760248201527f5570706572207468726573686f6c6420746f6f206c6f7700000000000000000060448201526064016106bc565b60646108156009600a6129f2565b61082390633b9aca00612a01565b61082e906002612a01565b6108389190612a18565b600654106108885760405162461bcd60e51b815260206004820152601860248201527f5570706572207468726573686f6c6420746f6f2068696768000000000000000060448201526064016106bc565b50505050565b3360008181526002602090815260408083206001600160a01b038716808552925280832085905551919290917f8c5be1e5ebec7d5bd14f71427d1e84f3dd0314c0f7b2291e5b200ac8c7c3b925906108e99086815260200190565b60405180910390a35060015b92915050565b60006109096009600a6129f2565b61091790633b9aca00612a01565b905090565b6000546001600160a01b031633146109775760405162461bcd60e51b815260206004820152602a6024820152600080516020612b4c8339815191526044820152693990333ab731ba34b7b760b11b60648201526084016106bc565b47806109c55760405162461bcd60e51b815260206004820181905260248201527f4e6f2045544820696e20636f6e747261637420746f206469737472696275746560448201526064016106bc565b6109ce816119bb565b50565b60006109db6119f9565b610a1a5760405162461bcd60e51b815260206004820152601060248201526f2a3930b234b733903737ba1037b832b760811b60448201526064016106bc565b6001600160a01b038416600090815260026020908152604080832033845290915290205460001914610a9a576001600160a01b0384166000908152600260209081526040808320338452909152902054610a75908390612a3a565b6001600160a01b03851660009081526002602090815260408083203384529091529020555b610aa5848484611a2c565b949350505050565b610ab96009600a6129f2565b610ac39082612a01565b3360009081526001602052604081208054909190610ae2908490612a4d565b90915550506040518181523390600090600080516020612b6c833981519152906020015b60405180910390a350565b6000546001600160a01b03163314610b6c5760405162461bcd60e51b815260206004820152602a6024820152600080516020612b4c8339815191526044820152693990333ab731ba34b7b760b11b60648201526084016106bc565b60fa831115610bbd5760405162461bcd60e51b815260206004820181905260248201527f57616c6c657420636f756e74206f766572203235302028676173207269736b2960448201526064016106bc565b828114610c325760405162461bcd60e51b815260206004820152602560248201527f4164647265737320616e6420746f6b656e20616d6f756e74206c697374206d6960448201527f736d61636800000000000000000000000000000000000000000000000000000060648201526084016106bc565b6000805b84811015610c8b57610c4a6009600a6129f2565b848483818110610c5c57610c5c612a60565b90506020020135610c6d9190612a01565b610c779083612a4d565b915080610c8381612a76565b915050610c36565b5033600090815260016020526040902054811115610d115760405162461bcd60e51b815260206004820152602660248201527f546f6b656e2062616c616e6365206c6f776572207468616e2061697264726f7060448201527f20746f74616c000000000000000000000000000000000000000000000000000060648201526084016106bc565b60005b84811015610e9157610d286009600a6129f2565b848483818110610d3a57610d3a612a60565b90506020020135610d4b9190612a01565b3360009081526001602052604081208054909190610d6a908490612a3a565b90915550610d7c90506009600a6129f2565b848483818110610d8e57610d8e612a60565b90506020020135610d9f9190612a01565b60016000888885818110610db557610db5612a60565b9050602002016020810190610dca9190612736565b6001600160a01b03166001600160a01b031681526020019081526020016000206000828254610df99190612a4d565b909155508690508582818110610e1157610e11612a60565b9050602002016020810190610e269190612736565b6001600160a01b031633600080516020612b6c833981519152610e4b6009600a6129f2565b878786818110610e5d57610e5d612a60565b90506020020135610e6e9190612a01565b60405190815260200160405180910390a380610e8981612a76565b915050610d14565b5060408051858152602081018390527f71cc7095cc35ed4701c217a8efb440732eb0737da67f6548c008ac26fba95464910160405180910390a15050505050565b6000546001600160a01b03163314610f2d5760405162461bcd60e51b815260206004820152602a6024820152600080516020612b4c8339815191526044820152693990333ab731ba34b7b760b11b60648201526084016106bc565b60088054911515620100000262ff000019909216919091179055565b3360009081526001602052604090205480821115610fa95760405162461bcd60e51b815260206004820152601560248201527f546f6b656e2062616c616e636520746f6f206c6f77000000000000000000000060448201526064016106bc565b3360009081526001602052604081208054849290610fc8908490612a3a565b9091555050600080805260016020527fa6eef7e35abe7026729641147f7915573c7e97b47efa546f5f6e3230263bcb498054849290611008908490612a4d565b90915550506040518281526000903390600080516020612b6c8339815191529060200160405180910390a360405182815233907ffd38818f5291bf0bb3a2a48aadc06ba8757865d1dabd804585338aab3009dcb69060200160405180910390a25050565b6000546001600160a01b031633146110c75760405162461bcd60e51b815260206004820152602a6024820152600080516020612b4c8339815191526044820152693990333ab731ba34b7b760b11b60648201526084016106bc565b60045460ff161561111a5760405162461bcd60e51b815260206004820152601460248201527f74726164696e6720616c7265616479206f70656e00000000000000000000000060448201526064016106bc565b611122611c05565b47806111705760405162461bcd60e51b815260206004820152601260248201527f6e6f2065746820696e20636f6e7472616374000000000000000000000000000060448201526064016106bc565b30600090815260016020526040902054806111cd5760405162461bcd60e51b815260206004820152600960248201527f6e6f20746f6b656e73000000000000000000000000000000000000000000000060448201526064016106bc565b600c546040805163c45a015560e01b815290516000926001600160a01b03169163c45a01559160048083019260209291908290030181865afa158015611217573d6000803e3d6000fd5b505050506040513d601f19601f8201168201806040525081019061123b9190612a8f565b6001600160a01b031663c9c6539630600c60009054906101000a90046001600160a01b03166001600160a01b031663ad5c46486040518163ffffffff1660e01b8152600401602060405180830381865afa15801561129d573d6000803e3d6000fd5b505050506040513d601f19601f820116820180604052508101906112c19190612a8f565b6040517fffffffff0000000000000000000000000000000000000000000000000000000060e085901b1681526001600160a01b039283166004820152911660248201526044016020604051808303816000875af1158015611326573d6000803e3d6000fd5b505050506040513d601f19601f8201168201806040525081019061134a9190612a8f565b6001600160a01b0381166000908152600760205260409020805460ff19166001179055905061137882611fee565b6113848284600061208c565b505050565b6000546001600160a01b031633146113e45760405162461bcd60e51b815260206004820152602a6024820152600080516020612b4c8339815191526044820152693990333ab731ba34b7b760b11b60648201526084016106bc565b6113ec61213d565b565b6000546001600160a01b031633146114495760405162461bcd60e51b815260206004820152602a6024820152600080516020612b4c8339815191526044820152693990333ab731ba34b7b760b11b60648201526084016106bc565b600560ff8316118015906114615750600560ff821611155b6114ad5760405162461bcd60e51b815260206004820152600c60248201527f54617820746f6f2068696768000000000000000000000000000000000000000060448201526064016106bc565b6008805460ff84811661ffff199092168217610100918516918202179092556040805191825260208201929092527f1dcee7b4b427ba2551f752d6f3ff03de326f6a4fca7432dda760ccff555f27f3910160405180910390a15050565b60006115146119f9565b6115535760405162461bcd60e51b815260206004820152601060248201526f2a3930b234b733903737ba1037b832b760811b60448201526064016106bc565b61155e338484611a2c565b9392505050565b6000546001600160a01b031633146115c05760405162461bcd60e51b815260206004820152602a6024820152600080516020612b4c8339815191526044820152693990333ab731ba34b7b760b11b60648201526084016106bc565b8015611645576001600160a01b03821630148015906115ed57506000546001600160a01b03838116911614155b6116455760405162461bcd60e51b8152602060048201526024808201527f43616e6e6f7420656e666f726365206665657320666f722074686973206164646044820152637265737360e01b60648201526084016106bc565b6001600160a01b03919091166000908152600360205260409020805460ff1916911515919091179055565b6000546001600160a01b031633146116cb5760405162461bcd60e51b815260206004820152602a6024820152600080516020612b4c8339815191526044820152693990333ab731ba34b7b760b11b60648201526084016106bc565b80611743576001600160a01b03821630148015906116f757506000546001600160a01b03838116911614155b6117435760405162461bcd60e51b815260206004820152601d60248201527f546869732061646472657373206d757374206265206578636c7564656400000060448201526064016106bc565b6001600160a01b03919091166000908152600960205260409020805460ff1916911515919091179055565b6000546001600160a01b031633146117c95760405162461bcd60e51b815260206004820152602a6024820152600080516020612b4c8339815191526044820152693990333ab731ba34b7b760b11b60648201526084016106bc565b30600090815260016020526040902054806118265760405162461bcd60e51b815260206004820152600960248201527f4e6f20746f6b656e73000000000000000000000000000000000000000000000060448201526064016106bc565b6109ce816121ae565b6000546001600160a01b0316331461188a5760405162461bcd60e51b815260206004820152602a6024820152600080516020612b4c8339815191526044820152693990333ab731ba34b7b760b11b60648201526084016106bc565b600b805473ffffffffffffffffffffffffffffffffffffffff19166001600160a01b038316908117909155600081815260036020908152604091829020805460ff1916600117905590519182527ea263b61aab5ebdcff20c4c0c74c2589ea5ab52149abde19eca17ad5221789991015b60405180910390a150565b6000546001600160a01b031633146119605760405162461bcd60e51b815260206004820152602a6024820152600080516020612b4c8339815191526044820152693990333ab731ba34b7b760b11b60648201526084016106bc565b6000805473ffffffffffffffffffffffffffffffffffffffff19166001600160a01b0383169081179091556040519081527f04dba622d284ed0014ee4b9a6a68386be1a4c08a4913ae272de89199cc686163906020016118fa565b600b546040516001600160a01b039091169082156108fc029083906000818181858888f193505050501580156119f5573d6000803e3d6000fd5b5050565b600454600090819060ff1615611a1157506001919050565b6000546001600160a01b03163203611a27575060015b919050565b60006001600160a01b038416151580611a4d57506001600160a01b03831615155b611a995760405162461bcd60e51b815260206004820181905260248201527f5a65726f2077616c6c65742063616e6e6f7420646f207472616e73666572732e60448201526064016106bc565b60045460ff1615611afe5760085462010000900460ff1615611abf57611abf84846122f8565b600b54600160a01b900460ff16158015611af157506001600160a01b03831660009081526007602052604090205460ff165b15611afe57611afe61248c565b6000611b0b858585612516565b90506000611b198285612a3a565b6001600160a01b038716600090815260016020526040902054909150611b40908590612a3a565b6001600160a01b0387166000908152600160205260409020558115611b8b5730600090815260016020526040902054611b7a908390612a4d565b306000908152600160205260409020555b6001600160a01b038516600090815260016020526040902054611baf908290612a4d565b6001600160a01b038087166000818152600160205260409081902093909355915190881690600080516020612b6c83398151915290611bf19088815260200190565b60405180910390a350600195945050505050565b6000611c136009600a6129f2565b611c21906310ab0f3a612a01565b600080546001600160a01b03908116825260016020526040808320849055825490519394501691600080516020612b6c83398151915290611c659085815260200190565b60405180910390a36000611c7b6009600a6129f2565b611c8990630ee6b280612a01565b731d0a105f0ced39b207ae444957cc70483c04c767600081815260016020527f94917cf8f81138426f3d60f2b697339dc349182de65c20b61e7450734aa33b238390556040519293509091600080516020612b6c83398151915290611cf19085815260200190565b60405180910390a36000611d076009600a6129f2565b611d1590630b99ad47612a01565b73ac5c6fdd4f32977eec56c48978bae86ce08968e0600081815260016020527f2015e3cc24b6a6304e42562558fbc9cdd2bda8f24b7f88972f64db0c6f2bd8cd8390556040519293509091600080516020612b6c83398151915290611d7d9085815260200190565b60405180910390a36000611d936009600a6129f2565b611da1906308f0d180612a01565b7394bacbccee5c16520ab8545c35e89ece7017a34d600081815260016020527f5615441033e961f93df0b1ef773335a295fd9eee70461345aa4bd6ab791b302a8390556040519293509091600080516020612b6c83398151915290611e099085815260200190565b60405180910390a36000611e1f6009600a6129f2565b611e2d906302a08fb2612a01565b73cbe59e5967b80ad18764d49c9184e6249afe2d28600081815260016020527f6e6b5fdb8858516ed47244d778b27d06aeaec0c8a598c876e3e840dc0de7ebfa8390556040519293509091600080516020612b6c83398151915290611e959085815260200190565b60405180910390a36000611eab6009600a6129f2565b611eb99063017e7bee612a01565b30600081815260016020526040808220849055519293509091600080516020612b6c83398151915290611eef9085815260200190565b60405180910390a3600081838587611f078a8c612a4d565b611f119190612a4d565b611f1b9190612a4d565b611f259190612a4d565b611f2f9190612a4d565b611f3b6009600a6129f2565b611f4990633b9aca00612a01565b611f539190612a3a565b600080805260016020527fa6eef7e35abe7026729641147f7915573c7e97b47efa546f5f6e3230263bcb49829055604051919250908190600080516020612b6c83398151915290611fa79085815260200190565b60405180910390a36040518181526000907ffd38818f5291bf0bb3a2a48aadc06ba8757865d1dabd804585338aab3009dcb69060200160405180910390a250505050505050565b306000908152600260209081526040808320737a250d5630b4cf539739df2c5dacb4c659f2488d84529091529020548111156109ce57306000818152600260209081526040808320737a250d5630b4cf539739df2c5dacb4c659f2488d808552908352928190206000199081905590519081529192917f8c5be1e5ebec7d5bd14f71427d1e84f3dd0314c0f7b2291e5b200ac8c7c3b9259101610b06565b6000816120a157506000546001600160a01b03165b600c5460405163f305d71960e01b81523060048201526024810186905260006044820181905260648201526001600160a01b0383811660848301524260a48301529091169063f305d71990859060c40160606040518083038185885af115801561210f573d6000803e3d6000fd5b50505050506040513d601f19601f820116820180604052508101906121349190612aac565b50505050505050565b60045460ff16156121905760405162461bcd60e51b815260206004820152601460248201527f74726164696e6720616c7265616479206f70656e00000000000000000000000060448201526064016106bc565b6008805461ffff19166103031790556004805460ff19166001179055565b6121b781611fee565b60408051600280825260608201835260009260208301908036833701905050905030816000815181106121ec576121ec612a60565b6001600160a01b03928316602091820292909201810191909152600c54604080516315ab88c960e31b81529051919093169263ad5c46489260048083019391928290030181865afa158015612245573d6000803e3d6000fd5b505050506040513d601f19601f820116820180604052508101906122699190612a8f565b8160018151811061227c5761227c612a60565b6001600160a01b039283166020918202929092010152600c5460405163791ac94760e01b815291169063791ac947906122c2908590600090869030904290600401612ada565b600060405180830381600087803b1580156122dc57600080fd5b505af11580156122f0573d6000803e3d6000fd5b505050505050565b6001600160a01b03821660009081526007602052604090205460ff16801561233957506001600160a01b03811660009081526009602052604090205460ff16155b156123c2576001600160a01b0381166000908152600a602052604090205443116123a55760405162461bcd60e51b815260206004820152601160248201527f416e7469426f742074726967676572656400000000000000000000000000000060448201526064016106bc565b6001600160a01b03166000908152600a6020526040902043905550565b6001600160a01b03811660009081526007602052604090205460ff16801561240357506001600160a01b03821660009081526009602052604090205460ff16155b156119f5576001600160a01b0382166000908152600a6020526040902054431161246f5760405162461bcd60e51b815260206004820152601160248201527f416e7469426f742074726967676572656400000000000000000000000000000060448201526064016106bc565b506001600160a01b03166000908152600a60205260409020439055565b600b805460ff60a01b1916600160a01b17905530600090815260016020526040812054905060055481101580156124c5575060045460ff165b156125065760065481106124d857506006545b6124e46009600a6129f2565b811115612506576124f4816121ae565b47801561250457612504816119bb565b505b50600b805460ff60a01b19169055565b600454600090819060ff16158061254557506001600160a01b03851660009081526003602052604090205460ff165b8061256857506001600160a01b03841660009081526003602052604090205460ff165b1561257557506000610aa5565b6001600160a01b03851660009081526007602052604090205460ff16156125ba576008546064906125a99060ff1685612a01565b6125b39190612a18565b9050610aa5565b6001600160a01b03841660009081526007602052604090205460ff16156125f3576008546064906125a990610100900460ff1685612a01565b506000949350505050565b803563ffffffff81168114611a2757600080fd5b6000806000806080858703121561262857600080fd5b612631856125fe565b935061263f602086016125fe565b925061264d604086016125fe565b915061265b606086016125fe565b905092959194509250565b600060208083528351808285015260005b8181101561269357858101830151858201604001528201612677565b506000604082860101526040601f19601f8301168501019250505092915050565b6001600160a01b03811681146109ce57600080fd5b600080604083850312156126dc57600080fd5b82356126e7816126b4565b946020939093013593505050565b60008060006060848603121561270a57600080fd5b8335612715816126b4565b92506020840135612725816126b4565b929592945050506040919091013590565b60006020828403121561274857600080fd5b813561155e816126b4565b60006020828403121561276557600080fd5b5035919050565b60008083601f84011261277e57600080fd5b50813567ffffffffffffffff81111561279657600080fd5b6020830191508360208260051b85010111156127b157600080fd5b9250929050565b600080600080604085870312156127ce57600080fd5b843567ffffffffffffffff808211156127e657600080fd5b6127f28883890161276c565b9096509450602087013591508082111561280b57600080fd5b506128188782880161276c565b95989497509550505050565b80358015158114611a2757600080fd5b60006020828403121561284657600080fd5b61155e82612824565b803560ff81168114611a2757600080fd5b6000806040838503121561287357600080fd5b61287c8361284f565b915061288a6020840161284f565b90509250929050565b600080604083850312156128a657600080fd5b82356128b1816126b4565b915061288a60208401612824565b600080604083850312156128d257600080fd5b82356128dd816126b4565b915060208301356128ed816126b4565b809150509250929050565b634e487b7160e01b600052601160045260246000fd5b600181815b8085111561294957816000190482111561292f5761292f6128f8565b8085161561293c57918102915b93841c9390800290612913565b509250929050565b600082612960575060016108f5565b8161296d575060006108f5565b8160018114612983576002811461298d576129a9565b60019150506108f5565b60ff84111561299e5761299e6128f8565b50506001821b6108f5565b5060208310610133831016604e8410600b84101617156129cc575081810a6108f5565b6129d6838361290e565b80600019048211156129ea576129ea6128f8565b029392505050565b600061155e60ff841683612951565b80820281158282048414176108f5576108f56128f8565b600082612a3557634e487b7160e01b600052601260045260246000fd5b500490565b818103818111156108f5576108f56128f8565b808201808211156108f5576108f56128f8565b634e487b7160e01b600052603260045260246000fd5b600060018201612a8857612a886128f8565b5060010190565b600060208284031215612aa157600080fd5b815161155e816126b4565b600080600060608486031215612ac157600080fd5b8351925060208401519150604084015190509250925092565b600060a082018783526020878185015260a0604085015281875180845260c086019150828901935060005b81811015612b2a5784516001600160a01b031683529383019391830191600101612b05565b50506001600160a01b0396909616606085015250505060800152939250505056fe4f6e6c7920636f6e7472616374206f776e65722063616e2063616c6c20746869ddf252ad1be2c89b69c2b068fc378daa952ba7f163c4a11628f55a4df523b3efa164736f6c6343000811000a",
  "devdoc": {
    "kind": "dev",
    "methods": {},
    "version": 1
  },
  "userdoc": {
    "kind": "user",
    "methods": {},
    "version": 1
  },
  "storageLayout": {
    "storage": [
      {
        "astId": 90,
        "contract": "contracts/KNDX_ERC20.sol:KNDX",
        "label": "owner",
        "offset": 0,
        "slot": "0",
        "type": "t_address"
      },
      {
        "astId": 213,
        "contract": "contracts/KNDX_ERC20.sol:KNDX",
        "label": "_balances",
        "offset": 0,
        "slot": "1",
        "type": "t_mapping(t_address,t_uint256)"
      },
      {
        "astId": 219,
        "contract": "contracts/KNDX_ERC20.sol:KNDX",
        "label": "_allowances",
        "offset": 0,
        "slot": "2",
        "type": "t_mapping(t_address,t_mapping(t_address,t_uint256))"
      },
      {
        "astId": 223,
        "contract": "contracts/KNDX_ERC20.sol:KNDX",
        "label": "excludedFromFees",
        "offset": 0,
        "slot": "3",
        "type": "t_mapping(t_address,t_bool)"
      },
      {
        "astId": 225,
        "contract": "contracts/KNDX_ERC20.sol:KNDX",
        "label": "tradingOpen",
        "offset": 0,
        "slot": "4",
        "type": "t_bool"
      },
      {
        "astId": 227,
        "contract": "contracts/KNDX_ERC20.sol:KNDX",
        "label": "taxSwapMin",
        "offset": 0,
        "slot": "5",
        "type": "t_uint256"
      },
      {
        "astId": 229,
        "contract": "contracts/KNDX_ERC20.sol:KNDX",
        "label": "taxSwapMax",
        "offset": 0,
        "slot": "6",
        "type": "t_uint256"
      },
      {
        "astId": 233,
        "contract": "contracts/KNDX_ERC20.sol:KNDX",
        "label": "_isLiqPool",
        "offset": 0,
        "slot": "7",
        "type": "t_mapping(t_address,t_bool)"
      },
      {
        "astId": 238,
        "contract": "contracts/KNDX_ERC20.sol:KNDX",
        "label": "taxRateBuy",
        "offset": 0,
        "slot": "8",
        "type": "t_uint8"
      },
      {
        "astId": 240,
        "contract": "contracts/KNDX_ERC20.sol:KNDX",
        "label": "taxRateSell",
        "offset": 1,
        "slot": "8",
        "type": "t_uint8"
      },
      {
        "astId": 242,
        "contract": "contracts/KNDX_ERC20.sol:KNDX",
        "label": "antiBotEnabled",
        "offset": 2,
        "slot": "8",
        "type": "t_bool"
      },
      {
        "astId": 246,
        "contract": "contracts/KNDX_ERC20.sol:KNDX",
        "label": "excludedFromAntiBot",
        "offset": 0,
        "slot": "9",
        "type": "t_mapping(t_address,t_bool)"
      },
      {
        "astId": 250,
        "contract": "contracts/KNDX_ERC20.sol:KNDX",
        "label": "_lastSwapBlock",
        "offset": 0,
        "slot": "10",
        "type": "t_mapping(t_address,t_uint256)"
      },
      {
        "astId": 256,
        "contract": "contracts/KNDX_ERC20.sol:KNDX",
        "label": "taxWallet",
        "offset": 0,
        "slot": "11",
        "type": "t_address_payable"
      },
      {
        "astId": 259,
        "contract": "contracts/KNDX_ERC20.sol:KNDX",
        "label": "_inTaxSwap",
        "offset": 20,
        "slot": "11",
        "type": "t_bool"
      },
      {
        "astId": 268,
        "contract": "contracts/KNDX_ERC20.sol:KNDX",
        "label": "_uniswapV2Router",
        "offset": 0,
        "slot": "12",
        "type": "t_contract(IUniswapV2Router02)189"
      }
    ],
    "types": {
      "t_address": {
        "encoding": "inplace",
        "label": "address",
        "numberOfBytes": "20"
      },
      "t_address_payable": {
        "encoding": "inplace",
        "label": "address payable",
        "numberOfBytes": "20"
      },
      "t_bool": {
        "encoding": "inplace",
        "label": "bool",
        "numberOfBytes": "1"
      },
      "t_contract(IUniswapV2Router02)189": {
        "encoding": "inplace",
        "label": "contract IUniswapV2Router02",
        "numberOfBytes": "20"
      },
      "t_mapping(t_address,t_bool)": {
        "encoding": "mapping",
        "key": "t_address",
        "label": "mapping(address => bool)",
        "numberOfBytes": "32",
        "value": "t_bool"
      },
      "t_mapping(t_address,t_mapping(t_address,t_uint256))": {
        "encoding": "mapping",
        "key": "t_address",
        "label": "mapping(address => mapping(address => uint256))",
        "numberOfBytes": "32",
        "value": "t_mapping(t_address,t_uint256)"
      },
      "t_mapping(t_address,t_uint256)": {
        "encoding": "mapping",
        "key": "t_address",
        "label": "mapping(address => uint256)",
        "numberOfBytes": "32",
        "value": "t_uint256"
      },
      "t_uint256": {
        "encoding": "inplace",
        "label": "uint256",
        "numberOfBytes": "32"
      },
      "t_uint8": {
        "encoding": "inplace",
        "label": "uint8",
        "numberOfBytes": "1"
      }
    }
  }
}