{
  "address": "0x443525E4D78Dc29544CD30F097809d0Abe68DF32",
  "abi": [
    {
      "inputs": [
        {
          "internalType": "string",
          "name": "_name",
          "type": "string"
        },
        {
          "internalType": "string",
          "name": "_symbol",
          "type": "string"
        }
      ],
      "stateMutability": "nonpayable",
      "type": "constructor"
    },
    {
      "anonymous": false,
      "inputs": [
        {
          "indexed": true,
          "internalType": "address",
          "name": "owner",
          "type": "address"
        },
        {
          "indexed": true,
          "internalType": "address",
          "name": "approved",
          "type": "address"
        },
        {
          "indexed": true,
          "internalType": "uint256",
          "name": "tokenId",
          "type": "uint256"
        }
      ],
      "name": "Approval",
      "type": "event"
    },
    {
      "anonymous": false,
      "inputs": [
        {
          "indexed": true,
          "internalType": "address",
          "name": "owner",
          "type": "address"
        },
        {
          "indexed": true,
          "internalType": "address",
          "name": "operator",
          "type": "address"
        },
        {
          "indexed": false,
          "internalType": "bool",
          "name": "approved",
          "type": "bool"
        }
      ],
      "name": "ApprovalForAll",
      "type": "event"
    },
    {
      "anonymous": false,
      "inputs": [
        {
          "indexed": false,
          "internalType": "string",
          "name": "baseURI",
          "type": "string"
        }
      ],
      "name": "BaseURIChanged",
      "type": "event"
    },
    {
      "anonymous": false,
      "inputs": [
        {
          "indexed": false,
          "internalType": "uint96",
          "name": "denominator",
          "type": "uint96"
        }
      ],
      "name": "DenominatorChanged",
      "type": "event"
    },
    {
      "anonymous": false,
      "inputs": [
        {
          "indexed": true,
          "internalType": "uint256",
          "name": "tokenID",
          "type": "uint256"
        },
        {
          "indexed": false,
          "internalType": "uint256",
          "name": "dna",
          "type": "uint256"
        }
      ],
      "name": "DnaChanged",
      "type": "event"
    },
    {
      "anonymous": false,
      "inputs": [
        {
          "indexed": true,
          "internalType": "uint256",
          "name": "tokenID",
          "type": "uint256"
        },
        {
          "indexed": false,
          "internalType": "uint256",
          "name": "dna",
          "type": "uint256"
        },
        {
          "indexed": false,
          "internalType": "uint256",
          "name": "inputValue",
          "type": "uint256"
        },
        {
          "indexed": false,
          "internalType": "uint8",
          "name": "startIndex",
          "type": "uint8"
        },
        {
          "indexed": false,
          "internalType": "uint8",
          "name": "endIndex",
          "type": "uint8"
        }
      ],
      "name": "DnaModified",
      "type": "event"
    },
    {
      "anonymous": false,
      "inputs": [
        {
          "indexed": false,
          "internalType": "address",
          "name": "account",
          "type": "address"
        }
      ],
      "name": "Paused",
      "type": "event"
    },
    {
      "anonymous": false,
      "inputs": [
        {
          "indexed": true,
          "internalType": "bytes32",
          "name": "role",
          "type": "bytes32"
        },
        {
          "indexed": true,
          "internalType": "bytes32",
          "name": "previousAdminRole",
          "type": "bytes32"
        },
        {
          "indexed": true,
          "internalType": "bytes32",
          "name": "newAdminRole",
          "type": "bytes32"
        }
      ],
      "name": "RoleAdminChanged",
      "type": "event"
    },
    {
      "anonymous": false,
      "inputs": [
        {
          "indexed": true,
          "internalType": "address",
          "name": "addr",
          "type": "address"
        },
        {
          "indexed": false,
          "internalType": "bytes32",
          "name": "role",
          "type": "bytes32"
        },
        {
          "indexed": false,
          "internalType": "bool",
          "name": "enabled",
          "type": "bool"
        }
      ],
      "name": "RoleChanged",
      "type": "event"
    },
    {
      "anonymous": false,
      "inputs": [
        {
          "indexed": true,
          "internalType": "bytes32",
          "name": "role",
          "type": "bytes32"
        },
        {
          "indexed": true,
          "internalType": "address",
          "name": "account",
          "type": "address"
        },
        {
          "indexed": true,
          "internalType": "address",
          "name": "sender",
          "type": "address"
        }
      ],
      "name": "RoleGranted",
      "type": "event"
    },
    {
      "anonymous": false,
      "inputs": [
        {
          "indexed": true,
          "internalType": "bytes32",
          "name": "role",
          "type": "bytes32"
        },
        {
          "indexed": true,
          "internalType": "address",
          "name": "account",
          "type": "address"
        },
        {
          "indexed": true,
          "internalType": "address",
          "name": "sender",
          "type": "address"
        }
      ],
      "name": "RoleRevoked",
      "type": "event"
    },
    {
      "anonymous": false,
      "inputs": [
        {
          "indexed": true,
          "internalType": "address",
          "name": "from",
          "type": "address"
        },
        {
          "indexed": true,
          "internalType": "address",
          "name": "to",
          "type": "address"
        },
        {
          "indexed": true,
          "internalType": "uint256",
          "name": "tokenId",
          "type": "uint256"
        }
      ],
      "name": "Transfer",
      "type": "event"
    },
    {
      "anonymous": false,
      "inputs": [
        {
          "indexed": false,
          "internalType": "address",
          "name": "account",
          "type": "address"
        }
      ],
      "name": "Unpaused",
      "type": "event"
    },
    {
      "inputs": [],
      "name": "DEFAULT_ADMIN_ROLE",
      "outputs": [
        {
          "internalType": "bytes32",
          "name": "",
          "type": "bytes32"
        }
      ],
      "stateMutability": "view",
      "type": "function"
    },
    {
      "inputs": [],
      "name": "DNA_MODIFIER_ROLE",
      "outputs": [
        {
          "internalType": "bytes32",
          "name": "",
          "type": "bytes32"
        }
      ],
      "stateMutability": "view",
      "type": "function"
    },
    {
      "inputs": [],
      "name": "MINTER_ROLE",
      "outputs": [
        {
          "internalType": "bytes32",
          "name": "",
          "type": "bytes32"
        }
      ],
      "stateMutability": "view",
      "type": "function"
    },
    {
      "inputs": [
        {
          "internalType": "address",
          "name": "to",
          "type": "address"
        },
        {
          "internalType": "uint256",
          "name": "tokenId",
          "type": "uint256"
        }
      ],
      "name": "approve",
      "outputs": [],
      "stateMutability": "nonpayable",
      "type": "function"
    },
    {
      "inputs": [
        {
          "internalType": "address",
          "name": "owner",
          "type": "address"
        }
      ],
      "name": "balanceOf",
      "outputs": [
        {
          "internalType": "uint256",
          "name": "",
          "type": "uint256"
        }
      ],
      "stateMutability": "view",
      "type": "function"
    },
    {
      "inputs": [],
      "name": "baseURI",
      "outputs": [
        {
          "internalType": "string",
          "name": "",
          "type": "string"
        }
      ],
      "stateMutability": "view",
      "type": "function"
    },
    {
      "inputs": [
        {
          "internalType": "uint256",
          "name": "tokenId",
          "type": "uint256"
        }
      ],
      "name": "burn",
      "outputs": [],
      "stateMutability": "nonpayable",
      "type": "function"
    },
    {
      "inputs": [
        {
          "internalType": "uint96",
          "name": "_denominator",
          "type": "uint96"
        }
      ],
      "name": "changeDenominator",
      "outputs": [
        {
          "internalType": "uint96",
          "name": "",
          "type": "uint96"
        }
      ],
      "stateMutability": "nonpayable",
      "type": "function"
    },
    {
      "inputs": [],
      "name": "denominator",
      "outputs": [
        {
          "internalType": "uint96",
          "name": "",
          "type": "uint96"
        }
      ],
      "stateMutability": "view",
      "type": "function"
    },
    {
      "inputs": [],
      "name": "faucet",
      "outputs": [],
      "stateMutability": "nonpayable",
      "type": "function"
    },
    {
      "inputs": [
        {
          "internalType": "uint256",
          "name": "_bonus",
          "type": "uint256"
        }
      ],
      "name": "faucetBonus",
      "outputs": [],
      "stateMutability": "nonpayable",
      "type": "function"
    },
    {
      "inputs": [
        {
          "internalType": "uint256",
          "name": "tokenId",
          "type": "uint256"
        }
      ],
      "name": "getApproved",
      "outputs": [
        {
          "internalType": "address",
          "name": "",
          "type": "address"
        }
      ],
      "stateMutability": "view",
      "type": "function"
    },
    {
      "inputs": [
        {
          "internalType": "uint256",
          "name": "_tokenID",
          "type": "uint256"
        }
      ],
      "name": "getDna",
      "outputs": [
        {
          "internalType": "uint256",
          "name": "",
          "type": "uint256"
        }
      ],
      "stateMutability": "view",
      "type": "function"
    },
    {
      "inputs": [
        {
          "internalType": "bytes32",
          "name": "role",
          "type": "bytes32"
        }
      ],
      "name": "getRoleAdmin",
      "outputs": [
        {
          "internalType": "bytes32",
          "name": "",
          "type": "bytes32"
        }
      ],
      "stateMutability": "view",
      "type": "function"
    },
    {
      "inputs": [
        {
          "internalType": "bytes32",
          "name": "role",
          "type": "bytes32"
        },
        {
          "internalType": "address",
          "name": "account",
          "type": "address"
        }
      ],
      "name": "grantRole",
      "outputs": [],
      "stateMutability": "nonpayable",
      "type": "function"
    },
    {
      "inputs": [
        {
          "internalType": "bytes32",
          "name": "role",
          "type": "bytes32"
        },
        {
          "internalType": "address",
          "name": "account",
          "type": "address"
        }
      ],
      "name": "hasRole",
      "outputs": [
        {
          "internalType": "bool",
          "name": "",
          "type": "bool"
        }
      ],
      "stateMutability": "view",
      "type": "function"
    },
    {
      "inputs": [
        {
          "internalType": "uint256",
          "name": "",
          "type": "uint256"
        }
      ],
      "name": "indexDna",
      "outputs": [
        {
          "internalType": "uint256",
          "name": "",
          "type": "uint256"
        }
      ],
      "stateMutability": "view",
      "type": "function"
    },
    {
      "inputs": [
        {
          "internalType": "address",
          "name": "owner",
          "type": "address"
        },
        {
          "internalType": "address",
          "name": "operator",
          "type": "address"
        }
      ],
      "name": "isApprovedForAll",
      "outputs": [
        {
          "internalType": "bool",
          "name": "",
          "type": "bool"
        }
      ],
      "stateMutability": "view",
      "type": "function"
    },
    {
      "inputs": [],
      "name": "name",
      "outputs": [
        {
          "internalType": "string",
          "name": "",
          "type": "string"
        }
      ],
      "stateMutability": "view",
      "type": "function"
    },
    {
      "inputs": [
        {
          "internalType": "uint256",
          "name": "tokenId",
          "type": "uint256"
        }
      ],
      "name": "ownerOf",
      "outputs": [
        {
          "internalType": "address",
          "name": "",
          "type": "address"
        }
      ],
      "stateMutability": "view",
      "type": "function"
    },
    {
      "inputs": [],
      "name": "pause",
      "outputs": [],
      "stateMutability": "nonpayable",
      "type": "function"
    },
    {
      "inputs": [],
      "name": "paused",
      "outputs": [
        {
          "internalType": "bool",
          "name": "",
          "type": "bool"
        }
      ],
      "stateMutability": "view",
      "type": "function"
    },
    {
      "inputs": [
        {
          "internalType": "uint256",
          "name": "_tokenID",
          "type": "uint256"
        },
        {
          "internalType": "uint8",
          "name": "startIndex",
          "type": "uint8"
        },
        {
          "internalType": "uint8",
          "name": "endIndex",
          "type": "uint8"
        }
      ],
      "name": "readGen",
      "outputs": [
        {
          "internalType": "int256",
          "name": "",
          "type": "int256"
        }
      ],
      "stateMutability": "view",
      "type": "function"
    },
    {
      "inputs": [
        {
          "internalType": "bytes32",
          "name": "role",
          "type": "bytes32"
        },
        {
          "internalType": "address",
          "name": "account",
          "type": "address"
        }
      ],
      "name": "renounceRole",
      "outputs": [],
      "stateMutability": "nonpayable",
      "type": "function"
    },
    {
      "inputs": [
        {
          "internalType": "bytes32",
          "name": "role",
          "type": "bytes32"
        },
        {
          "internalType": "address",
          "name": "account",
          "type": "address"
        }
      ],
      "name": "revokeRole",
      "outputs": [],
      "stateMutability": "nonpayable",
      "type": "function"
    },
    {
      "inputs": [
        {
          "internalType": "uint256",
          "name": "_tokenId",
          "type": "uint256"
        },
        {
          "internalType": "uint256",
          "name": "_salePrice",
          "type": "uint256"
        }
      ],
      "name": "royaltyInfo",
      "outputs": [
        {
          "internalType": "address",
          "name": "",
          "type": "address"
        },
        {
          "internalType": "uint256",
          "name": "",
          "type": "uint256"
        }
      ],
      "stateMutability": "view",
      "type": "function"
    },
    {
      "inputs": [
        {
          "internalType": "address",
          "name": "to",
          "type": "address"
        },
        {
          "internalType": "uint256",
          "name": "dna",
          "type": "uint256"
        }
      ],
      "name": "safeMint",
      "outputs": [
        {
          "internalType": "uint256",
          "name": "",
          "type": "uint256"
        }
      ],
      "stateMutability": "nonpayable",
      "type": "function"
    },
    {
      "inputs": [
        {
          "internalType": "address",
          "name": "from",
          "type": "address"
        },
        {
          "internalType": "address",
          "name": "to",
          "type": "address"
        },
        {
          "internalType": "uint256",
          "name": "tokenId",
          "type": "uint256"
        }
      ],
      "name": "safeTransferFrom",
      "outputs": [],
      "stateMutability": "nonpayable",
      "type": "function"
    },
    {
      "inputs": [
        {
          "internalType": "address",
          "name": "from",
          "type": "address"
        },
        {
          "internalType": "address",
          "name": "to",
          "type": "address"
        },
        {
          "internalType": "uint256",
          "name": "tokenId",
          "type": "uint256"
        },
        {
          "internalType": "bytes",
          "name": "data",
          "type": "bytes"
        }
      ],
      "name": "safeTransferFrom",
      "outputs": [],
      "stateMutability": "nonpayable",
      "type": "function"
    },
    {
      "inputs": [
        {
          "internalType": "address",
          "name": "operator",
          "type": "address"
        },
        {
          "internalType": "bool",
          "name": "approved",
          "type": "bool"
        }
      ],
      "name": "setApprovalForAll",
      "outputs": [],
      "stateMutability": "nonpayable",
      "type": "function"
    },
    {
      "inputs": [
        {
          "internalType": "string",
          "name": "_newURI",
          "type": "string"
        }
      ],
      "name": "setBaseURI",
      "outputs": [
        {
          "internalType": "string",
          "name": "",
          "type": "string"
        }
      ],
      "stateMutability": "nonpayable",
      "type": "function"
    },
    {
      "inputs": [
        {
          "internalType": "address",
          "name": "receiver",
          "type": "address"
        },
        {
          "internalType": "uint96",
          "name": "feeNumerator",
          "type": "uint96"
        }
      ],
      "name": "setDefaultRoyalty",
      "outputs": [],
      "stateMutability": "nonpayable",
      "type": "function"
    },
    {
      "inputs": [
        {
          "internalType": "uint256",
          "name": "_tokenID",
          "type": "uint256"
        },
        {
          "internalType": "uint256",
          "name": "_dna",
          "type": "uint256"
        }
      ],
      "name": "setDna",
      "outputs": [],
      "stateMutability": "nonpayable",
      "type": "function"
    },
    {
      "inputs": [
        {
          "internalType": "bytes32",
          "name": "role",
          "type": "bytes32"
        },
        {
          "internalType": "address",
          "name": "addr",
          "type": "address"
        },
        {
          "internalType": "bool",
          "name": "enabled",
          "type": "bool"
        }
      ],
      "name": "setRole",
      "outputs": [],
      "stateMutability": "nonpayable",
      "type": "function"
    },
    {
      "inputs": [
        {
          "internalType": "uint256",
          "name": "tokenId",
          "type": "uint256"
        },
        {
          "internalType": "address",
          "name": "receiver",
          "type": "address"
        },
        {
          "internalType": "uint96",
          "name": "feeNumerator",
          "type": "uint96"
        }
      ],
      "name": "setTokenRoyalty",
      "outputs": [],
      "stateMutability": "nonpayable",
      "type": "function"
    },
    {
      "inputs": [
        {
          "internalType": "bytes4",
          "name": "interfaceId",
          "type": "bytes4"
        }
      ],
      "name": "supportsInterface",
      "outputs": [
        {
          "internalType": "bool",
          "name": "",
          "type": "bool"
        }
      ],
      "stateMutability": "view",
      "type": "function"
    },
    {
      "inputs": [],
      "name": "symbol",
      "outputs": [
        {
          "internalType": "string",
          "name": "",
          "type": "string"
        }
      ],
      "stateMutability": "view",
      "type": "function"
    },
    {
      "inputs": [
        {
          "internalType": "uint256",
          "name": "index",
          "type": "uint256"
        }
      ],
      "name": "tokenByIndex",
      "outputs": [
        {
          "internalType": "uint256",
          "name": "",
          "type": "uint256"
        }
      ],
      "stateMutability": "view",
      "type": "function"
    },
    {
      "inputs": [
        {
          "internalType": "address",
          "name": "owner",
          "type": "address"
        },
        {
          "internalType": "uint256",
          "name": "index",
          "type": "uint256"
        }
      ],
      "name": "tokenOfOwnerByIndex",
      "outputs": [
        {
          "internalType": "uint256",
          "name": "",
          "type": "uint256"
        }
      ],
      "stateMutability": "view",
      "type": "function"
    },
    {
      "inputs": [
        {
          "internalType": "uint256",
          "name": "tokenId",
          "type": "uint256"
        }
      ],
      "name": "tokenURI",
      "outputs": [
        {
          "internalType": "string",
          "name": "",
          "type": "string"
        }
      ],
      "stateMutability": "view",
      "type": "function"
    },
    {
      "inputs": [],
      "name": "totalSupply",
      "outputs": [
        {
          "internalType": "uint256",
          "name": "",
          "type": "uint256"
        }
      ],
      "stateMutability": "view",
      "type": "function"
    },
    {
      "inputs": [
        {
          "internalType": "address",
          "name": "from",
          "type": "address"
        },
        {
          "internalType": "address",
          "name": "to",
          "type": "address"
        },
        {
          "internalType": "uint256",
          "name": "tokenId",
          "type": "uint256"
        }
      ],
      "name": "transferFrom",
      "outputs": [],
      "stateMutability": "nonpayable",
      "type": "function"
    },
    {
      "inputs": [],
      "name": "unpause",
      "outputs": [],
      "stateMutability": "nonpayable",
      "type": "function"
    },
    {
      "inputs": [
        {
          "internalType": "uint256",
          "name": "_tokenID",
          "type": "uint256"
        },
        {
          "internalType": "uint256",
          "name": "inputValue",
          "type": "uint256"
        },
        {
          "internalType": "uint8",
          "name": "startIndex",
          "type": "uint8"
        },
        {
          "internalType": "uint8",
          "name": "endIndex",
          "type": "uint8"
        }
      ],
      "name": "writeGen",
      "outputs": [],
      "stateMutability": "nonpayable",
      "type": "function"
    }
  ],
  "transactionHash": "0xa41aa190e8d25bef6b1b96bd52e5b7948ab4530ce206e1825589b4d1b0294439",
  "args": [
    "Kondux NFT",
    "kNFT"
  ],
  "numDeployments": 2,
  "solcInputHash": "ee8975091e4cfececb587e2a45b7c608",
  "bytecode": "0x60806040527f9f2df0fed2c77648de5860a4cc508cd0818c85b8b8a1ab4ceeef8d981c8956a6600f557fec24298dbd4b206c04cdf3b7c16a0458a980808b5ea4b7b04745962db1bf69a86010553480156200005957600080fd5b5060405162003bb438038062003bb48339810160408190526200007c9162000254565b818160026200008c83826200034d565b5060036200009b82826200034d565b5050600c805460ff1916905550620000b5600033620000db565b600f54620000c49033620000db565b601054620000d39033620000db565b505062000419565b620000e78282620000eb565b5050565b6000828152600d602090815260408083206001600160a01b038516845290915290205460ff16620000e7576000828152600d602090815260408083206001600160a01b03851684529091529020805460ff191660011790556200014b3390565b6001600160a01b0316816001600160a01b0316837f2f8788117e7eff1d82e926ec794901d17c78024a50270940304540a733656f0d60405160405180910390a45050565b634e487b7160e01b600052604160045260246000fd5b600082601f830112620001b757600080fd5b81516001600160401b0380821115620001d457620001d46200018f565b604051601f8301601f19908116603f01168101908282118183101715620001ff57620001ff6200018f565b816040528381526020925086838588010111156200021c57600080fd5b600091505b8382101562000240578582018301518183018401529082019062000221565b600093810190920192909252949350505050565b600080604083850312156200026857600080fd5b82516001600160401b03808211156200028057600080fd5b6200028e86838701620001a5565b93506020850151915080821115620002a557600080fd5b50620002b485828601620001a5565b9150509250929050565b600181811c90821680620002d357607f821691505b602082108103620002f457634e487b7160e01b600052602260045260246000fd5b50919050565b601f8211156200034857600081815260208120601f850160051c81016020861015620003235750805b601f850160051c820191505b8181101562000344578281556001016200032f565b5050505b505050565b81516001600160401b038111156200036957620003696200018f565b62000381816200037a8454620002be565b84620002fa565b602080601f831160018114620003b95760008415620003a05750858301515b600019600386901b1c1916600185901b17855562000344565b600085815260208120601f198616915b82811015620003ea57888601518255948401946001909101908401620003c9565b5085821015620004095787850151600019600388901b60f8161c191681555b5050505050600190811b01905550565b61378b80620004296000396000f3fe608060405234801561001057600080fd5b50600436106102f45760003560e01c80635944c75311610191578063a217fddf116100e3578063b88d4fde11610097578063d547741f11610071578063d547741f1461065f578063de5f72fd14610672578063e985e9c51461067a57600080fd5b8063b88d4fde14610630578063c87b56dd14610643578063d53913931461065657600080fd5b8063ab51e23a116100c8578063ab51e23a146105f7578063b576bcb21461060a578063b634ec481461061d57600080fd5b8063a217fddf146105dc578063a22cb465146105e457600080fd5b806370a082311161014557806395d89b411161011f57806395d89b411461059657806396ce07951461059e578063a1448194146105c957600080fd5b806370a08231146105425780638456cb591461055557806391d148541461055d57600080fd5b80636352211e116101765780636352211e146105145780636a951316146105275780636c0360eb1461053a57600080fd5b80635944c753146104f65780635c975abb1461050957600080fd5b80632a55205a1161024a578063422627c3116101fe57806348571f23116101d857806348571f23146104c75780634f6ccce7146104d057806355f804b3146104e357600080fd5b8063422627c31461048e57806342842e0e146104a157806342966c68146104b457600080fd5b80632f745c591161022f5780632f745c591461046057806336568abe146104735780633f4ba83a1461048657600080fd5b80632a55205a1461041b5780632f2ff15d1461044d57600080fd5b8063095ea7b3116102ac5780631c9ad5b1116102865780631c9ad5b1146103c557806323b872dd146103e5578063248a9ca3146103f857600080fd5b8063095ea7b3146103895780630caefef41461039c57806318160ddd146103bd57600080fd5b8063067b61f2116102dd578063067b61f21461033657806306fdde0314610349578063081812fc1461035e57600080fd5b806301ffc9a7146102f957806304634d8d14610321575b600080fd5b61030c610307366004612eae565b6106b6565b60405190151581526020015b60405180910390f35b61033461032f366004612ef9565b6106c7565b005b610334610344366004612f2c565b610758565b6103516107dd565b6040516103189190612f9e565b61037161036c366004612fb1565b61086f565b6040516001600160a01b039091168152602001610318565b610334610397366004612fca565b610896565b6103af6103aa366004613005565b6109ab565b604051908152602001610318565b600a546103af565b6103af6103d3366004612fb1565b60136020526000908152604090205481565b6103346103f3366004613041565b610a59565b6103af610406366004612fb1565b6000908152600d602052604090206001015490565b61042e610429366004612f2c565b610ad1565b604080516001600160a01b039093168352602083019190915201610318565b61033461045b36600461307d565b610b7d565b6103af61046e366004612fca565b610ba2565b61033461048136600461307d565b610c4a565b610334610cd2565b6103af61049c366004612fb1565b610d5a565b6103346104af366004613041565b610de9565b6103346104c2366004612fb1565b610e04565b6103af60105481565b6103af6104de366004612fb1565b610e7b565b6103516104f136600461312c565b610f1f565b610334610504366004613175565b611078565b600c5460ff1661030c565b610371610522366004612fb1565b611101565b6103346105353660046131b8565b611166565b61035161124d565b6103af6105503660046131eb565b6112db565b610334611375565b61030c61056b36600461307d565b6000918252600d602090815260408084206001600160a01b0393909316845291905290205460ff1690565b6103516113fb565b6012546105b1906001600160601b031681565b6040516001600160601b039091168152602001610318565b6103af6105d7366004612fca565b61140a565b6103af600081565b6103346105f2366004613206565b6114ac565b6105b1610605366004613230565b6114b7565b61033461061836600461324b565b61159c565b61033461062b366004612fb1565b611629565b61033461063e366004613291565b61166b565b610351610651366004612fb1565b6116e3565b6103af600f5481565b61033461066d36600461307d565b6117be565b6103346117e3565b61030c61068836600461330d565b6001600160a01b03918216600090815260076020908152604080832093909416825291909152205460ff1690565b60006106c182611808565b92915050565b3360009081527f81955a0a11e65eac625c29e8882660bae4e165a75d72780094acae8ece9a29ee602052604090205460ff1661074a5760405162461bcd60e51b815260206004820152601f60248201527f6b4e46542041636365737320436f6e74726f6c3a206f6e6c792061646d696e0060448201526064015b60405180910390fd5b610754828261182d565b5050565b6010546000908152600d6020908152604080832033845290915290205460ff166107d35760405162461bcd60e51b815260206004820152602660248201527f6b4e46542041636365737320436f6e74726f6c3a206f6e6c7920646e61206d6f6044820152653234b334b2b960d11b6064820152608401610741565b610754828261192a565b6060600280546107ec90613337565b80601f016020809104026020016040519081016040528092919081815260200182805461081890613337565b80156108655780601f1061083a57610100808354040283529160200191610865565b820191906000526020600020905b81548152906001019060200180831161084857829003601f168201915b5050505050905090565b600061087a8261197b565b506000908152600660205260409020546001600160a01b031690565b60006108a182611101565b9050806001600160a01b0316836001600160a01b03160361090e5760405162461bcd60e51b815260206004820152602160248201527f4552433732313a20617070726f76616c20746f2063757272656e74206f776e656044820152603960f91b6064820152608401610741565b336001600160a01b038216148061092a575061092a8133610688565b61099c5760405162461bcd60e51b815260206004820152603d60248201527f4552433732313a20617070726f76652063616c6c6572206973206e6f7420746f60448201527f6b656e206f776e6572206f7220617070726f76656420666f7220616c6c0000006064820152608401610741565b6109a683836119df565b505050565b60008160ff168360ff161080156109c6575060208260ff1611155b610a025760405162461bcd60e51b815260206004820152600d60248201526c496e76616c69642072616e676560981b6044820152606401610741565b60008481526013602052604081205490845b8460ff168160ff161015610a4f576008601f829003810284901c60ff168783039091021b919091179080610a4781613387565b915050610a14565b5095945050505050565b610a64335b82611a4d565b610ac65760405162461bcd60e51b815260206004820152602d60248201527f4552433732313a2063616c6c6572206973206e6f7420746f6b656e206f776e6560448201526c1c881bdc88185c1c1c9bdd9959609a1b6064820152608401610741565b6109a6838383611acc565b60008281526001602090815260408083208151808301909252546001600160a01b038116808352600160a01b9091046001600160601b0316928201929092528291610b465750604080518082019091526000546001600160a01b0381168252600160a01b90046001600160601b031660208201525b602081015160009061271090610b65906001600160601b0316876133a6565b610b6f91906133bd565b915196919550909350505050565b6000828152600d6020526040902060010154610b9881611cb9565b6109a68383611cc3565b6000610bad836112db565b8210610c215760405162461bcd60e51b815260206004820152602b60248201527f455243373231456e756d657261626c653a206f776e657220696e646578206f7560448201527f74206f6620626f756e64730000000000000000000000000000000000000000006064820152608401610741565b506001600160a01b03919091166000908152600860209081526040808320938352929052205490565b6001600160a01b0381163314610cc85760405162461bcd60e51b815260206004820152602f60248201527f416363657373436f6e74726f6c3a2063616e206f6e6c792072656e6f756e636560448201527f20726f6c657320666f722073656c6600000000000000000000000000000000006064820152608401610741565b6107548282611d65565b3360009081527f81955a0a11e65eac625c29e8882660bae4e165a75d72780094acae8ece9a29ee602052604090205460ff16610d505760405162461bcd60e51b815260206004820152601f60248201527f6b4e46542041636365737320436f6e74726f6c3a206f6e6c792061646d696e006044820152606401610741565b610d58611de8565b565b6000818152600460205260408120546001600160a01b0316610dd65760405162461bcd60e51b815260206004820152602f60248201527f4552433732314d657461646174613a2055524920717565727920666f72206e6f60448201526e3732bc34b9ba32b73a103a37b5b2b760891b6064820152608401610741565b5060009081526013602052604090205490565b6109a68383836040518060200160405280600081525061166b565b610e0d33610a5e565b610e6f5760405162461bcd60e51b815260206004820152602d60248201527f4552433732313a2063616c6c6572206973206e6f7420746f6b656e206f776e6560448201526c1c881bdc88185c1c1c9bdd9959609a1b6064820152608401610741565b610e7881611e3a565b50565b6000610e86600a5490565b8210610efa5760405162461bcd60e51b815260206004820152602c60248201527f455243373231456e756d657261626c653a20676c6f62616c20696e646578206f60448201527f7574206f6620626f756e647300000000000000000000000000000000000000006064820152608401610741565b600a8281548110610f0d57610f0d6133df565b90600052602060002001549050919050565b3360009081527f81955a0a11e65eac625c29e8882660bae4e165a75d72780094acae8ece9a29ee602052604090205460609060ff16610fa05760405162461bcd60e51b815260206004820152601f60248201527f6b4e46542041636365737320436f6e74726f6c3a206f6e6c792061646d696e006044820152606401610741565b6011610fac8382613443565b507f5411e8ebf1636d9e83d5fc4900bf80cbac82e8790da2a4c94db4895e889eedf66011604051610fdd9190613503565b60405180910390a160118054610ff290613337565b80601f016020809104026020016040519081016040528092919081815260200182805461101e90613337565b801561106b5780601f106110405761010080835404028352916020019161106b565b820191906000526020600020905b81548152906001019060200180831161104e57829003601f168201915b505050505090505b919050565b3360009081527f81955a0a11e65eac625c29e8882660bae4e165a75d72780094acae8ece9a29ee602052604090205460ff166110f65760405162461bcd60e51b815260206004820152601f60248201527f6b4e46542041636365737320436f6e74726f6c3a206f6e6c792061646d696e006044820152606401610741565b6109a6838383611e54565b6000818152600460205260408120546001600160a01b0316806106c15760405162461bcd60e51b815260206004820152601860248201527f4552433732313a20696e76616c696420746f6b656e20494400000000000000006044820152606401610741565b3360009081527f81955a0a11e65eac625c29e8882660bae4e165a75d72780094acae8ece9a29ee602052604090205460ff166111e45760405162461bcd60e51b815260206004820152601f60248201527f6b4e46542041636365737320436f6e74726f6c3a206f6e6c792061646d696e006044820152606401610741565b80156111f9576111f48383611cc3565b611203565b6112038383611d65565b6040805184815282151560208201526001600160a01b038416917f0a3389242138f35e16a456882b75845c8c6b72970ed65963a34ec6f1cc9be603910160405180910390a2505050565b6011805461125a90613337565b80601f016020809104026020016040519081016040528092919081815260200182805461128690613337565b80156112d35780601f106112a8576101008083540402835291602001916112d3565b820191906000526020600020905b8154815290600101906020018083116112b657829003601f168201915b505050505081565b60006001600160a01b0382166113595760405162461bcd60e51b815260206004820152602960248201527f4552433732313a2061646472657373207a65726f206973206e6f74206120766160448201527f6c6964206f776e657200000000000000000000000000000000000000000000006064820152608401610741565b506001600160a01b031660009081526005602052604090205490565b3360009081527f81955a0a11e65eac625c29e8882660bae4e165a75d72780094acae8ece9a29ee602052604090205460ff166113f35760405162461bcd60e51b815260206004820152601f60248201527f6b4e46542041636365737320436f6e74726f6c3a206f6e6c792061646d696e006044820152606401610741565b610d58611f62565b6060600380546107ec90613337565b600f546000908152600d6020908152604080832033845290915281205460ff166114765760405162461bcd60e51b815260206004820181905260248201527f6b4e46542041636365737320436f6e74726f6c3a206f6e6c79206d696e7465726044820152606401610741565b6000611481600e5490565b9050611491600e80546001019055565b61149b818461192a565b6114a58482611f9f565b9392505050565b610754338383611fb9565b3360009081527f81955a0a11e65eac625c29e8882660bae4e165a75d72780094acae8ece9a29ee602052604081205460ff166115355760405162461bcd60e51b815260206004820152601f60248201527f6b4e46542041636365737320436f6e74726f6c3a206f6e6c792061646d696e006044820152606401610741565b601280546bffffffffffffffffffffffff19166001600160601b0384169081179091556040519081527f601b85aa9305dbcfbfc81aa2d4b5126c1ce24afdd1bad47d6880e5b6df081f579060200160405180910390a150506012546001600160601b031690565b6010546000908152600d6020908152604080832033845290915290205460ff166116175760405162461bcd60e51b815260206004820152602660248201527f6b4e46542041636365737320436f6e74726f6c3a206f6e6c7920646e61206d6f6044820152653234b334b2b960d11b6064820152608401610741565b61162384848484612087565b50505050565b6000611634600e5490565b9050611644600e80546001019055565b61164e3382611f9f565b61165d81600160006001612087565b610754818360016002612087565b6116753383611a4d565b6116d75760405162461bcd60e51b815260206004820152602d60248201527f4552433732313a2063616c6c6572206973206e6f7420746f6b656e206f776e6560448201526c1c881bdc88185c1c1c9bdd9959609a1b6064820152608401610741565b61162384848484612249565b6000818152600460205260409020546060906001600160a01b03166117625760405162461bcd60e51b815260206004820152602f60248201527f4552433732314d657461646174613a2055524920717565727920666f72206e6f60448201526e3732bc34b9ba32b73a103a37b5b2b760891b6064820152608401610741565b60006011805461177190613337565b90501161178d57604051806020016040528060008152506106c1565b6011611798836122c7565b6040516020016117a992919061358e565b60405160208183030381529060405292915050565b6000828152600d60205260409020600101546117d981611cb9565b6109a68383611d65565b60006117ee600e5490565b90506117fe600e80546001019055565b610e783382611f9f565b60006001600160e01b03198216637965db0b60e01b14806106c157506106c18261235a565b6127106001600160601b038216111561189b5760405162461bcd60e51b815260206004820152602a60248201527f455243323938313a20726f79616c7479206665652077696c6c206578636565646044820152692073616c65507269636560b01b6064820152608401610741565b6001600160a01b0382166118f15760405162461bcd60e51b815260206004820152601960248201527f455243323938313a20696e76616c6964207265636569766572000000000000006044820152606401610741565b604080518082019091526001600160a01b039092168083526001600160601b039091166020909201829052600160a01b90910217600055565b600082815260136020526040908190208290555182907f4e26044f7fb3724a9375deb74974fdc2f4e07f265efce87f93cfced3542584879061196f9084815260200190565b60405180910390a25050565b6000818152600460205260409020546001600160a01b0316610e785760405162461bcd60e51b815260206004820152601860248201527f4552433732313a20696e76616c696420746f6b656e20494400000000000000006044820152606401610741565b600081815260066020526040902080546001600160a01b0319166001600160a01b0384169081179091558190611a1482611101565b6001600160a01b03167f8c5be1e5ebec7d5bd14f71427d1e84f3dd0314c0f7b2291e5b200ac8c7c3b92560405160405180910390a45050565b600080611a5983611101565b9050806001600160a01b0316846001600160a01b03161480611aa057506001600160a01b0380821660009081526007602090815260408083209388168352929052205460ff165b80611ac45750836001600160a01b0316611ab98461086f565b6001600160a01b0316145b949350505050565b826001600160a01b0316611adf82611101565b6001600160a01b031614611b435760405162461bcd60e51b815260206004820152602560248201527f4552433732313a207472616e736665722066726f6d20696e636f72726563742060448201526437bbb732b960d91b6064820152608401610741565b6001600160a01b038216611ba55760405162461bcd60e51b8152602060048201526024808201527f4552433732313a207472616e7366657220746f20746865207a65726f206164646044820152637265737360e01b6064820152608401610741565b611bb28383836001612365565b826001600160a01b0316611bc582611101565b6001600160a01b031614611c295760405162461bcd60e51b815260206004820152602560248201527f4552433732313a207472616e736665722066726f6d20696e636f72726563742060448201526437bbb732b960d91b6064820152608401610741565b600081815260066020908152604080832080546001600160a01b03199081169091556001600160a01b0387811680865260058552838620805460001901905590871680865283862080546001019055868652600490945282852080549092168417909155905184937fddf252ad1be2c89b69c2b068fc378daa952ba7f163c4a11628f55a4df523b3ef91a4505050565b610e788133612379565b6000828152600d602090815260408083206001600160a01b038516845290915290205460ff16610754576000828152600d602090815260408083206001600160a01b03851684529091529020805460ff19166001179055611d213390565b6001600160a01b0316816001600160a01b0316837f2f8788117e7eff1d82e926ec794901d17c78024a50270940304540a733656f0d60405160405180910390a45050565b6000828152600d602090815260408083206001600160a01b038516845290915290205460ff1615610754576000828152600d602090815260408083206001600160a01b0385168085529252808320805460ff1916905551339285917ff6391f5c32d9c69d2a47ea670b442974b53935d1edc7fd64eb21e047a839171b9190a45050565b611df06123ee565b600c805460ff191690557f5db9ee0a495bf2e6ff9c91a7834c1ba4fdd244a5e8aa4e537bd38aeae4b073aa335b6040516001600160a01b03909116815260200160405180910390a1565b611e4381612440565b600090815260016020526040812055565b6127106001600160601b0382161115611ec25760405162461bcd60e51b815260206004820152602a60248201527f455243323938313a20726f79616c7479206665652077696c6c206578636565646044820152692073616c65507269636560b01b6064820152608401610741565b6001600160a01b038216611f185760405162461bcd60e51b815260206004820152601b60248201527f455243323938313a20496e76616c696420706172616d657465727300000000006044820152606401610741565b6040805180820182526001600160a01b0393841681526001600160601b0392831660208083019182526000968752600190529190942093519051909116600160a01b029116179055565b611f6a612449565b600c805460ff191660011790557f62e78cea01bee320cd4e420270b5ea74000d11b0c9f74754ebdbfc544b05a258611e1d3390565b61075482826040518060200160405280600081525061249c565b816001600160a01b0316836001600160a01b03160361201a5760405162461bcd60e51b815260206004820152601960248201527f4552433732313a20617070726f766520746f2063616c6c6572000000000000006044820152606401610741565b6001600160a01b03838116600081815260076020908152604080832094871680845294825291829020805460ff191686151590811790915591519182527f17307eab39ab6107e8899845ad3d59bd9653f200f220920489ca2b5937696c31910160405180910390a3505050565b8060ff168260ff161080156120a0575060208160ff1611155b6120dc5760405162461bcd60e51b815260206004820152600d60248201526c496e76616c69642072616e676560981b6044820152606401610741565b600060016120ea8484613615565b6120f590600861362e565b60ff166001901b6121069190613651565b90508084111561217e5760405162461bcd60e51b815260206004820152603060248201527f496e7075742076616c756520697320746f6f206c6172676520666f722074686560448201527f207370656369666965642072616e6765000000000000000000000000000000006064820152608401610741565b6000858152601360205260408120549080855b8560ff168160ff1610156121d65780601f0380600802905060ff811b8417935060ff898984036008021c16811b831792505080806121ce90613387565b915050612191565b50600088815260136020908152604091829020841986168585161790819055825190815290810189905260ff8881168284015287166060820152905189917fe152bca267ba38f000682405e9883c60a372ace2d8f54ad39deebd5a33bb72ee919081900360800190a25050505050505050565b612254848484611acc565b6122608484848461251a565b6116235760405162461bcd60e51b815260206004820152603260248201527f4552433732313a207472616e7366657220746f206e6f6e20455243373231526560448201527131b2b4bb32b91034b6b83632b6b2b73a32b960711b6064820152608401610741565b606060006122d483612666565b600101905060008167ffffffffffffffff8111156122f4576122f46130a0565b6040519080825280601f01601f19166020018201604052801561231e576020820181803683370190505b5090508181016020015b600019016f181899199a1a9b1b9c1cb0b131b232b360811b600a86061a8153600a850494508461232857509392505050565b60006106c182612748565b61236d612449565b6116238484848461276d565b6000828152600d602090815260408083206001600160a01b038516845290915290205460ff16610754576123ac816128a9565b6123b78360206128bb565b6040516020016123c8929190613664565b60408051601f198184030181529082905262461bcd60e51b825261074191600401612f9e565b600c5460ff16610d585760405162461bcd60e51b815260206004820152601460248201527f5061757361626c653a206e6f74207061757365640000000000000000000000006044820152606401610741565b611e4381612a57565b600c5460ff1615610d585760405162461bcd60e51b815260206004820152601060248201527f5061757361626c653a20706175736564000000000000000000000000000000006044820152606401610741565b6124a68383612afa565b6124b3600084848461251a565b6109a65760405162461bcd60e51b815260206004820152603260248201527f4552433732313a207472616e7366657220746f206e6f6e20455243373231526560448201527131b2b4bb32b91034b6b83632b6b2b73a32b960711b6064820152608401610741565b60006001600160a01b0384163b1561265b57604051630a85bd0160e11b81526001600160a01b0385169063150b7a029061255e9033908990889088906004016136e5565b6020604051808303816000875af1925050508015612599575060408051601f3d908101601f1916820190925261259691810190613721565b60015b612641573d8080156125c7576040519150601f19603f3d011682016040523d82523d6000602084013e6125cc565b606091505b5080516000036126395760405162461bcd60e51b815260206004820152603260248201527f4552433732313a207472616e7366657220746f206e6f6e20455243373231526560448201527131b2b4bb32b91034b6b83632b6b2b73a32b960711b6064820152608401610741565b805181602001fd5b6001600160e01b031916630a85bd0160e11b149050611ac4565b506001949350505050565b6000807a184f03e93ff9f4daa797ed6e38ed64bf6a1f01000000000000000083106126af577a184f03e93ff9f4daa797ed6e38ed64bf6a1f010000000000000000830492506040015b6d04ee2d6d415b85acef810000000083106126db576d04ee2d6d415b85acef8100000000830492506020015b662386f26fc1000083106126f957662386f26fc10000830492506010015b6305f5e1008310612711576305f5e100830492506008015b612710831061272557612710830492506004015b60648310612737576064830492506002015b600a83106106c15760010192915050565b60006001600160e01b0319821663780e9d6360e01b14806106c157506106c182612c93565b60018111156127e45760405162461bcd60e51b815260206004820152603560248201527f455243373231456e756d657261626c653a20636f6e736563757469766520747260448201527f616e7366657273206e6f7420737570706f7274656400000000000000000000006064820152608401610741565b816001600160a01b0385166128405761283b81600a80546000838152600b60205260408120829055600182018355919091527fc65a7bb8d6351c1cf70c95a316cc6a92839c986682d98bc35f958f4883f9d2a80155565b612863565b836001600160a01b0316856001600160a01b031614612863576128638582612cd3565b6001600160a01b03841661287f5761287a81612d70565b6128a2565b846001600160a01b0316846001600160a01b0316146128a2576128a28482612e1f565b5050505050565b60606106c16001600160a01b03831660145b606060006128ca8360026133a6565b6128d590600261373e565b67ffffffffffffffff8111156128ed576128ed6130a0565b6040519080825280601f01601f191660200182016040528015612917576020820181803683370190505b509050600360fc1b81600081518110612932576129326133df565b60200101906001600160f81b031916908160001a905350600f60fb1b81600181518110612961576129616133df565b60200101906001600160f81b031916908160001a90535060006129858460026133a6565b61299090600161373e565b90505b6001811115612a08576f181899199a1a9b1b9c1cb0b131b232b360811b85600f16601081106129c4576129c46133df565b1a60f81b8282815181106129da576129da6133df565b60200101906001600160f81b031916908160001a90535060049490941c93612a0181613751565b9050612993565b5083156114a55760405162461bcd60e51b815260206004820181905260248201527f537472696e67733a20686578206c656e67746820696e73756666696369656e746044820152606401610741565b6000612a6282611101565b9050612a72816000846001612365565b612a7b82611101565b600083815260066020908152604080832080546001600160a01b03199081169091556001600160a01b0385168085526005845282852080546000190190558785526004909352818420805490911690555192935084927fddf252ad1be2c89b69c2b068fc378daa952ba7f163c4a11628f55a4df523b3ef908390a45050565b6001600160a01b038216612b505760405162461bcd60e51b815260206004820181905260248201527f4552433732313a206d696e7420746f20746865207a65726f20616464726573736044820152606401610741565b6000818152600460205260409020546001600160a01b031615612bb55760405162461bcd60e51b815260206004820152601c60248201527f4552433732313a20746f6b656e20616c7265616479206d696e746564000000006044820152606401610741565b612bc3600083836001612365565b6000818152600460205260409020546001600160a01b031615612c285760405162461bcd60e51b815260206004820152601c60248201527f4552433732313a20746f6b656e20616c7265616479206d696e746564000000006044820152606401610741565b6001600160a01b038216600081815260056020908152604080832080546001019055848352600490915280822080546001600160a01b0319168417905551839291907fddf252ad1be2c89b69c2b068fc378daa952ba7f163c4a11628f55a4df523b3ef908290a45050565b60006001600160e01b031982166380ac58cd60e01b1480612cc457506001600160e01b03198216635b5e139f60e01b145b806106c157506106c182612e63565b60006001612ce0846112db565b612cea9190613651565b600083815260096020526040902054909150808214612d3d576001600160a01b03841660009081526008602090815260408083208584528252808320548484528184208190558352600990915290208190555b5060009182526009602090815260408084208490556001600160a01b039094168352600881528383209183525290812055565b600a54600090612d8290600190613651565b6000838152600b6020526040812054600a8054939450909284908110612daa57612daa6133df565b9060005260206000200154905080600a8381548110612dcb57612dcb6133df565b6000918252602080832090910192909255828152600b9091526040808220849055858252812055600a805480612e0357612e03613768565b6001900381819060005260206000200160009055905550505050565b6000612e2a836112db565b6001600160a01b039093166000908152600860209081526040808320868452825280832085905593825260099052919091209190915550565b60006001600160e01b0319821663152a902d60e11b14806106c157506301ffc9a760e01b6001600160e01b03198316146106c1565b6001600160e01b031981168114610e7857600080fd5b600060208284031215612ec057600080fd5b81356114a581612e98565b80356001600160a01b038116811461107357600080fd5b80356001600160601b038116811461107357600080fd5b60008060408385031215612f0c57600080fd5b612f1583612ecb565b9150612f2360208401612ee2565b90509250929050565b60008060408385031215612f3f57600080fd5b50508035926020909101359150565b60005b83811015612f69578181015183820152602001612f51565b50506000910152565b60008151808452612f8a816020860160208601612f4e565b601f01601f19169290920160200192915050565b6020815260006114a56020830184612f72565b600060208284031215612fc357600080fd5b5035919050565b60008060408385031215612fdd57600080fd5b612fe683612ecb565b946020939093013593505050565b803560ff8116811461107357600080fd5b60008060006060848603121561301a57600080fd5b8335925061302a60208501612ff4565b915061303860408501612ff4565b90509250925092565b60008060006060848603121561305657600080fd5b61305f84612ecb565b925061306d60208501612ecb565b9150604084013590509250925092565b6000806040838503121561309057600080fd5b82359150612f2360208401612ecb565b634e487b7160e01b600052604160045260246000fd5b600067ffffffffffffffff808411156130d1576130d16130a0565b604051601f8501601f19908116603f011681019082821181831017156130f9576130f96130a0565b8160405280935085815286868601111561311257600080fd5b858560208301376000602087830101525050509392505050565b60006020828403121561313e57600080fd5b813567ffffffffffffffff81111561315557600080fd5b8201601f8101841361316657600080fd5b611ac4848235602084016130b6565b60008060006060848603121561318a57600080fd5b8335925061319a60208501612ecb565b915061303860408501612ee2565b8035801515811461107357600080fd5b6000806000606084860312156131cd57600080fd5b833592506131dd60208501612ecb565b9150613038604085016131a8565b6000602082840312156131fd57600080fd5b6114a582612ecb565b6000806040838503121561321957600080fd5b61322283612ecb565b9150612f23602084016131a8565b60006020828403121561324257600080fd5b6114a582612ee2565b6000806000806080858703121561326157600080fd5b843593506020850135925061327860408601612ff4565b915061328660608601612ff4565b905092959194509250565b600080600080608085870312156132a757600080fd5b6132b085612ecb565b93506132be60208601612ecb565b925060408501359150606085013567ffffffffffffffff8111156132e157600080fd5b8501601f810187136132f257600080fd5b613301878235602084016130b6565b91505092959194509250565b6000806040838503121561332057600080fd5b61332983612ecb565b9150612f2360208401612ecb565b600181811c9082168061334b57607f821691505b60208210810361336b57634e487b7160e01b600052602260045260246000fd5b50919050565b634e487b7160e01b600052601160045260246000fd5b600060ff821660ff810361339d5761339d613371565b60010192915050565b80820281158282048414176106c1576106c1613371565b6000826133da57634e487b7160e01b600052601260045260246000fd5b500490565b634e487b7160e01b600052603260045260246000fd5b601f8211156109a657600081815260208120601f850160051c8101602086101561341c5750805b601f850160051c820191505b8181101561343b57828155600101613428565b505050505050565b815167ffffffffffffffff81111561345d5761345d6130a0565b6134718161346b8454613337565b846133f5565b602080601f8311600181146134a6576000841561348e5750858301515b600019600386901b1c1916600185901b17855561343b565b600085815260208120601f198616915b828110156134d5578886015182559484019460019091019084016134b6565b50858210156134f35787850151600019600388901b60f8161c191681555b5050505050600190811b01905550565b600060208083526000845461351781613337565b80848701526040600180841660008114613538576001811461355257613580565b60ff1985168984015283151560051b890183019550613580565b896000528660002060005b858110156135785781548b820186015290830190880161355d565b8a0184019650505b509398975050505050505050565b600080845461359c81613337565b600182811680156135b457600181146135c9576135f8565b60ff19841687528215158302870194506135f8565b8860005260208060002060005b858110156135ef5781548a8201529084019082016135d6565b50505082870194505b50505050835161360c818360208801612f4e565b01949350505050565b60ff82811682821603908111156106c1576106c1613371565b60ff818116838216029081169081811461364a5761364a613371565b5092915050565b818103818111156106c1576106c1613371565b7f416363657373436f6e74726f6c3a206163636f756e742000000000000000000081526000835161369c816017850160208801612f4e565b7f206973206d697373696e6720726f6c652000000000000000000000000000000060179184019182015283516136d9816028840160208801612f4e565b01602801949350505050565b60006001600160a01b038087168352808616602084015250836040830152608060608301526137176080830184612f72565b9695505050505050565b60006020828403121561373357600080fd5b81516114a581612e98565b808201808211156106c1576106c1613371565b60008161376057613760613371565b506000190190565b634e487b7160e01b600052603160045260246000fdfea164736f6c6343000811000a",
  "devdoc": {
    "kind": "dev",
    "methods": {
      "approve(address,uint256)": {
        "details": "See {IERC721-approve}."
      },
      "balanceOf(address)": {
        "details": "See {IERC721-balanceOf}."
      },
      "burn(uint256)": {
        "details": "Burns `tokenId`. See {ERC721-_burn}. Requirements: - The caller must own `tokenId` or be an approved operator."
      },
      "changeDenominator(uint96)": {
        "details": "Changes the denominator value. Emits a DenominatorChanged event with the new denominator value.",
        "params": {
          "_denominator": "The new denominator value."
        },
        "returns": {
          "_0": "The updated denominator value."
        }
      },
      "constructor": {
        "details": "Initializes the Kondux contract with the given name and symbol. Grants the DEFAULT_ADMIN_ROLE, MINTER_ROLE, and DNA_MODIFIER_ROLE to the contract creator. Inherits the ERC721 constructor to set the token name and symbol.",
        "params": {
          "_name": "The name of the token.",
          "_symbol": "The symbol of the token."
        }
      },
      "getApproved(uint256)": {
        "details": "See {IERC721-getApproved}."
      },
      "getDna(uint256)": {
        "details": "Returns the DNA value for a given token ID. Reverts if the token ID does not exist.",
        "params": {
          "_tokenID": "The ID of the token."
        },
        "returns": {
          "_0": "The DNA value of the token."
        }
      },
      "getRoleAdmin(bytes32)": {
        "details": "Returns the admin role that controls `role`. See {grantRole} and {revokeRole}. To change a role's admin, use {_setRoleAdmin}."
      },
      "grantRole(bytes32,address)": {
        "details": "Grants `role` to `account`. If `account` had not been already granted `role`, emits a {RoleGranted} event. Requirements: - the caller must have ``role``'s admin role. May emit a {RoleGranted} event."
      },
      "hasRole(bytes32,address)": {
        "details": "Returns `true` if `account` has been granted `role`."
      },
      "isApprovedForAll(address,address)": {
        "details": "See {IERC721-isApprovedForAll}."
      },
      "name()": {
        "details": "See {IERC721Metadata-name}."
      },
      "ownerOf(uint256)": {
        "details": "See {IERC721-ownerOf}."
      },
      "pause()": {
        "details": "Pauses the contract, preventing further token transfers."
      },
      "paused()": {
        "details": "Returns true if the contract is paused, and false otherwise."
      },
      "readGen(uint256,uint8,uint8)": {
        "details": "Reads a range of bytes from the DNA value of a given token ID. Reverts if the specified range is invalid.",
        "params": {
          "_tokenID": "The ID of the token.",
          "endIndex": "The ending index of the byte range.",
          "startIndex": "The starting index of the byte range."
        },
        "returns": {
          "_0": "The extracted value from the specified byte range."
        }
      },
      "renounceRole(bytes32,address)": {
        "details": "Revokes `role` from the calling account. Roles are often managed via {grantRole} and {revokeRole}: this function's purpose is to provide a mechanism for accounts to lose their privileges if they are compromised (such as when a trusted device is misplaced). If the calling account had been revoked `role`, emits a {RoleRevoked} event. Requirements: - the caller must be `account`. May emit a {RoleRevoked} event."
      },
      "revokeRole(bytes32,address)": {
        "details": "Revokes `role` from `account`. If `account` had been granted `role`, emits a {RoleRevoked} event. Requirements: - the caller must have ``role``'s admin role. May emit a {RoleRevoked} event."
      },
      "royaltyInfo(uint256,uint256)": {
        "details": "Returns how much royalty is owed and to whom, based on a sale price that may be denominated in any unit of exchange. The royalty amount is denominated and should be paid in that same unit of exchange."
      },
      "safeMint(address,uint256)": {
        "details": "Safely mints a new token with a specified DNA value for the recipient. Increments the token ID counter.",
        "params": {
          "dna": "The DNA value of the new token.",
          "to": "The address of the recipient."
        },
        "returns": {
          "_0": "The new token ID."
        }
      },
      "safeTransferFrom(address,address,uint256)": {
        "details": "See {IERC721-safeTransferFrom}."
      },
      "safeTransferFrom(address,address,uint256,bytes)": {
        "details": "See {IERC721-safeTransferFrom}."
      },
      "setApprovalForAll(address,bool)": {
        "details": "See {IERC721-setApprovalForAll}."
      },
      "setBaseURI(string)": {
        "details": "Sets the base URI for token metadata. Emits a BaseURIChanged event with the new base URI.",
        "params": {
          "_newURI": "The new base URI."
        },
        "returns": {
          "_0": "The updated base URI."
        }
      },
      "setDefaultRoyalty(address,uint96)": {
        "details": "Sets the default royalty for the contract.",
        "params": {
          "feeNumerator": "The numerator of the royalty fee.",
          "receiver": "The address that will receive the royalty fees."
        }
      },
      "setDna(uint256,uint256)": {
        "details": "Sets the DNA value for a given token ID.",
        "params": {
          "_dna": "The new DNA value.",
          "_tokenID": "The ID of the token for which the DNA value will be set."
        }
      },
      "setRole(bytes32,address,bool)": {
        "details": "Add or remove a role from an address.",
        "params": {
          "addr": "The address for which the role will be granted or revoked.",
          "enabled": "Flag to indicate if the role should be granted (true) or revoked (false).",
          "role": "The role identifier (keccak256 hash of the role name)."
        }
      },
      "setTokenRoyalty(uint256,address,uint96)": {
        "details": "Sets the royalty for a specific token.",
        "params": {
          "feeNumerator": "The numerator of the royalty fee.",
          "receiver": "The address that will receive the royalty fees.",
          "tokenId": "The ID of the token for which the royalty will be set."
        }
      },
      "supportsInterface(bytes4)": {
        "details": "Returns true if this contract implements the interface defined by `interfaceId`. See the corresponding Solidity interface to learn more about how these IDs are created.",
        "params": {
          "interfaceId": "The interface identifier."
        },
        "returns": {
          "_0": "Whether the interface is supported."
        }
      },
      "symbol()": {
        "details": "See {IERC721Metadata-symbol}."
      },
      "tokenByIndex(uint256)": {
        "details": "See {IERC721Enumerable-tokenByIndex}."
      },
      "tokenOfOwnerByIndex(address,uint256)": {
        "details": "See {IERC721Enumerable-tokenOfOwnerByIndex}."
      },
      "tokenURI(uint256)": {
        "details": "Returns the token URI for a given token ID. Reverts if the token ID does not exist.",
        "params": {
          "tokenId": "The ID of the token."
        },
        "returns": {
          "_0": "The token URI."
        }
      },
      "totalSupply()": {
        "details": "See {IERC721Enumerable-totalSupply}."
      },
      "transferFrom(address,address,uint256)": {
        "details": "See {IERC721-transferFrom}."
      },
      "unpause()": {
        "details": "Unpauses the contract, allowing token transfers."
      }
    },
    "version": 1
  },
  "userdoc": {
    "kind": "user",
    "methods": {},
    "version": 1
  },
  "storageLayout": {
    "storage": [
      {
        "astId": 2081,
        "contract": "contracts/Kondux_NFT.sol:Kondux",
        "label": "_defaultRoyaltyInfo",
        "offset": 0,
        "slot": "0",
        "type": "t_struct(RoyaltyInfo)2078_storage"
      },
      {
        "astId": 2086,
        "contract": "contracts/Kondux_NFT.sol:Kondux",
        "label": "_tokenRoyaltyInfo",
        "offset": 0,
        "slot": "1",
        "type": "t_mapping(t_uint256,t_struct(RoyaltyInfo)2078_storage)"
      },
      {
        "astId": 541,
        "contract": "contracts/Kondux_NFT.sol:Kondux",
        "label": "_name",
        "offset": 0,
        "slot": "2",
        "type": "t_string_storage"
      },
      {
        "astId": 543,
        "contract": "contracts/Kondux_NFT.sol:Kondux",
        "label": "_symbol",
        "offset": 0,
        "slot": "3",
        "type": "t_string_storage"
      },
      {
        "astId": 547,
        "contract": "contracts/Kondux_NFT.sol:Kondux",
        "label": "_owners",
        "offset": 0,
        "slot": "4",
        "type": "t_mapping(t_uint256,t_address)"
      },
      {
        "astId": 551,
        "contract": "contracts/Kondux_NFT.sol:Kondux",
        "label": "_balances",
        "offset": 0,
        "slot": "5",
        "type": "t_mapping(t_address,t_uint256)"
      },
      {
        "astId": 555,
        "contract": "contracts/Kondux_NFT.sol:Kondux",
        "label": "_tokenApprovals",
        "offset": 0,
        "slot": "6",
        "type": "t_mapping(t_uint256,t_address)"
      },
      {
        "astId": 561,
        "contract": "contracts/Kondux_NFT.sol:Kondux",
        "label": "_operatorApprovals",
        "offset": 0,
        "slot": "7",
        "type": "t_mapping(t_address,t_mapping(t_address,t_bool))"
      },
      {
        "astId": 1621,
        "contract": "contracts/Kondux_NFT.sol:Kondux",
        "label": "_ownedTokens",
        "offset": 0,
        "slot": "8",
        "type": "t_mapping(t_address,t_mapping(t_uint256,t_uint256))"
      },
      {
        "astId": 1625,
        "contract": "contracts/Kondux_NFT.sol:Kondux",
        "label": "_ownedTokensIndex",
        "offset": 0,
        "slot": "9",
        "type": "t_mapping(t_uint256,t_uint256)"
      },
      {
        "astId": 1628,
        "contract": "contracts/Kondux_NFT.sol:Kondux",
        "label": "_allTokens",
        "offset": 0,
        "slot": "10",
        "type": "t_array(t_uint256)dyn_storage"
      },
      {
        "astId": 1632,
        "contract": "contracts/Kondux_NFT.sol:Kondux",
        "label": "_allTokensIndex",
        "offset": 0,
        "slot": "11",
        "type": "t_mapping(t_uint256,t_uint256)"
      },
      {
        "astId": 425,
        "contract": "contracts/Kondux_NFT.sol:Kondux",
        "label": "_paused",
        "offset": 0,
        "slot": "12",
        "type": "t_bool"
      },
      {
        "astId": 24,
        "contract": "contracts/Kondux_NFT.sol:Kondux",
        "label": "_roles",
        "offset": 0,
        "slot": "13",
        "type": "t_mapping(t_bytes32,t_struct(RoleData)19_storage)"
      },
      {
        "astId": 3793,
        "contract": "contracts/Kondux_NFT.sol:Kondux",
        "label": "_tokenIdCounter",
        "offset": 0,
        "slot": "14",
        "type": "t_struct(Counter)2620_storage"
      },
      {
        "astId": 3832,
        "contract": "contracts/Kondux_NFT.sol:Kondux",
        "label": "MINTER_ROLE",
        "offset": 0,
        "slot": "15",
        "type": "t_bytes32"
      },
      {
        "astId": 3837,
        "contract": "contracts/Kondux_NFT.sol:Kondux",
        "label": "DNA_MODIFIER_ROLE",
        "offset": 0,
        "slot": "16",
        "type": "t_bytes32"
      },
      {
        "astId": 3839,
        "contract": "contracts/Kondux_NFT.sol:Kondux",
        "label": "baseURI",
        "offset": 0,
        "slot": "17",
        "type": "t_string_storage"
      },
      {
        "astId": 3841,
        "contract": "contracts/Kondux_NFT.sol:Kondux",
        "label": "denominator",
        "offset": 0,
        "slot": "18",
        "type": "t_uint96"
      },
      {
        "astId": 3845,
        "contract": "contracts/Kondux_NFT.sol:Kondux",
        "label": "indexDna",
        "offset": 0,
        "slot": "19",
        "type": "t_mapping(t_uint256,t_uint256)"
      }
    ],
    "types": {
      "t_address": {
        "encoding": "inplace",
        "label": "address",
        "numberOfBytes": "20"
      },
      "t_array(t_uint256)dyn_storage": {
        "base": "t_uint256",
        "encoding": "dynamic_array",
        "label": "uint256[]",
        "numberOfBytes": "32"
      },
      "t_bool": {
        "encoding": "inplace",
        "label": "bool",
        "numberOfBytes": "1"
      },
      "t_bytes32": {
        "encoding": "inplace",
        "label": "bytes32",
        "numberOfBytes": "32"
      },
      "t_mapping(t_address,t_bool)": {
        "encoding": "mapping",
        "key": "t_address",
        "label": "mapping(address => bool)",
        "numberOfBytes": "32",
        "value": "t_bool"
      },
      "t_mapping(t_address,t_mapping(t_address,t_bool))": {
        "encoding": "mapping",
        "key": "t_address",
        "label": "mapping(address => mapping(address => bool))",
        "numberOfBytes": "32",
        "value": "t_mapping(t_address,t_bool)"
      },
      "t_mapping(t_address,t_mapping(t_uint256,t_uint256))": {
        "encoding": "mapping",
        "key": "t_address",
        "label": "mapping(address => mapping(uint256 => uint256))",
        "numberOfBytes": "32",
        "value": "t_mapping(t_uint256,t_uint256)"
      },
      "t_mapping(t_address,t_uint256)": {
        "encoding": "mapping",
        "key": "t_address",
        "label": "mapping(address => uint256)",
        "numberOfBytes": "32",
        "value": "t_uint256"
      },
      "t_mapping(t_bytes32,t_struct(RoleData)19_storage)": {
        "encoding": "mapping",
        "key": "t_bytes32",
        "label": "mapping(bytes32 => struct AccessControl.RoleData)",
        "numberOfBytes": "32",
        "value": "t_struct(RoleData)19_storage"
      },
      "t_mapping(t_uint256,t_address)": {
        "encoding": "mapping",
        "key": "t_uint256",
        "label": "mapping(uint256 => address)",
        "numberOfBytes": "32",
        "value": "t_address"
      },
      "t_mapping(t_uint256,t_struct(RoyaltyInfo)2078_storage)": {
        "encoding": "mapping",
        "key": "t_uint256",
        "label": "mapping(uint256 => struct ERC2981.RoyaltyInfo)",
        "numberOfBytes": "32",
        "value": "t_struct(RoyaltyInfo)2078_storage"
      },
      "t_mapping(t_uint256,t_uint256)": {
        "encoding": "mapping",
        "key": "t_uint256",
        "label": "mapping(uint256 => uint256)",
        "numberOfBytes": "32",
        "value": "t_uint256"
      },
      "t_string_storage": {
        "encoding": "bytes",
        "label": "string",
        "numberOfBytes": "32"
      },
      "t_struct(Counter)2620_storage": {
        "encoding": "inplace",
        "label": "struct Counters.Counter",
        "members": [
          {
            "astId": 2619,
            "contract": "contracts/Kondux_NFT.sol:Kondux",
            "label": "_value",
            "offset": 0,
            "slot": "0",
            "type": "t_uint256"
          }
        ],
        "numberOfBytes": "32"
      },
      "t_struct(RoleData)19_storage": {
        "encoding": "inplace",
        "label": "struct AccessControl.RoleData",
        "members": [
          {
            "astId": 16,
            "contract": "contracts/Kondux_NFT.sol:Kondux",
            "label": "members",
            "offset": 0,
            "slot": "0",
            "type": "t_mapping(t_address,t_bool)"
          },
          {
            "astId": 18,
            "contract": "contracts/Kondux_NFT.sol:Kondux",
            "label": "adminRole",
            "offset": 0,
            "slot": "1",
            "type": "t_bytes32"
          }
        ],
        "numberOfBytes": "64"
      },
      "t_struct(RoyaltyInfo)2078_storage": {
        "encoding": "inplace",
        "label": "struct ERC2981.RoyaltyInfo",
        "members": [
          {
            "astId": 2075,
            "contract": "contracts/Kondux_NFT.sol:Kondux",
            "label": "receiver",
            "offset": 0,
            "slot": "0",
            "type": "t_address"
          },
          {
            "astId": 2077,
            "contract": "contracts/Kondux_NFT.sol:Kondux",
            "label": "royaltyFraction",
            "offset": 20,
            "slot": "0",
            "type": "t_uint96"
          }
        ],
        "numberOfBytes": "32"
      },
      "t_uint256": {
        "encoding": "inplace",
        "label": "uint256",
        "numberOfBytes": "32"
      },
      "t_uint96": {
        "encoding": "inplace",
        "label": "uint96",
        "numberOfBytes": "12"
      }
    }
  }
}