{
  "address": "0xeECaEa1c95cD93DD1bB9F7B1180dC1eD7dA8B7F9",
  "abi": [
    {
      "inputs": [
        {
          "internalType": "address",
          "name": "_authority",
          "type": "address"
        },
        {
          "internalType": "address",
          "name": "_konduxERC20",
          "type": "address"
        },
        {
          "internalType": "address",
          "name": "_treasury",
          "type": "address"
        },
        {
          "internalType": "address",
          "name": "_konduxERC721Founders",
          "type": "address"
        },
        {
          "internalType": "address",
          "name": "_konduxERC721kNFT",
          "type": "address"
        },
        {
          "internalType": "address",
          "name": "_helixERC20",
          "type": "address"
        }
      ],
      "stateMutability": "nonpayable",
      "type": "constructor"
    },
    {
      "anonymous": false,
      "inputs": [
        {
          "indexed": false,
          "internalType": "contract IAuthority",
          "name": "authority",
          "type": "address"
        }
      ],
      "name": "AuthorityUpdated",
      "type": "event"
    },
    {
      "anonymous": false,
      "inputs": [
        {
          "indexed": true,
          "internalType": "address",
          "name": "staker",
          "type": "address"
        },
        {
          "indexed": false,
          "internalType": "uint256",
          "name": "amount",
          "type": "uint256"
        }
      ],
      "name": "Compound",
      "type": "event"
    },
    {
      "anonymous": false,
      "inputs": [
        {
          "indexed": true,
          "internalType": "address",
          "name": "token",
          "type": "address"
        },
        {
          "indexed": true,
          "internalType": "bool",
          "name": "authorized",
          "type": "bool"
        }
      ],
      "name": "NewAuthorizedERC20",
      "type": "event"
    },
    {
      "anonymous": false,
      "inputs": [
        {
          "indexed": true,
          "internalType": "uint256",
          "name": "amount",
          "type": "uint256"
        },
        {
          "indexed": true,
          "internalType": "address",
          "name": "token",
          "type": "address"
        }
      ],
      "name": "NewCompoundFreq",
      "type": "event"
    },
    {
      "anonymous": false,
      "inputs": [
        {
          "indexed": true,
          "internalType": "uint256",
          "name": "amount",
          "type": "uint256"
        },
        {
          "indexed": true,
          "internalType": "address",
          "name": "token",
          "type": "address"
        }
      ],
      "name": "NewFoundersRewardBoost",
      "type": "event"
    },
    {
      "anonymous": false,
      "inputs": [
        {
          "indexed": true,
          "internalType": "uint256",
          "name": "amount",
          "type": "uint256"
        },
        {
          "indexed": true,
          "internalType": "address",
          "name": "token",
          "type": "address"
        }
      ],
      "name": "NewFoundersRewardBoostDivisor",
      "type": "event"
    },
    {
      "anonymous": false,
      "inputs": [
        {
          "indexed": true,
          "internalType": "address",
          "name": "helixERC20",
          "type": "address"
        }
      ],
      "name": "NewHelixERC20",
      "type": "event"
    },
    {
      "anonymous": false,
      "inputs": [
        {
          "indexed": true,
          "internalType": "uint256",
          "name": "amount",
          "type": "uint256"
        },
        {
          "indexed": true,
          "internalType": "address",
          "name": "token",
          "type": "address"
        }
      ],
      "name": "NewKNFTRewardBoost",
      "type": "event"
    },
    {
      "anonymous": false,
      "inputs": [
        {
          "indexed": true,
          "internalType": "uint256",
          "name": "amount",
          "type": "uint256"
        },
        {
          "indexed": true,
          "internalType": "address",
          "name": "token",
          "type": "address"
        }
      ],
      "name": "NewKNFTRewardBoostDivisor",
      "type": "event"
    },
    {
      "anonymous": false,
      "inputs": [
        {
          "indexed": true,
          "internalType": "address",
          "name": "konduxERC721Founders",
          "type": "address"
        }
      ],
      "name": "NewKonduxERC721Founders",
      "type": "event"
    },
    {
      "anonymous": false,
      "inputs": [
        {
          "indexed": true,
          "internalType": "address",
          "name": "konduxERC721kNFT",
          "type": "address"
        }
      ],
      "name": "NewKonduxERC721kNFT",
      "type": "event"
    },
    {
      "anonymous": false,
      "inputs": [
        {
          "indexed": true,
          "internalType": "uint256",
          "name": "amount",
          "type": "uint256"
        },
        {
          "indexed": true,
          "internalType": "address",
          "name": "token",
          "type": "address"
        }
      ],
      "name": "NewMinStake",
      "type": "event"
    },
    {
      "anonymous": false,
      "inputs": [
        {
          "indexed": true,
          "internalType": "uint256",
          "name": "amount",
          "type": "uint256"
        },
        {
          "indexed": true,
          "internalType": "address",
          "name": "token",
          "type": "address"
        }
      ],
      "name": "NewRatio",
      "type": "event"
    },
    {
      "anonymous": false,
      "inputs": [
        {
          "indexed": true,
          "internalType": "uint256",
          "name": "amount",
          "type": "uint256"
        },
        {
          "indexed": true,
          "internalType": "address",
          "name": "token",
          "type": "address"
        }
      ],
      "name": "NewRewardsPerHour",
      "type": "event"
    },
    {
      "anonymous": false,
      "inputs": [
        {
          "indexed": true,
          "internalType": "address",
          "name": "treasury",
          "type": "address"
        }
      ],
      "name": "NewTreasury",
      "type": "event"
    },
    {
      "anonymous": false,
      "inputs": [
        {
          "indexed": true,
          "internalType": "uint256",
          "name": "amount",
          "type": "uint256"
        },
        {
          "indexed": true,
          "internalType": "address",
          "name": "token",
          "type": "address"
        }
      ],
      "name": "NewWithdrawalFee",
      "type": "event"
    },
    {
      "anonymous": false,
      "inputs": [
        {
          "indexed": true,
          "internalType": "uint256",
          "name": "amount",
          "type": "uint256"
        },
        {
          "indexed": true,
          "internalType": "address",
          "name": "token",
          "type": "address"
        }
      ],
      "name": "NewWithdrawalFeeDivisor",
      "type": "event"
    },
    {
      "anonymous": false,
      "inputs": [
        {
          "indexed": true,
          "internalType": "address",
          "name": "staker",
          "type": "address"
        },
        {
          "indexed": false,
          "internalType": "uint256",
          "name": "amount",
          "type": "uint256"
        }
      ],
      "name": "Reward",
      "type": "event"
    },
    {
      "anonymous": false,
      "inputs": [
        {
          "indexed": true,
          "internalType": "uint256",
          "name": "id",
          "type": "uint256"
        },
        {
          "indexed": true,
          "internalType": "address",
          "name": "staker",
          "type": "address"
        },
        {
          "indexed": false,
          "internalType": "address",
          "name": "token",
          "type": "address"
        },
        {
          "indexed": false,
          "internalType": "uint256",
          "name": "amount",
          "type": "uint256"
        }
      ],
      "name": "Stake",
      "type": "event"
    },
    {
      "anonymous": false,
      "inputs": [
        {
          "indexed": true,
          "internalType": "address",
          "name": "staker",
          "type": "address"
        },
        {
          "indexed": false,
          "internalType": "uint256",
          "name": "amount",
          "type": "uint256"
        }
      ],
      "name": "Unstake",
      "type": "event"
    },
    {
      "anonymous": false,
      "inputs": [
        {
          "indexed": true,
          "internalType": "address",
          "name": "staker",
          "type": "address"
        },
        {
          "indexed": false,
          "internalType": "uint256",
          "name": "amount",
          "type": "uint256"
        }
      ],
      "name": "Withdraw",
      "type": "event"
    },
    {
      "anonymous": false,
      "inputs": [
        {
          "indexed": true,
          "internalType": "address",
          "name": "staker",
          "type": "address"
        },
        {
          "indexed": false,
          "internalType": "uint256",
          "name": "amount",
          "type": "uint256"
        }
      ],
      "name": "WithdrawAll",
      "type": "event"
    },
    {
      "inputs": [
        {
          "internalType": "address",
          "name": "_token",
          "type": "address"
        },
        {
          "internalType": "uint256",
          "name": "_rewardsPerHour",
          "type": "uint256"
        },
        {
          "internalType": "uint256",
          "name": "_compoundFreq",
          "type": "uint256"
        },
        {
          "internalType": "uint256",
          "name": "_withdrawalFee",
          "type": "uint256"
        },
        {
          "internalType": "uint256",
          "name": "_withdrawalFeeDivisor",
          "type": "uint256"
        },
        {
          "internalType": "uint256",
          "name": "_foundersRewardBoost",
          "type": "uint256"
        },
        {
          "internalType": "uint256",
          "name": "_foundersRewardBoostDivisor",
          "type": "uint256"
        },
        {
          "internalType": "uint256",
          "name": "_kNFTRewardBoost",
          "type": "uint256"
        },
        {
          "internalType": "uint256",
          "name": "_kNFTRewardBoostDivisor",
          "type": "uint256"
        },
        {
          "internalType": "uint256",
          "name": "_ratio",
          "type": "uint256"
        },
        {
          "internalType": "uint256",
          "name": "_minStake",
          "type": "uint256"
        }
      ],
      "name": "addNewStakingToken",
      "outputs": [],
      "stateMutability": "nonpayable",
      "type": "function"
    },
    {
      "inputs": [],
      "name": "authority",
      "outputs": [
        {
          "internalType": "contract IAuthority",
          "name": "",
          "type": "address"
        }
      ],
      "stateMutability": "view",
      "type": "function"
    },
    {
      "inputs": [
        {
          "internalType": "address",
          "name": "",
          "type": "address"
        }
      ],
      "name": "authorizedERC20",
      "outputs": [
        {
          "internalType": "bool",
          "name": "",
          "type": "bool"
        }
      ],
      "stateMutability": "view",
      "type": "function"
    },
    {
      "inputs": [
        {
          "internalType": "address",
          "name": "_staker",
          "type": "address"
        },
        {
          "internalType": "uint256",
          "name": "_depositId",
          "type": "uint256"
        }
      ],
      "name": "calculateRewards",
      "outputs": [
        {
          "internalType": "uint256",
          "name": "rewards",
          "type": "uint256"
        }
      ],
      "stateMutability": "view",
      "type": "function"
    },
    {
      "inputs": [
        {
          "internalType": "uint256",
          "name": "_depositId",
          "type": "uint256"
        }
      ],
      "name": "claimRewards",
      "outputs": [],
      "stateMutability": "nonpayable",
      "type": "function"
    },
    {
      "inputs": [
        {
          "internalType": "address",
          "name": "",
          "type": "address"
        }
      ],
      "name": "compoundFreqERC20",
      "outputs": [
        {
          "internalType": "uint256",
          "name": "",
          "type": "uint256"
        }
      ],
      "stateMutability": "view",
      "type": "function"
    },
    {
      "inputs": [
        {
          "internalType": "uint256",
          "name": "_depositId",
          "type": "uint256"
        }
      ],
      "name": "compoundRewardsTimer",
      "outputs": [
        {
          "internalType": "uint256",
          "name": "_timer",
          "type": "uint256"
        }
      ],
      "stateMutability": "view",
      "type": "function"
    },
    {
      "inputs": [
        {
          "internalType": "uint256",
          "name": "_amount",
          "type": "uint256"
        },
        {
          "internalType": "uint8",
          "name": "_timelock",
          "type": "uint8"
        },
        {
          "internalType": "address",
          "name": "_token",
          "type": "address"
        }
      ],
      "name": "deposit",
      "outputs": [
        {
          "internalType": "uint256",
          "name": "",
          "type": "uint256"
        }
      ],
      "stateMutability": "nonpayable",
      "type": "function"
    },
    {
      "inputs": [
        {
          "internalType": "address",
          "name": "",
          "type": "address"
        }
      ],
      "name": "foundersRewardBoostDivisorERC20",
      "outputs": [
        {
          "internalType": "uint256",
          "name": "",
          "type": "uint256"
        }
      ],
      "stateMutability": "view",
      "type": "function"
    },
    {
      "inputs": [
        {
          "internalType": "address",
          "name": "",
          "type": "address"
        }
      ],
      "name": "foundersRewardBoostERC20",
      "outputs": [
        {
          "internalType": "uint256",
          "name": "",
          "type": "uint256"
        }
      ],
      "stateMutability": "view",
      "type": "function"
    },
    {
      "inputs": [
        {
          "internalType": "address",
          "name": "_user",
          "type": "address"
        }
      ],
      "name": "getDepositIds",
      "outputs": [
        {
          "internalType": "uint256[]",
          "name": "",
          "type": "uint256[]"
        }
      ],
      "stateMutability": "view",
      "type": "function"
    },
    {
      "inputs": [
        {
          "internalType": "uint256",
          "name": "_depositId",
          "type": "uint256"
        }
      ],
      "name": "getDepositInfo",
      "outputs": [
        {
          "internalType": "uint256",
          "name": "_stake",
          "type": "uint256"
        },
        {
          "internalType": "uint256",
          "name": "_rewards",
          "type": "uint256"
        }
      ],
      "stateMutability": "view",
      "type": "function"
    },
    {
      "inputs": [
        {
          "internalType": "address",
          "name": "_tokenId",
          "type": "address"
        }
      ],
      "name": "getFoundersRewardBoost",
      "outputs": [
        {
          "internalType": "uint256",
          "name": "_foundersRewardBoost",
          "type": "uint256"
        }
      ],
      "stateMutability": "view",
      "type": "function"
    },
    {
      "inputs": [
        {
          "internalType": "address",
          "name": "_tokenId",
          "type": "address"
        }
      ],
      "name": "getFoundersRewardBoostDenominator",
      "outputs": [
        {
          "internalType": "uint256",
          "name": "_foundersRewardBoostDivisor",
          "type": "uint256"
        }
      ],
      "stateMutability": "view",
      "type": "function"
    },
    {
      "inputs": [
        {
          "internalType": "address",
          "name": "_tokenId",
          "type": "address"
        }
      ],
      "name": "getKnftRewardBoostDenominator",
      "outputs": [
        {
          "internalType": "uint256",
          "name": "_kNFTRewardBoostDivisor",
          "type": "uint256"
        }
      ],
      "stateMutability": "view",
      "type": "function"
    },
    {
      "inputs": [
        {
          "internalType": "address",
          "name": "_tokenId",
          "type": "address"
        }
      ],
      "name": "getMinStake",
      "outputs": [
        {
          "internalType": "uint256",
          "name": "_minStake",
          "type": "uint256"
        }
      ],
      "stateMutability": "view",
      "type": "function"
    },
    {
      "inputs": [
        {
          "internalType": "address",
          "name": "_tokenId",
          "type": "address"
        }
      ],
      "name": "getRewardsPerHour",
      "outputs": [
        {
          "internalType": "uint256",
          "name": "_rewardsPerHour",
          "type": "uint256"
        }
      ],
      "stateMutability": "view",
      "type": "function"
    },
    {
      "inputs": [
        {
          "internalType": "uint256",
          "name": "_depositId",
          "type": "uint256"
        }
      ],
      "name": "getStakedAmount",
      "outputs": [
        {
          "internalType": "uint256",
          "name": "_deposited",
          "type": "uint256"
        }
      ],
      "stateMutability": "view",
      "type": "function"
    },
    {
      "inputs": [
        {
          "internalType": "uint256",
          "name": "_depositId",
          "type": "uint256"
        }
      ],
      "name": "getTimeOfLastUpdate",
      "outputs": [
        {
          "internalType": "uint256",
          "name": "_timeOfLastUpdate",
          "type": "uint256"
        }
      ],
      "stateMutability": "view",
      "type": "function"
    },
    {
      "inputs": [
        {
          "internalType": "uint256",
          "name": "_depositId",
          "type": "uint256"
        }
      ],
      "name": "getTimelock",
      "outputs": [
        {
          "internalType": "uint256",
          "name": "_timelock",
          "type": "uint256"
        }
      ],
      "stateMutability": "view",
      "type": "function"
    },
    {
      "inputs": [
        {
          "internalType": "uint256",
          "name": "_depositId",
          "type": "uint256"
        }
      ],
      "name": "getTimelockCategory",
      "outputs": [
        {
          "internalType": "uint8",
          "name": "_timelockCategory",
          "type": "uint8"
        }
      ],
      "stateMutability": "view",
      "type": "function"
    },
    {
      "inputs": [
        {
          "internalType": "address",
          "name": "_userOrContract",
          "type": "address"
        }
      ],
      "name": "getTotalStaked",
      "outputs": [
        {
          "internalType": "uint256",
          "name": "_totalStaked",
          "type": "uint256"
        }
      ],
      "stateMutability": "view",
      "type": "function"
    },
    {
      "inputs": [
        {
          "internalType": "address",
          "name": "_user",
          "type": "address"
        },
        {
          "internalType": "address",
          "name": "_tokenId",
          "type": "address"
        }
      ],
      "name": "getUserTotalStakedByCoin",
      "outputs": [
        {
          "internalType": "uint256",
          "name": "_totalStaked",
          "type": "uint256"
        }
      ],
      "stateMutability": "view",
      "type": "function"
    },
    {
      "inputs": [
        {
          "internalType": "address",
          "name": "_tokenId",
          "type": "address"
        }
      ],
      "name": "getWithdrawalFee",
      "outputs": [
        {
          "internalType": "uint256",
          "name": "_withdrawalFee",
          "type": "uint256"
        }
      ],
      "stateMutability": "view",
      "type": "function"
    },
    {
      "inputs": [
        {
          "internalType": "address",
          "name": "_tokenId",
          "type": "address"
        }
      ],
      "name": "getWithdrawalFeeDivisor",
      "outputs": [
        {
          "internalType": "uint256",
          "name": "_withdrawalFeeDivisor",
          "type": "uint256"
        }
      ],
      "stateMutability": "view",
      "type": "function"
    },
    {
      "inputs": [
        {
          "internalType": "address",
          "name": "_tokenId",
          "type": "address"
        }
      ],
      "name": "getkNFTRewardBoost",
      "outputs": [
        {
          "internalType": "uint256",
          "name": "_kNFTRewardBoost",
          "type": "uint256"
        }
      ],
      "stateMutability": "view",
      "type": "function"
    },
    {
      "inputs": [],
      "name": "helixERC20",
      "outputs": [
        {
          "internalType": "contract IHelix",
          "name": "",
          "type": "address"
        }
      ],
      "stateMutability": "view",
      "type": "function"
    },
    {
      "inputs": [
        {
          "internalType": "address",
          "name": "",
          "type": "address"
        }
      ],
      "name": "kNFTRewardBoostDivisorERC20",
      "outputs": [
        {
          "internalType": "uint256",
          "name": "",
          "type": "uint256"
        }
      ],
      "stateMutability": "view",
      "type": "function"
    },
    {
      "inputs": [
        {
          "internalType": "address",
          "name": "",
          "type": "address"
        }
      ],
      "name": "kNFTRewardBoostERC20",
      "outputs": [
        {
          "internalType": "uint256",
          "name": "",
          "type": "uint256"
        }
      ],
      "stateMutability": "view",
      "type": "function"
    },
    {
      "inputs": [],
      "name": "konduxERC721Founders",
      "outputs": [
        {
          "internalType": "contract IERC721",
          "name": "",
          "type": "address"
        }
      ],
      "stateMutability": "view",
      "type": "function"
    },
    {
      "inputs": [],
      "name": "konduxERC721kNFT",
      "outputs": [
        {
          "internalType": "contract IERC721",
          "name": "",
          "type": "address"
        }
      ],
      "stateMutability": "view",
      "type": "function"
    },
    {
      "inputs": [
        {
          "internalType": "address",
          "name": "",
          "type": "address"
        }
      ],
      "name": "minStakeERC20",
      "outputs": [
        {
          "internalType": "uint256",
          "name": "",
          "type": "uint256"
        }
      ],
      "stateMutability": "view",
      "type": "function"
    },
    {
      "inputs": [
        {
          "internalType": "address",
          "name": "",
          "type": "address"
        }
      ],
      "name": "name",
      "outputs": [
        {
          "internalType": "uint256",
          "name": "",
          "type": "uint256"
        }
      ],
      "stateMutability": "view",
      "type": "function"
    },
    {
      "inputs": [
        {
          "internalType": "address",
          "name": "",
          "type": "address"
        }
      ],
      "name": "ratioERC20",
      "outputs": [
        {
          "internalType": "uint256",
          "name": "",
          "type": "uint256"
        }
      ],
      "stateMutability": "view",
      "type": "function"
    },
    {
      "inputs": [
        {
          "internalType": "address",
          "name": "",
          "type": "address"
        }
      ],
      "name": "rewardsPerHourERC20",
      "outputs": [
        {
          "internalType": "uint256",
          "name": "",
          "type": "uint256"
        }
      ],
      "stateMutability": "view",
      "type": "function"
    },
    {
      "inputs": [
        {
          "internalType": "contract IAuthority",
          "name": "_newAuthority",
          "type": "address"
        }
      ],
      "name": "setAuthority",
      "outputs": [],
      "stateMutability": "nonpayable",
      "type": "function"
    },
    {
      "inputs": [
        {
          "internalType": "address",
          "name": "_token",
          "type": "address"
        },
        {
          "internalType": "bool",
          "name": "_authorized",
          "type": "bool"
        }
      ],
      "name": "setAuthorizedERC20",
      "outputs": [],
      "stateMutability": "nonpayable",
      "type": "function"
    },
    {
      "inputs": [
        {
          "internalType": "uint256",
          "name": "_compoundFreq",
          "type": "uint256"
        },
        {
          "internalType": "address",
          "name": "_tokenId",
          "type": "address"
        }
      ],
      "name": "setCompoundFreq",
      "outputs": [],
      "stateMutability": "nonpayable",
      "type": "function"
    },
    {
      "inputs": [
        {
          "internalType": "uint256",
          "name": "_foundersRewardBoost",
          "type": "uint256"
        },
        {
          "internalType": "address",
          "name": "_tokenId",
          "type": "address"
        }
      ],
      "name": "setFoundersRewardBoost",
      "outputs": [],
      "stateMutability": "nonpayable",
      "type": "function"
    },
    {
      "inputs": [
        {
          "internalType": "uint256",
          "name": "_foundersRewardBoostDivisor",
          "type": "uint256"
        },
        {
          "internalType": "address",
          "name": "_tokenId",
          "type": "address"
        }
      ],
      "name": "setFoundersRewardBoostDivisor",
      "outputs": [],
      "stateMutability": "nonpayable",
      "type": "function"
    },
    {
      "inputs": [
        {
          "internalType": "address",
          "name": "_helix",
          "type": "address"
        }
      ],
      "name": "setHelixERC20",
      "outputs": [],
      "stateMutability": "nonpayable",
      "type": "function"
    },
    {
      "inputs": [
        {
          "internalType": "address",
          "name": "_konduxERC721Founders",
          "type": "address"
        }
      ],
      "name": "setKonduxERC721Founders",
      "outputs": [],
      "stateMutability": "nonpayable",
      "type": "function"
    },
    {
      "inputs": [
        {
          "internalType": "address",
          "name": "_konduxERC721kNFT",
          "type": "address"
        }
      ],
      "name": "setKonduxERC721kNFT",
      "outputs": [],
      "stateMutability": "nonpayable",
      "type": "function"
    },
    {
      "inputs": [
        {
          "internalType": "uint256",
          "name": "_minStake",
          "type": "uint256"
        },
        {
          "internalType": "address",
          "name": "_tokenId",
          "type": "address"
        }
      ],
      "name": "setMinStake",
      "outputs": [],
      "stateMutability": "nonpayable",
      "type": "function"
    },
    {
      "inputs": [
        {
          "internalType": "uint256",
          "name": "_ratio",
          "type": "uint256"
        },
        {
          "internalType": "address",
          "name": "_tokenId",
          "type": "address"
        }
      ],
      "name": "setRatio",
      "outputs": [],
      "stateMutability": "nonpayable",
      "type": "function"
    },
    {
      "inputs": [
        {
          "internalType": "uint256",
          "name": "_rewardsPerHour",
          "type": "uint256"
        },
        {
          "internalType": "address",
          "name": "_tokenId",
          "type": "address"
        }
      ],
      "name": "setRewards",
      "outputs": [],
      "stateMutability": "nonpayable",
      "type": "function"
    },
    {
      "inputs": [
        {
          "internalType": "uint256",
          "name": "_rewardsPerHour",
          "type": "uint256"
        },
        {
          "internalType": "address",
          "name": "_tokenId",
          "type": "address"
        }
      ],
      "name": "setRewardsPerHour",
      "outputs": [],
      "stateMutability": "nonpayable",
      "type": "function"
    },
    {
      "inputs": [
        {
          "internalType": "address",
          "name": "_treasury",
          "type": "address"
        }
      ],
      "name": "setTreasury",
      "outputs": [],
      "stateMutability": "nonpayable",
      "type": "function"
    },
    {
      "inputs": [
        {
          "internalType": "uint256",
          "name": "_withdrawalFee",
          "type": "uint256"
        },
        {
          "internalType": "address",
          "name": "_tokenId",
          "type": "address"
        }
      ],
      "name": "setWithdrawalFee",
      "outputs": [],
      "stateMutability": "nonpayable",
      "type": "function"
    },
    {
      "inputs": [
        {
          "internalType": "uint256",
          "name": "_withdrawalFeeDivisor",
          "type": "uint256"
        },
        {
          "internalType": "address",
          "name": "_tokenId",
          "type": "address"
        }
      ],
      "name": "setWithdrawalFeeDivisor",
      "outputs": [],
      "stateMutability": "nonpayable",
      "type": "function"
    },
    {
      "inputs": [
        {
          "internalType": "uint256",
          "name": "_kNFTRewardBoost",
          "type": "uint256"
        },
        {
          "internalType": "address",
          "name": "_tokenId",
          "type": "address"
        }
      ],
      "name": "setkNFTRewardBoost",
      "outputs": [],
      "stateMutability": "nonpayable",
      "type": "function"
    },
    {
      "inputs": [
        {
          "internalType": "uint256",
          "name": "_kNFTRewardBoostDivisor",
          "type": "uint256"
        },
        {
          "internalType": "address",
          "name": "_tokenId",
          "type": "address"
        }
      ],
      "name": "setkNFTRewardBoostDivisor",
      "outputs": [],
      "stateMutability": "nonpayable",
      "type": "function"
    },
    {
      "inputs": [
        {
          "internalType": "uint256",
          "name": "_depositId",
          "type": "uint256"
        }
      ],
      "name": "stakeRewards",
      "outputs": [],
      "stateMutability": "nonpayable",
      "type": "function"
    },
    {
      "inputs": [
        {
          "internalType": "address",
          "name": "",
          "type": "address"
        }
      ],
      "name": "totalStaked",
      "outputs": [
        {
          "internalType": "uint256",
          "name": "",
          "type": "uint256"
        }
      ],
      "stateMutability": "view",
      "type": "function"
    },
    {
      "inputs": [],
      "name": "treasury",
      "outputs": [
        {
          "internalType": "contract ITreasury",
          "name": "",
          "type": "address"
        }
      ],
      "stateMutability": "view",
      "type": "function"
    },
    {
      "inputs": [
        {
          "internalType": "uint256",
          "name": "",
          "type": "uint256"
        }
      ],
      "name": "userDeposits",
      "outputs": [
        {
          "internalType": "address",
          "name": "token",
          "type": "address"
        },
        {
          "internalType": "address",
          "name": "staker",
          "type": "address"
        },
        {
          "internalType": "uint256",
          "name": "deposited",
          "type": "uint256"
        },
        {
          "internalType": "uint256",
          "name": "redeemed",
          "type": "uint256"
        },
        {
          "internalType": "uint256",
          "name": "timeOfLastUpdate",
          "type": "uint256"
        },
        {
          "internalType": "uint256",
          "name": "lastDepositTime",
          "type": "uint256"
        },
        {
          "internalType": "uint256",
          "name": "unclaimedRewards",
          "type": "uint256"
        },
        {
          "internalType": "uint256",
          "name": "timelock",
          "type": "uint256"
        },
        {
          "internalType": "uint8",
          "name": "timelockCategory",
          "type": "uint8"
        }
      ],
      "stateMutability": "view",
      "type": "function"
    },
    {
      "inputs": [
        {
          "internalType": "address",
          "name": "",
          "type": "address"
        },
        {
          "internalType": "uint256",
          "name": "",
          "type": "uint256"
        }
      ],
      "name": "userDepositsIds",
      "outputs": [
        {
          "internalType": "uint256",
          "name": "",
          "type": "uint256"
        }
      ],
      "stateMutability": "view",
      "type": "function"
    },
    {
      "inputs": [
        {
          "internalType": "uint256",
          "name": "_amount",
          "type": "uint256"
        },
        {
          "internalType": "uint256",
          "name": "_depositId",
          "type": "uint256"
        }
      ],
      "name": "withdraw",
      "outputs": [],
      "stateMutability": "nonpayable",
      "type": "function"
    },
    {
      "inputs": [
        {
          "internalType": "uint256",
          "name": "_amount",
          "type": "uint256"
        },
        {
          "internalType": "uint256",
          "name": "_depositId",
          "type": "uint256"
        }
      ],
      "name": "withdrawAndClaim",
      "outputs": [],
      "stateMutability": "nonpayable",
      "type": "function"
    },
    {
      "inputs": [
        {
          "internalType": "address",
          "name": "",
          "type": "address"
        }
      ],
      "name": "withdrawalFeeDivisorERC20",
      "outputs": [
        {
          "internalType": "uint256",
          "name": "",
          "type": "uint256"
        }
      ],
      "stateMutability": "view",
      "type": "function"
    },
    {
      "inputs": [
        {
          "internalType": "address",
          "name": "",
          "type": "address"
        }
      ],
      "name": "withdrawalFeeERC20",
      "outputs": [
        {
          "internalType": "uint256",
          "name": "",
          "type": "uint256"
        }
      ],
      "stateMutability": "view",
      "type": "function"
    }
  ],
  "transactionHash": "0xf686caf6ca121f444b90fcf31b3333ef09549082f1541d03f41f47531fbd75c8",
  "args": [
    "0x685a13093cA561F531c93185B942a3f33385e14E",
    "0x9e05f4e1925De5D7C9C361CbE2D96360E788b355",
    "0x9A047eACE5BBd63443E164cB74CEf20952A62cDa",
    "0x434fD7FEEc752c4BfA4a59d0272c503ffD313499",
    "0x8CBC04668981e3f7901D46CB56611611545B7A6D",
    "0xbe065Ab921a46187b4e438B9eD06fA427e2D9Ca3"
  ],
  "numDeployments": 2,
  "solcInputHash": "4f28460fd693f9f7e3784279e37c0e00",
  "bytecode": "0x60806040523480156200001157600080fd5b5060405162004ef138038062004ef1833981016040819052620000349162000e70565b856001600160a01b038116620000915760405162461bcd60e51b815260206004820181905260248201527f417574686f726974792063616e6e6f74206265207a65726f206164647265737360448201526064015b60405180910390fd5b600080546001600160a01b0319166001600160a01b0383169081179091556040519081527f2f658b440c35314f52658ea8a740e05b284cdc84dc9ae01e891f21b8933e7cad9060200160405180910390a1506001600160a01b0385166200013b5760405162461bcd60e51b815260206004820152601f60248201527f4b6f6e6475782045524332302061646472657373206973206e6f742073657400604482015260640162000088565b6001600160a01b038416620001935760405162461bcd60e51b815260206004820152601b60248201527f54726561737572792061646472657373206973206e6f74207365740000000000604482015260640162000088565b6001600160a01b038316620001fd5760405162461bcd60e51b815260206004820152602960248201527f4b6f6e6475782045524337323120466f756e64657273206164647265737320696044820152681cc81b9bdd081cd95d60ba1b606482015260840162000088565b6001600160a01b038216620002635760405162461bcd60e51b815260206004820152602560248201527f4b6f6e64757820455243373231206b4e46542061646472657373206973206e6f6044820152641d081cd95d60da1b606482015260840162000088565b6001600160a01b038116620002bb5760405162461bcd60e51b815260206004820152601e60248201527f48656c69782045524332302061646472657373206973206e6f74207365740000604482015260640162000088565b601380546001600160a01b038086166001600160a01b03199283161790925560148054858416908316179055601280548484169083161790556015805492871692909116919091179055620003146298968086620003b2565b62000323629896808662000402565b62000332629896808662000452565b62000341620186a086620004a2565b6200035062a7d8c0866200056c565b6200035f6207a12086620005bc565b6200036e62989680866200060c565b6200037c61011d866200065c565b6200038b6201518086620006ac565b6200039961271086620006fc565b620003a68560016200074c565b50505050505062000f30565b620003bc62000d88565b6001600160a01b0381166000818152600a60205260408082208590555184917f3bdd25ee6c72097873ae6536b32d2c78439a093fa54f9091c324f0a2140a880291a35050565b6200040c62000d88565b6001600160a01b0381166000818152600c60205260408082208590555184917fe0e7eacc628163b5a3362ddd2e66b5c7f729ed892e22b82931952c274f22a95191a35050565b6200045c62000d88565b6001600160a01b0381166000818152600e60205260408082208590555184917f583cc649b350d69beed18d7047064d367c82831d16e65d08ff74b549dff2d0ec91a35050565b620004ac62000d88565b6001600160a01b0381166000908152600a6020526040902054821115620005265760405162461bcd60e51b815260206004820152602760248201527f5769746864726177616c206665652063616e6e6f74206265206d6f7265207468604482015266616e203130302560c81b606482015260840162000088565b6001600160a01b0381166000818152600960205260408082208590555184917f5d5169bb1fbf418e612b1934f181b6ce300a1aad27fdb0e6f6aadbd96f50bb8f91a35050565b6200057662000d88565b6001600160a01b0381166000818152600b60205260408082208590555184917f1677c34b69a09796446af7a4c75943a1bb36202c16eb82199ef7d37d0ee4b28891a35050565b620005c662000d88565b6001600160a01b0381166000818152600d60205260408082208590555184917f11ef1060a695a1277b08edcbb2c364d43d4eb52f1060daaabf0df445cb6cdfdf91a35050565b6200061662000d88565b6001600160a01b0381166000818152600660205260408082208590555184917fef3cb734d88702dbb1c3bc381c52176876be95e70b66d3970d16653ee992a6c291a35050565b6200066662000d88565b6001600160a01b0381166000818152600860205260408082208590555184917f8803800ab9d24dc1e2a2ada0893efb7b8fc19c55fddd9512c239b276e7f532fd91a35050565b620006b662000d88565b6001600160a01b0381166000818152600760205260408082208590555184917fd0d3d840363c3a773f4578f92d7914f6b37985570c79ee2889d69d7d8f12c29591a35050565b6200070662000d88565b6001600160a01b0381166000818152600f60205260408082208590555184917f62b574cc62ed3db0ae736cb4349346a234832cc8b215c6423fd67505addc2ffa91a35050565b6001600160a01b038216620007a45760405162461bcd60e51b815260206004820152601b60248201527f546f6b656e20616464726573732063616e6e6f74206265203078300000000000604482015260640162000088565b80151560010362000d34576001600160a01b038216600090815260086020526040902054620008265760405162461bcd60e51b815260206004820152602760248201527f526577617264732070657220686f7572206d75737420626520677265617465726044820152660207468616e20360cc1b606482015260840162000088565b6001600160a01b0382166000908152600760205260409020546200089f5760405162461bcd60e51b815260206004820152602960248201527f436f6d706f756e64206672657175656e6379206d75737420626520677265617460448201526806572207468616e20360bc1b606482015260840162000088565b6001600160a01b038216600090815260096020526040902054620009145760405162461bcd60e51b815260206004820152602560248201527f5769746864726177616c20666565206d75737420626520677265617465722074604482015264068616e20360dc1b606482015260840162000088565b6001600160a01b0382166000908152600a6020526040902054620009915760405162461bcd60e51b815260206004820152602d60248201527f5769746864726177616c206665652064697669736f72206d757374206265206760448201526c0726561746572207468616e203609c1b606482015260840162000088565b6001600160a01b0382166000908152600b602052604090205462000a0d5760405162461bcd60e51b815260206004820152602c60248201527f466f756e646572732072657761726420626f6f7374206d75737420626520677260448201526b06561746572207468616e20360a41b606482015260840162000088565b6001600160a01b0382166000908152600c602052604090205462000a9a5760405162461bcd60e51b815260206004820152603460248201527f466f756e646572732072657761726420626f6f73742064697669736f72206d7560448201527f73742062652067726561746572207468616e2030000000000000000000000000606482015260840162000088565b6001600160a01b0382166000908152600d602052604090205462000b125760405162461bcd60e51b815260206004820152602860248201527f6b4e46542072657761726420626f6f7374206d75737420626520677265617465604482015267072207468616e20360c41b606482015260840162000088565b6001600160a01b0382166000908152600e602052604090205462000b925760405162461bcd60e51b815260206004820152603060248201527f6b4e46542072657761726420626f6f73742064697669736f72206d757374206260448201526f0652067726561746572207468616e20360841b606482015260840162000088565b6001600160a01b0382166000908152600f602052604090205462000bf95760405162461bcd60e51b815260206004820152601c60248201527f526174696f206d7573742062652067726561746572207468616e203000000000604482015260640162000088565b6001600160a01b03821660009081526006602052604090205462000c6c5760405162461bcd60e51b8152602060048201526024808201527f4d696e696d756d207374616b65206d75737420626520677265617465722074686044820152630616e20360e41b606482015260840162000088565b6000826001600160a01b03166318160ddd6040518163ffffffff1660e01b8152600401602060405180830381865afa15801562000cad573d6000803e3d6000fd5b505050506040513d601f19601f8201168201806040525081019062000cd3919062000ef1565b1162000d345760405162461bcd60e51b815260206004820152602960248201527f546f6b656e20746f74616c20737570706c79206d75737420626520677265617460448201526806572207468616e20360bc1b606482015260840162000088565b6001600160a01b038216600081815260056020526040808220805460ff191685151590811790915590519092917f59261974a183535ca20bb33ae77db42c679a079844739a2e10f0b6ecb847379a91a35050565b60008054906101000a90046001600160a01b03166001600160a01b0316630c340a246040518163ffffffff1660e01b8152600401602060405180830381865afa15801562000dda573d6000803e3d6000fd5b505050506040513d601f19601f8201168201806040525081019062000e00919062000f0b565b6001600160a01b0316336001600160a01b03161462000e515760405162461bcd60e51b815260206004820152600c60248201526b15539055551213d49256915160a21b604482015260640162000088565b565b80516001600160a01b038116811462000e6b57600080fd5b919050565b60008060008060008060c0878903121562000e8a57600080fd5b62000e958762000e53565b955062000ea56020880162000e53565b945062000eb56040880162000e53565b935062000ec56060880162000e53565b925062000ed56080880162000e53565b915062000ee560a0880162000e53565b90509295509295509295565b60006020828403121562000f0457600080fd5b5051919050565b60006020828403121562000f1e57600080fd5b62000f298262000e53565b9392505050565b613fb18062000f406000396000f3fe608060405234801561001057600080fd5b50600436106103af5760003560e01c806378e2816b116101f4578063c39ccf881161011a578063dd2a8b11116100ad578063f0f442601161007c578063f0f44260146109ed578063f16b41f414610a00578063fa2176b614610abb578063fe1686b814610ae457600080fd5b8063dd2a8b1114610968578063e37d47e414610991578063e519cf17146109a4578063ea425a6d146109cd57600080fd5b8063cf717c8c116100e9578063cf717c8c1461092f578063cfb656a514610942578063d55111c514610955578063d9831a72146105ae57600080fd5b8063c39ccf8814610894578063c4c3a83e146108bd578063c5ebc2f7146108e6578063cd5f5a391461090657600080fd5b8063a55dfa1c11610192578063ba57714811610161578063ba57714814610848578063beb8314c1461085b578063bf7e214f1461086e578063bf811fbc1461088157600080fd5b8063a55dfa1c146107ef578063a9b2940714610802578063b54b9c8814610815578063b9c94b671461083557600080fd5b806387eebaea116101ce57806387eebaea1461079657806396ca0b00146107a95780639bfd8d61146107bc578063a13d5079146107dc57600080fd5b806378e2816b1461075d5780637a9e5e4b146107705780637bf7f3d31461078357600080fd5b80634715f40c116102d9578063580e26a11161027757806361d027b31161024657806361d027b3146106ea5780636aa421b7146106fd5780636f3a49881461071d57806372aa9d911461073d57600080fd5b8063580e26a11461065d57806359b0e590146106905780635a5392be146106b457806361316cb0146106d757600080fd5b80635328c2bf116102b35780635328c2bf146105c15780635385689c146105e9578063546f2b66146106145780635722dee01461063457600080fd5b80634715f40c146105725780634774dc931461059b5780634cae76e5146105ae57600080fd5b80631f6514db116103515780633a46a46d116103205780633a46a46d14610519578063404d221a14610539578063441a3e701461054c5780634477c9741461055f57600080fd5b80631f6514db1461049b57806328c964f6146104ae57806331aab0f7146104ce57806338c26d18146104e157600080fd5b806310b184381161038d57806310b184381461041c578063171f9ce41461043f5780631d034513146104525780631e78e9a21461047b57600080fd5b806301984892146103b4578063038182a0146103e75780630962ef7914610407575b600080fd5b6103d46103c2366004613c0e565b60026020526000908152604090205481565b6040519081526020015b60405180910390f35b6103d46103f5366004613c0e565b600a6020526000908152604090205481565b61041a610415366004613c2b565b610b1e565b005b6103d461042a366004613c2b565b60009081526004602052604090206007015490565b61041a61044d366004613c44565b610e89565b6103d4610460366004613c0e565b6001600160a01b031660009081526008602052604090205490565b6103d4610489366004613c0e565b600d6020526000908152604090205481565b61041a6104a9366004613c44565b610ed7565b6103d46104bc366004613c0e565b600e6020526000908152604090205481565b61041a6104dc366004613c74565b610f25565b6105076104ef366004613c2b565b60009081526004602052604090206008015460ff1690565b60405160ff90911681526020016103de565b6103d4610527366004613c0e565b600f6020526000908152604090205481565b61041a610547366004613c44565b611499565b61041a61055a366004613cef565b6114e7565b61041a61056d366004613c2b565b611eaa565b6103d4610580366004613c0e565b6001600160a01b03166000908152600b602052604090205490565b6103d46105a9366004613d11565b6120ea565b61041a6105bc366004613c44565b61279a565b6105d46105cf366004613c2b565b6127e8565b604080519283526020830191909152016103de565b6014546105fc906001600160a01b031681565b6040516001600160a01b0390911681526020016103de565b6103d4610622366004613c0e565b600b6020526000908152604090205481565b6103d4610642366004613c0e565b6001600160a01b031660009081526009602052604090205490565b61068061066b366004613c0e565b60056020526000908152604090205460ff1681565b60405190151581526020016103de565b6103d461069e366004613c2b565b6000908152600460208190526040909120015490565b6103d46106c2366004613c2b565b60009081526004602052604090206002015490565b61041a6106e5366004613c44565b61281f565b6015546105fc906001600160a01b031681565b6103d461070b366004613c0e565b600c6020526000908152604090205481565b6103d461072b366004613c0e565b60086020526000908152604090205481565b6103d461074b366004613c0e565b60066020526000908152604090205481565b61041a61076b366004613c0e565b61286d565b61041a61077e366004613c0e565b612915565b61041a610791366004613d67565b612971565b61041a6107a4366004613cef565b612987565b61041a6107b7366004613c44565b61299a565b6103d46107ca366004613c0e565b60106020526000908152604090205481565b61041a6107ea366004613c44565b6129e8565b6103d46107fd366004613c2b565b612a36565b6012546105fc906001600160a01b031681565b6103d4610823366004613c0e565b60096020526000908152604090205481565b61041a610843366004613c44565b612aca565b6103d4610856366004613d95565b612b18565b6103d4610869366004613d95565b612b49565b6000546105fc906001600160a01b031681565b61041a61088f366004613c0e565b612ebd565b6103d46108a2366004613c0e565b6001600160a01b031660009081526006602052604090205490565b6103d46108cb366004613c0e565b6001600160a01b03166000908152600c602052604090205490565b6108f96108f4366004613c0e565b612f65565b6040516103de9190613dc1565b6103d4610914366004613c0e565b6001600160a01b03166000908152600a602052604090205490565b61041a61093d366004613c44565b612fd1565b61041a610950366004613c0e565b6130ad565b6013546105fc906001600160a01b031681565b6103d4610976366004613c0e565b6001600160a01b031660009081526010602052604090205490565b61041a61099f366004613c44565b613155565b6103d46109b2366004613c0e565b6001600160a01b03166000908152600d602052604090205490565b6103d46109db366004613c0e565b60076020526000908152604090205481565b61041a6109fb366004613c0e565b6131a3565b610a69610a0e366004613c2b565b60046020819052600091825260409091208054600182015460028301546003840154948401546005850154600686015460078701546008909701546001600160a01b0396871698959096169693959293919290919060ff1689565b604080516001600160a01b039a8b1681529990981660208a0152968801959095526060870193909352608086019190915260a085015260c084015260e083015260ff16610100820152610120016103de565b6103d4610ac9366004613c0e565b6001600160a01b03166000908152600e602052604090205490565b6103d4610af2366004613e05565b6001600160a01b0380821660009081526011602090815260408083209386168352929052205492915050565b6000818152600460205260409020600101546001600160a01b03163314610b9a5760405162461bcd60e51b815260206004820152602560248201527f596f7520617265206e6f7420746865206f776e6572206f6620746869732064656044820152641c1bdcda5d60da1b60648201526084015b60405180910390fd5b600081815260046020526040902060070154421015610bfb5760405162461bcd60e51b815260206004820152601360248201527f54696d656c6f636b206e6f7420706173736564000000000000000000000000006044820152606401610b91565b600081815260046020526040812060060154610c173384612b49565b610c219190613e49565b905060008111610c735760405162461bcd60e51b815260206004820152601360248201527f596f752068617665206e6f2072657761726473000000000000000000000000006044820152606401610b91565b600082815260046020818152604080842060068101859055429381019390935560125492546001600160a01b039081168552600f90925290922054911690639dc29fac903390610cc39085613e5c565b6040516001600160e01b031960e085901b1681526001600160a01b0390921660048301526024820152604401600060405180830381600087803b158015610d0957600080fd5b505af1158015610d1d573d6000803e3d6000fd5b5050506000838152600460208181526040808420549354815163fbfa77cf60e01b815291516001600160a01b03958616965086956323b872dd9592169363fbfa77cf9380840193919291908290030181865afa158015610d81573d6000803e3d6000fd5b505050506040513d601f19601f82011682018060405250810190610da59190613e73565b6000868152600460209081526040808320546001600160a01b03168352600f9091529020543390610dd69087613e90565b6040516001600160e01b031960e086901b1681526001600160a01b03938416600482015292909116602483015260448201526064016020604051808303816000875af1158015610e2a573d6000803e3d6000fd5b505050506040513d601f19601f82011682018060405250810190610e4e9190613eb2565b5060405182815233907f619caafabdd75649b302ba8419e48cccf64f37f1983ac4727cfb38b57703ffc99060200160405180910390a2505050565b610e9161324b565b6001600160a01b0381166000818152600f60205260408082208590555184917f62b574cc62ed3db0ae736cb4349346a234832cc8b215c6423fd67505addc2ffa91a35050565b610edf61324b565b6001600160a01b0381166000818152600b60205260408082208590555184917f1677c34b69a09796446af7a4c75943a1bb36202c16eb82199ef7d37d0ee4b28891a35050565b610f2d61324b565b6001600160a01b038b16610f835760405162461bcd60e51b815260206004820152601b60248201527f546f6b656e20616464726573732063616e6e6f742062652030783000000000006044820152606401610b91565b60008a11610fe35760405162461bcd60e51b815260206004820152602760248201527f526577617264732070657220686f7572206d75737420626520677265617465726044820152660207468616e20360cc1b6064820152608401610b91565b600089116110455760405162461bcd60e51b815260206004820152602960248201527f436f6d706f756e64206672657175656e6379206d75737420626520677265617460448201526806572207468616e20360bc1b6064820152608401610b91565b600088116110a35760405162461bcd60e51b815260206004820152602560248201527f5769746864726177616c20666565206d75737420626520677265617465722074604482015264068616e20360dc1b6064820152608401610b91565b600087116111095760405162461bcd60e51b815260206004820152602d60248201527f5769746864726177616c206665652064697669736f72206d757374206265206760448201526c0726561746572207468616e203609c1b6064820152608401610b91565b6000861161116e5760405162461bcd60e51b815260206004820152602c60248201527f466f756e646572732072657761726420626f6f7374206d75737420626520677260448201526b06561746572207468616e20360a41b6064820152608401610b91565b600085116111e45760405162461bcd60e51b815260206004820152603460248201527f466f756e646572732072657761726420626f6f73742064697669736f72206d7560448201527f73742062652067726561746572207468616e20300000000000000000000000006064820152608401610b91565b600084116112455760405162461bcd60e51b815260206004820152602860248201527f6b4e46542072657761726420626f6f7374206d75737420626520677265617465604482015267072207468616e20360c41b6064820152608401610b91565b600083116112ae5760405162461bcd60e51b815260206004820152603060248201527f6b4e46542072657761726420626f6f73742064697669736f72206d757374206260448201526f0652067726561746572207468616e20360841b6064820152608401610b91565b600082116112fe5760405162461bcd60e51b815260206004820152601c60248201527f526174696f206d7573742062652067726561746572207468616e2030000000006044820152606401610b91565b6000811161135a5760405162461bcd60e51b8152602060048201526024808201527f4d696e696d756d207374616b65206d75737420626520677265617465722074686044820152630616e20360e41b6064820152608401610b91565b60008b6001600160a01b03166318160ddd6040518163ffffffff1660e01b8152600401602060405180830381865afa15801561139a573d6000803e3d6000fd5b505050506040513d601f19601f820116820180604052508101906113be9190613ecf565b1161141d5760405162461bcd60e51b815260206004820152602960248201527f546f6b656e20746f74616c20737570706c79206d75737420626520677265617460448201526806572207468616e20360bc1b6064820152608401610b91565b611427878c61281f565b611431858c612aca565b61143b838c61299a565b611445868c610ed7565b61144f848c6129e8565b6114598a8c61279a565b611463828c610e89565b61146d888c612fd1565b611477898c613155565b611481818c611499565b61148c8b6001613322565b5050505050505050505050565b6114a161324b565b6001600160a01b0381166000818152600660205260408082208590555184917fef3cb734d88702dbb1c3bc381c52176876be95e70b66d3970d16653ee992a6c291a35050565b6000818152600460205260409020600701544210156115485760405162461bcd60e51b815260206004820152601360248201527f54696d656c6f636b206e6f7420706173736564000000000000000000000000006044820152606401610b91565b6000818152600460205260409020600101546001600160a01b031633146115bf5760405162461bcd60e51b815260206004820152602560248201527f596f7520617265206e6f7420746865206f776e6572206f6620746869732064656044820152641c1bdcda5d60da1b6064820152608401610b91565b60008181526004602052604090206002015482111561162a5760405162461bcd60e51b815260206004820152602160248201527f43616e2774207769746864726177206d6f7265207468616e20796f75206861766044820152606560f81b6064820152608401610b91565b6012546040516370a0823160e01b81523360048201526001600160a01b03909116906370a0823190602401602060405180830381865afa158015611672573d6000803e3d6000fd5b505050506040513d601f19601f820116820180604052508101906116969190613ecf565b82111561170b5760405162461bcd60e51b815260206004820152603760248201527f43616e2774207769746864726177206d6f726520746f6b656e73207468616e2060448201527f74686520636f6c6c61746572616c20796f7520686176650000000000000000006064820152608401610b91565b60006117173383612b49565b90508260046000848152602001908152602001600020600201600082825461173f9190613ee8565b9091555050600082815260046020819052604082204291810191909155600601805483929061176f908490613e49565b90915550506000828152600460209081526040808320546001600160a01b03168352600a8083528184205460098452918420549252906117af9082613ee8565b6117b99086613e5c565b6117c39190613e90565b90506118046040518060400160405280600a81526020017f4c69717569643a2025730000000000000000000000000000000000000000000081525082613942565b60008381526004602081815260408084205481518083018352601181527f5661756c742062616c616e63653a202573000000000000000000000000000000818501529454825163fbfa77cf60e01b815292516001600160a01b039283169661192b96909588956370a08231959094169363fbfa77cf938184019390918290030181865afa158015611899573d6000803e3d6000fd5b505050506040513d601f19601f820116820180604052508101906118bd9190613e73565b6040516001600160e01b031960e084901b1681526001600160a01b0390911660048201526024015b602060405180830381865afa158015611902573d6000803e3d6000fd5b505050506040513d601f19601f820116820180604052508101906119269190613ecf565b613942565b6119de6040518060400160405280601181526020017f5661756c7420616464726573733a20257300000000000000000000000000000081525060008054906101000a90046001600160a01b03166001600160a01b031663fbfa77cf6040518163ffffffff1660e01b8152600401602060405180830381865afa1580156119b5573d6000803e3d6000fd5b505050506040513d601f19601f820116820180604052508101906119d99190613e73565b61399c565b611a1d6040518060400160405280601181526020017f455243323020616464726573733a2025730000000000000000000000000000008152508261399c565b611b0e6040518060400160405280601381526020017f455243323020616c6c6f77616e63653a20257300000000000000000000000000815250826001600160a01b031663dd62ed3e3360008054906101000a90046001600160a01b03166001600160a01b031663fbfa77cf6040518163ffffffff1660e01b8152600401602060405180830381865afa158015611ab7573d6000803e3d6000fd5b505050506040513d601f19601f82011682018060405250810190611adb9190613e73565b6040516001600160e01b031960e085901b1681526001600160a01b039283166004820152911660248201526044016118e5565b81816001600160a01b031663dd62ed3e60008054906101000a90046001600160a01b03166001600160a01b031663fbfa77cf6040518163ffffffff1660e01b8152600401602060405180830381865afa158015611b6f573d6000803e3d6000fd5b505050506040513d601f19601f82011682018060405250810190611b939190613e73565b6040516001600160e01b031960e084901b1681526001600160a01b039091166004820152306024820152604401602060405180830381865afa158015611bdd573d6000803e3d6000fd5b505050506040513d601f19601f82011682018060405250810190611c019190613ecf565b1015611ca65760405162461bcd60e51b815260206004820152606260248201527f547265617375727920436f6e7472616374206e65656420746f20617070726f7660448201527f65205374616b696e6720436f6e747261637420746f207769746864726177207960648201527f6f757220746f6b656e73202d2d20706c656173652063616c6c20616e2041646d60848201526134b760f11b60a482015260c401610b91565b60008481526004602052604090208054600190910154611cd49187916001600160a01b0391821691166139f6565b6012546000858152600460209081526040808320546001600160a01b039081168452600f90925290912054911690639dc29fac903390611d149089613e5c565b6040516001600160e01b031960e085901b1681526001600160a01b0390921660048301526024820152604401600060405180830381600087803b158015611d5a57600080fd5b505af1158015611d6e573d6000803e3d6000fd5b50505050806001600160a01b03166323b872dd60008054906101000a90046001600160a01b03166001600160a01b031663fbfa77cf6040518163ffffffff1660e01b8152600401602060405180830381865afa158015611dd2573d6000803e3d6000fd5b505050506040513d601f19601f82011682018060405250810190611df69190613e73565b6040516001600160e01b031960e084901b1681526001600160a01b039091166004820152336024820152604481018590526064016020604051808303816000875af1158015611e49573d6000803e3d6000fd5b505050506040513d601f19601f82011682018060405250810190611e6d9190613eb2565b5060405182815233907f884edad9ce6fa2440d8a54cc123490eb96d2768479d49ff9c7366125a94243649060200160405180910390a25050505050565b6000818152600460205260409020600101546001600160a01b03163314611f215760405162461bcd60e51b815260206004820152602560248201527f596f7520617265206e6f7420746865206f776e6572206f6620746869732064656044820152641c1bdcda5d60da1b6064820152608401610b91565b611f2a81612a36565b15611f825760405162461bcd60e51b815260206004820152602260248201527f547269656420746f20636f6d706f756e64207265776172647320746f6f20736f60448201526137b760f11b6064820152608401610b91565b600081815260046020526040812060060154611f9e3384612b49565b611fa89190613e49565b60008381526004602052604081206006810182905560020180549293508392909190611fd5908490613e49565b90915550506000828152600460208190526040909120429181019190915580546001909101546120139183916001600160a01b039182169116613b71565b6012546000838152600460209081526040808320546001600160a01b039081168452600f909252909120549116906340c10f199033906120539085613e5c565b6040516001600160e01b031960e085901b1681526001600160a01b0390921660048301526024820152604401600060405180830381600087803b15801561209957600080fd5b505af11580156120ad573d6000803e3d6000fd5b50506040518381523392507f169f1815ebdea059aac3bb00ec9a9594c7a5ffcb64a17e8392b5d84909a14556915060200160405180910390a25050565b6001600160a01b03811660009081526005602052604081205460ff166121525760405162461bcd60e51b815260206004820152601460248201527f546f6b656e206e6f7420617574686f72697a65640000000000000000000000006044820152606401610b91565b6001600160a01b0382166000908152600660205260409020548410156121c85760405162461bcd60e51b815260206004820152602560248201527f416d6f756e7420736d616c6c6572207468616e206d696e696d696d756d2064656044820152641c1bdcda5d60da1b6064820152608401610b91565b6040516370a0823160e01b8152336004820152829085906001600160a01b038316906370a0823190602401602060405180830381865afa158015612210573d6000803e3d6000fd5b505050506040513d601f19601f820116820180604052508101906122349190613ecf565b10156122825760405162461bcd60e51b815260206004820152601d60248201527f43616e2774207374616b65206d6f7265207468616e20796f75206f776e0000006044820152606401610b91565b604051636eb1769f60e11b815233600482015230602482015285906001600160a01b0383169063dd62ed3e90604401602060405180830381865afa1580156122ce573d6000803e3d6000fd5b505050506040513d601f19601f820116820180604052508101906122f29190613ecf565b10156123405760405162461bcd60e51b815260206004820152601160248201527f416c6c6f77616e6365206e6f74207365740000000000000000000000000000006044820152606401610b91565b60048460ff1611156123945760405162461bcd60e51b815260206004820152601060248201527f496e76616c69642074696d656c6f636b000000000000000000000000000000006044820152606401610b91565b600061239f60015490565b9050604051806101200160405280856001600160a01b03168152602001336001600160a01b031681526020018781526020016000815260200142815260200142815260200160008152602001600081526020018660ff168152506004600083815260200190815260200160002060008201518160000160006101000a8154816001600160a01b0302191690836001600160a01b0316021790555060208201518160010160006101000a8154816001600160a01b0302191690836001600160a01b0316021790555060408201518160020155606082015181600301556080820151816004015560a0820151816005015560c0820151816006015560e082015181600701556101008201518160080160006101000a81548160ff021916908360ff160217905550905050600060048111156124da576124da613efb565b60ff168560ff160361250a576124f34262278d00613e49565b600082815260046020526040902060070155612580565b60001960ff861601612523576124f3426276a700613e49565b60011960ff86160161253c576124f34262ed4e00613e49565b60021960ff861601612556576124f3426301e13380613e49565b60031960ff8616016125805761256d426078613e49565b6000828152600460205260409020600701555b336000818152600360209081526040822080546001810182559083529120018290556125af9087908690613b71565b816001600160a01b03166323b872dd3360008054906101000a90046001600160a01b03166001600160a01b031663fbfa77cf6040518163ffffffff1660e01b8152600401602060405180830381865afa158015612610573d6000803e3d6000fd5b505050506040513d601f19601f820116820180604052508101906126349190613e73565b6040516001600160e01b031960e085901b1681526001600160a01b03928316600482015291166024820152604481018990526064016020604051808303816000875af1158015612688573d6000803e3d6000fd5b505050506040513d601f19601f820116820180604052508101906126ac9190613eb2565b506012546001600160a01b038581166000908152600f60205260409020549116906340c10f199033906126df908a613e5c565b6040516001600160e01b031960e085901b1681526001600160a01b0390921660048301526024820152604401600060405180830381600087803b15801561272557600080fd5b505af1158015612739573d6000803e3d6000fd5b5050505061274b600180546001019055565b604080516001600160a01b038616815260208101889052339183917ff7373f56c201647feae85a62d3cf56286ed3a43d20c5eb7f9883d6ea690ef7c0910160405180910390a395945050505050565b6127a261324b565b6001600160a01b0381166000818152600860205260408082208590555184917f8803800ab9d24dc1e2a2ada0893efb7b8fc19c55fddd9512c239b276e7f532fd91a35050565b6000818152600460205260408120600281015460069091015490919061280e3385612b49565b6128189190613e49565b9050915091565b61282761324b565b6001600160a01b0381166000818152600a60205260408082208590555184917f3bdd25ee6c72097873ae6536b32d2c78439a093fa54f9091c324f0a2140a880291a35050565b61287561324b565b6001600160a01b0381166128cb5760405162461bcd60e51b815260206004820152601e60248201527f466f756e6465727320616464726573732063616e6e6f742062652030783000006044820152606401610b91565b601380546001600160a01b0319166001600160a01b0383169081179091556040517f23008753c65029d55e051a14341d50cf19b808653ba432a5faeb07bd7865e25b90600090a250565b61291d61324b565b600080546001600160a01b0319166001600160a01b0383169081179091556040519081527f2f658b440c35314f52658ea8a740e05b284cdc84dc9ae01e891f21b8933e7cad9060200160405180910390a150565b61297961324b565b6129838282613322565b5050565b61299182826114e7565b61298381610b1e565b6129a261324b565b6001600160a01b0381166000818152600e60205260408082208590555184917f583cc649b350d69beed18d7047064d367c82831d16e65d08ff74b549dff2d0ec91a35050565b6129f061324b565b6001600160a01b0381166000818152600d60205260408082208590555184917f11ef1060a695a1277b08edcbb2c364d43d4eb52f1060daaabf0df445cb6cdfdf91a35050565b600081815260046020818152604080842080546001600160a01b03168552600783529084205485855291839052909101544291612a7291613e49565b11612a7f57506000919050565b600082815260046020818152604080842080546001600160a01b031685526007835290842054938690529082905201544291612aba91613e49565b612ac49190613ee8565b92915050565b612ad261324b565b6001600160a01b0381166000818152600c60205260408082208590555184917fe0e7eacc628163b5a3362ddd2e66b5c7f729ed892e22b82931952c274f22a95191a35050565b60036020528160005260406000208181548110612b3457600080fd5b90600052602060002001600091509150505481565b6000818152600460205260408120600101546001600160a01b03848116911614612b7557506000612ac4565b600082815260046020818152604080842080546001600160a01b0316855260088352908420548685529183905260028101549201546298968092610e109291612bbe9042613ee8565b612bc89190613e5c565b612bd29190613e5c565b612bdc9190613e90565b612be69190613e90565b6013546040516370a0823160e01b81526001600160a01b038781166004830152929350600092909116906370a0823190602401602060405180830381865afa158015612c36573d6000803e3d6000fd5b505050506040513d601f19601f82011682018060405250810190612c5a9190613ecf565b1115612ca5576000838152600460209081526040808320546001600160a01b03168352600c825280832054600b90925290912054612c989083613e5c565b612ca29190613e90565b90505b6014546040516370a0823160e01b81526001600160a01b03868116600483015260009216906370a0823190602401602060405180830381865afa158015612cf0573d6000803e3d6000fd5b505050506040513d601f19601f82011682018060405250810190612d149190613ecf565b1115612e17576014546040516370a0823160e01b81526001600160a01b03868116600483015260009216906370a0823190602401602060405180830381865afa158015612d65573d6000803e3d6000fd5b505050506040513d601f19601f82011682018060405250810190612d899190613ecf565b90506005811115612d98575060055b6000848152600460209081526040808320546001600160a01b03168352600e825280832054600d90925290912054612dd09083613e5c565b6000868152600460209081526040808320546001600160a01b03168352600e909152902054612dff9190613e49565b612e099084613e5c565b612e139190613e90565b9150505b60008381526004602052604090206008015460ff16600103612e5357612710612e4282612774613e5c565b612e4c9190613e90565b9050612eb6565b60008381526004602052604090206008015460ff16600203612e7e57612710612e428261283c613e5c565b60008381526004602052604090206008015460ff16600303612eb657612710612ea982612a94613e5c565b612eb39190613e90565b90505b9392505050565b612ec561324b565b6001600160a01b038116612f1b5760405162461bcd60e51b815260206004820152601a60248201527f6b4e465420616464726573732063616e6e6f74206265203078300000000000006044820152606401610b91565b601480546001600160a01b0319166001600160a01b0383169081179091556040517fc8e08c5b2fa487609cdc92d5cfcc240f3c8fc73ac5e58fafc5d465d20aaaf31290600090a250565b6001600160a01b038116600090815260036020908152604091829020805483518184028101840190945280845260609392830182828015612fc557602002820191906000526020600020905b815481526020019060010190808311612fb1575b50505050509050919050565b612fd961324b565b6001600160a01b0381166000908152600a60205260409020548211156130675760405162461bcd60e51b815260206004820152602760248201527f5769746864726177616c206665652063616e6e6f74206265206d6f726520746860448201527f616e2031303025000000000000000000000000000000000000000000000000006064820152608401610b91565b6001600160a01b0381166000818152600960205260408082208590555184917f5d5169bb1fbf418e612b1934f181b6ce300a1aad27fdb0e6f6aadbd96f50bb8f91a35050565b6130b561324b565b6001600160a01b03811661310b5760405162461bcd60e51b815260206004820152601b60248201527f48656c697820616464726573732063616e6e6f742062652030783000000000006044820152606401610b91565b601280546001600160a01b0319166001600160a01b0383169081179091556040517fdcbeffeaf77a19486e34d4b5fc3809913d1e7125a43b8dcdb17944ab2c17579090600090a250565b61315d61324b565b6001600160a01b0381166000818152600760205260408082208590555184917fd0d3d840363c3a773f4578f92d7914f6b37985570c79ee2889d69d7d8f12c29591a35050565b6131ab61324b565b6001600160a01b0381166132015760405162461bcd60e51b815260206004820152601e60248201527f547265617375727920616464726573732063616e6e6f742062652030783000006044820152606401610b91565b601580546001600160a01b0319166001600160a01b0383169081179091556040517fafa147634b29e2c7bd53ce194256b9f41cfb9ba3036f2b822fdd1d965beea08690600090a250565b60008054906101000a90046001600160a01b03166001600160a01b0316630c340a246040518163ffffffff1660e01b8152600401602060405180830381865afa15801561329c573d6000803e3d6000fd5b505050506040513d601f19601f820116820180604052508101906132c09190613e73565b6001600160a01b0316336001600160a01b0316146133205760405162461bcd60e51b815260206004820152600c60248201527f554e415554484f52495a454400000000000000000000000000000000000000006044820152606401610b91565b565b6001600160a01b0382166133785760405162461bcd60e51b815260206004820152601b60248201527f546f6b656e20616464726573732063616e6e6f742062652030783000000000006044820152606401610b91565b8015156001036138ee576001600160a01b0382166000908152600860205260409020546133f75760405162461bcd60e51b815260206004820152602760248201527f526577617264732070657220686f7572206d75737420626520677265617465726044820152660207468616e20360cc1b6064820152608401610b91565b6001600160a01b03821660009081526007602052604090205461346e5760405162461bcd60e51b815260206004820152602960248201527f436f6d706f756e64206672657175656e6379206d75737420626520677265617460448201526806572207468616e20360bc1b6064820152608401610b91565b6001600160a01b0382166000908152600960205260409020546134e15760405162461bcd60e51b815260206004820152602560248201527f5769746864726177616c20666565206d75737420626520677265617465722074604482015264068616e20360dc1b6064820152608401610b91565b6001600160a01b0382166000908152600a602052604090205461355c5760405162461bcd60e51b815260206004820152602d60248201527f5769746864726177616c206665652064697669736f72206d757374206265206760448201526c0726561746572207468616e203609c1b6064820152608401610b91565b6001600160a01b0382166000908152600b60205260409020546135d65760405162461bcd60e51b815260206004820152602c60248201527f466f756e646572732072657761726420626f6f7374206d75737420626520677260448201526b06561746572207468616e20360a41b6064820152608401610b91565b6001600160a01b0382166000908152600c60205260409020546136615760405162461bcd60e51b815260206004820152603460248201527f466f756e646572732072657761726420626f6f73742064697669736f72206d7560448201527f73742062652067726561746572207468616e20300000000000000000000000006064820152608401610b91565b6001600160a01b0382166000908152600d60205260409020546136d75760405162461bcd60e51b815260206004820152602860248201527f6b4e46542072657761726420626f6f7374206d75737420626520677265617465604482015267072207468616e20360c41b6064820152608401610b91565b6001600160a01b0382166000908152600e60205260409020546137555760405162461bcd60e51b815260206004820152603060248201527f6b4e46542072657761726420626f6f73742064697669736f72206d757374206260448201526f0652067726561746572207468616e20360841b6064820152608401610b91565b6001600160a01b0382166000908152600f60205260409020546137ba5760405162461bcd60e51b815260206004820152601c60248201527f526174696f206d7573742062652067726561746572207468616e2030000000006044820152606401610b91565b6001600160a01b03821660009081526006602052604090205461382b5760405162461bcd60e51b8152602060048201526024808201527f4d696e696d756d207374616b65206d75737420626520677265617465722074686044820152630616e20360e41b6064820152608401610b91565b6000826001600160a01b03166318160ddd6040518163ffffffff1660e01b8152600401602060405180830381865afa15801561386b573d6000803e3d6000fd5b505050506040513d601f19601f8201168201806040525081019061388f9190613ecf565b116138ee5760405162461bcd60e51b815260206004820152602960248201527f546f6b656e20746f74616c20737570706c79206d75737420626520677265617460448201526806572207468616e20360bc1b6064820152608401610b91565b6001600160a01b038216600081815260056020526040808220805460ff191685151590811790915590519092917f59261974a183535ca20bb33ae77db42c679a079844739a2e10f0b6ecb847379a91a35050565b6129838282604051602401613958929190613f57565b60408051601f198184030181529190526020810180517bffffffffffffffffffffffffffffffffffffffffffffffffffffffff16632d839cb360e21b179052613bd5565b61298382826040516024016139b2929190613f79565b60408051601f198184030181529190526020810180517bffffffffffffffffffffffffffffffffffffffffffffffffffffffff1663319af33360e01b179052613bd5565b6001600160a01b038216600090815260106020526040902054831115613a845760405162461bcd60e51b815260206004820152602560248201527f5374616b696e673a204e6f7420656e6f756768207374616b65642028436f6e7460448201527f72616374290000000000000000000000000000000000000000000000000000006064820152608401610b91565b6001600160a01b03808316600090815260116020908152604080832093851683529290522054831115613b035760405162461bcd60e51b815260206004820152602160248201527f5374616b696e673a204e6f7420656e6f756768207374616b65642028557365726044820152602960f81b6064820152608401610b91565b6001600160a01b03821660009081526010602052604081208054859290613b2b908490613ee8565b90915550506001600160a01b03808316600090815260116020908152604080832093851683529290529081208054859290613b67908490613ee8565b9091555050505050565b6001600160a01b03821660009081526010602052604081208054859290613b99908490613e49565b90915550506001600160a01b03808316600090815260116020908152604080832093851683529290529081208054859290613b67908490613e49565b80516a636f6e736f6c652e6c6f67602083016000808483855afa5050505050565b6001600160a01b0381168114613c0b57600080fd5b50565b600060208284031215613c2057600080fd5b8135612eb681613bf6565b600060208284031215613c3d57600080fd5b5035919050565b60008060408385031215613c5757600080fd5b823591506020830135613c6981613bf6565b809150509250929050565b60008060008060008060008060008060006101608c8e031215613c9657600080fd5b8b35613ca181613bf6565b9d60208d01359d5060408d01359c60608101359c5060808101359b5060a08101359a5060c0810135995060e08101359850610100810135975061012081013596506101400135945092505050565b60008060408385031215613d0257600080fd5b50508035926020909101359150565b600080600060608486031215613d2657600080fd5b83359250602084013560ff81168114613d3e57600080fd5b91506040840135613d4e81613bf6565b809150509250925092565b8015158114613c0b57600080fd5b60008060408385031215613d7a57600080fd5b8235613d8581613bf6565b91506020830135613c6981613d59565b60008060408385031215613da857600080fd5b8235613db381613bf6565b946020939093013593505050565b6020808252825182820181905260009190848201906040850190845b81811015613df957835183529284019291840191600101613ddd565b50909695505050505050565b60008060408385031215613e1857600080fd5b8235613e2381613bf6565b91506020830135613c6981613bf6565b634e487b7160e01b600052601160045260246000fd5b80820180821115612ac457612ac4613e33565b8082028115828204841417612ac457612ac4613e33565b600060208284031215613e8557600080fd5b8151612eb681613bf6565b600082613ead57634e487b7160e01b600052601260045260246000fd5b500490565b600060208284031215613ec457600080fd5b8151612eb681613d59565b600060208284031215613ee157600080fd5b5051919050565b81810381811115612ac457612ac4613e33565b634e487b7160e01b600052602160045260246000fd5b6000815180845260005b81811015613f3757602081850181015186830182015201613f1b565b506000602082860101526020601f19601f83011685010191505092915050565b604081526000613f6a6040830185613f11565b90508260208301529392505050565b604081526000613f8c6040830185613f11565b90506001600160a01b0383166020830152939250505056fea164736f6c6343000811000a",
  "devdoc": {
    "kind": "dev",
    "methods": {},
    "version": 1
  },
  "userdoc": {
    "kind": "user",
    "methods": {},
    "version": 1
  },
  "storageLayout": {
    "storage": [
      {
        "astId": 2754,
        "contract": "contracts/Staking.sol:Staking",
        "label": "authority",
        "offset": 0,
        "slot": "0",
        "type": "t_contract(IAuthority)2670"
      },
      {
        "astId": 297,
        "contract": "contracts/Staking.sol:Staking",
        "label": "_depositIds",
        "offset": 0,
        "slot": "1",
        "type": "t_struct(Counter)199_storage"
      },
      {
        "astId": 326,
        "contract": "contracts/Staking.sol:Staking",
        "label": "name",
        "offset": 0,
        "slot": "2",
        "type": "t_mapping(t_address,t_uint256)"
      },
      {
        "astId": 331,
        "contract": "contracts/Staking.sol:Staking",
        "label": "userDepositsIds",
        "offset": 0,
        "slot": "3",
        "type": "t_mapping(t_address,t_array(t_uint256)dyn_storage)"
      },
      {
        "astId": 336,
        "contract": "contracts/Staking.sol:Staking",
        "label": "userDeposits",
        "offset": 0,
        "slot": "4",
        "type": "t_mapping(t_uint256,t_struct(Staker)316_storage)"
      },
      {
        "astId": 340,
        "contract": "contracts/Staking.sol:Staking",
        "label": "authorizedERC20",
        "offset": 0,
        "slot": "5",
        "type": "t_mapping(t_address,t_bool)"
      },
      {
        "astId": 344,
        "contract": "contracts/Staking.sol:Staking",
        "label": "minStakeERC20",
        "offset": 0,
        "slot": "6",
        "type": "t_mapping(t_address,t_uint256)"
      },
      {
        "astId": 348,
        "contract": "contracts/Staking.sol:Staking",
        "label": "compoundFreqERC20",
        "offset": 0,
        "slot": "7",
        "type": "t_mapping(t_address,t_uint256)"
      },
      {
        "astId": 352,
        "contract": "contracts/Staking.sol:Staking",
        "label": "rewardsPerHourERC20",
        "offset": 0,
        "slot": "8",
        "type": "t_mapping(t_address,t_uint256)"
      },
      {
        "astId": 356,
        "contract": "contracts/Staking.sol:Staking",
        "label": "withdrawalFeeERC20",
        "offset": 0,
        "slot": "9",
        "type": "t_mapping(t_address,t_uint256)"
      },
      {
        "astId": 360,
        "contract": "contracts/Staking.sol:Staking",
        "label": "withdrawalFeeDivisorERC20",
        "offset": 0,
        "slot": "10",
        "type": "t_mapping(t_address,t_uint256)"
      },
      {
        "astId": 364,
        "contract": "contracts/Staking.sol:Staking",
        "label": "foundersRewardBoostERC20",
        "offset": 0,
        "slot": "11",
        "type": "t_mapping(t_address,t_uint256)"
      },
      {
        "astId": 368,
        "contract": "contracts/Staking.sol:Staking",
        "label": "foundersRewardBoostDivisorERC20",
        "offset": 0,
        "slot": "12",
        "type": "t_mapping(t_address,t_uint256)"
      },
      {
        "astId": 372,
        "contract": "contracts/Staking.sol:Staking",
        "label": "kNFTRewardBoostERC20",
        "offset": 0,
        "slot": "13",
        "type": "t_mapping(t_address,t_uint256)"
      },
      {
        "astId": 376,
        "contract": "contracts/Staking.sol:Staking",
        "label": "kNFTRewardBoostDivisorERC20",
        "offset": 0,
        "slot": "14",
        "type": "t_mapping(t_address,t_uint256)"
      },
      {
        "astId": 380,
        "contract": "contracts/Staking.sol:Staking",
        "label": "ratioERC20",
        "offset": 0,
        "slot": "15",
        "type": "t_mapping(t_address,t_uint256)"
      },
      {
        "astId": 384,
        "contract": "contracts/Staking.sol:Staking",
        "label": "totalStaked",
        "offset": 0,
        "slot": "16",
        "type": "t_mapping(t_address,t_uint256)"
      },
      {
        "astId": 390,
        "contract": "contracts/Staking.sol:Staking",
        "label": "userTotalStakedByCoin",
        "offset": 0,
        "slot": "17",
        "type": "t_mapping(t_address,t_mapping(t_address,t_uint256))"
      },
      {
        "astId": 393,
        "contract": "contracts/Staking.sol:Staking",
        "label": "helixERC20",
        "offset": 0,
        "slot": "18",
        "type": "t_contract(IHelix)2708"
      },
      {
        "astId": 396,
        "contract": "contracts/Staking.sol:Staking",
        "label": "konduxERC721Founders",
        "offset": 0,
        "slot": "19",
        "type": "t_contract(IERC721)193"
      },
      {
        "astId": 399,
        "contract": "contracts/Staking.sol:Staking",
        "label": "konduxERC721kNFT",
        "offset": 0,
        "slot": "20",
        "type": "t_contract(IERC721)193"
      },
      {
        "astId": 402,
        "contract": "contracts/Staking.sol:Staking",
        "label": "treasury",
        "offset": 0,
        "slot": "21",
        "type": "t_contract(ITreasury)2742"
      }
    ],
    "types": {
      "t_address": {
        "encoding": "inplace",
        "label": "address",
        "numberOfBytes": "20"
      },
      "t_array(t_uint256)dyn_storage": {
        "base": "t_uint256",
        "encoding": "dynamic_array",
        "label": "uint256[]",
        "numberOfBytes": "32"
      },
      "t_bool": {
        "encoding": "inplace",
        "label": "bool",
        "numberOfBytes": "1"
      },
      "t_contract(IAuthority)2670": {
        "encoding": "inplace",
        "label": "contract IAuthority",
        "numberOfBytes": "20"
      },
      "t_contract(IERC721)193": {
        "encoding": "inplace",
        "label": "contract IERC721",
        "numberOfBytes": "20"
      },
      "t_contract(IHelix)2708": {
        "encoding": "inplace",
        "label": "contract IHelix",
        "numberOfBytes": "20"
      },
      "t_contract(ITreasury)2742": {
        "encoding": "inplace",
        "label": "contract ITreasury",
        "numberOfBytes": "20"
      },
      "t_mapping(t_address,t_array(t_uint256)dyn_storage)": {
        "encoding": "mapping",
        "key": "t_address",
        "label": "mapping(address => uint256[])",
        "numberOfBytes": "32",
        "value": "t_array(t_uint256)dyn_storage"
      },
      "t_mapping(t_address,t_bool)": {
        "encoding": "mapping",
        "key": "t_address",
        "label": "mapping(address => bool)",
        "numberOfBytes": "32",
        "value": "t_bool"
      },
      "t_mapping(t_address,t_mapping(t_address,t_uint256))": {
        "encoding": "mapping",
        "key": "t_address",
        "label": "mapping(address => mapping(address => uint256))",
        "numberOfBytes": "32",
        "value": "t_mapping(t_address,t_uint256)"
      },
      "t_mapping(t_address,t_uint256)": {
        "encoding": "mapping",
        "key": "t_address",
        "label": "mapping(address => uint256)",
        "numberOfBytes": "32",
        "value": "t_uint256"
      },
      "t_mapping(t_uint256,t_struct(Staker)316_storage)": {
        "encoding": "mapping",
        "key": "t_uint256",
        "label": "mapping(uint256 => struct Staking.Staker)",
        "numberOfBytes": "32",
        "value": "t_struct(Staker)316_storage"
      },
      "t_struct(Counter)199_storage": {
        "encoding": "inplace",
        "label": "struct Counters.Counter",
        "members": [
          {
            "astId": 198,
            "contract": "contracts/Staking.sol:Staking",
            "label": "_value",
            "offset": 0,
            "slot": "0",
            "type": "t_uint256"
          }
        ],
        "numberOfBytes": "32"
      },
      "t_struct(Staker)316_storage": {
        "encoding": "inplace",
        "label": "struct Staking.Staker",
        "members": [
          {
            "astId": 299,
            "contract": "contracts/Staking.sol:Staking",
            "label": "token",
            "offset": 0,
            "slot": "0",
            "type": "t_address"
          },
          {
            "astId": 301,
            "contract": "contracts/Staking.sol:Staking",
            "label": "staker",
            "offset": 0,
            "slot": "1",
            "type": "t_address"
          },
          {
            "astId": 303,
            "contract": "contracts/Staking.sol:Staking",
            "label": "deposited",
            "offset": 0,
            "slot": "2",
            "type": "t_uint256"
          },
          {
            "astId": 305,
            "contract": "contracts/Staking.sol:Staking",
            "label": "redeemed",
            "offset": 0,
            "slot": "3",
            "type": "t_uint256"
          },
          {
            "astId": 307,
            "contract": "contracts/Staking.sol:Staking",
            "label": "timeOfLastUpdate",
            "offset": 0,
            "slot": "4",
            "type": "t_uint256"
          },
          {
            "astId": 309,
            "contract": "contracts/Staking.sol:Staking",
            "label": "lastDepositTime",
            "offset": 0,
            "slot": "5",
            "type": "t_uint256"
          },
          {
            "astId": 311,
            "contract": "contracts/Staking.sol:Staking",
            "label": "unclaimedRewards",
            "offset": 0,
            "slot": "6",
            "type": "t_uint256"
          },
          {
            "astId": 313,
            "contract": "contracts/Staking.sol:Staking",
            "label": "timelock",
            "offset": 0,
            "slot": "7",
            "type": "t_uint256"
          },
          {
            "astId": 315,
            "contract": "contracts/Staking.sol:Staking",
            "label": "timelockCategory",
            "offset": 0,
            "slot": "8",
            "type": "t_uint8"
          }
        ],
        "numberOfBytes": "288"
      },
      "t_uint256": {
        "encoding": "inplace",
        "label": "uint256",
        "numberOfBytes": "32"
      },
      "t_uint8": {
        "encoding": "inplace",
        "label": "uint8",
        "numberOfBytes": "1"
      }
    }
  }
}