{
  "address": "0xd2D27a4a84C8B88aDA584c430aF6C77af3716e11",
  "abi": [
    {
      "inputs": [
        {
          "internalType": "address",
          "name": "_authority",
          "type": "address"
        },
        {
          "internalType": "address",
          "name": "_konduxERC20",
          "type": "address"
        },
        {
          "internalType": "address",
          "name": "_treasury",
          "type": "address"
        },
        {
          "internalType": "address",
          "name": "_konduxERC721Founders",
          "type": "address"
        },
        {
          "internalType": "address",
          "name": "_konduxERC721kNFT",
          "type": "address"
        },
        {
          "internalType": "address",
          "name": "_helixERC20",
          "type": "address"
        }
      ],
      "stateMutability": "nonpayable",
      "type": "constructor"
    },
    {
      "anonymous": false,
      "inputs": [
        {
          "indexed": false,
          "internalType": "contract IAuthority",
          "name": "authority",
          "type": "address"
        }
      ],
      "name": "AuthorityUpdated",
      "type": "event"
    },
    {
      "anonymous": false,
      "inputs": [
        {
          "indexed": true,
          "internalType": "address",
          "name": "staker",
          "type": "address"
        },
        {
          "indexed": false,
          "internalType": "uint256",
          "name": "amount",
          "type": "uint256"
        }
      ],
      "name": "Compound",
      "type": "event"
    },
    {
      "anonymous": false,
      "inputs": [
        {
          "indexed": true,
          "internalType": "uint256",
          "name": "amount",
          "type": "uint256"
        },
        {
          "indexed": true,
          "internalType": "address",
          "name": "token",
          "type": "address"
        }
      ],
      "name": "NewAPR",
      "type": "event"
    },
    {
      "anonymous": false,
      "inputs": [
        {
          "indexed": true,
          "internalType": "address",
          "name": "token",
          "type": "address"
        },
        {
          "indexed": true,
          "internalType": "bool",
          "name": "authorized",
          "type": "bool"
        }
      ],
      "name": "NewAuthorizedERC20",
      "type": "event"
    },
    {
      "anonymous": false,
      "inputs": [
        {
          "indexed": true,
          "internalType": "uint256",
          "name": "amount",
          "type": "uint256"
        },
        {
          "indexed": true,
          "internalType": "address",
          "name": "token",
          "type": "address"
        }
      ],
      "name": "NewCompoundFreq",
      "type": "event"
    },
    {
      "anonymous": false,
      "inputs": [
        {
          "indexed": true,
          "internalType": "uint256",
          "name": "amount",
          "type": "uint256"
        },
        {
          "indexed": true,
          "internalType": "address",
          "name": "token",
          "type": "address"
        }
      ],
      "name": "NewDivisorERC20",
      "type": "event"
    },
    {
      "anonymous": false,
      "inputs": [
        {
          "indexed": true,
          "internalType": "uint256",
          "name": "amount",
          "type": "uint256"
        },
        {
          "indexed": true,
          "internalType": "address",
          "name": "token",
          "type": "address"
        }
      ],
      "name": "NewFoundersRewardBoost",
      "type": "event"
    },
    {
      "anonymous": false,
      "inputs": [
        {
          "indexed": true,
          "internalType": "address",
          "name": "helixERC20",
          "type": "address"
        }
      ],
      "name": "NewHelixERC20",
      "type": "event"
    },
    {
      "anonymous": false,
      "inputs": [
        {
          "indexed": true,
          "internalType": "uint256",
          "name": "amount",
          "type": "uint256"
        },
        {
          "indexed": true,
          "internalType": "address",
          "name": "token",
          "type": "address"
        }
      ],
      "name": "NewKNFTRewardBoost",
      "type": "event"
    },
    {
      "anonymous": false,
      "inputs": [
        {
          "indexed": true,
          "internalType": "address",
          "name": "konduxERC721Founders",
          "type": "address"
        }
      ],
      "name": "NewKonduxERC721Founders",
      "type": "event"
    },
    {
      "anonymous": false,
      "inputs": [
        {
          "indexed": true,
          "internalType": "address",
          "name": "konduxERC721kNFT",
          "type": "address"
        }
      ],
      "name": "NewKonduxERC721kNFT",
      "type": "event"
    },
    {
      "anonymous": false,
      "inputs": [
        {
          "indexed": true,
          "internalType": "uint256",
          "name": "amount",
          "type": "uint256"
        },
        {
          "indexed": true,
          "internalType": "address",
          "name": "token",
          "type": "address"
        }
      ],
      "name": "NewMinStake",
      "type": "event"
    },
    {
      "anonymous": false,
      "inputs": [
        {
          "indexed": true,
          "internalType": "uint256",
          "name": "amount",
          "type": "uint256"
        },
        {
          "indexed": true,
          "internalType": "address",
          "name": "token",
          "type": "address"
        }
      ],
      "name": "NewRatio",
      "type": "event"
    },
    {
      "anonymous": false,
      "inputs": [
        {
          "indexed": true,
          "internalType": "address",
          "name": "treasury",
          "type": "address"
        }
      ],
      "name": "NewTreasury",
      "type": "event"
    },
    {
      "anonymous": false,
      "inputs": [
        {
          "indexed": true,
          "internalType": "uint256",
          "name": "amount",
          "type": "uint256"
        },
        {
          "indexed": true,
          "internalType": "address",
          "name": "token",
          "type": "address"
        }
      ],
      "name": "NewWithdrawalFee",
      "type": "event"
    },
    {
      "anonymous": false,
      "inputs": [
        {
          "indexed": true,
          "internalType": "address",
          "name": "staker",
          "type": "address"
        },
        {
          "indexed": false,
          "internalType": "uint256",
          "name": "amount",
          "type": "uint256"
        }
      ],
      "name": "Reward",
      "type": "event"
    },
    {
      "anonymous": false,
      "inputs": [
        {
          "indexed": true,
          "internalType": "uint256",
          "name": "id",
          "type": "uint256"
        },
        {
          "indexed": true,
          "internalType": "address",
          "name": "staker",
          "type": "address"
        },
        {
          "indexed": false,
          "internalType": "address",
          "name": "token",
          "type": "address"
        },
        {
          "indexed": false,
          "internalType": "uint256",
          "name": "amount",
          "type": "uint256"
        }
      ],
      "name": "Stake",
      "type": "event"
    },
    {
      "anonymous": false,
      "inputs": [
        {
          "indexed": true,
          "internalType": "address",
          "name": "staker",
          "type": "address"
        },
        {
          "indexed": false,
          "internalType": "uint256",
          "name": "amount",
          "type": "uint256"
        }
      ],
      "name": "Unstake",
      "type": "event"
    },
    {
      "anonymous": false,
      "inputs": [
        {
          "indexed": true,
          "internalType": "address",
          "name": "staker",
          "type": "address"
        },
        {
          "indexed": false,
          "internalType": "uint256",
          "name": "amount",
          "type": "uint256"
        }
      ],
      "name": "Withdraw",
      "type": "event"
    },
    {
      "anonymous": false,
      "inputs": [
        {
          "indexed": true,
          "internalType": "address",
          "name": "staker",
          "type": "address"
        },
        {
          "indexed": false,
          "internalType": "uint256",
          "name": "amount",
          "type": "uint256"
        }
      ],
      "name": "WithdrawAll",
      "type": "event"
    },
    {
      "inputs": [
        {
          "internalType": "address",
          "name": "_token",
          "type": "address"
        },
        {
          "internalType": "uint256",
          "name": "_apr",
          "type": "uint256"
        },
        {
          "internalType": "uint256",
          "name": "_compoundFreq",
          "type": "uint256"
        },
        {
          "internalType": "uint256",
          "name": "_withdrawalFee",
          "type": "uint256"
        },
        {
          "internalType": "uint256",
          "name": "_foundersRewardBoost",
          "type": "uint256"
        },
        {
          "internalType": "uint256",
          "name": "_kNFTRewardBoost",
          "type": "uint256"
        },
        {
          "internalType": "uint256",
          "name": "_ratio",
          "type": "uint256"
        },
        {
          "internalType": "uint256",
          "name": "_minStake",
          "type": "uint256"
        }
      ],
      "name": "addNewStakingToken",
      "outputs": [],
      "stateMutability": "nonpayable",
      "type": "function"
    },
    {
      "inputs": [
        {
          "internalType": "address",
          "name": "",
          "type": "address"
        }
      ],
      "name": "aprERC20",
      "outputs": [
        {
          "internalType": "uint256",
          "name": "",
          "type": "uint256"
        }
      ],
      "stateMutability": "view",
      "type": "function"
    },
    {
      "inputs": [],
      "name": "authority",
      "outputs": [
        {
          "internalType": "contract IAuthority",
          "name": "",
          "type": "address"
        }
      ],
      "stateMutability": "view",
      "type": "function"
    },
    {
      "inputs": [
        {
          "internalType": "address",
          "name": "",
          "type": "address"
        }
      ],
      "name": "authorizedERC20",
      "outputs": [
        {
          "internalType": "bool",
          "name": "",
          "type": "bool"
        }
      ],
      "stateMutability": "view",
      "type": "function"
    },
    {
      "inputs": [
        {
          "internalType": "address",
          "name": "_staker",
          "type": "address"
        },
        {
          "internalType": "uint256",
          "name": "_depositId",
          "type": "uint256"
        }
      ],
      "name": "calculateRewards",
      "outputs": [
        {
          "internalType": "uint256",
          "name": "rewards",
          "type": "uint256"
        }
      ],
      "stateMutability": "view",
      "type": "function"
    },
    {
      "inputs": [
        {
          "internalType": "uint256",
          "name": "_depositId",
          "type": "uint256"
        }
      ],
      "name": "claimRewards",
      "outputs": [],
      "stateMutability": "nonpayable",
      "type": "function"
    },
    {
      "inputs": [
        {
          "internalType": "address",
          "name": "",
          "type": "address"
        }
      ],
      "name": "compoundFreqERC20",
      "outputs": [
        {
          "internalType": "uint256",
          "name": "",
          "type": "uint256"
        }
      ],
      "stateMutability": "view",
      "type": "function"
    },
    {
      "inputs": [
        {
          "internalType": "uint256",
          "name": "_depositId",
          "type": "uint256"
        }
      ],
      "name": "compoundRewardsTimer",
      "outputs": [
        {
          "internalType": "uint256",
          "name": "remainingTime",
          "type": "uint256"
        }
      ],
      "stateMutability": "view",
      "type": "function"
    },
    {
      "inputs": [
        {
          "internalType": "uint256",
          "name": "_amount",
          "type": "uint256"
        },
        {
          "internalType": "uint8",
          "name": "_timelock",
          "type": "uint8"
        },
        {
          "internalType": "address",
          "name": "_token",
          "type": "address"
        }
      ],
      "name": "deposit",
      "outputs": [
        {
          "internalType": "uint256",
          "name": "",
          "type": "uint256"
        }
      ],
      "stateMutability": "nonpayable",
      "type": "function"
    },
    {
      "inputs": [
        {
          "internalType": "address",
          "name": "",
          "type": "address"
        }
      ],
      "name": "divisorERC20",
      "outputs": [
        {
          "internalType": "uint256",
          "name": "",
          "type": "uint256"
        }
      ],
      "stateMutability": "view",
      "type": "function"
    },
    {
      "inputs": [
        {
          "internalType": "address",
          "name": "",
          "type": "address"
        }
      ],
      "name": "earlyWithdrawalPenalty",
      "outputs": [
        {
          "internalType": "uint256",
          "name": "",
          "type": "uint256"
        }
      ],
      "stateMutability": "view",
      "type": "function"
    },
    {
      "inputs": [
        {
          "internalType": "address",
          "name": "",
          "type": "address"
        }
      ],
      "name": "foundersRewardBoostERC20",
      "outputs": [
        {
          "internalType": "uint256",
          "name": "",
          "type": "uint256"
        }
      ],
      "stateMutability": "view",
      "type": "function"
    },
    {
      "inputs": [
        {
          "internalType": "address",
          "name": "_tokenId",
          "type": "address"
        }
      ],
      "name": "getAPR",
      "outputs": [
        {
          "internalType": "uint256",
          "name": "_rewardsPerHour",
          "type": "uint256"
        }
      ],
      "stateMutability": "view",
      "type": "function"
    },
    {
      "inputs": [
        {
          "internalType": "address",
          "name": "_user",
          "type": "address"
        }
      ],
      "name": "getDepositIds",
      "outputs": [
        {
          "internalType": "uint256[]",
          "name": "",
          "type": "uint256[]"
        }
      ],
      "stateMutability": "view",
      "type": "function"
    },
    {
      "inputs": [
        {
          "internalType": "uint256",
          "name": "_depositId",
          "type": "uint256"
        }
      ],
      "name": "getDepositInfo",
      "outputs": [
        {
          "internalType": "uint256",
          "name": "_stake",
          "type": "uint256"
        },
        {
          "internalType": "uint256",
          "name": "_unclaimedRewards",
          "type": "uint256"
        }
      ],
      "stateMutability": "view",
      "type": "function"
    },
    {
      "inputs": [
        {
          "internalType": "uint256",
          "name": "_depositId",
          "type": "uint256"
        }
      ],
      "name": "getDepositTimestamp",
      "outputs": [
        {
          "internalType": "uint256",
          "name": "_depositTimestamp",
          "type": "uint256"
        }
      ],
      "stateMutability": "view",
      "type": "function"
    },
    {
      "inputs": [
        {
          "internalType": "address",
          "name": "_token",
          "type": "address"
        }
      ],
      "name": "getDivisorERC20",
      "outputs": [
        {
          "internalType": "uint256",
          "name": "",
          "type": "uint256"
        }
      ],
      "stateMutability": "view",
      "type": "function"
    },
    {
      "inputs": [
        {
          "internalType": "address",
          "name": "token",
          "type": "address"
        }
      ],
      "name": "getEarlyWithdrawalPenalty",
      "outputs": [
        {
          "internalType": "uint256",
          "name": "",
          "type": "uint256"
        }
      ],
      "stateMutability": "view",
      "type": "function"
    },
    {
      "inputs": [
        {
          "internalType": "address",
          "name": "_tokenId",
          "type": "address"
        }
      ],
      "name": "getFoundersRewardBoost",
      "outputs": [
        {
          "internalType": "uint256",
          "name": "_foundersRewardBoost",
          "type": "uint256"
        }
      ],
      "stateMutability": "view",
      "type": "function"
    },
    {
      "inputs": [
        {
          "internalType": "address",
          "name": "_tokenId",
          "type": "address"
        }
      ],
      "name": "getMinStake",
      "outputs": [
        {
          "internalType": "uint256",
          "name": "_minStake",
          "type": "uint256"
        }
      ],
      "stateMutability": "view",
      "type": "function"
    },
    {
      "inputs": [
        {
          "internalType": "uint256",
          "name": "_depositId",
          "type": "uint256"
        }
      ],
      "name": "getStakedAmount",
      "outputs": [
        {
          "internalType": "uint256",
          "name": "_deposited",
          "type": "uint256"
        }
      ],
      "stateMutability": "view",
      "type": "function"
    },
    {
      "inputs": [
        {
          "internalType": "uint256",
          "name": "_depositId",
          "type": "uint256"
        }
      ],
      "name": "getTimeOfLastUpdate",
      "outputs": [
        {
          "internalType": "uint256",
          "name": "_timeOfLastUpdate",
          "type": "uint256"
        }
      ],
      "stateMutability": "view",
      "type": "function"
    },
    {
      "inputs": [
        {
          "internalType": "uint256",
          "name": "_depositId",
          "type": "uint256"
        }
      ],
      "name": "getTimelock",
      "outputs": [
        {
          "internalType": "uint256",
          "name": "_timelock",
          "type": "uint256"
        }
      ],
      "stateMutability": "view",
      "type": "function"
    },
    {
      "inputs": [
        {
          "internalType": "uint256",
          "name": "_depositId",
          "type": "uint256"
        }
      ],
      "name": "getTimelockCategory",
      "outputs": [
        {
          "internalType": "uint8",
          "name": "_timelockCategory",
          "type": "uint8"
        }
      ],
      "stateMutability": "view",
      "type": "function"
    },
    {
      "inputs": [
        {
          "internalType": "uint256",
          "name": "_category",
          "type": "uint256"
        }
      ],
      "name": "getTimelockCategoryBoost",
      "outputs": [
        {
          "internalType": "uint256",
          "name": "",
          "type": "uint256"
        }
      ],
      "stateMutability": "view",
      "type": "function"
    },
    {
      "inputs": [
        {
          "internalType": "address",
          "name": "_token",
          "type": "address"
        }
      ],
      "name": "getTotalRewards",
      "outputs": [
        {
          "internalType": "uint256",
          "name": "_totalRewards",
          "type": "uint256"
        }
      ],
      "stateMutability": "view",
      "type": "function"
    },
    {
      "inputs": [
        {
          "internalType": "address",
          "name": "_token",
          "type": "address"
        }
      ],
      "name": "getTotalStaked",
      "outputs": [
        {
          "internalType": "uint256",
          "name": "_totalStaked",
          "type": "uint256"
        }
      ],
      "stateMutability": "view",
      "type": "function"
    },
    {
      "inputs": [
        {
          "internalType": "address",
          "name": "_token",
          "type": "address"
        }
      ],
      "name": "getTotalWithdrawalFees",
      "outputs": [
        {
          "internalType": "uint256",
          "name": "_totalWithdrawalFees",
          "type": "uint256"
        }
      ],
      "stateMutability": "view",
      "type": "function"
    },
    {
      "inputs": [
        {
          "internalType": "address",
          "name": "_user",
          "type": "address"
        },
        {
          "internalType": "address",
          "name": "_token",
          "type": "address"
        }
      ],
      "name": "getUserTotalRewardsByCoin",
      "outputs": [
        {
          "internalType": "uint256",
          "name": "_totalRewards",
          "type": "uint256"
        }
      ],
      "stateMutability": "view",
      "type": "function"
    },
    {
      "inputs": [
        {
          "internalType": "address",
          "name": "_user",
          "type": "address"
        },
        {
          "internalType": "address",
          "name": "_token",
          "type": "address"
        }
      ],
      "name": "getUserTotalStakedByCoin",
      "outputs": [
        {
          "internalType": "uint256",
          "name": "_totalStaked",
          "type": "uint256"
        }
      ],
      "stateMutability": "view",
      "type": "function"
    },
    {
      "inputs": [
        {
          "internalType": "address",
          "name": "_tokenId",
          "type": "address"
        }
      ],
      "name": "getWithdrawalFee",
      "outputs": [
        {
          "internalType": "uint256",
          "name": "_withdrawalFee",
          "type": "uint256"
        }
      ],
      "stateMutability": "view",
      "type": "function"
    },
    {
      "inputs": [
        {
          "internalType": "address",
          "name": "_tokenId",
          "type": "address"
        }
      ],
      "name": "getkNFTRewardBoost",
      "outputs": [
        {
          "internalType": "uint256",
          "name": "_kNFTRewardBoost",
          "type": "uint256"
        }
      ],
      "stateMutability": "view",
      "type": "function"
    },
    {
      "inputs": [],
      "name": "helixERC20",
      "outputs": [
        {
          "internalType": "contract IHelix",
          "name": "",
          "type": "address"
        }
      ],
      "stateMutability": "view",
      "type": "function"
    },
    {
      "inputs": [
        {
          "internalType": "address",
          "name": "",
          "type": "address"
        }
      ],
      "name": "kNFTRewardBoostERC20",
      "outputs": [
        {
          "internalType": "uint256",
          "name": "",
          "type": "uint256"
        }
      ],
      "stateMutability": "view",
      "type": "function"
    },
    {
      "inputs": [],
      "name": "konduxERC721Founders",
      "outputs": [
        {
          "internalType": "contract IERC721",
          "name": "",
          "type": "address"
        }
      ],
      "stateMutability": "view",
      "type": "function"
    },
    {
      "inputs": [],
      "name": "konduxERC721kNFT",
      "outputs": [
        {
          "internalType": "address",
          "name": "",
          "type": "address"
        }
      ],
      "stateMutability": "view",
      "type": "function"
    },
    {
      "inputs": [
        {
          "internalType": "address",
          "name": "",
          "type": "address"
        }
      ],
      "name": "minStakeERC20",
      "outputs": [
        {
          "internalType": "uint256",
          "name": "",
          "type": "uint256"
        }
      ],
      "stateMutability": "view",
      "type": "function"
    },
    {
      "inputs": [
        {
          "internalType": "address",
          "name": "",
          "type": "address"
        }
      ],
      "name": "ratioERC20",
      "outputs": [
        {
          "internalType": "uint256",
          "name": "",
          "type": "uint256"
        }
      ],
      "stateMutability": "view",
      "type": "function"
    },
    {
      "inputs": [
        {
          "internalType": "uint256",
          "name": "_apr",
          "type": "uint256"
        },
        {
          "internalType": "address",
          "name": "_tokenId",
          "type": "address"
        }
      ],
      "name": "setAPR",
      "outputs": [],
      "stateMutability": "nonpayable",
      "type": "function"
    },
    {
      "inputs": [
        {
          "internalType": "contract IAuthority",
          "name": "_newAuthority",
          "type": "address"
        }
      ],
      "name": "setAuthority",
      "outputs": [],
      "stateMutability": "nonpayable",
      "type": "function"
    },
    {
      "inputs": [
        {
          "internalType": "address",
          "name": "_token",
          "type": "address"
        },
        {
          "internalType": "bool",
          "name": "_authorized",
          "type": "bool"
        }
      ],
      "name": "setAuthorizedERC20",
      "outputs": [],
      "stateMutability": "nonpayable",
      "type": "function"
    },
    {
      "inputs": [
        {
          "internalType": "uint256",
          "name": "_compoundFreq",
          "type": "uint256"
        },
        {
          "internalType": "address",
          "name": "_tokenId",
          "type": "address"
        }
      ],
      "name": "setCompoundFreq",
      "outputs": [],
      "stateMutability": "nonpayable",
      "type": "function"
    },
    {
      "inputs": [
        {
          "internalType": "uint256",
          "name": "_divisor",
          "type": "uint256"
        },
        {
          "internalType": "address",
          "name": "_tokenId",
          "type": "address"
        }
      ],
      "name": "setDivisorERC20",
      "outputs": [],
      "stateMutability": "nonpayable",
      "type": "function"
    },
    {
      "inputs": [
        {
          "internalType": "address",
          "name": "token",
          "type": "address"
        },
        {
          "internalType": "uint256",
          "name": "penaltyPercentage",
          "type": "uint256"
        }
      ],
      "name": "setEarlyWithdrawalPenalty",
      "outputs": [],
      "stateMutability": "nonpayable",
      "type": "function"
    },
    {
      "inputs": [
        {
          "internalType": "uint256",
          "name": "_foundersRewardBoost",
          "type": "uint256"
        },
        {
          "internalType": "address",
          "name": "_tokenId",
          "type": "address"
        }
      ],
      "name": "setFoundersRewardBoost",
      "outputs": [],
      "stateMutability": "nonpayable",
      "type": "function"
    },
    {
      "inputs": [
        {
          "internalType": "address",
          "name": "_helix",
          "type": "address"
        }
      ],
      "name": "setHelixERC20",
      "outputs": [],
      "stateMutability": "nonpayable",
      "type": "function"
    },
    {
      "inputs": [
        {
          "internalType": "address",
          "name": "_konduxERC721Founders",
          "type": "address"
        }
      ],
      "name": "setKonduxERC721Founders",
      "outputs": [],
      "stateMutability": "nonpayable",
      "type": "function"
    },
    {
      "inputs": [
        {
          "internalType": "address",
          "name": "_konduxERC721kNFT",
          "type": "address"
        }
      ],
      "name": "setKonduxERC721kNFT",
      "outputs": [],
      "stateMutability": "nonpayable",
      "type": "function"
    },
    {
      "inputs": [
        {
          "internalType": "uint256",
          "name": "_minStake",
          "type": "uint256"
        },
        {
          "internalType": "address",
          "name": "_tokenId",
          "type": "address"
        }
      ],
      "name": "setMinStake",
      "outputs": [],
      "stateMutability": "nonpayable",
      "type": "function"
    },
    {
      "inputs": [
        {
          "internalType": "uint256",
          "name": "_ratio",
          "type": "uint256"
        },
        {
          "internalType": "address",
          "name": "_tokenId",
          "type": "address"
        }
      ],
      "name": "setRatio",
      "outputs": [],
      "stateMutability": "nonpayable",
      "type": "function"
    },
    {
      "inputs": [
        {
          "internalType": "uint256",
          "name": "_category",
          "type": "uint256"
        },
        {
          "internalType": "uint256",
          "name": "_boost",
          "type": "uint256"
        }
      ],
      "name": "setTimelockCategoryBoost",
      "outputs": [],
      "stateMutability": "nonpayable",
      "type": "function"
    },
    {
      "inputs": [
        {
          "internalType": "address",
          "name": "_treasury",
          "type": "address"
        }
      ],
      "name": "setTreasury",
      "outputs": [],
      "stateMutability": "nonpayable",
      "type": "function"
    },
    {
      "inputs": [
        {
          "internalType": "uint256",
          "name": "_withdrawalFee",
          "type": "uint256"
        },
        {
          "internalType": "address",
          "name": "_tokenId",
          "type": "address"
        }
      ],
      "name": "setWithdrawalFee",
      "outputs": [],
      "stateMutability": "nonpayable",
      "type": "function"
    },
    {
      "inputs": [
        {
          "internalType": "uint256",
          "name": "_kNFTRewardBoost",
          "type": "uint256"
        },
        {
          "internalType": "address",
          "name": "_tokenId",
          "type": "address"
        }
      ],
      "name": "setkNFTRewardBoost",
      "outputs": [],
      "stateMutability": "nonpayable",
      "type": "function"
    },
    {
      "inputs": [
        {
          "internalType": "uint256",
          "name": "_depositId",
          "type": "uint256"
        }
      ],
      "name": "stakeRewards",
      "outputs": [],
      "stateMutability": "nonpayable",
      "type": "function"
    },
    {
      "inputs": [
        {
          "internalType": "uint256",
          "name": "",
          "type": "uint256"
        }
      ],
      "name": "timelockCategoryBoost",
      "outputs": [
        {
          "internalType": "uint256",
          "name": "",
          "type": "uint256"
        }
      ],
      "stateMutability": "view",
      "type": "function"
    },
    {
      "inputs": [
        {
          "internalType": "address",
          "name": "",
          "type": "address"
        }
      ],
      "name": "totalRewarded",
      "outputs": [
        {
          "internalType": "uint256",
          "name": "",
          "type": "uint256"
        }
      ],
      "stateMutability": "view",
      "type": "function"
    },
    {
      "inputs": [
        {
          "internalType": "address",
          "name": "",
          "type": "address"
        }
      ],
      "name": "totalStaked",
      "outputs": [
        {
          "internalType": "uint256",
          "name": "",
          "type": "uint256"
        }
      ],
      "stateMutability": "view",
      "type": "function"
    },
    {
      "inputs": [
        {
          "internalType": "address",
          "name": "",
          "type": "address"
        }
      ],
      "name": "totalWithdrawalFees",
      "outputs": [
        {
          "internalType": "uint256",
          "name": "",
          "type": "uint256"
        }
      ],
      "stateMutability": "view",
      "type": "function"
    },
    {
      "inputs": [],
      "name": "treasury",
      "outputs": [
        {
          "internalType": "contract ITreasury",
          "name": "",
          "type": "address"
        }
      ],
      "stateMutability": "view",
      "type": "function"
    },
    {
      "inputs": [
        {
          "internalType": "uint256",
          "name": "",
          "type": "uint256"
        }
      ],
      "name": "userDeposits",
      "outputs": [
        {
          "internalType": "address",
          "name": "token",
          "type": "address"
        },
        {
          "internalType": "address",
          "name": "staker",
          "type": "address"
        },
        {
          "internalType": "uint256",
          "name": "deposited",
          "type": "uint256"
        },
        {
          "internalType": "uint256",
          "name": "redeemed",
          "type": "uint256"
        },
        {
          "internalType": "uint256",
          "name": "timeOfLastUpdate",
          "type": "uint256"
        },
        {
          "internalType": "uint256",
          "name": "lastDepositTime",
          "type": "uint256"
        },
        {
          "internalType": "uint256",
          "name": "unclaimedRewards",
          "type": "uint256"
        },
        {
          "internalType": "uint256",
          "name": "timelock",
          "type": "uint256"
        },
        {
          "internalType": "uint8",
          "name": "timelockCategory",
          "type": "uint8"
        }
      ],
      "stateMutability": "view",
      "type": "function"
    },
    {
      "inputs": [
        {
          "internalType": "address",
          "name": "",
          "type": "address"
        },
        {
          "internalType": "uint256",
          "name": "",
          "type": "uint256"
        }
      ],
      "name": "userDepositsIds",
      "outputs": [
        {
          "internalType": "uint256",
          "name": "",
          "type": "uint256"
        }
      ],
      "stateMutability": "view",
      "type": "function"
    },
    {
      "inputs": [
        {
          "internalType": "address",
          "name": "",
          "type": "address"
        },
        {
          "internalType": "address",
          "name": "",
          "type": "address"
        }
      ],
      "name": "userTotalRewardedByCoin",
      "outputs": [
        {
          "internalType": "uint256",
          "name": "",
          "type": "uint256"
        }
      ],
      "stateMutability": "view",
      "type": "function"
    },
    {
      "inputs": [
        {
          "internalType": "address",
          "name": "",
          "type": "address"
        },
        {
          "internalType": "address",
          "name": "",
          "type": "address"
        }
      ],
      "name": "userTotalStakedByCoin",
      "outputs": [
        {
          "internalType": "uint256",
          "name": "",
          "type": "uint256"
        }
      ],
      "stateMutability": "view",
      "type": "function"
    },
    {
      "inputs": [
        {
          "internalType": "uint256",
          "name": "_amount",
          "type": "uint256"
        },
        {
          "internalType": "uint256",
          "name": "_depositId",
          "type": "uint256"
        }
      ],
      "name": "withdraw",
      "outputs": [],
      "stateMutability": "nonpayable",
      "type": "function"
    },
    {
      "inputs": [
        {
          "internalType": "uint256",
          "name": "_amount",
          "type": "uint256"
        },
        {
          "internalType": "uint256",
          "name": "_depositId",
          "type": "uint256"
        }
      ],
      "name": "withdrawAndClaim",
      "outputs": [],
      "stateMutability": "nonpayable",
      "type": "function"
    },
    {
      "inputs": [
        {
          "internalType": "uint256",
          "name": "_amount",
          "type": "uint256"
        },
        {
          "internalType": "uint256",
          "name": "_depositId",
          "type": "uint256"
        }
      ],
      "name": "withdrawBeforeTimelock",
      "outputs": [],
      "stateMutability": "nonpayable",
      "type": "function"
    },
    {
      "inputs": [
        {
          "internalType": "address",
          "name": "",
          "type": "address"
        }
      ],
      "name": "withdrawalFeeERC20",
      "outputs": [
        {
          "internalType": "uint256",
          "name": "",
          "type": "uint256"
        }
      ],
      "stateMutability": "view",
      "type": "function"
    }
  ],
  "transactionHash": "0xa0b2b81203d30de81f12350cd04a4564fc2ddec7686e9bcf9ce03aac71840d1c",
  "args": [
    "0x685a13093cA561F531c93185B942a3f33385e14E",
    "0x9e05f4e1925De5D7C9C361CbE2D96360E788b355",
    "0x9A047eACE5BBd63443E164cB74CEf20952A62cDa",
    "0x434fD7FEEc752c4BfA4a59d0272c503ffD313499",
    "0x443525E4D78Dc29544CD30F097809d0Abe68DF32",
    "0x002a4F0aA6D2Ae840Ba2B9FfC0288F6FceCE0bFc"
  ],
  "numDeployments": 12,
  "solcInputHash": "fb8923f9c704302ae3788bc50a1bcbf4",
  "bytecode": "0x60806040523480156200001157600080fd5b506040516200556e3803806200556e833981016040819052620000349162000d8a565b856001600160a01b038116620000915760405162461bcd60e51b815260206004820181905260248201527f417574686f726974792063616e6e6f74206265207a65726f206164647265737360448201526064015b60405180910390fd5b600080546001600160a01b0319166001600160a01b0383169081179091556040519081527f2f658b440c35314f52658ea8a740e05b284cdc84dc9ae01e891f21b8933e7cad9060200160405180910390a1506001600160a01b0385166200013b5760405162461bcd60e51b815260206004820152601f60248201527f4b6f6e6475782045524332302061646472657373206973206e6f742073657400604482015260640162000088565b6001600160a01b038416620001935760405162461bcd60e51b815260206004820152601b60248201527f54726561737572792061646472657373206973206e6f74207365740000000000604482015260640162000088565b6001600160a01b038316620001fd5760405162461bcd60e51b815260206004820152602960248201527f4b6f6e6475782045524337323120466f756e64657273206164647265737320696044820152681cc81b9bdd081cd95d60ba1b606482015260840162000088565b6001600160a01b038216620002635760405162461bcd60e51b815260206004820152602560248201527f4b6f6e64757820455243373231206b4e46542061646472657373206973206e6f6044820152641d081cd95d60da1b606482015260840162000088565b6001600160a01b038116620002bb5760405162461bcd60e51b815260206004820152601e60248201527f48656c69782045524332302061646472657373206973206e6f74207365740000604482015260640162000088565b601580546001600160a01b038086166001600160a01b031992831617909255601680548584169083161790556014805484841690831617905560178054928716929091169190911790556200031361271086620003e5565b6200032060648662000435565b6200032e6103e886620004ff565b6200033c6101f4866200054f565b6200034b62989680866200059f565b62000358601986620005ef565b6200036762015180866200063f565b62000375612710866200068f565b6200038285600a620006df565b62000390600160646200076d565b6200039f600261012c6200076d565b620003ae60036103846200076d565b620003bd60056113886200076d565b620003cc60066127106200076d565b620003d985600162000789565b50505050505062000e4a565b620003ef62000ca2565b6001600160a01b0381166000818152601360205260408082208590555184917f6a437d814668577dce2f82ae56ed67161e12e20b59b9464687859d6a2ce0faa591a35050565b6200043f62000ca2565b6001600160a01b038116600090815260136020526040902054821115620004b95760405162461bcd60e51b815260206004820152602760248201527f5769746864726177616c206665652063616e6e6f74206265206d6f7265207468604482015266616e203130302560c81b606482015260840162000088565b6001600160a01b0381166000818152600860205260408082208590555184917f5d5169bb1fbf418e612b1934f181b6ce300a1aad27fdb0e6f6aadbd96f50bb8f91a35050565b6200050962000ca2565b6001600160a01b0381166000818152600960205260408082208590555184917f1677c34b69a09796446af7a4c75943a1bb36202c16eb82199ef7d37d0ee4b28891a35050565b6200055962000ca2565b6001600160a01b0381166000818152600a60205260408082208590555184917f11ef1060a695a1277b08edcbb2c364d43d4eb52f1060daaabf0df445cb6cdfdf91a35050565b620005a962000ca2565b6001600160a01b0381166000818152600560205260408082208590555184917fef3cb734d88702dbb1c3bc381c52176876be95e70b66d3970d16653ee992a6c291a35050565b620005f962000ca2565b6001600160a01b0381166000818152600760205260408082208590555184917fef97689adaec5b60041d413c3baef6876d5d01bb6c17b60cc980e2e244ef851791a35050565b6200064962000ca2565b6001600160a01b0381166000818152600660205260408082208590555184917fd0d3d840363c3a773f4578f92d7914f6b37985570c79ee2889d69d7d8f12c29591a35050565b6200069962000ca2565b6001600160a01b0381166000818152600b60205260408082208590555184917f62b574cc62ed3db0ae736cb4349346a234832cc8b215c6423fd67505addc2ffa91a35050565b620006e962000ca2565b6064811115620007515760405162461bcd60e51b815260206004820152602c60248201527f50656e616c74792070657263656e74616765206d75737420626520626574776560448201526b0656e203020616e64203130360a41b606482015260840162000088565b6001600160a01b03909116600090815260116020526040902055565b6200077762000ca2565b60009182526012602052604090912055565b6001600160a01b038216620007e15760405162461bcd60e51b815260206004820152601b60248201527f546f6b656e20616464726573732063616e6e6f74206265203078300000000000604482015260640162000088565b80151560010362000c4e576001600160a01b038216600090815260076020526040902054620008635760405162461bcd60e51b815260206004820152602760248201527f526577617264732070657220686f7572206d75737420626520677265617465726044820152660207468616e20360cc1b606482015260840162000088565b6001600160a01b038216600090815260066020526040902054620008dc5760405162461bcd60e51b815260206004820152602960248201527f436f6d706f756e64206672657175656e6379206d75737420626520677265617460448201526806572207468616e20360bc1b606482015260840162000088565b6001600160a01b038216600090815260086020526040902054620009515760405162461bcd60e51b815260206004820152602560248201527f5769746864726177616c20666565206d75737420626520677265617465722074604482015264068616e20360dc1b606482015260840162000088565b6001600160a01b038216600090815260096020526040902054620009cd5760405162461bcd60e51b815260206004820152602c60248201527f466f756e646572732072657761726420626f6f7374206d75737420626520677260448201526b06561746572207468616e20360a41b606482015260840162000088565b6001600160a01b0382166000908152600a602052604090205462000a455760405162461bcd60e51b815260206004820152602860248201527f6b4e46542072657761726420626f6f7374206d75737420626520677265617465604482015267072207468616e20360c41b606482015260840162000088565b6001600160a01b0382166000908152600b602052604090205462000aac5760405162461bcd60e51b815260206004820152601c60248201527f526174696f206d7573742062652067726561746572207468616e203000000000604482015260640162000088565b6001600160a01b03821660009081526005602052604090205462000b1f5760405162461bcd60e51b8152602060048201526024808201527f4d696e696d756d207374616b65206d75737420626520677265617465722074686044820152630616e20360e41b606482015260840162000088565b6001600160a01b03821660009081526013602052604090205462000b865760405162461bcd60e51b815260206004820152601e60248201527f44697669736f72206d7573742062652067726561746572207468616e20300000604482015260640162000088565b6000826001600160a01b03166318160ddd6040518163ffffffff1660e01b8152600401602060405180830381865afa15801562000bc7573d6000803e3d6000fd5b505050506040513d601f19601f8201168201806040525081019062000bed919062000e0b565b1162000c4e5760405162461bcd60e51b815260206004820152602960248201527f546f6b656e20746f74616c20737570706c79206d75737420626520677265617460448201526806572207468616e20360bc1b606482015260840162000088565b6001600160a01b038216600081815260046020526040808220805460ff191685151590811790915590519092917f59261974a183535ca20bb33ae77db42c679a079844739a2e10f0b6ecb847379a91a35050565b60008054906101000a90046001600160a01b03166001600160a01b0316630c340a246040518163ffffffff1660e01b8152600401602060405180830381865afa15801562000cf4573d6000803e3d6000fd5b505050506040513d601f19601f8201168201806040525081019062000d1a919062000e25565b6001600160a01b0316336001600160a01b03161462000d6b5760405162461bcd60e51b815260206004820152600c60248201526b15539055551213d49256915160a21b604482015260640162000088565b565b80516001600160a01b038116811462000d8557600080fd5b919050565b60008060008060008060c0878903121562000da457600080fd5b62000daf8762000d6d565b955062000dbf6020880162000d6d565b945062000dcf6040880162000d6d565b935062000ddf6060880162000d6d565b925062000def6080880162000d6d565b915062000dff60a0880162000d6d565b90509295509295509295565b60006020828403121562000e1e57600080fd5b5051919050565b60006020828403121562000e3857600080fd5b62000e438262000d6d565b9392505050565b6147148062000e5a6000396000f3fe608060405234801561001057600080fd5b506004361061043c5760003560e01c80637bf7f3d311610235578063cf717c8c11610135578063ea425a6d116100c8578063f384fe7611610097578063fad68d1f1161007c578063fad68d1f14610c45578063fb68d53b14610c65578063fe1686b814610c9f57600080fd5b8063f384fe7614610bfc578063f91159e314610c1c57600080fd5b8063ea425a6d14610ae5578063f0f4426014610b05578063f16b41f414610b18578063f2760e9d14610bd357600080fd5b8063dad775b111610104578063dad775b114610a6d578063dd2a8b1114610a80578063e37d47e414610aa9578063e519cf1714610abc57600080fd5b8063cf717c8c14610a14578063cfb656a514610a27578063d55111c514610a3a578063d6b9243414610a4d57600080fd5b8063a55dfa1c116101c8578063beb8314c11610197578063bf811fbc1161017c578063bf811fbc146109b8578063c39ccf88146109cb578063c5ebc2f7146109f457600080fd5b8063beb8314c14610992578063bf7e214f146109a557600080fd5b8063a55dfa1c14610939578063a9b294071461094c578063b54b9c881461095f578063ba5771481461097f57600080fd5b8063911ddf0a11610204578063911ddf0a146108e057806396ce3627146108f35780639bfd8d6114610906578063a13d50791461092657600080fd5b80637bf7f3d31461087a5780637cbfd1441461088d57806384d3d586146108ad57806387eebaea146108cd57600080fd5b80634774dc93116103405780635cd3667e116102d357806372aa9d91116102a257806378e2816b1161028757806378e2816b146108295780637a9e5e4b1461083c5780637b16c5431461084f57600080fd5b806372aa9d91146107f657806374d911641461081657600080fd5b80635cd3667e146107855780635dfa45961461079857806361d027b3146107c35780636e3c1154146107d657600080fd5b80635722dee01161030f5780635722dee0146106e3578063580e26a11461070c57806359b0e5901461073f5780635a5392be1461076257600080fd5b80634774dc931461065d5780635328c2bf146106705780635385689c14610698578063546f2b66146106c357600080fd5b80631f6514db116103d35780633a46a46d116103a2578063441a3e7011610387578063441a3e701461060e5780634477c974146106215780634715f40c1461063457600080fd5b80633a46a46d146105db578063404d221a146105fb57600080fd5b80631f6514db146105545780632bcf161c14610567578063336cada81461059057806338c26d18146105a357600080fd5b8063171f9ce41161040f578063171f9ce4146104d557806319720be1146104e85780631c5122d91461050b5780631e78e9a21461053457600080fd5b806306811c92146104415780630962ef791461047457806310b1843814610489578063151a6349146104ac575b600080fd5b61046161044f3660046143ac565b60076020526000908152604090205481565b6040519081526020015b60405180910390f35b6104876104823660046143d0565b610cd9565b005b6104616104973660046143d0565b60009081526003602052604090206007015490565b6104616104ba3660046143ac565b6001600160a01b031660009081526010602052604090205490565b6104876104e33660046143e9565b61101f565b6104616104f63660046143d0565b60009081526003602052604090206005015490565b6104616105193660046143ac565b6001600160a01b031660009081526007602052604090205490565b6104616105423660046143ac565b600a6020526000908152604090205481565b6104876105623660046143e9565b61106d565b6104616105753660046143ac565b6001600160a01b03166000908152600e602052604090205490565b61048761059e3660046143e9565b6110bb565b6105c96105b13660046143d0565b60009081526003602052604090206008015460ff1690565b60405160ff909116815260200161046b565b6104616105e93660046143ac565b600b6020526000908152604090205481565b6104876106093660046143e9565b611109565b61048761061c366004614419565b611157565b61048761062f3660046143d0565b611838565b6104616106423660046143ac565b6001600160a01b031660009081526009602052604090205490565b61046161066b36600461443b565b611a73565b61068361067e3660046143d0565b612123565b6040805192835260208301919091520161046b565b6016546106ab906001600160a01b031681565b6040516001600160a01b03909116815260200161046b565b6104616106d13660046143ac565b60096020526000908152604090205481565b6104616106f13660046143ac565b6001600160a01b031660009081526008602052604090205490565b61072f61071a3660046143ac565b60046020526000908152604090205460ff1681565b604051901515815260200161046b565b61046161074d3660046143d0565b60009081526003602052604090206004015490565b6104616107703660046143d0565b60009081526003602052604090206002015490565b610487610793366004614419565b61215a565b6104616107a6366004614483565b600d60209081526000928352604080842090915290825290205481565b6017546106ab906001600160a01b031681565b6104616107e43660046143d0565b60009081526012602052604090205490565b6104616108043660046143ac565b60056020526000908152604090205481565b610487610824366004614419565b612174565b6104876108373660046143ac565b6129af565b61048761084a3660046143ac565b612a57565b61046161085d366004614483565b600f60209081526000928352604080842090915290825290205481565b6104876108883660046144bf565b612ab3565b61046161089b3660046143ac565b60106020526000908152604090205481565b6104616108bb3660046143ac565b60116020526000908152604090205481565b6104876108db366004614419565b612ac9565b6104876108ee3660046144ed565b612adc565b61048761090136600461454b565b612ef6565b6104616109143660046143ac565b600c6020526000908152604090205481565b6104876109343660046143e9565b612f91565b6104616109473660046143d0565b612fdf565b6014546106ab906001600160a01b031681565b61046161096d3660046143ac565b60086020526000908152604090205481565b61046161098d36600461454b565b613041565b6104616109a036600461454b565b613072565b6000546106ab906001600160a01b031681565b6104876109c63660046143ac565b6136f1565b6104616109d93660046143ac565b6001600160a01b031660009081526005602052604090205490565b610a07610a023660046143ac565b613799565b60405161046b9190614577565b610487610a223660046143e9565b613805565b610487610a353660046143ac565b6138e1565b6015546106ab906001600160a01b031681565b610461610a5b3660046143ac565b60136020526000908152604090205481565b610487610a7b3660046143e9565b613989565b610461610a8e3660046143ac565b6001600160a01b03166000908152600c602052604090205490565b610487610ab73660046143e9565b6139d7565b610461610aca3660046143ac565b6001600160a01b03166000908152600a602052604090205490565b610461610af33660046143ac565b60066020526000908152604090205481565b610487610b133660046143ac565b613a25565b610b81610b263660046143d0565b60036020819052600091825260409091208054600182015460028301549383015460048401546005850154600686015460078701546008909701546001600160a01b0396871698969095169693949293919290919060ff1689565b604080516001600160a01b039a8b1681529990981660208a0152968801959095526060870193909352608086019190915260a085015260c084015260e083015260ff166101008201526101200161046b565b610461610be13660046143ac565b6001600160a01b031660009081526011602052604090205490565b610461610c0a3660046143ac565b600e6020526000908152604090205481565b610461610c2a3660046143ac565b6001600160a01b031660009081526013602052604090205490565b610461610c533660046143d0565b60126020526000908152604090205481565b610461610c73366004614483565b6001600160a01b038082166000908152600f602090815260408083209386168352929052205492915050565b610461610cad366004614483565b6001600160a01b038082166000908152600d602090815260408083209386168352929052205492915050565b6000818152600360205260409020600101546001600160a01b03163314610d555760405162461bcd60e51b815260206004820152602560248201527f596f7520617265206e6f7420746865206f776e6572206f6620746869732064656044820152641c1bdcda5d60da1b60648201526084015b60405180910390fd5b600081815260036020526040902060070154421015610db65760405162461bcd60e51b815260206004820152601360248201527f54696d656c6f636b206e6f7420706173736564000000000000000000000000006044820152606401610d4c565b600081815260036020526040812060060154610dd23384613072565b610ddc91906145d1565b905060008111610e2e5760405162461bcd60e51b815260206004820152601360248201527f596f752068617665206e6f2072657761726473000000000000000000000000006044820152606401610d4c565b600082815260036020908152604080832060068101849055426004820155546001600160a01b0316808452601383528184205460089093529083205490929190610e7a906127106145e4565b610e8490856145f7565b610e8e919061460e565b9050816001600160a01b03166323b872dd60008054906101000a90046001600160a01b03166001600160a01b031663fbfa77cf6040518163ffffffff1660e01b8152600401602060405180830381865afa158015610ef0573d6000803e3d6000fd5b505050506040513d601f19601f82011682018060405250810190610f149190614630565b6040516001600160e01b031960e084901b1681526001600160a01b039091166004820152336024820152604481018490526064016020604051808303816000875af1158015610f67573d6000803e3d6000fd5b505050506040513d601f19601f82011682018060405250810190610f8b919061464d565b5060008481526003602052604090208054600190910154610fba9183916001600160a01b039182169116613acd565b610fe4610fc782856145e4565b6000868152600360205260409020546001600160a01b0316613b3b565b60405181815233907f619caafabdd75649b302ba8419e48cccf64f37f1983ac4727cfb38b57703ffc99060200160405180910390a250505050565b611027613b6c565b6001600160a01b0381166000818152600b60205260408082208590555184917f62b574cc62ed3db0ae736cb4349346a234832cc8b215c6423fd67505addc2ffa91a35050565b611075613b6c565b6001600160a01b0381166000818152600960205260408082208590555184917f1677c34b69a09796446af7a4c75943a1bb36202c16eb82199ef7d37d0ee4b28891a35050565b6110c3613b6c565b6001600160a01b0381166000818152600760205260408082208590555184917fef97689adaec5b60041d413c3baef6876d5d01bb6c17b60cc980e2e244ef851791a35050565b611111613b6c565b6001600160a01b0381166000818152600560205260408082208590555184917fef3cb734d88702dbb1c3bc381c52176876be95e70b66d3970d16653ee992a6c291a35050565b6000818152600360205260409020600701544210156111b85760405162461bcd60e51b815260206004820152601360248201527f54696d656c6f636b206e6f7420706173736564000000000000000000000000006044820152606401610d4c565b6000818152600360205260409020600101546001600160a01b0316331461122f5760405162461bcd60e51b815260206004820152602560248201527f596f7520617265206e6f7420746865206f776e6572206f6620746869732064656044820152641c1bdcda5d60da1b6064820152608401610d4c565b60008181526003602052604090206002015482111561129a5760405162461bcd60e51b815260206004820152602160248201527f43616e2774207769746864726177206d6f7265207468616e20796f75206861766044820152606560f81b6064820152608401610d4c565b6014546040516370a0823160e01b81523360048201526001600160a01b03909116906370a0823190602401602060405180830381865afa1580156112e2573d6000803e3d6000fd5b505050506040513d601f19601f82011682018060405250810190611306919061466a565b6000828152600360209081526040808320546001600160a01b03168352600b90915290205461133590846145f7565b11156113a95760405162461bcd60e51b815260206004820152603760248201527f43616e2774207769746864726177206d6f726520746f6b656e73207468616e2060448201527f74686520636f6c6c61746572616c20796f7520686176650000000000000000006064820152608401610d4c565b60006113b53383613072565b9050826003600084815260200190815260200160002060020160008282546113dd91906145e4565b9091555050600082815260036020526040812042600482015560060180548392906114099084906145d1565b90915550506000828152600360209081526040808320546001600160a01b03168352601380835281842054600884529184205492529061144990826145e4565b61145390866145f7565b61145d919061460e565b6000848152600360209081526040808320549254815163fbfa77cf60e01b815291519495506001600160a01b03938416948694869463dd62ed3e94919093169263fbfa77cf926004808401938290030181865afa1580156114c2573d6000803e3d6000fd5b505050506040513d601f19601f820116820180604052508101906114e69190614630565b6040516001600160e01b031960e084901b1681526001600160a01b039091166004820152306024820152604401602060405180830381865afa158015611530573d6000803e3d6000fd5b505050506040513d601f19601f82011682018060405250810190611554919061466a565b10156115f95760405162461bcd60e51b815260206004820152606260248201527f547265617375727920436f6e7472616374206e65656420746f20617070726f7660448201527f65205374616b696e6720436f6e747261637420746f207769746864726177207960648201527f6f757220746f6b656e73202d2d20706c656173652063616c6c20616e2041646d60848201526134b760f11b60a482015260c401610d4c565b600084815260036020526040902080546001909101546116279187916001600160a01b039182169116613c43565b6014546000858152600360209081526040808320546001600160a01b039081168452600b90925290912054911690639dc29fac90339061166790896145f7565b6040516001600160e01b031960e085901b1681526001600160a01b0390921660048301526024820152604401600060405180830381600087803b1580156116ad57600080fd5b505af11580156116c1573d6000803e3d6000fd5b50505050806001600160a01b03166323b872dd60008054906101000a90046001600160a01b03166001600160a01b031663fbfa77cf6040518163ffffffff1660e01b8152600401602060405180830381865afa158015611725573d6000803e3d6000fd5b505050506040513d601f19601f820116820180604052508101906117499190614630565b6040516001600160e01b031960e084901b1681526001600160a01b039091166004820152336024820152604481018590526064016020604051808303816000875af115801561179c573d6000803e3d6000fd5b505050506040513d601f19601f820116820180604052508101906117c0919061464d565b50600084815260036020526040902080546001909101546117ef9184916001600160a01b039182169116613acd565b6117fc610fc783876145e4565b60405182815233907f884edad9ce6fa2440d8a54cc123490eb96d2768479d49ff9c7366125a94243649060200160405180910390a25050505050565b6000818152600360205260409020600101546001600160a01b031633146118af5760405162461bcd60e51b815260206004820152602560248201527f596f7520617265206e6f7420746865206f776e6572206f6620746869732064656044820152641c1bdcda5d60da1b6064820152608401610d4c565b6118b881612fdf565b156119105760405162461bcd60e51b815260206004820152602260248201527f547269656420746f20636f6d706f756e64207265776172647320746f6f20736f60448201526137b760f11b6064820152608401610d4c565b60008181526003602052604081206006015461192c3384613072565b61193691906145d1565b600083815260036020526040812060068101829055600201805492935083929091906119639084906145d1565b90915550506000828152600360205260409020426004820155805460019091015461199c9183916001600160a01b039182169116613db4565b6014546000838152600360209081526040808320546001600160a01b039081168452600b909252909120549116906340c10f199033906119dc90856145f7565b6040516001600160e01b031960e085901b1681526001600160a01b0390921660048301526024820152604401600060405180830381600087803b158015611a2257600080fd5b505af1158015611a36573d6000803e3d6000fd5b50506040518381523392507f169f1815ebdea059aac3bb00ec9a9594c7a5ffcb64a17e8392b5d84909a14556915060200160405180910390a25050565b6001600160a01b03811660009081526004602052604081205460ff16611adb5760405162461bcd60e51b815260206004820152601460248201527f546f6b656e206e6f7420617574686f72697a65640000000000000000000000006044820152606401610d4c565b6001600160a01b038216600090815260056020526040902054841015611b515760405162461bcd60e51b815260206004820152602560248201527f416d6f756e7420736d616c6c6572207468616e206d696e696d696d756d2064656044820152641c1bdcda5d60da1b6064820152608401610d4c565b6040516370a0823160e01b8152336004820152829085906001600160a01b038316906370a0823190602401602060405180830381865afa158015611b99573d6000803e3d6000fd5b505050506040513d601f19601f82011682018060405250810190611bbd919061466a565b1015611c0b5760405162461bcd60e51b815260206004820152601d60248201527f43616e2774207374616b65206d6f7265207468616e20796f75206f776e0000006044820152606401610d4c565b604051636eb1769f60e11b815233600482015230602482015285906001600160a01b0383169063dd62ed3e90604401602060405180830381865afa158015611c57573d6000803e3d6000fd5b505050506040513d601f19601f82011682018060405250810190611c7b919061466a565b1015611cc95760405162461bcd60e51b815260206004820152601160248201527f416c6c6f77616e6365206e6f74207365740000000000000000000000000000006044820152606401610d4c565b60048460ff161115611d1d5760405162461bcd60e51b815260206004820152601060248201527f496e76616c69642074696d656c6f636b000000000000000000000000000000006044820152606401610d4c565b6000611d2860015490565b9050604051806101200160405280856001600160a01b03168152602001336001600160a01b031681526020018781526020016000815260200142815260200142815260200160008152602001600081526020018660ff168152506003600083815260200190815260200160002060008201518160000160006101000a8154816001600160a01b0302191690836001600160a01b0316021790555060208201518160010160006101000a8154816001600160a01b0302191690836001600160a01b0316021790555060408201518160020155606082015181600301556080820151816004015560a0820151816005015560c0820151816006015560e082015181600701556101008201518160080160006101000a81548160ff021916908360ff16021790555090505060006006811115611e6357611e63614683565b60ff168560ff1603611e9357611e7c4262278d006145d1565b600082815260036020526040902060070155611f09565b60001960ff861601611eac57611e7c426276a7006145d1565b60011960ff861601611ec557611e7c4262ed4e006145d1565b60021960ff861601611edf57611e7c426301e133806145d1565b60031960ff861601611f0957611ef64260786145d1565b6000828152600360205260409020600701555b33600081815260026020908152604082208054600181018255908352912001829055611f389087908690613db4565b816001600160a01b03166323b872dd3360008054906101000a90046001600160a01b03166001600160a01b031663fbfa77cf6040518163ffffffff1660e01b8152600401602060405180830381865afa158015611f99573d6000803e3d6000fd5b505050506040513d601f19601f82011682018060405250810190611fbd9190614630565b6040516001600160e01b031960e085901b1681526001600160a01b03928316600482015291166024820152604481018990526064016020604051808303816000875af1158015612011573d6000803e3d6000fd5b505050506040513d601f19601f82011682018060405250810190612035919061464d565b506014546001600160a01b038581166000908152600b60205260409020549116906340c10f19903390612068908a6145f7565b6040516001600160e01b031960e085901b1681526001600160a01b0390921660048301526024820152604401600060405180830381600087803b1580156120ae57600080fd5b505af11580156120c2573d6000803e3d6000fd5b505050506120d4600180546001019055565b604080516001600160a01b038616815260208101889052339183917ff7373f56c201647feae85a62d3cf56286ed3a43d20c5eb7f9883d6ea690ef7c0910160405180910390a395945050505050565b600081815260036020526040812060028101546006909101549091906121493385613072565b61215391906145d1565b9050915091565b612162613b6c565b60009182526012602052604090912055565b6000818152600360205260409020600101546001600160a01b031633146121eb5760405162461bcd60e51b815260206004820152602560248201527f596f7520617265206e6f7420746865206f776e6572206f6620746869732064656044820152641c1bdcda5d60da1b6064820152608401610d4c565b6000818152600360205260409020600201548211156122565760405162461bcd60e51b815260206004820152602160248201527f43616e2774207769746864726177206d6f7265207468616e20796f75206861766044820152606560f81b6064820152608401610d4c565b6014546040516370a0823160e01b81523360048201526001600160a01b03909116906370a0823190602401602060405180830381865afa15801561229e573d6000803e3d6000fd5b505050506040513d601f19601f820116820180604052508101906122c2919061466a565b6000828152600360209081526040808320546001600160a01b03168352600b9091529020546122f190846145f7565b11156123655760405162461bcd60e51b815260206004820152603760248201527f43616e2774207769746864726177206d6f726520746f6b656e73207468616e2060448201527f74686520636f6c6c61746572616c20796f7520686176650000000000000000006064820152608401610d4c565b60008181526003602052604090206007015442106123c55760405162461bcd60e51b815260206004820152601360248201527f54696d656c6f636b2068617320706173736564000000000000000000000000006044820152606401610d4c565b6000818152600360205260408120600701546123e29042906145e4565b60008381526003602052604081206005810154600790910154929350909161240a91906145e4565b905060006124198260646145f7565b6000858152600360209081526040808320546001600160a01b031683526011909152902054849061244a90886145f7565b61245491906145f7565b61245e919061460e565b90508481111561246b5750835b8060000361248d5760646124808660016145f7565b61248a919061460e565b90505b6000848152600360209081526040808320546001600160a01b0316835260089091528120546124bc90836145d1565b90506124fd6040518060400160405280600c81526020017f65787472614665653a202573000000000000000000000000000000000000000081525083613e18565b61253c6040518060400160405280601681526020017f746f74616c46656550657263656e746167653a2025730000000000000000000081525082613e18565b6000858152600360209081526040808320546001600160a01b03168352601390915281205461256b83826145e4565b61257590896145f7565b61257f919061460e565b9050866003600088815260200190815260200160002060020160008282546125a791906145e4565b909155505060008681526003602090815260408083204260048083019190915590549354825163fbfa77cf60e01b815292516001600160a01b03958616958795879563dd62ed3e95929094169363fbfa77cf938184019390918290030181865afa158015612619573d6000803e3d6000fd5b505050506040513d601f19601f8201168201806040525081019061263d9190614630565b6040516001600160e01b031960e084901b1681526001600160a01b039091166004820152306024820152604401602060405180830381865afa158015612687573d6000803e3d6000fd5b505050506040513d601f19601f820116820180604052508101906126ab919061466a565b10156127505760405162461bcd60e51b815260206004820152606260248201527f547265617375727920436f6e7472616374206e65656420746f20617070726f7660448201527f65205374616b696e6720436f6e747261637420746f207769746864726177207960648201527f6f757220746f6b656e73202d2d20706c656173652063616c6c20616e2041646d60848201526134b760f11b60a482015260c401610d4c565b6000878152600360205260409020805460019091015461277e918a916001600160a01b039182169116613c43565b6014546000888152600360209081526040808320546001600160a01b039081168452600b90925290912054911690639dc29fac9033906127be908c6145f7565b6040516001600160e01b031960e085901b1681526001600160a01b0390921660048301526024820152604401600060405180830381600087803b15801561280457600080fd5b505af1158015612818573d6000803e3d6000fd5b50505050806001600160a01b03166323b872dd60008054906101000a90046001600160a01b03166001600160a01b031663fbfa77cf6040518163ffffffff1660e01b8152600401602060405180830381865afa15801561287c573d6000803e3d6000fd5b505050506040513d601f19601f820116820180604052508101906128a09190614630565b6040516001600160e01b031960e084901b1681526001600160a01b039091166004820152336024820152604481018590526064016020604051808303816000875af11580156128f3573d6000803e3d6000fd5b505050506040513d601f19601f82011682018060405250810190612917919061464d565b50600087815260036020526040902080546001909101546129469184916001600160a01b039182169116613acd565b612970612953838a6145e4565b6000898152600360205260409020546001600160a01b0316613b3b565b60405182815233907f884edad9ce6fa2440d8a54cc123490eb96d2768479d49ff9c7366125a94243649060200160405180910390a25050505050505050565b6129b7613b6c565b6001600160a01b038116612a0d5760405162461bcd60e51b815260206004820152601e60248201527f466f756e6465727320616464726573732063616e6e6f742062652030783000006044820152606401610d4c565b601580546001600160a01b0319166001600160a01b0383169081179091556040517f23008753c65029d55e051a14341d50cf19b808653ba432a5faeb07bd7865e25b90600090a250565b612a5f613b6c565b600080546001600160a01b0319166001600160a01b0383169081179091556040519081527f2f658b440c35314f52658ea8a740e05b284cdc84dc9ae01e891f21b8933e7cad9060200160405180910390a150565b612abb613b6c565b612ac58282613e72565b5050565b612ad38282611157565b612ac581610cd9565b612ae4613b6c565b6001600160a01b038816612b3a5760405162461bcd60e51b815260206004820152601b60248201527f546f6b656e20616464726573732063616e6e6f742062652030783000000000006044820152606401610d4c565b60008711612b9a5760405162461bcd60e51b815260206004820152602760248201527f526577617264732070657220686f7572206d75737420626520677265617465726044820152660207468616e20360cc1b6064820152608401610d4c565b60008611612bfc5760405162461bcd60e51b815260206004820152602960248201527f436f6d706f756e64206672657175656e6379206d75737420626520677265617460448201526806572207468616e20360bc1b6064820152608401610d4c565b60008511612c5a5760405162461bcd60e51b815260206004820152602560248201527f5769746864726177616c20666565206d75737420626520677265617465722074604482015264068616e20360dc1b6064820152608401610d4c565b60008411612cbf5760405162461bcd60e51b815260206004820152602c60248201527f466f756e646572732072657761726420626f6f7374206d75737420626520677260448201526b06561746572207468616e20360a41b6064820152608401610d4c565b60008311612d205760405162461bcd60e51b815260206004820152602860248201527f6b4e46542072657761726420626f6f7374206d75737420626520677265617465604482015267072207468616e20360c41b6064820152608401610d4c565b60008211612d705760405162461bcd60e51b815260206004820152601c60248201527f526174696f206d7573742062652067726561746572207468616e2030000000006044820152606401610d4c565b60008111612dcc5760405162461bcd60e51b8152602060048201526024808201527f4d696e696d756d207374616b65206d75737420626520677265617465722074686044820152630616e20360e41b6064820152608401610d4c565b6000886001600160a01b03166318160ddd6040518163ffffffff1660e01b8152600401602060405180830381865afa158015612e0c573d6000803e3d6000fd5b505050506040513d601f19601f82011682018060405250810190612e30919061466a565b11612e8f5760405162461bcd60e51b815260206004820152602960248201527f546f6b656e20746f74616c20737570706c79206d75737420626520677265617460448201526806572207468616e20360bc1b6064820152608401610d4c565b612e9b61271089613989565b612ea5848961106d565b612eaf8389612f91565b612eb987896110bb565b612ec3828961101f565b612ecd8589613805565b612ed786896139d7565b612ee18189611109565b612eec886001613e72565b5050505050505050565b612efe613b6c565b6064811115612f755760405162461bcd60e51b815260206004820152602c60248201527f50656e616c74792070657263656e74616765206d75737420626520626574776560448201527f656e203020616e642031303000000000000000000000000000000000000000006064820152608401610d4c565b6001600160a01b03909116600090815260116020526040902055565b612f99613b6c565b6001600160a01b0381166000818152600a60205260408082208590555184917f11ef1060a695a1277b08edcbb2c364d43d4eb52f1060daaabf0df445cb6cdfdf91a35050565b6000818152600360209081526040808320600481015490546001600160a01b03168452600690925282205461301481836145d1565b4210613024575060009392505050565b4261302f82846145d1565b61303991906145e4565b949350505050565b6002602052816000526040600020818154811061305d57600080fd5b90600052602060002001600091509150505481565b600081815260036020818152604080842081516101208101835281546001600160a01b0390811682526001830154811694820185905260028301549382019390935293810154606085015260048101546080850152600581015460a0850152600681015460c0850152600781015460e08501526008015460ff166101008401528516146131035760009150506136eb565b600081608001514261311591906145e4565b60408084015184516001600160a01b03166000908152600760205291822054929350919063bbf81e0061314883856145f7565b61315a90670de0b6b3a76400006145f7565b613164919061460e565b90506000670de0b6b3a764000061317b83876145f7565b613185919061460e565b86516001600160a01b0316600090815260136020908152604091829020548251808401909352601283527f626f6f737450657263656e7461676520313a0000000000000000000000000000918301919091529192506131e49082613e18565b6015546040516370a0823160e01b81526001600160a01b038c8116600483015260009216906370a0823190602401602060405180830381865afa15801561322f573d6000803e3d6000fd5b505050506040513d601f19601f82011682018060405250810190613253919061466a565b11156132805786516001600160a01b031660009081526009602052604090205461327d90826145d1565b90505b6132bf6040518060400160405280601281526020017f626f6f737450657263656e7461676520323a000000000000000000000000000081525082613e18565b6016546040516370a0823160e01b81526001600160a01b038c8116600483015260009216906370a0823190602401602060405180830381865afa15801561330a573d6000803e3d6000fd5b505050506040513d601f19601f8201168201806040525081019061332e919061466a565b11156135c2576016546040516370a0823160e01b81526001600160a01b038c8116600483015260009216906370a0823190602401602060405180830381865afa15801561337f573d6000803e3d6000fd5b505050506040513d601f19601f820116820180604052508101906133a3919061466a565b905060005b818110156135bf57601654604051632f745c5960e01b81526001600160a01b038e81166004830152602482018490526000921690632f745c5990604401602060405180830381865afa158015613402573d6000803e3d6000fd5b505050506040513d601f19601f82011682018060405250810190613426919061466a565b60165460405163032bbfbd60e21b815260048101839052600060248201819052600160448301529293506001600160a01b0390911690630caefef490606401602060405180830381865afa158015613482573d6000803e3d6000fd5b505050506040513d601f19601f820116820180604052508101906134a6919061466a565b9050806001146134b75750506135ad565b60165460405163032bbfbd60e21b81526004810184905260016024820152600260448201526000916001600160a01b031690630caefef490606401602060405180830381865afa15801561350f573d6000803e3d6000fd5b505050506040513d601f19601f82011682018060405250810190613533919061466a565b9050600081121561354657506000613553565b6064811315613553575060645b61355e8160646145f7565b61356890876145d1565b95506135a96040518060400160405280601281526020017f626f6f737450657263656e7461676520333a000000000000000000000000000081525087613e18565b5050505b806135b781614699565b9150506133a8565b50505b61010087015160ff16156135f55761010087015160ff166000908152601260205260409020546135f290826145d1565b90505b6136346040518060400160405280601281526020017f626f6f737450657263656e7461676520343a000000000000000000000000000081525082613e18565b6136736040518060400160405280601181526020017f726577617264207072652d626f6f73743a00000000000000000000000000000081525083613e18565b86516001600160a01b031660009081526013602052604090205461369782846145f7565b6136a1919061460e565b91506136e26040518060400160405280601281526020017f72657761726420706f73742d626f6f73743a000000000000000000000000000081525083613e18565b50955050505050505b92915050565b6136f9613b6c565b6001600160a01b03811661374f5760405162461bcd60e51b815260206004820152601a60248201527f6b4e465420616464726573732063616e6e6f74206265203078300000000000006044820152606401610d4c565b601680546001600160a01b0319166001600160a01b0383169081179091556040517fc8e08c5b2fa487609cdc92d5cfcc240f3c8fc73ac5e58fafc5d465d20aaaf31290600090a250565b6001600160a01b0381166000908152600260209081526040918290208054835181840281018401909452808452606093928301828280156137f957602002820191906000526020600020905b8154815260200190600101908083116137e5575b50505050509050919050565b61380d613b6c565b6001600160a01b03811660009081526013602052604090205482111561389b5760405162461bcd60e51b815260206004820152602760248201527f5769746864726177616c206665652063616e6e6f74206265206d6f726520746860448201527f616e2031303025000000000000000000000000000000000000000000000000006064820152608401610d4c565b6001600160a01b0381166000818152600860205260408082208590555184917f5d5169bb1fbf418e612b1934f181b6ce300a1aad27fdb0e6f6aadbd96f50bb8f91a35050565b6138e9613b6c565b6001600160a01b03811661393f5760405162461bcd60e51b815260206004820152601b60248201527f48656c697820616464726573732063616e6e6f742062652030783000000000006044820152606401610d4c565b601480546001600160a01b0319166001600160a01b0383169081179091556040517fdcbeffeaf77a19486e34d4b5fc3809913d1e7125a43b8dcdb17944ab2c17579090600090a250565b613991613b6c565b6001600160a01b0381166000818152601360205260408082208590555184917f6a437d814668577dce2f82ae56ed67161e12e20b59b9464687859d6a2ce0faa591a35050565b6139df613b6c565b6001600160a01b0381166000818152600660205260408082208590555184917fd0d3d840363c3a773f4578f92d7914f6b37985570c79ee2889d69d7d8f12c29591a35050565b613a2d613b6c565b6001600160a01b038116613a835760405162461bcd60e51b815260206004820152601e60248201527f547265617375727920616464726573732063616e6e6f742062652030783000006044820152606401610d4c565b601780546001600160a01b0319166001600160a01b0383169081179091556040517fafa147634b29e2c7bd53ce194256b9f41cfb9ba3036f2b822fdd1d965beea08690600090a250565b6001600160a01b0382166000908152600e602052604081208054859290613af59084906145d1565b90915550506001600160a01b038083166000908152600f6020908152604080832093851683529290529081208054859290613b319084906145d1565b9091555050505050565b6001600160a01b03811660009081526010602052604081208054849290613b639084906145d1565b90915550505050565b60008054906101000a90046001600160a01b03166001600160a01b0316630c340a246040518163ffffffff1660e01b8152600401602060405180830381865afa158015613bbd573d6000803e3d6000fd5b505050506040513d601f19601f82011682018060405250810190613be19190614630565b6001600160a01b0316336001600160a01b031614613c415760405162461bcd60e51b815260206004820152600c60248201527f554e415554484f52495a454400000000000000000000000000000000000000006044820152606401610d4c565b565b6001600160a01b0382166000908152600c6020526040902054831115613cd15760405162461bcd60e51b815260206004820152602560248201527f5374616b696e673a204e6f7420656e6f756768207374616b65642028436f6e7460448201527f72616374290000000000000000000000000000000000000000000000000000006064820152608401610d4c565b6001600160a01b038083166000908152600d6020908152604080832093851683529290522054831115613d505760405162461bcd60e51b815260206004820152602160248201527f5374616b696e673a204e6f7420656e6f756768207374616b65642028557365726044820152602960f81b6064820152608401610d4c565b6001600160a01b0382166000908152600c602052604081208054859290613d789084906145e4565b90915550506001600160a01b038083166000908152600d6020908152604080832093851683529290529081208054859290613b319084906145e4565b6001600160a01b0382166000908152600c602052604081208054859290613ddc9084906145d1565b90915550506001600160a01b038083166000908152600d6020908152604080832093851683529290529081208054859290613b319084906145d1565b612ac58282604051602401613e2e9291906146b2565b60408051601f198184030181529190526020810180517bffffffffffffffffffffffffffffffffffffffffffffffffffffffff16632d839cb360e21b179052614373565b6001600160a01b038216613ec85760405162461bcd60e51b815260206004820152601b60248201527f546f6b656e20616464726573732063616e6e6f742062652030783000000000006044820152606401610d4c565b80151560010361431f576001600160a01b038216600090815260076020526040902054613f475760405162461bcd60e51b815260206004820152602760248201527f526577617264732070657220686f7572206d75737420626520677265617465726044820152660207468616e20360cc1b6064820152608401610d4c565b6001600160a01b038216600090815260066020526040902054613fbe5760405162461bcd60e51b815260206004820152602960248201527f436f6d706f756e64206672657175656e6379206d75737420626520677265617460448201526806572207468616e20360bc1b6064820152608401610d4c565b6001600160a01b0382166000908152600860205260409020546140315760405162461bcd60e51b815260206004820152602560248201527f5769746864726177616c20666565206d75737420626520677265617465722074604482015264068616e20360dc1b6064820152608401610d4c565b6001600160a01b0382166000908152600960205260409020546140ab5760405162461bcd60e51b815260206004820152602c60248201527f466f756e646572732072657761726420626f6f7374206d75737420626520677260448201526b06561746572207468616e20360a41b6064820152608401610d4c565b6001600160a01b0382166000908152600a60205260409020546141215760405162461bcd60e51b815260206004820152602860248201527f6b4e46542072657761726420626f6f7374206d75737420626520677265617465604482015267072207468616e20360c41b6064820152608401610d4c565b6001600160a01b0382166000908152600b60205260409020546141865760405162461bcd60e51b815260206004820152601c60248201527f526174696f206d7573742062652067726561746572207468616e2030000000006044820152606401610d4c565b6001600160a01b0382166000908152600560205260409020546141f75760405162461bcd60e51b8152602060048201526024808201527f4d696e696d756d207374616b65206d75737420626520677265617465722074686044820152630616e20360e41b6064820152608401610d4c565b6001600160a01b03821660009081526013602052604090205461425c5760405162461bcd60e51b815260206004820152601e60248201527f44697669736f72206d7573742062652067726561746572207468616e203000006044820152606401610d4c565b6000826001600160a01b03166318160ddd6040518163ffffffff1660e01b8152600401602060405180830381865afa15801561429c573d6000803e3d6000fd5b505050506040513d601f19601f820116820180604052508101906142c0919061466a565b1161431f5760405162461bcd60e51b815260206004820152602960248201527f546f6b656e20746f74616c20737570706c79206d75737420626520677265617460448201526806572207468616e20360bc1b6064820152608401610d4c565b6001600160a01b038216600081815260046020526040808220805460ff191685151590811790915590519092917f59261974a183535ca20bb33ae77db42c679a079844739a2e10f0b6ecb847379a91a35050565b80516a636f6e736f6c652e6c6f67602083016000808483855afa5050505050565b6001600160a01b03811681146143a957600080fd5b50565b6000602082840312156143be57600080fd5b81356143c981614394565b9392505050565b6000602082840312156143e257600080fd5b5035919050565b600080604083850312156143fc57600080fd5b82359150602083013561440e81614394565b809150509250929050565b6000806040838503121561442c57600080fd5b50508035926020909101359150565b60008060006060848603121561445057600080fd5b83359250602084013560ff8116811461446857600080fd5b9150604084013561447881614394565b809150509250925092565b6000806040838503121561449657600080fd5b82356144a181614394565b9150602083013561440e81614394565b80151581146143a957600080fd5b600080604083850312156144d257600080fd5b82356144dd81614394565b9150602083013561440e816144b1565b600080600080600080600080610100898b03121561450a57600080fd5b883561451581614394565b9a60208a01359a5060408a013599606081013599506080810135985060a0810135975060c0810135965060e00135945092505050565b6000806040838503121561455e57600080fd5b823561456981614394565b946020939093013593505050565b6020808252825182820181905260009190848201906040850190845b818110156145af57835183529284019291840191600101614593565b50909695505050505050565b634e487b7160e01b600052601160045260246000fd5b808201808211156136eb576136eb6145bb565b818103818111156136eb576136eb6145bb565b80820281158282048414176136eb576136eb6145bb565b60008261462b57634e487b7160e01b600052601260045260246000fd5b500490565b60006020828403121561464257600080fd5b81516143c981614394565b60006020828403121561465f57600080fd5b81516143c9816144b1565b60006020828403121561467c57600080fd5b5051919050565b634e487b7160e01b600052602160045260246000fd5b6000600182016146ab576146ab6145bb565b5060010190565b604081526000835180604084015260005b818110156146e057602081870181015160608684010152016146c3565b506000606082850101526060601f19601f830116840101915050826020830152939250505056fea164736f6c6343000811000a",
  "devdoc": {
    "kind": "dev",
    "methods": {
      "addNewStakingToken(address,uint256,uint256,uint256,uint256,uint256,uint256,uint256)": {
        "details": "This function adds a new staking token with its parameters. Emits various events based on the setter functions called during token addition. Emits a {NewAuthorizedERC20} event at the end.",
        "params": {
          "_apr": "The rewards per hour for the new staking token.",
          "_compoundFreq": "The compound frequency for the new staking token.",
          "_foundersRewardBoost": "The founders reward boost for the new staking token.",
          "_kNFTRewardBoost": "The kNFT reward boost for the new staking token.",
          "_minStake": "The minimum stake for the new staking token.",
          "_ratio": "The ratio for the new staking token.",
          "_token": "The address of the new staking token.",
          "_withdrawalFee": "The withdrawal fee for the new staking token."
        }
      },
      "calculateRewards(address,uint256)": {
        "details": "This function calculates the rewards for a specified staker and deposit ID. The rewards calculation      considers the deposit's elapsed time, staked amount, and a 25% APY compounded hourly.      If the provided staker is not the owner of the deposit, the function returns 0.",
        "params": {
          "_depositId": "The ID of the deposit for which to calculate the rewards.",
          "_staker": "The address of the staker for which to calculate the rewards."
        },
        "returns": {
          "rewards": "The calculated rewards for the specified staker and deposit ID."
        }
      },
      "claimRewards(uint256)": {
        "details": "This function allows the owner of a deposit to claim their earned rewards.      It verifies that the caller is the deposit owner and that the timelock has passed.      The function calculates the rewards, resets the unclaimed rewards to zero, and updates the deposit record.      The reward tokens are burned, and the earned rewards are transferred to the user from the vault.      The function emits a Reward event upon successful execution.",
        "params": {
          "_depositId": "The ID of the deposit whose rewards are to be claimed."
        }
      },
      "compoundRewardsTimer(uint256)": {
        "details": "This function returns the remaining time until the next allowed compounding action for a given deposit ID.      It calculates the remaining time based on the compound frequency for the deposited token.      If the timer has already passed, it returns 0.",
        "params": {
          "_depositId": "The ID of the deposit for which to return the compound timer."
        },
        "returns": {
          "remainingTime": "The remaining time until the next allowed compounding action in seconds."
        }
      },
      "constructor": {
        "details": "Initializes the staking contract with the provided parameters.",
        "params": {
          "_authority": "The address of the authority contract.",
          "_helixERC20": "The address of the Helix ERC20 token contract. The constructor sets up the initial state of the staking contract by initializing contract variables, setting up default staking token parameters, and authorizing the Kondux ERC20 token for staking.",
          "_konduxERC20": "The address of the Kondux ERC20 token contract.",
          "_konduxERC721Founders": "The address of the Kondux ERC721 Founders token contract.",
          "_konduxERC721kNFT": "The address of the Kondux ERC721 kNFT token contract.",
          "_treasury": "The address of the treasury contract."
        }
      },
      "deposit(uint256,uint8,address)": {
        "details": "This function allows a user to deposit a specified amount of an authorized token with a selected timelock period.      The function checks the user's token balance, allowance, and the timelock value before proceeding.      It then creates a new deposit record, sets the timelock based on the selected category, and updates the user's      deposit list and total staked amount. The specified amount of tokens is transferred from the user to the vault,      and an equivalent amount of reward tokens is minted for the user.",
        "params": {
          "_amount": "The amount of tokens to deposit.",
          "_timelock": "The timelock category, represented as an integer (0-4).",
          "_token": "The address of the token contract."
        },
        "returns": {
          "_0": "_id The deposit ID assigned to this deposit."
        }
      },
      "getAPR(address)": {
        "details": "This function returns the APR for the specified token.",
        "params": {
          "_tokenId": "The address of the token for which the rewards per hour are requested."
        },
        "returns": {
          "_rewardsPerHour": "The rewards per hour for the specified token."
        }
      },
      "getDepositIds(address)": {
        "details": "This function returns the deposit IDs for the specified user.",
        "params": {
          "_user": "The address of the user for which the deposit IDs are requested."
        },
        "returns": {
          "_0": "An array of deposit IDs for the specified user."
        }
      },
      "getDepositInfo(uint256)": {
        "details": "This function retrieves the deposit information for a given deposit ID. It returns the staked amount      and the earned rewards (including unclaimed rewards) for the specified deposit.",
        "params": {
          "_depositId": "The ID of the deposit for which to retrieve the information."
        },
        "returns": {
          "_stake": "The staked amount for the specified deposit.",
          "_unclaimedRewards": "The earned rewards (including unclaimed rewards) for the specified deposit."
        }
      },
      "getDepositTimestamp(uint256)": {
        "details": "This function returns the timestamp of the deposit with the specified ID.",
        "params": {
          "_depositId": "The id of the deposit for which the timestamp is requested."
        },
        "returns": {
          "_depositTimestamp": "The timestamp of the deposit"
        }
      },
      "getDivisorERC20(address)": {
        "details": "This function returns the divisor for the specified token.",
        "params": {
          "_token": "The address of the token for which the divisor is requested."
        },
        "returns": {
          "_0": "The divisor for the specified token."
        }
      },
      "getEarlyWithdrawalPenalty(address)": {
        "details": "This function returns the penalty for early withdrawal for the specified token in basis points. (X% = X * 100)",
        "params": {
          "token": "The address of the token for which the penalty is requested."
        },
        "returns": {
          "_0": "The penalty for early withdrawal for the specified token in basis points."
        }
      },
      "getFoundersRewardBoost(address)": {
        "details": "This function returns the Founder's reward boost for the specified token.",
        "params": {
          "_tokenId": "The address of the token for which the Founder's reward boost is requested."
        },
        "returns": {
          "_foundersRewardBoost": "The Founder's reward boost for the specified token."
        }
      },
      "getMinStake(address)": {
        "details": "This function returns the minimum stake for the specified token.",
        "params": {
          "_tokenId": "The address of the token for which the minimum stake is requested."
        },
        "returns": {
          "_minStake": "The minimum stake for the specified token."
        }
      },
      "getStakedAmount(uint256)": {
        "details": "This function returns the staked amount for the specified deposit ID.",
        "params": {
          "_depositId": "The ID of the deposit for which the staked amount is requested."
        },
        "returns": {
          "_deposited": "The staked amount for the specified deposit ID."
        }
      },
      "getTimeOfLastUpdate(uint256)": {
        "details": "This function returns the time of the last update for the specified deposit ID.",
        "params": {
          "_depositId": "The ID of the deposit for which the time of the last update is requested."
        },
        "returns": {
          "_timeOfLastUpdate": "The time of the last update for the specified deposit ID."
        }
      },
      "getTimelock(uint256)": {
        "details": "This function returns the timelock for the specified deposit ID.",
        "params": {
          "_depositId": "The ID of the deposit for which the timelock is requested."
        },
        "returns": {
          "_timelock": "The timelock for the specified deposit ID."
        }
      },
      "getTimelockCategory(uint256)": {
        "details": "This function returns the timelock category for the specified deposit ID.",
        "params": {
          "_depositId": "The ID of the deposit for which the timelock category is requested."
        },
        "returns": {
          "_timelockCategory": "The timelock category for the specified deposit ID."
        }
      },
      "getTimelockCategoryBoost(uint256)": {
        "details": "This function returns the timelock category boost for the specified category.",
        "params": {
          "_category": "The category for which the timelock category boost is requested."
        },
        "returns": {
          "_0": "The timelock category boost for the specified category."
        }
      },
      "getTotalRewards(address)": {
        "details": "This function returns the total rewards earned for a specific token.",
        "params": {
          "_token": "The address of the token contract."
        },
        "returns": {
          "_totalRewards": "The total rewards earned for the given token."
        }
      },
      "getTotalStaked(address)": {
        "details": "This function returns the total amount staked for a specific token.",
        "params": {
          "_token": "The address of the token contract."
        },
        "returns": {
          "_totalStaked": "The total amount staked for the given token."
        }
      },
      "getTotalWithdrawalFees(address)": {
        "details": "This function returns the total withdrawal fees for a specific token.",
        "params": {
          "_token": "The address of the token contract."
        },
        "returns": {
          "_totalWithdrawalFees": "The total withdrawal fees for the given token."
        }
      },
      "getUserTotalRewardsByCoin(address,address)": {
        "details": "This function returns the total rewards earned by a specific user for a specific token.",
        "params": {
          "_token": "The address of the token contract.",
          "_user": "The address of the user."
        },
        "returns": {
          "_totalRewards": "The total rewards earned by the user for the given token."
        }
      },
      "getUserTotalStakedByCoin(address,address)": {
        "details": "This function returns the total amount staked by a specific user for a specific token.",
        "params": {
          "_token": "The address of the token contract.",
          "_user": "The address of the user."
        },
        "returns": {
          "_totalStaked": "The total amount staked by the user for the given token."
        }
      },
      "getWithdrawalFee(address)": {
        "details": "This function returns the withdrawal fee for the specified token.",
        "params": {
          "_tokenId": "The address of the token for which the withdrawal fee is requested."
        },
        "returns": {
          "_withdrawalFee": "The withdrawal fee for the specified token."
        }
      },
      "getkNFTRewardBoost(address)": {
        "details": "This function returns the kNFT reward boost for the specified token.",
        "params": {
          "_tokenId": "The address of the token for which the kNFT reward boost is requested."
        },
        "returns": {
          "_kNFTRewardBoost": "The kNFT reward boost for the specified token."
        }
      },
      "setAPR(uint256,address)": {
        "details": "This function sets the APR for a specified token.",
        "params": {
          "_apr": "The rewards per hour value to be set, as x% APR. (e.g. 25 = 25%)",
          "_tokenId": "The address of the token for which to set the rewards per hour."
        }
      },
      "setAuthorizedERC20(address,bool)": {
        "details": "This function sets whether an ERC20 token is authorized as a staking currency. Emits a {NewAuthorizedERC20} event.",
        "params": {
          "_authorized": "True to authorize the token, false to deauthorize.",
          "_token": "The address of the token to be authorized or deauthorized."
        }
      },
      "setCompoundFreq(uint256,address)": {
        "details": "This function sets the compound frequency for a specified token.",
        "params": {
          "_compoundFreq": "The compound frequency value to be set.",
          "_tokenId": "The address of the token for which to set the compound frequency."
        }
      },
      "setDivisorERC20(uint256,address)": {
        "details": "This function sets the divisor for a specified token.",
        "params": {
          "_divisor": "The divisor value to be set.",
          "_tokenId": "The address of the token for which to set the divisor."
        }
      },
      "setEarlyWithdrawalPenalty(address,uint256)": {
        "details": "This function sets the penalty percentage for early withdrawal of a specified token.",
        "params": {
          "penaltyPercentage": "The penalty percentage value to be set. Must be between 0 and 100. ",
          "token": "The address of the token for which to set the penalty percentage."
        }
      },
      "setFoundersRewardBoost(uint256,address)": {
        "details": "This function sets the founders reward boost for a specified token.",
        "params": {
          "_foundersRewardBoost": "The founders reward boost value to be set.",
          "_tokenId": "The address of the token for which to set the founders reward boost."
        }
      },
      "setHelixERC20(address)": {
        "details": "This function sets the address of the Helix ERC20 contract.",
        "params": {
          "_helix": "The address of the Helix ERC20 contract."
        }
      },
      "setKonduxERC721Founders(address)": {
        "details": "This function sets the address of the konduxERC721Founders contract.",
        "params": {
          "_konduxERC721Founders": "The address of the konduxERC721Founders contract."
        }
      },
      "setKonduxERC721kNFT(address)": {
        "details": "This function sets the address of the konduxERC721kNFT contract.",
        "params": {
          "_konduxERC721kNFT": "The address of the konduxERC721kNFT contract."
        }
      },
      "setMinStake(uint256,address)": {
        "details": "This function sets the minimum staking amount for a specified token.",
        "params": {
          "_minStake": "The minimum staking amount to be set, in wei.",
          "_tokenId": "The address of the token for which to set the minimum staking amount."
        }
      },
      "setRatio(uint256,address)": {
        "details": "This function sets the ratio for a specified ERC20 token.",
        "params": {
          "_ratio": "The ratio value to be set.",
          "_tokenId": "The address of the token for which to set the ratio."
        }
      },
      "setTimelockCategoryBoost(uint256,uint256)": {
        "details": "This function sets the timelock category boost for a specified category.",
        "params": {
          "_boost": "The boost value to be set.",
          "_category": "The category for which to set the boost."
        }
      },
      "setTreasury(address)": {
        "details": "This function sets the address of the Treasury contract.",
        "params": {
          "_treasury": "The address of the Treasury contract."
        }
      },
      "setWithdrawalFee(uint256,address)": {
        "details": "This function sets the withdrawal fee for a specified token.",
        "params": {
          "_tokenId": "The address of the token for which to set the withdrawal fee.",
          "_withdrawalFee": "The withdrawal fee value to be set."
        }
      },
      "setkNFTRewardBoost(uint256,address)": {
        "details": "This function sets the kNFT reward boost for a specified token.",
        "params": {
          "_kNFTRewardBoost": "The kNFT reward boost value to be set.",
          "_tokenId": "The address of the token for which to set the kNFT reward boost."
        }
      },
      "stakeRewards(uint256)": {
        "details": "This function allows the owner of a deposit to stake their earned rewards.      It verifies that the caller is the deposit owner and that the compounding is not happening too soon.      The function calculates the rewards, resets the unclaimed rewards to zero, and updates the deposit record.      The total staked amount is updated, and an equivalent amount of reward tokens is minted for the user.",
        "params": {
          "_depositId": "The ID of the deposit whose rewards are to be staked."
        }
      },
      "withdraw(uint256,uint256)": {
        "details": "This function allows the owner of a deposit to withdraw a specified amount of their deposited tokens.      It verifies that the timelock has passed, the caller is the deposit owner, and the withdrawal amount      is within the available limits. The function calculates the rewards, updates the deposit record, and      transfers the liquid amount to the user after applying the withdrawal fee. The collateral tokens are burned.      The function emits a Withdraw event upon successful execution.",
        "params": {
          "_amount": "The amount of tokens to withdraw.",
          "_depositId": "The ID of the deposit from which to withdraw the tokens."
        }
      },
      "withdrawAndClaim(uint256,uint256)": {
        "details": "This function allows the owner of a deposit to withdraw a specified amount of their deposited tokens      and claim their earned rewards in a single transaction. It calls the withdraw and claimRewards functions.",
        "params": {
          "_amount": "The amount of tokens to withdraw.",
          "_depositId": "The ID of the deposit from which to withdraw the tokens and claim the rewards."
        }
      },
      "withdrawBeforeTimelock(uint256,uint256)": {
        "details": "This function allows the owner of a deposit to withdraw a specified amount of their deposited tokens      before the timelock has passed. The user is punished by not receiving any reward boosts and paying an extra      fee proportional to the time left until the lock (the closer to the end of the locking time, the smaller the fee,      starting at 10%).      It verifies that the caller is the deposit owner, and the withdrawal amount is within the available limits.      The function calculates the rewards, updates the deposit record, and transfers the liquid amount to the user      after applying the extra fee and withdrawal fee. The collateral tokens are burned.      The function emits a Withdraw event upon successful execution.",
        "params": {
          "_amount": "The amount of tokens to withdraw.",
          "_depositId": "The ID of the deposit from which to withdraw the tokens."
        }
      }
    },
    "version": 1
  },
  "userdoc": {
    "kind": "user",
    "methods": {},
    "version": 1
  },
  "storageLayout": {
    "storage": [
      {
        "astId": 3346,
        "contract": "contracts/Staking.sol:Staking",
        "label": "authority",
        "offset": 0,
        "slot": "0",
        "type": "t_contract(IAuthority)3169"
      },
      {
        "astId": 330,
        "contract": "contracts/Staking.sol:Staking",
        "label": "_depositIds",
        "offset": 0,
        "slot": "1",
        "type": "t_struct(Counter)230_storage"
      },
      {
        "astId": 362,
        "contract": "contracts/Staking.sol:Staking",
        "label": "userDepositsIds",
        "offset": 0,
        "slot": "2",
        "type": "t_mapping(t_address,t_array(t_uint256)dyn_storage)"
      },
      {
        "astId": 367,
        "contract": "contracts/Staking.sol:Staking",
        "label": "userDeposits",
        "offset": 0,
        "slot": "3",
        "type": "t_mapping(t_uint256,t_struct(Staker)349_storage)"
      },
      {
        "astId": 371,
        "contract": "contracts/Staking.sol:Staking",
        "label": "authorizedERC20",
        "offset": 0,
        "slot": "4",
        "type": "t_mapping(t_address,t_bool)"
      },
      {
        "astId": 375,
        "contract": "contracts/Staking.sol:Staking",
        "label": "minStakeERC20",
        "offset": 0,
        "slot": "5",
        "type": "t_mapping(t_address,t_uint256)"
      },
      {
        "astId": 379,
        "contract": "contracts/Staking.sol:Staking",
        "label": "compoundFreqERC20",
        "offset": 0,
        "slot": "6",
        "type": "t_mapping(t_address,t_uint256)"
      },
      {
        "astId": 383,
        "contract": "contracts/Staking.sol:Staking",
        "label": "aprERC20",
        "offset": 0,
        "slot": "7",
        "type": "t_mapping(t_address,t_uint256)"
      },
      {
        "astId": 387,
        "contract": "contracts/Staking.sol:Staking",
        "label": "withdrawalFeeERC20",
        "offset": 0,
        "slot": "8",
        "type": "t_mapping(t_address,t_uint256)"
      },
      {
        "astId": 391,
        "contract": "contracts/Staking.sol:Staking",
        "label": "foundersRewardBoostERC20",
        "offset": 0,
        "slot": "9",
        "type": "t_mapping(t_address,t_uint256)"
      },
      {
        "astId": 395,
        "contract": "contracts/Staking.sol:Staking",
        "label": "kNFTRewardBoostERC20",
        "offset": 0,
        "slot": "10",
        "type": "t_mapping(t_address,t_uint256)"
      },
      {
        "astId": 399,
        "contract": "contracts/Staking.sol:Staking",
        "label": "ratioERC20",
        "offset": 0,
        "slot": "11",
        "type": "t_mapping(t_address,t_uint256)"
      },
      {
        "astId": 403,
        "contract": "contracts/Staking.sol:Staking",
        "label": "totalStaked",
        "offset": 0,
        "slot": "12",
        "type": "t_mapping(t_address,t_uint256)"
      },
      {
        "astId": 409,
        "contract": "contracts/Staking.sol:Staking",
        "label": "userTotalStakedByCoin",
        "offset": 0,
        "slot": "13",
        "type": "t_mapping(t_address,t_mapping(t_address,t_uint256))"
      },
      {
        "astId": 413,
        "contract": "contracts/Staking.sol:Staking",
        "label": "totalRewarded",
        "offset": 0,
        "slot": "14",
        "type": "t_mapping(t_address,t_uint256)"
      },
      {
        "astId": 419,
        "contract": "contracts/Staking.sol:Staking",
        "label": "userTotalRewardedByCoin",
        "offset": 0,
        "slot": "15",
        "type": "t_mapping(t_address,t_mapping(t_address,t_uint256))"
      },
      {
        "astId": 423,
        "contract": "contracts/Staking.sol:Staking",
        "label": "totalWithdrawalFees",
        "offset": 0,
        "slot": "16",
        "type": "t_mapping(t_address,t_uint256)"
      },
      {
        "astId": 427,
        "contract": "contracts/Staking.sol:Staking",
        "label": "earlyWithdrawalPenalty",
        "offset": 0,
        "slot": "17",
        "type": "t_mapping(t_address,t_uint256)"
      },
      {
        "astId": 431,
        "contract": "contracts/Staking.sol:Staking",
        "label": "timelockCategoryBoost",
        "offset": 0,
        "slot": "18",
        "type": "t_mapping(t_uint256,t_uint256)"
      },
      {
        "astId": 435,
        "contract": "contracts/Staking.sol:Staking",
        "label": "divisorERC20",
        "offset": 0,
        "slot": "19",
        "type": "t_mapping(t_address,t_uint256)"
      },
      {
        "astId": 438,
        "contract": "contracts/Staking.sol:Staking",
        "label": "helixERC20",
        "offset": 0,
        "slot": "20",
        "type": "t_contract(IHelix)3207"
      },
      {
        "astId": 441,
        "contract": "contracts/Staking.sol:Staking",
        "label": "konduxERC721Founders",
        "offset": 0,
        "slot": "21",
        "type": "t_contract(IERC721)193"
      },
      {
        "astId": 443,
        "contract": "contracts/Staking.sol:Staking",
        "label": "konduxERC721kNFT",
        "offset": 0,
        "slot": "22",
        "type": "t_address"
      },
      {
        "astId": 446,
        "contract": "contracts/Staking.sol:Staking",
        "label": "treasury",
        "offset": 0,
        "slot": "23",
        "type": "t_contract(ITreasury)3334"
      }
    ],
    "types": {
      "t_address": {
        "encoding": "inplace",
        "label": "address",
        "numberOfBytes": "20"
      },
      "t_array(t_uint256)dyn_storage": {
        "base": "t_uint256",
        "encoding": "dynamic_array",
        "label": "uint256[]",
        "numberOfBytes": "32"
      },
      "t_bool": {
        "encoding": "inplace",
        "label": "bool",
        "numberOfBytes": "1"
      },
      "t_contract(IAuthority)3169": {
        "encoding": "inplace",
        "label": "contract IAuthority",
        "numberOfBytes": "20"
      },
      "t_contract(IERC721)193": {
        "encoding": "inplace",
        "label": "contract IERC721",
        "numberOfBytes": "20"
      },
      "t_contract(IHelix)3207": {
        "encoding": "inplace",
        "label": "contract IHelix",
        "numberOfBytes": "20"
      },
      "t_contract(ITreasury)3334": {
        "encoding": "inplace",
        "label": "contract ITreasury",
        "numberOfBytes": "20"
      },
      "t_mapping(t_address,t_array(t_uint256)dyn_storage)": {
        "encoding": "mapping",
        "key": "t_address",
        "label": "mapping(address => uint256[])",
        "numberOfBytes": "32",
        "value": "t_array(t_uint256)dyn_storage"
      },
      "t_mapping(t_address,t_bool)": {
        "encoding": "mapping",
        "key": "t_address",
        "label": "mapping(address => bool)",
        "numberOfBytes": "32",
        "value": "t_bool"
      },
      "t_mapping(t_address,t_mapping(t_address,t_uint256))": {
        "encoding": "mapping",
        "key": "t_address",
        "label": "mapping(address => mapping(address => uint256))",
        "numberOfBytes": "32",
        "value": "t_mapping(t_address,t_uint256)"
      },
      "t_mapping(t_address,t_uint256)": {
        "encoding": "mapping",
        "key": "t_address",
        "label": "mapping(address => uint256)",
        "numberOfBytes": "32",
        "value": "t_uint256"
      },
      "t_mapping(t_uint256,t_struct(Staker)349_storage)": {
        "encoding": "mapping",
        "key": "t_uint256",
        "label": "mapping(uint256 => struct Staking.Staker)",
        "numberOfBytes": "32",
        "value": "t_struct(Staker)349_storage"
      },
      "t_mapping(t_uint256,t_uint256)": {
        "encoding": "mapping",
        "key": "t_uint256",
        "label": "mapping(uint256 => uint256)",
        "numberOfBytes": "32",
        "value": "t_uint256"
      },
      "t_struct(Counter)230_storage": {
        "encoding": "inplace",
        "label": "struct Counters.Counter",
        "members": [
          {
            "astId": 229,
            "contract": "contracts/Staking.sol:Staking",
            "label": "_value",
            "offset": 0,
            "slot": "0",
            "type": "t_uint256"
          }
        ],
        "numberOfBytes": "32"
      },
      "t_struct(Staker)349_storage": {
        "encoding": "inplace",
        "label": "struct Staking.Staker",
        "members": [
          {
            "astId": 332,
            "contract": "contracts/Staking.sol:Staking",
            "label": "token",
            "offset": 0,
            "slot": "0",
            "type": "t_address"
          },
          {
            "astId": 334,
            "contract": "contracts/Staking.sol:Staking",
            "label": "staker",
            "offset": 0,
            "slot": "1",
            "type": "t_address"
          },
          {
            "astId": 336,
            "contract": "contracts/Staking.sol:Staking",
            "label": "deposited",
            "offset": 0,
            "slot": "2",
            "type": "t_uint256"
          },
          {
            "astId": 338,
            "contract": "contracts/Staking.sol:Staking",
            "label": "redeemed",
            "offset": 0,
            "slot": "3",
            "type": "t_uint256"
          },
          {
            "astId": 340,
            "contract": "contracts/Staking.sol:Staking",
            "label": "timeOfLastUpdate",
            "offset": 0,
            "slot": "4",
            "type": "t_uint256"
          },
          {
            "astId": 342,
            "contract": "contracts/Staking.sol:Staking",
            "label": "lastDepositTime",
            "offset": 0,
            "slot": "5",
            "type": "t_uint256"
          },
          {
            "astId": 344,
            "contract": "contracts/Staking.sol:Staking",
            "label": "unclaimedRewards",
            "offset": 0,
            "slot": "6",
            "type": "t_uint256"
          },
          {
            "astId": 346,
            "contract": "contracts/Staking.sol:Staking",
            "label": "timelock",
            "offset": 0,
            "slot": "7",
            "type": "t_uint256"
          },
          {
            "astId": 348,
            "contract": "contracts/Staking.sol:Staking",
            "label": "timelockCategory",
            "offset": 0,
            "slot": "8",
            "type": "t_uint8"
          }
        ],
        "numberOfBytes": "288"
      },
      "t_uint256": {
        "encoding": "inplace",
        "label": "uint256",
        "numberOfBytes": "32"
      },
      "t_uint8": {
        "encoding": "inplace",
        "label": "uint8",
        "numberOfBytes": "1"
      }
    }
  }
}