{
  "address": "0xc7b517E011121a85a3C3de15F86866BD91dCab2e",
  "abi": [
    {
      "inputs": [
        {
          "internalType": "address",
          "name": "_authority",
          "type": "address"
        },
        {
          "internalType": "address",
          "name": "_konduxERC20",
          "type": "address"
        },
        {
          "internalType": "address",
          "name": "_treasury",
          "type": "address"
        },
        {
          "internalType": "address",
          "name": "_konduxERC721Founders",
          "type": "address"
        },
        {
          "internalType": "address",
          "name": "_konduxERC721kNFT",
          "type": "address"
        },
        {
          "internalType": "address",
          "name": "_helixERC20",
          "type": "address"
        }
      ],
      "stateMutability": "nonpayable",
      "type": "constructor"
    },
    {
      "anonymous": false,
      "inputs": [
        {
          "indexed": false,
          "internalType": "contract IAuthority",
          "name": "authority",
          "type": "address"
        }
      ],
      "name": "AuthorityUpdated",
      "type": "event"
    },
    {
      "anonymous": false,
      "inputs": [
        {
          "indexed": true,
          "internalType": "address",
          "name": "staker",
          "type": "address"
        },
        {
          "indexed": false,
          "internalType": "uint256",
          "name": "amount",
          "type": "uint256"
        }
      ],
      "name": "Compound",
      "type": "event"
    },
    {
      "anonymous": false,
      "inputs": [
        {
          "indexed": true,
          "internalType": "uint256",
          "name": "amount",
          "type": "uint256"
        },
        {
          "indexed": true,
          "internalType": "address",
          "name": "token",
          "type": "address"
        }
      ],
      "name": "NewAPR",
      "type": "event"
    },
    {
      "anonymous": false,
      "inputs": [
        {
          "indexed": true,
          "internalType": "address",
          "name": "token",
          "type": "address"
        },
        {
          "indexed": true,
          "internalType": "bool",
          "name": "authorized",
          "type": "bool"
        }
      ],
      "name": "NewAuthorizedERC20",
      "type": "event"
    },
    {
      "anonymous": false,
      "inputs": [
        {
          "indexed": true,
          "internalType": "uint256",
          "name": "amount",
          "type": "uint256"
        },
        {
          "indexed": true,
          "internalType": "address",
          "name": "token",
          "type": "address"
        }
      ],
      "name": "NewCompoundFreq",
      "type": "event"
    },
    {
      "anonymous": false,
      "inputs": [
        {
          "indexed": true,
          "internalType": "uint256",
          "name": "amount",
          "type": "uint256"
        },
        {
          "indexed": true,
          "internalType": "address",
          "name": "token",
          "type": "address"
        }
      ],
      "name": "NewDivisorERC20",
      "type": "event"
    },
    {
      "anonymous": false,
      "inputs": [
        {
          "indexed": true,
          "internalType": "uint256",
          "name": "amount",
          "type": "uint256"
        },
        {
          "indexed": true,
          "internalType": "address",
          "name": "token",
          "type": "address"
        }
      ],
      "name": "NewFoundersRewardBoost",
      "type": "event"
    },
    {
      "anonymous": false,
      "inputs": [
        {
          "indexed": true,
          "internalType": "address",
          "name": "helixERC20",
          "type": "address"
        }
      ],
      "name": "NewHelixERC20",
      "type": "event"
    },
    {
      "anonymous": false,
      "inputs": [
        {
          "indexed": true,
          "internalType": "uint256",
          "name": "amount",
          "type": "uint256"
        },
        {
          "indexed": true,
          "internalType": "address",
          "name": "token",
          "type": "address"
        }
      ],
      "name": "NewKNFTRewardBoost",
      "type": "event"
    },
    {
      "anonymous": false,
      "inputs": [
        {
          "indexed": true,
          "internalType": "address",
          "name": "konduxERC721Founders",
          "type": "address"
        }
      ],
      "name": "NewKonduxERC721Founders",
      "type": "event"
    },
    {
      "anonymous": false,
      "inputs": [
        {
          "indexed": true,
          "internalType": "address",
          "name": "konduxERC721kNFT",
          "type": "address"
        }
      ],
      "name": "NewKonduxERC721kNFT",
      "type": "event"
    },
    {
      "anonymous": false,
      "inputs": [
        {
          "indexed": true,
          "internalType": "uint256",
          "name": "amount",
          "type": "uint256"
        },
        {
          "indexed": true,
          "internalType": "address",
          "name": "token",
          "type": "address"
        }
      ],
      "name": "NewMinStake",
      "type": "event"
    },
    {
      "anonymous": false,
      "inputs": [
        {
          "indexed": true,
          "internalType": "uint256",
          "name": "amount",
          "type": "uint256"
        },
        {
          "indexed": true,
          "internalType": "address",
          "name": "token",
          "type": "address"
        }
      ],
      "name": "NewRatio",
      "type": "event"
    },
    {
      "anonymous": false,
      "inputs": [
        {
          "indexed": true,
          "internalType": "address",
          "name": "treasury",
          "type": "address"
        }
      ],
      "name": "NewTreasury",
      "type": "event"
    },
    {
      "anonymous": false,
      "inputs": [
        {
          "indexed": true,
          "internalType": "uint256",
          "name": "amount",
          "type": "uint256"
        },
        {
          "indexed": true,
          "internalType": "address",
          "name": "token",
          "type": "address"
        }
      ],
      "name": "NewWithdrawalFee",
      "type": "event"
    },
    {
      "anonymous": false,
      "inputs": [
        {
          "indexed": true,
          "internalType": "address",
          "name": "staker",
          "type": "address"
        },
        {
          "indexed": false,
          "internalType": "uint256",
          "name": "amount",
          "type": "uint256"
        }
      ],
      "name": "Reward",
      "type": "event"
    },
    {
      "anonymous": false,
      "inputs": [
        {
          "indexed": true,
          "internalType": "uint256",
          "name": "id",
          "type": "uint256"
        },
        {
          "indexed": true,
          "internalType": "address",
          "name": "staker",
          "type": "address"
        },
        {
          "indexed": false,
          "internalType": "address",
          "name": "token",
          "type": "address"
        },
        {
          "indexed": false,
          "internalType": "uint256",
          "name": "amount",
          "type": "uint256"
        }
      ],
      "name": "Stake",
      "type": "event"
    },
    {
      "anonymous": false,
      "inputs": [
        {
          "indexed": true,
          "internalType": "address",
          "name": "staker",
          "type": "address"
        },
        {
          "indexed": false,
          "internalType": "uint256",
          "name": "amount",
          "type": "uint256"
        }
      ],
      "name": "Unstake",
      "type": "event"
    },
    {
      "anonymous": false,
      "inputs": [
        {
          "indexed": true,
          "internalType": "address",
          "name": "staker",
          "type": "address"
        },
        {
          "indexed": false,
          "internalType": "uint256",
          "name": "amount",
          "type": "uint256"
        }
      ],
      "name": "Withdraw",
      "type": "event"
    },
    {
      "anonymous": false,
      "inputs": [
        {
          "indexed": true,
          "internalType": "address",
          "name": "staker",
          "type": "address"
        },
        {
          "indexed": false,
          "internalType": "uint256",
          "name": "amount",
          "type": "uint256"
        }
      ],
      "name": "WithdrawAll",
      "type": "event"
    },
    {
      "inputs": [
        {
          "internalType": "address",
          "name": "_token",
          "type": "address"
        },
        {
          "internalType": "uint256",
          "name": "_apr",
          "type": "uint256"
        },
        {
          "internalType": "uint256",
          "name": "_compoundFreq",
          "type": "uint256"
        },
        {
          "internalType": "uint256",
          "name": "_withdrawalFee",
          "type": "uint256"
        },
        {
          "internalType": "uint256",
          "name": "_foundersRewardBoost",
          "type": "uint256"
        },
        {
          "internalType": "uint256",
          "name": "_kNFTRewardBoost",
          "type": "uint256"
        },
        {
          "internalType": "uint256",
          "name": "_ratio",
          "type": "uint256"
        },
        {
          "internalType": "uint256",
          "name": "_minStake",
          "type": "uint256"
        }
      ],
      "name": "addNewStakingToken",
      "outputs": [],
      "stateMutability": "nonpayable",
      "type": "function"
    },
    {
      "inputs": [
        {
          "internalType": "uint256",
          "name": "",
          "type": "uint256"
        }
      ],
      "name": "allowedDnaVersions",
      "outputs": [
        {
          "internalType": "bool",
          "name": "",
          "type": "bool"
        }
      ],
      "stateMutability": "view",
      "type": "function"
    },
    {
      "inputs": [
        {
          "internalType": "address",
          "name": "",
          "type": "address"
        }
      ],
      "name": "aprERC20",
      "outputs": [
        {
          "internalType": "uint256",
          "name": "",
          "type": "uint256"
        }
      ],
      "stateMutability": "view",
      "type": "function"
    },
    {
      "inputs": [],
      "name": "authority",
      "outputs": [
        {
          "internalType": "contract IAuthority",
          "name": "",
          "type": "address"
        }
      ],
      "stateMutability": "view",
      "type": "function"
    },
    {
      "inputs": [
        {
          "internalType": "address",
          "name": "",
          "type": "address"
        }
      ],
      "name": "authorizedERC20",
      "outputs": [
        {
          "internalType": "bool",
          "name": "",
          "type": "bool"
        }
      ],
      "stateMutability": "view",
      "type": "function"
    },
    {
      "inputs": [
        {
          "internalType": "address",
          "name": "_staker",
          "type": "address"
        },
        {
          "internalType": "uint256",
          "name": "_depositId",
          "type": "uint256"
        }
      ],
      "name": "calculateRewards",
      "outputs": [
        {
          "internalType": "uint256",
          "name": "rewards",
          "type": "uint256"
        }
      ],
      "stateMutability": "view",
      "type": "function"
    },
    {
      "inputs": [
        {
          "internalType": "uint256",
          "name": "_depositId",
          "type": "uint256"
        }
      ],
      "name": "claimRewards",
      "outputs": [],
      "stateMutability": "nonpayable",
      "type": "function"
    },
    {
      "inputs": [
        {
          "internalType": "address",
          "name": "",
          "type": "address"
        }
      ],
      "name": "compoundFreqERC20",
      "outputs": [
        {
          "internalType": "uint256",
          "name": "",
          "type": "uint256"
        }
      ],
      "stateMutability": "view",
      "type": "function"
    },
    {
      "inputs": [
        {
          "internalType": "uint256",
          "name": "_depositId",
          "type": "uint256"
        }
      ],
      "name": "compoundRewardsTimer",
      "outputs": [
        {
          "internalType": "uint256",
          "name": "remainingTime",
          "type": "uint256"
        }
      ],
      "stateMutability": "view",
      "type": "function"
    },
    {
      "inputs": [
        {
          "internalType": "address",
          "name": "",
          "type": "address"
        }
      ],
      "name": "decimalsERC20",
      "outputs": [
        {
          "internalType": "uint8",
          "name": "",
          "type": "uint8"
        }
      ],
      "stateMutability": "view",
      "type": "function"
    },
    {
      "inputs": [
        {
          "internalType": "uint256",
          "name": "_amount",
          "type": "uint256"
        },
        {
          "internalType": "uint8",
          "name": "_timelock",
          "type": "uint8"
        },
        {
          "internalType": "address",
          "name": "_token",
          "type": "address"
        }
      ],
      "name": "deposit",
      "outputs": [
        {
          "internalType": "uint256",
          "name": "",
          "type": "uint256"
        }
      ],
      "stateMutability": "nonpayable",
      "type": "function"
    },
    {
      "inputs": [
        {
          "internalType": "address",
          "name": "",
          "type": "address"
        }
      ],
      "name": "divisorERC20",
      "outputs": [
        {
          "internalType": "uint256",
          "name": "",
          "type": "uint256"
        }
      ],
      "stateMutability": "view",
      "type": "function"
    },
    {
      "inputs": [
        {
          "internalType": "address",
          "name": "",
          "type": "address"
        }
      ],
      "name": "earlyWithdrawalPenalty",
      "outputs": [
        {
          "internalType": "uint256",
          "name": "",
          "type": "uint256"
        }
      ],
      "stateMutability": "view",
      "type": "function"
    },
    {
      "inputs": [
        {
          "internalType": "address",
          "name": "",
          "type": "address"
        }
      ],
      "name": "foundersRewardBoostERC20",
      "outputs": [
        {
          "internalType": "uint256",
          "name": "",
          "type": "uint256"
        }
      ],
      "stateMutability": "view",
      "type": "function"
    },
    {
      "inputs": [
        {
          "internalType": "address",
          "name": "_tokenId",
          "type": "address"
        }
      ],
      "name": "getAPR",
      "outputs": [
        {
          "internalType": "uint256",
          "name": "_rewardsPerHour",
          "type": "uint256"
        }
      ],
      "stateMutability": "view",
      "type": "function"
    },
    {
      "inputs": [
        {
          "internalType": "uint256",
          "name": "_dnaVersion",
          "type": "uint256"
        }
      ],
      "name": "getAllowedDnaVersion",
      "outputs": [
        {
          "internalType": "bool",
          "name": "",
          "type": "bool"
        }
      ],
      "stateMutability": "view",
      "type": "function"
    },
    {
      "inputs": [
        {
          "internalType": "address",
          "name": "_token",
          "type": "address"
        }
      ],
      "name": "getDecimalsERC20",
      "outputs": [
        {
          "internalType": "uint8",
          "name": "",
          "type": "uint8"
        }
      ],
      "stateMutability": "view",
      "type": "function"
    },
    {
      "inputs": [
        {
          "internalType": "address",
          "name": "_user",
          "type": "address"
        }
      ],
      "name": "getDepositIds",
      "outputs": [
        {
          "internalType": "uint256[]",
          "name": "",
          "type": "uint256[]"
        }
      ],
      "stateMutability": "view",
      "type": "function"
    },
    {
      "inputs": [
        {
          "internalType": "uint256",
          "name": "_depositId",
          "type": "uint256"
        }
      ],
      "name": "getDepositInfo",
      "outputs": [
        {
          "internalType": "uint256",
          "name": "_stake",
          "type": "uint256"
        },
        {
          "internalType": "uint256",
          "name": "_unclaimedRewards",
          "type": "uint256"
        }
      ],
      "stateMutability": "view",
      "type": "function"
    },
    {
      "inputs": [
        {
          "internalType": "uint256",
          "name": "_depositId",
          "type": "uint256"
        }
      ],
      "name": "getDepositTimestamp",
      "outputs": [
        {
          "internalType": "uint256",
          "name": "_depositTimestamp",
          "type": "uint256"
        }
      ],
      "stateMutability": "view",
      "type": "function"
    },
    {
      "inputs": [
        {
          "internalType": "address",
          "name": "_token",
          "type": "address"
        }
      ],
      "name": "getDivisorERC20",
      "outputs": [
        {
          "internalType": "uint256",
          "name": "",
          "type": "uint256"
        }
      ],
      "stateMutability": "view",
      "type": "function"
    },
    {
      "inputs": [
        {
          "internalType": "address",
          "name": "token",
          "type": "address"
        }
      ],
      "name": "getEarlyWithdrawalPenalty",
      "outputs": [
        {
          "internalType": "uint256",
          "name": "",
          "type": "uint256"
        }
      ],
      "stateMutability": "view",
      "type": "function"
    },
    {
      "inputs": [
        {
          "internalType": "address",
          "name": "_tokenId",
          "type": "address"
        }
      ],
      "name": "getFoundersRewardBoost",
      "outputs": [
        {
          "internalType": "uint256",
          "name": "_foundersRewardBoost",
          "type": "uint256"
        }
      ],
      "stateMutability": "view",
      "type": "function"
    },
    {
      "inputs": [
        {
          "internalType": "address",
          "name": "_tokenId",
          "type": "address"
        }
      ],
      "name": "getMinStake",
      "outputs": [
        {
          "internalType": "uint256",
          "name": "_minStake",
          "type": "uint256"
        }
      ],
      "stateMutability": "view",
      "type": "function"
    },
    {
      "inputs": [
        {
          "internalType": "uint256",
          "name": "_depositId",
          "type": "uint256"
        }
      ],
      "name": "getStakedAmount",
      "outputs": [
        {
          "internalType": "uint256",
          "name": "_deposited",
          "type": "uint256"
        }
      ],
      "stateMutability": "view",
      "type": "function"
    },
    {
      "inputs": [
        {
          "internalType": "uint256",
          "name": "_depositId",
          "type": "uint256"
        }
      ],
      "name": "getTimeOfLastUpdate",
      "outputs": [
        {
          "internalType": "uint256",
          "name": "_timeOfLastUpdate",
          "type": "uint256"
        }
      ],
      "stateMutability": "view",
      "type": "function"
    },
    {
      "inputs": [
        {
          "internalType": "uint256",
          "name": "_depositId",
          "type": "uint256"
        }
      ],
      "name": "getTimelock",
      "outputs": [
        {
          "internalType": "uint256",
          "name": "_timelock",
          "type": "uint256"
        }
      ],
      "stateMutability": "view",
      "type": "function"
    },
    {
      "inputs": [
        {
          "internalType": "uint256",
          "name": "_depositId",
          "type": "uint256"
        }
      ],
      "name": "getTimelockCategory",
      "outputs": [
        {
          "internalType": "uint8",
          "name": "_timelockCategory",
          "type": "uint8"
        }
      ],
      "stateMutability": "view",
      "type": "function"
    },
    {
      "inputs": [
        {
          "internalType": "uint256",
          "name": "_category",
          "type": "uint256"
        }
      ],
      "name": "getTimelockCategoryBoost",
      "outputs": [
        {
          "internalType": "uint256",
          "name": "",
          "type": "uint256"
        }
      ],
      "stateMutability": "view",
      "type": "function"
    },
    {
      "inputs": [
        {
          "internalType": "address",
          "name": "_token",
          "type": "address"
        }
      ],
      "name": "getTotalRewards",
      "outputs": [
        {
          "internalType": "uint256",
          "name": "_totalRewards",
          "type": "uint256"
        }
      ],
      "stateMutability": "view",
      "type": "function"
    },
    {
      "inputs": [
        {
          "internalType": "address",
          "name": "_token",
          "type": "address"
        }
      ],
      "name": "getTotalStaked",
      "outputs": [
        {
          "internalType": "uint256",
          "name": "_totalStaked",
          "type": "uint256"
        }
      ],
      "stateMutability": "view",
      "type": "function"
    },
    {
      "inputs": [
        {
          "internalType": "address",
          "name": "_token",
          "type": "address"
        }
      ],
      "name": "getTotalWithdrawalFees",
      "outputs": [
        {
          "internalType": "uint256",
          "name": "_totalWithdrawalFees",
          "type": "uint256"
        }
      ],
      "stateMutability": "view",
      "type": "function"
    },
    {
      "inputs": [
        {
          "internalType": "address",
          "name": "_user",
          "type": "address"
        },
        {
          "internalType": "address",
          "name": "_token",
          "type": "address"
        }
      ],
      "name": "getUserTotalRewardsByCoin",
      "outputs": [
        {
          "internalType": "uint256",
          "name": "_totalRewards",
          "type": "uint256"
        }
      ],
      "stateMutability": "view",
      "type": "function"
    },
    {
      "inputs": [
        {
          "internalType": "address",
          "name": "_user",
          "type": "address"
        },
        {
          "internalType": "address",
          "name": "_token",
          "type": "address"
        }
      ],
      "name": "getUserTotalStakedByCoin",
      "outputs": [
        {
          "internalType": "uint256",
          "name": "_totalStaked",
          "type": "uint256"
        }
      ],
      "stateMutability": "view",
      "type": "function"
    },
    {
      "inputs": [
        {
          "internalType": "address",
          "name": "_tokenId",
          "type": "address"
        }
      ],
      "name": "getWithdrawalFee",
      "outputs": [
        {
          "internalType": "uint256",
          "name": "_withdrawalFee",
          "type": "uint256"
        }
      ],
      "stateMutability": "view",
      "type": "function"
    },
    {
      "inputs": [
        {
          "internalType": "address",
          "name": "_tokenId",
          "type": "address"
        }
      ],
      "name": "getkNFTRewardBoost",
      "outputs": [
        {
          "internalType": "uint256",
          "name": "_kNFTRewardBoost",
          "type": "uint256"
        }
      ],
      "stateMutability": "view",
      "type": "function"
    },
    {
      "inputs": [],
      "name": "helixERC20",
      "outputs": [
        {
          "internalType": "contract IHelix",
          "name": "",
          "type": "address"
        }
      ],
      "stateMutability": "view",
      "type": "function"
    },
    {
      "inputs": [
        {
          "internalType": "address",
          "name": "",
          "type": "address"
        }
      ],
      "name": "kNFTRewardBoostERC20",
      "outputs": [
        {
          "internalType": "uint256",
          "name": "",
          "type": "uint256"
        }
      ],
      "stateMutability": "view",
      "type": "function"
    },
    {
      "inputs": [],
      "name": "konduxERC721Founders",
      "outputs": [
        {
          "internalType": "contract IERC721",
          "name": "",
          "type": "address"
        }
      ],
      "stateMutability": "view",
      "type": "function"
    },
    {
      "inputs": [],
      "name": "konduxERC721kNFT",
      "outputs": [
        {
          "internalType": "address",
          "name": "",
          "type": "address"
        }
      ],
      "stateMutability": "view",
      "type": "function"
    },
    {
      "inputs": [
        {
          "internalType": "address",
          "name": "",
          "type": "address"
        }
      ],
      "name": "minStakeERC20",
      "outputs": [
        {
          "internalType": "uint256",
          "name": "",
          "type": "uint256"
        }
      ],
      "stateMutability": "view",
      "type": "function"
    },
    {
      "inputs": [
        {
          "internalType": "address",
          "name": "",
          "type": "address"
        }
      ],
      "name": "ratioERC20",
      "outputs": [
        {
          "internalType": "uint256",
          "name": "",
          "type": "uint256"
        }
      ],
      "stateMutability": "view",
      "type": "function"
    },
    {
      "inputs": [
        {
          "internalType": "uint256",
          "name": "_apr",
          "type": "uint256"
        },
        {
          "internalType": "address",
          "name": "_tokenId",
          "type": "address"
        }
      ],
      "name": "setAPR",
      "outputs": [],
      "stateMutability": "nonpayable",
      "type": "function"
    },
    {
      "inputs": [
        {
          "internalType": "uint256",
          "name": "_dnaVersion",
          "type": "uint256"
        },
        {
          "internalType": "bool",
          "name": "_allowed",
          "type": "bool"
        }
      ],
      "name": "setAllowedDnaVersion",
      "outputs": [],
      "stateMutability": "nonpayable",
      "type": "function"
    },
    {
      "inputs": [
        {
          "internalType": "contract IAuthority",
          "name": "_newAuthority",
          "type": "address"
        }
      ],
      "name": "setAuthority",
      "outputs": [],
      "stateMutability": "nonpayable",
      "type": "function"
    },
    {
      "inputs": [
        {
          "internalType": "address",
          "name": "_token",
          "type": "address"
        },
        {
          "internalType": "bool",
          "name": "_authorized",
          "type": "bool"
        }
      ],
      "name": "setAuthorizedERC20",
      "outputs": [],
      "stateMutability": "nonpayable",
      "type": "function"
    },
    {
      "inputs": [
        {
          "internalType": "uint256",
          "name": "_compoundFreq",
          "type": "uint256"
        },
        {
          "internalType": "address",
          "name": "_tokenId",
          "type": "address"
        }
      ],
      "name": "setCompoundFreq",
      "outputs": [],
      "stateMutability": "nonpayable",
      "type": "function"
    },
    {
      "inputs": [
        {
          "internalType": "uint8",
          "name": "_decimals",
          "type": "uint8"
        },
        {
          "internalType": "address",
          "name": "_tokenId",
          "type": "address"
        }
      ],
      "name": "setDecimalsERC20",
      "outputs": [],
      "stateMutability": "nonpayable",
      "type": "function"
    },
    {
      "inputs": [
        {
          "internalType": "uint256",
          "name": "_divisor",
          "type": "uint256"
        },
        {
          "internalType": "address",
          "name": "_tokenId",
          "type": "address"
        }
      ],
      "name": "setDivisorERC20",
      "outputs": [],
      "stateMutability": "nonpayable",
      "type": "function"
    },
    {
      "inputs": [
        {
          "internalType": "address",
          "name": "token",
          "type": "address"
        },
        {
          "internalType": "uint256",
          "name": "penaltyPercentage",
          "type": "uint256"
        }
      ],
      "name": "setEarlyWithdrawalPenalty",
      "outputs": [],
      "stateMutability": "nonpayable",
      "type": "function"
    },
    {
      "inputs": [
        {
          "internalType": "uint256",
          "name": "_foundersRewardBoost",
          "type": "uint256"
        },
        {
          "internalType": "address",
          "name": "_tokenId",
          "type": "address"
        }
      ],
      "name": "setFoundersRewardBoost",
      "outputs": [],
      "stateMutability": "nonpayable",
      "type": "function"
    },
    {
      "inputs": [
        {
          "internalType": "address",
          "name": "_helix",
          "type": "address"
        }
      ],
      "name": "setHelixERC20",
      "outputs": [],
      "stateMutability": "nonpayable",
      "type": "function"
    },
    {
      "inputs": [
        {
          "internalType": "address",
          "name": "_konduxERC721Founders",
          "type": "address"
        }
      ],
      "name": "setKonduxERC721Founders",
      "outputs": [],
      "stateMutability": "nonpayable",
      "type": "function"
    },
    {
      "inputs": [
        {
          "internalType": "address",
          "name": "_konduxERC721kNFT",
          "type": "address"
        }
      ],
      "name": "setKonduxERC721kNFT",
      "outputs": [],
      "stateMutability": "nonpayable",
      "type": "function"
    },
    {
      "inputs": [
        {
          "internalType": "uint256",
          "name": "_minStake",
          "type": "uint256"
        },
        {
          "internalType": "address",
          "name": "_tokenId",
          "type": "address"
        }
      ],
      "name": "setMinStake",
      "outputs": [],
      "stateMutability": "nonpayable",
      "type": "function"
    },
    {
      "inputs": [
        {
          "internalType": "uint256",
          "name": "_ratio",
          "type": "uint256"
        },
        {
          "internalType": "address",
          "name": "_tokenId",
          "type": "address"
        }
      ],
      "name": "setRatio",
      "outputs": [],
      "stateMutability": "nonpayable",
      "type": "function"
    },
    {
      "inputs": [
        {
          "internalType": "uint256",
          "name": "_category",
          "type": "uint256"
        },
        {
          "internalType": "uint256",
          "name": "_boost",
          "type": "uint256"
        }
      ],
      "name": "setTimelockCategoryBoost",
      "outputs": [],
      "stateMutability": "nonpayable",
      "type": "function"
    },
    {
      "inputs": [
        {
          "internalType": "address",
          "name": "_treasury",
          "type": "address"
        }
      ],
      "name": "setTreasury",
      "outputs": [],
      "stateMutability": "nonpayable",
      "type": "function"
    },
    {
      "inputs": [
        {
          "internalType": "uint256",
          "name": "_withdrawalFee",
          "type": "uint256"
        },
        {
          "internalType": "address",
          "name": "_tokenId",
          "type": "address"
        }
      ],
      "name": "setWithdrawalFee",
      "outputs": [],
      "stateMutability": "nonpayable",
      "type": "function"
    },
    {
      "inputs": [
        {
          "internalType": "uint256",
          "name": "_kNFTRewardBoost",
          "type": "uint256"
        },
        {
          "internalType": "address",
          "name": "_tokenId",
          "type": "address"
        }
      ],
      "name": "setkNFTRewardBoost",
      "outputs": [],
      "stateMutability": "nonpayable",
      "type": "function"
    },
    {
      "inputs": [
        {
          "internalType": "uint256",
          "name": "_depositId",
          "type": "uint256"
        }
      ],
      "name": "stakeRewards",
      "outputs": [],
      "stateMutability": "nonpayable",
      "type": "function"
    },
    {
      "inputs": [
        {
          "internalType": "uint256",
          "name": "",
          "type": "uint256"
        }
      ],
      "name": "timelockCategoryBoost",
      "outputs": [
        {
          "internalType": "uint256",
          "name": "",
          "type": "uint256"
        }
      ],
      "stateMutability": "view",
      "type": "function"
    },
    {
      "inputs": [
        {
          "internalType": "address",
          "name": "",
          "type": "address"
        }
      ],
      "name": "totalRewarded",
      "outputs": [
        {
          "internalType": "uint256",
          "name": "",
          "type": "uint256"
        }
      ],
      "stateMutability": "view",
      "type": "function"
    },
    {
      "inputs": [
        {
          "internalType": "address",
          "name": "",
          "type": "address"
        }
      ],
      "name": "totalStaked",
      "outputs": [
        {
          "internalType": "uint256",
          "name": "",
          "type": "uint256"
        }
      ],
      "stateMutability": "view",
      "type": "function"
    },
    {
      "inputs": [
        {
          "internalType": "address",
          "name": "",
          "type": "address"
        }
      ],
      "name": "totalWithdrawalFees",
      "outputs": [
        {
          "internalType": "uint256",
          "name": "",
          "type": "uint256"
        }
      ],
      "stateMutability": "view",
      "type": "function"
    },
    {
      "inputs": [],
      "name": "treasury",
      "outputs": [
        {
          "internalType": "contract ITreasury",
          "name": "",
          "type": "address"
        }
      ],
      "stateMutability": "view",
      "type": "function"
    },
    {
      "inputs": [
        {
          "internalType": "uint256",
          "name": "",
          "type": "uint256"
        }
      ],
      "name": "userDeposits",
      "outputs": [
        {
          "internalType": "address",
          "name": "token",
          "type": "address"
        },
        {
          "internalType": "address",
          "name": "staker",
          "type": "address"
        },
        {
          "internalType": "uint256",
          "name": "deposited",
          "type": "uint256"
        },
        {
          "internalType": "uint256",
          "name": "redeemed",
          "type": "uint256"
        },
        {
          "internalType": "uint256",
          "name": "timeOfLastUpdate",
          "type": "uint256"
        },
        {
          "internalType": "uint256",
          "name": "lastDepositTime",
          "type": "uint256"
        },
        {
          "internalType": "uint256",
          "name": "unclaimedRewards",
          "type": "uint256"
        },
        {
          "internalType": "uint256",
          "name": "timelock",
          "type": "uint256"
        },
        {
          "internalType": "uint8",
          "name": "timelockCategory",
          "type": "uint8"
        }
      ],
      "stateMutability": "view",
      "type": "function"
    },
    {
      "inputs": [
        {
          "internalType": "address",
          "name": "",
          "type": "address"
        },
        {
          "internalType": "uint256",
          "name": "",
          "type": "uint256"
        }
      ],
      "name": "userDepositsIds",
      "outputs": [
        {
          "internalType": "uint256",
          "name": "",
          "type": "uint256"
        }
      ],
      "stateMutability": "view",
      "type": "function"
    },
    {
      "inputs": [
        {
          "internalType": "address",
          "name": "",
          "type": "address"
        },
        {
          "internalType": "address",
          "name": "",
          "type": "address"
        }
      ],
      "name": "userTotalRewardedByCoin",
      "outputs": [
        {
          "internalType": "uint256",
          "name": "",
          "type": "uint256"
        }
      ],
      "stateMutability": "view",
      "type": "function"
    },
    {
      "inputs": [
        {
          "internalType": "address",
          "name": "",
          "type": "address"
        },
        {
          "internalType": "address",
          "name": "",
          "type": "address"
        }
      ],
      "name": "userTotalStakedByCoin",
      "outputs": [
        {
          "internalType": "uint256",
          "name": "",
          "type": "uint256"
        }
      ],
      "stateMutability": "view",
      "type": "function"
    },
    {
      "inputs": [
        {
          "internalType": "uint256",
          "name": "_amount",
          "type": "uint256"
        },
        {
          "internalType": "uint256",
          "name": "_depositId",
          "type": "uint256"
        }
      ],
      "name": "withdraw",
      "outputs": [],
      "stateMutability": "nonpayable",
      "type": "function"
    },
    {
      "inputs": [
        {
          "internalType": "uint256",
          "name": "_amount",
          "type": "uint256"
        },
        {
          "internalType": "uint256",
          "name": "_depositId",
          "type": "uint256"
        }
      ],
      "name": "withdrawAndClaim",
      "outputs": [],
      "stateMutability": "nonpayable",
      "type": "function"
    },
    {
      "inputs": [
        {
          "internalType": "uint256",
          "name": "_amount",
          "type": "uint256"
        },
        {
          "internalType": "uint256",
          "name": "_depositId",
          "type": "uint256"
        }
      ],
      "name": "withdrawBeforeTimelock",
      "outputs": [],
      "stateMutability": "nonpayable",
      "type": "function"
    },
    {
      "inputs": [
        {
          "internalType": "address",
          "name": "",
          "type": "address"
        }
      ],
      "name": "withdrawalFeeERC20",
      "outputs": [
        {
          "internalType": "uint256",
          "name": "",
          "type": "uint256"
        }
      ],
      "stateMutability": "view",
      "type": "function"
    }
  ],
  "transactionHash": "0x5804408e65153fc35d81de5be50f3c304a46e7039d63b607648dc33c2c5f0b86",
  "args": [
    "0x685a13093cA561F531c93185B942a3f33385e14E",
    "0x2fa9e338CFe579Ff4575BeD2e1Ea407e811F35bc",
    "0x406C3FA456B832aF407937b620d531BdB01688c4",
    "0x434fD7FEEc752c4BfA4a59d0272c503ffD313499",
    "0x443525E4D78Dc29544CD30F097809d0Abe68DF32",
    "0x002a4F0aA6D2Ae840Ba2B9FfC0288F6FceCE0bFc"
  ],
  "numDeployments": 17,
  "solcInputHash": "3ff25264443b29d0348be150917a37cf",
  "bytecode": "0x60806040523480156200001157600080fd5b5060405162005ea238038062005ea283398101604081905262000034916200107a565b856001600160a01b038116620000915760405162461bcd60e51b815260206004820181905260248201527f417574686f726974792063616e6e6f74206265207a65726f206164647265737360448201526064015b60405180910390fd5b600080546001600160a01b0319166001600160a01b0383169081179091556040519081527f2f658b440c35314f52658ea8a740e05b284cdc84dc9ae01e891f21b8933e7cad9060200160405180910390a1506001600160a01b0385166200013b5760405162461bcd60e51b815260206004820152601f60248201527f4b6f6e6475782045524332302061646472657373206973206e6f742073657400604482015260640162000088565b6001600160a01b038416620001935760405162461bcd60e51b815260206004820152601b60248201527f54726561737572792061646472657373206973206e6f74207365740000000000604482015260640162000088565b6001600160a01b038316620001fd5760405162461bcd60e51b815260206004820152602960248201527f4b6f6e6475782045524337323120466f756e64657273206164647265737320696044820152681cc81b9bdd081cd95d60ba1b606482015260840162000088565b6001600160a01b038216620002635760405162461bcd60e51b815260206004820152602560248201527f4b6f6e64757820455243373231206b4e46542061646472657373206973206e6f6044820152641d081cd95d60da1b606482015260840162000088565b6001600160a01b038116620002bb5760405162461bcd60e51b815260206004820152601e60248201527f48656c69782045524332302061646472657373206973206e6f74207365740000604482015260640162000088565b601780546001600160a01b038086166001600160a01b03199283161790925560188054858416908316179055601680548484169083161790556019805492871692909116919091179055620003136127108662000604565b6200032060648662000654565b6200032e6103e8866200071e565b6200033c6101f4866200076e565b6200034b6298968086620007be565b620003586019866200080e565b6200036762015180866200085e565b6200037561271086620008ae565b6200038285600a620008fe565b62000390600160646200098c565b6200039f600261012c6200098c565b620003ae60036103846200098c565b620003bb600180620009a8565b6016546040805163313ce56760e01b8152905162000435926001600160a01b03169163313ce5679160048083019260209291908290030181865afa15801562000408573d6000803e3d6000fd5b505050506040513d601f19601f820116820180604052508101906200042e9190620010fb565b82620009d2565b604080518082018252601281527148656c697820646563696d616c733a20257360701b602080830191909152601654835163313ce56760e01b81529351620004e4946001600160a01b039092169263313ce56792600480820193918290030181865afa158015620004aa573d6000803e3d6000fd5b505050506040513d601f19601f82011682018060405250810190620004d09190620010fb565b60ff1662000a0760201b62003edd1760201c565b62000554856001600160a01b031663313ce5676040518163ffffffff1660e01b8152600401602060405180830381865afa15801562000527573d6000803e3d6000fd5b505050506040513d601f19601f820116820180604052508101906200054d9190620010fb565b86620009d2565b620005cd6040518060400160405280601381526020017f4b6f6e64757820646563696d616c733a20257300000000000000000000000000815250866001600160a01b031663313ce5676040518163ffffffff1660e01b8152600401602060405180830381865afa158015620004aa573d6000803e3d6000fd5b620005dc60056113886200098c565b620005eb60066127106200098c565b620005f885600162000a58565b505050505050620011b6565b6200060e62000f71565b6001600160a01b0381166000818152601460205260408082208590555184917f6a437d814668577dce2f82ae56ed67161e12e20b59b9464687859d6a2ce0faa591a35050565b6200065e62000f71565b6001600160a01b038116600090815260146020526040902054821115620006d85760405162461bcd60e51b815260206004820152602760248201527f5769746864726177616c206665652063616e6e6f74206265206d6f7265207468604482015266616e203130302560c81b606482015260840162000088565b6001600160a01b0381166000818152600860205260408082208590555184917f5d5169bb1fbf418e612b1934f181b6ce300a1aad27fdb0e6f6aadbd96f50bb8f91a35050565b6200072862000f71565b6001600160a01b0381166000818152600960205260408082208590555184917f1677c34b69a09796446af7a4c75943a1bb36202c16eb82199ef7d37d0ee4b28891a35050565b6200077862000f71565b6001600160a01b0381166000818152600a60205260408082208590555184917f11ef1060a695a1277b08edcbb2c364d43d4eb52f1060daaabf0df445cb6cdfdf91a35050565b620007c862000f71565b6001600160a01b0381166000818152600560205260408082208590555184917fef3cb734d88702dbb1c3bc381c52176876be95e70b66d3970d16653ee992a6c291a35050565b6200081862000f71565b6001600160a01b0381166000818152600760205260408082208590555184917fef97689adaec5b60041d413c3baef6876d5d01bb6c17b60cc980e2e244ef851791a35050565b6200086862000f71565b6001600160a01b0381166000818152600660205260408082208590555184917fd0d3d840363c3a773f4578f92d7914f6b37985570c79ee2889d69d7d8f12c29591a35050565b620008b862000f71565b6001600160a01b0381166000818152600b60205260408082208590555184917f62b574cc62ed3db0ae736cb4349346a234832cc8b215c6423fd67505addc2ffa91a35050565b6200090862000f71565b6064811115620009705760405162461bcd60e51b815260206004820152602c60248201527f50656e616c74792070657263656e74616765206d75737420626520626574776560448201526b0656e203020616e64203130360a41b606482015260840162000088565b6001600160a01b03909116600090815260126020526040902055565b6200099662000f71565b60009182526013602052604090912055565b620009b262000f71565b600091825260156020526040909120805460ff1916911515919091179055565b620009dc62000f71565b6001600160a01b03166000908152600c60205260409020805460ff191660ff92909216919091179055565b62000a54828260405160240162000a2092919062001127565b60408051601f198184030181529190526020810180516001600160e01b03908116632d839cb360e21b179091526200103c16565b5050565b6001600160a01b03821662000ab05760405162461bcd60e51b815260206004820152601b60248201527f546f6b656e20616464726573732063616e6e6f74206265203078300000000000604482015260640162000088565b80151560010362000f1d576001600160a01b03821660009081526007602052604090205462000b325760405162461bcd60e51b815260206004820152602760248201527f526577617264732070657220686f7572206d75737420626520677265617465726044820152660207468616e20360cc1b606482015260840162000088565b6001600160a01b03821660009081526006602052604090205462000bab5760405162461bcd60e51b815260206004820152602960248201527f436f6d706f756e64206672657175656e6379206d75737420626520677265617460448201526806572207468616e20360bc1b606482015260840162000088565b6001600160a01b03821660009081526008602052604090205462000c205760405162461bcd60e51b815260206004820152602560248201527f5769746864726177616c20666565206d75737420626520677265617465722074604482015264068616e20360dc1b606482015260840162000088565b6001600160a01b03821660009081526009602052604090205462000c9c5760405162461bcd60e51b815260206004820152602c60248201527f466f756e646572732072657761726420626f6f7374206d75737420626520677260448201526b06561746572207468616e20360a41b606482015260840162000088565b6001600160a01b0382166000908152600a602052604090205462000d145760405162461bcd60e51b815260206004820152602860248201527f6b4e46542072657761726420626f6f7374206d75737420626520677265617465604482015267072207468616e20360c41b606482015260840162000088565b6001600160a01b0382166000908152600b602052604090205462000d7b5760405162461bcd60e51b815260206004820152601c60248201527f526174696f206d7573742062652067726561746572207468616e203000000000604482015260640162000088565b6001600160a01b03821660009081526005602052604090205462000dee5760405162461bcd60e51b8152602060048201526024808201527f4d696e696d756d207374616b65206d75737420626520677265617465722074686044820152630616e20360e41b606482015260840162000088565b6001600160a01b03821660009081526014602052604090205462000e555760405162461bcd60e51b815260206004820152601e60248201527f44697669736f72206d7573742062652067726561746572207468616e20300000604482015260640162000088565b6000826001600160a01b03166318160ddd6040518163ffffffff1660e01b8152600401602060405180830381865afa15801562000e96573d6000803e3d6000fd5b505050506040513d601f19601f8201168201806040525081019062000ebc91906200117e565b1162000f1d5760405162461bcd60e51b815260206004820152602960248201527f546f6b656e20746f74616c20737570706c79206d75737420626520677265617460448201526806572207468616e20360bc1b606482015260840162000088565b6001600160a01b038216600081815260046020526040808220805460ff191685151590811790915590519092917f59261974a183535ca20bb33ae77db42c679a079844739a2e10f0b6ecb847379a91a35050565b60008054906101000a90046001600160a01b03166001600160a01b0316630c340a246040518163ffffffff1660e01b8152600401602060405180830381865afa15801562000fc3573d6000803e3d6000fd5b505050506040513d601f19601f8201168201806040525081019062000fe9919062001198565b6001600160a01b0316336001600160a01b0316146200103a5760405162461bcd60e51b815260206004820152600c60248201526b15539055551213d49256915160a21b604482015260640162000088565b565b80516a636f6e736f6c652e6c6f67602083016000808483855afa5050505050565b80516001600160a01b03811681146200107557600080fd5b919050565b60008060008060008060c087890312156200109457600080fd5b6200109f876200105d565b9550620010af602088016200105d565b9450620010bf604088016200105d565b9350620010cf606088016200105d565b9250620010df608088016200105d565b9150620010ef60a088016200105d565b90509295509295509295565b6000602082840312156200110e57600080fd5b815160ff811681146200112057600080fd5b9392505050565b604081526000835180604084015260005b8181101562001157576020818701810151606086840101520162001138565b506000606082850101526060601f19601f8301168401019150508260208301529392505050565b6000602082840312156200119157600080fd5b5051919050565b600060208284031215620011ab57600080fd5b62001120826200105d565b614cdc80620011c66000396000f3fe608060405234801561001057600080fd5b50600436106104de5760003560e01c80637cbfd14411610286578063cfb656a51161016b578063f0d33cad116100e3578063f384fe7611610097578063fad68d1f1161007c578063fad68d1f14610da2578063fb68d53b14610dc2578063fe1686b814610dfc57600080fd5b8063f384fe7614610d59578063f91159e314610d7957600080fd5b8063f16b41f4116100c8578063f16b41f414610c62578063f19d684914610d1d578063f2760e9d14610d3057600080fd5b8063f0d33cad14610c23578063f0f4426014610c4f57600080fd5b8063dd2a8b111161013a578063e519cf171161011f578063e519cf1714610bb7578063ea425a6d14610be0578063f02842a514610c0057600080fd5b8063dd2a8b1114610b7b578063e37d47e414610ba457600080fd5b8063cfb656a514610b22578063d55111c514610b35578063d6b9243414610b48578063dad775b114610b6857600080fd5b8063aaa78db4116101fe578063bf7e214f116101cd578063c39ccf88116101b2578063c39ccf8814610ac6578063c5ebc2f714610aef578063cf717c8c14610b0f57600080fd5b8063bf7e214f14610aa0578063bf811fbc14610ab357600080fd5b8063aaa78db414610a47578063b54b9c8814610a5a578063ba57714814610a7a578063beb8314c14610a8d57600080fd5b806396ce362711610255578063a13d50791161023a578063a13d507914610a0e578063a55dfa1c14610a21578063a9b2940714610a3457600080fd5b806396ce3627146109db5780639bfd8d61146109ee57600080fd5b80637cbfd1441461097557806384d3d5861461099557806387eebaea146109b5578063911ddf0a146109c857600080fd5b80634774dc93116103c75780635cd3667e1161033f57806374d91164116102f35780637a9e5e4b116102d85780637a9e5e4b146109245780637b16c543146109375780637bf7f3d31461096257600080fd5b806374d91164146108fe57806378e2816b1461091157600080fd5b806361d027b31161032457806361d027b3146108ab5780636e3c1154146108be57806372aa9d91146108de57600080fd5b80635cd3667e1461086d5780635dfa45961461088057600080fd5b8063546f2b6611610396578063580e26a11161037b578063580e26a11461080457806359b0e590146108275780635a5392be1461084a57600080fd5b8063546f2b66146107bb5780635722dee0146107db57600080fd5b80634774dc93146107225780634a912ce5146107355780635328c2bf146107685780635385689c1461079057600080fd5b80632bcf161c1161045a5780633ae5713d11610429578063441a3e701161040e578063441a3e70146106d35780634477c974146106e65780634715f40c146106f957600080fd5b80633ae5713d1461069d578063404d221a146106c057600080fd5b80632bcf161c14610609578063336cada81461063257806338c26d18146106455780633a46a46d1461067d57600080fd5b8063171f9ce4116104b15780631c5122d9116104965780631c5122d9146105ad5780631e78e9a2146105d65780631f6514db146105f657600080fd5b8063171f9ce41461057757806319720be11461058a57600080fd5b806306811c92146104e35780630962ef791461051657806310b184381461052b578063151a63491461054e575b600080fd5b6105036104f13660046147bc565b60076020526000908152604090205481565b6040519081526020015b60405180910390f35b6105296105243660046147e0565b610e36565b005b6105036105393660046147e0565b60009081526003602052604090206007015490565b61050361055c3660046147bc565b6001600160a01b031660009081526011602052604090205490565b6105296105853660046147f9565b61117c565b6105036105983660046147e0565b60009081526003602052604090206005015490565b6105036105bb3660046147bc565b6001600160a01b031660009081526007602052604090205490565b6105036105e43660046147bc565b600a6020526000908152604090205481565b6105296106043660046147f9565b6111ca565b6105036106173660046147bc565b6001600160a01b03166000908152600f602052604090205490565b6105296106403660046147f9565b611218565b61066b6106533660046147e0565b60009081526003602052604090206008015460ff1690565b60405160ff909116815260200161050d565b61050361068b3660046147bc565b600b6020526000908152604090205481565b61066b6106ab3660046147bc565b600c6020526000908152604090205460ff1681565b6105296106ce3660046147f9565b611266565b6105296106e1366004614829565b6112b4565b6105296106f43660046147e0565b611a27565b6105036107073660046147bc565b6001600160a01b031660009081526009602052604090205490565b61050361073036600461485a565b611cd7565b6107586107433660046147e0565b60156020526000908152604090205460ff1681565b604051901515815260200161050d565b61077b6107763660046147e0565b612423565b6040805192835260208301919091520161050d565b6018546107a3906001600160a01b031681565b6040516001600160a01b03909116815260200161050d565b6105036107c93660046147bc565b60096020526000908152604090205481565b6105036107e93660046147bc565b6001600160a01b031660009081526008602052604090205490565b6107586108123660046147bc565b60046020526000908152604090205460ff1681565b6105036108353660046147e0565b60009081526003602052604090206004015490565b6105036108583660046147e0565b60009081526003602052604090206002015490565b61052961087b366004614829565b61245a565b61050361088e36600461489c565b600e60209081526000928352604080842090915290825290205481565b6019546107a3906001600160a01b031681565b6105036108cc3660046147e0565b60009081526013602052604090205490565b6105036108ec3660046147bc565b60056020526000908152604090205481565b61052961090c366004614829565b612474565b61052961091f3660046147bc565b612d5f565b6105296109323660046147bc565b612e07565b61050361094536600461489c565b601060209081526000928352604080842090915290825290205481565b6105296109703660046148d8565b612e63565b6105036109833660046147bc565b60116020526000908152604090205481565b6105036109a33660046147bc565b60126020526000908152604090205481565b6105296109c3366004614829565b612e79565b6105296109d6366004614906565b612e8c565b6105296109e9366004614964565b613311565b6105036109fc3660046147bc565b600d6020526000908152604090205481565b610529610a1c3660046147f9565b6133ac565b610503610a2f3660046147e0565b6133fa565b6016546107a3906001600160a01b031681565b610529610a55366004614990565b61345c565b610503610a683660046147bc565b60086020526000908152604090205481565b610503610a88366004614964565b613484565b610503610a9b366004614964565b6134b5565b6000546107a3906001600160a01b031681565b610529610ac13660046147bc565b613ace565b610503610ad43660046147bc565b6001600160a01b031660009081526005602052604090205490565b610b02610afd3660046147bc565b613b76565b60405161050d91906149b5565b610529610b1d3660046147f9565b613be2565b610529610b303660046147bc565b613cbe565b6017546107a3906001600160a01b031681565b610503610b563660046147bc565b60146020526000908152604090205481565b610529610b763660046147f9565b613d66565b610503610b893660046147bc565b6001600160a01b03166000908152600d602052604090205490565b610529610bb23660046147f9565b613db4565b610503610bc53660046147bc565b6001600160a01b03166000908152600a602052604090205490565b610503610bee3660046147bc565b60066020526000908152604090205481565b610758610c0e3660046147e0565b60009081526015602052604090205460ff1690565b61066b610c313660046147bc565b6001600160a01b03166000908152600c602052604090205460ff1690565b610529610c5d3660046147bc565b613e02565b610ccb610c703660046147e0565b60036020819052600091825260409091208054600182015460028301549383015460048401546005850154600686015460078701546008909701546001600160a01b0396871698969095169693949293919290919060ff1689565b604080516001600160a01b039a8b1681529990981660208a0152968801959095526060870193909352608086019190915260a085015260c084015260e083015260ff166101008201526101200161050d565b610529610d2b3660046149f9565b613eaa565b610503610d3e3660046147bc565b6001600160a01b031660009081526012602052604090205490565b610503610d673660046147bc565b600f6020526000908152604090205481565b610503610d873660046147bc565b6001600160a01b031660009081526014602052604090205490565b610503610db03660046147e0565b60136020526000908152604090205481565b610503610dd036600461489c565b6001600160a01b0380821660009081526010602090815260408083209386168352929052205492915050565b610503610e0a36600461489c565b6001600160a01b038082166000908152600e602090815260408083209386168352929052205492915050565b6000818152600360205260409020600101546001600160a01b03163314610eb25760405162461bcd60e51b815260206004820152602560248201527f596f7520617265206e6f7420746865206f776e6572206f6620746869732064656044820152641c1bdcda5d60da1b60648201526084015b60405180910390fd5b600081815260036020526040902060070154421015610f135760405162461bcd60e51b815260206004820152601360248201527f54696d656c6f636b206e6f7420706173736564000000000000000000000000006044820152606401610ea9565b600081815260036020526040812060060154610f2f33846134b5565b610f399190614a2d565b905060008111610f8b5760405162461bcd60e51b815260206004820152601360248201527f596f752068617665206e6f2072657761726473000000000000000000000000006044820152606401610ea9565b600082815260036020908152604080832060068101849055426004820155546001600160a01b0316808452601483528184205460089093529083205490929190610fd790612710614a40565b610fe19085614a53565b610feb9190614a6a565b9050816001600160a01b03166323b872dd60008054906101000a90046001600160a01b03166001600160a01b031663fbfa77cf6040518163ffffffff1660e01b8152600401602060405180830381865afa15801561104d573d6000803e3d6000fd5b505050506040513d601f19601f820116820180604052508101906110719190614a8c565b6040516001600160e01b031960e084901b1681526001600160a01b039091166004820152336024820152604481018490526064016020604051808303816000875af11580156110c4573d6000803e3d6000fd5b505050506040513d601f19601f820116820180604052508101906110e89190614aa9565b50600084815260036020526040902080546001909101546111179183916001600160a01b039182169116613f37565b6111416111248285614a40565b6000868152600360205260409020546001600160a01b0316613fa5565b60405181815233907f619caafabdd75649b302ba8419e48cccf64f37f1983ac4727cfb38b57703ffc99060200160405180910390a250505050565b611184613fd6565b6001600160a01b0381166000818152600b60205260408082208590555184917f62b574cc62ed3db0ae736cb4349346a234832cc8b215c6423fd67505addc2ffa91a35050565b6111d2613fd6565b6001600160a01b0381166000818152600960205260408082208590555184917f1677c34b69a09796446af7a4c75943a1bb36202c16eb82199ef7d37d0ee4b28891a35050565b611220613fd6565b6001600160a01b0381166000818152600760205260408082208590555184917fef97689adaec5b60041d413c3baef6876d5d01bb6c17b60cc980e2e244ef851791a35050565b61126e613fd6565b6001600160a01b0381166000818152600560205260408082208590555184917fef3cb734d88702dbb1c3bc381c52176876be95e70b66d3970d16653ee992a6c291a35050565b6000818152600360205260409020600701544210156113155760405162461bcd60e51b815260206004820152601360248201527f54696d656c6f636b206e6f7420706173736564000000000000000000000000006044820152606401610ea9565b6000818152600360205260409020600101546001600160a01b0316331461138c5760405162461bcd60e51b815260206004820152602560248201527f596f7520617265206e6f7420746865206f776e6572206f6620746869732064656044820152641c1bdcda5d60da1b6064820152608401610ea9565b6000818152600360205260409020600201548211156113f75760405162461bcd60e51b815260206004820152602160248201527f43616e2774207769746864726177206d6f7265207468616e20796f75206861766044820152606560f81b6064820152608401610ea9565b6016546040516370a0823160e01b81523360048201526001600160a01b03909116906370a0823190602401602060405180830381865afa15801561143f573d6000803e3d6000fd5b505050506040513d601f19601f820116820180604052508101906114639190614ac6565b6000828152600360209081526040808320546001600160a01b03168352600b9091529020546114929084614a53565b11156115065760405162461bcd60e51b815260206004820152603760248201527f43616e2774207769746864726177206d6f726520746f6b656e73207468616e2060448201527f74686520636f6c6c61746572616c20796f7520686176650000000000000000006064820152608401610ea9565b600061151233836134b5565b90508260036000848152602001908152602001600020600201600082825461153a9190614a40565b909155505060008281526003602052604081204260048201556006018054839290611566908490614a2d565b90915550506000828152600360209081526040808320546001600160a01b0316835260148083528184205460088452918420549252906115a69082614a40565b6115b09086614a53565b6115ba9190614a6a565b6000848152600360209081526040808320549254815163fbfa77cf60e01b815291519495506001600160a01b03938416948694869463dd62ed3e94919093169263fbfa77cf926004808401938290030181865afa15801561161f573d6000803e3d6000fd5b505050506040513d601f19601f820116820180604052508101906116439190614a8c565b6040516001600160e01b031960e084901b1681526001600160a01b039091166004820152306024820152604401602060405180830381865afa15801561168d573d6000803e3d6000fd5b505050506040513d601f19601f820116820180604052508101906116b19190614ac6565b10156117565760405162461bcd60e51b815260206004820152606260248201527f547265617375727920436f6e7472616374206e65656420746f20617070726f7660448201527f65205374616b696e6720436f6e747261637420746f207769746864726177207960648201527f6f757220746f6b656e73202d2d20706c656173652063616c6c20616e2041646d60848201526134b760f11b60a482015260c401610ea9565b600084815260036020526040902080546001909101546117849187916001600160a01b0391821691166140ad565b6000848152600360209081526040808320546001600160a01b039081168452600c90925280832054601654909216835282205460ff91821692911690818311156117dc576117d28284614adf565b60ff1690506117e0565b5060005b6016546001600160a01b0316639dc29fac336117fd84600a614bdc565b60008b8152600360209081526040808320546001600160a01b03168352600b90915290205461182c908d614a53565b6118369190614a6a565b6040516001600160e01b031960e085901b1681526001600160a01b0390921660048301526024820152604401600060405180830381600087803b15801561187c57600080fd5b505af1158015611890573d6000803e3d6000fd5b50505050836001600160a01b03166323b872dd60008054906101000a90046001600160a01b03166001600160a01b031663fbfa77cf6040518163ffffffff1660e01b8152600401602060405180830381865afa1580156118f4573d6000803e3d6000fd5b505050506040513d601f19601f820116820180604052508101906119189190614a8c565b6040516001600160e01b031960e084901b1681526001600160a01b039091166004820152336024820152604481018890526064016020604051808303816000875af115801561196b573d6000803e3d6000fd5b505050506040513d601f19601f8201168201806040525081019061198f9190614aa9565b50600087815260036020526040902080546001909101546119be9187916001600160a01b039182169116613f37565b6119e86119cb868a614a40565b6000898152600360205260409020546001600160a01b0316613fa5565b60405185815233907f884edad9ce6fa2440d8a54cc123490eb96d2768479d49ff9c7366125a94243649060200160405180910390a25050505050505050565b6000818152600360205260409020600101546001600160a01b03163314611a9e5760405162461bcd60e51b815260206004820152602560248201527f596f7520617265206e6f7420746865206f776e6572206f6620746869732064656044820152641c1bdcda5d60da1b6064820152608401610ea9565b611aa7816133fa565b15611aff5760405162461bcd60e51b815260206004820152602260248201527f547269656420746f20636f6d706f756e64207265776172647320746f6f20736f60448201526137b760f11b6064820152608401610ea9565b600081815260036020526040812060060154611b1b33846134b5565b611b259190614a2d565b60008381526003602052604081206006810182905560020180549293508392909190611b52908490614a2d565b909155505060008281526003602052604090204260048201558054600190910154611b8b9183916001600160a01b03918216911661421e565b6000828152600360209081526040808320546001600160a01b039081168452600c90925280832054601654909216835282205460ff9182169291169082821115611be357611bd98383614adf565b60ff169050611be7565b5060005b6016546001600160a01b03166340c10f1933611c0484600a614bdc565b6000898152600360209081526040808320546001600160a01b03168352600b909152902054611c339089614a53565b611c3d9190614a53565b6040516001600160e01b031960e085901b1681526001600160a01b0390921660048301526024820152604401600060405180830381600087803b158015611c8357600080fd5b505af1158015611c97573d6000803e3d6000fd5b50506040518681523392507f169f1815ebdea059aac3bb00ec9a9594c7a5ffcb64a17e8392b5d84909a14556915060200160405180910390a25050505050565b6001600160a01b03811660009081526004602052604081205460ff16611d3f5760405162461bcd60e51b815260206004820152601460248201527f546f6b656e206e6f7420617574686f72697a65640000000000000000000000006044820152606401610ea9565b6001600160a01b038216600090815260056020526040902054841015611db55760405162461bcd60e51b815260206004820152602560248201527f416d6f756e7420736d616c6c6572207468616e206d696e696d696d756d2064656044820152641c1bdcda5d60da1b6064820152608401610ea9565b6040516370a0823160e01b8152336004820152829085906001600160a01b038316906370a0823190602401602060405180830381865afa158015611dfd573d6000803e3d6000fd5b505050506040513d601f19601f82011682018060405250810190611e219190614ac6565b1015611e6f5760405162461bcd60e51b815260206004820152601d60248201527f43616e2774207374616b65206d6f7265207468616e20796f75206f776e0000006044820152606401610ea9565b604051636eb1769f60e11b815233600482015230602482015285906001600160a01b0383169063dd62ed3e90604401602060405180830381865afa158015611ebb573d6000803e3d6000fd5b505050506040513d601f19601f82011682018060405250810190611edf9190614ac6565b1015611f2d5760405162461bcd60e51b815260206004820152601160248201527f416c6c6f77616e6365206e6f74207365740000000000000000000000000000006044820152606401610ea9565b60068460ff161115611f815760405162461bcd60e51b815260206004820152601060248201527f496e76616c69642074696d656c6f636b000000000000000000000000000000006044820152606401610ea9565b6000611f8c60015490565b9050604051806101200160405280856001600160a01b03168152602001336001600160a01b031681526020018781526020016000815260200142815260200142815260200160008152602001600081526020018660ff168152506003600083815260200190815260200160002060008201518160000160006101000a8154816001600160a01b0302191690836001600160a01b0316021790555060208201518160010160006101000a8154816001600160a01b0302191690836001600160a01b0316021790555060408201518160020155606082015181600301556080820151816004015560a0820151816005015560c0820151816006015560e082015181600701556101008201518160080160006101000a81548160ff021916908360ff160217905550905050600060068111156120c7576120c7614be8565b60ff168560ff16036120f7576120e04262278d00614a2d565b60008281526003602052604090206007015561219f565b60001960ff861601612110576120e0426276a700614a2d565b60011960ff861601612129576120e04262ed4e00614a2d565b60021960ff861601612143576120e0426301e13380614a2d565b60031960ff86160161215a576120e0426078614a2d565b60041960ff861601612173576120e04262015180614a2d565b60051960ff86160161219f5761218c426202a300614a2d565b6000828152600360205260409020600701555b336000818152600260209081526040822080546001810182559083529120018290556121ce908790869061421e565b816001600160a01b03166323b872dd3360008054906101000a90046001600160a01b03166001600160a01b031663fbfa77cf6040518163ffffffff1660e01b8152600401602060405180830381865afa15801561222f573d6000803e3d6000fd5b505050506040513d601f19601f820116820180604052508101906122539190614a8c565b6040516001600160e01b031960e085901b1681526001600160a01b03928316600482015291166024820152604481018990526064016020604051808303816000875af11580156122a7573d6000803e3d6000fd5b505050506040513d601f19601f820116820180604052508101906122cb9190614aa9565b506001600160a01b038085166000908152600c602052604080822054601654909316825281205460ff928316921690828211156123165761230c8383614adf565b60ff16905061231a565b5060005b6016546001600160a01b03166340c10f193361233784600a614bdc565b6001600160a01b038b166000908152600b602052604090205461235a908e614a53565b6123649190614a53565b6040516001600160e01b031960e085901b1681526001600160a01b0390921660048301526024820152604401600060405180830381600087803b1580156123aa57600080fd5b505af11580156123be573d6000803e3d6000fd5b505050506123d0600180546001019055565b604080516001600160a01b0389168152602081018b9052339186917ff7373f56c201647feae85a62d3cf56286ed3a43d20c5eb7f9883d6ea690ef7c0910160405180910390a35091979650505050505050565b6000818152600360205260408120600281015460069091015490919061244933856134b5565b6124539190614a2d565b9050915091565b612462613fd6565b60009182526013602052604090912055565b6000818152600360205260409020600101546001600160a01b031633146124eb5760405162461bcd60e51b815260206004820152602560248201527f596f7520617265206e6f7420746865206f776e6572206f6620746869732064656044820152641c1bdcda5d60da1b6064820152608401610ea9565b6000818152600360205260409020600201548211156125565760405162461bcd60e51b815260206004820152602160248201527f43616e2774207769746864726177206d6f7265207468616e20796f75206861766044820152606560f81b6064820152608401610ea9565b6016546040516370a0823160e01b81523360048201526001600160a01b03909116906370a0823190602401602060405180830381865afa15801561259e573d6000803e3d6000fd5b505050506040513d601f19601f820116820180604052508101906125c29190614ac6565b6000828152600360209081526040808320546001600160a01b03168352600b9091529020546125f19084614a53565b11156126655760405162461bcd60e51b815260206004820152603760248201527f43616e2774207769746864726177206d6f726520746f6b656e73207468616e2060448201527f74686520636f6c6c61746572616c20796f7520686176650000000000000000006064820152608401610ea9565b60008181526003602052604090206007015442106126c55760405162461bcd60e51b815260206004820152601360248201527f54696d656c6f636b2068617320706173736564000000000000000000000000006044820152606401610ea9565b6000818152600360205260408120600701546126e2904290614a40565b60008381526003602052604081206005810154600790910154929350909161270a9190614a40565b90506000612719826064614a53565b6000858152600360209081526040808320546001600160a01b031683526012909152902054849061274a9088614a53565b6127549190614a53565b61275e9190614a6a565b90508481111561276b5750835b8060000361278d576064612780866001614a53565b61278a9190614a6a565b90505b6000848152600360209081526040808320546001600160a01b0316835260089091528120546127bc9083614a2d565b90506127fd6040518060400160405280600c81526020017f65787472614665653a202573000000000000000000000000000000000000000081525083613edd565b61283c6040518060400160405280601681526020017f746f74616c46656550657263656e746167653a2025730000000000000000000081525082613edd565b6000858152600360209081526040808320546001600160a01b03168352601490915281205461286b8382614a40565b6128759089614a53565b61287f9190614a6a565b9050866003600088815260200190815260200160002060020160008282546128a79190614a40565b909155505060008681526003602090815260408083204260048083019190915590549354825163fbfa77cf60e01b815292516001600160a01b03958616958795879563dd62ed3e95929094169363fbfa77cf938184019390918290030181865afa158015612919573d6000803e3d6000fd5b505050506040513d601f19601f8201168201806040525081019061293d9190614a8c565b6040516001600160e01b031960e084901b1681526001600160a01b039091166004820152306024820152604401602060405180830381865afa158015612987573d6000803e3d6000fd5b505050506040513d601f19601f820116820180604052508101906129ab9190614ac6565b1015612a505760405162461bcd60e51b815260206004820152606260248201527f547265617375727920436f6e7472616374206e65656420746f20617070726f7660448201527f65205374616b696e6720436f6e747261637420746f207769746864726177207960648201527f6f757220746f6b656e73202d2d20706c656173652063616c6c20616e2041646d60848201526134b760f11b60a482015260c401610ea9565b60008781526003602052604090208054600190910154612a7e918a916001600160a01b0391821691166140ad565b6016546001600160a01b039081166000908152600c60208181526040808420548c855260038352818520549095168452919052812054909160ff90811691161115612b13576016546001600160a01b039081166000908152600c60208181526040808420548d855260038352818520549095168452919052902054612b099160ff9081169116614adf565b60ff169050612b17565b5060005b6016546001600160a01b0316639dc29fac33612b3484600a614bdc565b60008c8152600360209081526040808320546001600160a01b03168352600b909152902054612b63908e614a53565b612b6d9190614a6a565b6040516001600160e01b031960e085901b1681526001600160a01b0390921660048301526024820152604401600060405180830381600087803b158015612bb357600080fd5b505af1158015612bc7573d6000803e3d6000fd5b50505050816001600160a01b03166323b872dd60008054906101000a90046001600160a01b03166001600160a01b031663fbfa77cf6040518163ffffffff1660e01b8152600401602060405180830381865afa158015612c2b573d6000803e3d6000fd5b505050506040513d601f19601f82011682018060405250810190612c4f9190614a8c565b6040516001600160e01b031960e084901b1681526001600160a01b039091166004820152336024820152604481018690526064016020604051808303816000875af1158015612ca2573d6000803e3d6000fd5b505050506040513d601f19601f82011682018060405250810190612cc69190614aa9565b5060008881526003602052604090208054600190910154612cf59185916001600160a01b039182169116613f37565b612d1f612d02848b614a40565b60008a8152600360205260409020546001600160a01b0316613fa5565b60405183815233907f884edad9ce6fa2440d8a54cc123490eb96d2768479d49ff9c7366125a94243649060200160405180910390a2505050505050505050565b612d67613fd6565b6001600160a01b038116612dbd5760405162461bcd60e51b815260206004820152601e60248201527f466f756e6465727320616464726573732063616e6e6f742062652030783000006044820152606401610ea9565b601780546001600160a01b0319166001600160a01b0383169081179091556040517f23008753c65029d55e051a14341d50cf19b808653ba432a5faeb07bd7865e25b90600090a250565b612e0f613fd6565b600080546001600160a01b0319166001600160a01b0383169081179091556040519081527f2f658b440c35314f52658ea8a740e05b284cdc84dc9ae01e891f21b8933e7cad9060200160405180910390a150565b612e6b613fd6565b612e758282614282565b5050565b612e8382826112b4565b612e7581610e36565b612e94613fd6565b6001600160a01b038816612eea5760405162461bcd60e51b815260206004820152601b60248201527f546f6b656e20616464726573732063616e6e6f742062652030783000000000006044820152606401610ea9565b60008711612f4a5760405162461bcd60e51b815260206004820152602760248201527f526577617264732070657220686f7572206d75737420626520677265617465726044820152660207468616e20360cc1b6064820152608401610ea9565b60008611612fac5760405162461bcd60e51b815260206004820152602960248201527f436f6d706f756e64206672657175656e6379206d75737420626520677265617460448201526806572207468616e20360bc1b6064820152608401610ea9565b6000851161300a5760405162461bcd60e51b815260206004820152602560248201527f5769746864726177616c20666565206d75737420626520677265617465722074604482015264068616e20360dc1b6064820152608401610ea9565b6000841161306f5760405162461bcd60e51b815260206004820152602c60248201527f466f756e646572732072657761726420626f6f7374206d75737420626520677260448201526b06561746572207468616e20360a41b6064820152608401610ea9565b600083116130d05760405162461bcd60e51b815260206004820152602860248201527f6b4e46542072657761726420626f6f7374206d75737420626520677265617465604482015267072207468616e20360c41b6064820152608401610ea9565b600082116131205760405162461bcd60e51b815260206004820152601c60248201527f526174696f206d7573742062652067726561746572207468616e2030000000006044820152606401610ea9565b6000811161317c5760405162461bcd60e51b8152602060048201526024808201527f4d696e696d756d207374616b65206d75737420626520677265617465722074686044820152630616e20360e41b6064820152608401610ea9565b6000886001600160a01b03166318160ddd6040518163ffffffff1660e01b8152600401602060405180830381865afa1580156131bc573d6000803e3d6000fd5b505050506040513d601f19601f820116820180604052508101906131e09190614ac6565b1161323f5760405162461bcd60e51b815260206004820152602960248201527f546f6b656e20746f74616c20737570706c79206d75737420626520677265617460448201526806572207468616e20360bc1b6064820152608401610ea9565b61324b61271089613d66565b61325584896111ca565b61325f83896133ac565b6132698789611218565b613273828961117c565b61327d8589613be2565b6132878689613db4565b6132918189611266565b6132fc886001600160a01b031663313ce5676040518163ffffffff1660e01b8152600401602060405180830381865afa1580156132d2573d6000803e3d6000fd5b505050506040513d601f19601f820116820180604052508101906132f69190614bfe565b89613eaa565b613307886001614282565b5050505050505050565b613319613fd6565b60648111156133905760405162461bcd60e51b815260206004820152602c60248201527f50656e616c74792070657263656e74616765206d75737420626520626574776560448201527f656e203020616e642031303000000000000000000000000000000000000000006064820152608401610ea9565b6001600160a01b03909116600090815260126020526040902055565b6133b4613fd6565b6001600160a01b0381166000818152600a60205260408082208590555184917f11ef1060a695a1277b08edcbb2c364d43d4eb52f1060daaabf0df445cb6cdfdf91a35050565b6000818152600360209081526040808320600481015490546001600160a01b03168452600690925282205461342f8183614a2d565b421061343f575060009392505050565b4261344a8284614a2d565b6134549190614a40565b949350505050565b613464613fd6565b600091825260156020526040909120805460ff1916911515919091179055565b600260205281600052604060002081815481106134a057600080fd5b90600052602060002001600091509150505481565b600081815260036020818152604080842081516101208101835281546001600160a01b0390811682526001830154811694820185905260028301549382019390935293810154606085015260048101546080850152600581015460a0850152600681015460c0850152600781015460e08501526008015460ff16610100840152851614613546576000915050613ac8565b60008160800151426135589190614a40565b60408084015184516001600160a01b03166000908152600760205291822054929350919063bbf81e0061358b8385614a53565b61359d90670de0b6b3a7640000614a53565b6135a79190614a6a565b90506000670de0b6b3a76400006135be8387614a53565b6135c89190614a6a565b86516001600160a01b039081166000908152601460205260408082205460175491516370a0823160e01b81528e8516600482015294955093919216906370a0823190602401602060405180830381865afa15801561362a573d6000803e3d6000fd5b505050506040513d601f19601f8201168201806040525081019061364e9190614ac6565b111561367b5786516001600160a01b03166000908152600960205260409020546136789082614a2d565b90505b6018546040516370a0823160e01b81526001600160a01b038c8116600483015260009216906370a0823190602401602060405180830381865afa1580156136c6573d6000803e3d6000fd5b505050506040513d601f19601f820116820180604052508101906136ea9190614ac6565b1115613a5d576018546040516370a0823160e01b81526001600160a01b038c8116600483015260009216906370a0823190602401602060405180830381865afa15801561373b573d6000803e3d6000fd5b505050506040513d601f19601f8201168201806040525081019061375f9190614ac6565b60408051600580825260c08201909252919250600091906020820160a08036833701905050905060005b82811015613a1357601854604051632f745c5960e01b81526001600160a01b038f81166004830152602482018490526000921690632f745c5990604401602060405180830381865afa1580156137e3573d6000803e3d6000fd5b505050506040513d601f19601f820116820180604052508101906138079190614ac6565b60185460405163032bbfbd60e21b815260048101839052600060248201819052600160448301529293506001600160a01b0390911690630caefef490606401602060405180830381865afa158015613863573d6000803e3d6000fd5b505050506040513d601f19601f820116820180604052508101906138879190614ac6565b60008181526015602052604090205490915060ff166138a7575050613a01565b60185460405163032bbfbd60e21b81526004810184905260016024820152600260448201526000916001600160a01b031690630caefef490606401602060405180830381865afa1580156138ff573d6000803e3d6000fd5b505050506040513d601f19601f820116820180604052508101906139239190614ac6565b61392e906064614c1b565b905060008112156139415750600061397e565b8c516001600160a01b031660009081526014602052604090205481111561397e57508b516001600160a01b03166000908152601460205260409020545b60005b60058110156139fc5785818151811061399c5761399c614c4b565b60200260200101518211156139ea5760008682815181106139bf576139bf614c4b565b60200260200101519050828783815181106139dc576139dc614c4b565b602090810291909101015291505b806139f481614c61565b915050613981565b505050505b80613a0b81614c61565b915050613789565b5060005b6005811015613a5957818181518110613a3257613a32614c4b565b602002602001015184613a459190614a2d565b935080613a5181614c61565b915050613a17565b5050505b61010087015160ff1615613a905761010087015160ff16600090815260136020526040902054613a8d9082614a2d565b90505b86516001600160a01b0316600090815260146020526040902054613ab48284614a53565b613abe9190614a6a565b9750505050505050505b92915050565b613ad6613fd6565b6001600160a01b038116613b2c5760405162461bcd60e51b815260206004820152601a60248201527f6b4e465420616464726573732063616e6e6f74206265203078300000000000006044820152606401610ea9565b601880546001600160a01b0319166001600160a01b0383169081179091556040517fc8e08c5b2fa487609cdc92d5cfcc240f3c8fc73ac5e58fafc5d465d20aaaf31290600090a250565b6001600160a01b038116600090815260026020908152604091829020805483518184028101840190945280845260609392830182828015613bd657602002820191906000526020600020905b815481526020019060010190808311613bc2575b50505050509050919050565b613bea613fd6565b6001600160a01b038116600090815260146020526040902054821115613c785760405162461bcd60e51b815260206004820152602760248201527f5769746864726177616c206665652063616e6e6f74206265206d6f726520746860448201527f616e2031303025000000000000000000000000000000000000000000000000006064820152608401610ea9565b6001600160a01b0381166000818152600860205260408082208590555184917f5d5169bb1fbf418e612b1934f181b6ce300a1aad27fdb0e6f6aadbd96f50bb8f91a35050565b613cc6613fd6565b6001600160a01b038116613d1c5760405162461bcd60e51b815260206004820152601b60248201527f48656c697820616464726573732063616e6e6f742062652030783000000000006044820152606401610ea9565b601680546001600160a01b0319166001600160a01b0383169081179091556040517fdcbeffeaf77a19486e34d4b5fc3809913d1e7125a43b8dcdb17944ab2c17579090600090a250565b613d6e613fd6565b6001600160a01b0381166000818152601460205260408082208590555184917f6a437d814668577dce2f82ae56ed67161e12e20b59b9464687859d6a2ce0faa591a35050565b613dbc613fd6565b6001600160a01b0381166000818152600660205260408082208590555184917fd0d3d840363c3a773f4578f92d7914f6b37985570c79ee2889d69d7d8f12c29591a35050565b613e0a613fd6565b6001600160a01b038116613e605760405162461bcd60e51b815260206004820152601e60248201527f547265617375727920616464726573732063616e6e6f742062652030783000006044820152606401610ea9565b601980546001600160a01b0319166001600160a01b0383169081179091556040517fafa147634b29e2c7bd53ce194256b9f41cfb9ba3036f2b822fdd1d965beea08690600090a250565b613eb2613fd6565b6001600160a01b03166000908152600c60205260409020805460ff191660ff92909216919091179055565b612e758282604051602401613ef3929190614c7a565b60408051601f198184030181529190526020810180517bffffffffffffffffffffffffffffffffffffffffffffffffffffffff16632d839cb360e21b179052614783565b6001600160a01b0382166000908152600f602052604081208054859290613f5f908490614a2d565b90915550506001600160a01b03808316600090815260106020908152604080832093851683529290529081208054859290613f9b908490614a2d565b9091555050505050565b6001600160a01b03811660009081526011602052604081208054849290613fcd908490614a2d565b90915550505050565b60008054906101000a90046001600160a01b03166001600160a01b0316630c340a246040518163ffffffff1660e01b8152600401602060405180830381865afa158015614027573d6000803e3d6000fd5b505050506040513d601f19601f8201168201806040525081019061404b9190614a8c565b6001600160a01b0316336001600160a01b0316146140ab5760405162461bcd60e51b815260206004820152600c60248201527f554e415554484f52495a454400000000000000000000000000000000000000006044820152606401610ea9565b565b6001600160a01b0382166000908152600d602052604090205483111561413b5760405162461bcd60e51b815260206004820152602560248201527f5374616b696e673a204e6f7420656e6f756768207374616b65642028436f6e7460448201527f72616374290000000000000000000000000000000000000000000000000000006064820152608401610ea9565b6001600160a01b038083166000908152600e60209081526040808320938516835292905220548311156141ba5760405162461bcd60e51b815260206004820152602160248201527f5374616b696e673a204e6f7420656e6f756768207374616b65642028557365726044820152602960f81b6064820152608401610ea9565b6001600160a01b0382166000908152600d6020526040812080548592906141e2908490614a40565b90915550506001600160a01b038083166000908152600e6020908152604080832093851683529290529081208054859290613f9b908490614a40565b6001600160a01b0382166000908152600d602052604081208054859290614246908490614a2d565b90915550506001600160a01b038083166000908152600e6020908152604080832093851683529290529081208054859290613f9b908490614a2d565b6001600160a01b0382166142d85760405162461bcd60e51b815260206004820152601b60248201527f546f6b656e20616464726573732063616e6e6f742062652030783000000000006044820152606401610ea9565b80151560010361472f576001600160a01b0382166000908152600760205260409020546143575760405162461bcd60e51b815260206004820152602760248201527f526577617264732070657220686f7572206d75737420626520677265617465726044820152660207468616e20360cc1b6064820152608401610ea9565b6001600160a01b0382166000908152600660205260409020546143ce5760405162461bcd60e51b815260206004820152602960248201527f436f6d706f756e64206672657175656e6379206d75737420626520677265617460448201526806572207468616e20360bc1b6064820152608401610ea9565b6001600160a01b0382166000908152600860205260409020546144415760405162461bcd60e51b815260206004820152602560248201527f5769746864726177616c20666565206d75737420626520677265617465722074604482015264068616e20360dc1b6064820152608401610ea9565b6001600160a01b0382166000908152600960205260409020546144bb5760405162461bcd60e51b815260206004820152602c60248201527f466f756e646572732072657761726420626f6f7374206d75737420626520677260448201526b06561746572207468616e20360a41b6064820152608401610ea9565b6001600160a01b0382166000908152600a60205260409020546145315760405162461bcd60e51b815260206004820152602860248201527f6b4e46542072657761726420626f6f7374206d75737420626520677265617465604482015267072207468616e20360c41b6064820152608401610ea9565b6001600160a01b0382166000908152600b60205260409020546145965760405162461bcd60e51b815260206004820152601c60248201527f526174696f206d7573742062652067726561746572207468616e2030000000006044820152606401610ea9565b6001600160a01b0382166000908152600560205260409020546146075760405162461bcd60e51b8152602060048201526024808201527f4d696e696d756d207374616b65206d75737420626520677265617465722074686044820152630616e20360e41b6064820152608401610ea9565b6001600160a01b03821660009081526014602052604090205461466c5760405162461bcd60e51b815260206004820152601e60248201527f44697669736f72206d7573742062652067726561746572207468616e203000006044820152606401610ea9565b6000826001600160a01b03166318160ddd6040518163ffffffff1660e01b8152600401602060405180830381865afa1580156146ac573d6000803e3d6000fd5b505050506040513d601f19601f820116820180604052508101906146d09190614ac6565b1161472f5760405162461bcd60e51b815260206004820152602960248201527f546f6b656e20746f74616c20737570706c79206d75737420626520677265617460448201526806572207468616e20360bc1b6064820152608401610ea9565b6001600160a01b038216600081815260046020526040808220805460ff191685151590811790915590519092917f59261974a183535ca20bb33ae77db42c679a079844739a2e10f0b6ecb847379a91a35050565b80516a636f6e736f6c652e6c6f67602083016000808483855afa5050505050565b6001600160a01b03811681146147b957600080fd5b50565b6000602082840312156147ce57600080fd5b81356147d9816147a4565b9392505050565b6000602082840312156147f257600080fd5b5035919050565b6000806040838503121561480c57600080fd5b82359150602083013561481e816147a4565b809150509250929050565b6000806040838503121561483c57600080fd5b50508035926020909101359150565b60ff811681146147b957600080fd5b60008060006060848603121561486f57600080fd5b8335925060208401356148818161484b565b91506040840135614891816147a4565b809150509250925092565b600080604083850312156148af57600080fd5b82356148ba816147a4565b9150602083013561481e816147a4565b80151581146147b957600080fd5b600080604083850312156148eb57600080fd5b82356148f6816147a4565b9150602083013561481e816148ca565b600080600080600080600080610100898b03121561492357600080fd5b883561492e816147a4565b9a60208a01359a5060408a013599606081013599506080810135985060a0810135975060c0810135965060e00135945092505050565b6000806040838503121561497757600080fd5b8235614982816147a4565b946020939093013593505050565b600080604083850312156149a357600080fd5b82359150602083013561481e816148ca565b6020808252825182820181905260009190848201906040850190845b818110156149ed578351835292840192918401916001016149d1565b50909695505050505050565b60008060408385031215614a0c57600080fd5b82356148ba8161484b565b634e487b7160e01b600052601160045260246000fd5b80820180821115613ac857613ac8614a17565b81810381811115613ac857613ac8614a17565b8082028115828204841417613ac857613ac8614a17565b600082614a8757634e487b7160e01b600052601260045260246000fd5b500490565b600060208284031215614a9e57600080fd5b81516147d9816147a4565b600060208284031215614abb57600080fd5b81516147d9816148ca565b600060208284031215614ad857600080fd5b5051919050565b60ff8281168282160390811115613ac857613ac8614a17565b600181815b80851115614b33578160001904821115614b1957614b19614a17565b80851615614b2657918102915b93841c9390800290614afd565b509250929050565b600082614b4a57506001613ac8565b81614b5757506000613ac8565b8160018114614b6d5760028114614b7757614b93565b6001915050613ac8565b60ff841115614b8857614b88614a17565b50506001821b613ac8565b5060208310610133831016604e8410600b8410161715614bb6575081810a613ac8565b614bc08383614af8565b8060001904821115614bd457614bd4614a17565b029392505050565b60006147d98383614b3b565b634e487b7160e01b600052602160045260246000fd5b600060208284031215614c1057600080fd5b81516147d98161484b565b80820260008212600160ff1b84141615614c3757614c37614a17565b8181058314821517613ac857613ac8614a17565b634e487b7160e01b600052603260045260246000fd5b600060018201614c7357614c73614a17565b5060010190565b604081526000835180604084015260005b81811015614ca85760208187018101516060868401015201614c8b565b506000606082850101526060601f19601f830116840101915050826020830152939250505056fea164736f6c6343000811000a",
  "devdoc": {
    "kind": "dev",
    "methods": {
      "addNewStakingToken(address,uint256,uint256,uint256,uint256,uint256,uint256,uint256)": {
        "details": "This function adds a new staking token with its parameters. Emits various events based on the setter functions called during token addition. Emits a {NewAuthorizedERC20} event at the end.",
        "params": {
          "_apr": "The rewards per hour for the new staking token.",
          "_compoundFreq": "The compound frequency for the new staking token.",
          "_foundersRewardBoost": "The founders reward boost for the new staking token.",
          "_kNFTRewardBoost": "The kNFT reward boost for the new staking token.",
          "_minStake": "The minimum stake for the new staking token.",
          "_ratio": "The ratio for the new staking token.",
          "_token": "The address of the new staking token.",
          "_withdrawalFee": "The withdrawal fee for the new staking token."
        }
      },
      "calculateRewards(address,uint256)": {
        "details": "This function calculates the rewards for a specified staker and deposit ID. The rewards calculation      considers the deposit's elapsed time, staked amount, and a 25% APY compounded hourly.      If the provided staker is not the owner of the deposit, the function returns 0.",
        "params": {
          "_depositId": "The ID of the deposit for which to calculate the rewards.",
          "_staker": "The address of the staker for which to calculate the rewards."
        },
        "returns": {
          "rewards": "The calculated rewards for the specified staker and deposit ID."
        }
      },
      "claimRewards(uint256)": {
        "details": "This function allows the owner of a deposit to claim their earned rewards.      It verifies that the caller is the deposit owner and that the timelock has passed.      The function calculates the rewards, resets the unclaimed rewards to zero, and updates the deposit record.      The reward tokens are burned, and the earned rewards are transferred to the user from the vault.      The function emits a Reward event upon successful execution.",
        "params": {
          "_depositId": "The ID of the deposit whose rewards are to be claimed."
        }
      },
      "compoundRewardsTimer(uint256)": {
        "details": "This function returns the remaining time until the next allowed compounding action for a given deposit ID.      It calculates the remaining time based on the compound frequency for the deposited token.      If the timer has already passed, it returns 0.",
        "params": {
          "_depositId": "The ID of the deposit for which to return the compound timer."
        },
        "returns": {
          "remainingTime": "The remaining time until the next allowed compounding action in seconds."
        }
      },
      "constructor": {
        "details": "Initializes the staking contract with the provided parameters.",
        "params": {
          "_authority": "The address of the authority contract.",
          "_helixERC20": "The address of the Helix ERC20 token contract. The constructor sets up the initial state of the staking contract by initializing contract variables, setting up default staking token parameters, and authorizing the Kondux ERC20 token for staking.",
          "_konduxERC20": "The address of the Kondux ERC20 token contract.",
          "_konduxERC721Founders": "The address of the Kondux ERC721 Founders token contract.",
          "_konduxERC721kNFT": "The address of the Kondux ERC721 kNFT token contract.",
          "_treasury": "The address of the treasury contract."
        }
      },
      "deposit(uint256,uint8,address)": {
        "details": "This function allows a user to deposit a specified amount of an authorized token with a selected timelock period.      The function checks the user's token balance, allowance, and the timelock value before proceeding.      It then creates a new deposit record, sets the timelock based on the selected category, and updates the user's      deposit list and total staked amount. The specified amount of tokens is transferred from the user to the vault,      and an equivalent amount of reward tokens is minted for the user.",
        "params": {
          "_amount": "The amount of tokens to deposit.",
          "_timelock": "The timelock category, represented as an integer (0-4).",
          "_token": "The address of the token contract."
        },
        "returns": {
          "_0": "_id The deposit ID assigned to this deposit."
        }
      },
      "getAPR(address)": {
        "details": "This function returns the APR for the specified token.",
        "params": {
          "_tokenId": "The address of the token for which the rewards per hour are requested."
        },
        "returns": {
          "_rewardsPerHour": "The rewards per hour for the specified token."
        }
      },
      "getAllowedDnaVersion(uint256)": {
        "details": "This function returns the permission of usage of a dna version as boost.",
        "params": {
          "_dnaVersion": "The dna version for which the permission is requested."
        },
        "returns": {
          "_0": "The permission of usage of a dna version as boost"
        }
      },
      "getDecimalsERC20(address)": {
        "details": "This function returns the decimals for the specified token.",
        "params": {
          "_token": "The address of the token for which the decimals are requested."
        },
        "returns": {
          "_0": "The decimals for the specified token."
        }
      },
      "getDepositIds(address)": {
        "details": "This function returns the deposit IDs for the specified user.",
        "params": {
          "_user": "The address of the user for which the deposit IDs are requested."
        },
        "returns": {
          "_0": "An array of deposit IDs for the specified user."
        }
      },
      "getDepositInfo(uint256)": {
        "details": "This function retrieves the deposit information for a given deposit ID. It returns the staked amount      and the earned rewards (including unclaimed rewards) for the specified deposit.",
        "params": {
          "_depositId": "The ID of the deposit for which to retrieve the information."
        },
        "returns": {
          "_stake": "The staked amount for the specified deposit.",
          "_unclaimedRewards": "The earned rewards (including unclaimed rewards) for the specified deposit."
        }
      },
      "getDepositTimestamp(uint256)": {
        "details": "This function returns the timestamp of the deposit with the specified ID.",
        "params": {
          "_depositId": "The id of the deposit for which the timestamp is requested."
        },
        "returns": {
          "_depositTimestamp": "The timestamp of the deposit"
        }
      },
      "getDivisorERC20(address)": {
        "details": "This function returns the divisor for the specified token.",
        "params": {
          "_token": "The address of the token for which the divisor is requested."
        },
        "returns": {
          "_0": "The divisor for the specified token."
        }
      },
      "getEarlyWithdrawalPenalty(address)": {
        "details": "This function returns the penalty for early withdrawal for the specified token in basis points. (X% = X * 100)",
        "params": {
          "token": "The address of the token for which the penalty is requested."
        },
        "returns": {
          "_0": "The penalty for early withdrawal for the specified token in basis points."
        }
      },
      "getFoundersRewardBoost(address)": {
        "details": "This function returns the Founder's reward boost for the specified token.",
        "params": {
          "_tokenId": "The address of the token for which the Founder's reward boost is requested."
        },
        "returns": {
          "_foundersRewardBoost": "The Founder's reward boost for the specified token."
        }
      },
      "getMinStake(address)": {
        "details": "This function returns the minimum stake for the specified token.",
        "params": {
          "_tokenId": "The address of the token for which the minimum stake is requested."
        },
        "returns": {
          "_minStake": "The minimum stake for the specified token."
        }
      },
      "getStakedAmount(uint256)": {
        "details": "This function returns the staked amount for the specified deposit ID.",
        "params": {
          "_depositId": "The ID of the deposit for which the staked amount is requested."
        },
        "returns": {
          "_deposited": "The staked amount for the specified deposit ID."
        }
      },
      "getTimeOfLastUpdate(uint256)": {
        "details": "This function returns the time of the last update for the specified deposit ID.",
        "params": {
          "_depositId": "The ID of the deposit for which the time of the last update is requested."
        },
        "returns": {
          "_timeOfLastUpdate": "The time of the last update for the specified deposit ID."
        }
      },
      "getTimelock(uint256)": {
        "details": "This function returns the timelock for the specified deposit ID.",
        "params": {
          "_depositId": "The ID of the deposit for which the timelock is requested."
        },
        "returns": {
          "_timelock": "The timelock for the specified deposit ID."
        }
      },
      "getTimelockCategory(uint256)": {
        "details": "This function returns the timelock category for the specified deposit ID.",
        "params": {
          "_depositId": "The ID of the deposit for which the timelock category is requested."
        },
        "returns": {
          "_timelockCategory": "The timelock category for the specified deposit ID."
        }
      },
      "getTimelockCategoryBoost(uint256)": {
        "details": "This function returns the timelock category boost for the specified category.",
        "params": {
          "_category": "The category for which the timelock category boost is requested."
        },
        "returns": {
          "_0": "The timelock category boost for the specified category."
        }
      },
      "getTotalRewards(address)": {
        "details": "This function returns the total rewards earned for a specific token.",
        "params": {
          "_token": "The address of the token contract."
        },
        "returns": {
          "_totalRewards": "The total rewards earned for the given token."
        }
      },
      "getTotalStaked(address)": {
        "details": "This function returns the total amount staked for a specific token.",
        "params": {
          "_token": "The address of the token contract."
        },
        "returns": {
          "_totalStaked": "The total amount staked for the given token."
        }
      },
      "getTotalWithdrawalFees(address)": {
        "details": "This function returns the total withdrawal fees for a specific token.",
        "params": {
          "_token": "The address of the token contract."
        },
        "returns": {
          "_totalWithdrawalFees": "The total withdrawal fees for the given token."
        }
      },
      "getUserTotalRewardsByCoin(address,address)": {
        "details": "This function returns the total rewards earned by a specific user for a specific token.",
        "params": {
          "_token": "The address of the token contract.",
          "_user": "The address of the user."
        },
        "returns": {
          "_totalRewards": "The total rewards earned by the user for the given token."
        }
      },
      "getUserTotalStakedByCoin(address,address)": {
        "details": "This function returns the total amount staked by a specific user for a specific token.",
        "params": {
          "_token": "The address of the token contract.",
          "_user": "The address of the user."
        },
        "returns": {
          "_totalStaked": "The total amount staked by the user for the given token."
        }
      },
      "getWithdrawalFee(address)": {
        "details": "This function returns the withdrawal fee for the specified token.",
        "params": {
          "_tokenId": "The address of the token for which the withdrawal fee is requested."
        },
        "returns": {
          "_withdrawalFee": "The withdrawal fee for the specified token."
        }
      },
      "getkNFTRewardBoost(address)": {
        "details": "This function returns the kNFT reward boost for the specified token.",
        "params": {
          "_tokenId": "The address of the token for which the kNFT reward boost is requested."
        },
        "returns": {
          "_kNFTRewardBoost": "The kNFT reward boost for the specified token."
        }
      },
      "setAPR(uint256,address)": {
        "details": "This function sets the APR for a specified token.",
        "params": {
          "_apr": "The rewards per hour value to be set, as x% APR. (e.g. 25 = 25%)",
          "_tokenId": "The address of the token for which to set the rewards per hour."
        }
      },
      "setAllowedDnaVersion(uint256,bool)": {
        "details": "This function sets the version of dna that is allowed to be used for reward bonus",
        "params": {
          "_allowed": "True to allow the dna version, false to disallow.",
          "_dnaVersion": "The dna version to be set."
        }
      },
      "setAuthorizedERC20(address,bool)": {
        "details": "This function sets whether an ERC20 token is authorized as a staking currency. Emits a {NewAuthorizedERC20} event.",
        "params": {
          "_authorized": "True to authorize the token, false to deauthorize.",
          "_token": "The address of the token to be authorized or deauthorized."
        }
      },
      "setCompoundFreq(uint256,address)": {
        "details": "This function sets the compound frequency for a specified token.",
        "params": {
          "_compoundFreq": "The compound frequency value to be set.",
          "_tokenId": "The address of the token for which to set the compound frequency."
        }
      },
      "setDecimalsERC20(uint8,address)": {
        "details": "This function sets the decimals of a specified token.",
        "params": {
          "_decimals": "The decimals value to be set.",
          "_tokenId": "The address of the token for which to set the decimals."
        }
      },
      "setDivisorERC20(uint256,address)": {
        "details": "This function sets the divisor for a specified token.",
        "params": {
          "_divisor": "The divisor value to be set.",
          "_tokenId": "The address of the token for which to set the divisor."
        }
      },
      "setEarlyWithdrawalPenalty(address,uint256)": {
        "details": "This function sets the penalty percentage for early withdrawal of a specified token.",
        "params": {
          "penaltyPercentage": "The penalty percentage value to be set. Must be between 0 and 100. ",
          "token": "The address of the token for which to set the penalty percentage."
        }
      },
      "setFoundersRewardBoost(uint256,address)": {
        "details": "This function sets the founders reward boost for a specified token.",
        "params": {
          "_foundersRewardBoost": "The founders reward boost value to be set.",
          "_tokenId": "The address of the token for which to set the founders reward boost."
        }
      },
      "setHelixERC20(address)": {
        "details": "This function sets the address of the Helix ERC20 contract.",
        "params": {
          "_helix": "The address of the Helix ERC20 contract."
        }
      },
      "setKonduxERC721Founders(address)": {
        "details": "This function sets the address of the konduxERC721Founders contract.",
        "params": {
          "_konduxERC721Founders": "The address of the konduxERC721Founders contract."
        }
      },
      "setKonduxERC721kNFT(address)": {
        "details": "This function sets the address of the konduxERC721kNFT contract.",
        "params": {
          "_konduxERC721kNFT": "The address of the konduxERC721kNFT contract."
        }
      },
      "setMinStake(uint256,address)": {
        "details": "This function sets the minimum staking amount for a specified token.",
        "params": {
          "_minStake": "The minimum staking amount to be set, in wei.",
          "_tokenId": "The address of the token for which to set the minimum staking amount."
        }
      },
      "setRatio(uint256,address)": {
        "details": "This function sets the ratio for a specified ERC20 token.",
        "params": {
          "_ratio": "The ratio value to be set.",
          "_tokenId": "The address of the token for which to set the ratio."
        }
      },
      "setTimelockCategoryBoost(uint256,uint256)": {
        "details": "This function sets the timelock category boost for a specified category.",
        "params": {
          "_boost": "The boost value to be set.",
          "_category": "The category for which to set the boost."
        }
      },
      "setTreasury(address)": {
        "details": "This function sets the address of the Treasury contract.",
        "params": {
          "_treasury": "The address of the Treasury contract."
        }
      },
      "setWithdrawalFee(uint256,address)": {
        "details": "This function sets the withdrawal fee for a specified token.",
        "params": {
          "_tokenId": "The address of the token for which to set the withdrawal fee.",
          "_withdrawalFee": "The withdrawal fee value to be set."
        }
      },
      "setkNFTRewardBoost(uint256,address)": {
        "details": "This function sets the kNFT reward boost for a specified token.",
        "params": {
          "_kNFTRewardBoost": "The kNFT reward boost value to be set.",
          "_tokenId": "The address of the token for which to set the kNFT reward boost."
        }
      },
      "stakeRewards(uint256)": {
        "details": "This function allows the owner of a deposit to stake their earned rewards.      It verifies that the caller is the deposit owner and that the compounding is not happening too soon.      The function calculates the rewards, resets the unclaimed rewards to zero, and updates the deposit record.      The total staked amount is updated, and an equivalent amount of reward tokens is minted for the user.",
        "params": {
          "_depositId": "The ID of the deposit whose rewards are to be staked."
        }
      },
      "withdraw(uint256,uint256)": {
        "details": "This function allows the owner of a deposit to withdraw a specified amount of their deposited tokens.      It verifies that the timelock has passed, the caller is the deposit owner, and the withdrawal amount      is within the available limits. The function calculates the rewards, updates the deposit record, and      transfers the liquid amount to the user after applying the withdrawal fee. The collateral tokens are burned.      The function emits a Withdraw event upon successful execution.",
        "params": {
          "_amount": "The amount of tokens to withdraw.",
          "_depositId": "The ID of the deposit from which to withdraw the tokens."
        }
      },
      "withdrawAndClaim(uint256,uint256)": {
        "details": "This function allows the owner of a deposit to withdraw a specified amount of their deposited tokens      and claim their earned rewards in a single transaction. It calls the withdraw and claimRewards functions.",
        "params": {
          "_amount": "The amount of tokens to withdraw.",
          "_depositId": "The ID of the deposit from which to withdraw the tokens and claim the rewards."
        }
      },
      "withdrawBeforeTimelock(uint256,uint256)": {
        "details": "This function allows the owner of a deposit to withdraw a specified amount of their deposited tokens      before the timelock has passed. The user is punished by not receiving any reward boosts and paying an extra      fee proportional to the time left until the lock (the closer to the end of the locking time, the smaller the fee,      starting at 10%).      It verifies that the caller is the deposit owner, and the withdrawal amount is within the available limits.      The function calculates the rewards, updates the deposit record, and transfers the liquid amount to the user      after applying the extra fee and withdrawal fee. The collateral tokens are burned.      The function emits a Withdraw event upon successful execution.",
        "params": {
          "_amount": "The amount of tokens to withdraw.",
          "_depositId": "The ID of the deposit from which to withdraw the tokens."
        }
      }
    },
    "version": 1
  },
  "userdoc": {
    "kind": "user",
    "methods": {},
    "version": 1
  },
  "storageLayout": {
    "storage": [
      {
        "astId": 3955,
        "contract": "contracts/Staking.sol:Staking",
        "label": "authority",
        "offset": 0,
        "slot": "0",
        "type": "t_contract(IAuthority)3560"
      },
      {
        "astId": 357,
        "contract": "contracts/Staking.sol:Staking",
        "label": "_depositIds",
        "offset": 0,
        "slot": "1",
        "type": "t_struct(Counter)255_storage"
      },
      {
        "astId": 389,
        "contract": "contracts/Staking.sol:Staking",
        "label": "userDepositsIds",
        "offset": 0,
        "slot": "2",
        "type": "t_mapping(t_address,t_array(t_uint256)dyn_storage)"
      },
      {
        "astId": 394,
        "contract": "contracts/Staking.sol:Staking",
        "label": "userDeposits",
        "offset": 0,
        "slot": "3",
        "type": "t_mapping(t_uint256,t_struct(Staker)376_storage)"
      },
      {
        "astId": 398,
        "contract": "contracts/Staking.sol:Staking",
        "label": "authorizedERC20",
        "offset": 0,
        "slot": "4",
        "type": "t_mapping(t_address,t_bool)"
      },
      {
        "astId": 402,
        "contract": "contracts/Staking.sol:Staking",
        "label": "minStakeERC20",
        "offset": 0,
        "slot": "5",
        "type": "t_mapping(t_address,t_uint256)"
      },
      {
        "astId": 406,
        "contract": "contracts/Staking.sol:Staking",
        "label": "compoundFreqERC20",
        "offset": 0,
        "slot": "6",
        "type": "t_mapping(t_address,t_uint256)"
      },
      {
        "astId": 410,
        "contract": "contracts/Staking.sol:Staking",
        "label": "aprERC20",
        "offset": 0,
        "slot": "7",
        "type": "t_mapping(t_address,t_uint256)"
      },
      {
        "astId": 414,
        "contract": "contracts/Staking.sol:Staking",
        "label": "withdrawalFeeERC20",
        "offset": 0,
        "slot": "8",
        "type": "t_mapping(t_address,t_uint256)"
      },
      {
        "astId": 418,
        "contract": "contracts/Staking.sol:Staking",
        "label": "foundersRewardBoostERC20",
        "offset": 0,
        "slot": "9",
        "type": "t_mapping(t_address,t_uint256)"
      },
      {
        "astId": 422,
        "contract": "contracts/Staking.sol:Staking",
        "label": "kNFTRewardBoostERC20",
        "offset": 0,
        "slot": "10",
        "type": "t_mapping(t_address,t_uint256)"
      },
      {
        "astId": 426,
        "contract": "contracts/Staking.sol:Staking",
        "label": "ratioERC20",
        "offset": 0,
        "slot": "11",
        "type": "t_mapping(t_address,t_uint256)"
      },
      {
        "astId": 430,
        "contract": "contracts/Staking.sol:Staking",
        "label": "decimalsERC20",
        "offset": 0,
        "slot": "12",
        "type": "t_mapping(t_address,t_uint8)"
      },
      {
        "astId": 434,
        "contract": "contracts/Staking.sol:Staking",
        "label": "totalStaked",
        "offset": 0,
        "slot": "13",
        "type": "t_mapping(t_address,t_uint256)"
      },
      {
        "astId": 440,
        "contract": "contracts/Staking.sol:Staking",
        "label": "userTotalStakedByCoin",
        "offset": 0,
        "slot": "14",
        "type": "t_mapping(t_address,t_mapping(t_address,t_uint256))"
      },
      {
        "astId": 444,
        "contract": "contracts/Staking.sol:Staking",
        "label": "totalRewarded",
        "offset": 0,
        "slot": "15",
        "type": "t_mapping(t_address,t_uint256)"
      },
      {
        "astId": 450,
        "contract": "contracts/Staking.sol:Staking",
        "label": "userTotalRewardedByCoin",
        "offset": 0,
        "slot": "16",
        "type": "t_mapping(t_address,t_mapping(t_address,t_uint256))"
      },
      {
        "astId": 454,
        "contract": "contracts/Staking.sol:Staking",
        "label": "totalWithdrawalFees",
        "offset": 0,
        "slot": "17",
        "type": "t_mapping(t_address,t_uint256)"
      },
      {
        "astId": 458,
        "contract": "contracts/Staking.sol:Staking",
        "label": "earlyWithdrawalPenalty",
        "offset": 0,
        "slot": "18",
        "type": "t_mapping(t_address,t_uint256)"
      },
      {
        "astId": 462,
        "contract": "contracts/Staking.sol:Staking",
        "label": "timelockCategoryBoost",
        "offset": 0,
        "slot": "19",
        "type": "t_mapping(t_uint256,t_uint256)"
      },
      {
        "astId": 466,
        "contract": "contracts/Staking.sol:Staking",
        "label": "divisorERC20",
        "offset": 0,
        "slot": "20",
        "type": "t_mapping(t_address,t_uint256)"
      },
      {
        "astId": 470,
        "contract": "contracts/Staking.sol:Staking",
        "label": "allowedDnaVersions",
        "offset": 0,
        "slot": "21",
        "type": "t_mapping(t_uint256,t_bool)"
      },
      {
        "astId": 473,
        "contract": "contracts/Staking.sol:Staking",
        "label": "helixERC20",
        "offset": 0,
        "slot": "22",
        "type": "t_contract(IHelix)3601"
      },
      {
        "astId": 476,
        "contract": "contracts/Staking.sol:Staking",
        "label": "konduxERC721Founders",
        "offset": 0,
        "slot": "23",
        "type": "t_contract(IERC721)218"
      },
      {
        "astId": 478,
        "contract": "contracts/Staking.sol:Staking",
        "label": "konduxERC721kNFT",
        "offset": 0,
        "slot": "24",
        "type": "t_address"
      },
      {
        "astId": 481,
        "contract": "contracts/Staking.sol:Staking",
        "label": "treasury",
        "offset": 0,
        "slot": "25",
        "type": "t_contract(ITreasury)3943"
      }
    ],
    "types": {
      "t_address": {
        "encoding": "inplace",
        "label": "address",
        "numberOfBytes": "20"
      },
      "t_array(t_uint256)dyn_storage": {
        "base": "t_uint256",
        "encoding": "dynamic_array",
        "label": "uint256[]",
        "numberOfBytes": "32"
      },
      "t_bool": {
        "encoding": "inplace",
        "label": "bool",
        "numberOfBytes": "1"
      },
      "t_contract(IAuthority)3560": {
        "encoding": "inplace",
        "label": "contract IAuthority",
        "numberOfBytes": "20"
      },
      "t_contract(IERC721)218": {
        "encoding": "inplace",
        "label": "contract IERC721",
        "numberOfBytes": "20"
      },
      "t_contract(IHelix)3601": {
        "encoding": "inplace",
        "label": "contract IHelix",
        "numberOfBytes": "20"
      },
      "t_contract(ITreasury)3943": {
        "encoding": "inplace",
        "label": "contract ITreasury",
        "numberOfBytes": "20"
      },
      "t_mapping(t_address,t_array(t_uint256)dyn_storage)": {
        "encoding": "mapping",
        "key": "t_address",
        "label": "mapping(address => uint256[])",
        "numberOfBytes": "32",
        "value": "t_array(t_uint256)dyn_storage"
      },
      "t_mapping(t_address,t_bool)": {
        "encoding": "mapping",
        "key": "t_address",
        "label": "mapping(address => bool)",
        "numberOfBytes": "32",
        "value": "t_bool"
      },
      "t_mapping(t_address,t_mapping(t_address,t_uint256))": {
        "encoding": "mapping",
        "key": "t_address",
        "label": "mapping(address => mapping(address => uint256))",
        "numberOfBytes": "32",
        "value": "t_mapping(t_address,t_uint256)"
      },
      "t_mapping(t_address,t_uint256)": {
        "encoding": "mapping",
        "key": "t_address",
        "label": "mapping(address => uint256)",
        "numberOfBytes": "32",
        "value": "t_uint256"
      },
      "t_mapping(t_address,t_uint8)": {
        "encoding": "mapping",
        "key": "t_address",
        "label": "mapping(address => uint8)",
        "numberOfBytes": "32",
        "value": "t_uint8"
      },
      "t_mapping(t_uint256,t_bool)": {
        "encoding": "mapping",
        "key": "t_uint256",
        "label": "mapping(uint256 => bool)",
        "numberOfBytes": "32",
        "value": "t_bool"
      },
      "t_mapping(t_uint256,t_struct(Staker)376_storage)": {
        "encoding": "mapping",
        "key": "t_uint256",
        "label": "mapping(uint256 => struct Staking.Staker)",
        "numberOfBytes": "32",
        "value": "t_struct(Staker)376_storage"
      },
      "t_mapping(t_uint256,t_uint256)": {
        "encoding": "mapping",
        "key": "t_uint256",
        "label": "mapping(uint256 => uint256)",
        "numberOfBytes": "32",
        "value": "t_uint256"
      },
      "t_struct(Counter)255_storage": {
        "encoding": "inplace",
        "label": "struct Counters.Counter",
        "members": [
          {
            "astId": 254,
            "contract": "contracts/Staking.sol:Staking",
            "label": "_value",
            "offset": 0,
            "slot": "0",
            "type": "t_uint256"
          }
        ],
        "numberOfBytes": "32"
      },
      "t_struct(Staker)376_storage": {
        "encoding": "inplace",
        "label": "struct Staking.Staker",
        "members": [
          {
            "astId": 359,
            "contract": "contracts/Staking.sol:Staking",
            "label": "token",
            "offset": 0,
            "slot": "0",
            "type": "t_address"
          },
          {
            "astId": 361,
            "contract": "contracts/Staking.sol:Staking",
            "label": "staker",
            "offset": 0,
            "slot": "1",
            "type": "t_address"
          },
          {
            "astId": 363,
            "contract": "contracts/Staking.sol:Staking",
            "label": "deposited",
            "offset": 0,
            "slot": "2",
            "type": "t_uint256"
          },
          {
            "astId": 365,
            "contract": "contracts/Staking.sol:Staking",
            "label": "redeemed",
            "offset": 0,
            "slot": "3",
            "type": "t_uint256"
          },
          {
            "astId": 367,
            "contract": "contracts/Staking.sol:Staking",
            "label": "timeOfLastUpdate",
            "offset": 0,
            "slot": "4",
            "type": "t_uint256"
          },
          {
            "astId": 369,
            "contract": "contracts/Staking.sol:Staking",
            "label": "lastDepositTime",
            "offset": 0,
            "slot": "5",
            "type": "t_uint256"
          },
          {
            "astId": 371,
            "contract": "contracts/Staking.sol:Staking",
            "label": "unclaimedRewards",
            "offset": 0,
            "slot": "6",
            "type": "t_uint256"
          },
          {
            "astId": 373,
            "contract": "contracts/Staking.sol:Staking",
            "label": "timelock",
            "offset": 0,
            "slot": "7",
            "type": "t_uint256"
          },
          {
            "astId": 375,
            "contract": "contracts/Staking.sol:Staking",
            "label": "timelockCategory",
            "offset": 0,
            "slot": "8",
            "type": "t_uint8"
          }
        ],
        "numberOfBytes": "288"
      },
      "t_uint256": {
        "encoding": "inplace",
        "label": "uint256",
        "numberOfBytes": "32"
      },
      "t_uint8": {
        "encoding": "inplace",
        "label": "uint8",
        "numberOfBytes": "1"
      }
    }
  }
}