{
  "address": "0x3cF8cE705d19a44604c54AeF231d44E4a5596911",
  "abi": [
    {
      "inputs": [
        {
          "internalType": "string",
          "name": "_name",
          "type": "string"
        },
        {
          "internalType": "string",
          "name": "_ticker",
          "type": "string"
        },
        {
          "internalType": "address",
          "name": "_authority",
          "type": "address"
        }
      ],
      "stateMutability": "nonpayable",
      "type": "constructor"
    },
    {
      "anonymous": false,
      "inputs": [
        {
          "indexed": true,
          "internalType": "address",
          "name": "owner",
          "type": "address"
        },
        {
          "indexed": true,
          "internalType": "address",
          "name": "approved",
          "type": "address"
        },
        {
          "indexed": true,
          "internalType": "uint256",
          "name": "tokenId",
          "type": "uint256"
        }
      ],
      "name": "Approval",
      "type": "event"
    },
    {
      "anonymous": false,
      "inputs": [
        {
          "indexed": true,
          "internalType": "address",
          "name": "owner",
          "type": "address"
        },
        {
          "indexed": true,
          "internalType": "address",
          "name": "operator",
          "type": "address"
        },
        {
          "indexed": false,
          "internalType": "bool",
          "name": "approved",
          "type": "bool"
        }
      ],
      "name": "ApprovalForAll",
      "type": "event"
    },
    {
      "anonymous": false,
      "inputs": [
        {
          "indexed": false,
          "internalType": "contract IAuthority",
          "name": "authority",
          "type": "address"
        }
      ],
      "name": "AuthorityUpdated",
      "type": "event"
    },
    {
      "anonymous": false,
      "inputs": [
        {
          "indexed": false,
          "internalType": "string",
          "name": "baseURI",
          "type": "string"
        }
      ],
      "name": "BaseURIChanged",
      "type": "event"
    },
    {
      "anonymous": false,
      "inputs": [
        {
          "indexed": false,
          "internalType": "uint96",
          "name": "denominator",
          "type": "uint96"
        }
      ],
      "name": "DenominatorChanged",
      "type": "event"
    },
    {
      "anonymous": false,
      "inputs": [
        {
          "indexed": false,
          "internalType": "address",
          "name": "account",
          "type": "address"
        }
      ],
      "name": "Paused",
      "type": "event"
    },
    {
      "anonymous": false,
      "inputs": [
        {
          "indexed": false,
          "internalType": "address",
          "name": "sender",
          "type": "address"
        },
        {
          "indexed": false,
          "internalType": "uint256",
          "name": "value",
          "type": "uint256"
        }
      ],
      "name": "Received",
      "type": "event"
    },
    {
      "anonymous": false,
      "inputs": [
        {
          "indexed": true,
          "internalType": "address",
          "name": "from",
          "type": "address"
        },
        {
          "indexed": true,
          "internalType": "address",
          "name": "to",
          "type": "address"
        },
        {
          "indexed": true,
          "internalType": "uint256",
          "name": "tokenId",
          "type": "uint256"
        }
      ],
      "name": "Transfer",
      "type": "event"
    },
    {
      "anonymous": false,
      "inputs": [
        {
          "indexed": false,
          "internalType": "address",
          "name": "account",
          "type": "address"
        }
      ],
      "name": "Unpaused",
      "type": "event"
    },
    {
      "inputs": [],
      "name": "MINTER_ROLE",
      "outputs": [
        {
          "internalType": "bytes32",
          "name": "",
          "type": "bytes32"
        }
      ],
      "stateMutability": "view",
      "type": "function"
    },
    {
      "inputs": [
        {
          "internalType": "address",
          "name": "to",
          "type": "address"
        },
        {
          "internalType": "uint256",
          "name": "tokenId",
          "type": "uint256"
        }
      ],
      "name": "approve",
      "outputs": [],
      "stateMutability": "nonpayable",
      "type": "function"
    },
    {
      "inputs": [],
      "name": "authority",
      "outputs": [
        {
          "internalType": "contract IAuthority",
          "name": "",
          "type": "address"
        }
      ],
      "stateMutability": "view",
      "type": "function"
    },
    {
      "inputs": [
        {
          "internalType": "address",
          "name": "to",
          "type": "address"
        }
      ],
      "name": "automaticMint",
      "outputs": [
        {
          "internalType": "uint256",
          "name": "",
          "type": "uint256"
        }
      ],
      "stateMutability": "nonpayable",
      "type": "function"
    },
    {
      "inputs": [
        {
          "internalType": "address",
          "name": "owner",
          "type": "address"
        }
      ],
      "name": "balanceOf",
      "outputs": [
        {
          "internalType": "uint256",
          "name": "",
          "type": "uint256"
        }
      ],
      "stateMutability": "view",
      "type": "function"
    },
    {
      "inputs": [],
      "name": "baseURI",
      "outputs": [
        {
          "internalType": "string",
          "name": "",
          "type": "string"
        }
      ],
      "stateMutability": "view",
      "type": "function"
    },
    {
      "inputs": [
        {
          "internalType": "uint256",
          "name": "tokenId",
          "type": "uint256"
        }
      ],
      "name": "burn",
      "outputs": [],
      "stateMutability": "nonpayable",
      "type": "function"
    },
    {
      "inputs": [
        {
          "internalType": "uint96",
          "name": "_denominator",
          "type": "uint96"
        }
      ],
      "name": "changeDenominator",
      "outputs": [
        {
          "internalType": "uint96",
          "name": "",
          "type": "uint96"
        }
      ],
      "stateMutability": "nonpayable",
      "type": "function"
    },
    {
      "inputs": [],
      "name": "denominator",
      "outputs": [
        {
          "internalType": "uint96",
          "name": "",
          "type": "uint96"
        }
      ],
      "stateMutability": "view",
      "type": "function"
    },
    {
      "inputs": [
        {
          "internalType": "uint256",
          "name": "tokenId",
          "type": "uint256"
        }
      ],
      "name": "getApproved",
      "outputs": [
        {
          "internalType": "address",
          "name": "",
          "type": "address"
        }
      ],
      "stateMutability": "view",
      "type": "function"
    },
    {
      "inputs": [
        {
          "internalType": "address",
          "name": "owner",
          "type": "address"
        },
        {
          "internalType": "address",
          "name": "operator",
          "type": "address"
        }
      ],
      "name": "isApprovedForAll",
      "outputs": [
        {
          "internalType": "bool",
          "name": "",
          "type": "bool"
        }
      ],
      "stateMutability": "view",
      "type": "function"
    },
    {
      "inputs": [],
      "name": "name",
      "outputs": [
        {
          "internalType": "string",
          "name": "",
          "type": "string"
        }
      ],
      "stateMutability": "view",
      "type": "function"
    },
    {
      "inputs": [
        {
          "internalType": "uint256",
          "name": "tokenId",
          "type": "uint256"
        }
      ],
      "name": "ownerOf",
      "outputs": [
        {
          "internalType": "address",
          "name": "",
          "type": "address"
        }
      ],
      "stateMutability": "view",
      "type": "function"
    },
    {
      "inputs": [],
      "name": "pause",
      "outputs": [],
      "stateMutability": "nonpayable",
      "type": "function"
    },
    {
      "inputs": [],
      "name": "paused",
      "outputs": [
        {
          "internalType": "bool",
          "name": "",
          "type": "bool"
        }
      ],
      "stateMutability": "view",
      "type": "function"
    },
    {
      "inputs": [
        {
          "internalType": "uint256",
          "name": "_tokenId",
          "type": "uint256"
        },
        {
          "internalType": "uint256",
          "name": "_salePrice",
          "type": "uint256"
        }
      ],
      "name": "royaltyInfo",
      "outputs": [
        {
          "internalType": "address",
          "name": "",
          "type": "address"
        },
        {
          "internalType": "uint256",
          "name": "",
          "type": "uint256"
        }
      ],
      "stateMutability": "view",
      "type": "function"
    },
    {
      "inputs": [
        {
          "internalType": "address",
          "name": "to",
          "type": "address"
        }
      ],
      "name": "safeMint",
      "outputs": [],
      "stateMutability": "nonpayable",
      "type": "function"
    },
    {
      "inputs": [
        {
          "internalType": "address",
          "name": "from",
          "type": "address"
        },
        {
          "internalType": "address",
          "name": "to",
          "type": "address"
        },
        {
          "internalType": "uint256",
          "name": "tokenId",
          "type": "uint256"
        }
      ],
      "name": "safeTransferFrom",
      "outputs": [],
      "stateMutability": "nonpayable",
      "type": "function"
    },
    {
      "inputs": [
        {
          "internalType": "address",
          "name": "from",
          "type": "address"
        },
        {
          "internalType": "address",
          "name": "to",
          "type": "address"
        },
        {
          "internalType": "uint256",
          "name": "tokenId",
          "type": "uint256"
        },
        {
          "internalType": "bytes",
          "name": "data",
          "type": "bytes"
        }
      ],
      "name": "safeTransferFrom",
      "outputs": [],
      "stateMutability": "nonpayable",
      "type": "function"
    },
    {
      "inputs": [
        {
          "internalType": "address",
          "name": "operator",
          "type": "address"
        },
        {
          "internalType": "bool",
          "name": "approved",
          "type": "bool"
        }
      ],
      "name": "setApprovalForAll",
      "outputs": [],
      "stateMutability": "nonpayable",
      "type": "function"
    },
    {
      "inputs": [
        {
          "internalType": "contract IAuthority",
          "name": "_newAuthority",
          "type": "address"
        }
      ],
      "name": "setAuthority",
      "outputs": [],
      "stateMutability": "nonpayable",
      "type": "function"
    },
    {
      "inputs": [
        {
          "internalType": "string",
          "name": "_newURI",
          "type": "string"
        }
      ],
      "name": "setBaseURI",
      "outputs": [
        {
          "internalType": "string",
          "name": "",
          "type": "string"
        }
      ],
      "stateMutability": "nonpayable",
      "type": "function"
    },
    {
      "inputs": [
        {
          "internalType": "address",
          "name": "receiver",
          "type": "address"
        },
        {
          "internalType": "uint96",
          "name": "feeNumerator",
          "type": "uint96"
        }
      ],
      "name": "setDefaultRoyalty",
      "outputs": [],
      "stateMutability": "nonpayable",
      "type": "function"
    },
    {
      "inputs": [
        {
          "internalType": "uint256",
          "name": "tokenId",
          "type": "uint256"
        },
        {
          "internalType": "address",
          "name": "receiver",
          "type": "address"
        },
        {
          "internalType": "uint96",
          "name": "feeNumerator",
          "type": "uint96"
        }
      ],
      "name": "setTokenRoyalty",
      "outputs": [],
      "stateMutability": "nonpayable",
      "type": "function"
    },
    {
      "inputs": [
        {
          "internalType": "bytes4",
          "name": "interfaceId",
          "type": "bytes4"
        }
      ],
      "name": "supportsInterface",
      "outputs": [
        {
          "internalType": "bool",
          "name": "",
          "type": "bool"
        }
      ],
      "stateMutability": "view",
      "type": "function"
    },
    {
      "inputs": [],
      "name": "symbol",
      "outputs": [
        {
          "internalType": "string",
          "name": "",
          "type": "string"
        }
      ],
      "stateMutability": "view",
      "type": "function"
    },
    {
      "inputs": [
        {
          "internalType": "uint256",
          "name": "index",
          "type": "uint256"
        }
      ],
      "name": "tokenByIndex",
      "outputs": [
        {
          "internalType": "uint256",
          "name": "",
          "type": "uint256"
        }
      ],
      "stateMutability": "view",
      "type": "function"
    },
    {
      "inputs": [
        {
          "internalType": "address",
          "name": "owner",
          "type": "address"
        },
        {
          "internalType": "uint256",
          "name": "index",
          "type": "uint256"
        }
      ],
      "name": "tokenOfOwnerByIndex",
      "outputs": [
        {
          "internalType": "uint256",
          "name": "",
          "type": "uint256"
        }
      ],
      "stateMutability": "view",
      "type": "function"
    },
    {
      "inputs": [
        {
          "internalType": "uint256",
          "name": "tokenId",
          "type": "uint256"
        }
      ],
      "name": "tokenURI",
      "outputs": [
        {
          "internalType": "string",
          "name": "",
          "type": "string"
        }
      ],
      "stateMutability": "view",
      "type": "function"
    },
    {
      "inputs": [],
      "name": "totalSupply",
      "outputs": [
        {
          "internalType": "uint256",
          "name": "",
          "type": "uint256"
        }
      ],
      "stateMutability": "view",
      "type": "function"
    },
    {
      "inputs": [
        {
          "internalType": "address",
          "name": "from",
          "type": "address"
        },
        {
          "internalType": "address",
          "name": "to",
          "type": "address"
        },
        {
          "internalType": "uint256",
          "name": "tokenId",
          "type": "uint256"
        }
      ],
      "name": "transferFrom",
      "outputs": [],
      "stateMutability": "nonpayable",
      "type": "function"
    },
    {
      "inputs": [],
      "name": "unpause",
      "outputs": [],
      "stateMutability": "nonpayable",
      "type": "function"
    }
  ],
  "transactionHash": "0x747842411643b55cc184ae70b32c828327a20d271f8d33dc14d5ebf7783d4163",
  "args": [
    "Kondux Founders NFT",
    "fKNDX",
    "0x58775Ab3184eAfe89Df3d015803C2c12aCD4d83E"
  ],
  "numDeployments": 1,
  "solcInputHash": "79976aa71752eae68af1046a4f42ee0e",
  "bytecode": "0x60806040527f9f2df0fed2c77648de5860a4cc508cd0818c85b8b8a1ab4ceeef8d981c8956a6600d553480156200003557600080fd5b5060405162002bf738038062002bf7833981016040819052620000589162000208565b808383600262000069838262000324565b50600362000078828262000324565b5050600c805460ff19169055506001600160a01b038116620000e05760405162461bcd60e51b815260206004820181905260248201527f417574686f726974792063616e6e6f74206265207a65726f2061646472657373604482015260640160405180910390fd5b600c8054610100600160a81b0319166101006001600160a01b038416908102919091179091556040519081527f2f658b440c35314f52658ea8a740e05b284cdc84dc9ae01e891f21b8933e7cad9060200160405180910390a150505050620003f0565b634e487b7160e01b600052604160045260246000fd5b600082601f8301126200016b57600080fd5b81516001600160401b038082111562000188576200018862000143565b604051601f8301601f19908116603f01168101908282118183101715620001b357620001b362000143565b81604052838152602092508683858801011115620001d057600080fd5b600091505b83821015620001f45785820183015181830184015290820190620001d5565b600093810190920192909252949350505050565b6000806000606084860312156200021e57600080fd5b83516001600160401b03808211156200023657600080fd5b620002448783880162000159565b945060208601519150808211156200025b57600080fd5b506200026a8682870162000159565b604086015190935090506001600160a01b03811681146200028a57600080fd5b809150509250925092565b600181811c90821680620002aa57607f821691505b602082108103620002cb57634e487b7160e01b600052602260045260246000fd5b50919050565b601f8211156200031f57600081815260208120601f850160051c81016020861015620002fa5750805b601f850160051c820191505b818110156200031b5782815560010162000306565b5050505b505050565b81516001600160401b0381111562000340576200034062000143565b620003588162000351845462000295565b84620002d1565b602080601f831160018114620003905760008415620003775750858301515b600019600386901b1c1916600185901b1785556200031b565b600085815260208120601f198616915b82811015620003c157888601518255948401946001909101908401620003a0565b5085821015620003e05787850151600019600388901b60f8161c191681555b5050505050600190811b01905550565b6127f780620004006000396000f3fe608060405234801561001057600080fd5b50600436106101f05760003560e01c80635944c7531161010f57806396ce0795116100a2578063bf7e214f11610071578063bf7e214f1461043c578063c87b56dd14610454578063d539139314610467578063e985e9c51461047057600080fd5b806396ce0795146103d8578063a22cb46514610403578063ab51e23a14610416578063b88d4fde1461042957600080fd5b806370a08231116100de57806370a08231146103a25780637a9e5e4b146103b55780638456cb59146103c857806395d89b41146103d057600080fd5b80635944c753146103695780635c975abb1461037c5780636352211e146103875780636c0360eb1461039a57600080fd5b80632f745c591161018757806342842e0e1161015657806342842e0e1461031d57806342966c68146103305780634f6ccce71461034357806355f804b31461035657600080fd5b80632f745c59146102dc57806337f8649e146102ef5780633f4ba83a1461030257806340d097c31461030a57600080fd5b8063095ea7b3116101c3578063095ea7b31461027257806318160ddd1461028557806323b872dd146102975780632a55205a146102aa57600080fd5b806301ffc9a7146101f557806304634d8d1461021d57806306fdde0314610232578063081812fc14610247575b600080fd5b610208610203366004612062565b6104ac565b60405190151581526020015b60405180910390f35b61023061022b3660046120b2565b6104bd565b005b61023a6104d3565b6040516102149190612137565b61025a61025536600461214a565b610565565b6040516001600160a01b039091168152602001610214565b610230610280366004612163565b61058c565b600a545b604051908152602001610214565b6102306102a536600461218f565b6106a6565b6102bd6102b83660046121d0565b61071f565b604080516001600160a01b039093168352602083019190915201610214565b6102896102ea366004612163565b6107cb565b6102896102fd3660046121f2565b610873565b6102306108af565b6102306103183660046121f2565b6108c1565b61023061032b36600461218f565b6108f2565b61023061033e36600461214a565b61090d565b61028961035136600461214a565b610985565b61023a61036436600461229b565b610a29565b6102306103773660046122e4565b610b0b565b600c5460ff16610208565b61025a61039536600461214a565b610b1e565b61023a610b83565b6102896103b03660046121f2565b610c11565b6102306103c33660046121f2565b610cab565b610230610d26565b61023a610d36565b600f546103eb906001600160601b031681565b6040516001600160601b039091168152602001610214565b610230610411366004612322565b610d45565b6103eb610424366004612360565b610d50565b61023061043736600461237b565b610dc1565b600c5461025a9061010090046001600160a01b031681565b61023a61046236600461214a565b610e40565b610289600d5481565b61020861047e3660046123fb565b6001600160a01b03918216600090815260076020908152604080832093909416825291909152205460ff1690565b60006104b782610f29565b92915050565b6104c5610f34565b6104cf8282610ffa565b5050565b6060600280546104e290612429565b80601f016020809104026020016040519081016040528092919081815260200182805461050e90612429565b801561055b5780601f106105305761010080835404028352916020019161055b565b820191906000526020600020905b81548152906001019060200180831161053e57829003601f168201915b5050505050905090565b6000610570826110f7565b506000908152600660205260409020546001600160a01b031690565b600061059782610b1e565b9050806001600160a01b0316836001600160a01b0316036106095760405162461bcd60e51b815260206004820152602160248201527f4552433732313a20617070726f76616c20746f2063757272656e74206f776e656044820152603960f91b60648201526084015b60405180910390fd5b336001600160a01b03821614806106255750610625813361047e565b6106975760405162461bcd60e51b815260206004820152603e60248201527f4552433732313a20617070726f76652063616c6c6572206973206e6f7420746f60448201527f6b656e206f776e6572206e6f7220617070726f76656420666f7220616c6c00006064820152608401610600565b6106a1838361115b565b505050565b6106b1335b826111c9565b6107145760405162461bcd60e51b815260206004820152602e60248201527f4552433732313a2063616c6c6572206973206e6f7420746f6b656e206f776e6560448201526d1c881b9bdc88185c1c1c9bdd995960921b6064820152608401610600565b6106a1838383611248565b60008281526001602090815260408083208151808301909252546001600160a01b038116808352600160a01b9091046001600160601b03169282019290925282916107945750604080518082019091526000546001600160a01b0381168252600160a01b90046001600160601b031660208201525b6020810151600090612710906107b3906001600160601b031687612473565b6107bd91906124a8565b915196919550909350505050565b60006107d683610c11565b821061084a5760405162461bcd60e51b815260206004820152602b60248201527f455243373231456e756d657261626c653a206f776e657220696e646578206f7560448201527f74206f6620626f756e64730000000000000000000000000000000000000000006064820152608401610600565b506001600160a01b03919091166000908152600860209081526040808320938352929052205490565b6000600d5461088181611407565b600061088c60105490565b905061089c601080546001019055565b6108a684826114b4565b91505b50919050565b6108b7610f34565b6108bf6114ce565b565b600d546108cd81611407565b60006108d860105490565b90506108e8601080546001019055565b6106a183826114b4565b6106a183838360405180602001604052806000815250610dc1565b610916336106ab565b6109795760405162461bcd60e51b815260206004820152602e60248201527f4552433732313a2063616c6c6572206973206e6f7420746f6b656e206f776e6560448201526d1c881b9bdc88185c1c1c9bdd995960921b6064820152608401610600565b61098281611520565b50565b6000610990600a5490565b8210610a045760405162461bcd60e51b815260206004820152602c60248201527f455243373231456e756d657261626c653a20676c6f62616c20696e646578206f60448201527f7574206f6620626f756e647300000000000000000000000000000000000000006064820152608401610600565b600a8281548110610a1757610a176124bc565b90600052602060002001549050919050565b6060610a33610f34565b600e610a3f8382612520565b507f5411e8ebf1636d9e83d5fc4900bf80cbac82e8790da2a4c94db4895e889eedf6600e604051610a7091906125e0565b60405180910390a1600e8054610a8590612429565b80601f0160208091040260200160405190810160405280929190818152602001828054610ab190612429565b8015610afe5780601f10610ad357610100808354040283529160200191610afe565b820191906000526020600020905b815481529060010190602001808311610ae157829003601f168201915b505050505090505b919050565b610b13610f34565b6106a183838361153a565b6000818152600460205260408120546001600160a01b0316806104b75760405162461bcd60e51b815260206004820152601860248201527f4552433732313a20696e76616c696420746f6b656e20494400000000000000006044820152606401610600565b600e8054610b9090612429565b80601f0160208091040260200160405190810160405280929190818152602001828054610bbc90612429565b8015610c095780601f10610bde57610100808354040283529160200191610c09565b820191906000526020600020905b815481529060010190602001808311610bec57829003601f168201915b505050505081565b60006001600160a01b038216610c8f5760405162461bcd60e51b815260206004820152602960248201527f4552433732313a2061646472657373207a65726f206973206e6f74206120766160448201527f6c6964206f776e657200000000000000000000000000000000000000000000006064820152608401610600565b506001600160a01b031660009081526005602052604090205490565b610cb3610f34565b600c80547fffffffffffffffffffffff0000000000000000000000000000000000000000ff166101006001600160a01b038416908102919091179091556040519081527f2f658b440c35314f52658ea8a740e05b284cdc84dc9ae01e891f21b8933e7cad9060200160405180910390a150565b610d2e610f34565b6108bf611648565b6060600380546104e290612429565b6104cf338383611685565b6000610d5a610f34565b600f80546bffffffffffffffffffffffff19166001600160601b0384169081179091556040519081527f601b85aa9305dbcfbfc81aa2d4b5126c1ce24afdd1bad47d6880e5b6df081f579060200160405180910390a15050600f546001600160601b031690565b610dcb33836111c9565b610e2e5760405162461bcd60e51b815260206004820152602e60248201527f4552433732313a2063616c6c6572206973206e6f7420746f6b656e206f776e6560448201526d1c881b9bdc88185c1c1c9bdd995960921b6064820152608401610600565b610e3a84848484611753565b50505050565b6000818152600460205260409020546060906001600160a01b0316610ecd5760405162461bcd60e51b815260206004820152602f60248201527f4552433732314d657461646174613a2055524920717565727920666f72206e6f60448201527f6e6578697374656e7420746f6b656e00000000000000000000000000000000006064820152608401610600565b6000600e8054610edc90612429565b905011610ef857604051806020016040528060008152506104b7565b600e610f03836117d1565b604051602001610f1492919061266b565b60405160208183030381529060405292915050565b60006104b7826118ea565b600c60019054906101000a90046001600160a01b03166001600160a01b0316630c340a246040518163ffffffff1660e01b8152600401602060405180830381865afa158015610f87573d6000803e3d6000fd5b505050506040513d601f19601f82011682018060405250810190610fab91906126f2565b6001600160a01b0316336001600160a01b0316146108bf5760405162461bcd60e51b815260206004820152600c60248201526b15539055551213d49256915160a21b6044820152606401610600565b6127106001600160601b03821611156110685760405162461bcd60e51b815260206004820152602a60248201527f455243323938313a20726f79616c7479206665652077696c6c206578636565646044820152692073616c65507269636560b01b6064820152608401610600565b6001600160a01b0382166110be5760405162461bcd60e51b815260206004820152601960248201527f455243323938313a20696e76616c6964207265636569766572000000000000006044820152606401610600565b604080518082019091526001600160a01b039092168083526001600160601b039091166020909201829052600160a01b90910217600055565b6000818152600460205260409020546001600160a01b03166109825760405162461bcd60e51b815260206004820152601860248201527f4552433732313a20696e76616c696420746f6b656e20494400000000000000006044820152606401610600565b600081815260066020526040902080546001600160a01b0319166001600160a01b038416908117909155819061119082610b1e565b6001600160a01b03167f8c5be1e5ebec7d5bd14f71427d1e84f3dd0314c0f7b2291e5b200ac8c7c3b92560405160405180910390a45050565b6000806111d583610b1e565b9050806001600160a01b0316846001600160a01b0316148061121c57506001600160a01b0380821660009081526007602090815260408083209388168352929052205460ff165b806112405750836001600160a01b031661123584610565565b6001600160a01b0316145b949350505050565b826001600160a01b031661125b82610b1e565b6001600160a01b0316146112d75760405162461bcd60e51b815260206004820152602560248201527f4552433732313a207472616e736665722066726f6d20696e636f72726563742060448201527f6f776e65720000000000000000000000000000000000000000000000000000006064820152608401610600565b6001600160a01b0382166113395760405162461bcd60e51b8152602060048201526024808201527f4552433732313a207472616e7366657220746f20746865207a65726f206164646044820152637265737360e01b6064820152608401610600565b61134483838361190f565b61134f60008261115b565b6001600160a01b038316600090815260056020526040812080546001929061137890849061270f565b90915550506001600160a01b03821660009081526005602052604081208054600192906113a6908490612722565b909155505060008181526004602052604080822080546001600160a01b0319166001600160a01b0386811691821790925591518493918716917fddf252ad1be2c89b69c2b068fc378daa952ba7f163c4a11628f55a4df523b3ef91a4505050565b600c54604051634c9ba32160e11b8152336004820152829161010090046001600160a01b031690639937464290602401602060405180830381865afa158015611454573d6000803e3d6000fd5b505050506040513d601f19601f820116820180604052508101906114789190612735565b146109825760405162461bcd60e51b815260206004820152600c60248201526b15539055551213d49256915160a21b6044820152606401610600565b6104cf828260405180602001604052806000815250611922565b6114d66119a0565b600c805460ff191690557f5db9ee0a495bf2e6ff9c91a7834c1ba4fdd244a5e8aa4e537bd38aeae4b073aa335b6040516001600160a01b03909116815260200160405180910390a1565b611529816119f2565b600090815260016020526040812055565b6127106001600160601b03821611156115a85760405162461bcd60e51b815260206004820152602a60248201527f455243323938313a20726f79616c7479206665652077696c6c206578636565646044820152692073616c65507269636560b01b6064820152608401610600565b6001600160a01b0382166115fe5760405162461bcd60e51b815260206004820152601b60248201527f455243323938313a20496e76616c696420706172616d657465727300000000006044820152606401610600565b6040805180820182526001600160a01b0393841681526001600160601b0392831660208083019182526000968752600190529190942093519051909116600160a01b029116179055565b6116506119fb565b600c805460ff191660011790557f62e78cea01bee320cd4e420270b5ea74000d11b0c9f74754ebdbfc544b05a2586115033390565b816001600160a01b0316836001600160a01b0316036116e65760405162461bcd60e51b815260206004820152601960248201527f4552433732313a20617070726f766520746f2063616c6c6572000000000000006044820152606401610600565b6001600160a01b03838116600081815260076020908152604080832094871680845294825291829020805460ff191686151590811790915591519182527f17307eab39ab6107e8899845ad3d59bd9653f200f220920489ca2b5937696c31910160405180910390a3505050565b61175e848484611248565b61176a84848484611a4e565b610e3a5760405162461bcd60e51b815260206004820152603260248201527f4552433732313a207472616e7366657220746f206e6f6e20455243373231526560448201527131b2b4bb32b91034b6b83632b6b2b73a32b960711b6064820152608401610600565b6060816000036117f85750506040805180820190915260018152600360fc1b602082015290565b8160005b8115611822578061180c8161274e565b915061181b9050600a836124a8565b91506117fc565b60008167ffffffffffffffff81111561183d5761183d61220f565b6040519080825280601f01601f191660200182016040528015611867576020820181803683370190505b5090505b84156112405761187c60018361270f565b9150611889600a86612767565b611894906030612722565b60f81b8183815181106118a9576118a96124bc565b60200101907effffffffffffffffffffffffffffffffffffffffffffffffffffffffffffff1916908160001a9053506118e3600a866124a8565b945061186b565b60006001600160e01b0319821663780e9d6360e01b14806104b757506104b782611b9a565b6119176119fb565b6106a1838383611bda565b61192c8383611c92565b6119396000848484611a4e565b6106a15760405162461bcd60e51b815260206004820152603260248201527f4552433732313a207472616e7366657220746f206e6f6e20455243373231526560448201527131b2b4bb32b91034b6b83632b6b2b73a32b960711b6064820152608401610600565b600c5460ff166108bf5760405162461bcd60e51b815260206004820152601460248201527f5061757361626c653a206e6f74207061757365640000000000000000000000006044820152606401610600565b61152981611de0565b600c5460ff16156108bf5760405162461bcd60e51b815260206004820152601060248201527f5061757361626c653a20706175736564000000000000000000000000000000006044820152606401610600565b60006001600160a01b0384163b15611b8f57604051630a85bd0160e11b81526001600160a01b0385169063150b7a0290611a9290339089908890889060040161277b565b6020604051808303816000875af1925050508015611acd575060408051601f3d908101601f19168201909252611aca918101906127b7565b60015b611b75573d808015611afb576040519150601f19603f3d011682016040523d82523d6000602084013e611b00565b606091505b508051600003611b6d5760405162461bcd60e51b815260206004820152603260248201527f4552433732313a207472616e7366657220746f206e6f6e20455243373231526560448201527131b2b4bb32b91034b6b83632b6b2b73a32b960711b6064820152608401610600565b805181602001fd5b6001600160e01b031916630a85bd0160e11b149050611240565b506001949350505050565b60006001600160e01b031982166380ac58cd60e01b1480611bcb57506001600160e01b03198216635b5e139f60e01b145b806104b757506104b782611e87565b6001600160a01b038316611c3557611c3081600a80546000838152600b60205260408120829055600182018355919091527fc65a7bb8d6351c1cf70c95a316cc6a92839c986682d98bc35f958f4883f9d2a80155565b611c58565b816001600160a01b0316836001600160a01b031614611c5857611c588382611ebc565b6001600160a01b038216611c6f576106a181611f59565b826001600160a01b0316826001600160a01b0316146106a1576106a18282612008565b6001600160a01b038216611ce85760405162461bcd60e51b815260206004820181905260248201527f4552433732313a206d696e7420746f20746865207a65726f20616464726573736044820152606401610600565b6000818152600460205260409020546001600160a01b031615611d4d5760405162461bcd60e51b815260206004820152601c60248201527f4552433732313a20746f6b656e20616c7265616479206d696e746564000000006044820152606401610600565b611d596000838361190f565b6001600160a01b0382166000908152600560205260408120805460019290611d82908490612722565b909155505060008181526004602052604080822080546001600160a01b0319166001600160a01b03861690811790915590518392907fddf252ad1be2c89b69c2b068fc378daa952ba7f163c4a11628f55a4df523b3ef908290a45050565b6000611deb82610b1e565b9050611df98160008461190f565b611e0460008361115b565b6001600160a01b0381166000908152600560205260408120805460019290611e2d90849061270f565b909155505060008281526004602052604080822080546001600160a01b0319169055518391906001600160a01b038416907fddf252ad1be2c89b69c2b068fc378daa952ba7f163c4a11628f55a4df523b3ef908390a45050565b60006001600160e01b0319821663152a902d60e11b14806104b757506301ffc9a760e01b6001600160e01b03198316146104b7565b60006001611ec984610c11565b611ed3919061270f565b600083815260096020526040902054909150808214611f26576001600160a01b03841660009081526008602090815260408083208584528252808320548484528184208190558352600990915290208190555b5060009182526009602090815260408084208490556001600160a01b039094168352600881528383209183525290812055565b600a54600090611f6b9060019061270f565b6000838152600b6020526040812054600a8054939450909284908110611f9357611f936124bc565b9060005260206000200154905080600a8381548110611fb457611fb46124bc565b6000918252602080832090910192909255828152600b9091526040808220849055858252812055600a805480611fec57611fec6127d4565b6001900381819060005260206000200160009055905550505050565b600061201383610c11565b6001600160a01b039093166000908152600860209081526040808320868452825280832085905593825260099052919091209190915550565b6001600160e01b03198116811461098257600080fd5b60006020828403121561207457600080fd5b813561207f8161204c565b9392505050565b6001600160a01b038116811461098257600080fd5b80356001600160601b0381168114610b0657600080fd5b600080604083850312156120c557600080fd5b82356120d081612086565b91506120de6020840161209b565b90509250929050565b60005b838110156121025781810151838201526020016120ea565b50506000910152565b600081518084526121238160208601602086016120e7565b601f01601f19169290920160200192915050565b60208152600061207f602083018461210b565b60006020828403121561215c57600080fd5b5035919050565b6000806040838503121561217657600080fd5b823561218181612086565b946020939093013593505050565b6000806000606084860312156121a457600080fd5b83356121af81612086565b925060208401356121bf81612086565b929592945050506040919091013590565b600080604083850312156121e357600080fd5b50508035926020909101359150565b60006020828403121561220457600080fd5b813561207f81612086565b634e487b7160e01b600052604160045260246000fd5b600067ffffffffffffffff808411156122405761224061220f565b604051601f8501601f19908116603f011681019082821181831017156122685761226861220f565b8160405280935085815286868601111561228157600080fd5b858560208301376000602087830101525050509392505050565b6000602082840312156122ad57600080fd5b813567ffffffffffffffff8111156122c457600080fd5b8201601f810184136122d557600080fd5b61124084823560208401612225565b6000806000606084860312156122f957600080fd5b83359250602084013561230b81612086565b91506123196040850161209b565b90509250925092565b6000806040838503121561233557600080fd5b823561234081612086565b91506020830135801515811461235557600080fd5b809150509250929050565b60006020828403121561237257600080fd5b61207f8261209b565b6000806000806080858703121561239157600080fd5b843561239c81612086565b935060208501356123ac81612086565b925060408501359150606085013567ffffffffffffffff8111156123cf57600080fd5b8501601f810187136123e057600080fd5b6123ef87823560208401612225565b91505092959194509250565b6000806040838503121561240e57600080fd5b823561241981612086565b9150602083013561235581612086565b600181811c9082168061243d57607f821691505b6020821081036108a957634e487b7160e01b600052602260045260246000fd5b634e487b7160e01b600052601160045260246000fd5b600081600019048311821515161561248d5761248d61245d565b500290565b634e487b7160e01b600052601260045260246000fd5b6000826124b7576124b7612492565b500490565b634e487b7160e01b600052603260045260246000fd5b601f8211156106a157600081815260208120601f850160051c810160208610156124f95750805b601f850160051c820191505b8181101561251857828155600101612505565b505050505050565b815167ffffffffffffffff81111561253a5761253a61220f565b61254e816125488454612429565b846124d2565b602080601f831160018114612583576000841561256b5750858301515b600019600386901b1c1916600185901b178555612518565b600085815260208120601f198616915b828110156125b257888601518255948401946001909101908401612593565b50858210156125d05787850151600019600388901b60f8161c191681555b5050505050600190811b01905550565b60006020808352600084546125f481612429565b80848701526040600180841660008114612615576001811461262f5761265d565b60ff1985168984015283151560051b89018301955061265d565b896000528660002060005b858110156126555781548b820186015290830190880161263a565b8a0184019650505b509398975050505050505050565b600080845461267981612429565b6001828116801561269157600181146126a6576126d5565b60ff19841687528215158302870194506126d5565b8860005260208060002060005b858110156126cc5781548a8201529084019082016126b3565b50505082870194505b5050505083516126e98183602088016120e7565b01949350505050565b60006020828403121561270457600080fd5b815161207f81612086565b818103818111156104b7576104b761245d565b808201808211156104b7576104b761245d565b60006020828403121561274757600080fd5b5051919050565b6000600182016127605761276061245d565b5060010190565b60008261277657612776612492565b500690565b60006001600160a01b038087168352808616602084015250836040830152608060608301526127ad608083018461210b565b9695505050505050565b6000602082840312156127c957600080fd5b815161207f8161204c565b634e487b7160e01b600052603160045260246000fdfea164736f6c6343000810000a",
  "devdoc": {
    "kind": "dev",
    "methods": {
      "approve(address,uint256)": {
        "details": "See {IERC721-approve}."
      },
      "balanceOf(address)": {
        "details": "See {IERC721-balanceOf}."
      },
      "burn(uint256)": {
        "details": "Burns `tokenId`. See {ERC721-_burn}. Requirements: - The caller must own `tokenId` or be an approved operator."
      },
      "getApproved(uint256)": {
        "details": "See {IERC721-getApproved}."
      },
      "isApprovedForAll(address,address)": {
        "details": "See {IERC721-isApprovedForAll}."
      },
      "name()": {
        "details": "See {IERC721Metadata-name}."
      },
      "ownerOf(uint256)": {
        "details": "See {IERC721-ownerOf}."
      },
      "paused()": {
        "details": "Returns true if the contract is paused, and false otherwise."
      },
      "royaltyInfo(uint256,uint256)": {
        "details": "Returns how much royalty is owed and to whom, based on a sale price that may be denominated in any unit of exchange. The royalty amount is denominated and should be paid in that same unit of exchange."
      },
      "safeTransferFrom(address,address,uint256)": {
        "details": "See {IERC721-safeTransferFrom}."
      },
      "safeTransferFrom(address,address,uint256,bytes)": {
        "details": "See {IERC721-safeTransferFrom}."
      },
      "setApprovalForAll(address,bool)": {
        "details": "See {IERC721-setApprovalForAll}."
      },
      "symbol()": {
        "details": "See {IERC721Metadata-symbol}."
      },
      "tokenByIndex(uint256)": {
        "details": "See {IERC721Enumerable-tokenByIndex}."
      },
      "tokenOfOwnerByIndex(address,uint256)": {
        "details": "See {IERC721Enumerable-tokenOfOwnerByIndex}."
      },
      "tokenURI(uint256)": {
        "details": "See {IERC721Metadata-tokenURI}."
      },
      "totalSupply()": {
        "details": "See {IERC721Enumerable-totalSupply}."
      },
      "transferFrom(address,address,uint256)": {
        "details": "See {IERC721-transferFrom}."
      }
    },
    "version": 1
  },
  "userdoc": {
    "kind": "user",
    "methods": {},
    "version": 1
  },
  "storageLayout": {
    "storage": [
      {
        "astId": 3819,
        "contract": "contracts/Kondux_Founders.sol:KonduxFounders",
        "label": "_defaultRoyaltyInfo",
        "offset": 0,
        "slot": "0",
        "type": "t_struct(RoyaltyInfo)3816_storage"
      },
      {
        "astId": 3824,
        "contract": "contracts/Kondux_Founders.sol:KonduxFounders",
        "label": "_tokenRoyaltyInfo",
        "offset": 0,
        "slot": "1",
        "type": "t_mapping(t_uint256,t_struct(RoyaltyInfo)3816_storage)"
      },
      {
        "astId": 2355,
        "contract": "contracts/Kondux_Founders.sol:KonduxFounders",
        "label": "_name",
        "offset": 0,
        "slot": "2",
        "type": "t_string_storage"
      },
      {
        "astId": 2357,
        "contract": "contracts/Kondux_Founders.sol:KonduxFounders",
        "label": "_symbol",
        "offset": 0,
        "slot": "3",
        "type": "t_string_storage"
      },
      {
        "astId": 2361,
        "contract": "contracts/Kondux_Founders.sol:KonduxFounders",
        "label": "_owners",
        "offset": 0,
        "slot": "4",
        "type": "t_mapping(t_uint256,t_address)"
      },
      {
        "astId": 2365,
        "contract": "contracts/Kondux_Founders.sol:KonduxFounders",
        "label": "_balances",
        "offset": 0,
        "slot": "5",
        "type": "t_mapping(t_address,t_uint256)"
      },
      {
        "astId": 2369,
        "contract": "contracts/Kondux_Founders.sol:KonduxFounders",
        "label": "_tokenApprovals",
        "offset": 0,
        "slot": "6",
        "type": "t_mapping(t_uint256,t_address)"
      },
      {
        "astId": 2375,
        "contract": "contracts/Kondux_Founders.sol:KonduxFounders",
        "label": "_operatorApprovals",
        "offset": 0,
        "slot": "7",
        "type": "t_mapping(t_address,t_mapping(t_address,t_bool))"
      },
      {
        "astId": 3375,
        "contract": "contracts/Kondux_Founders.sol:KonduxFounders",
        "label": "_ownedTokens",
        "offset": 0,
        "slot": "8",
        "type": "t_mapping(t_address,t_mapping(t_uint256,t_uint256))"
      },
      {
        "astId": 3379,
        "contract": "contracts/Kondux_Founders.sol:KonduxFounders",
        "label": "_ownedTokensIndex",
        "offset": 0,
        "slot": "9",
        "type": "t_mapping(t_uint256,t_uint256)"
      },
      {
        "astId": 3382,
        "contract": "contracts/Kondux_Founders.sol:KonduxFounders",
        "label": "_allTokens",
        "offset": 0,
        "slot": "10",
        "type": "t_array(t_uint256)dyn_storage"
      },
      {
        "astId": 3386,
        "contract": "contracts/Kondux_Founders.sol:KonduxFounders",
        "label": "_allTokensIndex",
        "offset": 0,
        "slot": "11",
        "type": "t_mapping(t_uint256,t_uint256)"
      },
      {
        "astId": 149,
        "contract": "contracts/Kondux_Founders.sol:KonduxFounders",
        "label": "_paused",
        "offset": 0,
        "slot": "12",
        "type": "t_bool"
      },
      {
        "astId": 9680,
        "contract": "contracts/Kondux_Founders.sol:KonduxFounders",
        "label": "authority",
        "offset": 1,
        "slot": "12",
        "type": "t_contract(IAuthority)9190"
      },
      {
        "astId": 5615,
        "contract": "contracts/Kondux_Founders.sol:KonduxFounders",
        "label": "MINTER_ROLE",
        "offset": 0,
        "slot": "13",
        "type": "t_bytes32"
      },
      {
        "astId": 5617,
        "contract": "contracts/Kondux_Founders.sol:KonduxFounders",
        "label": "baseURI",
        "offset": 0,
        "slot": "14",
        "type": "t_string_storage"
      },
      {
        "astId": 5619,
        "contract": "contracts/Kondux_Founders.sol:KonduxFounders",
        "label": "denominator",
        "offset": 0,
        "slot": "15",
        "type": "t_uint96"
      },
      {
        "astId": 5622,
        "contract": "contracts/Kondux_Founders.sol:KonduxFounders",
        "label": "_tokenIdCounter",
        "offset": 0,
        "slot": "16",
        "type": "t_struct(Counter)4323_storage"
      }
    ],
    "types": {
      "t_address": {
        "encoding": "inplace",
        "label": "address",
        "numberOfBytes": "20"
      },
      "t_array(t_uint256)dyn_storage": {
        "base": "t_uint256",
        "encoding": "dynamic_array",
        "label": "uint256[]",
        "numberOfBytes": "32"
      },
      "t_bool": {
        "encoding": "inplace",
        "label": "bool",
        "numberOfBytes": "1"
      },
      "t_bytes32": {
        "encoding": "inplace",
        "label": "bytes32",
        "numberOfBytes": "32"
      },
      "t_contract(IAuthority)9190": {
        "encoding": "inplace",
        "label": "contract IAuthority",
        "numberOfBytes": "20"
      },
      "t_mapping(t_address,t_bool)": {
        "encoding": "mapping",
        "key": "t_address",
        "label": "mapping(address => bool)",
        "numberOfBytes": "32",
        "value": "t_bool"
      },
      "t_mapping(t_address,t_mapping(t_address,t_bool))": {
        "encoding": "mapping",
        "key": "t_address",
        "label": "mapping(address => mapping(address => bool))",
        "numberOfBytes": "32",
        "value": "t_mapping(t_address,t_bool)"
      },
      "t_mapping(t_address,t_mapping(t_uint256,t_uint256))": {
        "encoding": "mapping",
        "key": "t_address",
        "label": "mapping(address => mapping(uint256 => uint256))",
        "numberOfBytes": "32",
        "value": "t_mapping(t_uint256,t_uint256)"
      },
      "t_mapping(t_address,t_uint256)": {
        "encoding": "mapping",
        "key": "t_address",
        "label": "mapping(address => uint256)",
        "numberOfBytes": "32",
        "value": "t_uint256"
      },
      "t_mapping(t_uint256,t_address)": {
        "encoding": "mapping",
        "key": "t_uint256",
        "label": "mapping(uint256 => address)",
        "numberOfBytes": "32",
        "value": "t_address"
      },
      "t_mapping(t_uint256,t_struct(RoyaltyInfo)3816_storage)": {
        "encoding": "mapping",
        "key": "t_uint256",
        "label": "mapping(uint256 => struct ERC2981.RoyaltyInfo)",
        "numberOfBytes": "32",
        "value": "t_struct(RoyaltyInfo)3816_storage"
      },
      "t_mapping(t_uint256,t_uint256)": {
        "encoding": "mapping",
        "key": "t_uint256",
        "label": "mapping(uint256 => uint256)",
        "numberOfBytes": "32",
        "value": "t_uint256"
      },
      "t_string_storage": {
        "encoding": "bytes",
        "label": "string",
        "numberOfBytes": "32"
      },
      "t_struct(Counter)4323_storage": {
        "encoding": "inplace",
        "label": "struct Counters.Counter",
        "members": [
          {
            "astId": 4322,
            "contract": "contracts/Kondux_Founders.sol:KonduxFounders",
            "label": "_value",
            "offset": 0,
            "slot": "0",
            "type": "t_uint256"
          }
        ],
        "numberOfBytes": "32"
      },
      "t_struct(RoyaltyInfo)3816_storage": {
        "encoding": "inplace",
        "label": "struct ERC2981.RoyaltyInfo",
        "members": [
          {
            "astId": 3813,
            "contract": "contracts/Kondux_Founders.sol:KonduxFounders",
            "label": "receiver",
            "offset": 0,
            "slot": "0",
            "type": "t_address"
          },
          {
            "astId": 3815,
            "contract": "contracts/Kondux_Founders.sol:KonduxFounders",
            "label": "royaltyFraction",
            "offset": 20,
            "slot": "0",
            "type": "t_uint96"
          }
        ],
        "numberOfBytes": "32"
      },
      "t_uint256": {
        "encoding": "inplace",
        "label": "uint256",
        "numberOfBytes": "32"
      },
      "t_uint96": {
        "encoding": "inplace",
        "label": "uint96",
        "numberOfBytes": "12"
      }
    }
  }
}