{
  "address": "0x348e88f388417Cb86cE2359b4108692ce43c6D85",
  "abi": [
    {
      "inputs": [
        {
          "internalType": "address",
          "name": "_governor",
          "type": "address"
        },
        {
          "internalType": "address",
          "name": "_guardian",
          "type": "address"
        },
        {
          "internalType": "address",
          "name": "_policy",
          "type": "address"
        },
        {
          "internalType": "address",
          "name": "_vault",
          "type": "address"
        }
      ],
      "stateMutability": "nonpayable",
      "type": "constructor"
    },
    {
      "anonymous": false,
      "inputs": [
        {
          "indexed": false,
          "internalType": "contract IAuthority",
          "name": "authority",
          "type": "address"
        }
      ],
      "name": "AuthorityUpdated",
      "type": "event"
    },
    {
      "anonymous": false,
      "inputs": [
        {
          "indexed": true,
          "internalType": "address",
          "name": "from",
          "type": "address"
        },
        {
          "indexed": true,
          "internalType": "address",
          "name": "to",
          "type": "address"
        }
      ],
      "name": "GovernorPulled",
      "type": "event"
    },
    {
      "anonymous": false,
      "inputs": [
        {
          "indexed": true,
          "internalType": "address",
          "name": "from",
          "type": "address"
        },
        {
          "indexed": true,
          "internalType": "address",
          "name": "to",
          "type": "address"
        },
        {
          "indexed": false,
          "internalType": "bool",
          "name": "_effectiveImmediately",
          "type": "bool"
        }
      ],
      "name": "GovernorPushed",
      "type": "event"
    },
    {
      "anonymous": false,
      "inputs": [
        {
          "indexed": true,
          "internalType": "address",
          "name": "from",
          "type": "address"
        },
        {
          "indexed": true,
          "internalType": "address",
          "name": "to",
          "type": "address"
        }
      ],
      "name": "GuardianPulled",
      "type": "event"
    },
    {
      "anonymous": false,
      "inputs": [
        {
          "indexed": true,
          "internalType": "address",
          "name": "from",
          "type": "address"
        },
        {
          "indexed": true,
          "internalType": "address",
          "name": "to",
          "type": "address"
        },
        {
          "indexed": false,
          "internalType": "bool",
          "name": "_effectiveImmediately",
          "type": "bool"
        }
      ],
      "name": "GuardianPushed",
      "type": "event"
    },
    {
      "anonymous": false,
      "inputs": [
        {
          "indexed": true,
          "internalType": "address",
          "name": "from",
          "type": "address"
        },
        {
          "indexed": true,
          "internalType": "address",
          "name": "to",
          "type": "address"
        }
      ],
      "name": "PolicyPulled",
      "type": "event"
    },
    {
      "anonymous": false,
      "inputs": [
        {
          "indexed": true,
          "internalType": "address",
          "name": "from",
          "type": "address"
        },
        {
          "indexed": true,
          "internalType": "address",
          "name": "to",
          "type": "address"
        },
        {
          "indexed": false,
          "internalType": "bool",
          "name": "_effectiveImmediately",
          "type": "bool"
        }
      ],
      "name": "PolicyPushed",
      "type": "event"
    },
    {
      "anonymous": false,
      "inputs": [
        {
          "indexed": true,
          "internalType": "address",
          "name": "account",
          "type": "address"
        },
        {
          "indexed": false,
          "internalType": "bytes32",
          "name": "_role",
          "type": "bytes32"
        }
      ],
      "name": "RolePushed",
      "type": "event"
    },
    {
      "anonymous": false,
      "inputs": [
        {
          "indexed": true,
          "internalType": "address",
          "name": "from",
          "type": "address"
        },
        {
          "indexed": true,
          "internalType": "address",
          "name": "to",
          "type": "address"
        }
      ],
      "name": "VaultPulled",
      "type": "event"
    },
    {
      "anonymous": false,
      "inputs": [
        {
          "indexed": true,
          "internalType": "address",
          "name": "from",
          "type": "address"
        },
        {
          "indexed": true,
          "internalType": "address",
          "name": "to",
          "type": "address"
        },
        {
          "indexed": false,
          "internalType": "bool",
          "name": "_effectiveImmediately",
          "type": "bool"
        }
      ],
      "name": "VaultPushed",
      "type": "event"
    },
    {
      "inputs": [],
      "name": "authority",
      "outputs": [
        {
          "internalType": "contract IAuthority",
          "name": "",
          "type": "address"
        }
      ],
      "stateMutability": "view",
      "type": "function"
    },
    {
      "inputs": [],
      "name": "governor",
      "outputs": [
        {
          "internalType": "address",
          "name": "",
          "type": "address"
        }
      ],
      "stateMutability": "view",
      "type": "function"
    },
    {
      "inputs": [],
      "name": "guardian",
      "outputs": [
        {
          "internalType": "address",
          "name": "",
          "type": "address"
        }
      ],
      "stateMutability": "view",
      "type": "function"
    },
    {
      "inputs": [
        {
          "internalType": "address",
          "name": "addr",
          "type": "address"
        }
      ],
      "name": "isContract",
      "outputs": [
        {
          "internalType": "bool",
          "name": "",
          "type": "bool"
        }
      ],
      "stateMutability": "view",
      "type": "function"
    },
    {
      "inputs": [],
      "name": "newGovernor",
      "outputs": [
        {
          "internalType": "address",
          "name": "",
          "type": "address"
        }
      ],
      "stateMutability": "view",
      "type": "function"
    },
    {
      "inputs": [],
      "name": "newGuardian",
      "outputs": [
        {
          "internalType": "address",
          "name": "",
          "type": "address"
        }
      ],
      "stateMutability": "view",
      "type": "function"
    },
    {
      "inputs": [],
      "name": "newPolicy",
      "outputs": [
        {
          "internalType": "address",
          "name": "",
          "type": "address"
        }
      ],
      "stateMutability": "view",
      "type": "function"
    },
    {
      "inputs": [],
      "name": "newVault",
      "outputs": [
        {
          "internalType": "address",
          "name": "",
          "type": "address"
        }
      ],
      "stateMutability": "view",
      "type": "function"
    },
    {
      "inputs": [],
      "name": "policy",
      "outputs": [
        {
          "internalType": "address",
          "name": "",
          "type": "address"
        }
      ],
      "stateMutability": "view",
      "type": "function"
    },
    {
      "inputs": [],
      "name": "pullGovernor",
      "outputs": [],
      "stateMutability": "nonpayable",
      "type": "function"
    },
    {
      "inputs": [],
      "name": "pullGuardian",
      "outputs": [],
      "stateMutability": "nonpayable",
      "type": "function"
    },
    {
      "inputs": [],
      "name": "pullPolicy",
      "outputs": [],
      "stateMutability": "nonpayable",
      "type": "function"
    },
    {
      "inputs": [],
      "name": "pullVault",
      "outputs": [],
      "stateMutability": "nonpayable",
      "type": "function"
    },
    {
      "inputs": [
        {
          "internalType": "address",
          "name": "_newGovernor",
          "type": "address"
        },
        {
          "internalType": "bool",
          "name": "_effectiveImmediately",
          "type": "bool"
        }
      ],
      "name": "pushGovernor",
      "outputs": [],
      "stateMutability": "nonpayable",
      "type": "function"
    },
    {
      "inputs": [
        {
          "internalType": "address",
          "name": "_newGuardian",
          "type": "address"
        },
        {
          "internalType": "bool",
          "name": "_effectiveImmediately",
          "type": "bool"
        }
      ],
      "name": "pushGuardian",
      "outputs": [],
      "stateMutability": "nonpayable",
      "type": "function"
    },
    {
      "inputs": [
        {
          "internalType": "address",
          "name": "_newPolicy",
          "type": "address"
        },
        {
          "internalType": "bool",
          "name": "_effectiveImmediately",
          "type": "bool"
        }
      ],
      "name": "pushPolicy",
      "outputs": [],
      "stateMutability": "nonpayable",
      "type": "function"
    },
    {
      "inputs": [
        {
          "internalType": "address",
          "name": "_account",
          "type": "address"
        },
        {
          "internalType": "bytes32",
          "name": "_role",
          "type": "bytes32"
        }
      ],
      "name": "pushRole",
      "outputs": [],
      "stateMutability": "nonpayable",
      "type": "function"
    },
    {
      "inputs": [
        {
          "internalType": "address",
          "name": "_newVault",
          "type": "address"
        },
        {
          "internalType": "bool",
          "name": "_effectiveImmediately",
          "type": "bool"
        }
      ],
      "name": "pushVault",
      "outputs": [],
      "stateMutability": "nonpayable",
      "type": "function"
    },
    {
      "inputs": [
        {
          "internalType": "address",
          "name": "",
          "type": "address"
        }
      ],
      "name": "roles",
      "outputs": [
        {
          "internalType": "bytes32",
          "name": "",
          "type": "bytes32"
        }
      ],
      "stateMutability": "view",
      "type": "function"
    },
    {
      "inputs": [
        {
          "internalType": "contract IAuthority",
          "name": "_newAuthority",
          "type": "address"
        }
      ],
      "name": "setAuthority",
      "outputs": [],
      "stateMutability": "nonpayable",
      "type": "function"
    },
    {
      "inputs": [],
      "name": "vault",
      "outputs": [
        {
          "internalType": "address",
          "name": "",
          "type": "address"
        }
      ],
      "stateMutability": "view",
      "type": "function"
    }
  ],
  "transactionHash": "0x3337dd2b247f6eb49e4a92b4b1c1829ed31f6f0c0215dcdcdd51afbfc671cec7",
  "args": [
    "0x9f5Ea5Af0368E1d6F685F07978c8A22b2Df7c78D",
    "0x9f5Ea5Af0368E1d6F685F07978c8A22b2Df7c78D",
    "0x9f5Ea5Af0368E1d6F685F07978c8A22b2Df7c78D",
    "0x9f5Ea5Af0368E1d6F685F07978c8A22b2Df7c78D"
  ],
  "numDeployments": 1,
  "solcInputHash": "a65dbcf48b8edbdec278c3ad6823bff4",
  "bytecode": "0x60806040523480156200001157600080fd5b506040516200106d3803806200106d8339810160408190526200003491620003b4565b3080620000885760405162461bcd60e51b815260206004820181905260248201527f417574686f726974792063616e6e6f74206265207a65726f206164647265737360448201526064015b60405180910390fd5b600080546001600160a01b0319166001600160a01b0383169081179091556040519081527f2f658b440c35314f52658ea8a740e05b284cdc84dc9ae01e891f21b8933e7cad9060200160405180910390a1506001600160a01b038416620001325760405162461bcd60e51b815260206004820152601f60248201527f476f7665726e6f722063616e6e6f74206265207a65726f20616464726573730060448201526064016200007f565b6001600160a01b0383166200018a5760405162461bcd60e51b815260206004820152601f60248201527f477561726469616e2063616e6e6f74206265207a65726f20616464726573730060448201526064016200007f565b6001600160a01b038216620001e25760405162461bcd60e51b815260206004820152601d60248201527f506f6c6963792063616e6e6f74206265207a65726f206164647265737300000060448201526064016200007f565b6001600160a01b0381166200023a5760405162461bcd60e51b815260206004820152601c60248201527f5661756c742063616e6e6f74206265207a65726f20616464726573730000000060448201526064016200007f565b600180546001600160a01b0319166001600160a01b0386169081178255604051918252906000907f4f337dcbb2512f18373c1f72d990a2f0a6ee5024b04007c52afd01eb73374a899060200160405180910390a3600280546001600160a01b0319166001600160a01b038516908117909155604051600181526000907fde655975891e8f09671597b37bd4d663bcc5c21dc6d7641b33cdf85fbe15d08b9060200160405180910390a3600380546001600160a01b0319166001600160a01b038416908117909155604051600181526000907f90a5902a45c24aae553d5aff384ca16d6560f08d74c9784a4fbd2796d9e13f2b9060200160405180910390a3600480546001600160a01b0319166001600160a01b038316908117909155604051600181526000907f05a80f5053574d6a62733e1692e8cbcfaf927dc82df0a7267ea2e489a7cc18ff9060200160405180910390a35050505062000411565b80516001600160a01b0381168114620003af57600080fd5b919050565b60008060008060808587031215620003cb57600080fd5b620003d68562000397565b9350620003e66020860162000397565b9250620003f66040860162000397565b9150620004066060860162000397565b905092959194509250565b610c4c80620004216000396000f3fe608060405234801561001057600080fd5b50600436106101775760003560e01c80635beede08116100d8578063993746421161008c578063bf7e214f11610066578063bf7e214f146102fc578063d8a042121461030f578063fbfa77cf1461031757600080fd5b806399374642146102b3578063b84c2c1c146102e1578063be11f1dd146102f457600080fd5b80637a9e5e4b116100bd5780637a9e5e4b1461027a57806388aaf0c81461028d5780638fd20577146102a057600080fd5b80635beede081461025f5780636fe72c141461026757600080fd5b8063215e92bc1161012f578063452a932011610114578063452a932014610226578063527596941461023957806354e3d7031461024c57600080fd5b8063215e92bc1461020b5780633bf90c281461021357600080fd5b8063162790551161016057806316279055146101bf57806319859847146101e35780631afe8714146101f657600080fd5b80630505c8c91461017c5780630c340a24146101ac575b600080fd5b60035461018f906001600160a01b031681565b6040516001600160a01b0390911681526020015b60405180910390f35b60015461018f906001600160a01b031681565b6101d36101cd366004610b94565b3b151590565b60405190151581526020016101a3565b60065461018f906001600160a01b031681565b610209610204366004610bb8565b61032a565b005b610209610411565b60075461018f906001600160a01b031681565b60025461018f906001600160a01b031681565b610209610247366004610bb8565b6104ce565b61020961025a366004610bb8565b6105a7565b610209610680565b610209610275366004610bb8565b61073d565b610209610288366004610b94565b610816565b60085461018f906001600160a01b031681565b60055461018f906001600160a01b031681565b6102d36102c1366004610b94565b60096020526000908152604090205481565b6040519081526020016101a3565b6102096102ef366004610bf6565b610872565b61020961092b565b60005461018f906001600160a01b031681565b6102096109e8565b60045461018f906001600160a01b031681565b610332610aa5565b816001600160a01b03811661038e5760405162461bcd60e51b815260206004820152601e60248201527f4163636f756e742063616e6e6f74206265207a65726f2061646472657373000060448201526064015b60405180910390fd5b81156103b057600280546001600160a01b0319166001600160a01b0385161790555b600680546001600160a01b0319166001600160a01b038581169182179092556002546040518515158152919216907fde655975891e8f09671597b37bd4d663bcc5c21dc6d7641b33cdf85fbe15d08b906020015b60405180910390a3505050565b6008546001600160a01b0316331461046b5760405162461bcd60e51b815260206004820152600960248201527f216e65775661756c7400000000000000000000000000000000000000000000006044820152606401610385565b6008546004546040516001600160a01b0392831692909116907f3d08e01e3b8340be6ca709db7a9321448661a1f490da4d7f3eb03d84fe73095390600090a3600854600480546001600160a01b0319166001600160a01b03909216919091179055565b6104d6610aa5565b816001600160a01b03811661052d5760405162461bcd60e51b815260206004820152601e60248201527f4163636f756e742063616e6e6f74206265207a65726f206164647265737300006044820152606401610385565b811561054f57600180546001600160a01b0319166001600160a01b0385161790555b600580546001600160a01b0319166001600160a01b038581169182179092556001546040518515158152919216907f4f337dcbb2512f18373c1f72d990a2f0a6ee5024b04007c52afd01eb73374a8990602001610404565b6105af610aa5565b816001600160a01b0381166106065760405162461bcd60e51b815260206004820152601e60248201527f4163636f756e742063616e6e6f74206265207a65726f206164647265737300006044820152606401610385565b811561062857600380546001600160a01b0319166001600160a01b0385161790555b600780546001600160a01b0319166001600160a01b038581169182179092556003546040518515158152919216907f90a5902a45c24aae553d5aff384ca16d6560f08d74c9784a4fbd2796d9e13f2b90602001610404565b6007546001600160a01b031633146106da5760405162461bcd60e51b815260206004820152600a60248201527f216e6577506f6c696379000000000000000000000000000000000000000000006044820152606401610385565b6007546003546040516001600160a01b0392831692909116907f64d2fa522b403ca222efff0c7ad07d2ef45472a45e5770918bdfa9a2845d29a890600090a3600754600380546001600160a01b0319166001600160a01b03909216919091179055565b610745610aa5565b816001600160a01b03811661079c5760405162461bcd60e51b815260206004820152601e60248201527f4163636f756e742063616e6e6f74206265207a65726f206164647265737300006044820152606401610385565b81156107be57600480546001600160a01b0319166001600160a01b0385161790555b600880546001600160a01b0319166001600160a01b038581169182179092556004546040518515158152919216907f05a80f5053574d6a62733e1692e8cbcfaf927dc82df0a7267ea2e489a7cc18ff90602001610404565b61081e610aa5565b600080546001600160a01b0319166001600160a01b0383169081179091556040519081527f2f658b440c35314f52658ea8a740e05b284cdc84dc9ae01e891f21b8933e7cad9060200160405180910390a150565b61087a610aa5565b816001600160a01b0381166108d15760405162461bcd60e51b815260206004820152601e60248201527f4163636f756e742063616e6e6f74206265207a65726f206164647265737300006044820152606401610385565b6001600160a01b03831660008181526009602052604090819020849055517f717525151a0c62aeab90980d2e98e2cafa889e73087b0eb65cb31a90f6d9fba09061091e9085815260200190565b60405180910390a2505050565b6006546001600160a01b031633146109855760405162461bcd60e51b815260206004820152600960248201527f216e6577477561726400000000000000000000000000000000000000000000006044820152606401610385565b6006546002546040516001600160a01b0392831692909116907f0960fb9900fb8096216606c4f7fc2fce5d08cc0c82da55cec8619b66b523848190600090a3600654600280546001600160a01b0319166001600160a01b03909216919091179055565b6005546001600160a01b03163314610a425760405162461bcd60e51b815260206004820152600c60248201527f216e6577476f7665726e6f7200000000000000000000000000000000000000006044820152606401610385565b6005546001546040516001600160a01b0392831692909116907fffd6fed33fe8ec1016718bdd5d04ae6fecd9aba0da6578807daaaa7fc3d1682690600090a3600554600180546001600160a01b0319166001600160a01b03909216919091179055565b60008054906101000a90046001600160a01b03166001600160a01b0316630c340a246040518163ffffffff1660e01b8152600401602060405180830381865afa158015610af6573d6000803e3d6000fd5b505050506040513d601f19601f82011682018060405250810190610b1a9190610c22565b6001600160a01b0316336001600160a01b031614610b7a5760405162461bcd60e51b815260206004820152600c60248201527f554e415554484f52495a454400000000000000000000000000000000000000006044820152606401610385565b565b6001600160a01b0381168114610b9157600080fd5b50565b600060208284031215610ba657600080fd5b8135610bb181610b7c565b9392505050565b60008060408385031215610bcb57600080fd5b8235610bd681610b7c565b915060208301358015158114610beb57600080fd5b809150509250929050565b60008060408385031215610c0957600080fd5b8235610c1481610b7c565b946020939093013593505050565b600060208284031215610c3457600080fd5b8151610bb181610b7c56fea164736f6c6343000810000a",
  "devdoc": {
    "kind": "dev",
    "methods": {},
    "version": 1
  },
  "userdoc": {
    "kind": "user",
    "methods": {},
    "version": 1
  },
  "storageLayout": {
    "storage": [
      {
        "astId": 10620,
        "contract": "contracts/Authority.sol:Authority",
        "label": "authority",
        "offset": 0,
        "slot": "0",
        "type": "t_contract(IAuthority)10137"
      },
      {
        "astId": 6110,
        "contract": "contracts/Authority.sol:Authority",
        "label": "governor",
        "offset": 0,
        "slot": "1",
        "type": "t_address"
      },
      {
        "astId": 6113,
        "contract": "contracts/Authority.sol:Authority",
        "label": "guardian",
        "offset": 0,
        "slot": "2",
        "type": "t_address"
      },
      {
        "astId": 6116,
        "contract": "contracts/Authority.sol:Authority",
        "label": "policy",
        "offset": 0,
        "slot": "3",
        "type": "t_address"
      },
      {
        "astId": 6119,
        "contract": "contracts/Authority.sol:Authority",
        "label": "vault",
        "offset": 0,
        "slot": "4",
        "type": "t_address"
      },
      {
        "astId": 6121,
        "contract": "contracts/Authority.sol:Authority",
        "label": "newGovernor",
        "offset": 0,
        "slot": "5",
        "type": "t_address"
      },
      {
        "astId": 6123,
        "contract": "contracts/Authority.sol:Authority",
        "label": "newGuardian",
        "offset": 0,
        "slot": "6",
        "type": "t_address"
      },
      {
        "astId": 6125,
        "contract": "contracts/Authority.sol:Authority",
        "label": "newPolicy",
        "offset": 0,
        "slot": "7",
        "type": "t_address"
      },
      {
        "astId": 6127,
        "contract": "contracts/Authority.sol:Authority",
        "label": "newVault",
        "offset": 0,
        "slot": "8",
        "type": "t_address"
      },
      {
        "astId": 6132,
        "contract": "contracts/Authority.sol:Authority",
        "label": "roles",
        "offset": 0,
        "slot": "9",
        "type": "t_mapping(t_address,t_bytes32)"
      }
    ],
    "types": {
      "t_address": {
        "encoding": "inplace",
        "label": "address",
        "numberOfBytes": "20"
      },
      "t_bytes32": {
        "encoding": "inplace",
        "label": "bytes32",
        "numberOfBytes": "32"
      },
      "t_contract(IAuthority)10137": {
        "encoding": "inplace",
        "label": "contract IAuthority",
        "numberOfBytes": "20"
      },
      "t_mapping(t_address,t_bytes32)": {
        "encoding": "mapping",
        "key": "t_address",
        "label": "mapping(address => bytes32)",
        "numberOfBytes": "32",
        "value": "t_bytes32"
      }
    }
  }
}