{
  "address": "0x2Ed5208970be3169CfCbaBf104E362dfd3706BF7",
  "abi": [
    {
      "inputs": [
        {
          "internalType": "string",
          "name": "_name",
          "type": "string"
        },
        {
          "internalType": "string",
          "name": "_symbol",
          "type": "string"
        },
        {
          "internalType": "address",
          "name": "_authority",
          "type": "address"
        }
      ],
      "stateMutability": "nonpayable",
      "type": "constructor"
    },
    {
      "anonymous": false,
      "inputs": [
        {
          "indexed": true,
          "internalType": "address",
          "name": "owner",
          "type": "address"
        },
        {
          "indexed": true,
          "internalType": "address",
          "name": "approved",
          "type": "address"
        },
        {
          "indexed": true,
          "internalType": "uint256",
          "name": "tokenId",
          "type": "uint256"
        }
      ],
      "name": "Approval",
      "type": "event"
    },
    {
      "anonymous": false,
      "inputs": [
        {
          "indexed": true,
          "internalType": "address",
          "name": "owner",
          "type": "address"
        },
        {
          "indexed": true,
          "internalType": "address",
          "name": "operator",
          "type": "address"
        },
        {
          "indexed": false,
          "internalType": "bool",
          "name": "approved",
          "type": "bool"
        }
      ],
      "name": "ApprovalForAll",
      "type": "event"
    },
    {
      "anonymous": false,
      "inputs": [
        {
          "indexed": false,
          "internalType": "contract IAuthority",
          "name": "authority",
          "type": "address"
        }
      ],
      "name": "AuthorityUpdated",
      "type": "event"
    },
    {
      "anonymous": false,
      "inputs": [
        {
          "indexed": false,
          "internalType": "string",
          "name": "baseURI",
          "type": "string"
        }
      ],
      "name": "BaseURIChanged",
      "type": "event"
    },
    {
      "anonymous": false,
      "inputs": [
        {
          "indexed": false,
          "internalType": "uint96",
          "name": "denominator",
          "type": "uint96"
        }
      ],
      "name": "DenominatorChanged",
      "type": "event"
    },
    {
      "anonymous": false,
      "inputs": [
        {
          "indexed": false,
          "internalType": "uint256",
          "name": "tokenID",
          "type": "uint256"
        },
        {
          "indexed": false,
          "internalType": "uint256",
          "name": "dna",
          "type": "uint256"
        }
      ],
      "name": "DnaChanged",
      "type": "event"
    },
    {
      "anonymous": false,
      "inputs": [
        {
          "indexed": false,
          "internalType": "address",
          "name": "account",
          "type": "address"
        }
      ],
      "name": "Paused",
      "type": "event"
    },
    {
      "anonymous": false,
      "inputs": [
        {
          "indexed": false,
          "internalType": "address",
          "name": "sender",
          "type": "address"
        },
        {
          "indexed": false,
          "internalType": "uint256",
          "name": "value",
          "type": "uint256"
        }
      ],
      "name": "Received",
      "type": "event"
    },
    {
      "anonymous": false,
      "inputs": [
        {
          "indexed": true,
          "internalType": "address",
          "name": "from",
          "type": "address"
        },
        {
          "indexed": true,
          "internalType": "address",
          "name": "to",
          "type": "address"
        },
        {
          "indexed": true,
          "internalType": "uint256",
          "name": "tokenId",
          "type": "uint256"
        }
      ],
      "name": "Transfer",
      "type": "event"
    },
    {
      "anonymous": false,
      "inputs": [
        {
          "indexed": false,
          "internalType": "address",
          "name": "account",
          "type": "address"
        }
      ],
      "name": "Unpaused",
      "type": "event"
    },
    {
      "inputs": [],
      "name": "MINTER_ROLE",
      "outputs": [
        {
          "internalType": "bytes32",
          "name": "",
          "type": "bytes32"
        }
      ],
      "stateMutability": "view",
      "type": "function"
    },
    {
      "inputs": [
        {
          "internalType": "address",
          "name": "to",
          "type": "address"
        },
        {
          "internalType": "uint256",
          "name": "tokenId",
          "type": "uint256"
        }
      ],
      "name": "approve",
      "outputs": [],
      "stateMutability": "nonpayable",
      "type": "function"
    },
    {
      "inputs": [],
      "name": "authority",
      "outputs": [
        {
          "internalType": "contract IAuthority",
          "name": "",
          "type": "address"
        }
      ],
      "stateMutability": "view",
      "type": "function"
    },
    {
      "inputs": [
        {
          "internalType": "address",
          "name": "to",
          "type": "address"
        }
      ],
      "name": "automaticMint",
      "outputs": [
        {
          "internalType": "uint256",
          "name": "",
          "type": "uint256"
        }
      ],
      "stateMutability": "nonpayable",
      "type": "function"
    },
    {
      "inputs": [
        {
          "internalType": "address",
          "name": "owner",
          "type": "address"
        }
      ],
      "name": "balanceOf",
      "outputs": [
        {
          "internalType": "uint256",
          "name": "",
          "type": "uint256"
        }
      ],
      "stateMutability": "view",
      "type": "function"
    },
    {
      "inputs": [],
      "name": "baseURI",
      "outputs": [
        {
          "internalType": "string",
          "name": "",
          "type": "string"
        }
      ],
      "stateMutability": "view",
      "type": "function"
    },
    {
      "inputs": [
        {
          "internalType": "uint256",
          "name": "tokenId",
          "type": "uint256"
        }
      ],
      "name": "burn",
      "outputs": [],
      "stateMutability": "nonpayable",
      "type": "function"
    },
    {
      "inputs": [
        {
          "internalType": "uint96",
          "name": "_denominator",
          "type": "uint96"
        }
      ],
      "name": "changeDenominator",
      "outputs": [
        {
          "internalType": "uint96",
          "name": "",
          "type": "uint96"
        }
      ],
      "stateMutability": "nonpayable",
      "type": "function"
    },
    {
      "inputs": [],
      "name": "denominator",
      "outputs": [
        {
          "internalType": "uint96",
          "name": "",
          "type": "uint96"
        }
      ],
      "stateMutability": "view",
      "type": "function"
    },
    {
      "inputs": [
        {
          "internalType": "uint256",
          "name": "tokenId",
          "type": "uint256"
        }
      ],
      "name": "getApproved",
      "outputs": [
        {
          "internalType": "address",
          "name": "",
          "type": "address"
        }
      ],
      "stateMutability": "view",
      "type": "function"
    },
    {
      "inputs": [
        {
          "internalType": "uint256",
          "name": "_tokenID",
          "type": "uint256"
        }
      ],
      "name": "getDna",
      "outputs": [
        {
          "internalType": "uint256",
          "name": "",
          "type": "uint256"
        }
      ],
      "stateMutability": "view",
      "type": "function"
    },
    {
      "inputs": [
        {
          "internalType": "uint256",
          "name": "",
          "type": "uint256"
        }
      ],
      "name": "indexDna",
      "outputs": [
        {
          "internalType": "uint256",
          "name": "",
          "type": "uint256"
        }
      ],
      "stateMutability": "view",
      "type": "function"
    },
    {
      "inputs": [
        {
          "internalType": "address",
          "name": "owner",
          "type": "address"
        },
        {
          "internalType": "address",
          "name": "operator",
          "type": "address"
        }
      ],
      "name": "isApprovedForAll",
      "outputs": [
        {
          "internalType": "bool",
          "name": "",
          "type": "bool"
        }
      ],
      "stateMutability": "view",
      "type": "function"
    },
    {
      "inputs": [],
      "name": "name",
      "outputs": [
        {
          "internalType": "string",
          "name": "",
          "type": "string"
        }
      ],
      "stateMutability": "view",
      "type": "function"
    },
    {
      "inputs": [
        {
          "internalType": "uint256",
          "name": "tokenId",
          "type": "uint256"
        }
      ],
      "name": "ownerOf",
      "outputs": [
        {
          "internalType": "address",
          "name": "",
          "type": "address"
        }
      ],
      "stateMutability": "view",
      "type": "function"
    },
    {
      "inputs": [],
      "name": "pause",
      "outputs": [],
      "stateMutability": "nonpayable",
      "type": "function"
    },
    {
      "inputs": [],
      "name": "paused",
      "outputs": [
        {
          "internalType": "bool",
          "name": "",
          "type": "bool"
        }
      ],
      "stateMutability": "view",
      "type": "function"
    },
    {
      "inputs": [
        {
          "internalType": "uint256",
          "name": "_tokenId",
          "type": "uint256"
        },
        {
          "internalType": "uint256",
          "name": "_salePrice",
          "type": "uint256"
        }
      ],
      "name": "royaltyInfo",
      "outputs": [
        {
          "internalType": "address",
          "name": "",
          "type": "address"
        },
        {
          "internalType": "uint256",
          "name": "",
          "type": "uint256"
        }
      ],
      "stateMutability": "view",
      "type": "function"
    },
    {
      "inputs": [
        {
          "internalType": "address",
          "name": "to",
          "type": "address"
        },
        {
          "internalType": "uint256",
          "name": "dna",
          "type": "uint256"
        }
      ],
      "name": "safeMint",
      "outputs": [],
      "stateMutability": "nonpayable",
      "type": "function"
    },
    {
      "inputs": [
        {
          "internalType": "address",
          "name": "from",
          "type": "address"
        },
        {
          "internalType": "address",
          "name": "to",
          "type": "address"
        },
        {
          "internalType": "uint256",
          "name": "tokenId",
          "type": "uint256"
        }
      ],
      "name": "safeTransferFrom",
      "outputs": [],
      "stateMutability": "nonpayable",
      "type": "function"
    },
    {
      "inputs": [
        {
          "internalType": "address",
          "name": "from",
          "type": "address"
        },
        {
          "internalType": "address",
          "name": "to",
          "type": "address"
        },
        {
          "internalType": "uint256",
          "name": "tokenId",
          "type": "uint256"
        },
        {
          "internalType": "bytes",
          "name": "data",
          "type": "bytes"
        }
      ],
      "name": "safeTransferFrom",
      "outputs": [],
      "stateMutability": "nonpayable",
      "type": "function"
    },
    {
      "inputs": [
        {
          "internalType": "address",
          "name": "operator",
          "type": "address"
        },
        {
          "internalType": "bool",
          "name": "approved",
          "type": "bool"
        }
      ],
      "name": "setApprovalForAll",
      "outputs": [],
      "stateMutability": "nonpayable",
      "type": "function"
    },
    {
      "inputs": [
        {
          "internalType": "contract IAuthority",
          "name": "_newAuthority",
          "type": "address"
        }
      ],
      "name": "setAuthority",
      "outputs": [],
      "stateMutability": "nonpayable",
      "type": "function"
    },
    {
      "inputs": [
        {
          "internalType": "string",
          "name": "_newURI",
          "type": "string"
        }
      ],
      "name": "setBaseURI",
      "outputs": [
        {
          "internalType": "string",
          "name": "",
          "type": "string"
        }
      ],
      "stateMutability": "nonpayable",
      "type": "function"
    },
    {
      "inputs": [
        {
          "internalType": "address",
          "name": "receiver",
          "type": "address"
        },
        {
          "internalType": "uint96",
          "name": "feeNumerator",
          "type": "uint96"
        }
      ],
      "name": "setDefaultRoyalty",
      "outputs": [],
      "stateMutability": "nonpayable",
      "type": "function"
    },
    {
      "inputs": [
        {
          "internalType": "uint256",
          "name": "_tokenID",
          "type": "uint256"
        },
        {
          "internalType": "uint256",
          "name": "_dna",
          "type": "uint256"
        }
      ],
      "name": "setDna",
      "outputs": [],
      "stateMutability": "nonpayable",
      "type": "function"
    },
    {
      "inputs": [
        {
          "internalType": "uint256",
          "name": "tokenId",
          "type": "uint256"
        },
        {
          "internalType": "address",
          "name": "receiver",
          "type": "address"
        },
        {
          "internalType": "uint96",
          "name": "feeNumerator",
          "type": "uint96"
        }
      ],
      "name": "setTokenRoyalty",
      "outputs": [],
      "stateMutability": "nonpayable",
      "type": "function"
    },
    {
      "inputs": [
        {
          "internalType": "bytes4",
          "name": "interfaceId",
          "type": "bytes4"
        }
      ],
      "name": "supportsInterface",
      "outputs": [
        {
          "internalType": "bool",
          "name": "",
          "type": "bool"
        }
      ],
      "stateMutability": "view",
      "type": "function"
    },
    {
      "inputs": [],
      "name": "symbol",
      "outputs": [
        {
          "internalType": "string",
          "name": "",
          "type": "string"
        }
      ],
      "stateMutability": "view",
      "type": "function"
    },
    {
      "inputs": [
        {
          "internalType": "uint256",
          "name": "index",
          "type": "uint256"
        }
      ],
      "name": "tokenByIndex",
      "outputs": [
        {
          "internalType": "uint256",
          "name": "",
          "type": "uint256"
        }
      ],
      "stateMutability": "view",
      "type": "function"
    },
    {
      "inputs": [
        {
          "internalType": "address",
          "name": "owner",
          "type": "address"
        },
        {
          "internalType": "uint256",
          "name": "index",
          "type": "uint256"
        }
      ],
      "name": "tokenOfOwnerByIndex",
      "outputs": [
        {
          "internalType": "uint256",
          "name": "",
          "type": "uint256"
        }
      ],
      "stateMutability": "view",
      "type": "function"
    },
    {
      "inputs": [
        {
          "internalType": "uint256",
          "name": "tokenId",
          "type": "uint256"
        }
      ],
      "name": "tokenURI",
      "outputs": [
        {
          "internalType": "string",
          "name": "",
          "type": "string"
        }
      ],
      "stateMutability": "view",
      "type": "function"
    },
    {
      "inputs": [],
      "name": "totalSupply",
      "outputs": [
        {
          "internalType": "uint256",
          "name": "",
          "type": "uint256"
        }
      ],
      "stateMutability": "view",
      "type": "function"
    },
    {
      "inputs": [
        {
          "internalType": "address",
          "name": "from",
          "type": "address"
        },
        {
          "internalType": "address",
          "name": "to",
          "type": "address"
        },
        {
          "internalType": "uint256",
          "name": "tokenId",
          "type": "uint256"
        }
      ],
      "name": "transferFrom",
      "outputs": [],
      "stateMutability": "nonpayable",
      "type": "function"
    },
    {
      "inputs": [],
      "name": "unpause",
      "outputs": [],
      "stateMutability": "nonpayable",
      "type": "function"
    }
  ],
  "transactionHash": "0xebec4726a20ae39b2a80b3bac61965a41b2ddd6b880c1e4d37232d47a9f3eef6",
  "args": [
    "Kondux NFT",
    "KONDUX",
    "0x130025903Ef25390bEE8cC1a8049Cca40f3F3c96"
  ],
  "numDeployments": 1,
  "solcInputHash": "43af209c4b1b7571a8868ff6c4d0ea80",
  "bytecode": "0x60806040523480156200001157600080fd5b5060405162002de438038062002de48339810160408190526200003491620001e4565b808383600262000045838262000300565b50600362000054828262000300565b5050600c805460ff19169055506001600160a01b038116620000bc5760405162461bcd60e51b815260206004820181905260248201527f417574686f726974792063616e6e6f74206265207a65726f2061646472657373604482015260640160405180910390fd5b600c8054610100600160a81b0319166101006001600160a01b038416908102919091179091556040519081527f2f658b440c35314f52658ea8a740e05b284cdc84dc9ae01e891f21b8933e7cad9060200160405180910390a150505050620003cc565b634e487b7160e01b600052604160045260246000fd5b600082601f8301126200014757600080fd5b81516001600160401b03808211156200016457620001646200011f565b604051601f8301601f19908116603f011681019082821181831017156200018f576200018f6200011f565b81604052838152602092508683858801011115620001ac57600080fd5b600091505b83821015620001d05785820183015181830184015290820190620001b1565b600093810190920192909252949350505050565b600080600060608486031215620001fa57600080fd5b83516001600160401b03808211156200021257600080fd5b620002208783880162000135565b945060208601519150808211156200023757600080fd5b50620002468682870162000135565b604086015190935090506001600160a01b03811681146200026657600080fd5b809150509250925092565b600181811c908216806200028657607f821691505b602082108103620002a757634e487b7160e01b600052602260045260246000fd5b50919050565b601f821115620002fb57600081815260208120601f850160051c81016020861015620002d65750805b601f850160051c820191505b81811015620002f757828155600101620002e2565b5050505b505050565b81516001600160401b038111156200031c576200031c6200011f565b62000334816200032d845462000271565b84620002ad565b602080601f8311600181146200036c5760008415620003535750858301515b600019600386901b1c1916600185901b178555620002f7565b600085815260208120601f198616915b828110156200039d578886015182559484019460019091019084016200037c565b5085821015620003bc5787850151600019600388901b60f8161c191681555b5050505050600190811b01905550565b612a0880620003dc6000396000f3fe608060405234801561001057600080fd5b50600436106102415760003560e01c806355f804b31161014557806396ce0795116100bd578063b88d4fde1161008c578063c87b56dd11610071578063c87b56dd146104eb578063d5391393146104fe578063e985e9c51461052557600080fd5b8063b88d4fde146104c0578063bf7e214f146104d357600080fd5b806396ce07951461045c578063a144819414610487578063a22cb4651461049a578063ab51e23a146104ad57600080fd5b80636c0360eb116101145780637a9e5e4b116100f95780637a9e5e4b146104395780638456cb591461044c57806395d89b411461045457600080fd5b80636c0360eb1461041e57806370a082311461042657600080fd5b806355f804b3146103da5780635944c753146103ed5780635c975abb146104005780636352211e1461040b57600080fd5b806323b872dd116101d85780633f4ba83a116101a757806342842e0e1161018c57806342842e0e146103a157806342966c68146103b45780634f6ccce7146103c757600080fd5b80633f4ba83a14610386578063422627c31461038e57600080fd5b806323b872dd1461031b5780632a55205a1461032e5780632f745c591461036057806337f8649e1461037357600080fd5b8063081812fc11610214578063081812fc146102ab578063095ea7b3146102d657806318160ddd146102e95780631c9ad5b1146102fb57600080fd5b806301ffc9a71461024657806304634d8d1461026e578063067b61f21461028357806306fdde0314610296575b600080fd5b610259610254366004612273565b610561565b60405190151581526020015b60405180910390f35b61028161027c3660046122c3565b610572565b005b6102816102913660046122f8565b610588565b61029e61059a565b604051610265919061236a565b6102be6102b936600461237d565b61062c565b6040516001600160a01b039091168152602001610265565b6102816102e4366004612396565b610653565b600a545b604051908152602001610265565b6102ed61030936600461237d565b600f6020526000908152604090205481565b6102816103293660046123c2565b61076d565b61034161033c3660046122f8565b6107e6565b604080516001600160a01b039093168352602083019190915201610265565b6102ed61036e366004612396565b610892565b6102ed610381366004612403565b61093a565b6102816109ea565b6102ed61039c36600461237d565b6109fc565b6102816103af3660046123c2565b610a8b565b6102816103c236600461237d565b610aa6565b6102ed6103d536600461237d565b610b1e565b61029e6103e83660046124ac565b610bc2565b6102816103fb3660046124f5565b610ca4565b600c5460ff16610259565b6102be61041936600461237d565b610cb7565b61029e610d1c565b6102ed610434366004612403565b610daa565b610281610447366004612403565b610e44565b610281610ebf565b61029e610ecf565b600e5461046f906001600160601b031681565b6040516001600160601b039091168152602001610265565b610281610495366004612396565b610ede565b6102816104a8366004612533565b610f15565b61046f6104bb366004612571565b610f20565b6102816104ce36600461258c565b610f91565b600c546102be9061010090046001600160a01b031681565b61029e6104f936600461237d565b611010565b6102ed7f9f2df0fed2c77648de5860a4cc508cd0818c85b8b8a1ab4ceeef8d981c8956a681565b61025961053336600461260c565b6001600160a01b03918216600090815260076020908152604080832093909416825291909152205460ff1690565b600061056c826110eb565b92915050565b61057a6110f6565b61058482826111bc565b5050565b6105906110f6565b61058482826112b9565b6060600280546105a99061263a565b80601f01602080910402602001604051908101604052809291908181526020018280546105d59061263a565b80156106225780601f106105f757610100808354040283529160200191610622565b820191906000526020600020905b81548152906001019060200180831161060557829003601f168201915b5050505050905090565b600061063782611308565b506000908152600660205260409020546001600160a01b031690565b600061065e82610cb7565b9050806001600160a01b0316836001600160a01b0316036106d05760405162461bcd60e51b815260206004820152602160248201527f4552433732313a20617070726f76616c20746f2063757272656e74206f776e656044820152603960f91b60648201526084015b60405180910390fd5b336001600160a01b03821614806106ec57506106ec8133610533565b61075e5760405162461bcd60e51b815260206004820152603e60248201527f4552433732313a20617070726f76652063616c6c6572206973206e6f7420746f60448201527f6b656e206f776e6572206e6f7220617070726f76656420666f7220616c6c000060648201526084016106c7565b610768838361136c565b505050565b610778335b826113da565b6107db5760405162461bcd60e51b815260206004820152602e60248201527f4552433732313a2063616c6c6572206973206e6f7420746f6b656e206f776e6560448201526d1c881b9bdc88185c1c1c9bdd995960921b60648201526084016106c7565b610768838383611459565b60008281526001602090815260408083208151808301909252546001600160a01b038116808352600160a01b9091046001600160601b031692820192909252829161085b5750604080518082019091526000546001600160a01b0381168252600160a01b90046001600160601b031660208201525b60208101516000906127109061087a906001600160601b031687612684565b61088491906126b9565b915196919550909350505050565b600061089d83610daa565b82106109115760405162461bcd60e51b815260206004820152602b60248201527f455243373231456e756d657261626c653a206f776e657220696e646578206f7560448201527f74206f6620626f756e647300000000000000000000000000000000000000000060648201526084016106c7565b506001600160a01b03919091166000908152600860209081526040808320938352929052205490565b60007f9f2df0fed2c77648de5860a4cc508cd0818c85b8b8a1ab4ceeef8d981c8956a661096681611618565b600061097160105490565b9050610981601080546001019055565b604080514460208083019190915242828401524360608084019190915241901b6bffffffffffffffffffffffff1916608083015282518083036074018152609490920190925280519101206109d682826112b9565b6109e085836116c5565b5091505b50919050565b6109f26110f6565b6109fa6116df565b565b6000818152600460205260408120546001600160a01b0316610a785760405162461bcd60e51b815260206004820152602f60248201527f4552433732314d657461646174613a2055524920717565727920666f72206e6f60448201526e3732bc34b9ba32b73a103a37b5b2b760891b60648201526084016106c7565b506000908152600f602052604090205490565b61076883838360405180602001604052806000815250610f91565b610aaf33610772565b610b125760405162461bcd60e51b815260206004820152602e60248201527f4552433732313a2063616c6c6572206973206e6f7420746f6b656e206f776e6560448201526d1c881b9bdc88185c1c1c9bdd995960921b60648201526084016106c7565b610b1b81611731565b50565b6000610b29600a5490565b8210610b9d5760405162461bcd60e51b815260206004820152602c60248201527f455243373231456e756d657261626c653a20676c6f62616c20696e646578206f60448201527f7574206f6620626f756e6473000000000000000000000000000000000000000060648201526084016106c7565b600a8281548110610bb057610bb06126cd565b90600052602060002001549050919050565b6060610bcc6110f6565b600d610bd88382612731565b507f5411e8ebf1636d9e83d5fc4900bf80cbac82e8790da2a4c94db4895e889eedf6600d604051610c0991906127f1565b60405180910390a1600d8054610c1e9061263a565b80601f0160208091040260200160405190810160405280929190818152602001828054610c4a9061263a565b8015610c975780601f10610c6c57610100808354040283529160200191610c97565b820191906000526020600020905b815481529060010190602001808311610c7a57829003601f168201915b505050505090505b919050565b610cac6110f6565b61076883838361174b565b6000818152600460205260408120546001600160a01b03168061056c5760405162461bcd60e51b815260206004820152601860248201527f4552433732313a20696e76616c696420746f6b656e204944000000000000000060448201526064016106c7565b600d8054610d299061263a565b80601f0160208091040260200160405190810160405280929190818152602001828054610d559061263a565b8015610da25780601f10610d7757610100808354040283529160200191610da2565b820191906000526020600020905b815481529060010190602001808311610d8557829003601f168201915b505050505081565b60006001600160a01b038216610e285760405162461bcd60e51b815260206004820152602960248201527f4552433732313a2061646472657373207a65726f206973206e6f74206120766160448201527f6c6964206f776e6572000000000000000000000000000000000000000000000060648201526084016106c7565b506001600160a01b031660009081526005602052604090205490565b610e4c6110f6565b600c80547fffffffffffffffffffffff0000000000000000000000000000000000000000ff166101006001600160a01b038416908102919091179091556040519081527f2f658b440c35314f52658ea8a740e05b284cdc84dc9ae01e891f21b8933e7cad9060200160405180910390a150565b610ec76110f6565b6109fa611859565b6060600380546105a99061263a565b610ee66110f6565b6000610ef160105490565b9050610f01601080546001019055565b610f0b81836112b9565b61076883826116c5565b610584338383611896565b6000610f2a6110f6565b600e80546bffffffffffffffffffffffff19166001600160601b0384169081179091556040519081527f601b85aa9305dbcfbfc81aa2d4b5126c1ce24afdd1bad47d6880e5b6df081f579060200160405180910390a15050600e546001600160601b031690565b610f9b33836113da565b610ffe5760405162461bcd60e51b815260206004820152602e60248201527f4552433732313a2063616c6c6572206973206e6f7420746f6b656e206f776e6560448201526d1c881b9bdc88185c1c1c9bdd995960921b60648201526084016106c7565b61100a84848484611964565b50505050565b6000818152600460205260409020546060906001600160a01b031661108f5760405162461bcd60e51b815260206004820152602f60248201527f4552433732314d657461646174613a2055524920717565727920666f72206e6f60448201526e3732bc34b9ba32b73a103a37b5b2b760891b60648201526084016106c7565b6000600d805461109e9061263a565b9050116110ba576040518060200160405280600081525061056c565b600d6110c5836119e2565b6040516020016110d692919061287c565b60405160208183030381529060405292915050565b600061056c82611afb565b600c60019054906101000a90046001600160a01b03166001600160a01b0316630c340a246040518163ffffffff1660e01b8152600401602060405180830381865afa158015611149573d6000803e3d6000fd5b505050506040513d601f19601f8201168201806040525081019061116d9190612903565b6001600160a01b0316336001600160a01b0316146109fa5760405162461bcd60e51b815260206004820152600c60248201526b15539055551213d49256915160a21b60448201526064016106c7565b6127106001600160601b038216111561122a5760405162461bcd60e51b815260206004820152602a60248201527f455243323938313a20726f79616c7479206665652077696c6c206578636565646044820152692073616c65507269636560b01b60648201526084016106c7565b6001600160a01b0382166112805760405162461bcd60e51b815260206004820152601960248201527f455243323938313a20696e76616c69642072656365697665720000000000000060448201526064016106c7565b604080518082019091526001600160a01b039092168083526001600160601b039091166020909201829052600160a01b90910217600055565b6000828152600f602090815260409182902083905581518481529081018390527f4e26044f7fb3724a9375deb74974fdc2f4e07f265efce87f93cfced354258487910160405180910390a15050565b6000818152600460205260409020546001600160a01b0316610b1b5760405162461bcd60e51b815260206004820152601860248201527f4552433732313a20696e76616c696420746f6b656e204944000000000000000060448201526064016106c7565b600081815260066020526040902080546001600160a01b0319166001600160a01b03841690811790915581906113a182610cb7565b6001600160a01b03167f8c5be1e5ebec7d5bd14f71427d1e84f3dd0314c0f7b2291e5b200ac8c7c3b92560405160405180910390a45050565b6000806113e683610cb7565b9050806001600160a01b0316846001600160a01b0316148061142d57506001600160a01b0380821660009081526007602090815260408083209388168352929052205460ff165b806114515750836001600160a01b03166114468461062c565b6001600160a01b0316145b949350505050565b826001600160a01b031661146c82610cb7565b6001600160a01b0316146114e85760405162461bcd60e51b815260206004820152602560248201527f4552433732313a207472616e736665722066726f6d20696e636f72726563742060448201527f6f776e657200000000000000000000000000000000000000000000000000000060648201526084016106c7565b6001600160a01b03821661154a5760405162461bcd60e51b8152602060048201526024808201527f4552433732313a207472616e7366657220746f20746865207a65726f206164646044820152637265737360e01b60648201526084016106c7565b611555838383611b20565b61156060008261136c565b6001600160a01b0383166000908152600560205260408120805460019290611589908490612920565b90915550506001600160a01b03821660009081526005602052604081208054600192906115b7908490612933565b909155505060008181526004602052604080822080546001600160a01b0319166001600160a01b0386811691821790925591518493918716917fddf252ad1be2c89b69c2b068fc378daa952ba7f163c4a11628f55a4df523b3ef91a4505050565b600c54604051634c9ba32160e11b8152336004820152829161010090046001600160a01b031690639937464290602401602060405180830381865afa158015611665573d6000803e3d6000fd5b505050506040513d601f19601f820116820180604052508101906116899190612946565b14610b1b5760405162461bcd60e51b815260206004820152600c60248201526b15539055551213d49256915160a21b60448201526064016106c7565b610584828260405180602001604052806000815250611b33565b6116e7611bb1565b600c805460ff191690557f5db9ee0a495bf2e6ff9c91a7834c1ba4fdd244a5e8aa4e537bd38aeae4b073aa335b6040516001600160a01b03909116815260200160405180910390a1565b61173a81611c03565b600090815260016020526040812055565b6127106001600160601b03821611156117b95760405162461bcd60e51b815260206004820152602a60248201527f455243323938313a20726f79616c7479206665652077696c6c206578636565646044820152692073616c65507269636560b01b60648201526084016106c7565b6001600160a01b03821661180f5760405162461bcd60e51b815260206004820152601b60248201527f455243323938313a20496e76616c696420706172616d6574657273000000000060448201526064016106c7565b6040805180820182526001600160a01b0393841681526001600160601b0392831660208083019182526000968752600190529190942093519051909116600160a01b029116179055565b611861611c0c565b600c805460ff191660011790557f62e78cea01bee320cd4e420270b5ea74000d11b0c9f74754ebdbfc544b05a2586117143390565b816001600160a01b0316836001600160a01b0316036118f75760405162461bcd60e51b815260206004820152601960248201527f4552433732313a20617070726f766520746f2063616c6c65720000000000000060448201526064016106c7565b6001600160a01b03838116600081815260076020908152604080832094871680845294825291829020805460ff191686151590811790915591519182527f17307eab39ab6107e8899845ad3d59bd9653f200f220920489ca2b5937696c31910160405180910390a3505050565b61196f848484611459565b61197b84848484611c5f565b61100a5760405162461bcd60e51b815260206004820152603260248201527f4552433732313a207472616e7366657220746f206e6f6e20455243373231526560448201527131b2b4bb32b91034b6b83632b6b2b73a32b960711b60648201526084016106c7565b606081600003611a095750506040805180820190915260018152600360fc1b602082015290565b8160005b8115611a335780611a1d8161295f565b9150611a2c9050600a836126b9565b9150611a0d565b60008167ffffffffffffffff811115611a4e57611a4e612420565b6040519080825280601f01601f191660200182016040528015611a78576020820181803683370190505b5090505b841561145157611a8d600183612920565b9150611a9a600a86612978565b611aa5906030612933565b60f81b818381518110611aba57611aba6126cd565b60200101907effffffffffffffffffffffffffffffffffffffffffffffffffffffffffffff1916908160001a905350611af4600a866126b9565b9450611a7c565b60006001600160e01b0319821663780e9d6360e01b148061056c575061056c82611dab565b611b28611c0c565b610768838383611deb565b611b3d8383611ea3565b611b4a6000848484611c5f565b6107685760405162461bcd60e51b815260206004820152603260248201527f4552433732313a207472616e7366657220746f206e6f6e20455243373231526560448201527131b2b4bb32b91034b6b83632b6b2b73a32b960711b60648201526084016106c7565b600c5460ff166109fa5760405162461bcd60e51b815260206004820152601460248201527f5061757361626c653a206e6f742070617573656400000000000000000000000060448201526064016106c7565b61173a81611ff1565b600c5460ff16156109fa5760405162461bcd60e51b815260206004820152601060248201527f5061757361626c653a207061757365640000000000000000000000000000000060448201526064016106c7565b60006001600160a01b0384163b15611da057604051630a85bd0160e11b81526001600160a01b0385169063150b7a0290611ca390339089908890889060040161298c565b6020604051808303816000875af1925050508015611cde575060408051601f3d908101601f19168201909252611cdb918101906129c8565b60015b611d86573d808015611d0c576040519150601f19603f3d011682016040523d82523d6000602084013e611d11565b606091505b508051600003611d7e5760405162461bcd60e51b815260206004820152603260248201527f4552433732313a207472616e7366657220746f206e6f6e20455243373231526560448201527131b2b4bb32b91034b6b83632b6b2b73a32b960711b60648201526084016106c7565b805181602001fd5b6001600160e01b031916630a85bd0160e11b149050611451565b506001949350505050565b60006001600160e01b031982166380ac58cd60e01b1480611ddc57506001600160e01b03198216635b5e139f60e01b145b8061056c575061056c82612098565b6001600160a01b038316611e4657611e4181600a80546000838152600b60205260408120829055600182018355919091527fc65a7bb8d6351c1cf70c95a316cc6a92839c986682d98bc35f958f4883f9d2a80155565b611e69565b816001600160a01b0316836001600160a01b031614611e6957611e6983826120cd565b6001600160a01b038216611e80576107688161216a565b826001600160a01b0316826001600160a01b031614610768576107688282612219565b6001600160a01b038216611ef95760405162461bcd60e51b815260206004820181905260248201527f4552433732313a206d696e7420746f20746865207a65726f206164647265737360448201526064016106c7565b6000818152600460205260409020546001600160a01b031615611f5e5760405162461bcd60e51b815260206004820152601c60248201527f4552433732313a20746f6b656e20616c7265616479206d696e7465640000000060448201526064016106c7565b611f6a60008383611b20565b6001600160a01b0382166000908152600560205260408120805460019290611f93908490612933565b909155505060008181526004602052604080822080546001600160a01b0319166001600160a01b03861690811790915590518392907fddf252ad1be2c89b69c2b068fc378daa952ba7f163c4a11628f55a4df523b3ef908290a45050565b6000611ffc82610cb7565b905061200a81600084611b20565b61201560008361136c565b6001600160a01b038116600090815260056020526040812080546001929061203e908490612920565b909155505060008281526004602052604080822080546001600160a01b0319169055518391906001600160a01b038416907fddf252ad1be2c89b69c2b068fc378daa952ba7f163c4a11628f55a4df523b3ef908390a45050565b60006001600160e01b0319821663152a902d60e11b148061056c57506301ffc9a760e01b6001600160e01b031983161461056c565b600060016120da84610daa565b6120e49190612920565b600083815260096020526040902054909150808214612137576001600160a01b03841660009081526008602090815260408083208584528252808320548484528184208190558352600990915290208190555b5060009182526009602090815260408084208490556001600160a01b039094168352600881528383209183525290812055565b600a5460009061217c90600190612920565b6000838152600b6020526040812054600a80549394509092849081106121a4576121a46126cd565b9060005260206000200154905080600a83815481106121c5576121c56126cd565b6000918252602080832090910192909255828152600b9091526040808220849055858252812055600a8054806121fd576121fd6129e5565b6001900381819060005260206000200160009055905550505050565b600061222483610daa565b6001600160a01b039093166000908152600860209081526040808320868452825280832085905593825260099052919091209190915550565b6001600160e01b031981168114610b1b57600080fd5b60006020828403121561228557600080fd5b81356122908161225d565b9392505050565b6001600160a01b0381168114610b1b57600080fd5b80356001600160601b0381168114610c9f57600080fd5b600080604083850312156122d657600080fd5b82356122e181612297565b91506122ef602084016122ac565b90509250929050565b6000806040838503121561230b57600080fd5b50508035926020909101359150565b60005b8381101561233557818101518382015260200161231d565b50506000910152565b6000815180845261235681602086016020860161231a565b601f01601f19169290920160200192915050565b602081526000612290602083018461233e565b60006020828403121561238f57600080fd5b5035919050565b600080604083850312156123a957600080fd5b82356123b481612297565b946020939093013593505050565b6000806000606084860312156123d757600080fd5b83356123e281612297565b925060208401356123f281612297565b929592945050506040919091013590565b60006020828403121561241557600080fd5b813561229081612297565b634e487b7160e01b600052604160045260246000fd5b600067ffffffffffffffff8084111561245157612451612420565b604051601f8501601f19908116603f0116810190828211818310171561247957612479612420565b8160405280935085815286868601111561249257600080fd5b858560208301376000602087830101525050509392505050565b6000602082840312156124be57600080fd5b813567ffffffffffffffff8111156124d557600080fd5b8201601f810184136124e657600080fd5b61145184823560208401612436565b60008060006060848603121561250a57600080fd5b83359250602084013561251c81612297565b915061252a604085016122ac565b90509250925092565b6000806040838503121561254657600080fd5b823561255181612297565b91506020830135801515811461256657600080fd5b809150509250929050565b60006020828403121561258357600080fd5b612290826122ac565b600080600080608085870312156125a257600080fd5b84356125ad81612297565b935060208501356125bd81612297565b925060408501359150606085013567ffffffffffffffff8111156125e057600080fd5b8501601f810187136125f157600080fd5b61260087823560208401612436565b91505092959194509250565b6000806040838503121561261f57600080fd5b823561262a81612297565b9150602083013561256681612297565b600181811c9082168061264e57607f821691505b6020821081036109e457634e487b7160e01b600052602260045260246000fd5b634e487b7160e01b600052601160045260246000fd5b600081600019048311821515161561269e5761269e61266e565b500290565b634e487b7160e01b600052601260045260246000fd5b6000826126c8576126c86126a3565b500490565b634e487b7160e01b600052603260045260246000fd5b601f82111561076857600081815260208120601f850160051c8101602086101561270a5750805b601f850160051c820191505b8181101561272957828155600101612716565b505050505050565b815167ffffffffffffffff81111561274b5761274b612420565b61275f81612759845461263a565b846126e3565b602080601f831160018114612794576000841561277c5750858301515b600019600386901b1c1916600185901b178555612729565b600085815260208120601f198616915b828110156127c3578886015182559484019460019091019084016127a4565b50858210156127e15787850151600019600388901b60f8161c191681555b5050505050600190811b01905550565b60006020808352600084546128058161263a565b8084870152604060018084166000811461282657600181146128405761286e565b60ff1985168984015283151560051b89018301955061286e565b896000528660002060005b858110156128665781548b820186015290830190880161284b565b8a0184019650505b509398975050505050505050565b600080845461288a8161263a565b600182811680156128a257600181146128b7576128e6565b60ff19841687528215158302870194506128e6565b8860005260208060002060005b858110156128dd5781548a8201529084019082016128c4565b50505082870194505b5050505083516128fa81836020880161231a565b01949350505050565b60006020828403121561291557600080fd5b815161229081612297565b8181038181111561056c5761056c61266e565b8082018082111561056c5761056c61266e565b60006020828403121561295857600080fd5b5051919050565b6000600182016129715761297161266e565b5060010190565b600082612987576129876126a3565b500690565b60006001600160a01b038087168352808616602084015250836040830152608060608301526129be608083018461233e565b9695505050505050565b6000602082840312156129da57600080fd5b81516122908161225d565b634e487b7160e01b600052603160045260246000fdfea164736f6c6343000810000a",
  "devdoc": {
    "kind": "dev",
    "methods": {
      "approve(address,uint256)": {
        "details": "See {IERC721-approve}."
      },
      "balanceOf(address)": {
        "details": "See {IERC721-balanceOf}."
      },
      "burn(uint256)": {
        "details": "Burns `tokenId`. See {ERC721-_burn}. Requirements: - The caller must own `tokenId` or be an approved operator."
      },
      "getApproved(uint256)": {
        "details": "See {IERC721-getApproved}."
      },
      "isApprovedForAll(address,address)": {
        "details": "See {IERC721-isApprovedForAll}."
      },
      "name()": {
        "details": "See {IERC721Metadata-name}."
      },
      "ownerOf(uint256)": {
        "details": "See {IERC721-ownerOf}."
      },
      "paused()": {
        "details": "Returns true if the contract is paused, and false otherwise."
      },
      "royaltyInfo(uint256,uint256)": {
        "details": "Returns how much royalty is owed and to whom, based on a sale price that may be denominated in any unit of exchange. The royalty amount is denominated and should be paid in that same unit of exchange."
      },
      "safeTransferFrom(address,address,uint256)": {
        "details": "See {IERC721-safeTransferFrom}."
      },
      "safeTransferFrom(address,address,uint256,bytes)": {
        "details": "See {IERC721-safeTransferFrom}."
      },
      "setApprovalForAll(address,bool)": {
        "details": "See {IERC721-setApprovalForAll}."
      },
      "symbol()": {
        "details": "See {IERC721Metadata-symbol}."
      },
      "tokenByIndex(uint256)": {
        "details": "See {IERC721Enumerable-tokenByIndex}."
      },
      "tokenOfOwnerByIndex(address,uint256)": {
        "details": "See {IERC721Enumerable-tokenOfOwnerByIndex}."
      },
      "tokenURI(uint256)": {
        "details": "See {IERC721Metadata-tokenURI}."
      },
      "totalSupply()": {
        "details": "See {IERC721Enumerable-totalSupply}."
      },
      "transferFrom(address,address,uint256)": {
        "details": "See {IERC721-transferFrom}."
      }
    },
    "version": 1
  },
  "userdoc": {
    "kind": "user",
    "methods": {},
    "version": 1
  },
  "storageLayout": {
    "storage": [
      {
        "astId": 1616,
        "contract": "contracts/Kondux_NFT.sol:Kondux",
        "label": "_defaultRoyaltyInfo",
        "offset": 0,
        "slot": "0",
        "type": "t_struct(RoyaltyInfo)1613_storage"
      },
      {
        "astId": 1621,
        "contract": "contracts/Kondux_NFT.sol:Kondux",
        "label": "_tokenRoyaltyInfo",
        "offset": 0,
        "slot": "1",
        "type": "t_mapping(t_uint256,t_struct(RoyaltyInfo)1613_storage)"
      },
      {
        "astId": 152,
        "contract": "contracts/Kondux_NFT.sol:Kondux",
        "label": "_name",
        "offset": 0,
        "slot": "2",
        "type": "t_string_storage"
      },
      {
        "astId": 154,
        "contract": "contracts/Kondux_NFT.sol:Kondux",
        "label": "_symbol",
        "offset": 0,
        "slot": "3",
        "type": "t_string_storage"
      },
      {
        "astId": 158,
        "contract": "contracts/Kondux_NFT.sol:Kondux",
        "label": "_owners",
        "offset": 0,
        "slot": "4",
        "type": "t_mapping(t_uint256,t_address)"
      },
      {
        "astId": 162,
        "contract": "contracts/Kondux_NFT.sol:Kondux",
        "label": "_balances",
        "offset": 0,
        "slot": "5",
        "type": "t_mapping(t_address,t_uint256)"
      },
      {
        "astId": 166,
        "contract": "contracts/Kondux_NFT.sol:Kondux",
        "label": "_tokenApprovals",
        "offset": 0,
        "slot": "6",
        "type": "t_mapping(t_uint256,t_address)"
      },
      {
        "astId": 172,
        "contract": "contracts/Kondux_NFT.sol:Kondux",
        "label": "_operatorApprovals",
        "offset": 0,
        "slot": "7",
        "type": "t_mapping(t_address,t_mapping(t_address,t_bool))"
      },
      {
        "astId": 1172,
        "contract": "contracts/Kondux_NFT.sol:Kondux",
        "label": "_ownedTokens",
        "offset": 0,
        "slot": "8",
        "type": "t_mapping(t_address,t_mapping(t_uint256,t_uint256))"
      },
      {
        "astId": 1176,
        "contract": "contracts/Kondux_NFT.sol:Kondux",
        "label": "_ownedTokensIndex",
        "offset": 0,
        "slot": "9",
        "type": "t_mapping(t_uint256,t_uint256)"
      },
      {
        "astId": 1179,
        "contract": "contracts/Kondux_NFT.sol:Kondux",
        "label": "_allTokens",
        "offset": 0,
        "slot": "10",
        "type": "t_array(t_uint256)dyn_storage"
      },
      {
        "astId": 1183,
        "contract": "contracts/Kondux_NFT.sol:Kondux",
        "label": "_allTokensIndex",
        "offset": 0,
        "slot": "11",
        "type": "t_mapping(t_uint256,t_uint256)"
      },
      {
        "astId": 36,
        "contract": "contracts/Kondux_NFT.sol:Kondux",
        "label": "_paused",
        "offset": 0,
        "slot": "12",
        "type": "t_bool"
      },
      {
        "astId": 4374,
        "contract": "contracts/Kondux_NFT.sol:Kondux",
        "label": "authority",
        "offset": 1,
        "slot": "12",
        "type": "t_contract(IAuthority)4278"
      },
      {
        "astId": 3330,
        "contract": "contracts/Kondux_NFT.sol:Kondux",
        "label": "baseURI",
        "offset": 0,
        "slot": "13",
        "type": "t_string_storage"
      },
      {
        "astId": 3332,
        "contract": "contracts/Kondux_NFT.sol:Kondux",
        "label": "denominator",
        "offset": 0,
        "slot": "14",
        "type": "t_uint96"
      },
      {
        "astId": 3336,
        "contract": "contracts/Kondux_NFT.sol:Kondux",
        "label": "indexDna",
        "offset": 0,
        "slot": "15",
        "type": "t_mapping(t_uint256,t_uint256)"
      },
      {
        "astId": 3339,
        "contract": "contracts/Kondux_NFT.sol:Kondux",
        "label": "_tokenIdCounter",
        "offset": 0,
        "slot": "16",
        "type": "t_struct(Counter)2120_storage"
      }
    ],
    "types": {
      "t_address": {
        "encoding": "inplace",
        "label": "address",
        "numberOfBytes": "20"
      },
      "t_array(t_uint256)dyn_storage": {
        "base": "t_uint256",
        "encoding": "dynamic_array",
        "label": "uint256[]",
        "numberOfBytes": "32"
      },
      "t_bool": {
        "encoding": "inplace",
        "label": "bool",
        "numberOfBytes": "1"
      },
      "t_contract(IAuthority)4278": {
        "encoding": "inplace",
        "label": "contract IAuthority",
        "numberOfBytes": "20"
      },
      "t_mapping(t_address,t_bool)": {
        "encoding": "mapping",
        "key": "t_address",
        "label": "mapping(address => bool)",
        "numberOfBytes": "32",
        "value": "t_bool"
      },
      "t_mapping(t_address,t_mapping(t_address,t_bool))": {
        "encoding": "mapping",
        "key": "t_address",
        "label": "mapping(address => mapping(address => bool))",
        "numberOfBytes": "32",
        "value": "t_mapping(t_address,t_bool)"
      },
      "t_mapping(t_address,t_mapping(t_uint256,t_uint256))": {
        "encoding": "mapping",
        "key": "t_address",
        "label": "mapping(address => mapping(uint256 => uint256))",
        "numberOfBytes": "32",
        "value": "t_mapping(t_uint256,t_uint256)"
      },
      "t_mapping(t_address,t_uint256)": {
        "encoding": "mapping",
        "key": "t_address",
        "label": "mapping(address => uint256)",
        "numberOfBytes": "32",
        "value": "t_uint256"
      },
      "t_mapping(t_uint256,t_address)": {
        "encoding": "mapping",
        "key": "t_uint256",
        "label": "mapping(uint256 => address)",
        "numberOfBytes": "32",
        "value": "t_address"
      },
      "t_mapping(t_uint256,t_struct(RoyaltyInfo)1613_storage)": {
        "encoding": "mapping",
        "key": "t_uint256",
        "label": "mapping(uint256 => struct ERC2981.RoyaltyInfo)",
        "numberOfBytes": "32",
        "value": "t_struct(RoyaltyInfo)1613_storage"
      },
      "t_mapping(t_uint256,t_uint256)": {
        "encoding": "mapping",
        "key": "t_uint256",
        "label": "mapping(uint256 => uint256)",
        "numberOfBytes": "32",
        "value": "t_uint256"
      },
      "t_string_storage": {
        "encoding": "bytes",
        "label": "string",
        "numberOfBytes": "32"
      },
      "t_struct(Counter)2120_storage": {
        "encoding": "inplace",
        "label": "struct Counters.Counter",
        "members": [
          {
            "astId": 2119,
            "contract": "contracts/Kondux_NFT.sol:Kondux",
            "label": "_value",
            "offset": 0,
            "slot": "0",
            "type": "t_uint256"
          }
        ],
        "numberOfBytes": "32"
      },
      "t_struct(RoyaltyInfo)1613_storage": {
        "encoding": "inplace",
        "label": "struct ERC2981.RoyaltyInfo",
        "members": [
          {
            "astId": 1610,
            "contract": "contracts/Kondux_NFT.sol:Kondux",
            "label": "receiver",
            "offset": 0,
            "slot": "0",
            "type": "t_address"
          },
          {
            "astId": 1612,
            "contract": "contracts/Kondux_NFT.sol:Kondux",
            "label": "royaltyFraction",
            "offset": 20,
            "slot": "0",
            "type": "t_uint96"
          }
        ],
        "numberOfBytes": "32"
      },
      "t_uint256": {
        "encoding": "inplace",
        "label": "uint256",
        "numberOfBytes": "32"
      },
      "t_uint96": {
        "encoding": "inplace",
        "label": "uint96",
        "numberOfBytes": "12"
      }
    }
  }
}