{
  "address": "0x934B644884dF4afaD402017Ae76D10062422AE7f",
  "abi": [
    {
      "inputs": [
        {
          "internalType": "string",
          "name": "_name",
          "type": "string"
        },
        {
          "internalType": "string",
          "name": "_symbol",
          "type": "string"
        },
        {
          "internalType": "address",
          "name": "_authority",
          "type": "address"
        }
      ],
      "stateMutability": "nonpayable",
      "type": "constructor"
    },
    {
      "anonymous": false,
      "inputs": [
        {
          "indexed": true,
          "internalType": "address",
          "name": "owner",
          "type": "address"
        },
        {
          "indexed": true,
          "internalType": "address",
          "name": "approved",
          "type": "address"
        },
        {
          "indexed": true,
          "internalType": "uint256",
          "name": "tokenId",
          "type": "uint256"
        }
      ],
      "name": "Approval",
      "type": "event"
    },
    {
      "anonymous": false,
      "inputs": [
        {
          "indexed": true,
          "internalType": "address",
          "name": "owner",
          "type": "address"
        },
        {
          "indexed": true,
          "internalType": "address",
          "name": "operator",
          "type": "address"
        },
        {
          "indexed": false,
          "internalType": "bool",
          "name": "approved",
          "type": "bool"
        }
      ],
      "name": "ApprovalForAll",
      "type": "event"
    },
    {
      "anonymous": false,
      "inputs": [
        {
          "indexed": false,
          "internalType": "contract IAuthority",
          "name": "authority",
          "type": "address"
        }
      ],
      "name": "AuthorityUpdated",
      "type": "event"
    },
    {
      "anonymous": false,
      "inputs": [
        {
          "indexed": false,
          "internalType": "string",
          "name": "baseURI",
          "type": "string"
        }
      ],
      "name": "BaseURIChanged",
      "type": "event"
    },
    {
      "anonymous": false,
      "inputs": [
        {
          "indexed": false,
          "internalType": "uint96",
          "name": "denominator",
          "type": "uint96"
        }
      ],
      "name": "DenominatorChanged",
      "type": "event"
    },
    {
      "anonymous": false,
      "inputs": [
        {
          "indexed": false,
          "internalType": "uint256",
          "name": "tokenID",
          "type": "uint256"
        },
        {
          "indexed": false,
          "internalType": "uint256",
          "name": "dna",
          "type": "uint256"
        }
      ],
      "name": "DnaChanged",
      "type": "event"
    },
    {
      "anonymous": false,
      "inputs": [
        {
          "indexed": false,
          "internalType": "address",
          "name": "account",
          "type": "address"
        }
      ],
      "name": "Paused",
      "type": "event"
    },
    {
      "anonymous": false,
      "inputs": [
        {
          "indexed": false,
          "internalType": "address",
          "name": "sender",
          "type": "address"
        },
        {
          "indexed": false,
          "internalType": "uint256",
          "name": "value",
          "type": "uint256"
        }
      ],
      "name": "Received",
      "type": "event"
    },
    {
      "anonymous": false,
      "inputs": [
        {
          "indexed": true,
          "internalType": "address",
          "name": "from",
          "type": "address"
        },
        {
          "indexed": true,
          "internalType": "address",
          "name": "to",
          "type": "address"
        },
        {
          "indexed": true,
          "internalType": "uint256",
          "name": "tokenId",
          "type": "uint256"
        }
      ],
      "name": "Transfer",
      "type": "event"
    },
    {
      "anonymous": false,
      "inputs": [
        {
          "indexed": false,
          "internalType": "address",
          "name": "account",
          "type": "address"
        }
      ],
      "name": "Unpaused",
      "type": "event"
    },
    {
      "inputs": [],
      "name": "MINTER_ROLE",
      "outputs": [
        {
          "internalType": "bytes32",
          "name": "",
          "type": "bytes32"
        }
      ],
      "stateMutability": "view",
      "type": "function"
    },
    {
      "inputs": [
        {
          "internalType": "address",
          "name": "to",
          "type": "address"
        },
        {
          "internalType": "uint256",
          "name": "tokenId",
          "type": "uint256"
        }
      ],
      "name": "approve",
      "outputs": [],
      "stateMutability": "nonpayable",
      "type": "function"
    },
    {
      "inputs": [],
      "name": "authority",
      "outputs": [
        {
          "internalType": "contract IAuthority",
          "name": "",
          "type": "address"
        }
      ],
      "stateMutability": "view",
      "type": "function"
    },
    {
      "inputs": [
        {
          "internalType": "address",
          "name": "owner",
          "type": "address"
        }
      ],
      "name": "balanceOf",
      "outputs": [
        {
          "internalType": "uint256",
          "name": "",
          "type": "uint256"
        }
      ],
      "stateMutability": "view",
      "type": "function"
    },
    {
      "inputs": [],
      "name": "baseURI",
      "outputs": [
        {
          "internalType": "string",
          "name": "",
          "type": "string"
        }
      ],
      "stateMutability": "view",
      "type": "function"
    },
    {
      "inputs": [
        {
          "internalType": "uint256",
          "name": "tokenId",
          "type": "uint256"
        }
      ],
      "name": "burn",
      "outputs": [],
      "stateMutability": "nonpayable",
      "type": "function"
    },
    {
      "inputs": [
        {
          "internalType": "uint96",
          "name": "_denominator",
          "type": "uint96"
        }
      ],
      "name": "changeDenominator",
      "outputs": [
        {
          "internalType": "uint96",
          "name": "",
          "type": "uint96"
        }
      ],
      "stateMutability": "nonpayable",
      "type": "function"
    },
    {
      "inputs": [],
      "name": "denominator",
      "outputs": [
        {
          "internalType": "uint96",
          "name": "",
          "type": "uint96"
        }
      ],
      "stateMutability": "view",
      "type": "function"
    },
    {
      "inputs": [
        {
          "internalType": "uint256",
          "name": "tokenId",
          "type": "uint256"
        }
      ],
      "name": "getApproved",
      "outputs": [
        {
          "internalType": "address",
          "name": "",
          "type": "address"
        }
      ],
      "stateMutability": "view",
      "type": "function"
    },
    {
      "inputs": [
        {
          "internalType": "uint256",
          "name": "_tokenID",
          "type": "uint256"
        }
      ],
      "name": "getDna",
      "outputs": [
        {
          "internalType": "uint256",
          "name": "",
          "type": "uint256"
        }
      ],
      "stateMutability": "view",
      "type": "function"
    },
    {
      "inputs": [
        {
          "internalType": "uint256",
          "name": "",
          "type": "uint256"
        }
      ],
      "name": "indexDna",
      "outputs": [
        {
          "internalType": "uint256",
          "name": "",
          "type": "uint256"
        }
      ],
      "stateMutability": "view",
      "type": "function"
    },
    {
      "inputs": [
        {
          "internalType": "address",
          "name": "owner",
          "type": "address"
        },
        {
          "internalType": "address",
          "name": "operator",
          "type": "address"
        }
      ],
      "name": "isApprovedForAll",
      "outputs": [
        {
          "internalType": "bool",
          "name": "",
          "type": "bool"
        }
      ],
      "stateMutability": "view",
      "type": "function"
    },
    {
      "inputs": [],
      "name": "name",
      "outputs": [
        {
          "internalType": "string",
          "name": "",
          "type": "string"
        }
      ],
      "stateMutability": "view",
      "type": "function"
    },
    {
      "inputs": [
        {
          "internalType": "uint256",
          "name": "tokenId",
          "type": "uint256"
        }
      ],
      "name": "ownerOf",
      "outputs": [
        {
          "internalType": "address",
          "name": "",
          "type": "address"
        }
      ],
      "stateMutability": "view",
      "type": "function"
    },
    {
      "inputs": [],
      "name": "pause",
      "outputs": [],
      "stateMutability": "nonpayable",
      "type": "function"
    },
    {
      "inputs": [],
      "name": "paused",
      "outputs": [
        {
          "internalType": "bool",
          "name": "",
          "type": "bool"
        }
      ],
      "stateMutability": "view",
      "type": "function"
    },
    {
      "inputs": [
        {
          "internalType": "uint256",
          "name": "_tokenId",
          "type": "uint256"
        },
        {
          "internalType": "uint256",
          "name": "_salePrice",
          "type": "uint256"
        }
      ],
      "name": "royaltyInfo",
      "outputs": [
        {
          "internalType": "address",
          "name": "",
          "type": "address"
        },
        {
          "internalType": "uint256",
          "name": "",
          "type": "uint256"
        }
      ],
      "stateMutability": "view",
      "type": "function"
    },
    {
      "inputs": [
        {
          "internalType": "address",
          "name": "to",
          "type": "address"
        },
        {
          "internalType": "uint256",
          "name": "dna",
          "type": "uint256"
        }
      ],
      "name": "safeMint",
      "outputs": [
        {
          "internalType": "uint256",
          "name": "",
          "type": "uint256"
        }
      ],
      "stateMutability": "nonpayable",
      "type": "function"
    },
    {
      "inputs": [
        {
          "internalType": "address",
          "name": "from",
          "type": "address"
        },
        {
          "internalType": "address",
          "name": "to",
          "type": "address"
        },
        {
          "internalType": "uint256",
          "name": "tokenId",
          "type": "uint256"
        }
      ],
      "name": "safeTransferFrom",
      "outputs": [],
      "stateMutability": "nonpayable",
      "type": "function"
    },
    {
      "inputs": [
        {
          "internalType": "address",
          "name": "from",
          "type": "address"
        },
        {
          "internalType": "address",
          "name": "to",
          "type": "address"
        },
        {
          "internalType": "uint256",
          "name": "tokenId",
          "type": "uint256"
        },
        {
          "internalType": "bytes",
          "name": "data",
          "type": "bytes"
        }
      ],
      "name": "safeTransferFrom",
      "outputs": [],
      "stateMutability": "nonpayable",
      "type": "function"
    },
    {
      "inputs": [
        {
          "internalType": "address",
          "name": "operator",
          "type": "address"
        },
        {
          "internalType": "bool",
          "name": "approved",
          "type": "bool"
        }
      ],
      "name": "setApprovalForAll",
      "outputs": [],
      "stateMutability": "nonpayable",
      "type": "function"
    },
    {
      "inputs": [
        {
          "internalType": "contract IAuthority",
          "name": "_newAuthority",
          "type": "address"
        }
      ],
      "name": "setAuthority",
      "outputs": [],
      "stateMutability": "nonpayable",
      "type": "function"
    },
    {
      "inputs": [
        {
          "internalType": "string",
          "name": "_newURI",
          "type": "string"
        }
      ],
      "name": "setBaseURI",
      "outputs": [
        {
          "internalType": "string",
          "name": "",
          "type": "string"
        }
      ],
      "stateMutability": "nonpayable",
      "type": "function"
    },
    {
      "inputs": [
        {
          "internalType": "address",
          "name": "receiver",
          "type": "address"
        },
        {
          "internalType": "uint96",
          "name": "feeNumerator",
          "type": "uint96"
        }
      ],
      "name": "setDefaultRoyalty",
      "outputs": [],
      "stateMutability": "nonpayable",
      "type": "function"
    },
    {
      "inputs": [
        {
          "internalType": "uint256",
          "name": "_tokenID",
          "type": "uint256"
        },
        {
          "internalType": "uint256",
          "name": "_dna",
          "type": "uint256"
        }
      ],
      "name": "setDna",
      "outputs": [],
      "stateMutability": "nonpayable",
      "type": "function"
    },
    {
      "inputs": [
        {
          "internalType": "uint256",
          "name": "tokenId",
          "type": "uint256"
        },
        {
          "internalType": "address",
          "name": "receiver",
          "type": "address"
        },
        {
          "internalType": "uint96",
          "name": "feeNumerator",
          "type": "uint96"
        }
      ],
      "name": "setTokenRoyalty",
      "outputs": [],
      "stateMutability": "nonpayable",
      "type": "function"
    },
    {
      "inputs": [
        {
          "internalType": "bytes4",
          "name": "interfaceId",
          "type": "bytes4"
        }
      ],
      "name": "supportsInterface",
      "outputs": [
        {
          "internalType": "bool",
          "name": "",
          "type": "bool"
        }
      ],
      "stateMutability": "view",
      "type": "function"
    },
    {
      "inputs": [],
      "name": "symbol",
      "outputs": [
        {
          "internalType": "string",
          "name": "",
          "type": "string"
        }
      ],
      "stateMutability": "view",
      "type": "function"
    },
    {
      "inputs": [
        {
          "internalType": "uint256",
          "name": "index",
          "type": "uint256"
        }
      ],
      "name": "tokenByIndex",
      "outputs": [
        {
          "internalType": "uint256",
          "name": "",
          "type": "uint256"
        }
      ],
      "stateMutability": "view",
      "type": "function"
    },
    {
      "inputs": [
        {
          "internalType": "address",
          "name": "owner",
          "type": "address"
        },
        {
          "internalType": "uint256",
          "name": "index",
          "type": "uint256"
        }
      ],
      "name": "tokenOfOwnerByIndex",
      "outputs": [
        {
          "internalType": "uint256",
          "name": "",
          "type": "uint256"
        }
      ],
      "stateMutability": "view",
      "type": "function"
    },
    {
      "inputs": [
        {
          "internalType": "uint256",
          "name": "tokenId",
          "type": "uint256"
        }
      ],
      "name": "tokenURI",
      "outputs": [
        {
          "internalType": "string",
          "name": "",
          "type": "string"
        }
      ],
      "stateMutability": "view",
      "type": "function"
    },
    {
      "inputs": [],
      "name": "totalSupply",
      "outputs": [
        {
          "internalType": "uint256",
          "name": "",
          "type": "uint256"
        }
      ],
      "stateMutability": "view",
      "type": "function"
    },
    {
      "inputs": [
        {
          "internalType": "address",
          "name": "from",
          "type": "address"
        },
        {
          "internalType": "address",
          "name": "to",
          "type": "address"
        },
        {
          "internalType": "uint256",
          "name": "tokenId",
          "type": "uint256"
        }
      ],
      "name": "transferFrom",
      "outputs": [],
      "stateMutability": "nonpayable",
      "type": "function"
    },
    {
      "inputs": [],
      "name": "unpause",
      "outputs": [],
      "stateMutability": "nonpayable",
      "type": "function"
    }
  ],
  "transactionHash": "0x70600198be5719f2f9b7d967c94bd31e771f530c285cabb7a67d6fbbf4ea8973",
  "args": [
    "Kondux NFT",
    "kNFT",
    "0x348e88f388417Cb86cE2359b4108692ce43c6D85"
  ],
  "numDeployments": 1,
  "solcInputHash": "a65dbcf48b8edbdec278c3ad6823bff4",
  "bytecode": "0x60806040527f9f2df0fed2c77648de5860a4cc508cd0818c85b8b8a1ab4ceeef8d981c8956a6600d553480156200003557600080fd5b5060405162002ede38038062002ede833981016040819052620000589162000208565b808383600262000069838262000324565b50600362000078828262000324565b5050600c805460ff19169055506001600160a01b038116620000e05760405162461bcd60e51b815260206004820181905260248201527f417574686f726974792063616e6e6f74206265207a65726f2061646472657373604482015260640160405180910390fd5b600c8054610100600160a81b0319166101006001600160a01b038416908102919091179091556040519081527f2f658b440c35314f52658ea8a740e05b284cdc84dc9ae01e891f21b8933e7cad9060200160405180910390a150505050620003f0565b634e487b7160e01b600052604160045260246000fd5b600082601f8301126200016b57600080fd5b81516001600160401b038082111562000188576200018862000143565b604051601f8301601f19908116603f01168101908282118183101715620001b357620001b362000143565b81604052838152602092508683858801011115620001d057600080fd5b600091505b83821015620001f45785820183015181830184015290820190620001d5565b600093810190920192909252949350505050565b6000806000606084860312156200021e57600080fd5b83516001600160401b03808211156200023657600080fd5b620002448783880162000159565b945060208601519150808211156200025b57600080fd5b506200026a8682870162000159565b604086015190935090506001600160a01b03811681146200028a57600080fd5b809150509250925092565b600181811c90821680620002aa57607f821691505b602082108103620002cb57634e487b7160e01b600052602260045260246000fd5b50919050565b601f8211156200031f57600081815260208120601f850160051c81016020861015620002fa5750805b601f850160051c820191505b818110156200031b5782815560010162000306565b5050505b505050565b81516001600160401b0381111562000340576200034062000143565b620003588162000351845462000295565b84620002d1565b602080601f831160018114620003905760008415620003775750858301515b600019600386901b1c1916600185901b1785556200031b565b600085815260208120601f198616915b82811015620003c157888601518255948401946001909101908401620003a0565b5085821015620003e05787850151600019600388901b60f8161c191681555b5050505050600190811b01905550565b612ade80620004006000396000f3fe608060405234801561001057600080fd5b50600436106102265760003560e01c80635944c7531161012a57806396ce0795116100bd578063b88d4fde1161008c578063c87b56dd11610071578063c87b56dd146104bd578063d5391393146104d0578063e985e9c5146104d957600080fd5b8063b88d4fde14610492578063bf7e214f146104a557600080fd5b806396ce07951461042e578063a144819414610459578063a22cb4651461046c578063ab51e23a1461047f57600080fd5b806370a08231116100f957806370a08231146103f85780637a9e5e4b1461040b5780638456cb591461041e57806395d89b411461042657600080fd5b80635944c753146103bf5780635c975abb146103d25780636352211e146103dd5780636c0360eb146103f057600080fd5b806323b872dd116101bd578063422627c31161018c57806342966c681161017157806342966c68146103865780634f6ccce71461039957806355f804b3146103ac57600080fd5b8063422627c31461036057806342842e0e1461037357600080fd5b806323b872dd146103005780632a55205a146103135780632f745c59146103455780633f4ba83a1461035857600080fd5b8063081812fc116101f9578063081812fc14610290578063095ea7b3146102bb57806318160ddd146102ce5780631c9ad5b1146102e057600080fd5b806301ffc9a71461022b57806304634d8d14610253578063067b61f21461026857806306fdde031461027b575b600080fd5b61023e610239366004612378565b610515565b60405190151581526020015b60405180910390f35b6102666102613660046123c8565b610526565b005b6102666102763660046123fd565b61053c565b61028361054e565b60405161024a919061246f565b6102a361029e366004612482565b6105e0565b6040516001600160a01b03909116815260200161024a565b6102666102c936600461249b565b610607565b600a545b60405190815260200161024a565b6102d26102ee366004612482565b60106020526000908152604090205481565b61026661030e3660046124c7565b610721565b6103266103213660046123fd565b610799565b604080516001600160a01b03909316835260208301919091520161024a565b6102d261035336600461249b565b610845565b6102666108ed565b6102d261036e366004612482565b6108ff565b6102666103813660046124c7565b61098e565b610266610394366004612482565b6109a9565b6102d26103a7366004612482565b610a20565b6102836103ba366004612594565b610ac4565b6102666103cd3660046125dd565b610ba6565b600c5460ff1661023e565b6102a36103eb366004612482565b610bb9565b610283610c1e565b6102d261040636600461261b565b610cac565b61026661041936600461261b565b610d46565b610266610dc1565b610283610dd1565b600f54610441906001600160601b031681565b6040516001600160601b03909116815260200161024a565b6102d261046736600461249b565b610de0565b61026661047a366004612638565b610e25565b61044161048d366004612676565b610e30565b6102666104a0366004612691565b610ea1565b600c546102a39061010090046001600160a01b031681565b6102836104cb366004612482565b610f1f565b6102d2600d5481565b61023e6104e7366004612711565b6001600160a01b03918216600090815260076020908152604080832093909416825291909152205460ff1690565b600061052082610ffa565b92915050565b61052e611005565b61053882826110cb565b5050565b610544611005565b61053882826111c8565b60606002805461055d9061273f565b80601f01602080910402602001604051908101604052809291908181526020018280546105899061273f565b80156105d65780601f106105ab576101008083540402835291602001916105d6565b820191906000526020600020905b8154815290600101906020018083116105b957829003601f168201915b5050505050905090565b60006105eb82611217565b506000908152600660205260409020546001600160a01b031690565b600061061282610bb9565b9050806001600160a01b0316836001600160a01b0316036106845760405162461bcd60e51b815260206004820152602160248201527f4552433732313a20617070726f76616c20746f2063757272656e74206f776e656044820152603960f91b60648201526084015b60405180910390fd5b336001600160a01b03821614806106a057506106a081336104e7565b6107125760405162461bcd60e51b815260206004820152603d60248201527f4552433732313a20617070726f76652063616c6c6572206973206e6f7420746f60448201527f6b656e206f776e6572206f7220617070726f76656420666f7220616c6c000000606482015260840161067b565b61071c838361127b565b505050565b61072c335b826112e9565b61078e5760405162461bcd60e51b815260206004820152602d60248201527f4552433732313a2063616c6c6572206973206e6f7420746f6b656e206f776e6560448201526c1c881bdc88185c1c1c9bdd9959609a1b606482015260840161067b565b61071c838383611367565b60008281526001602090815260408083208151808301909252546001600160a01b038116808352600160a01b9091046001600160601b031692820192909252829161080e5750604080518082019091526000546001600160a01b0381168252600160a01b90046001600160601b031660208201525b60208101516000906127109061082d906001600160601b03168761278f565b61083791906127ae565b915196919550909350505050565b600061085083610cac565b82106108c45760405162461bcd60e51b815260206004820152602b60248201527f455243373231456e756d657261626c653a206f776e657220696e646578206f7560448201527f74206f6620626f756e6473000000000000000000000000000000000000000000606482015260840161067b565b506001600160a01b03919091166000908152600860209081526040808320938352929052205490565b6108f5611005565b6108fd611554565b565b6000818152600460205260408120546001600160a01b031661097b5760405162461bcd60e51b815260206004820152602f60248201527f4552433732314d657461646174613a2055524920717565727920666f72206e6f60448201526e3732bc34b9ba32b73a103a37b5b2b760891b606482015260840161067b565b5060009081526010602052604090205490565b61071c83838360405180602001604052806000815250610ea1565b6109b233610726565b610a145760405162461bcd60e51b815260206004820152602d60248201527f4552433732313a2063616c6c6572206973206e6f7420746f6b656e206f776e6560448201526c1c881bdc88185c1c1c9bdd9959609a1b606482015260840161067b565b610a1d816115a6565b50565b6000610a2b600a5490565b8210610a9f5760405162461bcd60e51b815260206004820152602c60248201527f455243373231456e756d657261626c653a20676c6f62616c20696e646578206f60448201527f7574206f6620626f756e64730000000000000000000000000000000000000000606482015260840161067b565b600a8281548110610ab257610ab26127d0565b90600052602060002001549050919050565b6060610ace611005565b600e610ada8382612834565b507f5411e8ebf1636d9e83d5fc4900bf80cbac82e8790da2a4c94db4895e889eedf6600e604051610b0b91906128f4565b60405180910390a1600e8054610b209061273f565b80601f0160208091040260200160405190810160405280929190818152602001828054610b4c9061273f565b8015610b995780601f10610b6e57610100808354040283529160200191610b99565b820191906000526020600020905b815481529060010190602001808311610b7c57829003601f168201915b505050505090505b919050565b610bae611005565b61071c8383836115c0565b6000818152600460205260408120546001600160a01b0316806105205760405162461bcd60e51b815260206004820152601860248201527f4552433732313a20696e76616c696420746f6b656e2049440000000000000000604482015260640161067b565b600e8054610c2b9061273f565b80601f0160208091040260200160405190810160405280929190818152602001828054610c579061273f565b8015610ca45780601f10610c7957610100808354040283529160200191610ca4565b820191906000526020600020905b815481529060010190602001808311610c8757829003601f168201915b505050505081565b60006001600160a01b038216610d2a5760405162461bcd60e51b815260206004820152602960248201527f4552433732313a2061646472657373207a65726f206973206e6f74206120766160448201527f6c6964206f776e65720000000000000000000000000000000000000000000000606482015260840161067b565b506001600160a01b031660009081526005602052604090205490565b610d4e611005565b600c80547fffffffffffffffffffffff0000000000000000000000000000000000000000ff166101006001600160a01b038416908102919091179091556040519081527f2f658b440c35314f52658ea8a740e05b284cdc84dc9ae01e891f21b8933e7cad9060200160405180910390a150565b610dc9611005565b6108fd6116ce565b60606003805461055d9061273f565b6000600d54610dee8161170b565b6000610df960115490565b9050610e09601180546001019055565b610e1381856111c8565b610e1d85826117b8565b949350505050565b6105383383836117d2565b6000610e3a611005565b600f80546bffffffffffffffffffffffff19166001600160601b0384169081179091556040519081527f601b85aa9305dbcfbfc81aa2d4b5126c1ce24afdd1bad47d6880e5b6df081f579060200160405180910390a15050600f546001600160601b031690565b610eab33836112e9565b610f0d5760405162461bcd60e51b815260206004820152602d60248201527f4552433732313a2063616c6c6572206973206e6f7420746f6b656e206f776e6560448201526c1c881bdc88185c1c1c9bdd9959609a1b606482015260840161067b565b610f19848484846118a0565b50505050565b6000818152600460205260409020546060906001600160a01b0316610f9e5760405162461bcd60e51b815260206004820152602f60248201527f4552433732314d657461646174613a2055524920717565727920666f72206e6f60448201526e3732bc34b9ba32b73a103a37b5b2b760891b606482015260840161067b565b6000600e8054610fad9061273f565b905011610fc95760405180602001604052806000815250610520565b600e610fd48361191e565b604051602001610fe592919061297f565b60405160208183030381529060405292915050565b6000610520826119be565b600c60019054906101000a90046001600160a01b03166001600160a01b0316630c340a246040518163ffffffff1660e01b8152600401602060405180830381865afa158015611058573d6000803e3d6000fd5b505050506040513d601f19601f8201168201806040525081019061107c9190612a06565b6001600160a01b0316336001600160a01b0316146108fd5760405162461bcd60e51b815260206004820152600c60248201526b15539055551213d49256915160a21b604482015260640161067b565b6127106001600160601b03821611156111395760405162461bcd60e51b815260206004820152602a60248201527f455243323938313a20726f79616c7479206665652077696c6c206578636565646044820152692073616c65507269636560b01b606482015260840161067b565b6001600160a01b03821661118f5760405162461bcd60e51b815260206004820152601960248201527f455243323938313a20696e76616c696420726563656976657200000000000000604482015260640161067b565b604080518082019091526001600160a01b039092168083526001600160601b039091166020909201829052600160a01b90910217600055565b60008281526010602090815260409182902083905581518481529081018390527f4e26044f7fb3724a9375deb74974fdc2f4e07f265efce87f93cfced354258487910160405180910390a15050565b6000818152600460205260409020546001600160a01b0316610a1d5760405162461bcd60e51b815260206004820152601860248201527f4552433732313a20696e76616c696420746f6b656e2049440000000000000000604482015260640161067b565b600081815260066020526040902080546001600160a01b0319166001600160a01b03841690811790915581906112b082610bb9565b6001600160a01b03167f8c5be1e5ebec7d5bd14f71427d1e84f3dd0314c0f7b2291e5b200ac8c7c3b92560405160405180910390a45050565b6000806112f583610bb9565b9050806001600160a01b0316846001600160a01b0316148061133c57506001600160a01b0380821660009081526007602090815260408083209388168352929052205460ff165b80610e1d5750836001600160a01b0316611355846105e0565b6001600160a01b031614949350505050565b826001600160a01b031661137a82610bb9565b6001600160a01b0316146113de5760405162461bcd60e51b815260206004820152602560248201527f4552433732313a207472616e736665722066726f6d20696e636f72726563742060448201526437bbb732b960d91b606482015260840161067b565b6001600160a01b0382166114405760405162461bcd60e51b8152602060048201526024808201527f4552433732313a207472616e7366657220746f20746865207a65726f206164646044820152637265737360e01b606482015260840161067b565b61144d83838360016119e3565b826001600160a01b031661146082610bb9565b6001600160a01b0316146114c45760405162461bcd60e51b815260206004820152602560248201527f4552433732313a207472616e736665722066726f6d20696e636f72726563742060448201526437bbb732b960d91b606482015260840161067b565b600081815260066020908152604080832080546001600160a01b03199081169091556001600160a01b0387811680865260058552838620805460001901905590871680865283862080546001019055868652600490945282852080549092168417909155905184937fddf252ad1be2c89b69c2b068fc378daa952ba7f163c4a11628f55a4df523b3ef91a4505050565b61155c6119f7565b600c805460ff191690557f5db9ee0a495bf2e6ff9c91a7834c1ba4fdd244a5e8aa4e537bd38aeae4b073aa335b6040516001600160a01b03909116815260200160405180910390a1565b6115af81611a49565b600090815260016020526040812055565b6127106001600160601b038216111561162e5760405162461bcd60e51b815260206004820152602a60248201527f455243323938313a20726f79616c7479206665652077696c6c206578636565646044820152692073616c65507269636560b01b606482015260840161067b565b6001600160a01b0382166116845760405162461bcd60e51b815260206004820152601b60248201527f455243323938313a20496e76616c696420706172616d65746572730000000000604482015260640161067b565b6040805180820182526001600160a01b0393841681526001600160601b0392831660208083019182526000968752600190529190942093519051909116600160a01b029116179055565b6116d6611a52565b600c805460ff191660011790557f62e78cea01bee320cd4e420270b5ea74000d11b0c9f74754ebdbfc544b05a2586115893390565b600c54604051634c9ba32160e11b8152336004820152829161010090046001600160a01b031690639937464290602401602060405180830381865afa158015611758573d6000803e3d6000fd5b505050506040513d601f19601f8201168201806040525081019061177c9190612a23565b14610a1d5760405162461bcd60e51b815260206004820152600c60248201526b15539055551213d49256915160a21b604482015260640161067b565b610538828260405180602001604052806000815250611aa5565b816001600160a01b0316836001600160a01b0316036118335760405162461bcd60e51b815260206004820152601960248201527f4552433732313a20617070726f766520746f2063616c6c657200000000000000604482015260640161067b565b6001600160a01b03838116600081815260076020908152604080832094871680845294825291829020805460ff191686151590811790915591519182527f17307eab39ab6107e8899845ad3d59bd9653f200f220920489ca2b5937696c31910160405180910390a3505050565b6118ab848484611367565b6118b784848484611b23565b610f195760405162461bcd60e51b815260206004820152603260248201527f4552433732313a207472616e7366657220746f206e6f6e20455243373231526560448201527131b2b4bb32b91034b6b83632b6b2b73a32b960711b606482015260840161067b565b6060600061192b83611c6f565b600101905060008167ffffffffffffffff81111561194b5761194b612508565b6040519080825280601f01601f191660200182016040528015611975576020820181803683370190505b5090508181016020015b600019017f3031323334353637383961626364656600000000000000000000000000000000600a86061a8153600a850494508461197f57509392505050565b60006001600160e01b0319821663780e9d6360e01b1480610520575061052082611d51565b6119eb611a52565b610f1984848484611d91565b600c5460ff166108fd5760405162461bcd60e51b815260206004820152601460248201527f5061757361626c653a206e6f7420706175736564000000000000000000000000604482015260640161067b565b6115af81611ed9565b600c5460ff16156108fd5760405162461bcd60e51b815260206004820152601060248201527f5061757361626c653a2070617573656400000000000000000000000000000000604482015260640161067b565b611aaf8383611f7c565b611abc6000848484611b23565b61071c5760405162461bcd60e51b815260206004820152603260248201527f4552433732313a207472616e7366657220746f206e6f6e20455243373231526560448201527131b2b4bb32b91034b6b83632b6b2b73a32b960711b606482015260840161067b565b60006001600160a01b0384163b15611c6457604051630a85bd0160e11b81526001600160a01b0385169063150b7a0290611b67903390899088908890600401612a3c565b6020604051808303816000875af1925050508015611ba2575060408051601f3d908101601f19168201909252611b9f91810190612a78565b60015b611c4a573d808015611bd0576040519150601f19603f3d011682016040523d82523d6000602084013e611bd5565b606091505b508051600003611c425760405162461bcd60e51b815260206004820152603260248201527f4552433732313a207472616e7366657220746f206e6f6e20455243373231526560448201527131b2b4bb32b91034b6b83632b6b2b73a32b960711b606482015260840161067b565b805181602001fd5b6001600160e01b031916630a85bd0160e11b149050610e1d565b506001949350505050565b6000807a184f03e93ff9f4daa797ed6e38ed64bf6a1f0100000000000000008310611cb8577a184f03e93ff9f4daa797ed6e38ed64bf6a1f010000000000000000830492506040015b6d04ee2d6d415b85acef81000000008310611ce4576d04ee2d6d415b85acef8100000000830492506020015b662386f26fc100008310611d0257662386f26fc10000830492506010015b6305f5e1008310611d1a576305f5e100830492506008015b6127108310611d2e57612710830492506004015b60648310611d40576064830492506002015b600a83106105205760010192915050565b60006001600160e01b031982166380ac58cd60e01b1480611d8257506001600160e01b03198216635b5e139f60e01b145b80610520575061052082612115565b611d9d8484848461214a565b6001811115611e145760405162461bcd60e51b815260206004820152603560248201527f455243373231456e756d657261626c653a20636f6e736563757469766520747260448201527f616e7366657273206e6f7420737570706f727465640000000000000000000000606482015260840161067b565b816001600160a01b038516611e7057611e6b81600a80546000838152600b60205260408120829055600182018355919091527fc65a7bb8d6351c1cf70c95a316cc6a92839c986682d98bc35f958f4883f9d2a80155565b611e93565b836001600160a01b0316856001600160a01b031614611e9357611e9385826121d2565b6001600160a01b038416611eaf57611eaa8161226f565b611ed2565b846001600160a01b0316846001600160a01b031614611ed257611ed2848261231e565b5050505050565b6000611ee482610bb9565b9050611ef48160008460016119e3565b611efd82610bb9565b600083815260066020908152604080832080546001600160a01b03199081169091556001600160a01b0385168085526005845282852080546000190190558785526004909352818420805490911690555192935084927fddf252ad1be2c89b69c2b068fc378daa952ba7f163c4a11628f55a4df523b3ef908390a45050565b6001600160a01b038216611fd25760405162461bcd60e51b815260206004820181905260248201527f4552433732313a206d696e7420746f20746865207a65726f2061646472657373604482015260640161067b565b6000818152600460205260409020546001600160a01b0316156120375760405162461bcd60e51b815260206004820152601c60248201527f4552433732313a20746f6b656e20616c7265616479206d696e74656400000000604482015260640161067b565b6120456000838360016119e3565b6000818152600460205260409020546001600160a01b0316156120aa5760405162461bcd60e51b815260206004820152601c60248201527f4552433732313a20746f6b656e20616c7265616479206d696e74656400000000604482015260640161067b565b6001600160a01b038216600081815260056020908152604080832080546001019055848352600490915280822080546001600160a01b0319168417905551839291907fddf252ad1be2c89b69c2b068fc378daa952ba7f163c4a11628f55a4df523b3ef908290a45050565b60006001600160e01b0319821663152a902d60e11b148061052057506301ffc9a760e01b6001600160e01b0319831614610520565b6001811115610f19576001600160a01b03841615612190576001600160a01b0384166000908152600560205260408120805483929061218a908490612a95565b90915550505b6001600160a01b03831615610f19576001600160a01b038316600090815260056020526040812080548392906121c7908490612aa8565b909155505050505050565b600060016121df84610cac565b6121e99190612a95565b60008381526009602052604090205490915080821461223c576001600160a01b03841660009081526008602090815260408083208584528252808320548484528184208190558352600990915290208190555b5060009182526009602090815260408084208490556001600160a01b039094168352600881528383209183525290812055565b600a5460009061228190600190612a95565b6000838152600b6020526040812054600a80549394509092849081106122a9576122a96127d0565b9060005260206000200154905080600a83815481106122ca576122ca6127d0565b6000918252602080832090910192909255828152600b9091526040808220849055858252812055600a80548061230257612302612abb565b6001900381819060005260206000200160009055905550505050565b600061232983610cac565b6001600160a01b039093166000908152600860209081526040808320868452825280832085905593825260099052919091209190915550565b6001600160e01b031981168114610a1d57600080fd5b60006020828403121561238a57600080fd5b813561239581612362565b9392505050565b6001600160a01b0381168114610a1d57600080fd5b80356001600160601b0381168114610ba157600080fd5b600080604083850312156123db57600080fd5b82356123e68161239c565b91506123f4602084016123b1565b90509250929050565b6000806040838503121561241057600080fd5b50508035926020909101359150565b60005b8381101561243a578181015183820152602001612422565b50506000910152565b6000815180845261245b81602086016020860161241f565b601f01601f19169290920160200192915050565b6020815260006123956020830184612443565b60006020828403121561249457600080fd5b5035919050565b600080604083850312156124ae57600080fd5b82356124b98161239c565b946020939093013593505050565b6000806000606084860312156124dc57600080fd5b83356124e78161239c565b925060208401356124f78161239c565b929592945050506040919091013590565b634e487b7160e01b600052604160045260246000fd5b600067ffffffffffffffff8084111561253957612539612508565b604051601f8501601f19908116603f0116810190828211818310171561256157612561612508565b8160405280935085815286868601111561257a57600080fd5b858560208301376000602087830101525050509392505050565b6000602082840312156125a657600080fd5b813567ffffffffffffffff8111156125bd57600080fd5b8201601f810184136125ce57600080fd5b610e1d8482356020840161251e565b6000806000606084860312156125f257600080fd5b8335925060208401356126048161239c565b9150612612604085016123b1565b90509250925092565b60006020828403121561262d57600080fd5b81356123958161239c565b6000806040838503121561264b57600080fd5b82356126568161239c565b91506020830135801515811461266b57600080fd5b809150509250929050565b60006020828403121561268857600080fd5b612395826123b1565b600080600080608085870312156126a757600080fd5b84356126b28161239c565b935060208501356126c28161239c565b925060408501359150606085013567ffffffffffffffff8111156126e557600080fd5b8501601f810187136126f657600080fd5b6127058782356020840161251e565b91505092959194509250565b6000806040838503121561272457600080fd5b823561272f8161239c565b9150602083013561266b8161239c565b600181811c9082168061275357607f821691505b60208210810361277357634e487b7160e01b600052602260045260246000fd5b50919050565b634e487b7160e01b600052601160045260246000fd5b60008160001904831182151516156127a9576127a9612779565b500290565b6000826127cb57634e487b7160e01b600052601260045260246000fd5b500490565b634e487b7160e01b600052603260045260246000fd5b601f82111561071c57600081815260208120601f850160051c8101602086101561280d5750805b601f850160051c820191505b8181101561282c57828155600101612819565b505050505050565b815167ffffffffffffffff81111561284e5761284e612508565b6128628161285c845461273f565b846127e6565b602080601f831160018114612897576000841561287f5750858301515b600019600386901b1c1916600185901b17855561282c565b600085815260208120601f198616915b828110156128c6578886015182559484019460019091019084016128a7565b50858210156128e45787850151600019600388901b60f8161c191681555b5050505050600190811b01905550565b60006020808352600084546129088161273f565b80848701526040600180841660008114612929576001811461294357612971565b60ff1985168984015283151560051b890183019550612971565b896000528660002060005b858110156129695781548b820186015290830190880161294e565b8a0184019650505b509398975050505050505050565b600080845461298d8161273f565b600182811680156129a557600181146129ba576129e9565b60ff19841687528215158302870194506129e9565b8860005260208060002060005b858110156129e05781548a8201529084019082016129c7565b50505082870194505b5050505083516129fd81836020880161241f565b01949350505050565b600060208284031215612a1857600080fd5b81516123958161239c565b600060208284031215612a3557600080fd5b5051919050565b60006001600160a01b03808716835280861660208401525083604083015260806060830152612a6e6080830184612443565b9695505050505050565b600060208284031215612a8a57600080fd5b815161239581612362565b8181038181111561052057610520612779565b8082018082111561052057610520612779565b634e487b7160e01b600052603160045260246000fdfea164736f6c6343000810000a",
  "devdoc": {
    "kind": "dev",
    "methods": {
      "approve(address,uint256)": {
        "details": "See {IERC721-approve}."
      },
      "balanceOf(address)": {
        "details": "See {IERC721-balanceOf}."
      },
      "burn(uint256)": {
        "details": "Burns `tokenId`. See {ERC721-_burn}. Requirements: - The caller must own `tokenId` or be an approved operator."
      },
      "getApproved(uint256)": {
        "details": "See {IERC721-getApproved}."
      },
      "isApprovedForAll(address,address)": {
        "details": "See {IERC721-isApprovedForAll}."
      },
      "name()": {
        "details": "See {IERC721Metadata-name}."
      },
      "ownerOf(uint256)": {
        "details": "See {IERC721-ownerOf}."
      },
      "paused()": {
        "details": "Returns true if the contract is paused, and false otherwise."
      },
      "royaltyInfo(uint256,uint256)": {
        "details": "Returns how much royalty is owed and to whom, based on a sale price that may be denominated in any unit of exchange. The royalty amount is denominated and should be paid in that same unit of exchange."
      },
      "safeTransferFrom(address,address,uint256)": {
        "details": "See {IERC721-safeTransferFrom}."
      },
      "safeTransferFrom(address,address,uint256,bytes)": {
        "details": "See {IERC721-safeTransferFrom}."
      },
      "setApprovalForAll(address,bool)": {
        "details": "See {IERC721-setApprovalForAll}."
      },
      "symbol()": {
        "details": "See {IERC721Metadata-symbol}."
      },
      "tokenByIndex(uint256)": {
        "details": "See {IERC721Enumerable-tokenByIndex}."
      },
      "tokenOfOwnerByIndex(address,uint256)": {
        "details": "See {IERC721Enumerable-tokenOfOwnerByIndex}."
      },
      "tokenURI(uint256)": {
        "details": "See {IERC721Metadata-tokenURI}."
      },
      "totalSupply()": {
        "details": "See {IERC721Enumerable-totalSupply}."
      },
      "transferFrom(address,address,uint256)": {
        "details": "See {IERC721-transferFrom}."
      }
    },
    "version": 1
  },
  "userdoc": {
    "kind": "user",
    "methods": {},
    "version": 1
  },
  "storageLayout": {
    "storage": [
      {
        "astId": 3914,
        "contract": "contracts/Kondux_NFT.sol:Kondux",
        "label": "_defaultRoyaltyInfo",
        "offset": 0,
        "slot": "0",
        "type": "t_struct(RoyaltyInfo)3911_storage"
      },
      {
        "astId": 3919,
        "contract": "contracts/Kondux_NFT.sol:Kondux",
        "label": "_tokenRoyaltyInfo",
        "offset": 0,
        "slot": "1",
        "type": "t_mapping(t_uint256,t_struct(RoyaltyInfo)3911_storage)"
      },
      {
        "astId": 2356,
        "contract": "contracts/Kondux_NFT.sol:Kondux",
        "label": "_name",
        "offset": 0,
        "slot": "2",
        "type": "t_string_storage"
      },
      {
        "astId": 2358,
        "contract": "contracts/Kondux_NFT.sol:Kondux",
        "label": "_symbol",
        "offset": 0,
        "slot": "3",
        "type": "t_string_storage"
      },
      {
        "astId": 2362,
        "contract": "contracts/Kondux_NFT.sol:Kondux",
        "label": "_owners",
        "offset": 0,
        "slot": "4",
        "type": "t_mapping(t_uint256,t_address)"
      },
      {
        "astId": 2366,
        "contract": "contracts/Kondux_NFT.sol:Kondux",
        "label": "_balances",
        "offset": 0,
        "slot": "5",
        "type": "t_mapping(t_address,t_uint256)"
      },
      {
        "astId": 2370,
        "contract": "contracts/Kondux_NFT.sol:Kondux",
        "label": "_tokenApprovals",
        "offset": 0,
        "slot": "6",
        "type": "t_mapping(t_uint256,t_address)"
      },
      {
        "astId": 2376,
        "contract": "contracts/Kondux_NFT.sol:Kondux",
        "label": "_operatorApprovals",
        "offset": 0,
        "slot": "7",
        "type": "t_mapping(t_address,t_mapping(t_address,t_bool))"
      },
      {
        "astId": 3454,
        "contract": "contracts/Kondux_NFT.sol:Kondux",
        "label": "_ownedTokens",
        "offset": 0,
        "slot": "8",
        "type": "t_mapping(t_address,t_mapping(t_uint256,t_uint256))"
      },
      {
        "astId": 3458,
        "contract": "contracts/Kondux_NFT.sol:Kondux",
        "label": "_ownedTokensIndex",
        "offset": 0,
        "slot": "9",
        "type": "t_mapping(t_uint256,t_uint256)"
      },
      {
        "astId": 3461,
        "contract": "contracts/Kondux_NFT.sol:Kondux",
        "label": "_allTokens",
        "offset": 0,
        "slot": "10",
        "type": "t_array(t_uint256)dyn_storage"
      },
      {
        "astId": 3465,
        "contract": "contracts/Kondux_NFT.sol:Kondux",
        "label": "_allTokensIndex",
        "offset": 0,
        "slot": "11",
        "type": "t_mapping(t_uint256,t_uint256)"
      },
      {
        "astId": 149,
        "contract": "contracts/Kondux_NFT.sol:Kondux",
        "label": "_paused",
        "offset": 0,
        "slot": "12",
        "type": "t_bool"
      },
      {
        "astId": 10620,
        "contract": "contracts/Kondux_NFT.sol:Kondux",
        "label": "authority",
        "offset": 1,
        "slot": "12",
        "type": "t_contract(IAuthority)10137"
      },
      {
        "astId": 6866,
        "contract": "contracts/Kondux_NFT.sol:Kondux",
        "label": "MINTER_ROLE",
        "offset": 0,
        "slot": "13",
        "type": "t_bytes32"
      },
      {
        "astId": 6868,
        "contract": "contracts/Kondux_NFT.sol:Kondux",
        "label": "baseURI",
        "offset": 0,
        "slot": "14",
        "type": "t_string_storage"
      },
      {
        "astId": 6870,
        "contract": "contracts/Kondux_NFT.sol:Kondux",
        "label": "denominator",
        "offset": 0,
        "slot": "15",
        "type": "t_uint96"
      },
      {
        "astId": 6874,
        "contract": "contracts/Kondux_NFT.sol:Kondux",
        "label": "indexDna",
        "offset": 0,
        "slot": "16",
        "type": "t_mapping(t_uint256,t_uint256)"
      },
      {
        "astId": 6877,
        "contract": "contracts/Kondux_NFT.sol:Kondux",
        "label": "_tokenIdCounter",
        "offset": 0,
        "slot": "17",
        "type": "t_struct(Counter)4453_storage"
      }
    ],
    "types": {
      "t_address": {
        "encoding": "inplace",
        "label": "address",
        "numberOfBytes": "20"
      },
      "t_array(t_uint256)dyn_storage": {
        "base": "t_uint256",
        "encoding": "dynamic_array",
        "label": "uint256[]",
        "numberOfBytes": "32"
      },
      "t_bool": {
        "encoding": "inplace",
        "label": "bool",
        "numberOfBytes": "1"
      },
      "t_bytes32": {
        "encoding": "inplace",
        "label": "bytes32",
        "numberOfBytes": "32"
      },
      "t_contract(IAuthority)10137": {
        "encoding": "inplace",
        "label": "contract IAuthority",
        "numberOfBytes": "20"
      },
      "t_mapping(t_address,t_bool)": {
        "encoding": "mapping",
        "key": "t_address",
        "label": "mapping(address => bool)",
        "numberOfBytes": "32",
        "value": "t_bool"
      },
      "t_mapping(t_address,t_mapping(t_address,t_bool))": {
        "encoding": "mapping",
        "key": "t_address",
        "label": "mapping(address => mapping(address => bool))",
        "numberOfBytes": "32",
        "value": "t_mapping(t_address,t_bool)"
      },
      "t_mapping(t_address,t_mapping(t_uint256,t_uint256))": {
        "encoding": "mapping",
        "key": "t_address",
        "label": "mapping(address => mapping(uint256 => uint256))",
        "numberOfBytes": "32",
        "value": "t_mapping(t_uint256,t_uint256)"
      },
      "t_mapping(t_address,t_uint256)": {
        "encoding": "mapping",
        "key": "t_address",
        "label": "mapping(address => uint256)",
        "numberOfBytes": "32",
        "value": "t_uint256"
      },
      "t_mapping(t_uint256,t_address)": {
        "encoding": "mapping",
        "key": "t_uint256",
        "label": "mapping(uint256 => address)",
        "numberOfBytes": "32",
        "value": "t_address"
      },
      "t_mapping(t_uint256,t_struct(RoyaltyInfo)3911_storage)": {
        "encoding": "mapping",
        "key": "t_uint256",
        "label": "mapping(uint256 => struct ERC2981.RoyaltyInfo)",
        "numberOfBytes": "32",
        "value": "t_struct(RoyaltyInfo)3911_storage"
      },
      "t_mapping(t_uint256,t_uint256)": {
        "encoding": "mapping",
        "key": "t_uint256",
        "label": "mapping(uint256 => uint256)",
        "numberOfBytes": "32",
        "value": "t_uint256"
      },
      "t_string_storage": {
        "encoding": "bytes",
        "label": "string",
        "numberOfBytes": "32"
      },
      "t_struct(Counter)4453_storage": {
        "encoding": "inplace",
        "label": "struct Counters.Counter",
        "members": [
          {
            "astId": 4452,
            "contract": "contracts/Kondux_NFT.sol:Kondux",
            "label": "_value",
            "offset": 0,
            "slot": "0",
            "type": "t_uint256"
          }
        ],
        "numberOfBytes": "32"
      },
      "t_struct(RoyaltyInfo)3911_storage": {
        "encoding": "inplace",
        "label": "struct ERC2981.RoyaltyInfo",
        "members": [
          {
            "astId": 3908,
            "contract": "contracts/Kondux_NFT.sol:Kondux",
            "label": "receiver",
            "offset": 0,
            "slot": "0",
            "type": "t_address"
          },
          {
            "astId": 3910,
            "contract": "contracts/Kondux_NFT.sol:Kondux",
            "label": "royaltyFraction",
            "offset": 20,
            "slot": "0",
            "type": "t_uint96"
          }
        ],
        "numberOfBytes": "32"
      },
      "t_uint256": {
        "encoding": "inplace",
        "label": "uint256",
        "numberOfBytes": "32"
      },
      "t_uint96": {
        "encoding": "inplace",
        "label": "uint96",
        "numberOfBytes": "12"
      }
    }
  }
}