{
  "address": "0x4499976F83d476F4042D0be4D9636ca3f5613371",
  "abi": [
    {
      "inputs": [
        {
          "internalType": "address",
          "name": "_authority",
          "type": "address"
        },
        {
          "internalType": "address",
          "name": "_kondux",
          "type": "address"
        },
        {
          "internalType": "address",
          "name": "_vault",
          "type": "address"
        }
      ],
      "stateMutability": "nonpayable",
      "type": "constructor"
    },
    {
      "anonymous": false,
      "inputs": [
        {
          "indexed": false,
          "internalType": "contract IAuthority",
          "name": "authority",
          "type": "address"
        }
      ],
      "name": "AuthorityUpdated",
      "type": "event"
    },
    {
      "inputs": [],
      "name": "authority",
      "outputs": [
        {
          "internalType": "contract IAuthority",
          "name": "",
          "type": "address"
        }
      ],
      "stateMutability": "view",
      "type": "function"
    },
    {
      "inputs": [],
      "name": "kondux",
      "outputs": [
        {
          "internalType": "contract IKondux",
          "name": "",
          "type": "address"
        }
      ],
      "stateMutability": "view",
      "type": "function"
    },
    {
      "inputs": [],
      "name": "price",
      "outputs": [
        {
          "internalType": "uint256",
          "name": "",
          "type": "uint256"
        }
      ],
      "stateMutability": "view",
      "type": "function"
    },
    {
      "inputs": [],
      "name": "root",
      "outputs": [
        {
          "internalType": "bytes32",
          "name": "",
          "type": "bytes32"
        }
      ],
      "stateMutability": "view",
      "type": "function"
    },
    {
      "inputs": [
        {
          "internalType": "contract IAuthority",
          "name": "_newAuthority",
          "type": "address"
        }
      ],
      "name": "setAuthority",
      "outputs": [],
      "stateMutability": "nonpayable",
      "type": "function"
    },
    {
      "inputs": [
        {
          "internalType": "uint256",
          "name": "_price",
          "type": "uint256"
        }
      ],
      "name": "setPrice",
      "outputs": [],
      "stateMutability": "nonpayable",
      "type": "function"
    },
    {
      "inputs": [
        {
          "internalType": "bytes32",
          "name": "_root",
          "type": "bytes32"
        }
      ],
      "name": "setRoot",
      "outputs": [],
      "stateMutability": "nonpayable",
      "type": "function"
    },
    {
      "inputs": [],
      "name": "treasury",
      "outputs": [
        {
          "internalType": "contract ITreasury",
          "name": "",
          "type": "address"
        }
      ],
      "stateMutability": "view",
      "type": "function"
    },
    {
      "inputs": [],
      "name": "unsafeMint",
      "outputs": [
        {
          "internalType": "uint256",
          "name": "",
          "type": "uint256"
        }
      ],
      "stateMutability": "nonpayable",
      "type": "function"
    },
    {
      "inputs": [
        {
          "internalType": "bytes32[]",
          "name": "_merkleProof",
          "type": "bytes32[]"
        }
      ],
      "name": "whitelistMint",
      "outputs": [
        {
          "internalType": "uint256",
          "name": "",
          "type": "uint256"
        }
      ],
      "stateMutability": "nonpayable",
      "type": "function"
    },
    {
      "stateMutability": "payable",
      "type": "receive"
    }
  ],
  "transactionHash": "0x90f5f6cf7f530a586a6e224767cf7690d38db92ea06c500ebd03800f8caeeebf",
  "args": [
    "0x130025903Ef25390bEE8cC1a8049Cca40f3F3c96",
    "0x2Ed5208970be3169CfCbaBf104E362dfd3706BF7",
    "0x30E869cbA9636B649784a91345EE3D4c1EB08D2c"
  ],
  "numDeployments": 1,
  "solcInputHash": "b665482165c7999b0f19290497a409b3",
  "bytecode": "0x60c060405234801561001057600080fd5b50604051610a2a380380610a2a83398101604081905261002f91610167565b826001600160a01b03811661008b5760405162461bcd60e51b815260206004820181905260248201527f417574686f726974792063616e6e6f74206265207a65726f206164647265737360448201526064015b60405180910390fd5b600080546001600160a01b0319166001600160a01b0383169081179091556040519081527f2f658b440c35314f52658ea8a740e05b284cdc84dc9ae01e891f21b8933e7cad9060200160405180910390a1506001600160a01b0382166101335760405162461bcd60e51b815260206004820152601960248201527f4b6f6e6475782061646472657373206973206e6f7420736574000000000000006044820152606401610082565b6001600160a01b039182166080521660a052506101aa565b80516001600160a01b038116811461016257600080fd5b919050565b60008060006060848603121561017c57600080fd5b6101858461014b565b92506101936020850161014b565b91506101a16040850161014b565b90509250925092565b60805160a0516108476101e36000396000818160bc01526101820152600081816101ce0152818161031d015261054401526108476000f3fe6080604052600436106100b55760003560e01c806391b7f5ed11610069578063bf7e214f1161004e578063bf7e214f1461025b578063dab5f3401461027b578063ebf0c7171461029b57600080fd5b806391b7f5ed14610225578063a035b1fe1461024557600080fd5b806369434b711161009a57806369434b71146101bc5780637a9e5e4b146101f057806388c91f121461021057600080fd5b8063372f657c1461013d57806361d027b31461017057600080fd5b36610138577f00000000000000000000000000000000000000000000000000000000000000006001600160a01b03166398ea5fca346040518263ffffffff1660e01b81526004016000604051808303818588803b15801561011557600080fd5b505af1158015610129573d6000803e3d6000fd5b50505050506101366102b1565b005b600080fd5b34801561014957600080fd5b5061015d610158366004610707565b610395565b6040519081526020015b60405180910390f35b34801561017c57600080fd5b506101a47f000000000000000000000000000000000000000000000000000000000000000081565b6040516001600160a01b039091168152602001610167565b3480156101c857600080fd5b506101a47f000000000000000000000000000000000000000000000000000000000000000081565b3480156101fc57600080fd5b5061013661020b366004610791565b61046d565b34801561021c57600080fd5b5061015d6104e1565b34801561023157600080fd5b506101366102403660046107ae565b6104f2565b34801561025157600080fd5b5061015d60015481565b34801561026757600080fd5b506000546101a4906001600160a01b031681565b34801561028757600080fd5b506101366102963660046107ae565b6104ff565b3480156102a757600080fd5b5061015d60025481565b6001543410156103085760405162461bcd60e51b815260206004820152601160248201527f4e6f7420656e6f7567687420657468657200000000000000000000000000000060448201526064015b60405180910390fd5b604051631bfc324f60e11b81523360048201527f00000000000000000000000000000000000000000000000000000000000000006001600160a01b0316906337f8649e906024016020604051808303816000875af115801561036e573d6000803e3d6000fd5b505050506040513d601f19601f8201168201806040525081019061039291906107c7565b50565b6040516bffffffffffffffffffffffff193360601b166020820152600090819060340160405160208183030381529060405280519060200120905061041184848080602002602001604051908101604052809392919081815260200183836020028082843760009201919091525050600254915084905061050c565b61045d5760405162461bcd60e51b815260206004820152600f60248201527f496e636f72726563742070726f6f66000000000000000000000000000000000060448201526064016102ff565b610465610522565b949350505050565b6104756105b1565b600080547fffffffffffffffffffffffff0000000000000000000000000000000000000000166001600160a01b0383169081179091556040519081527f2f658b440c35314f52658ea8a740e05b284cdc84dc9ae01e891f21b8933e7cad9060200160405180910390a150565b6000806104ec610522565b92915050565b6104fa6105b1565b600155565b6105076105b1565b600255565b6000826105198584610688565b14949350505050565b604051631bfc324f60e11b815233600482015260009081906001600160a01b037f000000000000000000000000000000000000000000000000000000000000000016906337f8649e906024016020604051808303816000875af115801561058d573d6000803e3d6000fd5b505050506040513d601f19601f820116820180604052508101906104ec91906107c7565b60008054906101000a90046001600160a01b03166001600160a01b0316630c340a246040518163ffffffff1660e01b8152600401602060405180830381865afa158015610602573d6000803e3d6000fd5b505050506040513d601f19601f8201168201806040525081019061062691906107e0565b6001600160a01b0316336001600160a01b0316146106865760405162461bcd60e51b815260206004820152600c60248201527f554e415554484f52495a4544000000000000000000000000000000000000000060448201526064016102ff565b565b600081815b84518110156106cd576106b9828683815181106106ac576106ac6107fd565b60200260200101516106d5565b9150806106c581610813565b91505061068d565b509392505050565b60008183106106f1576000828152602084905260409020610700565b60008381526020839052604090205b9392505050565b6000806020838503121561071a57600080fd5b823567ffffffffffffffff8082111561073257600080fd5b818501915085601f83011261074657600080fd5b81358181111561075557600080fd5b8660208260051b850101111561076a57600080fd5b60209290920196919550909350505050565b6001600160a01b038116811461039257600080fd5b6000602082840312156107a357600080fd5b81356107008161077c565b6000602082840312156107c057600080fd5b5035919050565b6000602082840312156107d957600080fd5b5051919050565b6000602082840312156107f257600080fd5b81516107008161077c565b634e487b7160e01b600052603260045260246000fd5b60006001820161083357634e487b7160e01b600052601160045260246000fd5b506001019056fea164736f6c6343000810000a",
  "devdoc": {
    "kind": "dev",
    "methods": {},
    "version": 1
  },
  "userdoc": {
    "kind": "user",
    "methods": {},
    "version": 1
  },
  "storageLayout": {
    "storage": [
      {
        "astId": 8697,
        "contract": "contracts/Minter.sol:Minter",
        "label": "authority",
        "offset": 0,
        "slot": "0",
        "type": "t_contract(IAuthority)8266"
      },
      {
        "astId": 6933,
        "contract": "contracts/Minter.sol:Minter",
        "label": "price",
        "offset": 0,
        "slot": "1",
        "type": "t_uint256"
      },
      {
        "astId": 6935,
        "contract": "contracts/Minter.sol:Minter",
        "label": "root",
        "offset": 0,
        "slot": "2",
        "type": "t_bytes32"
      }
    ],
    "types": {
      "t_bytes32": {
        "encoding": "inplace",
        "label": "bytes32",
        "numberOfBytes": "32"
      },
      "t_contract(IAuthority)8266": {
        "encoding": "inplace",
        "label": "contract IAuthority",
        "numberOfBytes": "20"
      },
      "t_uint256": {
        "encoding": "inplace",
        "label": "uint256",
        "numberOfBytes": "32"
      }
    }
  }
}