{
  "address": "0x076C885dd82FE597dE90790d458e02533c140B86",
  "abi": [
    {
      "inputs": [
        {
          "internalType": "address",
          "name": "_authority",
          "type": "address"
        },
        {
          "internalType": "address",
          "name": "_konduxFounders",
          "type": "address"
        },
        {
          "internalType": "address",
          "name": "_kondux",
          "type": "address"
        },
        {
          "internalType": "address",
          "name": "_vault",
          "type": "address"
        }
      ],
      "stateMutability": "nonpayable",
      "type": "constructor"
    },
    {
      "anonymous": false,
      "inputs": [
        {
          "indexed": false,
          "internalType": "contract IAuthority",
          "name": "authority",
          "type": "address"
        }
      ],
      "name": "AuthorityUpdated",
      "type": "event"
    },
    {
      "inputs": [],
      "name": "authority",
      "outputs": [
        {
          "internalType": "contract IAuthority",
          "name": "",
          "type": "address"
        }
      ],
      "stateMutability": "view",
      "type": "function"
    },
    {
      "inputs": [
        {
          "internalType": "address",
          "name": "",
          "type": "address"
        }
      ],
      "name": "founders020Claimed",
      "outputs": [
        {
          "internalType": "bool",
          "name": "",
          "type": "bool"
        }
      ],
      "stateMutability": "view",
      "type": "function"
    },
    {
      "inputs": [
        {
          "internalType": "address",
          "name": "",
          "type": "address"
        }
      ],
      "name": "founders025Claimed",
      "outputs": [
        {
          "internalType": "bool",
          "name": "",
          "type": "bool"
        }
      ],
      "stateMutability": "view",
      "type": "function"
    },
    {
      "inputs": [
        {
          "internalType": "address",
          "name": "",
          "type": "address"
        }
      ],
      "name": "freeFoundersClaimed",
      "outputs": [
        {
          "internalType": "bool",
          "name": "",
          "type": "bool"
        }
      ],
      "stateMutability": "view",
      "type": "function"
    },
    {
      "inputs": [
        {
          "internalType": "address",
          "name": "",
          "type": "address"
        }
      ],
      "name": "freeKNFTClaimed",
      "outputs": [
        {
          "internalType": "bool",
          "name": "",
          "type": "bool"
        }
      ],
      "stateMutability": "view",
      "type": "function"
    },
    {
      "inputs": [],
      "name": "kondux",
      "outputs": [
        {
          "internalType": "contract IKondux",
          "name": "",
          "type": "address"
        }
      ],
      "stateMutability": "view",
      "type": "function"
    },
    {
      "inputs": [],
      "name": "konduxFounders",
      "outputs": [
        {
          "internalType": "contract IKonduxFounders",
          "name": "",
          "type": "address"
        }
      ],
      "stateMutability": "view",
      "type": "function"
    },
    {
      "inputs": [],
      "name": "pausedFounders020",
      "outputs": [
        {
          "internalType": "bool",
          "name": "",
          "type": "bool"
        }
      ],
      "stateMutability": "view",
      "type": "function"
    },
    {
      "inputs": [],
      "name": "pausedFounders025",
      "outputs": [
        {
          "internalType": "bool",
          "name": "",
          "type": "bool"
        }
      ],
      "stateMutability": "view",
      "type": "function"
    },
    {
      "inputs": [],
      "name": "pausedFreeFounders",
      "outputs": [
        {
          "internalType": "bool",
          "name": "",
          "type": "bool"
        }
      ],
      "stateMutability": "view",
      "type": "function"
    },
    {
      "inputs": [],
      "name": "pausedFreeKNFT",
      "outputs": [
        {
          "internalType": "bool",
          "name": "",
          "type": "bool"
        }
      ],
      "stateMutability": "view",
      "type": "function"
    },
    {
      "inputs": [],
      "name": "pausedWhitelist",
      "outputs": [
        {
          "internalType": "bool",
          "name": "",
          "type": "bool"
        }
      ],
      "stateMutability": "view",
      "type": "function"
    },
    {
      "inputs": [],
      "name": "priceFounders020",
      "outputs": [
        {
          "internalType": "uint256",
          "name": "",
          "type": "uint256"
        }
      ],
      "stateMutability": "view",
      "type": "function"
    },
    {
      "inputs": [],
      "name": "priceFounders025",
      "outputs": [
        {
          "internalType": "uint256",
          "name": "",
          "type": "uint256"
        }
      ],
      "stateMutability": "view",
      "type": "function"
    },
    {
      "inputs": [],
      "name": "priceFreeFounders",
      "outputs": [
        {
          "internalType": "uint256",
          "name": "",
          "type": "uint256"
        }
      ],
      "stateMutability": "view",
      "type": "function"
    },
    {
      "inputs": [],
      "name": "priceFreeKNFT",
      "outputs": [
        {
          "internalType": "uint256",
          "name": "",
          "type": "uint256"
        }
      ],
      "stateMutability": "view",
      "type": "function"
    },
    {
      "inputs": [],
      "name": "rootFounders020",
      "outputs": [
        {
          "internalType": "bytes32",
          "name": "",
          "type": "bytes32"
        }
      ],
      "stateMutability": "view",
      "type": "function"
    },
    {
      "inputs": [],
      "name": "rootFounders025",
      "outputs": [
        {
          "internalType": "bytes32",
          "name": "",
          "type": "bytes32"
        }
      ],
      "stateMutability": "view",
      "type": "function"
    },
    {
      "inputs": [],
      "name": "rootFreeFounders",
      "outputs": [
        {
          "internalType": "bytes32",
          "name": "",
          "type": "bytes32"
        }
      ],
      "stateMutability": "view",
      "type": "function"
    },
    {
      "inputs": [],
      "name": "rootFreeKNFT",
      "outputs": [
        {
          "internalType": "bytes32",
          "name": "",
          "type": "bytes32"
        }
      ],
      "stateMutability": "view",
      "type": "function"
    },
    {
      "inputs": [
        {
          "internalType": "contract IAuthority",
          "name": "_newAuthority",
          "type": "address"
        }
      ],
      "name": "setAuthority",
      "outputs": [],
      "stateMutability": "nonpayable",
      "type": "function"
    },
    {
      "inputs": [
        {
          "internalType": "address",
          "name": "_konduxFounders",
          "type": "address"
        }
      ],
      "name": "setKonduxFounders",
      "outputs": [],
      "stateMutability": "nonpayable",
      "type": "function"
    },
    {
      "inputs": [
        {
          "internalType": "bool",
          "name": "_paused",
          "type": "bool"
        }
      ],
      "name": "setPausedFounders020",
      "outputs": [],
      "stateMutability": "nonpayable",
      "type": "function"
    },
    {
      "inputs": [
        {
          "internalType": "bool",
          "name": "_paused",
          "type": "bool"
        }
      ],
      "name": "setPausedFounders025",
      "outputs": [],
      "stateMutability": "nonpayable",
      "type": "function"
    },
    {
      "inputs": [
        {
          "internalType": "bool",
          "name": "_paused",
          "type": "bool"
        }
      ],
      "name": "setPausedFreeFounders",
      "outputs": [],
      "stateMutability": "nonpayable",
      "type": "function"
    },
    {
      "inputs": [
        {
          "internalType": "bool",
          "name": "_paused",
          "type": "bool"
        }
      ],
      "name": "setPausedFreeKNFT",
      "outputs": [],
      "stateMutability": "nonpayable",
      "type": "function"
    },
    {
      "inputs": [
        {
          "internalType": "uint256",
          "name": "_price",
          "type": "uint256"
        }
      ],
      "name": "setPriceFounders020",
      "outputs": [],
      "stateMutability": "nonpayable",
      "type": "function"
    },
    {
      "inputs": [
        {
          "internalType": "uint256",
          "name": "_price",
          "type": "uint256"
        }
      ],
      "name": "setPriceFounders025",
      "outputs": [],
      "stateMutability": "nonpayable",
      "type": "function"
    },
    {
      "inputs": [
        {
          "internalType": "uint256",
          "name": "_price",
          "type": "uint256"
        }
      ],
      "name": "setPriceFreeFounders",
      "outputs": [],
      "stateMutability": "nonpayable",
      "type": "function"
    },
    {
      "inputs": [
        {
          "internalType": "uint256",
          "name": "_price",
          "type": "uint256"
        }
      ],
      "name": "setPriceFreeKNFT",
      "outputs": [],
      "stateMutability": "nonpayable",
      "type": "function"
    },
    {
      "inputs": [
        {
          "internalType": "bytes32",
          "name": "_rootFounders020",
          "type": "bytes32"
        }
      ],
      "name": "setRootFounders020",
      "outputs": [],
      "stateMutability": "nonpayable",
      "type": "function"
    },
    {
      "inputs": [
        {
          "internalType": "bytes32",
          "name": "_rootFounders025",
          "type": "bytes32"
        }
      ],
      "name": "setRootFounders025",
      "outputs": [],
      "stateMutability": "nonpayable",
      "type": "function"
    },
    {
      "inputs": [
        {
          "internalType": "bytes32",
          "name": "_rootFreeFounders",
          "type": "bytes32"
        }
      ],
      "name": "setRootFreeFounders",
      "outputs": [],
      "stateMutability": "nonpayable",
      "type": "function"
    },
    {
      "inputs": [
        {
          "internalType": "bytes32",
          "name": "_rootFreeKNFT",
          "type": "bytes32"
        }
      ],
      "name": "setRootFreeKNFT",
      "outputs": [],
      "stateMutability": "nonpayable",
      "type": "function"
    },
    {
      "inputs": [
        {
          "internalType": "address",
          "name": "_treasury",
          "type": "address"
        }
      ],
      "name": "setTreasury",
      "outputs": [],
      "stateMutability": "nonpayable",
      "type": "function"
    },
    {
      "inputs": [],
      "name": "treasury",
      "outputs": [
        {
          "internalType": "contract ITreasury",
          "name": "",
          "type": "address"
        }
      ],
      "stateMutability": "view",
      "type": "function"
    },
    {
      "inputs": [
        {
          "internalType": "address",
          "name": "_address",
          "type": "address"
        }
      ],
      "name": "unclaimAddress",
      "outputs": [],
      "stateMutability": "nonpayable",
      "type": "function"
    },
    {
      "inputs": [
        {
          "internalType": "bytes32[]",
          "name": "_merkleProof",
          "type": "bytes32[]"
        }
      ],
      "name": "whitelistMintFounders020",
      "outputs": [
        {
          "internalType": "uint256",
          "name": "",
          "type": "uint256"
        }
      ],
      "stateMutability": "payable",
      "type": "function"
    },
    {
      "inputs": [
        {
          "internalType": "bytes32[]",
          "name": "_merkleProof",
          "type": "bytes32[]"
        }
      ],
      "name": "whitelistMintFounders025",
      "outputs": [
        {
          "internalType": "uint256",
          "name": "",
          "type": "uint256"
        }
      ],
      "stateMutability": "payable",
      "type": "function"
    },
    {
      "inputs": [
        {
          "internalType": "bytes32[]",
          "name": "_merkleProof",
          "type": "bytes32[]"
        }
      ],
      "name": "whitelistMintFreeFounders",
      "outputs": [
        {
          "internalType": "uint256",
          "name": "",
          "type": "uint256"
        }
      ],
      "stateMutability": "nonpayable",
      "type": "function"
    },
    {
      "inputs": [
        {
          "internalType": "bytes32[]",
          "name": "_merkleProof",
          "type": "bytes32[]"
        }
      ],
      "name": "whitelistMintFreeKNFT",
      "outputs": [
        {
          "internalType": "uint256",
          "name": "",
          "type": "uint256"
        }
      ],
      "stateMutability": "nonpayable",
      "type": "function"
    }
  ],
  "transactionHash": "0x3cc3a9e318e82aa4a5a84ecba33920295e19edec7105bb21c03bdfdd048cf775",
  "args": [
    "0xEB98C8Df177D4281Fb07A67bb64ea490c7a0652d",
    "0xffeE09f2A6D4a9e54D421704dA23aD13450714C6",
    "0x4c2612cb4cD8Fb6B94059450157c5E3aF836c878",
    "0x09504AEb8EC21A3ac9F47a0C6216AC4C45d09d88"
  ],
  "numDeployments": 2,
  "solcInputHash": "c87bede77a08d32edccee865122bbc3f",
  "bytecode": "0x60806040523480156200001157600080fd5b506040516200189f3803806200189f83398101604081905262000034916200027c565b836001600160a01b038116620000915760405162461bcd60e51b815260206004820181905260248201527f417574686f726974792063616e6e6f74206265207a65726f206164647265737360448201526064015b60405180910390fd5b600080546001600160a01b0319166001600160a01b0383169081179091556040519081527f2f658b440c35314f52658ea8a740e05b284cdc84dc9ae01e891f21b8933e7cad9060200160405180910390a1506001600160a01b0383166200013b5760405162461bcd60e51b815260206004820152601960248201527f4b6f6e6475782061646472657373206973206e6f742073657400000000000000604482015260640162000088565b600a80546001600160a01b0319166001600160a01b03858116919091179091558216620001ab5760405162461bcd60e51b815260206004820152601960248201527f4b6f6e6475782061646472657373206973206e6f742073657400000000000000604482015260640162000088565b600980546001600160a01b038085166501000000000002600160281b600160c81b0319909216919091179091558116620002285760405162461bcd60e51b815260206004820152601860248201527f5661756c742061646472657373206973206e6f74207365740000000000000000604482015260640162000088565b600b80546001600160a01b0319166001600160a01b039290921691909117905550506009805464ffffffff001916905550620002d9565b80516001600160a01b03811681146200027757600080fd5b919050565b600080600080608085870312156200029357600080fd5b6200029e856200025f565b9350620002ae602086016200025f565b9250620002be604086016200025f565b9150620002ce606086016200025f565b905092959194509250565b6115b680620002e96000396000f3fe6080604052600436106102c65760003560e01c80637a9e5e4b11610179578063cb4abdbb116100d6578063d9d40bc21161008a578063f9aacab611610064578063f9aacab6146107ce578063fa3aa509146107ee578063fb0d66aa1461080e57600080fd5b8063d9d40bc214610774578063f0f4426014610794578063f72ec829146107b457600080fd5b8063ce602ec9116100bb578063ce602ec9146106dd578063cfe9f2be14610748578063d9c456c31461075e57600080fd5b8063cb4abdbb146106a7578063cc0eb867146106c757600080fd5b8063b028a6241161012d578063bf7e214f11610112578063bf7e214f14610671578063c7f6a1ee14610691578063cadff1ec146105e157600080fd5b8063b028a62414610621578063b56971f01461065157600080fd5b8063a236acf51161015e578063a236acf5146105cb578063a78a1970146105e1578063ab389f341461060157600080fd5b80637a9e5e4b1461058b5780638e017b86146105ab57600080fd5b80636097b098116102275780636d8b8276116101db5780636ee25f4f116101c05780636ee25f4f1461053657806375b08092146105495780637778564e1461056957600080fd5b80636d8b8276146105035780636d8f759c1461052357600080fd5b8063632cdd0c1161020c578063632cdd0c1461049457806369434b71146104c45780636b828a2d146104ed57600080fd5b80636097b0981461043c57806361d027b31461045c57600080fd5b80633e15c0e61161027e57806353a7af501161026357806353a7af50146103dd5780635583cad2146103fc5780636051df2a1461041c57600080fd5b80633e15c0e6146103975780634e6c6fe9146103ad57600080fd5b806329b03082116102af57806329b03082146103165780633ca173ec146103565780633d2c242a1461037657600080fd5b80630fc461cc146102cb57806326172bb1146102f4575b600080fd5b3480156102d757600080fd5b506102e160055481565b6040519081526020015b60405180910390f35b34801561030057600080fd5b5061031461030f36600461144d565b61082e565b005b34801561032257600080fd5b5061034661033136600461148b565b600d6020526000908152604090205460ff1681565b60405190151581526020016102eb565b34801561036257600080fd5b5061031461037136600461148b565b610856565b34801561038257600080fd5b50600954610346906301000000900460ff1681565b3480156103a357600080fd5b506102e160085481565b3480156103b957600080fd5b506103466103c836600461148b565b600e6020526000908152604090205460ff1681565b3480156103e957600080fd5b5060095461034690610100900460ff1681565b34801561040857600080fd5b506103146104173660046114a8565b61088d565b34801561042857600080fd5b506103146104373660046114a8565b6108a3565b34801561044857600080fd5b506103146104573660046114a8565b6108b0565b34801561046857600080fd5b50600b5461047c906001600160a01b031681565b6040516001600160a01b0390911681526020016102eb565b3480156104a057600080fd5b506103466104af36600461148b565b600f6020526000908152604090205460ff1681565b3480156104d057600080fd5b5060095461047c906501000000000090046001600160a01b031681565b3480156104f957600080fd5b506102e160035481565b34801561050f57600080fd5b5061031461051e36600461144d565b6108bd565b6102e16105313660046114c1565b6108df565b6102e16105443660046114c1565b610b35565b34801561055557600080fd5b506009546103469062010000900460ff1681565b34801561057557600080fd5b5060095461034690640100000000900460ff1681565b34801561059757600080fd5b506103146105a636600461148b565b610d7f565b3480156105b757600080fd5b506103146105c63660046114a8565b610de8565b3480156105d757600080fd5b506102e160065481565b3480156105ed57600080fd5b506103146105fc3660046114a8565b610df5565b34801561060d57600080fd5b5061031461061c3660046114a8565b610e02565b34801561062d57600080fd5b5061034661063c36600461148b565b600c6020526000908152604090205460ff1681565b34801561065d57600080fd5b506102e161066c3660046114c1565b610e0f565b34801561067d57600080fd5b5060005461047c906001600160a01b031681565b34801561069d57600080fd5b506102e160025481565b3480156106b357600080fd5b506103146106c236600461144d565b610f98565b3480156106d357600080fd5b506102e160045481565b3480156106e957600080fd5b506103146106f836600461148b565b6001600160a01b03166000908152600c60209081526040808320805460ff19908116909155600d8352818420805482169055600e8352818420805482169055600f90925290912080549091169055565b34801561075457600080fd5b506102e160015481565b34801561076a57600080fd5b506102e160075481565b34801561078057600080fd5b506102e161078f3660046114c1565b610fbc565b3480156107a057600080fd5b506103146107af36600461148b565b611146565b3480156107c057600080fd5b506009546103469060ff1681565b3480156107da57600080fd5b506103146107e936600461144d565b61117d565b3480156107fa57600080fd5b50600a5461047c906001600160a01b031681565b34801561081a57600080fd5b506103146108293660046114a8565b6111a3565b6108366111b0565b600980549115156401000000000264ff0000000019909216919091179055565b61085e6111b0565b600a805473ffffffffffffffffffffffffffffffffffffffff19166001600160a01b0392909216919091179055565b6108956111b0565b61089e81611287565b600655565b6108ab6111b0565b600555565b6108b86111b0565b600855565b6108c56111b0565b600980549115156101000261ff0019909216919091179055565b600954600090610100900460ff161561093f5760405162461bcd60e51b815260206004820152601e60248201527f466f756e6465727320303230206d696e74696e6720697320706175736564000060448201526064015b60405180910390fd5b6001543410156109915760405162461bcd60e51b815260206004820152601160248201527f4e6f7420656e6f756768742065746865720000000000000000000000000000006044820152606401610936565b336000908152600c602052604090205460ff16156109e35760405162461bcd60e51b815260206004820152600f60248201526e105b1c9958591e4818db185a5b5959608a1b6044820152606401610936565b600b60009054906101000a90046001600160a01b03166001600160a01b03166398ea5fca346040518263ffffffff1660e01b81526004016000604051808303818588803b158015610a3357600080fd5b505af1158015610a47573d6000803e3d6000fd5b50506040516bffffffffffffffffffffffff193360601b166020820152600093506034019150610a749050565b604051602081830303815290604052805190602001209050610acd8484808060200260200160405190810160405280939291908181526020018383602002808284376000920191909152505060065491508490506112e4565b610b0b5760405162461bcd60e51b815260206004820152600f60248201526e24b731b7b93932b1ba10383937b7b360891b6044820152606401610936565b336000908152600c60205260409020805460ff19166001179055610b2d6112fa565b949350505050565b60095460009062010000900460ff1615610b915760405162461bcd60e51b815260206004820152601e60248201527f466f756e6465727320303235206d696e74696e672069732070617573656400006044820152606401610936565b600254341015610be35760405162461bcd60e51b815260206004820152601160248201527f4e6f7420656e6f756768742065746865720000000000000000000000000000006044820152606401610936565b336000908152600d602052604090205460ff1615610c355760405162461bcd60e51b815260206004820152600f60248201526e105b1c9958591e4818db185a5b5959608a1b6044820152606401610936565b600b60009054906101000a90046001600160a01b03166001600160a01b03166398ea5fca346040518263ffffffff1660e01b81526004016000604051808303818588803b158015610c8557600080fd5b505af1158015610c99573d6000803e3d6000fd5b50506040516bffffffffffffffffffffffff193360601b166020820152600093506034019150610cc69050565b604051602081830303815290604052805190602001209050610d1f8484808060200260200160405190810160405280939291908181526020018383602002808284376000920191909152505060075491508490506112e4565b610d5d5760405162461bcd60e51b815260206004820152600f60248201526e24b731b7b93932b1ba10383937b7b360891b6044820152606401610936565b336000908152600d60205260409020805460ff19166001179055610b2d6112fa565b610d876111b0565b6000805473ffffffffffffffffffffffffffffffffffffffff19166001600160a01b0383169081179091556040519081527f2f658b440c35314f52658ea8a740e05b284cdc84dc9ae01e891f21b8933e7cad9060200160405180910390a150565b610df06111b0565b600755565b610dfd6111b0565b600355565b610e0a6111b0565b600255565b6009546000906301000000900460ff1615610e6c5760405162461bcd60e51b815260206004820152601f60248201527f4672656520466f756e64657273206d696e74696e6720697320706175736564006044820152606401610936565b336000908152600e602052604090205460ff1615610ebe5760405162461bcd60e51b815260206004820152600f60248201526e105b1c9958591e4818db185a5b5959608a1b6044820152606401610936565b6040516bffffffffffffffffffffffff193360601b166020820152600090603401604051602081830303815290604052805190602001209050610f388484808060200260200160405190810160405280939291908181526020018383602002808284376000920191909152505060055491508490506112e4565b610f765760405162461bcd60e51b815260206004820152600f60248201526e24b731b7b93932b1ba10383937b7b360891b6044820152606401610936565b336000908152600e60205260409020805460ff19166001179055610b2d6112fa565b610fa06111b0565b60098054911515620100000262ff000019909216919091179055565b600954600090640100000000900460ff161561101a5760405162461bcd60e51b815260206004820152601b60248201527f46726565204b4e4654206d696e74696e672069732070617573656400000000006044820152606401610936565b336000908152600f602052604090205460ff161561106c5760405162461bcd60e51b815260206004820152600f60248201526e105b1c9958591e4818db185a5b5959608a1b6044820152606401610936565b6040516bffffffffffffffffffffffff193360601b1660208201526000906034016040516020818303038152906040528051906020012090506110e68484808060200260200160405190810160405280939291908181526020018383602002808284376000920191909152505060085491508490506112e4565b6111245760405162461bcd60e51b815260206004820152600f60248201526e24b731b7b93932b1ba10383937b7b360891b6044820152606401610936565b336000908152600f60205260409020805460ff19166001179055610b2d611374565b61114e6111b0565b600b805473ffffffffffffffffffffffffffffffffffffffff19166001600160a01b0392909216919091179055565b6111856111b0565b6009805491151563010000000263ff00000019909216919091179055565b6111ab6111b0565b600155565b60008054906101000a90046001600160a01b03166001600160a01b0316630c340a246040518163ffffffff1660e01b8152600401602060405180830381865afa158015611201573d6000803e3d6000fd5b505050506040513d601f19601f820116820180604052508101906112259190611536565b6001600160a01b0316336001600160a01b0316146112855760405162461bcd60e51b815260206004820152600c60248201527f554e415554484f52495a454400000000000000000000000000000000000000006044820152606401610936565b565b6112e18160405160240161129d91815260200190565b60408051601f198184030181529190526020810180517bffffffffffffffffffffffffffffffffffffffffffffffffffffffff166327b7cf8560e01b1790526113b8565b50565b6000826112f185846113d9565b14949350505050565b600a546040516340d097c360e01b815233600482015260009182916001600160a01b03909116906340d097c3906024015b6020604051808303816000875af115801561134a573d6000803e3d6000fd5b505050506040513d601f19601f8201168201806040525081019061136e9190611553565b92915050565b600954604051632851206560e21b8152336004820152600060248201819052918291650100000000009091046001600160a01b03169063a14481949060440161132b565b80516a636f6e736f6c652e6c6f67602083016000808483855afa5050505050565b600081815b84518110156114455760008582815181106113fb576113fb61156c565b602002602001015190508083116114215760008381526020829052604090209250611432565b600081815260208490526040902092505b508061143d81611582565b9150506113de565b509392505050565b60006020828403121561145f57600080fd5b8135801515811461146f57600080fd5b9392505050565b6001600160a01b03811681146112e157600080fd5b60006020828403121561149d57600080fd5b813561146f81611476565b6000602082840312156114ba57600080fd5b5035919050565b600080602083850312156114d457600080fd5b823567ffffffffffffffff808211156114ec57600080fd5b818501915085601f83011261150057600080fd5b81358181111561150f57600080fd5b8660208260051b850101111561152457600080fd5b60209290920196919550909350505050565b60006020828403121561154857600080fd5b815161146f81611476565b60006020828403121561156557600080fd5b5051919050565b634e487b7160e01b600052603260045260246000fd5b6000600182016115a257634e487b7160e01b600052601160045260246000fd5b506001019056fea164736f6c6343000810000a",
  "devdoc": {
    "kind": "dev",
    "methods": {},
    "version": 1
  },
  "userdoc": {
    "kind": "user",
    "methods": {},
    "version": 1
  },
  "storageLayout": {
    "storage": [
      {
        "astId": 9058,
        "contract": "contracts/Minter_Founders.sol:MinterFounders",
        "label": "authority",
        "offset": 0,
        "slot": "0",
        "type": "t_contract(IAuthority)8580"
      },
      {
        "astId": 6699,
        "contract": "contracts/Minter_Founders.sol:MinterFounders",
        "label": "priceFounders020",
        "offset": 0,
        "slot": "1",
        "type": "t_uint256"
      },
      {
        "astId": 6701,
        "contract": "contracts/Minter_Founders.sol:MinterFounders",
        "label": "priceFounders025",
        "offset": 0,
        "slot": "2",
        "type": "t_uint256"
      },
      {
        "astId": 6703,
        "contract": "contracts/Minter_Founders.sol:MinterFounders",
        "label": "priceFreeKNFT",
        "offset": 0,
        "slot": "3",
        "type": "t_uint256"
      },
      {
        "astId": 6705,
        "contract": "contracts/Minter_Founders.sol:MinterFounders",
        "label": "priceFreeFounders",
        "offset": 0,
        "slot": "4",
        "type": "t_uint256"
      },
      {
        "astId": 6707,
        "contract": "contracts/Minter_Founders.sol:MinterFounders",
        "label": "rootFreeFounders",
        "offset": 0,
        "slot": "5",
        "type": "t_bytes32"
      },
      {
        "astId": 6709,
        "contract": "contracts/Minter_Founders.sol:MinterFounders",
        "label": "rootFounders020",
        "offset": 0,
        "slot": "6",
        "type": "t_bytes32"
      },
      {
        "astId": 6711,
        "contract": "contracts/Minter_Founders.sol:MinterFounders",
        "label": "rootFounders025",
        "offset": 0,
        "slot": "7",
        "type": "t_bytes32"
      },
      {
        "astId": 6713,
        "contract": "contracts/Minter_Founders.sol:MinterFounders",
        "label": "rootFreeKNFT",
        "offset": 0,
        "slot": "8",
        "type": "t_bytes32"
      },
      {
        "astId": 6715,
        "contract": "contracts/Minter_Founders.sol:MinterFounders",
        "label": "pausedWhitelist",
        "offset": 0,
        "slot": "9",
        "type": "t_bool"
      },
      {
        "astId": 6717,
        "contract": "contracts/Minter_Founders.sol:MinterFounders",
        "label": "pausedFounders020",
        "offset": 1,
        "slot": "9",
        "type": "t_bool"
      },
      {
        "astId": 6719,
        "contract": "contracts/Minter_Founders.sol:MinterFounders",
        "label": "pausedFounders025",
        "offset": 2,
        "slot": "9",
        "type": "t_bool"
      },
      {
        "astId": 6721,
        "contract": "contracts/Minter_Founders.sol:MinterFounders",
        "label": "pausedFreeFounders",
        "offset": 3,
        "slot": "9",
        "type": "t_bool"
      },
      {
        "astId": 6723,
        "contract": "contracts/Minter_Founders.sol:MinterFounders",
        "label": "pausedFreeKNFT",
        "offset": 4,
        "slot": "9",
        "type": "t_bool"
      },
      {
        "astId": 6726,
        "contract": "contracts/Minter_Founders.sol:MinterFounders",
        "label": "kondux",
        "offset": 5,
        "slot": "9",
        "type": "t_contract(IKondux)8641"
      },
      {
        "astId": 6729,
        "contract": "contracts/Minter_Founders.sol:MinterFounders",
        "label": "konduxFounders",
        "offset": 0,
        "slot": "10",
        "type": "t_contract(IKonduxFounders)8693"
      },
      {
        "astId": 6732,
        "contract": "contracts/Minter_Founders.sol:MinterFounders",
        "label": "treasury",
        "offset": 0,
        "slot": "11",
        "type": "t_contract(ITreasury)8947"
      },
      {
        "astId": 6736,
        "contract": "contracts/Minter_Founders.sol:MinterFounders",
        "label": "founders020Claimed",
        "offset": 0,
        "slot": "12",
        "type": "t_mapping(t_address,t_bool)"
      },
      {
        "astId": 6740,
        "contract": "contracts/Minter_Founders.sol:MinterFounders",
        "label": "founders025Claimed",
        "offset": 0,
        "slot": "13",
        "type": "t_mapping(t_address,t_bool)"
      },
      {
        "astId": 6744,
        "contract": "contracts/Minter_Founders.sol:MinterFounders",
        "label": "freeFoundersClaimed",
        "offset": 0,
        "slot": "14",
        "type": "t_mapping(t_address,t_bool)"
      },
      {
        "astId": 6748,
        "contract": "contracts/Minter_Founders.sol:MinterFounders",
        "label": "freeKNFTClaimed",
        "offset": 0,
        "slot": "15",
        "type": "t_mapping(t_address,t_bool)"
      }
    ],
    "types": {
      "t_address": {
        "encoding": "inplace",
        "label": "address",
        "numberOfBytes": "20"
      },
      "t_bool": {
        "encoding": "inplace",
        "label": "bool",
        "numberOfBytes": "1"
      },
      "t_bytes32": {
        "encoding": "inplace",
        "label": "bytes32",
        "numberOfBytes": "32"
      },
      "t_contract(IAuthority)8580": {
        "encoding": "inplace",
        "label": "contract IAuthority",
        "numberOfBytes": "20"
      },
      "t_contract(IKondux)8641": {
        "encoding": "inplace",
        "label": "contract IKondux",
        "numberOfBytes": "20"
      },
      "t_contract(IKonduxFounders)8693": {
        "encoding": "inplace",
        "label": "contract IKonduxFounders",
        "numberOfBytes": "20"
      },
      "t_contract(ITreasury)8947": {
        "encoding": "inplace",
        "label": "contract ITreasury",
        "numberOfBytes": "20"
      },
      "t_mapping(t_address,t_bool)": {
        "encoding": "mapping",
        "key": "t_address",
        "label": "mapping(address => bool)",
        "numberOfBytes": "32",
        "value": "t_bool"
      },
      "t_uint256": {
        "encoding": "inplace",
        "label": "uint256",
        "numberOfBytes": "32"
      }
    }
  }
}