{
  "address": "0x2B5dC79852437574D9e7bA260BB7aA4Cb1BcA758",
  "abi": [
    {
      "inputs": [
        {
          "internalType": "address",
          "name": "_authority",
          "type": "address"
        },
        {
          "internalType": "address",
          "name": "_konduxFounders",
          "type": "address"
        },
        {
          "internalType": "address",
          "name": "_vault",
          "type": "address"
        }
      ],
      "stateMutability": "nonpayable",
      "type": "constructor"
    },
    {
      "anonymous": false,
      "inputs": [
        {
          "indexed": false,
          "internalType": "contract IAuthority",
          "name": "authority",
          "type": "address"
        }
      ],
      "name": "AuthorityUpdated",
      "type": "event"
    },
    {
      "inputs": [],
      "name": "authority",
      "outputs": [
        {
          "internalType": "contract IAuthority",
          "name": "",
          "type": "address"
        }
      ],
      "stateMutability": "view",
      "type": "function"
    },
    {
      "inputs": [],
      "name": "konduxFounders",
      "outputs": [
        {
          "internalType": "contract IKonduxFounders",
          "name": "",
          "type": "address"
        }
      ],
      "stateMutability": "view",
      "type": "function"
    },
    {
      "inputs": [],
      "name": "paused",
      "outputs": [
        {
          "internalType": "bool",
          "name": "",
          "type": "bool"
        }
      ],
      "stateMutability": "view",
      "type": "function"
    },
    {
      "inputs": [],
      "name": "price",
      "outputs": [
        {
          "internalType": "uint256",
          "name": "",
          "type": "uint256"
        }
      ],
      "stateMutability": "view",
      "type": "function"
    },
    {
      "inputs": [],
      "name": "publicMint",
      "outputs": [
        {
          "internalType": "uint256",
          "name": "",
          "type": "uint256"
        }
      ],
      "stateMutability": "payable",
      "type": "function"
    },
    {
      "inputs": [
        {
          "internalType": "contract IAuthority",
          "name": "_newAuthority",
          "type": "address"
        }
      ],
      "name": "setAuthority",
      "outputs": [],
      "stateMutability": "nonpayable",
      "type": "function"
    },
    {
      "inputs": [
        {
          "internalType": "address",
          "name": "_konduxFounders",
          "type": "address"
        }
      ],
      "name": "setKonduxFounders",
      "outputs": [],
      "stateMutability": "nonpayable",
      "type": "function"
    },
    {
      "inputs": [
        {
          "internalType": "bool",
          "name": "_paused",
          "type": "bool"
        }
      ],
      "name": "setPaused",
      "outputs": [],
      "stateMutability": "nonpayable",
      "type": "function"
    },
    {
      "inputs": [
        {
          "internalType": "uint256",
          "name": "_price",
          "type": "uint256"
        }
      ],
      "name": "setPrice",
      "outputs": [],
      "stateMutability": "nonpayable",
      "type": "function"
    },
    {
      "inputs": [
        {
          "internalType": "address",
          "name": "_treasury",
          "type": "address"
        }
      ],
      "name": "setTreasury",
      "outputs": [],
      "stateMutability": "nonpayable",
      "type": "function"
    },
    {
      "inputs": [],
      "name": "treasury",
      "outputs": [
        {
          "internalType": "contract ITreasury",
          "name": "",
          "type": "address"
        }
      ],
      "stateMutability": "view",
      "type": "function"
    }
  ],
  "transactionHash": "0x12e9bc1ddcd972a25ba5dfbfa0e61cfdd195ada302cc05ff9d207155bfca4e51",
  "args": [
    "0xEB98C8Df177D4281Fb07A67bb64ea490c7a0652d",
    "0xffeE09f2A6D4a9e54D421704dA23aD13450714C6",
    "0x09504AEb8EC21A3ac9F47a0C6216AC4C45d09d88"
  ],
  "numDeployments": 1,
  "solcInputHash": "f4c916c13ca4907ef6183965a314594e",
  "bytecode": "0x608060405234801561001057600080fd5b5060405161099538038061099583398101604081905261002f91610201565b826001600160a01b03811661008b5760405162461bcd60e51b815260206004820181905260248201527f417574686f726974792063616e6e6f74206265207a65726f206164647265737360448201526064015b60405180910390fd5b600080546001600160a01b0319166001600160a01b0383169081179091556040519081527f2f658b440c35314f52658ea8a740e05b284cdc84dc9ae01e891f21b8933e7cad9060200160405180910390a1506001600160a01b0382166101335760405162461bcd60e51b815260206004820152601960248201527f4b6f6e6475782061646472657373206973206e6f7420736574000000000000006044820152606401610082565b600280546001600160a01b0380851661010002610100600160a81b03199092169190911790915581166101a85760405162461bcd60e51b815260206004820152601860248201527f5661756c742061646472657373206973206e6f742073657400000000000000006044820152606401610082565b600380546001600160a01b0319166001600160a01b039290921691909117905550506703782dace9d900006001556002805460ff19169055610244565b80516001600160a01b03811681146101fc57600080fd5b919050565b60008060006060848603121561021657600080fd5b61021f846101e5565b925061022d602085016101e5565b915061023b604085016101e5565b90509250925092565b610742806102536000396000f3fe6080604052600436106100bc5760003560e01c80637a9e5e4b11610074578063bf7e214f1161004e578063bf7e214f146101d6578063f0f44260146101f6578063fa3aa5091461021657600080fd5b80637a9e5e4b1461018057806391b7f5ed146101a0578063a035b1fe146101c057600080fd5b80633ca173ec116100a55780633ca173ec146100fe5780635c975abb1461011e57806361d027b31461014857600080fd5b806316c38b3c146100c157806326092b83146100e3575b600080fd5b3480156100cd57600080fd5b506100e16100dc366004610688565b61023b565b005b6100eb610256565b6040519081526020015b60405180910390f35b34801561010a57600080fd5b506100e16101193660046106c9565b610440565b34801561012a57600080fd5b506002546101389060ff1681565b60405190151581526020016100f5565b34801561015457600080fd5b50600354610168906001600160a01b031681565b6040516001600160a01b0390911681526020016100f5565b34801561018c57600080fd5b506100e161019b3660046106c9565b610487565b3480156101ac57600080fd5b506100e16101bb3660046106e6565b6104f0565b3480156101cc57600080fd5b506100eb60015481565b3480156101e257600080fd5b50600054610168906001600160a01b031681565b34801561020257600080fd5b506100e16102113660046106c9565b6104fd565b34801561022257600080fd5b506002546101689061010090046001600160a01b031681565b610243610534565b6002805460ff1916911515919091179055565b60025460009060ff16156102b15760405162461bcd60e51b815260206004820152601060248201527f5061757361626c653a207061757365640000000000000000000000000000000060448201526064015b60405180910390fd5b61028a600260019054906101000a90046001600160a01b03166001600160a01b03166318160ddd6040518163ffffffff1660e01b8152600401602060405180830381865afa158015610307573d6000803e3d6000fd5b505050506040513d601f19601f8201168201806040525081019061032b91906106ff565b106103785760405162461bcd60e51b815260206004820152601160248201527f4e6f206d6f7265204e465473206c65667400000000000000000000000000000060448201526064016102a8565b6001543410156103ca5760405162461bcd60e51b815260206004820152601360248201527f4e6f7420656e6f756768204554482073656e740000000000000000000000000060448201526064016102a8565b600360009054906101000a90046001600160a01b03166001600160a01b03166398ea5fca346040518263ffffffff1660e01b81526004016000604051808303818588803b15801561041a57600080fd5b505af115801561042e573d6000803e3d6000fd5b505050505061043b61060b565b905090565b610448610534565b600280546001600160a01b03909216610100027fffffffffffffffffffffff0000000000000000000000000000000000000000ff909216919091179055565b61048f610534565b6000805473ffffffffffffffffffffffffffffffffffffffff19166001600160a01b0383169081179091556040519081527f2f658b440c35314f52658ea8a740e05b284cdc84dc9ae01e891f21b8933e7cad9060200160405180910390a150565b6104f8610534565b600155565b610505610534565b6003805473ffffffffffffffffffffffffffffffffffffffff19166001600160a01b0392909216919091179055565b60008054906101000a90046001600160a01b03166001600160a01b0316630c340a246040518163ffffffff1660e01b8152600401602060405180830381865afa158015610585573d6000803e3d6000fd5b505050506040513d601f19601f820116820180604052508101906105a99190610718565b6001600160a01b0316336001600160a01b0316146106095760405162461bcd60e51b815260206004820152600c60248201527f554e415554484f52495a4544000000000000000000000000000000000000000060448201526064016102a8565b565b6002546040516340d097c360e01b815233600482015260009182916101009091046001600160a01b0316906340d097c3906024016020604051808303816000875af115801561065e573d6000803e3d6000fd5b505050506040513d601f19601f8201168201806040525081019061068291906106ff565b92915050565b60006020828403121561069a57600080fd5b813580151581146106aa57600080fd5b9392505050565b6001600160a01b03811681146106c657600080fd5b50565b6000602082840312156106db57600080fd5b81356106aa816106b1565b6000602082840312156106f857600080fd5b5035919050565b60006020828403121561071157600080fd5b5051919050565b60006020828403121561072a57600080fd5b81516106aa816106b156fea164736f6c6343000810000a",
  "devdoc": {
    "kind": "dev",
    "methods": {},
    "version": 1
  },
  "userdoc": {
    "kind": "user",
    "methods": {},
    "version": 1
  },
  "storageLayout": {
    "storage": [
      {
        "astId": 9220,
        "contract": "contracts/Minter_Public.sol:MinterPublic",
        "label": "authority",
        "offset": 0,
        "slot": "0",
        "type": "t_contract(IAuthority)8737"
      },
      {
        "astId": 7322,
        "contract": "contracts/Minter_Public.sol:MinterPublic",
        "label": "price",
        "offset": 0,
        "slot": "1",
        "type": "t_uint256"
      },
      {
        "astId": 7324,
        "contract": "contracts/Minter_Public.sol:MinterPublic",
        "label": "paused",
        "offset": 0,
        "slot": "2",
        "type": "t_bool"
      },
      {
        "astId": 7327,
        "contract": "contracts/Minter_Public.sol:MinterPublic",
        "label": "konduxFounders",
        "offset": 1,
        "slot": "2",
        "type": "t_contract(IKonduxFounders)8855"
      },
      {
        "astId": 7330,
        "contract": "contracts/Minter_Public.sol:MinterPublic",
        "label": "treasury",
        "offset": 0,
        "slot": "3",
        "type": "t_contract(ITreasury)9109"
      }
    ],
    "types": {
      "t_bool": {
        "encoding": "inplace",
        "label": "bool",
        "numberOfBytes": "1"
      },
      "t_contract(IAuthority)8737": {
        "encoding": "inplace",
        "label": "contract IAuthority",
        "numberOfBytes": "20"
      },
      "t_contract(IKonduxFounders)8855": {
        "encoding": "inplace",
        "label": "contract IKonduxFounders",
        "numberOfBytes": "20"
      },
      "t_contract(ITreasury)9109": {
        "encoding": "inplace",
        "label": "contract ITreasury",
        "numberOfBytes": "20"
      },
      "t_uint256": {
        "encoding": "inplace",
        "label": "uint256",
        "numberOfBytes": "32"
      }
    }
  }
}