{
  "address": "0xa214932de89ec1c93e86ceB1937FD522b7E85Bc8",
  "abi": [
    {
      "inputs": [
        {
          "internalType": "address",
          "name": "_authority",
          "type": "address"
        },
        {
          "internalType": "address",
          "name": "_konduxERC20",
          "type": "address"
        }
      ],
      "stateMutability": "nonpayable",
      "type": "constructor"
    },
    {
      "anonymous": false,
      "inputs": [
        {
          "indexed": false,
          "internalType": "contract IAuthority",
          "name": "authority",
          "type": "address"
        }
      ],
      "name": "AuthorityUpdated",
      "type": "event"
    },
    {
      "anonymous": false,
      "inputs": [
        {
          "indexed": true,
          "internalType": "address",
          "name": "staker",
          "type": "address"
        },
        {
          "indexed": false,
          "internalType": "uint256",
          "name": "amount",
          "type": "uint256"
        }
      ],
      "name": "Compound",
      "type": "event"
    },
    {
      "anonymous": false,
      "inputs": [
        {
          "indexed": true,
          "internalType": "address",
          "name": "staker",
          "type": "address"
        },
        {
          "indexed": false,
          "internalType": "uint256",
          "name": "amount",
          "type": "uint256"
        }
      ],
      "name": "Reward",
      "type": "event"
    },
    {
      "anonymous": false,
      "inputs": [
        {
          "indexed": true,
          "internalType": "address",
          "name": "staker",
          "type": "address"
        },
        {
          "indexed": false,
          "internalType": "uint256",
          "name": "amount",
          "type": "uint256"
        }
      ],
      "name": "Stake",
      "type": "event"
    },
    {
      "anonymous": false,
      "inputs": [
        {
          "indexed": true,
          "internalType": "address",
          "name": "staker",
          "type": "address"
        },
        {
          "indexed": false,
          "internalType": "uint256",
          "name": "amount",
          "type": "uint256"
        }
      ],
      "name": "Unstake",
      "type": "event"
    },
    {
      "anonymous": false,
      "inputs": [
        {
          "indexed": true,
          "internalType": "address",
          "name": "staker",
          "type": "address"
        },
        {
          "indexed": false,
          "internalType": "uint256",
          "name": "amount",
          "type": "uint256"
        }
      ],
      "name": "Withdraw",
      "type": "event"
    },
    {
      "inputs": [],
      "name": "authority",
      "outputs": [
        {
          "internalType": "contract IAuthority",
          "name": "",
          "type": "address"
        }
      ],
      "stateMutability": "view",
      "type": "function"
    },
    {
      "inputs": [
        {
          "internalType": "address",
          "name": "_staker",
          "type": "address"
        }
      ],
      "name": "calculateRewards",
      "outputs": [
        {
          "internalType": "uint256",
          "name": "rewards",
          "type": "uint256"
        }
      ],
      "stateMutability": "view",
      "type": "function"
    },
    {
      "inputs": [],
      "name": "claimRewards",
      "outputs": [],
      "stateMutability": "nonpayable",
      "type": "function"
    },
    {
      "inputs": [],
      "name": "compoundFreq",
      "outputs": [
        {
          "internalType": "uint256",
          "name": "",
          "type": "uint256"
        }
      ],
      "stateMutability": "view",
      "type": "function"
    },
    {
      "inputs": [
        {
          "internalType": "address",
          "name": "_user",
          "type": "address"
        }
      ],
      "name": "compoundRewardsTimer",
      "outputs": [
        {
          "internalType": "uint256",
          "name": "_timer",
          "type": "uint256"
        }
      ],
      "stateMutability": "view",
      "type": "function"
    },
    {
      "inputs": [
        {
          "internalType": "uint256",
          "name": "_amount",
          "type": "uint256"
        }
      ],
      "name": "deposit",
      "outputs": [],
      "stateMutability": "nonpayable",
      "type": "function"
    },
    {
      "inputs": [
        {
          "internalType": "address",
          "name": "_user",
          "type": "address"
        }
      ],
      "name": "getDepositInfo",
      "outputs": [
        {
          "internalType": "uint256",
          "name": "_stake",
          "type": "uint256"
        },
        {
          "internalType": "uint256",
          "name": "_rewards",
          "type": "uint256"
        }
      ],
      "stateMutability": "view",
      "type": "function"
    },
    {
      "inputs": [],
      "name": "konduxERC20",
      "outputs": [
        {
          "internalType": "contract IERC20",
          "name": "",
          "type": "address"
        }
      ],
      "stateMutability": "view",
      "type": "function"
    },
    {
      "inputs": [],
      "name": "minStake",
      "outputs": [
        {
          "internalType": "uint256",
          "name": "",
          "type": "uint256"
        }
      ],
      "stateMutability": "view",
      "type": "function"
    },
    {
      "inputs": [],
      "name": "rewardsPerHour",
      "outputs": [
        {
          "internalType": "uint256",
          "name": "",
          "type": "uint256"
        }
      ],
      "stateMutability": "view",
      "type": "function"
    },
    {
      "inputs": [
        {
          "internalType": "contract IAuthority",
          "name": "_newAuthority",
          "type": "address"
        }
      ],
      "name": "setAuthority",
      "outputs": [],
      "stateMutability": "nonpayable",
      "type": "function"
    },
    {
      "inputs": [
        {
          "internalType": "uint256",
          "name": "_compoundFreq",
          "type": "uint256"
        }
      ],
      "name": "setCompFreq",
      "outputs": [],
      "stateMutability": "nonpayable",
      "type": "function"
    },
    {
      "inputs": [
        {
          "internalType": "uint256",
          "name": "_minStake",
          "type": "uint256"
        }
      ],
      "name": "setMinStake",
      "outputs": [],
      "stateMutability": "nonpayable",
      "type": "function"
    },
    {
      "inputs": [
        {
          "internalType": "uint256",
          "name": "_rewardsPerHour",
          "type": "uint256"
        }
      ],
      "name": "setRewards",
      "outputs": [],
      "stateMutability": "nonpayable",
      "type": "function"
    },
    {
      "inputs": [],
      "name": "stakeRewards",
      "outputs": [],
      "stateMutability": "nonpayable",
      "type": "function"
    },
    {
      "inputs": [
        {
          "internalType": "uint256",
          "name": "_amount",
          "type": "uint256"
        }
      ],
      "name": "withdraw",
      "outputs": [],
      "stateMutability": "nonpayable",
      "type": "function"
    },
    {
      "inputs": [],
      "name": "withdrawAll",
      "outputs": [],
      "stateMutability": "nonpayable",
      "type": "function"
    }
  ],
  "transactionHash": "0x9529e3228004d6810e8d3602f2f9f1a64b45a4149e4009800c84a3187067ad4f",
  "args": [
    "0x130025903Ef25390bEE8cC1a8049Cca40f3F3c96",
    "0x5B652FEEa0F83ECaADE83949535fa2B937bADf57"
  ],
  "numDeployments": 1,
  "solcInputHash": "b665482165c7999b0f19290497a409b3",
  "bytecode": "0x608060405261011d600155629896806002556201518060035534801561002457600080fd5b506040516111cf3803806111cf83398101604081905261004391610189565b816001600160a01b03811661009f5760405162461bcd60e51b815260206004820181905260248201527f417574686f726974792063616e6e6f74206265207a65726f206164647265737360448201526064015b60405180910390fd5b600080546001600160a01b0319166001600160a01b0383169081179091556040519081527f2f658b440c35314f52658ea8a740e05b284cdc84dc9ae01e891f21b8933e7cad9060200160405180910390a1506001600160a01b0381166101475760405162461bcd60e51b815260206004820152601f60248201527f4b6f6e6475782045524332302061646472657373206973206e6f7420736574006044820152606401610096565b600580546001600160a01b0319166001600160a01b0392909216919091179055506101bc565b80516001600160a01b038116811461018457600080fd5b919050565b6000806040838503121561019c57600080fd5b6101a58361016d565b91506101b36020840161016d565b90509250929050565b611004806101cb6000396000f3fe608060405234801561001057600080fd5b506004361061011b5760003560e01c80637a9e5e4b116100b2578063b6b55f2511610081578063c11479ab11610066578063c11479ab14610238578063c7a29c6f1461024b578063cf9d0b5f1461025e57600080fd5b8063b6b55f2514610212578063bf7e214f1461022557600080fd5b80637a9e5e4b146101db578063853828b6146101ee5780638c80fd90146101f65780638e7271fa1461020957600080fd5b8063372500ab116100ee578063372500ab1461018f578063375b3c0a146101975780635287ce12146101a057806364ab8675146101c857600080fd5b806312e0a053146101205780631a121d54146101465780632604b7041461014f5780632e1a7d4d1461017a575b600080fd5b61013361012e366004610ee5565b610266565b6040519081526020015b60405180910390f35b61013360035481565b600554610162906001600160a01b031681565b6040516001600160a01b03909116815260200161013d565b61018d610188366004610f09565b6102da565b005b61018d6104be565b61013360025481565b6101b36101ae366004610ee5565b61067c565b6040805192835260208301919091520161013d565b6101336101d6366004610ee5565b6106bd565b61018d6101e9366004610ee5565b61071e565b61018d610792565b61018d610204366004610f09565b61096f565b61013360015481565b61018d610220366004610f09565b61097c565b600054610162906001600160a01b031681565b61018d610246366004610f09565b610c7f565b61018d610259366004610f09565b610c8c565b61018d610c99565b6003546001600160a01b038216600090815260046020526040812060010154909142916102939190610f38565b116102a057506000919050565b6003546001600160a01b03831660009081526004602052604090206001015442916102ca91610f38565b6102d49190610f4b565b92915050565b336000908152600460205260409020548111156103485760405162461bcd60e51b815260206004820152602160248201527f43616e2774207769746864726177206d6f7265207468616e20796f75206861766044820152606560f81b60648201526084015b60405180910390fd5b6000610353336106bd565b33600090815260046020526040812080549293508492909190610377908490610f4b565b90915550503360009081526004602081815260408084204260018201556002018590556005549354815163fbfa77cf60e01b815291516001600160a01b03958616956323b872dd9592169363fbfa77cf9380840193919291908290030181865afa1580156103e9573d6000803e3d6000fd5b505050506040513d601f19601f8201168201806040525081019061040d9190610f5e565b6040516001600160e01b031960e084901b1681526001600160a01b039091166004820152336024820152604481018590526064016020604051808303816000875af1158015610460573d6000803e3d6000fd5b505050506040513d601f19601f820116820180604052508101906104849190610f7b565b5060405182815233907f884edad9ce6fa2440d8a54cc123490eb96d2768479d49ff9c7366125a94243649060200160405180910390a25050565b3360008181526004602052604081206002015490916104dc906106bd565b6104e69190610f38565b9050600081116105385760405162461bcd60e51b815260206004820152601360248201527f596f752068617665206e6f207265776172647300000000000000000000000000604482015260640161033f565b33600090815260046020818152604080842060028101859055426001909101556005549354815163fbfa77cf60e01b815291516001600160a01b03958616956323b872dd9592169363fbfa77cf9380840193919291908290030181865afa1580156105a7573d6000803e3d6000fd5b505050506040513d601f19601f820116820180604052508101906105cb9190610f5e565b6040516001600160e01b031960e084901b1681526001600160a01b039091166004820152336024820152604481018490526064016020604051808303816000875af115801561061e573d6000803e3d6000fd5b505050506040513d601f19601f820116820180604052508101906106429190610f7b565b5060405181815233907f619caafabdd75649b302ba8419e48cccf64f37f1983ac4727cfb38b57703ffc9906020015b60405180910390a250565b6001600160a01b03811660009081526004602052604080822054338352908220600201549091906106ac846106bd565b6106b69190610f38565b9050915091565b600180546001600160a01b0383166000908152600460205260408120805493015490926298968092610e10929091906106f69042610f4b565b6107009190610f9d565b61070a9190610f9d565b6107149190610fbc565b6102d49190610fbc565b610726610df6565b600080547fffffffffffffffffffffffff0000000000000000000000000000000000000000166001600160a01b0383169081179091556040519081527f2f658b440c35314f52658ea8a740e05b284cdc84dc9ae01e891f21b8933e7cad9060200160405180910390a150565b336000908152600460205260409020546107ee5760405162461bcd60e51b815260206004820152601360248201527f596f752068617665206e6f206465706f73697400000000000000000000000000604482015260640161033f565b33600081815260046020526040812060020154909161080c906106bd565b6108169190610f38565b3360009081526004602052604081208054828255600190910182905591925061083f8284610f38565b6005546000546040805163fbfa77cf60e01b815290519394506001600160a01b03928316936323b872dd939092169163fbfa77cf916004808201926020929091908290030181865afa158015610899573d6000803e3d6000fd5b505050506040513d601f19601f820116820180604052508101906108bd9190610f5e565b6040516001600160e01b031960e084901b1681526001600160a01b039091166004820152336024820152604481018490526064016020604051808303816000875af1158015610910573d6000803e3d6000fd5b505050506040513d601f19601f820116820180604052508101906109349190610f7b565b5060405181815233907f884edad9ce6fa2440d8a54cc123490eb96d2768479d49ff9c7366125a94243649060200160405180910390a2505050565b610977610df6565b600255565b6002548110156109f45760405162461bcd60e51b815260206004820152602560248201527f416d6f756e7420736d616c6c6572207468616e206d696e696d696d756d20646560448201527f706f736974000000000000000000000000000000000000000000000000000000606482015260840161033f565b6005546040516370a0823160e01b815233600482015282916001600160a01b0316906370a0823190602401602060405180830381865afa158015610a3c573d6000803e3d6000fd5b505050506040513d601f19601f82011682018060405250810190610a609190610fde565b1015610aae5760405162461bcd60e51b815260206004820152601d60248201527f43616e2774207374616b65206d6f7265207468616e20796f75206f776e000000604482015260640161033f565b336000908152600460205260408120549003610ae55733600090815260046020526040812082815542600182015560020155610b58565b6000610af0336106bd565b33600090815260046020526040812060020180549293508392909190610b17908490610f38565b90915550503360009081526004602052604081208054849290610b3b908490610f38565b909155505033600090815260046020526040902042600190910155505b6005546000546040805163fbfa77cf60e01b815290516001600160a01b03938416936323b872dd93339391169163fbfa77cf916004808201926020929091908290030181865afa158015610bb0573d6000803e3d6000fd5b505050506040513d601f19601f82011682018060405250810190610bd49190610f5e565b6040516001600160e01b031960e085901b1681526001600160a01b03928316600482015291166024820152604481018490526064016020604051808303816000875af1158015610c28573d6000803e3d6000fd5b505050506040513d601f19601f82011682018060405250810190610c4c9190610f7b565b5060405181815233907febedb8b3c678666e7f36970bc8f57abf6d8fa2e828c0da91ea5b75bf68ed101a90602001610671565b610c87610df6565b600355565b610c94610df6565b600155565b33600090815260046020526040902054610cf55760405162461bcd60e51b815260206004820152601360248201527f596f752068617665206e6f206465706f73697400000000000000000000000000604482015260640161033f565b610cfe33610266565b15610d565760405162461bcd60e51b815260206004820152602260248201527f547269656420746f20636f6d706f756e64207265776172647320746f6f20736f60448201526137b760f11b606482015260840161033f565b336000818152600460205260408120600201549091610d74906106bd565b610d7e9190610f38565b3360009081526004602052604081206002810182905580549293508392909190610da9908490610f38565b9091555050336000818152600460205260409081902042600190910155517f169f1815ebdea059aac3bb00ec9a9594c7a5ffcb64a17e8392b5d84909a14556906106719084815260200190565b60008054906101000a90046001600160a01b03166001600160a01b0316630c340a246040518163ffffffff1660e01b8152600401602060405180830381865afa158015610e47573d6000803e3d6000fd5b505050506040513d601f19601f82011682018060405250810190610e6b9190610f5e565b6001600160a01b0316336001600160a01b031614610ecb5760405162461bcd60e51b815260206004820152600c60248201527f554e415554484f52495a45440000000000000000000000000000000000000000604482015260640161033f565b565b6001600160a01b0381168114610ee257600080fd5b50565b600060208284031215610ef757600080fd5b8135610f0281610ecd565b9392505050565b600060208284031215610f1b57600080fd5b5035919050565b634e487b7160e01b600052601160045260246000fd5b808201808211156102d4576102d4610f22565b818103818111156102d4576102d4610f22565b600060208284031215610f7057600080fd5b8151610f0281610ecd565b600060208284031215610f8d57600080fd5b81518015158114610f0257600080fd5b6000816000190483118215151615610fb757610fb7610f22565b500290565b600082610fd957634e487b7160e01b600052601260045260246000fd5b500490565b600060208284031215610ff057600080fd5b505191905056fea164736f6c6343000810000a",
  "devdoc": {
    "kind": "dev",
    "methods": {},
    "version": 1
  },
  "userdoc": {
    "kind": "user",
    "methods": {},
    "version": 1
  },
  "storageLayout": {
    "storage": [
      {
        "astId": 8697,
        "contract": "contracts/Staking.sol:Staking",
        "label": "authority",
        "offset": 0,
        "slot": "0",
        "type": "t_contract(IAuthority)8266"
      },
      {
        "astId": 7232,
        "contract": "contracts/Staking.sol:Staking",
        "label": "rewardsPerHour",
        "offset": 0,
        "slot": "1",
        "type": "t_uint256"
      },
      {
        "astId": 7235,
        "contract": "contracts/Staking.sol:Staking",
        "label": "minStake",
        "offset": 0,
        "slot": "2",
        "type": "t_uint256"
      },
      {
        "astId": 7242,
        "contract": "contracts/Staking.sol:Staking",
        "label": "compoundFreq",
        "offset": 0,
        "slot": "3",
        "type": "t_uint256"
      },
      {
        "astId": 7247,
        "contract": "contracts/Staking.sol:Staking",
        "label": "stakers",
        "offset": 0,
        "slot": "4",
        "type": "t_mapping(t_address,t_struct(Staker)7229_storage)"
      },
      {
        "astId": 7250,
        "contract": "contracts/Staking.sol:Staking",
        "label": "konduxERC20",
        "offset": 0,
        "slot": "5",
        "type": "t_contract(IERC20)2304"
      }
    ],
    "types": {
      "t_address": {
        "encoding": "inplace",
        "label": "address",
        "numberOfBytes": "20"
      },
      "t_contract(IAuthority)8266": {
        "encoding": "inplace",
        "label": "contract IAuthority",
        "numberOfBytes": "20"
      },
      "t_contract(IERC20)2304": {
        "encoding": "inplace",
        "label": "contract IERC20",
        "numberOfBytes": "20"
      },
      "t_mapping(t_address,t_struct(Staker)7229_storage)": {
        "encoding": "mapping",
        "key": "t_address",
        "label": "mapping(address => struct Staking.Staker)",
        "numberOfBytes": "32",
        "value": "t_struct(Staker)7229_storage"
      },
      "t_struct(Staker)7229_storage": {
        "encoding": "inplace",
        "label": "struct Staking.Staker",
        "members": [
          {
            "astId": 7224,
            "contract": "contracts/Staking.sol:Staking",
            "label": "deposited",
            "offset": 0,
            "slot": "0",
            "type": "t_uint256"
          },
          {
            "astId": 7226,
            "contract": "contracts/Staking.sol:Staking",
            "label": "timeOfLastUpdate",
            "offset": 0,
            "slot": "1",
            "type": "t_uint256"
          },
          {
            "astId": 7228,
            "contract": "contracts/Staking.sol:Staking",
            "label": "unclaimedRewards",
            "offset": 0,
            "slot": "2",
            "type": "t_uint256"
          }
        ],
        "numberOfBytes": "96"
      },
      "t_uint256": {
        "encoding": "inplace",
        "label": "uint256",
        "numberOfBytes": "32"
      }
    }
  }
}