{
  "address": "0x44061758CFEDd221A3aE326fE9D2F2B4244bCbC6",
  "abi": [
    {
      "inputs": [
        {
          "internalType": "address",
          "name": "_authority",
          "type": "address"
        },
        {
          "internalType": "address",
          "name": "_konduxERC20",
          "type": "address"
        },
        {
          "internalType": "address",
          "name": "_treasury",
          "type": "address"
        },
        {
          "internalType": "address",
          "name": "_konduxERC721Founders",
          "type": "address"
        },
        {
          "internalType": "address",
          "name": "_konduxERC721kNFT",
          "type": "address"
        },
        {
          "internalType": "address",
          "name": "_helixERC20",
          "type": "address"
        }
      ],
      "stateMutability": "nonpayable",
      "type": "constructor"
    },
    {
      "anonymous": false,
      "inputs": [
        {
          "indexed": false,
          "internalType": "contract IAuthority",
          "name": "authority",
          "type": "address"
        }
      ],
      "name": "AuthorityUpdated",
      "type": "event"
    },
    {
      "anonymous": false,
      "inputs": [
        {
          "indexed": true,
          "internalType": "address",
          "name": "staker",
          "type": "address"
        },
        {
          "indexed": false,
          "internalType": "uint256",
          "name": "amount",
          "type": "uint256"
        }
      ],
      "name": "Compound",
      "type": "event"
    },
    {
      "anonymous": false,
      "inputs": [
        {
          "indexed": true,
          "internalType": "address",
          "name": "staker",
          "type": "address"
        },
        {
          "indexed": false,
          "internalType": "uint256",
          "name": "amount",
          "type": "uint256"
        }
      ],
      "name": "Reward",
      "type": "event"
    },
    {
      "anonymous": false,
      "inputs": [
        {
          "indexed": true,
          "internalType": "address",
          "name": "staker",
          "type": "address"
        },
        {
          "indexed": false,
          "internalType": "uint256",
          "name": "amount",
          "type": "uint256"
        }
      ],
      "name": "Stake",
      "type": "event"
    },
    {
      "anonymous": false,
      "inputs": [
        {
          "indexed": true,
          "internalType": "address",
          "name": "staker",
          "type": "address"
        },
        {
          "indexed": false,
          "internalType": "uint256",
          "name": "amount",
          "type": "uint256"
        }
      ],
      "name": "Unstake",
      "type": "event"
    },
    {
      "anonymous": false,
      "inputs": [
        {
          "indexed": true,
          "internalType": "address",
          "name": "staker",
          "type": "address"
        },
        {
          "indexed": false,
          "internalType": "uint256",
          "name": "amount",
          "type": "uint256"
        }
      ],
      "name": "Withdraw",
      "type": "event"
    },
    {
      "inputs": [],
      "name": "authority",
      "outputs": [
        {
          "internalType": "contract IAuthority",
          "name": "",
          "type": "address"
        }
      ],
      "stateMutability": "view",
      "type": "function"
    },
    {
      "inputs": [
        {
          "internalType": "address",
          "name": "_staker",
          "type": "address"
        }
      ],
      "name": "calculateRewards",
      "outputs": [
        {
          "internalType": "uint256",
          "name": "rewards",
          "type": "uint256"
        }
      ],
      "stateMutability": "view",
      "type": "function"
    },
    {
      "inputs": [],
      "name": "claimRewards",
      "outputs": [],
      "stateMutability": "nonpayable",
      "type": "function"
    },
    {
      "inputs": [],
      "name": "compoundFreq",
      "outputs": [
        {
          "internalType": "uint256",
          "name": "",
          "type": "uint256"
        }
      ],
      "stateMutability": "view",
      "type": "function"
    },
    {
      "inputs": [
        {
          "internalType": "address",
          "name": "_user",
          "type": "address"
        }
      ],
      "name": "compoundRewardsTimer",
      "outputs": [
        {
          "internalType": "uint256",
          "name": "_timer",
          "type": "uint256"
        }
      ],
      "stateMutability": "view",
      "type": "function"
    },
    {
      "inputs": [
        {
          "internalType": "uint256",
          "name": "_amount",
          "type": "uint256"
        },
        {
          "internalType": "uint8",
          "name": "_timelock",
          "type": "uint8"
        }
      ],
      "name": "deposit",
      "outputs": [],
      "stateMutability": "nonpayable",
      "type": "function"
    },
    {
      "inputs": [],
      "name": "foundersRewardBoost",
      "outputs": [
        {
          "internalType": "uint256",
          "name": "",
          "type": "uint256"
        }
      ],
      "stateMutability": "view",
      "type": "function"
    },
    {
      "inputs": [],
      "name": "foundersRewardBoostDivisor",
      "outputs": [
        {
          "internalType": "uint256",
          "name": "",
          "type": "uint256"
        }
      ],
      "stateMutability": "view",
      "type": "function"
    },
    {
      "inputs": [
        {
          "internalType": "address",
          "name": "_user",
          "type": "address"
        }
      ],
      "name": "getDepositInfo",
      "outputs": [
        {
          "internalType": "uint256",
          "name": "_stake",
          "type": "uint256"
        },
        {
          "internalType": "uint256",
          "name": "_rewards",
          "type": "uint256"
        }
      ],
      "stateMutability": "view",
      "type": "function"
    },
    {
      "inputs": [],
      "name": "getFoundersRewardBoost",
      "outputs": [
        {
          "internalType": "uint256",
          "name": "_foundersRewardBoost",
          "type": "uint256"
        }
      ],
      "stateMutability": "view",
      "type": "function"
    },
    {
      "inputs": [],
      "name": "getFoundersRewardBoostDenominator",
      "outputs": [
        {
          "internalType": "uint256",
          "name": "_foundersRewardBoostDivisor",
          "type": "uint256"
        }
      ],
      "stateMutability": "view",
      "type": "function"
    },
    {
      "inputs": [],
      "name": "getKnftRewardBoostDenominator",
      "outputs": [
        {
          "internalType": "uint256",
          "name": "_kNFTRewardBoostDivisor",
          "type": "uint256"
        }
      ],
      "stateMutability": "view",
      "type": "function"
    },
    {
      "inputs": [],
      "name": "getMinStake",
      "outputs": [
        {
          "internalType": "uint256",
          "name": "_minStake",
          "type": "uint256"
        }
      ],
      "stateMutability": "view",
      "type": "function"
    },
    {
      "inputs": [],
      "name": "getRewardsPerHour",
      "outputs": [
        {
          "internalType": "uint256",
          "name": "_rewardsPerHour",
          "type": "uint256"
        }
      ],
      "stateMutability": "view",
      "type": "function"
    },
    {
      "inputs": [
        {
          "internalType": "address",
          "name": "_staker",
          "type": "address"
        }
      ],
      "name": "getStakedAmount",
      "outputs": [
        {
          "internalType": "uint256",
          "name": "_deposited",
          "type": "uint256"
        }
      ],
      "stateMutability": "view",
      "type": "function"
    },
    {
      "inputs": [
        {
          "internalType": "address",
          "name": "_staker",
          "type": "address"
        }
      ],
      "name": "getTimeOfLastUpdate",
      "outputs": [
        {
          "internalType": "uint256",
          "name": "_timeOfLastUpdate",
          "type": "uint256"
        }
      ],
      "stateMutability": "view",
      "type": "function"
    },
    {
      "inputs": [
        {
          "internalType": "address",
          "name": "_staker",
          "type": "address"
        }
      ],
      "name": "getTimelock",
      "outputs": [
        {
          "internalType": "uint256",
          "name": "_timelock",
          "type": "uint256"
        }
      ],
      "stateMutability": "view",
      "type": "function"
    },
    {
      "inputs": [
        {
          "internalType": "address",
          "name": "_staker",
          "type": "address"
        }
      ],
      "name": "getTimelockCategory",
      "outputs": [
        {
          "internalType": "uint8",
          "name": "_timelockCategory",
          "type": "uint8"
        }
      ],
      "stateMutability": "view",
      "type": "function"
    },
    {
      "inputs": [],
      "name": "getkNFTRewardBoost",
      "outputs": [
        {
          "internalType": "uint256",
          "name": "_kNFTRewardBoost",
          "type": "uint256"
        }
      ],
      "stateMutability": "view",
      "type": "function"
    },
    {
      "inputs": [],
      "name": "helixERC20",
      "outputs": [
        {
          "internalType": "contract IHelix",
          "name": "",
          "type": "address"
        }
      ],
      "stateMutability": "view",
      "type": "function"
    },
    {
      "inputs": [],
      "name": "kNFTRewardBoost",
      "outputs": [
        {
          "internalType": "uint256",
          "name": "",
          "type": "uint256"
        }
      ],
      "stateMutability": "view",
      "type": "function"
    },
    {
      "inputs": [],
      "name": "kNFTRewardBoostDivisor",
      "outputs": [
        {
          "internalType": "uint256",
          "name": "",
          "type": "uint256"
        }
      ],
      "stateMutability": "view",
      "type": "function"
    },
    {
      "inputs": [],
      "name": "konduxERC20",
      "outputs": [
        {
          "internalType": "contract IERC20",
          "name": "",
          "type": "address"
        }
      ],
      "stateMutability": "view",
      "type": "function"
    },
    {
      "inputs": [],
      "name": "konduxERC721Founders",
      "outputs": [
        {
          "internalType": "contract IERC721",
          "name": "",
          "type": "address"
        }
      ],
      "stateMutability": "view",
      "type": "function"
    },
    {
      "inputs": [],
      "name": "konduxERC721kNFT",
      "outputs": [
        {
          "internalType": "contract IERC721",
          "name": "",
          "type": "address"
        }
      ],
      "stateMutability": "view",
      "type": "function"
    },
    {
      "inputs": [],
      "name": "minStake",
      "outputs": [
        {
          "internalType": "uint256",
          "name": "",
          "type": "uint256"
        }
      ],
      "stateMutability": "view",
      "type": "function"
    },
    {
      "inputs": [],
      "name": "rewardsPerHour",
      "outputs": [
        {
          "internalType": "uint256",
          "name": "",
          "type": "uint256"
        }
      ],
      "stateMutability": "view",
      "type": "function"
    },
    {
      "inputs": [
        {
          "internalType": "contract IAuthority",
          "name": "_newAuthority",
          "type": "address"
        }
      ],
      "name": "setAuthority",
      "outputs": [],
      "stateMutability": "nonpayable",
      "type": "function"
    },
    {
      "inputs": [
        {
          "internalType": "uint256",
          "name": "_compoundFreq",
          "type": "uint256"
        }
      ],
      "name": "setCompFreq",
      "outputs": [],
      "stateMutability": "nonpayable",
      "type": "function"
    },
    {
      "inputs": [
        {
          "internalType": "uint256",
          "name": "_foundersRewardBoost",
          "type": "uint256"
        }
      ],
      "name": "setFoundersRewardBoost",
      "outputs": [],
      "stateMutability": "nonpayable",
      "type": "function"
    },
    {
      "inputs": [
        {
          "internalType": "uint256",
          "name": "_foundersRewardBoostDivisor",
          "type": "uint256"
        }
      ],
      "name": "setFoundersRewardBoostDivisor",
      "outputs": [],
      "stateMutability": "nonpayable",
      "type": "function"
    },
    {
      "inputs": [
        {
          "internalType": "address",
          "name": "_helix",
          "type": "address"
        }
      ],
      "name": "setHelixERC20",
      "outputs": [],
      "stateMutability": "nonpayable",
      "type": "function"
    },
    {
      "inputs": [
        {
          "internalType": "address",
          "name": "_konduxERC20",
          "type": "address"
        }
      ],
      "name": "setKonduxERC20",
      "outputs": [],
      "stateMutability": "nonpayable",
      "type": "function"
    },
    {
      "inputs": [
        {
          "internalType": "address",
          "name": "_konduxERC721Founders",
          "type": "address"
        }
      ],
      "name": "setKonduxERC721Founders",
      "outputs": [],
      "stateMutability": "nonpayable",
      "type": "function"
    },
    {
      "inputs": [
        {
          "internalType": "address",
          "name": "_konduxERC721kNFT",
          "type": "address"
        }
      ],
      "name": "setKonduxERC721kNFT",
      "outputs": [],
      "stateMutability": "nonpayable",
      "type": "function"
    },
    {
      "inputs": [
        {
          "internalType": "uint256",
          "name": "_minStake",
          "type": "uint256"
        }
      ],
      "name": "setMinStake",
      "outputs": [],
      "stateMutability": "nonpayable",
      "type": "function"
    },
    {
      "inputs": [
        {
          "internalType": "uint256",
          "name": "_rewardsPerHour",
          "type": "uint256"
        }
      ],
      "name": "setRewards",
      "outputs": [],
      "stateMutability": "nonpayable",
      "type": "function"
    },
    {
      "inputs": [
        {
          "internalType": "address",
          "name": "_treasury",
          "type": "address"
        }
      ],
      "name": "setTreasury",
      "outputs": [],
      "stateMutability": "nonpayable",
      "type": "function"
    },
    {
      "inputs": [
        {
          "internalType": "uint256",
          "name": "_withdrawalFee",
          "type": "uint256"
        }
      ],
      "name": "setWithdrawalFee",
      "outputs": [],
      "stateMutability": "nonpayable",
      "type": "function"
    },
    {
      "inputs": [
        {
          "internalType": "uint256",
          "name": "_withdrawalFeeDivisor",
          "type": "uint256"
        }
      ],
      "name": "setWithdrawalFeeDivisor",
      "outputs": [],
      "stateMutability": "nonpayable",
      "type": "function"
    },
    {
      "inputs": [
        {
          "internalType": "uint256",
          "name": "_kNFTRewardBoost",
          "type": "uint256"
        }
      ],
      "name": "setkNFTRewardBoost",
      "outputs": [],
      "stateMutability": "nonpayable",
      "type": "function"
    },
    {
      "inputs": [
        {
          "internalType": "uint256",
          "name": "_kNFTRewardBoostDivisor",
          "type": "uint256"
        }
      ],
      "name": "setkNFTRewardBoostDivisor",
      "outputs": [],
      "stateMutability": "nonpayable",
      "type": "function"
    },
    {
      "inputs": [],
      "name": "stakeRewards",
      "outputs": [],
      "stateMutability": "nonpayable",
      "type": "function"
    },
    {
      "inputs": [],
      "name": "treasury",
      "outputs": [
        {
          "internalType": "contract ITreasury",
          "name": "",
          "type": "address"
        }
      ],
      "stateMutability": "view",
      "type": "function"
    },
    {
      "inputs": [
        {
          "internalType": "uint256",
          "name": "_amount",
          "type": "uint256"
        }
      ],
      "name": "withdraw",
      "outputs": [],
      "stateMutability": "nonpayable",
      "type": "function"
    },
    {
      "inputs": [],
      "name": "withdrawAll",
      "outputs": [],
      "stateMutability": "nonpayable",
      "type": "function"
    },
    {
      "inputs": [],
      "name": "withdrawalFee",
      "outputs": [
        {
          "internalType": "uint256",
          "name": "",
          "type": "uint256"
        }
      ],
      "stateMutability": "view",
      "type": "function"
    },
    {
      "inputs": [],
      "name": "withdrawalFeeDivisor",
      "outputs": [
        {
          "internalType": "uint256",
          "name": "",
          "type": "uint256"
        }
      ],
      "stateMutability": "view",
      "type": "function"
    }
  ],
  "transactionHash": "0xb5c0cbc6098693e18f79b514e365f906801e433b1af5a4401dea4ffc7f7608f6",
  "args": [
    "0x348e88f388417Cb86cE2359b4108692ce43c6D85",
    "0xD1d5764b1ab25B2c765B29e5E6be03ec6784083e",
    "0xefFDa63B1AF6B4033606368B7F3aA13E5BC91C26",
    "0x6f70323F3701B911deBa98f5F2Cd5e082C2D6F6b",
    "0xc7BE5BcD6Cb06EE8b5cE1fbA2BfDF25E3134CaCb",
    "0x15F7EF03af6cc050f256d2D250d1b7e37A2D0431"
  ],
  "numDeployments": 8,
  "solcInputHash": "61b62e031dd4e3e3e32de94be14a0dbe",
  "bytecode": "0x6080604052620186a060015562989680600255620f424060035562989680600455620186a06005556298968060065561011d60075562989680600855610e106009553480156200004e57600080fd5b50604051620029a8380380620029a8833981016040819052620000719162000250565b856001600160a01b038116620000ce5760405162461bcd60e51b815260206004820181905260248201527f417574686f726974792063616e6e6f74206265207a65726f206164647265737360448201526064015b60405180910390fd5b600080546001600160a01b0319166001600160a01b0383169081179091556040519081527f2f658b440c35314f52658ea8a740e05b284cdc84dc9ae01e891f21b8933e7cad9060200160405180910390a1506001600160a01b038516620001785760405162461bcd60e51b815260206004820152601f60248201527f4b6f6e6475782045524332302061646472657373206973206e6f7420736574006044820152606401620000c5565b6001600160a01b038416620001d05760405162461bcd60e51b815260206004820152601b60248201527f54726561737572792061646472657373206973206e6f742073657400000000006044820152606401620000c5565b600c80546001600160a01b03199081166001600160a01b0397881617909155600e8054821694871694909417909355600f8054841692861692909217909155600d80548316918516919091179055601080549091169190921617905550620002d1565b80516001600160a01b03811681146200024b57600080fd5b919050565b60008060008060008060c087890312156200026a57600080fd5b620002758762000233565b9550620002856020880162000233565b9450620002956040880162000233565b9350620002a56060880162000233565b9250620002b56080880162000233565b9150620002c560a0880162000233565b90509295509295509295565b6126c780620002e16000396000f3fe608060405234801561001057600080fd5b50600436106103205760003560e01c80637a9e5e4b116101a7578063bf1e799b116100ee578063cf9d0b5f11610097578063e6fd009f11610071578063e6fd009f14610687578063ecbb34dc14610690578063f0f442601461069957600080fd5b8063cf9d0b5f14610659578063cfb656a514610661578063d55111c51461067457600080fd5b8063c11479ab116100c8578063c11479ab14610620578063c647b10e14610633578063c7a29c6f1461064657600080fd5b8063bf1e799b146105ce578063bf7e214f146105fa578063bf811fbc1461060d57600080fd5b80638e7271fa116101505780639ef292441161012a5780639ef29244146105a0578063a9b29407146105a8578063ac1e5025146105bb57600080fd5b80638e7271fa1461057b57806394a689911461058457806397b833e11461059757600080fd5b806387c4fdec1161018157806387c4fdec146105575780638bc7e8c41461055f5780638c80fd901461056857600080fd5b80637a9e5e4b146105335780637d15b9e714610546578063853828b61461054f57600080fd5b8063375b3c0a1161026b57806356a3b5fa1161021457806364ab8675116101ee57806364ab8675146104fa578063654cfdff1461050d57806378e2816b1461052057600080fd5b806356a3b5fa146104cc5780635972e559146104d457806361d027b3146104e757600080fd5b80634da6a556116102455780634da6a556146104685780635287ce12146104915780635385689c146104b957600080fd5b8063375b3c0a14610443578063408433401461044c5780634ca3bca31461045f57600080fd5b80632707e95b116102cd5780632ebd8a46116102a75780632ebd8a46146104205780633430260514610428578063372500ab1461043b57600080fd5b80632707e95b146103b75780632c6f54b1146103cc5780632e1a7d4d1461040d57600080fd5b806312e0a053116102fe57806312e0a053146103705780631a121d54146103835780632604b7041461038c57600080fd5b80630903e9581461032557806309ee1cc01461033c5780630d0ea61414610368575b600080fd5b6007545b6040519081526020015b60405180910390f35b61032961034a36600461242d565b6001600160a01b03166000908152600a602052604090206001015490565b600654610329565b61032961037e36600461242d565b6106ac565b61032960095481565b600c5461039f906001600160a01b031681565b6040516001600160a01b039091168152602001610333565b6103ca6103c536600461244a565b610720565b005b6103fb6103da36600461242d565b6001600160a01b03166000908152600a602052604090206005015460ff1690565b60405160ff9091168152602001610333565b6103ca61041b36600461244a565b61072d565b600354610329565b6103ca61043636600461244a565b610ad4565b6103ca610ae1565b61032960085481565b6103ca61045a36600461244a565b610ed9565b61032960035481565b61032961047636600461242d565b6001600160a01b03166000908152600a602052604090205490565b6104a461049f36600461242d565b610ee6565b60408051928352602083019190915201610333565b600f5461039f906001600160a01b031681565b600854610329565b6103ca6104e236600461244a565b610f27565b60105461039f906001600160a01b031681565b61032961050836600461242d565b610f34565b6103ca61051b366004612463565b6114ac565b6103ca61052e36600461242d565b611ba8565b6103ca61054136600461242d565b611bd2565b61032960025481565b6103ca611c2e565b600454610329565b61032960015481565b6103ca61057636600461244a565b611fc5565b61032960075481565b6103ca61059236600461242d565b611fd2565b61032960055481565b600554610329565b600d5461039f906001600160a01b031681565b6103ca6105c936600461244a565b611ffc565b6103296105dc36600461242d565b6001600160a01b03166000908152600a602052604090206004015490565b60005461039f906001600160a01b031681565b6103ca61061b36600461242d565b612009565b6103ca61062e36600461244a565b612033565b6103ca61064136600461244a565b612040565b6103ca61065436600461244a565b61204d565b6103ca61205a565b6103ca61066f36600461242d565b6121b7565b600e5461039f906001600160a01b031681565b61032960065481565b61032960045481565b6103ca6106a736600461242d565b6121e1565b6009546001600160a01b0382166000908152600a6020526040812060010154909142916106d991906124af565b116106e657506000919050565b6009546001600160a01b0383166000908152600a60205260409020600101544291610710916124af565b61071a91906124c2565b92915050565b61072861220b565b600555565b336000908152600a602052604090206004015442101561078a5760405162461bcd60e51b8152602060048201526013602482015272151a5b595b1bd8dac81b9bdd081c185cdcd959606a1b60448201526064015b60405180910390fd5b336000908152600a60205260409020548111156107f35760405162461bcd60e51b815260206004820152602160248201527f43616e2774207769746864726177206d6f7265207468616e20796f75206861766044820152606560f81b6064820152608401610781565b600d546040516370a0823160e01b81523360048201526001600160a01b03909116906370a0823190602401602060405180830381865afa15801561083b573d6000803e3d6000fd5b505050506040513d601f19601f8201168201806040525081019061085f91906124d5565b8110156108d45760405162461bcd60e51b815260206004820152603760248201527f43616e2774207769746864726177206d6f726520746f6b656e73207468616e2060448201527f74686520636f6c6c61746572616c20796f7520686176650000000000000000006064820152608401610781565b60006108df33610f34565b336000908152600a60205260408120805492935084929091906109039084906124c2565b9091555050336000908152600a60205260408120426001808301919091556003909101839055600254905461093890856124ee565b610942919061250d565b600d54604051632770a7eb60e21b8152336004820152602481018690529192506001600160a01b031690639dc29fac90604401600060405180830381600087803b15801561098f57600080fd5b505af11580156109a3573d6000803e3d6000fd5b5050600c546000546040805163fbfa77cf60e01b815290516001600160a01b0393841695506323b872dd9450919092169163fbfa77cf9160048083019260209291908290030181865afa1580156109fe573d6000803e3d6000fd5b505050506040513d601f19601f82011682018060405250810190610a22919061252f565b6040516001600160e01b031960e084901b1681526001600160a01b039091166004820152336024820152604481018490526064016020604051808303816000875af1158015610a75573d6000803e3d6000fd5b505050506040513d601f19601f82011682018060405250810190610a99919061254c565b5060405181815233907f884edad9ce6fa2440d8a54cc123490eb96d2768479d49ff9c7366125a94243649060200160405180910390a2505050565b610adc61220b565b600255565b336000908152600a6020526040902060040154421015610b395760405162461bcd60e51b8152602060048201526013602482015272151a5b595b1bd8dac81b9bdd081c185cdcd959606a1b6044820152606401610781565b610b776040518060400160405280601081526020017f436c61696d696e672072657761726473000000000000000000000000000000008152506122e2565b336000818152600a60205260408120600301549091610b9590610f34565b610b9f91906124af565b9050610be06040518060400160405280600b81526020017f726577617264733a20257300000000000000000000000000000000000000000081525082612328565b604080518082018252601e81527f7072652d636c61696d696e672062616c616e6365207661756c743a2025730000602080830191909152600c54600054845163fbfa77cf60e01b81529451610cfb956001600160a01b03938416946370a08231949093169263fbfa77cf926004808401938290030181865afa158015610c6a573d6000803e3d6000fd5b505050506040513d601f19601f82011682018060405250810190610c8e919061252f565b6040516001600160e01b031960e084901b1681526001600160a01b039091166004820152602401602060405180830381865afa158015610cd2573d6000803e3d6000fd5b505050506040513d601f19601f82011682018060405250810190610cf691906124d5565b612328565b60408051808201909152601181527f455243323020616464726573733a2025730000000000000000000000000000006020820152600c54610d4591906001600160a01b0316612371565b60008111610d955760405162461bcd60e51b815260206004820152601360248201527f596f752068617665206e6f2072657761726473000000000000000000000000006044820152606401610781565b336000908152600a602090815260408083206003810184905542600190910155600c549254815163fbfa77cf60e01b815291516001600160a01b03948516946323b872dd9492169263fbfa77cf9260048083019391928290030181865afa158015610e04573d6000803e3d6000fd5b505050506040513d601f19601f82011682018060405250810190610e28919061252f565b6040516001600160e01b031960e084901b1681526001600160a01b039091166004820152336024820152604481018490526064016020604051808303816000875af1158015610e7b573d6000803e3d6000fd5b505050506040513d601f19601f82011682018060405250810190610e9f919061254c565b5060405181815233907f619caafabdd75649b302ba8419e48cccf64f37f1983ac4727cfb38b57703ffc9906020015b60405180910390a250565b610ee161220b565b600655565b6001600160a01b0381166000908152600a60205260408082205433835290822060030154909190610f1684610f34565b610f2091906124af565b9050915091565b610f2f61220b565b600455565b6000610f746040518060400160405280601381526020017f43616c63756c6174696e672072657761726473000000000000000000000000008152506122e2565b610fb1604051806060016040528060258152602001612615602591396001600160a01b0384166000908152600a6020526040902060010154612328565b610ff06040518060400160405280601381526020017f626c6f636b2e74696d657374616d703a2025730000000000000000000000000081525042612328565b6110576040518060400160405280601e81526020017f7374616b6572735b5f7374616b65725d2e6465706f73697465643a2025730000815250600a6000856001600160a01b03166001600160a01b0316815260200190815260200160002060000154612328565b6110986040518060400160405280601281526020017f72657761726473506572486f75723a2025730000000000000000000000000000815250600754612328565b6111146040518060c001604052806081815260200161263a608191396007546001600160a01b0385166000908152600a6020526040902080546001909101546298968092610e109290916110ec90426124c2565b6110f691906124ee565b61110091906124ee565b61110a919061250d565b610cf6919061250d565b6007546001600160a01b0383166000908152600a60205260408120805460019091015491926298968092610e10929061114d90426124c2565b61115791906124ee565b61116191906124ee565b61116b919061250d565b611175919061250d565b90506111b66040518060400160405280600a81526020017f7265776172643a2025730000000000000000000000000000000000000000000081525082612328565b600e546040516370a0823160e01b81526001600160a01b03858116600483015260009216906370a0823190602401602060405180830381865afa158015611201573d6000803e3d6000fd5b505050506040513d601f19601f8201168201806040525081019061122591906124d5565b11156112865760045460035461123b90836124ee565b611245919061250d565b90506112866040518060400160405280601981526020017f72657761726420616674657220666f756e646572733a2025730000000000000081525082612328565b600f546040516370a0823160e01b81526001600160a01b03858116600483015260009216906370a0823190602401602060405180830381865afa1580156112d1573d6000803e3d6000fd5b505050506040513d601f19601f820116820180604052508101906112f591906124d5565b11156113eb57600f546040516370a0823160e01b81526001600160a01b03858116600483015260009216906370a0823190602401602060405180830381865afa158015611346573d6000803e3d6000fd5b505050506040513d601f19601f8201168201806040525081019061136a91906124d5565b90506005811115611379575060055b6006546113878260056124ee565b60055461139491906124af565b61139e90846124ee565b6113a8919061250d565b91506113e96040518060400160405280601581526020017f726577617264206166746572206b4e46543a202573000000000000000000000081525083612328565b505b6001600160a01b0383166000908152600a602052604090206005015460ff1660010361143157612710611420826127746124ee565b61142a919061250d565b905061071a565b6001600160a01b0383166000908152600a602052604090206005015460ff16600203611466576127106114208261283c6124ee565b6001600160a01b0383166000908152600a602052604090206005015460ff1660030361071a5761271061149b82612a946124ee565b6114a5919061250d565b9392505050565b6008548210156115245760405162461bcd60e51b815260206004820152602560248201527f416d6f756e7420736d616c6c6572207468616e206d696e696d696d756d20646560448201527f706f7369740000000000000000000000000000000000000000000000000000006064820152608401610781565b600c546040516370a0823160e01b815233600482015283916001600160a01b0316906370a0823190602401602060405180830381865afa15801561156c573d6000803e3d6000fd5b505050506040513d601f19601f8201168201806040525081019061159091906124d5565b10156115de5760405162461bcd60e51b815260206004820152601d60248201527f43616e2774207374616b65206d6f7265207468616e20796f75206f776e0000006044820152606401610781565b600c54604051636eb1769f60e11b815233600482015230602482015283916001600160a01b03169063dd62ed3e90604401602060405180830381865afa15801561162c573d6000803e3d6000fd5b505050506040513d601f19601f8201168201806040525081019061165091906124d5565b101561169e5760405162461bcd60e51b815260206004820152601160248201527f416c6c6f77616e6365206e6f74207365740000000000000000000000000000006044820152606401610781565b60048160ff1611156116f25760405162461bcd60e51b815260206004820152601060248201527f496e76616c69642074696d656c6f636b000000000000000000000000000000006044820152606401610781565b336000908152600a602052604090206005015460ff8083169116111561175a5760405162461bcd60e51b815260206004820181905260248201527f43616e27742064656372656173652074696d656c6f636b2063617465676f72796044820152606401610781565b600c546040516370a0823160e01b81523360048201526117ce916001600160a01b0316906370a08231906024015b602060405180830381865afa1580156117a5573d6000803e3d6000fd5b505050506040513d601f19601f820116820180604052508101906117c991906124d5565b6123b6565b6117d7826123b6565b600c54604051636eb1769f60e11b815233600482015230602482015261180f916001600160a01b03169063dd62ed3e90604401611788565b336000908152600a6020526040812060058101805460ff191660ff851617905554900361185157336000908152600a60205260408120838155600301556118ae565b600061185c33610f34565b336000908152600a60205260408120600301805492935083929091906118839084906124af565b9091555050336000908152600a6020526040812080548592906118a79084906124af565b9091555050505b336000908152600a60205260409020426001820181905560029091015560ff81161580156118f957506118e44262278d006124af565b336000908152600a6020526040902060040154105b156119235761190b4262278d006124af565b336000908152600a6020526040902060040155611a16565b60ff81166001148015611953575061193e426276a7006124af565b336000908152600a6020526040902060040154105b156119655761190b426276a7006124af565b60ff8116600214801561199557506119804262ed4e006124af565b336000908152600a6020526040902060040154105b156119a75761190b4262ed4e006124af565b60ff811660031480156119d857506119c3426301e133806124af565b336000908152600a6020526040902060040154105b156119eb5761190b426301e133806124af565b60031960ff821601611a1657611a024260786124af565b336000908152600a60205260409020600401555b600c546000546040805163fbfa77cf60e01b815290516001600160a01b03938416936323b872dd93339391169163fbfa77cf916004808201926020929091908290030181865afa158015611a6e573d6000803e3d6000fd5b505050506040513d601f19601f82011682018060405250810190611a92919061252f565b6040516001600160e01b031960e085901b1681526001600160a01b03928316600482015291166024820152604481018590526064016020604051808303816000875af1158015611ae6573d6000803e3d6000fd5b505050506040513d601f19601f82011682018060405250810190611b0a919061254c565b50600d546040516340c10f1960e01b8152336004820152602481018490526001600160a01b03909116906340c10f1990604401600060405180830381600087803b158015611b5757600080fd5b505af1158015611b6b573d6000803e3d6000fd5b50506040518481523392507febedb8b3c678666e7f36970bc8f57abf6d8fa2e828c0da91ea5b75bf68ed101a915060200160405180910390a25050565b611bb061220b565b600e80546001600160a01b0319166001600160a01b0392909216919091179055565b611bda61220b565b600080546001600160a01b0319166001600160a01b0383169081179091556040519081527f2f658b440c35314f52658ea8a740e05b284cdc84dc9ae01e891f21b8933e7cad9060200160405180910390a150565b336000908152600a6020526040902060040154421015611c865760405162461bcd60e51b8152602060048201526013602482015272151a5b595b1bd8dac81b9bdd081c185cdcd959606a1b6044820152606401610781565b336000908152600a6020526040902054611ce25760405162461bcd60e51b815260206004820152601360248201527f596f752068617665206e6f206465706f736974000000000000000000000000006044820152606401610781565b336000818152600a60205260408120600301549091611d0090610f34565b611d0a91906124af565b336000908152600a6020526040812080548282556001909101829055919250611d3382846124af565b600d546040516370a0823160e01b81523360048201529192506001600160a01b0316906370a0823190602401602060405180830381865afa158015611d7c573d6000803e3d6000fd5b505050506040513d601f19601f82011682018060405250810190611da091906124d5565b811015611e155760405162461bcd60e51b815260206004820152603760248201527f43616e2774207769746864726177206d6f726520746f6b656e73207468616e2060448201527f74686520636f6c6c61746572616c20796f7520686176650000000000000000006064820152608401610781565b600060025460015483611e2891906124ee565b611e32919061250d565b600d54604051632770a7eb60e21b8152336004820152602481018590529192506001600160a01b031690639dc29fac90604401600060405180830381600087803b158015611e7f57600080fd5b505af1158015611e93573d6000803e3d6000fd5b5050600c546000546040805163fbfa77cf60e01b815290516001600160a01b0393841695506323b872dd9450919092169163fbfa77cf9160048083019260209291908290030181865afa158015611eee573d6000803e3d6000fd5b505050506040513d601f19601f82011682018060405250810190611f12919061252f565b6040516001600160e01b031960e084901b1681526001600160a01b039091166004820152336024820152604481018490526064016020604051808303816000875af1158015611f65573d6000803e3d6000fd5b505050506040513d601f19601f82011682018060405250810190611f89919061254c565b5060405181815233907f884edad9ce6fa2440d8a54cc123490eb96d2768479d49ff9c7366125a94243649060200160405180910390a250505050565b611fcd61220b565b600855565b611fda61220b565b600c80546001600160a01b0319166001600160a01b0392909216919091179055565b61200461220b565b600155565b61201161220b565b600f80546001600160a01b0319166001600160a01b0392909216919091179055565b61203b61220b565b600955565b61204861220b565b600355565b61205561220b565b600755565b336000908152600a60205260409020546120b65760405162461bcd60e51b815260206004820152601360248201527f596f752068617665206e6f206465706f736974000000000000000000000000006044820152606401610781565b6120bf336106ac565b156121175760405162461bcd60e51b815260206004820152602260248201527f547269656420746f20636f6d706f756e64207265776172647320746f6f20736f60448201526137b760f11b6064820152608401610781565b336000818152600a6020526040812060030154909161213590610f34565b61213f91906124af565b336000908152600a60205260408120600381018290558054929350839290919061216a9084906124af565b9091555050336000818152600a60205260409081902042600190910155517f169f1815ebdea059aac3bb00ec9a9594c7a5ffcb64a17e8392b5d84909a1455690610ece9084815260200190565b6121bf61220b565b600d80546001600160a01b0319166001600160a01b0392909216919091179055565b6121e961220b565b601080546001600160a01b0319166001600160a01b0392909216919091179055565b60008054906101000a90046001600160a01b03166001600160a01b0316630c340a246040518163ffffffff1660e01b8152600401602060405180830381865afa15801561225c573d6000803e3d6000fd5b505050506040513d601f19601f82011682018060405250810190612280919061252f565b6001600160a01b0316336001600160a01b0316146122e05760405162461bcd60e51b815260206004820152600c60248201527f554e415554484f52495a454400000000000000000000000000000000000000006044820152606401610781565b565b612325816040516024016122f691906125b4565b60408051601f198184030181529190526020810180516001600160e01b031663104c13eb60e21b1790526123f7565b50565b61236d828260405160240161233e9291906125c7565b60408051601f198184030181529190526020810180516001600160e01b0316632d839cb360e21b1790526123f7565b5050565b61236d82826040516024016123879291906125e9565b60408051601f198184030181529190526020810180516001600160e01b031663319af33360e01b1790526123f7565b612325816040516024016123cc91815260200190565b60408051601f198184030181529190526020810180516001600160e01b031663f82c50f160e01b1790525b80516a636f6e736f6c652e6c6f67602083016000808483855afa5050505050565b6001600160a01b038116811461232557600080fd5b60006020828403121561243f57600080fd5b81356114a581612418565b60006020828403121561245c57600080fd5b5035919050565b6000806040838503121561247657600080fd5b82359150602083013560ff8116811461248e57600080fd5b809150509250929050565b634e487b7160e01b600052601160045260246000fd5b8082018082111561071a5761071a612499565b8181038181111561071a5761071a612499565b6000602082840312156124e757600080fd5b5051919050565b600081600019048311821515161561250857612508612499565b500290565b60008261252a57634e487b7160e01b600052601260045260246000fd5b500490565b60006020828403121561254157600080fd5b81516114a581612418565b60006020828403121561255e57600080fd5b815180151581146114a557600080fd5b6000815180845260005b8181101561259457602081850181015186830182015201612578565b506000602082860101526020601f19601f83011685010191505092915050565b6020815260006114a5602083018461256e565b6040815260006125da604083018561256e565b90508260208301529392505050565b6040815260006125fc604083018561256e565b90506001600160a01b0383166020830152939250505056fe7374616b6572735b5f7374616b65725d2e74696d654f664c6173745570646174653a20257328282828626c6f636b2e74696d657374616d70202d207374616b6572735b5f7374616b65725d2e74696d654f664c61737455706461746529202a207374616b6572735b5f7374616b65725d2e6465706f736974656429202a2072657761726473506572486f757229202f203336303029202f2031305f3030305f3030303a202573a164736f6c6343000810000a",
  "devdoc": {
    "kind": "dev",
    "methods": {},
    "version": 1
  },
  "userdoc": {
    "kind": "user",
    "methods": {},
    "version": 1
  },
  "storageLayout": {
    "storage": [
      {
        "astId": 1865,
        "contract": "contracts/Staking.sol:Staking",
        "label": "authority",
        "offset": 0,
        "slot": "0",
        "type": "t_contract(IAuthority)1781"
      },
      {
        "astId": 237,
        "contract": "contracts/Staking.sol:Staking",
        "label": "withdrawalFee",
        "offset": 0,
        "slot": "1",
        "type": "t_uint256"
      },
      {
        "astId": 240,
        "contract": "contracts/Staking.sol:Staking",
        "label": "withdrawalFeeDivisor",
        "offset": 0,
        "slot": "2",
        "type": "t_uint256"
      },
      {
        "astId": 243,
        "contract": "contracts/Staking.sol:Staking",
        "label": "foundersRewardBoost",
        "offset": 0,
        "slot": "3",
        "type": "t_uint256"
      },
      {
        "astId": 246,
        "contract": "contracts/Staking.sol:Staking",
        "label": "foundersRewardBoostDivisor",
        "offset": 0,
        "slot": "4",
        "type": "t_uint256"
      },
      {
        "astId": 249,
        "contract": "contracts/Staking.sol:Staking",
        "label": "kNFTRewardBoost",
        "offset": 0,
        "slot": "5",
        "type": "t_uint256"
      },
      {
        "astId": 252,
        "contract": "contracts/Staking.sol:Staking",
        "label": "kNFTRewardBoostDivisor",
        "offset": 0,
        "slot": "6",
        "type": "t_uint256"
      },
      {
        "astId": 255,
        "contract": "contracts/Staking.sol:Staking",
        "label": "rewardsPerHour",
        "offset": 0,
        "slot": "7",
        "type": "t_uint256"
      },
      {
        "astId": 258,
        "contract": "contracts/Staking.sol:Staking",
        "label": "minStake",
        "offset": 0,
        "slot": "8",
        "type": "t_uint256"
      },
      {
        "astId": 263,
        "contract": "contracts/Staking.sol:Staking",
        "label": "compoundFreq",
        "offset": 0,
        "slot": "9",
        "type": "t_uint256"
      },
      {
        "astId": 268,
        "contract": "contracts/Staking.sol:Staking",
        "label": "stakers",
        "offset": 0,
        "slot": "10",
        "type": "t_mapping(t_address,t_struct(Staker)228_storage)"
      },
      {
        "astId": 272,
        "contract": "contracts/Staking.sol:Staking",
        "label": "name",
        "offset": 0,
        "slot": "11",
        "type": "t_mapping(t_address,t_uint256)"
      },
      {
        "astId": 275,
        "contract": "contracts/Staking.sol:Staking",
        "label": "konduxERC20",
        "offset": 0,
        "slot": "12",
        "type": "t_contract(IERC20)77"
      },
      {
        "astId": 278,
        "contract": "contracts/Staking.sol:Staking",
        "label": "helixERC20",
        "offset": 0,
        "slot": "13",
        "type": "t_contract(IHelix)1819"
      },
      {
        "astId": 281,
        "contract": "contracts/Staking.sol:Staking",
        "label": "konduxERC721Founders",
        "offset": 0,
        "slot": "14",
        "type": "t_contract(IERC721)193"
      },
      {
        "astId": 284,
        "contract": "contracts/Staking.sol:Staking",
        "label": "konduxERC721kNFT",
        "offset": 0,
        "slot": "15",
        "type": "t_contract(IERC721)193"
      },
      {
        "astId": 287,
        "contract": "contracts/Staking.sol:Staking",
        "label": "treasury",
        "offset": 0,
        "slot": "16",
        "type": "t_contract(ITreasury)1853"
      }
    ],
    "types": {
      "t_address": {
        "encoding": "inplace",
        "label": "address",
        "numberOfBytes": "20"
      },
      "t_contract(IAuthority)1781": {
        "encoding": "inplace",
        "label": "contract IAuthority",
        "numberOfBytes": "20"
      },
      "t_contract(IERC20)77": {
        "encoding": "inplace",
        "label": "contract IERC20",
        "numberOfBytes": "20"
      },
      "t_contract(IERC721)193": {
        "encoding": "inplace",
        "label": "contract IERC721",
        "numberOfBytes": "20"
      },
      "t_contract(IHelix)1819": {
        "encoding": "inplace",
        "label": "contract IHelix",
        "numberOfBytes": "20"
      },
      "t_contract(ITreasury)1853": {
        "encoding": "inplace",
        "label": "contract ITreasury",
        "numberOfBytes": "20"
      },
      "t_mapping(t_address,t_struct(Staker)228_storage)": {
        "encoding": "mapping",
        "key": "t_address",
        "label": "mapping(address => struct Staking.Staker)",
        "numberOfBytes": "32",
        "value": "t_struct(Staker)228_storage"
      },
      "t_mapping(t_address,t_uint256)": {
        "encoding": "mapping",
        "key": "t_address",
        "label": "mapping(address => uint256)",
        "numberOfBytes": "32",
        "value": "t_uint256"
      },
      "t_struct(Staker)228_storage": {
        "encoding": "inplace",
        "label": "struct Staking.Staker",
        "members": [
          {
            "astId": 217,
            "contract": "contracts/Staking.sol:Staking",
            "label": "deposited",
            "offset": 0,
            "slot": "0",
            "type": "t_uint256"
          },
          {
            "astId": 219,
            "contract": "contracts/Staking.sol:Staking",
            "label": "timeOfLastUpdate",
            "offset": 0,
            "slot": "1",
            "type": "t_uint256"
          },
          {
            "astId": 221,
            "contract": "contracts/Staking.sol:Staking",
            "label": "lastDepositTime",
            "offset": 0,
            "slot": "2",
            "type": "t_uint256"
          },
          {
            "astId": 223,
            "contract": "contracts/Staking.sol:Staking",
            "label": "unclaimedRewards",
            "offset": 0,
            "slot": "3",
            "type": "t_uint256"
          },
          {
            "astId": 225,
            "contract": "contracts/Staking.sol:Staking",
            "label": "timelock",
            "offset": 0,
            "slot": "4",
            "type": "t_uint256"
          },
          {
            "astId": 227,
            "contract": "contracts/Staking.sol:Staking",
            "label": "timelockCategory",
            "offset": 0,
            "slot": "5",
            "type": "t_uint8"
          }
        ],
        "numberOfBytes": "192"
      },
      "t_uint256": {
        "encoding": "inplace",
        "label": "uint256",
        "numberOfBytes": "32"
      },
      "t_uint8": {
        "encoding": "inplace",
        "label": "uint8",
        "numberOfBytes": "1"
      }
    }
  }
}