{
  "address": "0x826df1cE7Ef2B53622AED092F1dEdD5D471B56B6",
  "abi": [
    {
      "inputs": [
        {
          "internalType": "address",
          "name": "_authority",
          "type": "address"
        },
        {
          "internalType": "address",
          "name": "_konduxERC20",
          "type": "address"
        },
        {
          "internalType": "address",
          "name": "_treasury",
          "type": "address"
        },
        {
          "internalType": "address",
          "name": "_konduxERC721Founders",
          "type": "address"
        },
        {
          "internalType": "address",
          "name": "_konduxERC721kNFT",
          "type": "address"
        },
        {
          "internalType": "address",
          "name": "_helixERC20",
          "type": "address"
        }
      ],
      "stateMutability": "nonpayable",
      "type": "constructor"
    },
    {
      "anonymous": false,
      "inputs": [
        {
          "indexed": false,
          "internalType": "contract IAuthority",
          "name": "authority",
          "type": "address"
        }
      ],
      "name": "AuthorityUpdated",
      "type": "event"
    },
    {
      "anonymous": false,
      "inputs": [
        {
          "indexed": true,
          "internalType": "address",
          "name": "staker",
          "type": "address"
        },
        {
          "indexed": false,
          "internalType": "uint256",
          "name": "amount",
          "type": "uint256"
        }
      ],
      "name": "Compound",
      "type": "event"
    },
    {
      "anonymous": false,
      "inputs": [
        {
          "indexed": true,
          "internalType": "address",
          "name": "token",
          "type": "address"
        },
        {
          "indexed": true,
          "internalType": "bool",
          "name": "authorized",
          "type": "bool"
        }
      ],
      "name": "NewAuthorizedERC20",
      "type": "event"
    },
    {
      "anonymous": false,
      "inputs": [
        {
          "indexed": true,
          "internalType": "uint256",
          "name": "amount",
          "type": "uint256"
        },
        {
          "indexed": true,
          "internalType": "address",
          "name": "token",
          "type": "address"
        }
      ],
      "name": "NewCompoundFreq",
      "type": "event"
    },
    {
      "anonymous": false,
      "inputs": [
        {
          "indexed": true,
          "internalType": "uint256",
          "name": "amount",
          "type": "uint256"
        },
        {
          "indexed": true,
          "internalType": "address",
          "name": "token",
          "type": "address"
        }
      ],
      "name": "NewFoundersRewardBoost",
      "type": "event"
    },
    {
      "anonymous": false,
      "inputs": [
        {
          "indexed": true,
          "internalType": "uint256",
          "name": "amount",
          "type": "uint256"
        },
        {
          "indexed": true,
          "internalType": "address",
          "name": "token",
          "type": "address"
        }
      ],
      "name": "NewFoundersRewardBoostDivisor",
      "type": "event"
    },
    {
      "anonymous": false,
      "inputs": [
        {
          "indexed": true,
          "internalType": "address",
          "name": "helixERC20",
          "type": "address"
        }
      ],
      "name": "NewHelixERC20",
      "type": "event"
    },
    {
      "anonymous": false,
      "inputs": [
        {
          "indexed": true,
          "internalType": "uint256",
          "name": "amount",
          "type": "uint256"
        },
        {
          "indexed": true,
          "internalType": "address",
          "name": "token",
          "type": "address"
        }
      ],
      "name": "NewKNFTRewardBoost",
      "type": "event"
    },
    {
      "anonymous": false,
      "inputs": [
        {
          "indexed": true,
          "internalType": "uint256",
          "name": "amount",
          "type": "uint256"
        },
        {
          "indexed": true,
          "internalType": "address",
          "name": "token",
          "type": "address"
        }
      ],
      "name": "NewKNFTRewardBoostDivisor",
      "type": "event"
    },
    {
      "anonymous": false,
      "inputs": [
        {
          "indexed": true,
          "internalType": "address",
          "name": "konduxERC721Founders",
          "type": "address"
        }
      ],
      "name": "NewKonduxERC721Founders",
      "type": "event"
    },
    {
      "anonymous": false,
      "inputs": [
        {
          "indexed": true,
          "internalType": "address",
          "name": "konduxERC721kNFT",
          "type": "address"
        }
      ],
      "name": "NewKonduxERC721kNFT",
      "type": "event"
    },
    {
      "anonymous": false,
      "inputs": [
        {
          "indexed": true,
          "internalType": "uint256",
          "name": "amount",
          "type": "uint256"
        },
        {
          "indexed": true,
          "internalType": "address",
          "name": "token",
          "type": "address"
        }
      ],
      "name": "NewMinStake",
      "type": "event"
    },
    {
      "anonymous": false,
      "inputs": [
        {
          "indexed": true,
          "internalType": "uint256",
          "name": "amount",
          "type": "uint256"
        },
        {
          "indexed": true,
          "internalType": "address",
          "name": "token",
          "type": "address"
        }
      ],
      "name": "NewRatio",
      "type": "event"
    },
    {
      "anonymous": false,
      "inputs": [
        {
          "indexed": true,
          "internalType": "uint256",
          "name": "amount",
          "type": "uint256"
        },
        {
          "indexed": true,
          "internalType": "address",
          "name": "token",
          "type": "address"
        }
      ],
      "name": "NewRewardsPerHour",
      "type": "event"
    },
    {
      "anonymous": false,
      "inputs": [
        {
          "indexed": true,
          "internalType": "address",
          "name": "treasury",
          "type": "address"
        }
      ],
      "name": "NewTreasury",
      "type": "event"
    },
    {
      "anonymous": false,
      "inputs": [
        {
          "indexed": true,
          "internalType": "uint256",
          "name": "amount",
          "type": "uint256"
        },
        {
          "indexed": true,
          "internalType": "address",
          "name": "token",
          "type": "address"
        }
      ],
      "name": "NewWithdrawalFee",
      "type": "event"
    },
    {
      "anonymous": false,
      "inputs": [
        {
          "indexed": true,
          "internalType": "uint256",
          "name": "amount",
          "type": "uint256"
        },
        {
          "indexed": true,
          "internalType": "address",
          "name": "token",
          "type": "address"
        }
      ],
      "name": "NewWithdrawalFeeDivisor",
      "type": "event"
    },
    {
      "anonymous": false,
      "inputs": [
        {
          "indexed": true,
          "internalType": "address",
          "name": "staker",
          "type": "address"
        },
        {
          "indexed": false,
          "internalType": "uint256",
          "name": "amount",
          "type": "uint256"
        }
      ],
      "name": "Reward",
      "type": "event"
    },
    {
      "anonymous": false,
      "inputs": [
        {
          "indexed": true,
          "internalType": "uint256",
          "name": "id",
          "type": "uint256"
        },
        {
          "indexed": true,
          "internalType": "address",
          "name": "staker",
          "type": "address"
        },
        {
          "indexed": false,
          "internalType": "address",
          "name": "token",
          "type": "address"
        },
        {
          "indexed": false,
          "internalType": "uint256",
          "name": "amount",
          "type": "uint256"
        }
      ],
      "name": "Stake",
      "type": "event"
    },
    {
      "anonymous": false,
      "inputs": [
        {
          "indexed": true,
          "internalType": "address",
          "name": "staker",
          "type": "address"
        },
        {
          "indexed": false,
          "internalType": "uint256",
          "name": "amount",
          "type": "uint256"
        }
      ],
      "name": "Unstake",
      "type": "event"
    },
    {
      "anonymous": false,
      "inputs": [
        {
          "indexed": true,
          "internalType": "address",
          "name": "staker",
          "type": "address"
        },
        {
          "indexed": false,
          "internalType": "uint256",
          "name": "amount",
          "type": "uint256"
        }
      ],
      "name": "Withdraw",
      "type": "event"
    },
    {
      "anonymous": false,
      "inputs": [
        {
          "indexed": true,
          "internalType": "address",
          "name": "staker",
          "type": "address"
        },
        {
          "indexed": false,
          "internalType": "uint256",
          "name": "amount",
          "type": "uint256"
        }
      ],
      "name": "WithdrawAll",
      "type": "event"
    },
    {
      "inputs": [
        {
          "internalType": "address",
          "name": "_token",
          "type": "address"
        },
        {
          "internalType": "uint256",
          "name": "_rewardsPerHour",
          "type": "uint256"
        },
        {
          "internalType": "uint256",
          "name": "_compoundFreq",
          "type": "uint256"
        },
        {
          "internalType": "uint256",
          "name": "_withdrawalFee",
          "type": "uint256"
        },
        {
          "internalType": "uint256",
          "name": "_withdrawalFeeDivisor",
          "type": "uint256"
        },
        {
          "internalType": "uint256",
          "name": "_foundersRewardBoost",
          "type": "uint256"
        },
        {
          "internalType": "uint256",
          "name": "_foundersRewardBoostDivisor",
          "type": "uint256"
        },
        {
          "internalType": "uint256",
          "name": "_kNFTRewardBoost",
          "type": "uint256"
        },
        {
          "internalType": "uint256",
          "name": "_kNFTRewardBoostDivisor",
          "type": "uint256"
        },
        {
          "internalType": "uint256",
          "name": "_ratio",
          "type": "uint256"
        },
        {
          "internalType": "uint256",
          "name": "_minStake",
          "type": "uint256"
        }
      ],
      "name": "addNewStakingToken",
      "outputs": [],
      "stateMutability": "nonpayable",
      "type": "function"
    },
    {
      "inputs": [],
      "name": "authority",
      "outputs": [
        {
          "internalType": "contract IAuthority",
          "name": "",
          "type": "address"
        }
      ],
      "stateMutability": "view",
      "type": "function"
    },
    {
      "inputs": [
        {
          "internalType": "address",
          "name": "",
          "type": "address"
        }
      ],
      "name": "authorizedERC20",
      "outputs": [
        {
          "internalType": "bool",
          "name": "",
          "type": "bool"
        }
      ],
      "stateMutability": "view",
      "type": "function"
    },
    {
      "inputs": [
        {
          "internalType": "address",
          "name": "_staker",
          "type": "address"
        },
        {
          "internalType": "uint256",
          "name": "_depositId",
          "type": "uint256"
        }
      ],
      "name": "calculateRewards",
      "outputs": [
        {
          "internalType": "uint256",
          "name": "rewards",
          "type": "uint256"
        }
      ],
      "stateMutability": "view",
      "type": "function"
    },
    {
      "inputs": [
        {
          "internalType": "uint256",
          "name": "_depositId",
          "type": "uint256"
        }
      ],
      "name": "claimRewards",
      "outputs": [],
      "stateMutability": "nonpayable",
      "type": "function"
    },
    {
      "inputs": [
        {
          "internalType": "address",
          "name": "",
          "type": "address"
        }
      ],
      "name": "compoundFreqERC20",
      "outputs": [
        {
          "internalType": "uint256",
          "name": "",
          "type": "uint256"
        }
      ],
      "stateMutability": "view",
      "type": "function"
    },
    {
      "inputs": [
        {
          "internalType": "uint256",
          "name": "_depositId",
          "type": "uint256"
        }
      ],
      "name": "compoundRewardsTimer",
      "outputs": [
        {
          "internalType": "uint256",
          "name": "_timer",
          "type": "uint256"
        }
      ],
      "stateMutability": "view",
      "type": "function"
    },
    {
      "inputs": [
        {
          "internalType": "uint256",
          "name": "_amount",
          "type": "uint256"
        },
        {
          "internalType": "uint8",
          "name": "_timelock",
          "type": "uint8"
        },
        {
          "internalType": "address",
          "name": "_token",
          "type": "address"
        }
      ],
      "name": "deposit",
      "outputs": [
        {
          "internalType": "uint256",
          "name": "",
          "type": "uint256"
        }
      ],
      "stateMutability": "nonpayable",
      "type": "function"
    },
    {
      "inputs": [
        {
          "internalType": "address",
          "name": "",
          "type": "address"
        }
      ],
      "name": "foundersRewardBoostDivisorERC20",
      "outputs": [
        {
          "internalType": "uint256",
          "name": "",
          "type": "uint256"
        }
      ],
      "stateMutability": "view",
      "type": "function"
    },
    {
      "inputs": [
        {
          "internalType": "address",
          "name": "",
          "type": "address"
        }
      ],
      "name": "foundersRewardBoostERC20",
      "outputs": [
        {
          "internalType": "uint256",
          "name": "",
          "type": "uint256"
        }
      ],
      "stateMutability": "view",
      "type": "function"
    },
    {
      "inputs": [
        {
          "internalType": "address",
          "name": "_user",
          "type": "address"
        }
      ],
      "name": "getDepositIds",
      "outputs": [
        {
          "internalType": "uint256[]",
          "name": "",
          "type": "uint256[]"
        }
      ],
      "stateMutability": "view",
      "type": "function"
    },
    {
      "inputs": [
        {
          "internalType": "uint256",
          "name": "_depositId",
          "type": "uint256"
        }
      ],
      "name": "getDepositInfo",
      "outputs": [
        {
          "internalType": "uint256",
          "name": "_stake",
          "type": "uint256"
        },
        {
          "internalType": "uint256",
          "name": "_rewards",
          "type": "uint256"
        }
      ],
      "stateMutability": "view",
      "type": "function"
    },
    {
      "inputs": [
        {
          "internalType": "address",
          "name": "_tokenId",
          "type": "address"
        }
      ],
      "name": "getFoundersRewardBoost",
      "outputs": [
        {
          "internalType": "uint256",
          "name": "_foundersRewardBoost",
          "type": "uint256"
        }
      ],
      "stateMutability": "view",
      "type": "function"
    },
    {
      "inputs": [
        {
          "internalType": "address",
          "name": "_tokenId",
          "type": "address"
        }
      ],
      "name": "getFoundersRewardBoostDenominator",
      "outputs": [
        {
          "internalType": "uint256",
          "name": "_foundersRewardBoostDivisor",
          "type": "uint256"
        }
      ],
      "stateMutability": "view",
      "type": "function"
    },
    {
      "inputs": [
        {
          "internalType": "address",
          "name": "_tokenId",
          "type": "address"
        }
      ],
      "name": "getKnftRewardBoostDenominator",
      "outputs": [
        {
          "internalType": "uint256",
          "name": "_kNFTRewardBoostDivisor",
          "type": "uint256"
        }
      ],
      "stateMutability": "view",
      "type": "function"
    },
    {
      "inputs": [
        {
          "internalType": "address",
          "name": "_tokenId",
          "type": "address"
        }
      ],
      "name": "getMinStake",
      "outputs": [
        {
          "internalType": "uint256",
          "name": "_minStake",
          "type": "uint256"
        }
      ],
      "stateMutability": "view",
      "type": "function"
    },
    {
      "inputs": [
        {
          "internalType": "address",
          "name": "_tokenId",
          "type": "address"
        }
      ],
      "name": "getRewardsPerHour",
      "outputs": [
        {
          "internalType": "uint256",
          "name": "_rewardsPerHour",
          "type": "uint256"
        }
      ],
      "stateMutability": "view",
      "type": "function"
    },
    {
      "inputs": [
        {
          "internalType": "uint256",
          "name": "_depositId",
          "type": "uint256"
        }
      ],
      "name": "getStakedAmount",
      "outputs": [
        {
          "internalType": "uint256",
          "name": "_deposited",
          "type": "uint256"
        }
      ],
      "stateMutability": "view",
      "type": "function"
    },
    {
      "inputs": [
        {
          "internalType": "uint256",
          "name": "_depositId",
          "type": "uint256"
        }
      ],
      "name": "getTimeOfLastUpdate",
      "outputs": [
        {
          "internalType": "uint256",
          "name": "_timeOfLastUpdate",
          "type": "uint256"
        }
      ],
      "stateMutability": "view",
      "type": "function"
    },
    {
      "inputs": [
        {
          "internalType": "uint256",
          "name": "_depositId",
          "type": "uint256"
        }
      ],
      "name": "getTimelock",
      "outputs": [
        {
          "internalType": "uint256",
          "name": "_timelock",
          "type": "uint256"
        }
      ],
      "stateMutability": "view",
      "type": "function"
    },
    {
      "inputs": [
        {
          "internalType": "uint256",
          "name": "_depositId",
          "type": "uint256"
        }
      ],
      "name": "getTimelockCategory",
      "outputs": [
        {
          "internalType": "uint8",
          "name": "_timelockCategory",
          "type": "uint8"
        }
      ],
      "stateMutability": "view",
      "type": "function"
    },
    {
      "inputs": [
        {
          "internalType": "address",
          "name": "_tokenId",
          "type": "address"
        }
      ],
      "name": "getWithdrawalFee",
      "outputs": [
        {
          "internalType": "uint256",
          "name": "_withdrawalFee",
          "type": "uint256"
        }
      ],
      "stateMutability": "view",
      "type": "function"
    },
    {
      "inputs": [
        {
          "internalType": "address",
          "name": "_tokenId",
          "type": "address"
        }
      ],
      "name": "getWithdrawalFeeDivisor",
      "outputs": [
        {
          "internalType": "uint256",
          "name": "_withdrawalFeeDivisor",
          "type": "uint256"
        }
      ],
      "stateMutability": "view",
      "type": "function"
    },
    {
      "inputs": [
        {
          "internalType": "address",
          "name": "_tokenId",
          "type": "address"
        }
      ],
      "name": "getkNFTRewardBoost",
      "outputs": [
        {
          "internalType": "uint256",
          "name": "_kNFTRewardBoost",
          "type": "uint256"
        }
      ],
      "stateMutability": "view",
      "type": "function"
    },
    {
      "inputs": [],
      "name": "helixERC20",
      "outputs": [
        {
          "internalType": "contract IHelix",
          "name": "",
          "type": "address"
        }
      ],
      "stateMutability": "view",
      "type": "function"
    },
    {
      "inputs": [
        {
          "internalType": "address",
          "name": "",
          "type": "address"
        }
      ],
      "name": "kNFTRewardBoostDivisorERC20",
      "outputs": [
        {
          "internalType": "uint256",
          "name": "",
          "type": "uint256"
        }
      ],
      "stateMutability": "view",
      "type": "function"
    },
    {
      "inputs": [
        {
          "internalType": "address",
          "name": "",
          "type": "address"
        }
      ],
      "name": "kNFTRewardBoostERC20",
      "outputs": [
        {
          "internalType": "uint256",
          "name": "",
          "type": "uint256"
        }
      ],
      "stateMutability": "view",
      "type": "function"
    },
    {
      "inputs": [],
      "name": "konduxERC721Founders",
      "outputs": [
        {
          "internalType": "contract IERC721",
          "name": "",
          "type": "address"
        }
      ],
      "stateMutability": "view",
      "type": "function"
    },
    {
      "inputs": [],
      "name": "konduxERC721kNFT",
      "outputs": [
        {
          "internalType": "contract IERC721",
          "name": "",
          "type": "address"
        }
      ],
      "stateMutability": "view",
      "type": "function"
    },
    {
      "inputs": [
        {
          "internalType": "address",
          "name": "",
          "type": "address"
        }
      ],
      "name": "minStakeERC20",
      "outputs": [
        {
          "internalType": "uint256",
          "name": "",
          "type": "uint256"
        }
      ],
      "stateMutability": "view",
      "type": "function"
    },
    {
      "inputs": [
        {
          "internalType": "address",
          "name": "",
          "type": "address"
        }
      ],
      "name": "name",
      "outputs": [
        {
          "internalType": "uint256",
          "name": "",
          "type": "uint256"
        }
      ],
      "stateMutability": "view",
      "type": "function"
    },
    {
      "inputs": [
        {
          "internalType": "address",
          "name": "",
          "type": "address"
        }
      ],
      "name": "ratioERC20",
      "outputs": [
        {
          "internalType": "uint256",
          "name": "",
          "type": "uint256"
        }
      ],
      "stateMutability": "view",
      "type": "function"
    },
    {
      "inputs": [
        {
          "internalType": "address",
          "name": "",
          "type": "address"
        }
      ],
      "name": "rewardsPerHourERC20",
      "outputs": [
        {
          "internalType": "uint256",
          "name": "",
          "type": "uint256"
        }
      ],
      "stateMutability": "view",
      "type": "function"
    },
    {
      "inputs": [
        {
          "internalType": "contract IAuthority",
          "name": "_newAuthority",
          "type": "address"
        }
      ],
      "name": "setAuthority",
      "outputs": [],
      "stateMutability": "nonpayable",
      "type": "function"
    },
    {
      "inputs": [
        {
          "internalType": "address",
          "name": "_token",
          "type": "address"
        },
        {
          "internalType": "bool",
          "name": "_authorized",
          "type": "bool"
        }
      ],
      "name": "setAuthorizedERC20",
      "outputs": [],
      "stateMutability": "nonpayable",
      "type": "function"
    },
    {
      "inputs": [
        {
          "internalType": "uint256",
          "name": "_compoundFreq",
          "type": "uint256"
        },
        {
          "internalType": "address",
          "name": "_tokenId",
          "type": "address"
        }
      ],
      "name": "setCompoundFreq",
      "outputs": [],
      "stateMutability": "nonpayable",
      "type": "function"
    },
    {
      "inputs": [
        {
          "internalType": "uint256",
          "name": "_foundersRewardBoost",
          "type": "uint256"
        },
        {
          "internalType": "address",
          "name": "_tokenId",
          "type": "address"
        }
      ],
      "name": "setFoundersRewardBoost",
      "outputs": [],
      "stateMutability": "nonpayable",
      "type": "function"
    },
    {
      "inputs": [
        {
          "internalType": "uint256",
          "name": "_foundersRewardBoostDivisor",
          "type": "uint256"
        },
        {
          "internalType": "address",
          "name": "_tokenId",
          "type": "address"
        }
      ],
      "name": "setFoundersRewardBoostDivisor",
      "outputs": [],
      "stateMutability": "nonpayable",
      "type": "function"
    },
    {
      "inputs": [
        {
          "internalType": "address",
          "name": "_helix",
          "type": "address"
        }
      ],
      "name": "setHelixERC20",
      "outputs": [],
      "stateMutability": "nonpayable",
      "type": "function"
    },
    {
      "inputs": [
        {
          "internalType": "address",
          "name": "_konduxERC721Founders",
          "type": "address"
        }
      ],
      "name": "setKonduxERC721Founders",
      "outputs": [],
      "stateMutability": "nonpayable",
      "type": "function"
    },
    {
      "inputs": [
        {
          "internalType": "address",
          "name": "_konduxERC721kNFT",
          "type": "address"
        }
      ],
      "name": "setKonduxERC721kNFT",
      "outputs": [],
      "stateMutability": "nonpayable",
      "type": "function"
    },
    {
      "inputs": [
        {
          "internalType": "uint256",
          "name": "_minStake",
          "type": "uint256"
        },
        {
          "internalType": "address",
          "name": "_tokenId",
          "type": "address"
        }
      ],
      "name": "setMinStake",
      "outputs": [],
      "stateMutability": "nonpayable",
      "type": "function"
    },
    {
      "inputs": [
        {
          "internalType": "uint256",
          "name": "_ratio",
          "type": "uint256"
        },
        {
          "internalType": "address",
          "name": "_tokenId",
          "type": "address"
        }
      ],
      "name": "setRatio",
      "outputs": [],
      "stateMutability": "nonpayable",
      "type": "function"
    },
    {
      "inputs": [
        {
          "internalType": "uint256",
          "name": "_rewardsPerHour",
          "type": "uint256"
        },
        {
          "internalType": "address",
          "name": "_tokenId",
          "type": "address"
        }
      ],
      "name": "setRewards",
      "outputs": [],
      "stateMutability": "nonpayable",
      "type": "function"
    },
    {
      "inputs": [
        {
          "internalType": "uint256",
          "name": "_rewardsPerHour",
          "type": "uint256"
        },
        {
          "internalType": "address",
          "name": "_tokenId",
          "type": "address"
        }
      ],
      "name": "setRewardsPerHour",
      "outputs": [],
      "stateMutability": "nonpayable",
      "type": "function"
    },
    {
      "inputs": [
        {
          "internalType": "address",
          "name": "_treasury",
          "type": "address"
        }
      ],
      "name": "setTreasury",
      "outputs": [],
      "stateMutability": "nonpayable",
      "type": "function"
    },
    {
      "inputs": [
        {
          "internalType": "uint256",
          "name": "_withdrawalFee",
          "type": "uint256"
        },
        {
          "internalType": "address",
          "name": "_tokenId",
          "type": "address"
        }
      ],
      "name": "setWithdrawalFee",
      "outputs": [],
      "stateMutability": "nonpayable",
      "type": "function"
    },
    {
      "inputs": [
        {
          "internalType": "uint256",
          "name": "_withdrawalFeeDivisor",
          "type": "uint256"
        },
        {
          "internalType": "address",
          "name": "_tokenId",
          "type": "address"
        }
      ],
      "name": "setWithdrawalFeeDivisor",
      "outputs": [],
      "stateMutability": "nonpayable",
      "type": "function"
    },
    {
      "inputs": [
        {
          "internalType": "uint256",
          "name": "_kNFTRewardBoost",
          "type": "uint256"
        },
        {
          "internalType": "address",
          "name": "_tokenId",
          "type": "address"
        }
      ],
      "name": "setkNFTRewardBoost",
      "outputs": [],
      "stateMutability": "nonpayable",
      "type": "function"
    },
    {
      "inputs": [
        {
          "internalType": "uint256",
          "name": "_kNFTRewardBoostDivisor",
          "type": "uint256"
        },
        {
          "internalType": "address",
          "name": "_tokenId",
          "type": "address"
        }
      ],
      "name": "setkNFTRewardBoostDivisor",
      "outputs": [],
      "stateMutability": "nonpayable",
      "type": "function"
    },
    {
      "inputs": [
        {
          "internalType": "uint256",
          "name": "_depositId",
          "type": "uint256"
        }
      ],
      "name": "stakeRewards",
      "outputs": [],
      "stateMutability": "nonpayable",
      "type": "function"
    },
    {
      "inputs": [],
      "name": "treasury",
      "outputs": [
        {
          "internalType": "contract ITreasury",
          "name": "",
          "type": "address"
        }
      ],
      "stateMutability": "view",
      "type": "function"
    },
    {
      "inputs": [
        {
          "internalType": "uint256",
          "name": "",
          "type": "uint256"
        }
      ],
      "name": "userDeposits",
      "outputs": [
        {
          "internalType": "address",
          "name": "token",
          "type": "address"
        },
        {
          "internalType": "address",
          "name": "staker",
          "type": "address"
        },
        {
          "internalType": "uint256",
          "name": "deposited",
          "type": "uint256"
        },
        {
          "internalType": "uint256",
          "name": "redeemed",
          "type": "uint256"
        },
        {
          "internalType": "uint256",
          "name": "timeOfLastUpdate",
          "type": "uint256"
        },
        {
          "internalType": "uint256",
          "name": "lastDepositTime",
          "type": "uint256"
        },
        {
          "internalType": "uint256",
          "name": "unclaimedRewards",
          "type": "uint256"
        },
        {
          "internalType": "uint256",
          "name": "timelock",
          "type": "uint256"
        },
        {
          "internalType": "uint8",
          "name": "timelockCategory",
          "type": "uint8"
        }
      ],
      "stateMutability": "view",
      "type": "function"
    },
    {
      "inputs": [
        {
          "internalType": "address",
          "name": "",
          "type": "address"
        },
        {
          "internalType": "uint256",
          "name": "",
          "type": "uint256"
        }
      ],
      "name": "userDepositsIds",
      "outputs": [
        {
          "internalType": "uint256",
          "name": "",
          "type": "uint256"
        }
      ],
      "stateMutability": "view",
      "type": "function"
    },
    {
      "inputs": [
        {
          "internalType": "uint256",
          "name": "_amount",
          "type": "uint256"
        },
        {
          "internalType": "uint256",
          "name": "_depositId",
          "type": "uint256"
        }
      ],
      "name": "withdraw",
      "outputs": [],
      "stateMutability": "nonpayable",
      "type": "function"
    },
    {
      "inputs": [
        {
          "internalType": "uint256",
          "name": "_amount",
          "type": "uint256"
        },
        {
          "internalType": "uint256",
          "name": "_depositId",
          "type": "uint256"
        }
      ],
      "name": "withdrawAndClaim",
      "outputs": [],
      "stateMutability": "nonpayable",
      "type": "function"
    },
    {
      "inputs": [
        {
          "internalType": "address",
          "name": "",
          "type": "address"
        }
      ],
      "name": "withdrawalFeeDivisorERC20",
      "outputs": [
        {
          "internalType": "uint256",
          "name": "",
          "type": "uint256"
        }
      ],
      "stateMutability": "view",
      "type": "function"
    },
    {
      "inputs": [
        {
          "internalType": "address",
          "name": "",
          "type": "address"
        }
      ],
      "name": "withdrawalFeeERC20",
      "outputs": [
        {
          "internalType": "uint256",
          "name": "",
          "type": "uint256"
        }
      ],
      "stateMutability": "view",
      "type": "function"
    }
  ],
  "transactionHash": "0xd583c0ffa4fb4a9b88151cfadc860aeff3b651bc97c37d28ab01430d7f291b47",
  "args": [
    "0x348e88f388417Cb86cE2359b4108692ce43c6D85",
    "0xa38be15583760ad08910d77dD36D7AfC33686B46",
    "0x3769a9AA75f498c4b10d7d6c742B276Aa7DFb317",
    "0xA9a8Df76f6843D21EbB91A788008827D63b164B6",
    "0xc7ab3c66F17F9736DD98E651aB524b436212d6Ff",
    "0x3E9f47633BBDAb63E886ABa5eA3a931D368580EF"
  ],
  "numDeployments": 15,
  "solcInputHash": "b9bf2f77eacab1d922bfa97da5a3e872",
  "bytecode": "0x60806040523480156200001157600080fd5b5060405162004a7738038062004a77833981016040819052620000349162000d48565b856001600160a01b038116620000915760405162461bcd60e51b815260206004820181905260248201527f417574686f726974792063616e6e6f74206265207a65726f206164647265737360448201526064015b60405180910390fd5b600080546001600160a01b0319166001600160a01b0383169081179091556040519081527f2f658b440c35314f52658ea8a740e05b284cdc84dc9ae01e891f21b8933e7cad9060200160405180910390a1506001600160a01b0385166200013b5760405162461bcd60e51b815260206004820152601f60248201527f4b6f6e6475782045524332302061646472657373206973206e6f742073657400604482015260640162000088565b6001600160a01b038416620001935760405162461bcd60e51b815260206004820152601b60248201527f54726561737572792061646472657373206973206e6f74207365740000000000604482015260640162000088565b601180546001600160a01b038086166001600160a01b03199283161790925560128054858416908316179055601080548484169083161790556013805492871692909116919091179055620001ec62989680866200028a565b620001fb6298968086620002da565b6200020a62989680866200032a565b62000219620186a0866200037a565b6200022862a7d8c08662000444565b620002376207a1208662000494565b620002466298968086620004e4565b6200025461011d8662000534565b62000263620151808662000584565b6200027161271086620005d4565b6200027e85600162000624565b50505050505062000e08565b6200029462000c60565b6001600160a01b0381166000818152600a60205260408082208590555184917f3bdd25ee6c72097873ae6536b32d2c78439a093fa54f9091c324f0a2140a880291a35050565b620002e462000c60565b6001600160a01b0381166000818152600c60205260408082208590555184917fe0e7eacc628163b5a3362ddd2e66b5c7f729ed892e22b82931952c274f22a95191a35050565b6200033462000c60565b6001600160a01b0381166000818152600e60205260408082208590555184917f583cc649b350d69beed18d7047064d367c82831d16e65d08ff74b549dff2d0ec91a35050565b6200038462000c60565b6001600160a01b0381166000908152600a6020526040902054821115620003fe5760405162461bcd60e51b815260206004820152602760248201527f5769746864726177616c206665652063616e6e6f74206265206d6f7265207468604482015266616e203130302560c81b606482015260840162000088565b6001600160a01b0381166000818152600960205260408082208590555184917f5d5169bb1fbf418e612b1934f181b6ce300a1aad27fdb0e6f6aadbd96f50bb8f91a35050565b6200044e62000c60565b6001600160a01b0381166000818152600b60205260408082208590555184917f1677c34b69a09796446af7a4c75943a1bb36202c16eb82199ef7d37d0ee4b28891a35050565b6200049e62000c60565b6001600160a01b0381166000818152600d60205260408082208590555184917f11ef1060a695a1277b08edcbb2c364d43d4eb52f1060daaabf0df445cb6cdfdf91a35050565b620004ee62000c60565b6001600160a01b0381166000818152600660205260408082208590555184917fef3cb734d88702dbb1c3bc381c52176876be95e70b66d3970d16653ee992a6c291a35050565b6200053e62000c60565b6001600160a01b0381166000818152600860205260408082208590555184917f8803800ab9d24dc1e2a2ada0893efb7b8fc19c55fddd9512c239b276e7f532fd91a35050565b6200058e62000c60565b6001600160a01b0381166000818152600760205260408082208590555184917fd0d3d840363c3a773f4578f92d7914f6b37985570c79ee2889d69d7d8f12c29591a35050565b620005de62000c60565b6001600160a01b0381166000818152600f60205260408082208590555184917f62b574cc62ed3db0ae736cb4349346a234832cc8b215c6423fd67505addc2ffa91a35050565b6001600160a01b0382166200067c5760405162461bcd60e51b815260206004820152601b60248201527f546f6b656e20616464726573732063616e6e6f74206265203078300000000000604482015260640162000088565b80151560010362000c0c576001600160a01b038216600090815260086020526040902054620006fe5760405162461bcd60e51b815260206004820152602760248201527f526577617264732070657220686f7572206d75737420626520677265617465726044820152660207468616e20360cc1b606482015260840162000088565b6001600160a01b038216600090815260076020526040902054620007775760405162461bcd60e51b815260206004820152602960248201527f436f6d706f756e64206672657175656e6379206d75737420626520677265617460448201526806572207468616e20360bc1b606482015260840162000088565b6001600160a01b038216600090815260096020526040902054620007ec5760405162461bcd60e51b815260206004820152602560248201527f5769746864726177616c20666565206d75737420626520677265617465722074604482015264068616e20360dc1b606482015260840162000088565b6001600160a01b0382166000908152600a6020526040902054620008695760405162461bcd60e51b815260206004820152602d60248201527f5769746864726177616c206665652064697669736f72206d757374206265206760448201526c0726561746572207468616e203609c1b606482015260840162000088565b6001600160a01b0382166000908152600b6020526040902054620008e55760405162461bcd60e51b815260206004820152602c60248201527f466f756e646572732072657761726420626f6f7374206d75737420626520677260448201526b06561746572207468616e20360a41b606482015260840162000088565b6001600160a01b0382166000908152600c6020526040902054620009725760405162461bcd60e51b815260206004820152603460248201527f466f756e646572732072657761726420626f6f73742064697669736f72206d7560448201527f73742062652067726561746572207468616e2030000000000000000000000000606482015260840162000088565b6001600160a01b0382166000908152600d6020526040902054620009ea5760405162461bcd60e51b815260206004820152602860248201527f6b4e46542072657761726420626f6f7374206d75737420626520677265617465604482015267072207468616e20360c41b606482015260840162000088565b6001600160a01b0382166000908152600e602052604090205462000a6a5760405162461bcd60e51b815260206004820152603060248201527f6b4e46542072657761726420626f6f73742064697669736f72206d757374206260448201526f0652067726561746572207468616e20360841b606482015260840162000088565b6001600160a01b0382166000908152600f602052604090205462000ad15760405162461bcd60e51b815260206004820152601c60248201527f526174696f206d7573742062652067726561746572207468616e203000000000604482015260640162000088565b6001600160a01b03821660009081526006602052604090205462000b445760405162461bcd60e51b8152602060048201526024808201527f4d696e696d756d207374616b65206d75737420626520677265617465722074686044820152630616e20360e41b606482015260840162000088565b6000826001600160a01b03166318160ddd6040518163ffffffff1660e01b8152600401602060405180830381865afa15801562000b85573d6000803e3d6000fd5b505050506040513d601f19601f8201168201806040525081019062000bab919062000dc9565b1162000c0c5760405162461bcd60e51b815260206004820152602960248201527f546f6b656e20746f74616c20737570706c79206d75737420626520677265617460448201526806572207468616e20360bc1b606482015260840162000088565b6001600160a01b038216600081815260056020526040808220805460ff191685151590811790915590519092917f59261974a183535ca20bb33ae77db42c679a079844739a2e10f0b6ecb847379a91a35050565b60008054906101000a90046001600160a01b03166001600160a01b0316630c340a246040518163ffffffff1660e01b8152600401602060405180830381865afa15801562000cb2573d6000803e3d6000fd5b505050506040513d601f19601f8201168201806040525081019062000cd8919062000de3565b6001600160a01b0316336001600160a01b03161462000d295760405162461bcd60e51b815260206004820152600c60248201526b15539055551213d49256915160a21b604482015260640162000088565b565b80516001600160a01b038116811462000d4357600080fd5b919050565b60008060008060008060c0878903121562000d6257600080fd5b62000d6d8762000d2b565b955062000d7d6020880162000d2b565b945062000d8d6040880162000d2b565b935062000d9d6060880162000d2b565b925062000dad6080880162000d2b565b915062000dbd60a0880162000d2b565b90509295509295509295565b60006020828403121562000ddc57600080fd5b5051919050565b60006020828403121562000df657600080fd5b62000e018262000d2b565b9392505050565b613c5f8062000e186000396000f3fe608060405234801561001057600080fd5b506004361061038e5760003560e01c806372aa9d91116101de578063bf811fbc1161010f578063d55111c5116100ad578063ea425a6d1161007c578063ea425a6d14610963578063f0f4426014610983578063f16b41f414610996578063fa2176b614610a5157600080fd5b8063d55111c514610914578063d9831a721461058d578063e37d47e414610927578063e519cf171461093a57600080fd5b8063c5ebc2f7116100e9578063c5ebc2f7146108a5578063cd5f5a39146108c5578063cf717c8c146108ee578063cfb656a51461090157600080fd5b8063bf811fbc14610840578063c39ccf8814610853578063c4c3a83e1461087c57600080fd5b8063a55dfa1c1161017c578063b9c94b6711610156578063b9c94b67146107f4578063ba57714814610807578063beb8314c1461081a578063bf7e214f1461082d57600080fd5b8063a55dfa1c146107ae578063a9b29407146107c1578063b54b9c88146107d457600080fd5b80637bf7f3d3116101b85780637bf7f3d31461076257806387eebaea1461077557806396ca0b0014610788578063a13d50791461079b57600080fd5b806372aa9d911461071c57806378e2816b1461073c5780637a9e5e4b1461074f57600080fd5b80634477c974116102c35780635722dee01161026157806361316cb01161023057806361316cb0146106b657806361d027b3146106c95780636aa421b7146106dc5780636f3a4988146106fc57600080fd5b80635722dee014610613578063580e26a11461063c57806359b0e5901461066f5780635a5392be1461069357600080fd5b80634cae76e51161029d5780634cae76e51461058d5780635328c2bf146105a05780635385689c146105c8578063546f2b66146105f357600080fd5b80634477c9741461053e5780634715f40c146105515780634774dc931461057a57600080fd5b80631f6514db1161033057806338c26d181161030a57806338c26d18146104c05780633a46a46d146104f8578063404d221a14610518578063441a3e701461052b57600080fd5b80631f6514db1461047a57806328c964f61461048d57806331aab0f7146104ad57600080fd5b806310b184381161036c57806310b18438146103fb578063171f9ce41461041e5780631d034513146104315780631e78e9a21461045a57600080fd5b80630198489214610393578063038182a0146103c65780630962ef79146103e6575b600080fd5b6103b36103a13660046138ea565b60026020526000908152604090205481565b6040519081526020015b60405180910390f35b6103b36103d43660046138ea565b600a6020526000908152604090205481565b6103f96103f4366004613907565b610a7a565b005b6103b3610409366004613907565b60009081526004602052604090206007015490565b6103f961042c366004613920565b610de5565b6103b361043f3660046138ea565b6001600160a01b031660009081526008602052604090205490565b6103b36104683660046138ea565b600d6020526000908152604090205481565b6103f9610488366004613920565b610e33565b6103b361049b3660046138ea565b600e6020526000908152604090205481565b6103f96104bb366004613950565b610e81565b6104e66104ce366004613907565b60009081526004602052604090206008015460ff1690565b60405160ff90911681526020016103bd565b6103b36105063660046138ea565b600f6020526000908152604090205481565b6103f9610526366004613920565b6113f5565b6103f96105393660046139cb565b611443565b6103f961054c366004613907565b611db7565b6103b361055f3660046138ea565b6001600160a01b03166000908152600b602052604090205490565b6103b36105883660046139ed565b611fc7565b6103f961059b366004613920565b612659565b6105b36105ae366004613907565b6126a7565b604080519283526020830191909152016103bd565b6012546105db906001600160a01b031681565b6040516001600160a01b0390911681526020016103bd565b6103b36106013660046138ea565b600b6020526000908152604090205481565b6103b36106213660046138ea565b6001600160a01b031660009081526009602052604090205490565b61065f61064a3660046138ea565b60056020526000908152604090205460ff1681565b60405190151581526020016103bd565b6103b361067d366004613907565b6000908152600460208190526040909120015490565b6103b36106a1366004613907565b60009081526004602052604090206002015490565b6103f96106c4366004613920565b6126de565b6013546105db906001600160a01b031681565b6103b36106ea3660046138ea565b600c6020526000908152604090205481565b6103b361070a3660046138ea565b60086020526000908152604090205481565b6103b361072a3660046138ea565b60066020526000908152604090205481565b6103f961074a3660046138ea565b61272c565b6103f961075d3660046138ea565b6127d4565b6103f9610770366004613a43565b612830565b6103f96107833660046139cb565b612846565b6103f9610796366004613920565b612859565b6103f96107a9366004613920565b6128a7565b6103b36107bc366004613907565b6128f5565b6010546105db906001600160a01b031681565b6103b36107e23660046138ea565b60096020526000908152604090205481565b6103f9610802366004613920565b612989565b6103b3610815366004613a71565b6129d7565b6103b3610828366004613a71565b612a08565b6000546105db906001600160a01b031681565b6103f961084e3660046138ea565b612d7c565b6103b36108613660046138ea565b6001600160a01b031660009081526006602052604090205490565b6103b361088a3660046138ea565b6001600160a01b03166000908152600c602052604090205490565b6108b86108b33660046138ea565b612e24565b6040516103bd9190613a9d565b6103b36108d33660046138ea565b6001600160a01b03166000908152600a602052604090205490565b6103f96108fc366004613920565b612e90565b6103f961090f3660046138ea565b612f6c565b6011546105db906001600160a01b031681565b6103f9610935366004613920565b613014565b6103b36109483660046138ea565b6001600160a01b03166000908152600d602052604090205490565b6103b36109713660046138ea565b60076020526000908152604090205481565b6103f96109913660046138ea565b613062565b6109ff6109a4366004613907565b60046020819052600091825260409091208054600182015460028301546003840154948401546005850154600686015460078701546008909701546001600160a01b0396871698959096169693959293919290919060ff1689565b604080516001600160a01b039a8b1681529990981660208a0152968801959095526060870193909352608086019190915260a085015260c084015260e083015260ff16610100820152610120016103bd565b6103b3610a5f3660046138ea565b6001600160a01b03166000908152600e602052604090205490565b6000818152600460205260409020600101546001600160a01b03163314610af65760405162461bcd60e51b815260206004820152602560248201527f596f7520617265206e6f7420746865206f776e6572206f6620746869732064656044820152641c1bdcda5d60da1b60648201526084015b60405180910390fd5b600081815260046020526040902060070154421015610b575760405162461bcd60e51b815260206004820152601360248201527f54696d656c6f636b206e6f7420706173736564000000000000000000000000006044820152606401610aed565b600081815260046020526040812060060154610b733384612a08565b610b7d9190613af7565b905060008111610bcf5760405162461bcd60e51b815260206004820152601360248201527f596f752068617665206e6f2072657761726473000000000000000000000000006044820152606401610aed565b600082815260046020818152604080842060068101859055429381019390935560105492546001600160a01b039081168552600f90925290922054911690639dc29fac903390610c1f9085613b0a565b6040516001600160e01b031960e085901b1681526001600160a01b0390921660048301526024820152604401600060405180830381600087803b158015610c6557600080fd5b505af1158015610c79573d6000803e3d6000fd5b5050506000838152600460208181526040808420549354815163fbfa77cf60e01b815291516001600160a01b03958616965086956323b872dd9592169363fbfa77cf9380840193919291908290030181865afa158015610cdd573d6000803e3d6000fd5b505050506040513d601f19601f82011682018060405250810190610d019190613b21565b6000868152600460209081526040808320546001600160a01b03168352600f9091529020543390610d329087613b3e565b6040516001600160e01b031960e086901b1681526001600160a01b03938416600482015292909116602483015260448201526064016020604051808303816000875af1158015610d86573d6000803e3d6000fd5b505050506040513d601f19601f82011682018060405250810190610daa9190613b60565b5060405182815233907f619caafabdd75649b302ba8419e48cccf64f37f1983ac4727cfb38b57703ffc99060200160405180910390a2505050565b610ded61310a565b6001600160a01b0381166000818152600f60205260408082208590555184917f62b574cc62ed3db0ae736cb4349346a234832cc8b215c6423fd67505addc2ffa91a35050565b610e3b61310a565b6001600160a01b0381166000818152600b60205260408082208590555184917f1677c34b69a09796446af7a4c75943a1bb36202c16eb82199ef7d37d0ee4b28891a35050565b610e8961310a565b6001600160a01b038b16610edf5760405162461bcd60e51b815260206004820152601b60248201527f546f6b656e20616464726573732063616e6e6f742062652030783000000000006044820152606401610aed565b60008a11610f3f5760405162461bcd60e51b815260206004820152602760248201527f526577617264732070657220686f7572206d75737420626520677265617465726044820152660207468616e20360cc1b6064820152608401610aed565b60008911610fa15760405162461bcd60e51b815260206004820152602960248201527f436f6d706f756e64206672657175656e6379206d75737420626520677265617460448201526806572207468616e20360bc1b6064820152608401610aed565b60008811610fff5760405162461bcd60e51b815260206004820152602560248201527f5769746864726177616c20666565206d75737420626520677265617465722074604482015264068616e20360dc1b6064820152608401610aed565b600087116110655760405162461bcd60e51b815260206004820152602d60248201527f5769746864726177616c206665652064697669736f72206d757374206265206760448201526c0726561746572207468616e203609c1b6064820152608401610aed565b600086116110ca5760405162461bcd60e51b815260206004820152602c60248201527f466f756e646572732072657761726420626f6f7374206d75737420626520677260448201526b06561746572207468616e20360a41b6064820152608401610aed565b600085116111405760405162461bcd60e51b815260206004820152603460248201527f466f756e646572732072657761726420626f6f73742064697669736f72206d7560448201527f73742062652067726561746572207468616e20300000000000000000000000006064820152608401610aed565b600084116111a15760405162461bcd60e51b815260206004820152602860248201527f6b4e46542072657761726420626f6f7374206d75737420626520677265617465604482015267072207468616e20360c41b6064820152608401610aed565b6000831161120a5760405162461bcd60e51b815260206004820152603060248201527f6b4e46542072657761726420626f6f73742064697669736f72206d757374206260448201526f0652067726561746572207468616e20360841b6064820152608401610aed565b6000821161125a5760405162461bcd60e51b815260206004820152601c60248201527f526174696f206d7573742062652067726561746572207468616e2030000000006044820152606401610aed565b600081116112b65760405162461bcd60e51b8152602060048201526024808201527f4d696e696d756d207374616b65206d75737420626520677265617465722074686044820152630616e20360e41b6064820152608401610aed565b60008b6001600160a01b03166318160ddd6040518163ffffffff1660e01b8152600401602060405180830381865afa1580156112f6573d6000803e3d6000fd5b505050506040513d601f19601f8201168201806040525081019061131a9190613b7d565b116113795760405162461bcd60e51b815260206004820152602960248201527f546f6b656e20746f74616c20737570706c79206d75737420626520677265617460448201526806572207468616e20360bc1b6064820152608401610aed565b611383878c6126de565b61138d858c612989565b611397838c612859565b6113a1868c610e33565b6113ab848c6128a7565b6113b58a8c612659565b6113bf828c610de5565b6113c9888c612e90565b6113d3898c613014565b6113dd818c6113f5565b6113e88b60016131e1565b5050505050505050505050565b6113fd61310a565b6001600160a01b0381166000818152600660205260408082208590555184917fef3cb734d88702dbb1c3bc381c52176876be95e70b66d3970d16653ee992a6c291a35050565b6000818152600460205260409020600101546001600160a01b031633146114ba5760405162461bcd60e51b815260206004820152602560248201527f596f7520617265206e6f7420746865206f776e6572206f6620746869732064656044820152641c1bdcda5d60da1b6064820152608401610aed565b60008181526004602052604090206007015442101561151b5760405162461bcd60e51b815260206004820152601360248201527f54696d656c6f636b206e6f7420706173736564000000000000000000000000006044820152606401610aed565b6000818152600460205260409020600201548211156115865760405162461bcd60e51b815260206004820152602160248201527f43616e2774207769746864726177206d6f7265207468616e20796f75206861766044820152606560f81b6064820152608401610aed565b6010546040516370a0823160e01b81523360048201526001600160a01b03909116906370a0823190602401602060405180830381865afa1580156115ce573d6000803e3d6000fd5b505050506040513d601f19601f820116820180604052508101906115f29190613b7d565b8211156116675760405162461bcd60e51b815260206004820152603760248201527f43616e2774207769746864726177206d6f726520746f6b656e73207468616e2060448201527f74686520636f6c6c61746572616c20796f7520686176650000000000000000006064820152608401610aed565b60006116733383612a08565b90508260046000848152602001908152602001600020600201600082825461169b9190613b96565b9091555050600082815260046020818152604080842042938101939093556006830185905591546001600160a01b03168352600a80825282842054600983529284205491526116ea9082613b96565b6116f49086613b0a565b6116fe9190613b3e565b905061173f6040518060400160405280600a81526020017f4c69717569643a2025730000000000000000000000000000000000000000000081525082613801565b60008381526004602081815260408084205481518083018352601181527f5661756c742062616c616e63653a202573000000000000000000000000000000818501529454825163fbfa77cf60e01b815292516001600160a01b039283169661186696909588956370a08231959094169363fbfa77cf938184019390918290030181865afa1580156117d4573d6000803e3d6000fd5b505050506040513d601f19601f820116820180604052508101906117f89190613b21565b6040516001600160e01b031960e084901b1681526001600160a01b0390911660048201526024015b602060405180830381865afa15801561183d573d6000803e3d6000fd5b505050506040513d601f19601f820116820180604052508101906118619190613b7d565b613801565b6119196040518060400160405280601181526020017f5661756c7420616464726573733a20257300000000000000000000000000000081525060008054906101000a90046001600160a01b03166001600160a01b031663fbfa77cf6040518163ffffffff1660e01b8152600401602060405180830381865afa1580156118f0573d6000803e3d6000fd5b505050506040513d601f19601f820116820180604052508101906119149190613b21565b61385b565b6119586040518060400160405280601181526020017f455243323020616464726573733a2025730000000000000000000000000000008152508261385b565b611a496040518060400160405280601381526020017f455243323020616c6c6f77616e63653a20257300000000000000000000000000815250826001600160a01b031663dd62ed3e3360008054906101000a90046001600160a01b03166001600160a01b031663fbfa77cf6040518163ffffffff1660e01b8152600401602060405180830381865afa1580156119f2573d6000803e3d6000fd5b505050506040513d601f19601f82011682018060405250810190611a169190613b21565b6040516001600160e01b031960e085901b1681526001600160a01b03928316600482015291166024820152604401611820565b81816001600160a01b031663dd62ed3e60008054906101000a90046001600160a01b03166001600160a01b031663fbfa77cf6040518163ffffffff1660e01b8152600401602060405180830381865afa158015611aaa573d6000803e3d6000fd5b505050506040513d601f19601f82011682018060405250810190611ace9190613b21565b6040516001600160e01b031960e084901b1681526001600160a01b039091166004820152306024820152604401602060405180830381865afa158015611b18573d6000803e3d6000fd5b505050506040513d601f19601f82011682018060405250810190611b3c9190613b7d565b1015611be15760405162461bcd60e51b815260206004820152606260248201527f547265617375727920436f6e7472616374206e65656420746f20617070726f7660448201527f65205374616b696e6720436f6e747261637420746f207769746864726177207960648201527f6f757220746f6b656e73202d2d20706c656173652063616c6c20616e2041646d60848201526134b760f11b60a482015260c401610aed565b6010546000858152600460209081526040808320546001600160a01b039081168452600f90925290912054911690639dc29fac903390611c219089613b0a565b6040516001600160e01b031960e085901b1681526001600160a01b0390921660048301526024820152604401600060405180830381600087803b158015611c6757600080fd5b505af1158015611c7b573d6000803e3d6000fd5b50505050806001600160a01b03166323b872dd60008054906101000a90046001600160a01b03166001600160a01b031663fbfa77cf6040518163ffffffff1660e01b8152600401602060405180830381865afa158015611cdf573d6000803e3d6000fd5b505050506040513d601f19601f82011682018060405250810190611d039190613b21565b6040516001600160e01b031960e084901b1681526001600160a01b039091166004820152336024820152604481018590526064016020604051808303816000875af1158015611d56573d6000803e3d6000fd5b505050506040513d601f19601f82011682018060405250810190611d7a9190613b60565b5060405182815233907f884edad9ce6fa2440d8a54cc123490eb96d2768479d49ff9c7366125a94243649060200160405180910390a25050505050565b6000818152600460205260409020600101546001600160a01b03163314611e2e5760405162461bcd60e51b815260206004820152602560248201527f596f7520617265206e6f7420746865206f776e6572206f6620746869732064656044820152641c1bdcda5d60da1b6064820152608401610aed565b611e37816128f5565b15611e8f5760405162461bcd60e51b815260206004820152602260248201527f547269656420746f20636f6d706f756e64207265776172647320746f6f20736f60448201526137b760f11b6064820152608401610aed565b600081815260046020526040812060060154611eab3384612a08565b611eb59190613af7565b60008381526004602052604081206006810182905560020180549293508392909190611ee2908490613af7565b90915550506000828152600460208181526040808420429381019390935560105492546001600160a01b039081168552600f909252909220549116906340c10f19903390611f309085613b0a565b6040516001600160e01b031960e085901b1681526001600160a01b0390921660048301526024820152604401600060405180830381600087803b158015611f7657600080fd5b505af1158015611f8a573d6000803e3d6000fd5b50506040518381523392507f169f1815ebdea059aac3bb00ec9a9594c7a5ffcb64a17e8392b5d84909a14556915060200160405180910390a25050565b6001600160a01b03811660009081526005602052604081205460ff1661202f5760405162461bcd60e51b815260206004820152601460248201527f546f6b656e206e6f7420617574686f72697a65640000000000000000000000006044820152606401610aed565b6001600160a01b0382166000908152600660205260409020548410156120a55760405162461bcd60e51b815260206004820152602560248201527f416d6f756e7420736d616c6c6572207468616e206d696e696d696d756d2064656044820152641c1bdcda5d60da1b6064820152608401610aed565b6040516370a0823160e01b8152336004820152829085906001600160a01b038316906370a0823190602401602060405180830381865afa1580156120ed573d6000803e3d6000fd5b505050506040513d601f19601f820116820180604052508101906121119190613b7d565b101561215f5760405162461bcd60e51b815260206004820152601d60248201527f43616e2774207374616b65206d6f7265207468616e20796f75206f776e0000006044820152606401610aed565b604051636eb1769f60e11b815233600482015230602482015285906001600160a01b0383169063dd62ed3e90604401602060405180830381865afa1580156121ab573d6000803e3d6000fd5b505050506040513d601f19601f820116820180604052508101906121cf9190613b7d565b101561221d5760405162461bcd60e51b815260206004820152601160248201527f416c6c6f77616e6365206e6f74207365740000000000000000000000000000006044820152606401610aed565b60048460ff1611156122715760405162461bcd60e51b815260206004820152601060248201527f496e76616c69642074696d656c6f636b000000000000000000000000000000006044820152606401610aed565b600061227c60015490565b9050604051806101200160405280856001600160a01b03168152602001336001600160a01b031681526020018781526020016000815260200142815260200142815260200160008152602001600081526020018660ff168152506004600083815260200190815260200160002060008201518160000160006101000a8154816001600160a01b0302191690836001600160a01b0316021790555060208201518160010160006101000a8154816001600160a01b0302191690836001600160a01b0316021790555060408201518160020155606082015181600301556080820151816004015560a0820151816005015560c0820151816006015560e082015181600701556101008201518160080160006101000a81548160ff021916908360ff160217905550905050600060048111156123b7576123b7613ba9565b60ff168560ff16036123e7576123d04262278d00613af7565b60008281526004602052604090206007015561245d565b60001960ff861601612400576123d0426276a700613af7565b60011960ff861601612419576123d04262ed4e00613af7565b60021960ff861601612433576123d0426301e13380613af7565b60031960ff86160161245d5761244a426078613af7565b6000828152600460205260409020600701555b3360008181526003602090815260408083208054600181018255908452828420018590559154825163fbfa77cf60e01b815292516001600160a01b03878116956323b872dd959094939091169263fbfa77cf926004808401938290030181865afa1580156124cf573d6000803e3d6000fd5b505050506040513d601f19601f820116820180604052508101906124f39190613b21565b6040516001600160e01b031960e085901b1681526001600160a01b03928316600482015291166024820152604481018990526064016020604051808303816000875af1158015612547573d6000803e3d6000fd5b505050506040513d601f19601f8201168201806040525081019061256b9190613b60565b506010546001600160a01b038581166000908152600f60205260409020549116906340c10f1990339061259e908a613b0a565b6040516001600160e01b031960e085901b1681526001600160a01b0390921660048301526024820152604401600060405180830381600087803b1580156125e457600080fd5b505af11580156125f8573d6000803e3d6000fd5b5050505061260a600180546001019055565b604080516001600160a01b038616815260208101889052339183917ff7373f56c201647feae85a62d3cf56286ed3a43d20c5eb7f9883d6ea690ef7c0910160405180910390a395945050505050565b61266161310a565b6001600160a01b0381166000818152600860205260408082208590555184917f8803800ab9d24dc1e2a2ada0893efb7b8fc19c55fddd9512c239b276e7f532fd91a35050565b600081815260046020526040812060028101546006909101549091906126cd3385612a08565b6126d79190613af7565b9050915091565b6126e661310a565b6001600160a01b0381166000818152600a60205260408082208590555184917f3bdd25ee6c72097873ae6536b32d2c78439a093fa54f9091c324f0a2140a880291a35050565b61273461310a565b6001600160a01b03811661278a5760405162461bcd60e51b815260206004820152601e60248201527f466f756e6465727320616464726573732063616e6e6f742062652030783000006044820152606401610aed565b601180546001600160a01b0319166001600160a01b0383169081179091556040517f23008753c65029d55e051a14341d50cf19b808653ba432a5faeb07bd7865e25b90600090a250565b6127dc61310a565b600080546001600160a01b0319166001600160a01b0383169081179091556040519081527f2f658b440c35314f52658ea8a740e05b284cdc84dc9ae01e891f21b8933e7cad9060200160405180910390a150565b61283861310a565b61284282826131e1565b5050565b6128508282611443565b61284281610a7a565b61286161310a565b6001600160a01b0381166000818152600e60205260408082208590555184917f583cc649b350d69beed18d7047064d367c82831d16e65d08ff74b549dff2d0ec91a35050565b6128af61310a565b6001600160a01b0381166000818152600d60205260408082208590555184917f11ef1060a695a1277b08edcbb2c364d43d4eb52f1060daaabf0df445cb6cdfdf91a35050565b600081815260046020818152604080842080546001600160a01b0316855260078352908420548585529183905290910154429161293191613af7565b1161293e57506000919050565b600082815260046020818152604080842080546001600160a01b03168552600783529084205493869052908290520154429161297991613af7565b6129839190613b96565b92915050565b61299161310a565b6001600160a01b0381166000818152600c60205260408082208590555184917fe0e7eacc628163b5a3362ddd2e66b5c7f729ed892e22b82931952c274f22a95191a35050565b600360205281600052604060002081815481106129f357600080fd5b90600052602060002001600091509150505481565b6000818152600460205260408120600101546001600160a01b03848116911614612a3457506000612983565b600082815260046020818152604080842080546001600160a01b0316855260088352908420548685529183905260028101549201546298968092610e109291612a7d9042613b96565b612a879190613b0a565b612a919190613b0a565b612a9b9190613b3e565b612aa59190613b3e565b6011546040516370a0823160e01b81526001600160a01b038781166004830152929350600092909116906370a0823190602401602060405180830381865afa158015612af5573d6000803e3d6000fd5b505050506040513d601f19601f82011682018060405250810190612b199190613b7d565b1115612b64576000838152600460209081526040808320546001600160a01b03168352600c825280832054600b90925290912054612b579083613b0a565b612b619190613b3e565b90505b6012546040516370a0823160e01b81526001600160a01b03868116600483015260009216906370a0823190602401602060405180830381865afa158015612baf573d6000803e3d6000fd5b505050506040513d601f19601f82011682018060405250810190612bd39190613b7d565b1115612cd6576012546040516370a0823160e01b81526001600160a01b03868116600483015260009216906370a0823190602401602060405180830381865afa158015612c24573d6000803e3d6000fd5b505050506040513d601f19601f82011682018060405250810190612c489190613b7d565b90506005811115612c57575060055b6000848152600460209081526040808320546001600160a01b03168352600e825280832054600d90925290912054612c8f9083613b0a565b6000868152600460209081526040808320546001600160a01b03168352600e909152902054612cbe9190613af7565b612cc89084613b0a565b612cd29190613b3e565b9150505b60008381526004602052604090206008015460ff16600103612d1257612710612d0182612774613b0a565b612d0b9190613b3e565b9050612d75565b60008381526004602052604090206008015460ff16600203612d3d57612710612d018261283c613b0a565b60008381526004602052604090206008015460ff16600303612d7557612710612d6882612a94613b0a565b612d729190613b3e565b90505b9392505050565b612d8461310a565b6001600160a01b038116612dda5760405162461bcd60e51b815260206004820152601a60248201527f6b4e465420616464726573732063616e6e6f74206265203078300000000000006044820152606401610aed565b601280546001600160a01b0319166001600160a01b0383169081179091556040517fc8e08c5b2fa487609cdc92d5cfcc240f3c8fc73ac5e58fafc5d465d20aaaf31290600090a250565b6001600160a01b038116600090815260036020908152604091829020805483518184028101840190945280845260609392830182828015612e8457602002820191906000526020600020905b815481526020019060010190808311612e70575b50505050509050919050565b612e9861310a565b6001600160a01b0381166000908152600a6020526040902054821115612f265760405162461bcd60e51b815260206004820152602760248201527f5769746864726177616c206665652063616e6e6f74206265206d6f726520746860448201527f616e2031303025000000000000000000000000000000000000000000000000006064820152608401610aed565b6001600160a01b0381166000818152600960205260408082208590555184917f5d5169bb1fbf418e612b1934f181b6ce300a1aad27fdb0e6f6aadbd96f50bb8f91a35050565b612f7461310a565b6001600160a01b038116612fca5760405162461bcd60e51b815260206004820152601b60248201527f48656c697820616464726573732063616e6e6f742062652030783000000000006044820152606401610aed565b601080546001600160a01b0319166001600160a01b0383169081179091556040517fdcbeffeaf77a19486e34d4b5fc3809913d1e7125a43b8dcdb17944ab2c17579090600090a250565b61301c61310a565b6001600160a01b0381166000818152600760205260408082208590555184917fd0d3d840363c3a773f4578f92d7914f6b37985570c79ee2889d69d7d8f12c29591a35050565b61306a61310a565b6001600160a01b0381166130c05760405162461bcd60e51b815260206004820152601e60248201527f547265617375727920616464726573732063616e6e6f742062652030783000006044820152606401610aed565b601380546001600160a01b0319166001600160a01b0383169081179091556040517fafa147634b29e2c7bd53ce194256b9f41cfb9ba3036f2b822fdd1d965beea08690600090a250565b60008054906101000a90046001600160a01b03166001600160a01b0316630c340a246040518163ffffffff1660e01b8152600401602060405180830381865afa15801561315b573d6000803e3d6000fd5b505050506040513d601f19601f8201168201806040525081019061317f9190613b21565b6001600160a01b0316336001600160a01b0316146131df5760405162461bcd60e51b815260206004820152600c60248201527f554e415554484f52495a454400000000000000000000000000000000000000006044820152606401610aed565b565b6001600160a01b0382166132375760405162461bcd60e51b815260206004820152601b60248201527f546f6b656e20616464726573732063616e6e6f742062652030783000000000006044820152606401610aed565b8015156001036137ad576001600160a01b0382166000908152600860205260409020546132b65760405162461bcd60e51b815260206004820152602760248201527f526577617264732070657220686f7572206d75737420626520677265617465726044820152660207468616e20360cc1b6064820152608401610aed565b6001600160a01b03821660009081526007602052604090205461332d5760405162461bcd60e51b815260206004820152602960248201527f436f6d706f756e64206672657175656e6379206d75737420626520677265617460448201526806572207468616e20360bc1b6064820152608401610aed565b6001600160a01b0382166000908152600960205260409020546133a05760405162461bcd60e51b815260206004820152602560248201527f5769746864726177616c20666565206d75737420626520677265617465722074604482015264068616e20360dc1b6064820152608401610aed565b6001600160a01b0382166000908152600a602052604090205461341b5760405162461bcd60e51b815260206004820152602d60248201527f5769746864726177616c206665652064697669736f72206d757374206265206760448201526c0726561746572207468616e203609c1b6064820152608401610aed565b6001600160a01b0382166000908152600b60205260409020546134955760405162461bcd60e51b815260206004820152602c60248201527f466f756e646572732072657761726420626f6f7374206d75737420626520677260448201526b06561746572207468616e20360a41b6064820152608401610aed565b6001600160a01b0382166000908152600c60205260409020546135205760405162461bcd60e51b815260206004820152603460248201527f466f756e646572732072657761726420626f6f73742064697669736f72206d7560448201527f73742062652067726561746572207468616e20300000000000000000000000006064820152608401610aed565b6001600160a01b0382166000908152600d60205260409020546135965760405162461bcd60e51b815260206004820152602860248201527f6b4e46542072657761726420626f6f7374206d75737420626520677265617465604482015267072207468616e20360c41b6064820152608401610aed565b6001600160a01b0382166000908152600e60205260409020546136145760405162461bcd60e51b815260206004820152603060248201527f6b4e46542072657761726420626f6f73742064697669736f72206d757374206260448201526f0652067726561746572207468616e20360841b6064820152608401610aed565b6001600160a01b0382166000908152600f60205260409020546136795760405162461bcd60e51b815260206004820152601c60248201527f526174696f206d7573742062652067726561746572207468616e2030000000006044820152606401610aed565b6001600160a01b0382166000908152600660205260409020546136ea5760405162461bcd60e51b8152602060048201526024808201527f4d696e696d756d207374616b65206d75737420626520677265617465722074686044820152630616e20360e41b6064820152608401610aed565b6000826001600160a01b03166318160ddd6040518163ffffffff1660e01b8152600401602060405180830381865afa15801561372a573d6000803e3d6000fd5b505050506040513d601f19601f8201168201806040525081019061374e9190613b7d565b116137ad5760405162461bcd60e51b815260206004820152602960248201527f546f6b656e20746f74616c20737570706c79206d75737420626520677265617460448201526806572207468616e20360bc1b6064820152608401610aed565b6001600160a01b038216600081815260056020526040808220805460ff191685151590811790915590519092917f59261974a183535ca20bb33ae77db42c679a079844739a2e10f0b6ecb847379a91a35050565b6128428282604051602401613817929190613c05565b60408051601f198184030181529190526020810180517bffffffffffffffffffffffffffffffffffffffffffffffffffffffff16632d839cb360e21b1790526138b1565b6128428282604051602401613871929190613c27565b60408051601f198184030181529190526020810180517bffffffffffffffffffffffffffffffffffffffffffffffffffffffff1663319af33360e01b1790525b80516a636f6e736f6c652e6c6f67602083016000808483855afa5050505050565b6001600160a01b03811681146138e757600080fd5b50565b6000602082840312156138fc57600080fd5b8135612d75816138d2565b60006020828403121561391957600080fd5b5035919050565b6000806040838503121561393357600080fd5b823591506020830135613945816138d2565b809150509250929050565b60008060008060008060008060008060006101608c8e03121561397257600080fd5b8b3561397d816138d2565b9d60208d01359d5060408d01359c60608101359c5060808101359b5060a08101359a5060c0810135995060e08101359850610100810135975061012081013596506101400135945092505050565b600080604083850312156139de57600080fd5b50508035926020909101359150565b600080600060608486031215613a0257600080fd5b83359250602084013560ff81168114613a1a57600080fd5b91506040840135613a2a816138d2565b809150509250925092565b80151581146138e757600080fd5b60008060408385031215613a5657600080fd5b8235613a61816138d2565b9150602083013561394581613a35565b60008060408385031215613a8457600080fd5b8235613a8f816138d2565b946020939093013593505050565b6020808252825182820181905260009190848201906040850190845b81811015613ad557835183529284019291840191600101613ab9565b50909695505050505050565b634e487b7160e01b600052601160045260246000fd5b8082018082111561298357612983613ae1565b808202811582820484141761298357612983613ae1565b600060208284031215613b3357600080fd5b8151612d75816138d2565b600082613b5b57634e487b7160e01b600052601260045260246000fd5b500490565b600060208284031215613b7257600080fd5b8151612d7581613a35565b600060208284031215613b8f57600080fd5b5051919050565b8181038181111561298357612983613ae1565b634e487b7160e01b600052602160045260246000fd5b6000815180845260005b81811015613be557602081850181015186830182015201613bc9565b506000602082860101526020601f19601f83011685010191505092915050565b604081526000613c186040830185613bbf565b90508260208301529392505050565b604081526000613c3a6040830185613bbf565b90506001600160a01b0383166020830152939250505056fea164736f6c6343000811000a",
  "devdoc": {
    "kind": "dev",
    "methods": {},
    "version": 1
  },
  "userdoc": {
    "kind": "user",
    "methods": {},
    "version": 1
  },
  "storageLayout": {
    "storage": [
      {
        "astId": 2587,
        "contract": "contracts/Staking.sol:Staking",
        "label": "authority",
        "offset": 0,
        "slot": "0",
        "type": "t_contract(IAuthority)2503"
      },
      {
        "astId": 297,
        "contract": "contracts/Staking.sol:Staking",
        "label": "_depositIds",
        "offset": 0,
        "slot": "1",
        "type": "t_struct(Counter)199_storage"
      },
      {
        "astId": 326,
        "contract": "contracts/Staking.sol:Staking",
        "label": "name",
        "offset": 0,
        "slot": "2",
        "type": "t_mapping(t_address,t_uint256)"
      },
      {
        "astId": 331,
        "contract": "contracts/Staking.sol:Staking",
        "label": "userDepositsIds",
        "offset": 0,
        "slot": "3",
        "type": "t_mapping(t_address,t_array(t_uint256)dyn_storage)"
      },
      {
        "astId": 336,
        "contract": "contracts/Staking.sol:Staking",
        "label": "userDeposits",
        "offset": 0,
        "slot": "4",
        "type": "t_mapping(t_uint256,t_struct(Staker)316_storage)"
      },
      {
        "astId": 340,
        "contract": "contracts/Staking.sol:Staking",
        "label": "authorizedERC20",
        "offset": 0,
        "slot": "5",
        "type": "t_mapping(t_address,t_bool)"
      },
      {
        "astId": 344,
        "contract": "contracts/Staking.sol:Staking",
        "label": "minStakeERC20",
        "offset": 0,
        "slot": "6",
        "type": "t_mapping(t_address,t_uint256)"
      },
      {
        "astId": 348,
        "contract": "contracts/Staking.sol:Staking",
        "label": "compoundFreqERC20",
        "offset": 0,
        "slot": "7",
        "type": "t_mapping(t_address,t_uint256)"
      },
      {
        "astId": 352,
        "contract": "contracts/Staking.sol:Staking",
        "label": "rewardsPerHourERC20",
        "offset": 0,
        "slot": "8",
        "type": "t_mapping(t_address,t_uint256)"
      },
      {
        "astId": 356,
        "contract": "contracts/Staking.sol:Staking",
        "label": "withdrawalFeeERC20",
        "offset": 0,
        "slot": "9",
        "type": "t_mapping(t_address,t_uint256)"
      },
      {
        "astId": 360,
        "contract": "contracts/Staking.sol:Staking",
        "label": "withdrawalFeeDivisorERC20",
        "offset": 0,
        "slot": "10",
        "type": "t_mapping(t_address,t_uint256)"
      },
      {
        "astId": 364,
        "contract": "contracts/Staking.sol:Staking",
        "label": "foundersRewardBoostERC20",
        "offset": 0,
        "slot": "11",
        "type": "t_mapping(t_address,t_uint256)"
      },
      {
        "astId": 368,
        "contract": "contracts/Staking.sol:Staking",
        "label": "foundersRewardBoostDivisorERC20",
        "offset": 0,
        "slot": "12",
        "type": "t_mapping(t_address,t_uint256)"
      },
      {
        "astId": 372,
        "contract": "contracts/Staking.sol:Staking",
        "label": "kNFTRewardBoostERC20",
        "offset": 0,
        "slot": "13",
        "type": "t_mapping(t_address,t_uint256)"
      },
      {
        "astId": 376,
        "contract": "contracts/Staking.sol:Staking",
        "label": "kNFTRewardBoostDivisorERC20",
        "offset": 0,
        "slot": "14",
        "type": "t_mapping(t_address,t_uint256)"
      },
      {
        "astId": 380,
        "contract": "contracts/Staking.sol:Staking",
        "label": "ratioERC20",
        "offset": 0,
        "slot": "15",
        "type": "t_mapping(t_address,t_uint256)"
      },
      {
        "astId": 383,
        "contract": "contracts/Staking.sol:Staking",
        "label": "helixERC20",
        "offset": 0,
        "slot": "16",
        "type": "t_contract(IHelix)2541"
      },
      {
        "astId": 386,
        "contract": "contracts/Staking.sol:Staking",
        "label": "konduxERC721Founders",
        "offset": 0,
        "slot": "17",
        "type": "t_contract(IERC721)193"
      },
      {
        "astId": 389,
        "contract": "contracts/Staking.sol:Staking",
        "label": "konduxERC721kNFT",
        "offset": 0,
        "slot": "18",
        "type": "t_contract(IERC721)193"
      },
      {
        "astId": 392,
        "contract": "contracts/Staking.sol:Staking",
        "label": "treasury",
        "offset": 0,
        "slot": "19",
        "type": "t_contract(ITreasury)2575"
      }
    ],
    "types": {
      "t_address": {
        "encoding": "inplace",
        "label": "address",
        "numberOfBytes": "20"
      },
      "t_array(t_uint256)dyn_storage": {
        "base": "t_uint256",
        "encoding": "dynamic_array",
        "label": "uint256[]",
        "numberOfBytes": "32"
      },
      "t_bool": {
        "encoding": "inplace",
        "label": "bool",
        "numberOfBytes": "1"
      },
      "t_contract(IAuthority)2503": {
        "encoding": "inplace",
        "label": "contract IAuthority",
        "numberOfBytes": "20"
      },
      "t_contract(IERC721)193": {
        "encoding": "inplace",
        "label": "contract IERC721",
        "numberOfBytes": "20"
      },
      "t_contract(IHelix)2541": {
        "encoding": "inplace",
        "label": "contract IHelix",
        "numberOfBytes": "20"
      },
      "t_contract(ITreasury)2575": {
        "encoding": "inplace",
        "label": "contract ITreasury",
        "numberOfBytes": "20"
      },
      "t_mapping(t_address,t_array(t_uint256)dyn_storage)": {
        "encoding": "mapping",
        "key": "t_address",
        "label": "mapping(address => uint256[])",
        "numberOfBytes": "32",
        "value": "t_array(t_uint256)dyn_storage"
      },
      "t_mapping(t_address,t_bool)": {
        "encoding": "mapping",
        "key": "t_address",
        "label": "mapping(address => bool)",
        "numberOfBytes": "32",
        "value": "t_bool"
      },
      "t_mapping(t_address,t_uint256)": {
        "encoding": "mapping",
        "key": "t_address",
        "label": "mapping(address => uint256)",
        "numberOfBytes": "32",
        "value": "t_uint256"
      },
      "t_mapping(t_uint256,t_struct(Staker)316_storage)": {
        "encoding": "mapping",
        "key": "t_uint256",
        "label": "mapping(uint256 => struct Staking.Staker)",
        "numberOfBytes": "32",
        "value": "t_struct(Staker)316_storage"
      },
      "t_struct(Counter)199_storage": {
        "encoding": "inplace",
        "label": "struct Counters.Counter",
        "members": [
          {
            "astId": 198,
            "contract": "contracts/Staking.sol:Staking",
            "label": "_value",
            "offset": 0,
            "slot": "0",
            "type": "t_uint256"
          }
        ],
        "numberOfBytes": "32"
      },
      "t_struct(Staker)316_storage": {
        "encoding": "inplace",
        "label": "struct Staking.Staker",
        "members": [
          {
            "astId": 299,
            "contract": "contracts/Staking.sol:Staking",
            "label": "token",
            "offset": 0,
            "slot": "0",
            "type": "t_address"
          },
          {
            "astId": 301,
            "contract": "contracts/Staking.sol:Staking",
            "label": "staker",
            "offset": 0,
            "slot": "1",
            "type": "t_address"
          },
          {
            "astId": 303,
            "contract": "contracts/Staking.sol:Staking",
            "label": "deposited",
            "offset": 0,
            "slot": "2",
            "type": "t_uint256"
          },
          {
            "astId": 305,
            "contract": "contracts/Staking.sol:Staking",
            "label": "redeemed",
            "offset": 0,
            "slot": "3",
            "type": "t_uint256"
          },
          {
            "astId": 307,
            "contract": "contracts/Staking.sol:Staking",
            "label": "timeOfLastUpdate",
            "offset": 0,
            "slot": "4",
            "type": "t_uint256"
          },
          {
            "astId": 309,
            "contract": "contracts/Staking.sol:Staking",
            "label": "lastDepositTime",
            "offset": 0,
            "slot": "5",
            "type": "t_uint256"
          },
          {
            "astId": 311,
            "contract": "contracts/Staking.sol:Staking",
            "label": "unclaimedRewards",
            "offset": 0,
            "slot": "6",
            "type": "t_uint256"
          },
          {
            "astId": 313,
            "contract": "contracts/Staking.sol:Staking",
            "label": "timelock",
            "offset": 0,
            "slot": "7",
            "type": "t_uint256"
          },
          {
            "astId": 315,
            "contract": "contracts/Staking.sol:Staking",
            "label": "timelockCategory",
            "offset": 0,
            "slot": "8",
            "type": "t_uint8"
          }
        ],
        "numberOfBytes": "288"
      },
      "t_uint256": {
        "encoding": "inplace",
        "label": "uint256",
        "numberOfBytes": "32"
      },
      "t_uint8": {
        "encoding": "inplace",
        "label": "uint8",
        "numberOfBytes": "1"
      }
    }
  }
}