{
  "address": "0x30E869cbA9636B649784a91345EE3D4c1EB08D2c",
  "abi": [
    {
      "inputs": [
        {
          "internalType": "address",
          "name": "_authority",
          "type": "address"
        },
        {
          "internalType": "address",
          "name": "_kondux",
          "type": "address"
        }
      ],
      "stateMutability": "nonpayable",
      "type": "constructor"
    },
    {
      "anonymous": false,
      "inputs": [
        {
          "indexed": false,
          "internalType": "contract IAuthority",
          "name": "authority",
          "type": "address"
        }
      ],
      "name": "AuthorityUpdated",
      "type": "event"
    },
    {
      "anonymous": false,
      "inputs": [
        {
          "indexed": true,
          "internalType": "address",
          "name": "token",
          "type": "address"
        },
        {
          "indexed": false,
          "internalType": "uint256",
          "name": "amount",
          "type": "uint256"
        }
      ],
      "name": "Deposit",
      "type": "event"
    },
    {
      "anonymous": false,
      "inputs": [
        {
          "indexed": false,
          "internalType": "uint256",
          "name": "amount",
          "type": "uint256"
        }
      ],
      "name": "DepositEther",
      "type": "event"
    },
    {
      "anonymous": false,
      "inputs": [
        {
          "indexed": false,
          "internalType": "uint256",
          "name": "amount",
          "type": "uint256"
        }
      ],
      "name": "EtherDeposit",
      "type": "event"
    },
    {
      "anonymous": false,
      "inputs": [
        {
          "indexed": false,
          "internalType": "uint256",
          "name": "amount",
          "type": "uint256"
        }
      ],
      "name": "EtherWithdrawal",
      "type": "event"
    },
    {
      "anonymous": false,
      "inputs": [
        {
          "indexed": true,
          "internalType": "address",
          "name": "token",
          "type": "address"
        },
        {
          "indexed": false,
          "internalType": "uint256",
          "name": "amount",
          "type": "uint256"
        }
      ],
      "name": "Withdrawal",
      "type": "event"
    },
    {
      "inputs": [],
      "name": "Kondux",
      "outputs": [
        {
          "internalType": "contract IERC20",
          "name": "",
          "type": "address"
        }
      ],
      "stateMutability": "view",
      "type": "function"
    },
    {
      "inputs": [],
      "name": "authority",
      "outputs": [
        {
          "internalType": "contract IAuthority",
          "name": "",
          "type": "address"
        }
      ],
      "stateMutability": "view",
      "type": "function"
    },
    {
      "inputs": [
        {
          "internalType": "uint256",
          "name": "_amount",
          "type": "uint256"
        },
        {
          "internalType": "address",
          "name": "_token",
          "type": "address"
        }
      ],
      "name": "deposit",
      "outputs": [],
      "stateMutability": "nonpayable",
      "type": "function"
    },
    {
      "inputs": [],
      "name": "depositEther",
      "outputs": [],
      "stateMutability": "payable",
      "type": "function"
    },
    {
      "inputs": [
        {
          "internalType": "enum Treasury.STATUS",
          "name": "",
          "type": "uint8"
        },
        {
          "internalType": "address",
          "name": "",
          "type": "address"
        }
      ],
      "name": "permissions",
      "outputs": [
        {
          "internalType": "bool",
          "name": "",
          "type": "bool"
        }
      ],
      "stateMutability": "view",
      "type": "function"
    },
    {
      "inputs": [
        {
          "internalType": "contract IAuthority",
          "name": "_newAuthority",
          "type": "address"
        }
      ],
      "name": "setAuthority",
      "outputs": [],
      "stateMutability": "nonpayable",
      "type": "function"
    },
    {
      "inputs": [
        {
          "internalType": "enum Treasury.STATUS",
          "name": "_status",
          "type": "uint8"
        },
        {
          "internalType": "address",
          "name": "_address",
          "type": "address"
        },
        {
          "internalType": "bool",
          "name": "_permission",
          "type": "bool"
        }
      ],
      "name": "setPermission",
      "outputs": [],
      "stateMutability": "nonpayable",
      "type": "function"
    },
    {
      "inputs": [
        {
          "internalType": "uint256",
          "name": "_amount",
          "type": "uint256"
        },
        {
          "internalType": "address",
          "name": "_token",
          "type": "address"
        }
      ],
      "name": "withdraw",
      "outputs": [],
      "stateMutability": "nonpayable",
      "type": "function"
    },
    {
      "inputs": [
        {
          "internalType": "uint256",
          "name": "_amount",
          "type": "uint256"
        }
      ],
      "name": "withdrawEther",
      "outputs": [],
      "stateMutability": "nonpayable",
      "type": "function"
    },
    {
      "stateMutability": "payable",
      "type": "receive"
    }
  ],
  "transactionHash": "0xcb9778c861c68bf8a14d2851504aca76910b3ce2459b22fb0d95f5f83162a107",
  "args": [
    "0x130025903Ef25390bEE8cC1a8049Cca40f3F3c96",
    "0x5B652FEEa0F83ECaADE83949535fa2B937bADf57"
  ],
  "numDeployments": 1,
  "solcInputHash": "b665482165c7999b0f19290497a409b3",
  "bytecode": "0x60e0604052601660a09081527f54726561737572793a206e6f742061636365707465640000000000000000000060c0526001906200003e9082620002b6565b5060408051808201909152601681527f54726561737572793a206e6f7420617070726f766564000000000000000000006020820152600290620000829082620002b6565b5060408051808201909152601781527f54726561737572793a20696e76616c696420746f6b656e0000000000000000006020820152600390620000c69082620002b6565b50348015620000d457600080fd5b5060405162000e1d38038062000e1d833981016040819052620000f7916200039f565b816001600160a01b038116620001545760405162461bcd60e51b815260206004820181905260248201527f417574686f726974792063616e6e6f74206265207a65726f206164647265737360448201526064015b60405180910390fd5b600080546001600160a01b0319166001600160a01b0383169081179091556040519081527f2f658b440c35314f52658ea8a740e05b284cdc84dc9ae01e891f21b8933e7cad9060200160405180910390a1506001600160a01b038116620001fe5760405162461bcd60e51b815260206004820152601460248201527f5a65726f20616464726573733a204b6f6e64757800000000000000000000000060448201526064016200014b565b6001600160a01b031660805250620003d7565b634e487b7160e01b600052604160045260246000fd5b600181811c908216806200023c57607f821691505b6020821081036200025d57634e487b7160e01b600052602260045260246000fd5b50919050565b601f821115620002b157600081815260208120601f850160051c810160208610156200028c5750805b601f850160051c820191505b81811015620002ad5782815560010162000298565b5050505b505050565b81516001600160401b03811115620002d257620002d262000211565b620002ea81620002e3845462000227565b8462000263565b602080601f831160018114620003225760008415620003095750858301515b600019600386901b1c1916600185901b178555620002ad565b600085815260208120601f198616915b82811015620003535788860151825594840194600190910190840162000332565b5085821015620003725787850151600019600388901b60f8161c191681555b5050505050600190811b01905550565b80516001600160a01b03811681146200039a57600080fd5b919050565b60008060408385031215620003b357600080fd5b620003be8362000382565b9150620003ce6020840162000382565b90509250929050565b608051610a2a620003f3600039600061017c0152610a2a6000f3fe6080604052600436106100995760003560e01c80636e553f65116100695780637a9e5e4b1161004e5780637a9e5e4b146101f657806398ea5fca14610216578063bf7e214f1461021e57600080fd5b80636e553f65146101b657806371a330f2146101d657600080fd5b8062f714ce146100d8578063330dd345146100fa5780633bed33ce1461014a5780634b3bd2e61461016a57600080fd5b366100d3576040513481527f66eca0f197db6a72a678383624c427a8762b06bb551f6c6e9f8e34a81c7e8da09060200160405180910390a1005b600080fd5b3480156100e457600080fd5b506100f86100f336600461081d565b61023e565b005b34801561010657600080fd5b50610135610115366004610861565b600460209081526000928352604080842090915290825290205460ff1681565b60405190151581526020015b60405180910390f35b34801561015657600080fd5b506100f861016536600461088d565b6103b5565b34801561017657600080fd5b5061019e7f000000000000000000000000000000000000000000000000000000000000000081565b6040516001600160a01b039091168152602001610141565b3480156101c257600080fd5b506100f86101d136600461081d565b610464565b3480156101e257600080fd5b506100f86101f13660046108b4565b6105ca565b34801561020257600080fd5b506100f86102113660046108fd565b610638565b6100f86106a6565b34801561022a57600080fd5b5060005461019e906001600160a01b031681565b6001600160a01b03811660009081527f91da3fd0782e51c6b3986e9e672fd566868e71f3dbc2d6c2cd6fbb3e361af2a7602052604090205460019060ff166102a25760405162461bcd60e51b81526004016102999190610937565b60405180910390fd5b503360009081527fabd6e7cb50984ff9c2f3e18a2660c3353dadf4e3291deeb275dae2cd1e44fe05602052604090205460029060ff166102f55760405162461bcd60e51b81526004016102999190610937565b506040516323b872dd60e01b8152306004820152336024820152604481018390526001600160a01b038216906323b872dd906064016020604051808303816000875af1158015610349573d6000803e3d6000fd5b505050506040513d601f19601f8201168201806040525081019061036d91906109e3565b50806001600160a01b03167f7fcf532c15f0a6db0bd6d0e038bea71d30d808c7d98cb3bf7268a95bf5081b65836040516103a991815260200190565b60405180910390a25050565b3360009081527fabd6e7cb50984ff9c2f3e18a2660c3353dadf4e3291deeb275dae2cd1e44fe05602052604090205460029060ff166104075760405162461bcd60e51b81526004016102999190610937565b50604051339082156108fc029083906000818181858888f1935050505061042d57600080fd5b6040518181527f1c372e00c65a07879f6f0931cde0a016339ce6d111c23383caa9922c1c2aab7b906020015b60405180910390a150565b6001600160a01b03811660009081527f91da3fd0782e51c6b3986e9e672fd566868e71f3dbc2d6c2cd6fbb3e361af2a7602052604090205460ff16156104fc573360009081527f17ef568e3e12ab5b9c7254a8d58478811de00f9e6eb34345acd53bf8fd09d3ec602052604090205460029060ff166104f65760405162461bcd60e51b81526004016102999190610937565b50610517565b600360405162461bcd60e51b81526004016102999190610937565b6040516323b872dd60e01b8152336004820152306024820152604481018390526001600160a01b038216906323b872dd906064016020604051808303816000875af115801561056a573d6000803e3d6000fd5b505050506040513d601f19601f8201168201806040525081019061058e91906109e3565b50806001600160a01b03167fe1fffcc4923d04b559f4d29a8bfc6cda04eb5b0d3c460751c2402c5c5cc9109c836040516103a991815260200190565b6105d261072e565b80600460008560028111156105e9576105e9610921565b60028111156105fa576105fa610921565b8152602080820192909252604090810160009081206001600160a01b0396909616815294909152909220805460ff1916921515929092179091555050565b61064061072e565b600080547fffffffffffffffffffffffff0000000000000000000000000000000000000000166001600160a01b0383169081179091556040519081527f2f658b440c35314f52658ea8a740e05b284cdc84dc9ae01e891f21b8933e7cad90602001610459565b3360009081527f17ef568e3e12ab5b9c7254a8d58478811de00f9e6eb34345acd53bf8fd09d3ec602052604090205460029060ff166106f85760405162461bcd60e51b81526004016102999190610937565b506040513481527fd5269418e5a2b45e710169d2c4b95243f38cee4ca6044cb91d8636dc4d01dd8a9060200160405180910390a1565b60008054906101000a90046001600160a01b03166001600160a01b0316630c340a246040518163ffffffff1660e01b8152600401602060405180830381865afa15801561077f573d6000803e3d6000fd5b505050506040513d601f19601f820116820180604052508101906107a39190610a00565b6001600160a01b0316336001600160a01b0316146108035760405162461bcd60e51b815260206004820152600c60248201527f554e415554484f52495a454400000000000000000000000000000000000000006044820152606401610299565b565b6001600160a01b038116811461081a57600080fd5b50565b6000806040838503121561083057600080fd5b82359150602083013561084281610805565b809150509250929050565b80356003811061085c57600080fd5b919050565b6000806040838503121561087457600080fd5b61087d8361084d565b9150602083013561084281610805565b60006020828403121561089f57600080fd5b5035919050565b801515811461081a57600080fd5b6000806000606084860312156108c957600080fd5b6108d28461084d565b925060208401356108e281610805565b915060408401356108f2816108a6565b809150509250925092565b60006020828403121561090f57600080fd5b813561091a81610805565b9392505050565b634e487b7160e01b600052602160045260246000fd5b600060208083526000845481600182811c91508083168061095957607f831692505b858310810361097657634e487b7160e01b85526022600452602485fd5b87860183815260200181801561099357600181146109a9576109d4565b60ff198616825284151560051b820196506109d4565b60008b81526020902060005b868110156109ce578154848201529085019089016109b5565b83019750505b50949998505050505050505050565b6000602082840312156109f557600080fd5b815161091a816108a6565b600060208284031215610a1257600080fd5b815161091a8161080556fea164736f6c6343000810000a",
  "devdoc": {
    "kind": "dev",
    "methods": {
      "deposit(uint256,address)": {
        "params": {
          "_amount": "uint256",
          "_token": "address"
        }
      },
      "withdraw(uint256,address)": {
        "params": {
          "_amount": "uint256",
          "_token": "address"
        }
      }
    },
    "version": 1
  },
  "userdoc": {
    "kind": "user",
    "methods": {
      "deposit(uint256,address)": {
        "notice": "allow approved address to deposit an asset for Kondux"
      },
      "withdraw(uint256,address)": {
        "notice": "allow approved address to withdraw Kondux from reserves"
      }
    },
    "version": 1
  },
  "storageLayout": {
    "storage": [
      {
        "astId": 8697,
        "contract": "contracts/Treasury.sol:Treasury",
        "label": "authority",
        "offset": 0,
        "slot": "0",
        "type": "t_contract(IAuthority)8266"
      },
      {
        "astId": 7861,
        "contract": "contracts/Treasury.sol:Treasury",
        "label": "notAccepted",
        "offset": 0,
        "slot": "1",
        "type": "t_string_storage"
      },
      {
        "astId": 7864,
        "contract": "contracts/Treasury.sol:Treasury",
        "label": "notApproved",
        "offset": 0,
        "slot": "2",
        "type": "t_string_storage"
      },
      {
        "astId": 7867,
        "contract": "contracts/Treasury.sol:Treasury",
        "label": "invalidToken",
        "offset": 0,
        "slot": "3",
        "type": "t_string_storage"
      },
      {
        "astId": 7874,
        "contract": "contracts/Treasury.sol:Treasury",
        "label": "permissions",
        "offset": 0,
        "slot": "4",
        "type": "t_mapping(t_enum(STATUS)7855,t_mapping(t_address,t_bool))"
      }
    ],
    "types": {
      "t_address": {
        "encoding": "inplace",
        "label": "address",
        "numberOfBytes": "20"
      },
      "t_bool": {
        "encoding": "inplace",
        "label": "bool",
        "numberOfBytes": "1"
      },
      "t_contract(IAuthority)8266": {
        "encoding": "inplace",
        "label": "contract IAuthority",
        "numberOfBytes": "20"
      },
      "t_enum(STATUS)7855": {
        "encoding": "inplace",
        "label": "enum Treasury.STATUS",
        "numberOfBytes": "1"
      },
      "t_mapping(t_address,t_bool)": {
        "encoding": "mapping",
        "key": "t_address",
        "label": "mapping(address => bool)",
        "numberOfBytes": "32",
        "value": "t_bool"
      },
      "t_mapping(t_enum(STATUS)7855,t_mapping(t_address,t_bool))": {
        "encoding": "mapping",
        "key": "t_enum(STATUS)7855",
        "label": "mapping(enum Treasury.STATUS => mapping(address => bool))",
        "numberOfBytes": "32",
        "value": "t_mapping(t_address,t_bool)"
      },
      "t_string_storage": {
        "encoding": "bytes",
        "label": "string",
        "numberOfBytes": "32"
      }
    }
  }
}