{
  "address": "0xefFDa63B1AF6B4033606368B7F3aA13E5BC91C26",
  "abi": [
    {
      "inputs": [
        {
          "internalType": "address",
          "name": "_authority",
          "type": "address"
        }
      ],
      "stateMutability": "nonpayable",
      "type": "constructor"
    },
    {
      "anonymous": false,
      "inputs": [
        {
          "indexed": false,
          "internalType": "contract IAuthority",
          "name": "authority",
          "type": "address"
        }
      ],
      "name": "AuthorityUpdated",
      "type": "event"
    },
    {
      "anonymous": false,
      "inputs": [
        {
          "indexed": true,
          "internalType": "address",
          "name": "token",
          "type": "address"
        },
        {
          "indexed": false,
          "internalType": "uint256",
          "name": "amount",
          "type": "uint256"
        }
      ],
      "name": "Deposit",
      "type": "event"
    },
    {
      "anonymous": false,
      "inputs": [
        {
          "indexed": false,
          "internalType": "uint256",
          "name": "amount",
          "type": "uint256"
        }
      ],
      "name": "DepositEther",
      "type": "event"
    },
    {
      "anonymous": false,
      "inputs": [
        {
          "indexed": false,
          "internalType": "uint256",
          "name": "amount",
          "type": "uint256"
        }
      ],
      "name": "EtherDeposit",
      "type": "event"
    },
    {
      "anonymous": false,
      "inputs": [
        {
          "indexed": false,
          "internalType": "address",
          "name": "to",
          "type": "address"
        },
        {
          "indexed": false,
          "internalType": "uint256",
          "name": "amount",
          "type": "uint256"
        }
      ],
      "name": "EtherWithdrawal",
      "type": "event"
    },
    {
      "anonymous": false,
      "inputs": [
        {
          "indexed": true,
          "internalType": "address",
          "name": "token",
          "type": "address"
        },
        {
          "indexed": false,
          "internalType": "uint256",
          "name": "amount",
          "type": "uint256"
        }
      ],
      "name": "Withdrawal",
      "type": "event"
    },
    {
      "stateMutability": "payable",
      "type": "fallback"
    },
    {
      "inputs": [
        {
          "internalType": "address",
          "name": "",
          "type": "address"
        }
      ],
      "name": "approvedTokens",
      "outputs": [
        {
          "internalType": "contract IKonduxERC20",
          "name": "",
          "type": "address"
        }
      ],
      "stateMutability": "view",
      "type": "function"
    },
    {
      "inputs": [],
      "name": "approvedTokensCount",
      "outputs": [
        {
          "internalType": "uint256",
          "name": "",
          "type": "uint256"
        }
      ],
      "stateMutability": "view",
      "type": "function"
    },
    {
      "inputs": [
        {
          "internalType": "uint256",
          "name": "",
          "type": "uint256"
        }
      ],
      "name": "approvedTokensList",
      "outputs": [
        {
          "internalType": "address",
          "name": "",
          "type": "address"
        }
      ],
      "stateMutability": "view",
      "type": "function"
    },
    {
      "inputs": [],
      "name": "authority",
      "outputs": [
        {
          "internalType": "contract IAuthority",
          "name": "",
          "type": "address"
        }
      ],
      "stateMutability": "view",
      "type": "function"
    },
    {
      "inputs": [
        {
          "internalType": "uint256",
          "name": "_amount",
          "type": "uint256"
        },
        {
          "internalType": "address",
          "name": "_token",
          "type": "address"
        }
      ],
      "name": "deposit",
      "outputs": [],
      "stateMutability": "nonpayable",
      "type": "function"
    },
    {
      "inputs": [],
      "name": "depositEther",
      "outputs": [],
      "stateMutability": "payable",
      "type": "function"
    },
    {
      "inputs": [
        {
          "internalType": "address",
          "name": "_token",
          "type": "address"
        },
        {
          "internalType": "uint256",
          "name": "_amount",
          "type": "uint256"
        }
      ],
      "name": "erc20ApprovalSetup",
      "outputs": [],
      "stateMutability": "nonpayable",
      "type": "function"
    },
    {
      "inputs": [
        {
          "internalType": "address",
          "name": "",
          "type": "address"
        }
      ],
      "name": "isTokenApprooved",
      "outputs": [
        {
          "internalType": "bool",
          "name": "",
          "type": "bool"
        }
      ],
      "stateMutability": "view",
      "type": "function"
    },
    {
      "inputs": [
        {
          "internalType": "enum Treasury.STATUS",
          "name": "",
          "type": "uint8"
        },
        {
          "internalType": "address",
          "name": "",
          "type": "address"
        }
      ],
      "name": "permissions",
      "outputs": [
        {
          "internalType": "bool",
          "name": "",
          "type": "bool"
        }
      ],
      "stateMutability": "view",
      "type": "function"
    },
    {
      "inputs": [
        {
          "internalType": "contract IAuthority",
          "name": "_newAuthority",
          "type": "address"
        }
      ],
      "name": "setAuthority",
      "outputs": [],
      "stateMutability": "nonpayable",
      "type": "function"
    },
    {
      "inputs": [
        {
          "internalType": "enum Treasury.STATUS",
          "name": "_status",
          "type": "uint8"
        },
        {
          "internalType": "address",
          "name": "_address",
          "type": "address"
        },
        {
          "internalType": "bool",
          "name": "_permission",
          "type": "bool"
        }
      ],
      "name": "setPermission",
      "outputs": [],
      "stateMutability": "nonpayable",
      "type": "function"
    },
    {
      "inputs": [
        {
          "internalType": "address",
          "name": "_stakingContract",
          "type": "address"
        }
      ],
      "name": "setStakingContract",
      "outputs": [],
      "stateMutability": "nonpayable",
      "type": "function"
    },
    {
      "inputs": [],
      "name": "stakingContract",
      "outputs": [
        {
          "internalType": "address",
          "name": "",
          "type": "address"
        }
      ],
      "stateMutability": "view",
      "type": "function"
    },
    {
      "inputs": [
        {
          "internalType": "uint256",
          "name": "_amount",
          "type": "uint256"
        },
        {
          "internalType": "address",
          "name": "_token",
          "type": "address"
        }
      ],
      "name": "withdraw",
      "outputs": [],
      "stateMutability": "nonpayable",
      "type": "function"
    },
    {
      "inputs": [
        {
          "internalType": "uint256",
          "name": "_amount",
          "type": "uint256"
        }
      ],
      "name": "withdrawEther",
      "outputs": [],
      "stateMutability": "nonpayable",
      "type": "function"
    },
    {
      "stateMutability": "payable",
      "type": "receive"
    }
  ],
  "transactionHash": "0xd57078b181020e9cfa8de9038d7df46e30e5fd0c3267186ec7b02aeeb3b14ccc",
  "args": [
    "0x348e88f388417Cb86cE2359b4108692ce43c6D85"
  ],
  "numDeployments": 4,
  "solcInputHash": "57d20ab8649bc333eacc843fa070c2f6",
  "bytecode": "0x60c0604052601660809081527f54726561737572793a206e6f742061636365707465640000000000000000000060a0526001906200003e908262000256565b5060408051808201909152601681527f54726561737572793a206e6f7420617070726f76656400000000000000000000602082015260029062000082908262000256565b5060408051808201909152601781527f54726561737572793a20696e76616c696420746f6b656e0000000000000000006020820152600390620000c6908262000256565b50348015620000d457600080fd5b506040516200114e3803806200114e833981016040819052620000f79162000322565b806001600160a01b038116620001535760405162461bcd60e51b815260206004820181905260248201527f417574686f726974792063616e6e6f74206265207a65726f2061646472657373604482015260640160405180910390fd5b600080546001600160a01b0319166001600160a01b0383169081179091556040519081527f2f658b440c35314f52658ea8a740e05b284cdc84dc9ae01e891f21b8933e7cad9060200160405180910390a15050600060085562000354565b634e487b7160e01b600052604160045260246000fd5b600181811c90821680620001dc57607f821691505b602082108103620001fd57634e487b7160e01b600052602260045260246000fd5b50919050565b601f8211156200025157600081815260208120601f850160051c810160208610156200022c5750805b601f850160051c820191505b818110156200024d5782815560010162000238565b5050505b505050565b81516001600160401b03811115620002725762000272620001b1565b6200028a81620002838454620001c7565b8462000203565b602080601f831160018114620002c25760008415620002a95750858301515b600019600386901b1c1916600185901b1785556200024d565b600085815260208120601f198616915b82811015620002f357888601518255948401946001909101908401620002d2565b5085821015620003125787850151600019600388901b60f8161c191681555b5050505050600190811b01905550565b6000602082840312156200033557600080fd5b81516001600160a01b03811681146200034d57600080fd5b9392505050565b610dea80620003646000396000f3fe6080604052600436106100eb5760003560e01c80636e553f651161008a5780639dd373b9116100595780639dd373b914610302578063bf7e214f14610322578063c1ecbfbc14610342578063ee99205c1461037257610126565b80636e553f651461029a57806371a330f2146102ba5780637a9e5e4b146102da57806398ea5fca146102fa57610126565b80633bed33ce116100c65780633bed33ce146101e85780634d9d01b2146102085780635727e93b1461022c5780636d1ea3fa1461026457610126565b8062f714ce1461015657806330d1832514610178578063330dd3451461019857610126565b36610126576040513481527f66eca0f197db6a72a678383624c427a8762b06bb551f6c6e9f8e34a81c7e8da0906020015b60405180910390a1005b6040513481527f66eca0f197db6a72a678383624c427a8762b06bb551f6c6e9f8e34a81c7e8da09060200161011c565b34801561016257600080fd5b50610176610171366004610b8a565b610392565b005b34801561018457600080fd5b50610176610193366004610bba565b610509565b3480156101a457600080fd5b506101d36101b3366004610bfa565b600460209081526000928352604080842090915290825290205460ff1681565b60405190151581526020015b60405180910390f35b3480156101f457600080fd5b50610176610203366004610c26565b610587565b34801561021457600080fd5b5061021e60085481565b6040519081526020016101df565b34801561023857600080fd5b5061024c610247366004610c26565b61063c565b6040516001600160a01b0390911681526020016101df565b34801561027057600080fd5b5061024c61027f366004610c3f565b6006602052600090815260409020546001600160a01b031681565b3480156102a657600080fd5b506101766102b5366004610b8a565b610666565b3480156102c657600080fd5b506101766102d5366004610c71565b610844565b3480156102e657600080fd5b506101766102f5366004610c3f565b610979565b6101766109dc565b34801561030e57600080fd5b5061017661031d366004610c3f565b610a64565b34801561032e57600080fd5b5060005461024c906001600160a01b031681565b34801561034e57600080fd5b506101d361035d366004610c3f565b60056020526000908152604090205460ff1681565b34801561037e57600080fd5b5060095461024c906001600160a01b031681565b6001600160a01b03811660009081527f91da3fd0782e51c6b3986e9e672fd566868e71f3dbc2d6c2cd6fbb3e361af2a7602052604090205460019060ff166103f65760405162461bcd60e51b81526004016103ed9190610cd0565b60405180910390fd5b503360009081527fabd6e7cb50984ff9c2f3e18a2660c3353dadf4e3291deeb275dae2cd1e44fe05602052604090205460029060ff166104495760405162461bcd60e51b81526004016103ed9190610cd0565b506040516323b872dd60e01b8152306004820152336024820152604481018390526001600160a01b038216906323b872dd906064016020604051808303816000875af115801561049d573d6000803e3d6000fd5b505050506040513d601f19601f820116820180604052508101906104c19190610d7c565b50806001600160a01b03167f7fcf532c15f0a6db0bd6d0e038bea71d30d808c7d98cb3bf7268a95bf5081b65836040516104fd91815260200190565b60405180910390a25050565b610511610a9b565b60405163095ea7b360e01b8152306004820152602481018290526001600160a01b0383169063095ea7b3906044016020604051808303816000875af115801561055e573d6000803e3d6000fd5b505050506040513d601f19601f820116820180604052508101906105829190610d7c565b505050565b3360009081527fabd6e7cb50984ff9c2f3e18a2660c3353dadf4e3291deeb275dae2cd1e44fe05602052604090205460029060ff166105d95760405162461bcd60e51b81526004016103ed9190610cd0565b50604051339082156108fc029083906000818181858888f193505050506105ff57600080fd5b60408051338152602081018390527fc70a094cb0b20f152b6d171a215827df475885ee85e81c9626d07200d7ddea4291015b60405180910390a150565b6007818154811061064c57600080fd5b6000918252602090912001546001600160a01b0316905081565b6001600160a01b03811660009081527f91da3fd0782e51c6b3986e9e672fd566868e71f3dbc2d6c2cd6fbb3e361af2a7602052604090205460ff16156106fe573360009081527f17ef568e3e12ab5b9c7254a8d58478811de00f9e6eb34345acd53bf8fd09d3ec602052604090205460029060ff166106f85760405162461bcd60e51b81526004016103ed9190610cd0565b50610719565b600360405162461bcd60e51b81526004016103ed9190610cd0565b6040516323b872dd60e01b8152326004820152306024820152604481018390526001600160a01b038216906323b872dd906064016020604051808303816000875af115801561076c573d6000803e3d6000fd5b505050506040513d601f19601f820116820180604052508101906107909190610d7c565b50600954604051633950935160e01b81526001600160a01b03918216600482015260248101849052908216906339509351906044016020604051808303816000875af11580156107e4573d6000803e3d6000fd5b505050506040513d601f19601f820116820180604052508101906108089190610d7c565b50806001600160a01b03167fe1fffcc4923d04b559f4d29a8bfc6cda04eb5b0d3c460751c2402c5c5cc9109c836040516104fd91815260200190565b61084c610a9b565b806004600085600281111561086357610863610cba565b600281111561087457610874610cba565b8152602080820192909252604090810160009081206001600160a01b03871682529092529020805460ff191691151591909117905560028360028111156108bd576108bd610cba565b03610582576001600160a01b0382166000908152600560205260409020805460ff19168215801591909117909155610582576001600160a01b0382166000818152600660205260408120805473ffffffffffffffffffffffffffffffffffffffff199081168417909155600780546001810182559083527fa66cc928b5edb82af9bd49922954155ab7b0942694bea4ce44661d9a8736c688018054909116909217909155600880549161096f83610d99565b9190505550505050565b610981610a9b565b6000805473ffffffffffffffffffffffffffffffffffffffff19166001600160a01b0383169081179091556040519081527f2f658b440c35314f52658ea8a740e05b284cdc84dc9ae01e891f21b8933e7cad90602001610631565b3360009081527f17ef568e3e12ab5b9c7254a8d58478811de00f9e6eb34345acd53bf8fd09d3ec602052604090205460029060ff16610a2e5760405162461bcd60e51b81526004016103ed9190610cd0565b506040513481527fd5269418e5a2b45e710169d2c4b95243f38cee4ca6044cb91d8636dc4d01dd8a9060200160405180910390a1565b610a6c610a9b565b6009805473ffffffffffffffffffffffffffffffffffffffff19166001600160a01b0392909216919091179055565b60008054906101000a90046001600160a01b03166001600160a01b0316630c340a246040518163ffffffff1660e01b8152600401602060405180830381865afa158015610aec573d6000803e3d6000fd5b505050506040513d601f19601f82011682018060405250810190610b109190610dc0565b6001600160a01b0316336001600160a01b031614610b705760405162461bcd60e51b815260206004820152600c60248201527f554e415554484f52495a4544000000000000000000000000000000000000000060448201526064016103ed565b565b6001600160a01b0381168114610b8757600080fd5b50565b60008060408385031215610b9d57600080fd5b823591506020830135610baf81610b72565b809150509250929050565b60008060408385031215610bcd57600080fd5b8235610bd881610b72565b946020939093013593505050565b803560038110610bf557600080fd5b919050565b60008060408385031215610c0d57600080fd5b610c1683610be6565b91506020830135610baf81610b72565b600060208284031215610c3857600080fd5b5035919050565b600060208284031215610c5157600080fd5b8135610c5c81610b72565b9392505050565b8015158114610b8757600080fd5b600080600060608486031215610c8657600080fd5b610c8f84610be6565b92506020840135610c9f81610b72565b91506040840135610caf81610c63565b809150509250925092565b634e487b7160e01b600052602160045260246000fd5b600060208083526000845481600182811c915080831680610cf257607f831692505b8583108103610d0f57634e487b7160e01b85526022600452602485fd5b878601838152602001818015610d2c5760018114610d4257610d6d565b60ff198616825284151560051b82019650610d6d565b60008b81526020902060005b86811015610d6757815484820152908501908901610d4e565b83019750505b50949998505050505050505050565b600060208284031215610d8e57600080fd5b8151610c5c81610c63565b600060018201610db957634e487b7160e01b600052601160045260246000fd5b5060010190565b600060208284031215610dd257600080fd5b8151610c5c81610b7256fea164736f6c6343000810000a",
  "devdoc": {
    "kind": "dev",
    "methods": {
      "deposit(uint256,address)": {
        "params": {
          "_amount": "uint256",
          "_token": "address"
        }
      },
      "withdraw(uint256,address)": {
        "params": {
          "_amount": "uint256",
          "_token": "address"
        }
      }
    },
    "version": 1
  },
  "userdoc": {
    "kind": "user",
    "methods": {
      "deposit(uint256,address)": {
        "notice": "allow approved address to deposit an asset for Kondux"
      },
      "withdraw(uint256,address)": {
        "notice": "allow approved address to withdraw Kondux from reserves"
      }
    },
    "version": 1
  },
  "storageLayout": {
    "storage": [
      {
        "astId": 554,
        "contract": "contracts/Treasury.sol:Treasury",
        "label": "authority",
        "offset": 0,
        "slot": "0",
        "type": "t_contract(IAuthority)518"
      },
      {
        "astId": 116,
        "contract": "contracts/Treasury.sol:Treasury",
        "label": "notAccepted",
        "offset": 0,
        "slot": "1",
        "type": "t_string_storage"
      },
      {
        "astId": 119,
        "contract": "contracts/Treasury.sol:Treasury",
        "label": "notApproved",
        "offset": 0,
        "slot": "2",
        "type": "t_string_storage"
      },
      {
        "astId": 122,
        "contract": "contracts/Treasury.sol:Treasury",
        "label": "invalidToken",
        "offset": 0,
        "slot": "3",
        "type": "t_string_storage"
      },
      {
        "astId": 129,
        "contract": "contracts/Treasury.sol:Treasury",
        "label": "permissions",
        "offset": 0,
        "slot": "4",
        "type": "t_mapping(t_enum(STATUS)113,t_mapping(t_address,t_bool))"
      },
      {
        "astId": 133,
        "contract": "contracts/Treasury.sol:Treasury",
        "label": "isTokenApprooved",
        "offset": 0,
        "slot": "5",
        "type": "t_mapping(t_address,t_bool)"
      },
      {
        "astId": 138,
        "contract": "contracts/Treasury.sol:Treasury",
        "label": "approvedTokens",
        "offset": 0,
        "slot": "6",
        "type": "t_mapping(t_address,t_contract(IKonduxERC20)542)"
      },
      {
        "astId": 141,
        "contract": "contracts/Treasury.sol:Treasury",
        "label": "approvedTokensList",
        "offset": 0,
        "slot": "7",
        "type": "t_array(t_address)dyn_storage"
      },
      {
        "astId": 143,
        "contract": "contracts/Treasury.sol:Treasury",
        "label": "approvedTokensCount",
        "offset": 0,
        "slot": "8",
        "type": "t_uint256"
      },
      {
        "astId": 145,
        "contract": "contracts/Treasury.sol:Treasury",
        "label": "stakingContract",
        "offset": 0,
        "slot": "9",
        "type": "t_address"
      }
    ],
    "types": {
      "t_address": {
        "encoding": "inplace",
        "label": "address",
        "numberOfBytes": "20"
      },
      "t_array(t_address)dyn_storage": {
        "base": "t_address",
        "encoding": "dynamic_array",
        "label": "address[]",
        "numberOfBytes": "32"
      },
      "t_bool": {
        "encoding": "inplace",
        "label": "bool",
        "numberOfBytes": "1"
      },
      "t_contract(IAuthority)518": {
        "encoding": "inplace",
        "label": "contract IAuthority",
        "numberOfBytes": "20"
      },
      "t_contract(IKonduxERC20)542": {
        "encoding": "inplace",
        "label": "contract IKonduxERC20",
        "numberOfBytes": "20"
      },
      "t_enum(STATUS)113": {
        "encoding": "inplace",
        "label": "enum Treasury.STATUS",
        "numberOfBytes": "1"
      },
      "t_mapping(t_address,t_bool)": {
        "encoding": "mapping",
        "key": "t_address",
        "label": "mapping(address => bool)",
        "numberOfBytes": "32",
        "value": "t_bool"
      },
      "t_mapping(t_address,t_contract(IKonduxERC20)542)": {
        "encoding": "mapping",
        "key": "t_address",
        "label": "mapping(address => contract IKonduxERC20)",
        "numberOfBytes": "32",
        "value": "t_contract(IKonduxERC20)542"
      },
      "t_mapping(t_enum(STATUS)113,t_mapping(t_address,t_bool))": {
        "encoding": "mapping",
        "key": "t_enum(STATUS)113",
        "label": "mapping(enum Treasury.STATUS => mapping(address => bool))",
        "numberOfBytes": "32",
        "value": "t_mapping(t_address,t_bool)"
      },
      "t_string_storage": {
        "encoding": "bytes",
        "label": "string",
        "numberOfBytes": "32"
      },
      "t_uint256": {
        "encoding": "inplace",
        "label": "uint256",
        "numberOfBytes": "32"
      }
    }
  }
}