{
  "address": "0x09504AEb8EC21A3ac9F47a0C6216AC4C45d09d88",
  "abi": [
    {
      "inputs": [
        {
          "internalType": "address",
          "name": "_authority",
          "type": "address"
        }
      ],
      "stateMutability": "nonpayable",
      "type": "constructor"
    },
    {
      "anonymous": false,
      "inputs": [
        {
          "indexed": false,
          "internalType": "contract IAuthority",
          "name": "authority",
          "type": "address"
        }
      ],
      "name": "AuthorityUpdated",
      "type": "event"
    },
    {
      "anonymous": false,
      "inputs": [
        {
          "indexed": true,
          "internalType": "address",
          "name": "token",
          "type": "address"
        },
        {
          "indexed": false,
          "internalType": "uint256",
          "name": "amount",
          "type": "uint256"
        }
      ],
      "name": "Deposit",
      "type": "event"
    },
    {
      "anonymous": false,
      "inputs": [
        {
          "indexed": false,
          "internalType": "uint256",
          "name": "amount",
          "type": "uint256"
        }
      ],
      "name": "DepositEther",
      "type": "event"
    },
    {
      "anonymous": false,
      "inputs": [
        {
          "indexed": false,
          "internalType": "uint256",
          "name": "amount",
          "type": "uint256"
        }
      ],
      "name": "EtherDeposit",
      "type": "event"
    },
    {
      "anonymous": false,
      "inputs": [
        {
          "indexed": false,
          "internalType": "address",
          "name": "to",
          "type": "address"
        },
        {
          "indexed": false,
          "internalType": "uint256",
          "name": "amount",
          "type": "uint256"
        }
      ],
      "name": "EtherWithdrawal",
      "type": "event"
    },
    {
      "anonymous": false,
      "inputs": [
        {
          "indexed": true,
          "internalType": "address",
          "name": "token",
          "type": "address"
        },
        {
          "indexed": false,
          "internalType": "uint256",
          "name": "amount",
          "type": "uint256"
        }
      ],
      "name": "Withdrawal",
      "type": "event"
    },
    {
      "stateMutability": "payable",
      "type": "fallback"
    },
    {
      "inputs": [],
      "name": "Kondux",
      "outputs": [
        {
          "internalType": "contract IERC20",
          "name": "",
          "type": "address"
        }
      ],
      "stateMutability": "view",
      "type": "function"
    },
    {
      "inputs": [
        {
          "internalType": "address",
          "name": "",
          "type": "address"
        }
      ],
      "name": "approvedTokens",
      "outputs": [
        {
          "internalType": "contract IERC20",
          "name": "",
          "type": "address"
        }
      ],
      "stateMutability": "view",
      "type": "function"
    },
    {
      "inputs": [],
      "name": "approvedTokensCount",
      "outputs": [
        {
          "internalType": "uint256",
          "name": "",
          "type": "uint256"
        }
      ],
      "stateMutability": "view",
      "type": "function"
    },
    {
      "inputs": [
        {
          "internalType": "uint256",
          "name": "",
          "type": "uint256"
        }
      ],
      "name": "approvedTokensList",
      "outputs": [
        {
          "internalType": "address",
          "name": "",
          "type": "address"
        }
      ],
      "stateMutability": "view",
      "type": "function"
    },
    {
      "inputs": [],
      "name": "authority",
      "outputs": [
        {
          "internalType": "contract IAuthority",
          "name": "",
          "type": "address"
        }
      ],
      "stateMutability": "view",
      "type": "function"
    },
    {
      "inputs": [
        {
          "internalType": "uint256",
          "name": "_amount",
          "type": "uint256"
        },
        {
          "internalType": "address",
          "name": "_token",
          "type": "address"
        }
      ],
      "name": "deposit",
      "outputs": [],
      "stateMutability": "nonpayable",
      "type": "function"
    },
    {
      "inputs": [],
      "name": "depositEther",
      "outputs": [],
      "stateMutability": "payable",
      "type": "function"
    },
    {
      "inputs": [
        {
          "internalType": "address",
          "name": "",
          "type": "address"
        }
      ],
      "name": "isTokenApprooved",
      "outputs": [
        {
          "internalType": "bool",
          "name": "",
          "type": "bool"
        }
      ],
      "stateMutability": "view",
      "type": "function"
    },
    {
      "inputs": [
        {
          "internalType": "enum Treasury.STATUS",
          "name": "",
          "type": "uint8"
        },
        {
          "internalType": "address",
          "name": "",
          "type": "address"
        }
      ],
      "name": "permissions",
      "outputs": [
        {
          "internalType": "bool",
          "name": "",
          "type": "bool"
        }
      ],
      "stateMutability": "view",
      "type": "function"
    },
    {
      "inputs": [
        {
          "internalType": "contract IAuthority",
          "name": "_newAuthority",
          "type": "address"
        }
      ],
      "name": "setAuthority",
      "outputs": [],
      "stateMutability": "nonpayable",
      "type": "function"
    },
    {
      "inputs": [
        {
          "internalType": "enum Treasury.STATUS",
          "name": "_status",
          "type": "uint8"
        },
        {
          "internalType": "address",
          "name": "_address",
          "type": "address"
        },
        {
          "internalType": "bool",
          "name": "_permission",
          "type": "bool"
        }
      ],
      "name": "setPermission",
      "outputs": [],
      "stateMutability": "nonpayable",
      "type": "function"
    },
    {
      "inputs": [
        {
          "internalType": "uint256",
          "name": "_amount",
          "type": "uint256"
        },
        {
          "internalType": "address",
          "name": "_token",
          "type": "address"
        }
      ],
      "name": "withdraw",
      "outputs": [],
      "stateMutability": "nonpayable",
      "type": "function"
    },
    {
      "inputs": [
        {
          "internalType": "uint256",
          "name": "_amount",
          "type": "uint256"
        }
      ],
      "name": "withdrawEther",
      "outputs": [],
      "stateMutability": "nonpayable",
      "type": "function"
    },
    {
      "stateMutability": "payable",
      "type": "receive"
    }
  ],
  "transactionHash": "0x15354d04fa0b337b06d298d92795c991f8488b48f16181feea8086718830f5e2",
  "args": [
    "0xEB98C8Df177D4281Fb07A67bb64ea490c7a0652d"
  ],
  "numDeployments": 1,
  "solcInputHash": "ac273f6df9310b562405715f366b9d50",
  "bytecode": "0x60c0604052601660809081527f54726561737572793a206e6f742061636365707465640000000000000000000060a0526002906200003e908262000256565b5060408051808201909152601681527f54726561737572793a206e6f7420617070726f76656400000000000000000000602082015260039062000082908262000256565b5060408051808201909152601781527f54726561737572793a20696e76616c696420746f6b656e0000000000000000006020820152600490620000c6908262000256565b50348015620000d457600080fd5b506040516200110038038062001100833981016040819052620000f79162000322565b806001600160a01b038116620001535760405162461bcd60e51b815260206004820181905260248201527f417574686f726974792063616e6e6f74206265207a65726f2061646472657373604482015260640160405180910390fd5b600080546001600160a01b0319166001600160a01b0383169081179091556040519081527f2f658b440c35314f52658ea8a740e05b284cdc84dc9ae01e891f21b8933e7cad9060200160405180910390a15050600060095562000354565b634e487b7160e01b600052604160045260246000fd5b600181811c90821680620001dc57607f821691505b602082108103620001fd57634e487b7160e01b600052602260045260246000fd5b50919050565b601f8211156200025157600081815260208120601f850160051c810160208610156200022c5750805b601f850160051c820191505b818110156200024d5782815560010162000238565b5050505b505050565b81516001600160401b03811115620002725762000272620001b1565b6200028a81620002838454620001c7565b8462000203565b602080601f831160018114620002c25760008415620002a95750858301515b600019600386901b1c1916600185901b1785556200024d565b600085815260208120601f198616915b82811015620002f357888601518255948401946001909101908401620002d2565b5085821015620003125787850151600019600388901b60f8161c191681555b5050505050600190811b01905550565b6000602082840312156200033557600080fd5b81516001600160a01b03811681146200034d57600080fd5b9392505050565b610d9c80620003646000396000f3fe6080604052600436106100d55760003560e01c80636d1ea3fa1161007f5780637a9e5e4b116100595780637a9e5e4b1461031157806398ea5fca14610331578063bf7e214f14610339578063c1ecbfbc146103595761014e565b80636d1ea3fa1461029b5780636e553f65146102d157806371a330f2146102f15761014e565b80634b3bd2e6116100b05780634b3bd2e61461021f5780634d9d01b2146102575780635727e93b1461027b5761014e565b8062f714ce1461018d578063330dd345146101af5780633bed33ce146101ff5761014e565b3661014e576101196040518060400160405280601281526020017f52656365697665642045746865723a202573000000000000000000000000000081525034610389565b6040513481527f66eca0f197db6a72a678383624c427a8762b06bb551f6c6e9f8e34a81c7e8da09060200160405180910390a1005b6101196040518060400160405280601281526020017f46616c6c6261636b2045746865723a202573000000000000000000000000000081525034610389565b34801561019957600080fd5b506101ad6101a8366004610b13565b6103e7565b005b3480156101bb57600080fd5b506101ea6101ca366004610b57565b600560209081526000928352604080842090915290825290205460ff1681565b60405190151581526020015b60405180910390f35b34801561020b57600080fd5b506101ad61021a366004610b83565b61055e565b34801561022b57600080fd5b5060015461023f906001600160a01b031681565b6040516001600160a01b0390911681526020016101f6565b34801561026357600080fd5b5061026d60095481565b6040519081526020016101f6565b34801561028757600080fd5b5061023f610296366004610b83565b610613565b3480156102a757600080fd5b5061023f6102b6366004610b9c565b6007602052600090815260409020546001600160a01b031681565b3480156102dd57600080fd5b506101ad6102ec366004610b13565b61063d565b3480156102fd57600080fd5b506101ad61030c366004610bce565b6107a3565b34801561031d57600080fd5b506101ad61032c366004610b9c565b6108d9565b6101ad61093c565b34801561034557600080fd5b5060005461023f906001600160a01b031681565b34801561036557600080fd5b506101ea610374366004610b9c565b60066020526000908152604090205460ff1681565b6103e3828260405160240161039f929190610c17565b60408051601f198184030181529190526020810180517bffffffffffffffffffffffffffffffffffffffffffffffffffffffff16632d839cb360e21b179052610a03565b5050565b6001600160a01b03811660009081527f89832631fb3c3307a103ba2c84ab569c64d6182a18893dcd163f0f1c2090733a602052604090205460029060ff1661044b5760405162461bcd60e51b81526004016104429190610c82565b60405180910390fd5b503360009081527f1471eb6eb2c5e789fc3de43f8ce62938c7d1836ec861730447e2ada8fd81017b602052604090205460039060ff1661049e5760405162461bcd60e51b81526004016104429190610c82565b506040516323b872dd60e01b8152306004820152336024820152604481018390526001600160a01b038216906323b872dd906064016020604051808303816000875af11580156104f2573d6000803e3d6000fd5b505050506040513d601f19601f820116820180604052508101906105169190610d2e565b50806001600160a01b03167f7fcf532c15f0a6db0bd6d0e038bea71d30d808c7d98cb3bf7268a95bf5081b658360405161055291815260200190565b60405180910390a25050565b3360009081527f1471eb6eb2c5e789fc3de43f8ce62938c7d1836ec861730447e2ada8fd81017b602052604090205460039060ff166105b05760405162461bcd60e51b81526004016104429190610c82565b50604051339082156108fc029083906000818181858888f193505050506105d657600080fd5b60408051338152602081018390527fc70a094cb0b20f152b6d171a215827df475885ee85e81c9626d07200d7ddea4291015b60405180910390a150565b6008818154811061062357600080fd5b6000918252602090912001546001600160a01b0316905081565b6001600160a01b03811660009081527f89832631fb3c3307a103ba2c84ab569c64d6182a18893dcd163f0f1c2090733a602052604090205460ff16156106d5573360009081527f05b8ccbb9d4d8fb16ea74ce3c29a41f1b461fbdaff4714a0d9a8eb05499746bc602052604090205460039060ff166106cf5760405162461bcd60e51b81526004016104429190610c82565b506106f0565b600460405162461bcd60e51b81526004016104429190610c82565b6040516323b872dd60e01b8152336004820152306024820152604481018390526001600160a01b038216906323b872dd906064016020604051808303816000875af1158015610743573d6000803e3d6000fd5b505050506040513d601f19601f820116820180604052508101906107679190610d2e565b50806001600160a01b03167fe1fffcc4923d04b559f4d29a8bfc6cda04eb5b0d3c460751c2402c5c5cc9109c8360405161055291815260200190565b6107ab610a24565b80600560008560028111156107c2576107c2610c6c565b60028111156107d3576107d3610c6c565b8152602080820192909252604090810160009081206001600160a01b03871682529092529020805460ff1916911515919091179055600283600281111561081c5761081c610c6c565b036108d4576001600160a01b0382166000908152600660205260409020805460ff191682158015919091179091556108d4576001600160a01b0382166000818152600760205260408120805473ffffffffffffffffffffffffffffffffffffffff199081168417909155600880546001810182559083527ff3f7a9fe364faab93b216da50a3214154f22a0a2b415b23a84c8169e8b636ee301805490911690921790915560098054916108ce83610d4b565b91905055505b505050565b6108e1610a24565b6000805473ffffffffffffffffffffffffffffffffffffffff19166001600160a01b0383169081179091556040519081527f2f658b440c35314f52658ea8a740e05b284cdc84dc9ae01e891f21b8933e7cad90602001610608565b3360009081527f05b8ccbb9d4d8fb16ea74ce3c29a41f1b461fbdaff4714a0d9a8eb05499746bc602052604090205460039060ff1661098e5760405162461bcd60e51b81526004016104429190610c82565b506109ce6040518060400160405280601181526020017f4465706f7369742045746865723a20257300000000000000000000000000000081525034610389565b6040513481527fd5269418e5a2b45e710169d2c4b95243f38cee4ca6044cb91d8636dc4d01dd8a9060200160405180910390a1565b80516a636f6e736f6c652e6c6f67602083016000808483855afa5050505050565b60008054906101000a90046001600160a01b03166001600160a01b0316630c340a246040518163ffffffff1660e01b8152600401602060405180830381865afa158015610a75573d6000803e3d6000fd5b505050506040513d601f19601f82011682018060405250810190610a999190610d72565b6001600160a01b0316336001600160a01b031614610af95760405162461bcd60e51b815260206004820152600c60248201527f554e415554484f52495a454400000000000000000000000000000000000000006044820152606401610442565b565b6001600160a01b0381168114610b1057600080fd5b50565b60008060408385031215610b2657600080fd5b823591506020830135610b3881610afb565b809150509250929050565b803560038110610b5257600080fd5b919050565b60008060408385031215610b6a57600080fd5b610b7383610b43565b91506020830135610b3881610afb565b600060208284031215610b9557600080fd5b5035919050565b600060208284031215610bae57600080fd5b8135610bb981610afb565b9392505050565b8015158114610b1057600080fd5b600080600060608486031215610be357600080fd5b610bec84610b43565b92506020840135610bfc81610afb565b91506040840135610c0c81610bc0565b809150509250925092565b604081526000835180604084015260005b81811015610c455760208187018101516060868401015201610c28565b506000606082850101526060601f19601f8301168401019150508260208301529392505050565b634e487b7160e01b600052602160045260246000fd5b600060208083526000845481600182811c915080831680610ca457607f831692505b8583108103610cc157634e487b7160e01b85526022600452602485fd5b878601838152602001818015610cde5760018114610cf457610d1f565b60ff198616825284151560051b82019650610d1f565b60008b81526020902060005b86811015610d1957815484820152908501908901610d00565b83019750505b50949998505050505050505050565b600060208284031215610d4057600080fd5b8151610bb981610bc0565b600060018201610d6b57634e487b7160e01b600052601160045260246000fd5b5060010190565b600060208284031215610d8457600080fd5b8151610bb981610afb56fea164736f6c6343000810000a",
  "devdoc": {
    "kind": "dev",
    "methods": {
      "deposit(uint256,address)": {
        "params": {
          "_amount": "uint256",
          "_token": "address"
        }
      },
      "withdraw(uint256,address)": {
        "params": {
          "_amount": "uint256",
          "_token": "address"
        }
      }
    },
    "version": 1
  },
  "userdoc": {
    "kind": "user",
    "methods": {
      "deposit(uint256,address)": {
        "notice": "allow approved address to deposit an asset for Kondux"
      },
      "withdraw(uint256,address)": {
        "notice": "allow approved address to withdraw Kondux from reserves"
      }
    },
    "version": 1
  },
  "storageLayout": {
    "storage": [
      {
        "astId": 9028,
        "contract": "contracts/Treasury.sol:Treasury",
        "label": "authority",
        "offset": 0,
        "slot": "0",
        "type": "t_contract(IAuthority)8550"
      },
      {
        "astId": 8075,
        "contract": "contracts/Treasury.sol:Treasury",
        "label": "Kondux",
        "offset": 0,
        "slot": "1",
        "type": "t_contract(IERC20)2280"
      },
      {
        "astId": 8078,
        "contract": "contracts/Treasury.sol:Treasury",
        "label": "notAccepted",
        "offset": 0,
        "slot": "2",
        "type": "t_string_storage"
      },
      {
        "astId": 8081,
        "contract": "contracts/Treasury.sol:Treasury",
        "label": "notApproved",
        "offset": 0,
        "slot": "3",
        "type": "t_string_storage"
      },
      {
        "astId": 8084,
        "contract": "contracts/Treasury.sol:Treasury",
        "label": "invalidToken",
        "offset": 0,
        "slot": "4",
        "type": "t_string_storage"
      },
      {
        "astId": 8091,
        "contract": "contracts/Treasury.sol:Treasury",
        "label": "permissions",
        "offset": 0,
        "slot": "5",
        "type": "t_mapping(t_enum(STATUS)8072,t_mapping(t_address,t_bool))"
      },
      {
        "astId": 8095,
        "contract": "contracts/Treasury.sol:Treasury",
        "label": "isTokenApprooved",
        "offset": 0,
        "slot": "6",
        "type": "t_mapping(t_address,t_bool)"
      },
      {
        "astId": 8100,
        "contract": "contracts/Treasury.sol:Treasury",
        "label": "approvedTokens",
        "offset": 0,
        "slot": "7",
        "type": "t_mapping(t_address,t_contract(IERC20)2280)"
      },
      {
        "astId": 8103,
        "contract": "contracts/Treasury.sol:Treasury",
        "label": "approvedTokensList",
        "offset": 0,
        "slot": "8",
        "type": "t_array(t_address)dyn_storage"
      },
      {
        "astId": 8105,
        "contract": "contracts/Treasury.sol:Treasury",
        "label": "approvedTokensCount",
        "offset": 0,
        "slot": "9",
        "type": "t_uint256"
      }
    ],
    "types": {
      "t_address": {
        "encoding": "inplace",
        "label": "address",
        "numberOfBytes": "20"
      },
      "t_array(t_address)dyn_storage": {
        "base": "t_address",
        "encoding": "dynamic_array",
        "label": "address[]",
        "numberOfBytes": "32"
      },
      "t_bool": {
        "encoding": "inplace",
        "label": "bool",
        "numberOfBytes": "1"
      },
      "t_contract(IAuthority)8550": {
        "encoding": "inplace",
        "label": "contract IAuthority",
        "numberOfBytes": "20"
      },
      "t_contract(IERC20)2280": {
        "encoding": "inplace",
        "label": "contract IERC20",
        "numberOfBytes": "20"
      },
      "t_enum(STATUS)8072": {
        "encoding": "inplace",
        "label": "enum Treasury.STATUS",
        "numberOfBytes": "1"
      },
      "t_mapping(t_address,t_bool)": {
        "encoding": "mapping",
        "key": "t_address",
        "label": "mapping(address => bool)",
        "numberOfBytes": "32",
        "value": "t_bool"
      },
      "t_mapping(t_address,t_contract(IERC20)2280)": {
        "encoding": "mapping",
        "key": "t_address",
        "label": "mapping(address => contract IERC20)",
        "numberOfBytes": "32",
        "value": "t_contract(IERC20)2280"
      },
      "t_mapping(t_enum(STATUS)8072,t_mapping(t_address,t_bool))": {
        "encoding": "mapping",
        "key": "t_enum(STATUS)8072",
        "label": "mapping(enum Treasury.STATUS => mapping(address => bool))",
        "numberOfBytes": "32",
        "value": "t_mapping(t_address,t_bool)"
      },
      "t_string_storage": {
        "encoding": "bytes",
        "label": "string",
        "numberOfBytes": "32"
      },
      "t_uint256": {
        "encoding": "inplace",
        "label": "uint256",
        "numberOfBytes": "32"
      }
    }
  }
}